{
  "transactions": [
    {
      "hash": "0x58cf0403133b51fc9afb6b7dbb6b4c1ef5b3d95288f9c0e75d9ee5d57ce0c0e0",
      "transactionType": "CREATE",
      "contractName": "GiwaFaucetV3",
      "contractAddress": "0x99586357d87b36351b52aefc1667e4199e39e24b",
      "function": null,
      "arguments": [
        "0x7893e1AcaeEDADFC4fa4a88e9E83a65e4C5BF19e",
        "0xd99b42e778498aa3c9c1f6a012359130252780511687a35982e8e52735453034"
      ],
      "transaction": {
        "from": "0x84c29fb8b41f229ad09f4d68f84d676a28dc4a3a",
        "to": null,
        "gas": "0x12762b",
        "value": "0x0",
        "input": "0x6080604052348015600e575f5ffd5b50604051610f7b380380610f7b833981016040819052602b9160a6565b6001600160a01b03821660775760405162461bcd60e51b815260206004820152601060248201526f24b73b30b634b2103b32b934b334b2b960811b604482015260640160405180910390fd5b5f80546001600160a01b039093166001600160a01b0319938416179055600155600280549091163317905560db565b5f5f6040838503121560b6575f5ffd5b82516001600160a01b038116811460cb575f5ffd5b6020939093015192949293505050565b610e93806100e85f395ff3fe608060405234801561000f575f5ffd5b506004361061011c575f3560e01c806391920f30116100a9578063a2724a4d1161006e578063a2724a4d14610278578063aa6ca80814610282578063c1b628dc14610297578063d1058e59146102aa578063fc9afd67146102b2575f5ffd5b806391920f30146101f5578063923894531461021f57806397988dce146102285780639ead72221461023b578063a219a0181461024e575f5ffd5b80632b7ac3f3116100ef5780632b7ac3f31461016b5780633528bee91461019557806378a89567146101a85780638c0bd916146101b05780638da5cb5b146101e2575f5ffd5b806309824a80146101205780630f2cdd6c146101355780631e83409a14610158578063270ef38514610135575b5f5ffd5b61013361012e366004610d26565b6102c5565b005b61014568056bc75e2d6310000081565b6040519081526020015b60405180910390f35b610133610166366004610d26565b61043e565b5f5461017d906001600160a01b031681565b6040516001600160a01b03909116815260200161014f565b6101456101a3366004610d26565b610817565b600454610145565b6101d26101be366004610d26565b60036020525f908152604090205460ff1681565b604051901515815260200161014f565b60025461017d906001600160a01b031681565b610145610203366004610d46565b600560209081525f928352604080842090915290825290205481565b61014560015481565b61017d610236366004610d77565b610885565b61017d610249366004610d77565b6108b3565b61014561025c366004610d46565b600660209081525f928352604080842090915290825290205481565b6101456201518081565b61028a6108db565b60405161014f9190610d8e565b6101336102a5366004610d46565b61093b565b6101336109ac565b6101456102c0366004610d46565b610cb0565b6002546001600160a01b031633146103105760405162461bcd60e51b81526020600482015260096024820152682737ba1037bbb732b960b91b60448201526064015b60405180910390fd5b6001600160a01b0381166103565760405162461bcd60e51b815260206004820152600d60248201526c24b73b30b634b2103a37b5b2b760991b6044820152606401610307565b6001600160a01b0381165f9081526003602052604090205460ff16156103b35760405162461bcd60e51b8152602060048201526012602482015271105b1c9958591e481c9959da5cdd195c995960721b6044820152606401610307565b6001600160a01b0381165f81815260036020526040808220805460ff1916600190811790915560048054918201815583527f8a35acfbc15ff81a39ae7d344fd709f28e8600b4aa8c65c6b64bfe7fe36bd19b0180546001600160a01b03191684179055517f158412daecdc1456d01568828bcdb18464cc7f1ce0215ddbc3f3cfede9d1e63d9190a250565b6001600160a01b0381165f9081526003602052604090205460ff1661049c5760405162461bcd60e51b8152602060048201526014602482015273151bdad95b881b9bdd081c9959da5cdd195c995960621b6044820152606401610307565b5f5460015460405163ba03e20560e01b815233600482015260248101919091526001600160a01b039091169063ba03e20590604401602060405180830381865afa1580156104ec573d5f5f3e3d5ffd5b505050506040513d601f19601f820116820180604052508101906105109190610dd9565b61054b5760405162461bcd60e51b815260206004820152600c60248201526b139bdd081d995c9a599a595960a21b6044820152606401610307565b335f9081526005602090815260408083206001600160a01b038516845290915290205461057c906201518090610e0c565b4210156105bd5760405162461bcd60e51b815260206004820152600f60248201526e436f6f6c646f776e2061637469766560881b6044820152606401610307565b6040516370a0823160e01b815230600482015268056bc75e2d63100000906001600160a01b038316906370a0823190602401602060405180830381865afa15801561060a573d5f5f3e3d5ffd5b505050506040513d601f19601f8201168201806040525081019061062e9190610e1f565b101561067c5760405162461bcd60e51b815260206004820152601b60248201527f496e73756666696369656e74206661756365742062616c616e636500000000006044820152606401610307565b335f9081526006602090815260408083206001600160a01b038516845290915290205468056bc75e2d63100000906106b5908290610e0c565b11156106fc5760405162461bcd60e51b815260206004820152601660248201527513585e081c195c881dd85b1b195d081c995858da195960521b6044820152606401610307565b335f8181526005602090815260408083206001600160a01b03861680855290835281842042905593835260068252808320938352929052908120805468056bc75e2d63100000929061074f908490610e0c565b909155505060405163a9059cbb60e01b815233600482015268056bc75e2d6310000060248201526001600160a01b0382169063a9059cbb906044016020604051808303815f875af11580156107a6573d5f5f3e3d5ffd5b505050506040513d601f19601f820116820180604052508101906107ca9190610dd9565b5060405168056bc75e2d6310000081526001600160a01b0382169033907ff7a40077ff7a04c7e61f6f26fb13774259ddf1b6bce9ecf26a8276cdd39926839060200160405180910390a350565b6040516370a0823160e01b81523060048201525f906001600160a01b038316906370a0823190602401602060405180830381865afa15801561085b573d5f5f3e3d5ffd5b505050506040513d601f19601f8201168201806040525081019061087f9190610e1f565b92915050565b5f6004828154811061089957610899610e36565b5f918252602090912001546001600160a01b031692915050565b600481815481106108c2575f80fd5b5f918252602090912001546001600160a01b0316905081565b6060600480548060200260200160405190810160405280929190818152602001828054801561093157602002820191905f5260205f20905b81546001600160a01b03168152600190910190602001808311610913575b5050505050905090565b6002546001600160a01b031633146109815760405162461bcd60e51b81526020600482015260096024820152682737ba1037bbb732b960b91b6044820152606401610307565b6001600160a01b039182165f9081526005602090815260408083209390941682529190915290812055565b5f5460015460405163ba03e20560e01b815233600482015260248101919091526001600160a01b039091169063ba03e20590604401602060405180830381865afa1580156109fc573d5f5f3e3d5ffd5b505050506040513d601f19601f82011682018060405250810190610a209190610dd9565b610a5b5760405162461bcd60e51b815260206004820152600c60248201526b139bdd081d995c9a599a595960a21b6044820152606401610307565b6004545f5b81811015610cac575f60048281548110610a7c57610a7c610e36565b5f9182526020808320909101543383526005825260408084206001600160a01b0390921680855291909252912054909150610abb906201518090610e0c565b421015610ac85750610ca4565b6040516370a0823160e01b815230600482015268056bc75e2d63100000906001600160a01b038316906370a0823190602401602060405180830381865afa158015610b15573d5f5f3e3d5ffd5b505050506040513d601f19601f82011682018060405250810190610b399190610e1f565b1015610b455750610ca4565b335f9081526006602090815260408083206001600160a01b038516845290915290205468056bc75e2d6310000090610b7e908290610e0c565b1115610b8a5750610ca4565b335f8181526005602090815260408083206001600160a01b03861680855290835281842042905593835260068252808320938352929052908120805468056bc75e2d631000009290610bdd908490610e0c565b909155505060405163a9059cbb60e01b815233600482015268056bc75e2d6310000060248201526001600160a01b0382169063a9059cbb906044016020604051808303815f875af1158015610c34573d5f5f3e3d5ffd5b505050506040513d601f19601f82011682018060405250810190610c589190610dd9565b5060405168056bc75e2d6310000081526001600160a01b0382169033907ff7a40077ff7a04c7e61f6f26fb13774259ddf1b6bce9ecf26a8276cdd39926839060200160405180910390a3505b600101610a60565b5050565b6001600160a01b038083165f9081526005602090815260408083209385168352929052908120548190610ce7906201518090610e0c565b9050804210610cf9575f91505061087f565b610d034282610e4a565b949350505050565b80356001600160a01b0381168114610d21575f5ffd5b919050565b5f60208284031215610d36575f5ffd5b610d3f82610d0b565b9392505050565b5f5f60408385031215610d57575f5ffd5b610d6083610d0b565b9150610d6e60208401610d0b565b90509250929050565b5f60208284031215610d87575f5ffd5b5035919050565b602080825282518282018190525f918401906040840190835b81811015610dce5783516001600160a01b0316835260209384019390920191600101610da7565b509095945050505050565b5f60208284031215610de9575f5ffd5b81518015158114610d3f575f5ffd5b634e487b7160e01b5f52601160045260245ffd5b8082018082111561087f5761087f610df8565b5f60208284031215610e2f575f5ffd5b5051919050565b634e487b7160e01b5f52603260045260245ffd5b8181038181111561087f5761087f610df856fea26469706673582212204822ff7c8211f59511db2ddb0a15bba613d78fd0e740eb37584005ef8a35250764736f6c634300081c00330000000000000000000000007893e1acaeedadfc4fa4a88e9e83a65e4c5bf19ed99b42e778498aa3c9c1f6a012359130252780511687a35982e8e52735453034",
        "nonce": "0x90",
        "chainId": "0x164ce"
      },
      "additionalContracts": [],
      "isFixedGasLimit": false
    },
    {
      "hash": "0xed248f1260171b3aec4530b66e2bb5068b56e1dc23a46974a99eefb60ede7a04",
      "transactionType": "CALL",
      "contractName": null,
      "contractAddress": "0x05e894ce2c176dbc30176626efa24850af2af0e2",
      "function": "transfer(address,uint256)",
      "arguments": [
        "0x99586357d87B36351b52AEFc1667e4199E39E24b",
        "398099877407686216682348"
      ],
      "transaction": {
        "from": "0x84c29fb8b41f229ad09f4d68f84d676a28dc4a3a",
        "to": "0x05e894ce2c176dbc30176626efa24850af2af0e2",
        "gas": "0xfcd5",
        "value": "0x0",
        "input": "0xa9059cbb00000000000000000000000099586357d87b36351b52aefc1667e4199e39e24b00000000000000000000000000000000000000000000544d099ffebe2c908b6c",
        "nonce": "0x91",
        "chainId": "0x164ce"
      },
      "additionalContracts": [],
      "isFixedGasLimit": false
    },
    {
      "hash": "0xf9bb12bbd3a469cce07b6139eaa8ebc6f34f2573ff457a13dfde809baa6c27b9",
      "transactionType": "CALL",
      "contractName": "GiwaFaucetV3",
      "contractAddress": "0x99586357d87b36351b52aefc1667e4199e39e24b",
      "function": "registerToken(address)",
      "arguments": [
        "0x05E894cE2C176Dbc30176626efa24850aF2af0e2"
      ],
      "transaction": {
        "from": "0x84c29fb8b41f229ad09f4d68f84d676a28dc4a3a",
        "to": "0x99586357d87b36351b52aefc1667e4199e39e24b",
        "gas": "0x1ef20",
        "value": "0x0",
        "input": "0x09824a8000000000000000000000000005e894ce2c176dbc30176626efa24850af2af0e2",
        "nonce": "0x92",
        "chainId": "0x164ce"
      },
      "additionalContracts": [],
      "isFixedGasLimit": false
    },
    {
      "hash": "0xf385c82735b9c81cb1e1143ca3fe7a196c9200cd7bb0f2a71a0c2ad749c137b5",
      "transactionType": "CALL",
      "contractName": null,
      "contractAddress": "0x2ba3f6838c5d12af133341a527ddffbf618e3988",
      "function": "claim(address)",
      "arguments": [
        "0x00E8F81208A33BF516cD7Dd46e7597dFB40F5a25"
      ],
      "transaction": {
        "from": "0x84c29fb8b41f229ad09f4d68f84d676a28dc4a3a",
        "to": "0x2ba3f6838c5d12af133341a527ddffbf618e3988",
        "gas": "0x20e6b",
        "value": "0x0",
        "input": "0x1e83409a00000000000000000000000000e8f81208a33bf516cd7dd46e7597dfb40f5a25",
        "nonce": "0x93",
        "chainId": "0x164ce"
      },
      "additionalContracts": [],
      "isFixedGasLimit": false
    },
    {
      "hash": "0x86e2621f35ca910032068a3c34f571deaf01be9cfdfb1930dfb9ac41bb8a6cb3",
      "transactionType": "CALL",
      "contractName": null,
      "contractAddress": "0x00e8f81208a33bf516cd7dd46e7597dfb40f5a25",
      "function": "transfer(address,uint256)",
      "arguments": [
        "0x99586357d87B36351b52AEFc1667e4199E39E24b",
        "398298669184576035138764"
      ],
      "transaction": {
        "from": "0x84c29fb8b41f229ad09f4d68f84d676a28dc4a3a",
        "to": "0x00e8f81208a33bf516cd7dd46e7597dfb40f5a25",
        "gas": "0xfcd5",
        "value": "0x0",
        "input": "0xa9059cbb00000000000000000000000099586357d87b36351b52aefc1667e4199e39e24b000000000000000000000000000000000000000000005457d06a429486e6accc",
        "nonce": "0x94",
        "chainId": "0x164ce"
      },
      "additionalContracts": [],
      "isFixedGasLimit": false
    },
    {
      "hash": "0x14e7d1b119a9dbc54d7d0243a1ec291ffdcaa850935821ef5b28858c31f5a1b2",
      "transactionType": "CALL",
      "contractName": "GiwaFaucetV3",
      "contractAddress": "0x99586357d87b36351b52aefc1667e4199e39e24b",
      "function": "registerToken(address)",
      "arguments": [
        "0x00E8F81208A33BF516cD7Dd46e7597dFB40F5a25"
      ],
      "transaction": {
        "from": "0x84c29fb8b41f229ad09f4d68f84d676a28dc4a3a",
        "to": "0x99586357d87b36351b52aefc1667e4199e39e24b",
        "gas": "0x192cc",
        "value": "0x0",
        "input": "0x09824a8000000000000000000000000000e8f81208a33bf516cd7dd46e7597dfb40f5a25",
        "nonce": "0x95",
        "chainId": "0x164ce"
      },
      "additionalContracts": [],
      "isFixedGasLimit": false
    },
    {
      "hash": "0xe6e9ee5b6796c7d802833ec9fe98f8562fbfed7e1eddd010e244f7daa83befbf",
      "transactionType": "CALL",
      "contractName": null,
      "contractAddress": "0x2ba3f6838c5d12af133341a527ddffbf618e3988",
      "function": "claim(address)",
      "arguments": [
        "0x263a171641882Db6b48210E1ea477DB3D1d34509"
      ],
      "transaction": {
        "from": "0x84c29fb8b41f229ad09f4d68f84d676a28dc4a3a",
        "to": "0x2ba3f6838c5d12af133341a527ddffbf618e3988",
        "gas": "0x22d74",
        "value": "0x0",
        "input": "0x1e83409a000000000000000000000000263a171641882db6b48210e1ea477db3d1d34509",
        "nonce": "0x96",
        "chainId": "0x164ce"
      },
      "additionalContracts": [],
      "isFixedGasLimit": false
    },
    {
      "hash": "0x4f17fc6bd471174f6fc7bec515bc11f30c5366d2022fd0fdf5b3bee57af15d20",
      "transactionType": "CALL",
      "contractName": null,
      "contractAddress": "0x263a171641882db6b48210e1ea477db3d1d34509",
      "function": "transfer(address,uint256)",
      "arguments": [
        "0x99586357d87B36351b52AEFc1667e4199E39E24b",
        "398200000000000000000000"
      ],
      "transaction": {
        "from": "0x84c29fb8b41f229ad09f4d68f84d676a28dc4a3a",
        "to": "0x263a171641882db6b48210e1ea477db3d1d34509",
        "gas": "0xfcb5",
        "value": "0x0",
        "input": "0xa9059cbb00000000000000000000000099586357d87b36351b52aefc1667e4199e39e24b000000000000000000000000000000000000000000005452771ae5fae2e00000",
        "nonce": "0x97",
        "chainId": "0x164ce"
      },
      "additionalContracts": [],
      "isFixedGasLimit": false
    },
    {
      "hash": "0x6882f5c97e6581693d179459811a833b407b192ef1f25c6c69308d3078e0c7f0",
      "transactionType": "CALL",
      "contractName": "GiwaFaucetV3",
      "contractAddress": "0x99586357d87b36351b52aefc1667e4199e39e24b",
      "function": "registerToken(address)",
      "arguments": [
        "0x263a171641882Db6b48210E1ea477DB3D1d34509"
      ],
      "transaction": {
        "from": "0x84c29fb8b41f229ad09f4d68f84d676a28dc4a3a",
        "to": "0x99586357d87b36351b52aefc1667e4199e39e24b",
        "gas": "0x1aa90",
        "value": "0x0",
        "input": "0x09824a80000000000000000000000000263a171641882db6b48210e1ea477db3d1d34509",
        "nonce": "0x98",
        "chainId": "0x164ce"
      },
      "additionalContracts": [],
      "isFixedGasLimit": false
    },
    {
      "hash": "0x9b068c8983e75784577ef676c80eecac68756d231c3a38268a0c7a822a328428",
      "transactionType": "CALL",
      "contractName": null,
      "contractAddress": "0x2ba3f6838c5d12af133341a527ddffbf618e3988",
      "function": "claim(address)",
      "arguments": [
        "0x82868dA66735FCD28185b9BEFa9fF2AeE4BA3FB8"
      ],
      "transaction": {
        "from": "0x84c29fb8b41f229ad09f4d68f84d676a28dc4a3a",
        "to": "0x2ba3f6838c5d12af133341a527ddffbf618e3988",
        "gas": "0x22d74",
        "value": "0x0",
        "input": "0x1e83409a00000000000000000000000082868da66735fcd28185b9befa9ff2aee4ba3fb8",
        "nonce": "0x99",
        "chainId": "0x164ce"
      },
      "additionalContracts": [],
      "isFixedGasLimit": false
    },
    {
      "hash": "0x2de008d8d5b8ec210bc9afc0fe1ce703f278e2cf951952f2dfc91462ea280407",
      "transactionType": "CALL",
      "contractName": null,
      "contractAddress": "0x82868da66735fcd28185b9befa9ff2aee4ba3fb8",
      "function": "transfer(address,uint256)",
      "arguments": [
        "0x99586357d87B36351b52AEFc1667e4199E39E24b",
        "398200000000000000000000"
      ],
      "transaction": {
        "from": "0x84c29fb8b41f229ad09f4d68f84d676a28dc4a3a",
        "to": "0x82868da66735fcd28185b9befa9ff2aee4ba3fb8",
        "gas": "0xfcb5",
        "value": "0x0",
        "input": "0xa9059cbb00000000000000000000000099586357d87b36351b52aefc1667e4199e39e24b000000000000000000000000000000000000000000005452771ae5fae2e00000",
        "nonce": "0x9a",
        "chainId": "0x164ce"
      },
      "additionalContracts": [],
      "isFixedGasLimit": false
    },
    {
      "hash": "0xac2aa46f47c5d4af13b95cf04b7b21ce4830597de02adaa896f8f07e7ec96064",
      "transactionType": "CALL",
      "contractName": "GiwaFaucetV3",
      "contractAddress": "0x99586357d87b36351b52aefc1667e4199e39e24b",
      "function": "registerToken(address)",
      "arguments": [
        "0x82868dA66735FCD28185b9BEFa9fF2AeE4BA3FB8"
      ],
      "transaction": {
        "from": "0x84c29fb8b41f229ad09f4d68f84d676a28dc4a3a",
        "to": "0x99586357d87b36351b52aefc1667e4199e39e24b",
        "gas": "0x1aa90",
        "value": "0x0",
        "input": "0x09824a8000000000000000000000000082868da66735fcd28185b9befa9ff2aee4ba3fb8",
        "nonce": "0x9b",
        "chainId": "0x164ce"
      },
      "additionalContracts": [],
      "isFixedGasLimit": false
    },
    {
      "hash": "0x6c5ab64feff247cda7aedec4175642b8e1d44aad16e152a44e0ef086bb1cc0d3",
      "transactionType": "CALL",
      "contractName": null,
      "contractAddress": "0x2ba3f6838c5d12af133341a527ddffbf618e3988",
      "function": "claim(address)",
      "arguments": [
        "0xEEd497B085113e8C3FC563935582a72F90BdE528"
      ],
      "transaction": {
        "from": "0x84c29fb8b41f229ad09f4d68f84d676a28dc4a3a",
        "to": "0x2ba3f6838c5d12af133341a527ddffbf618e3988",
        "gas": "0x22d74",
        "value": "0x0",
        "input": "0x1e83409a000000000000000000000000eed497b085113e8c3fc563935582a72f90bde528",
        "nonce": "0x9c",
        "chainId": "0x164ce"
      },
      "additionalContracts": [],
      "isFixedGasLimit": false
    },
    {
      "hash": "0xd22f25408a4ac31853e1e1761604875e9b28e898a849f46b1594f59cf9e0d11c",
      "transactionType": "CALL",
      "contractName": null,
      "contractAddress": "0xeed497b085113e8c3fc563935582a72f90bde528",
      "function": "transfer(address,uint256)",
      "arguments": [
        "0x99586357d87B36351b52AEFc1667e4199E39E24b",
        "398200000000000000000000"
      ],
      "transaction": {
        "from": "0x84c29fb8b41f229ad09f4d68f84d676a28dc4a3a",
        "to": "0xeed497b085113e8c3fc563935582a72f90bde528",
        "gas": "0xfcb5",
        "value": "0x0",
        "input": "0xa9059cbb00000000000000000000000099586357d87b36351b52aefc1667e4199e39e24b000000000000000000000000000000000000000000005452771ae5fae2e00000",
        "nonce": "0x9d",
        "chainId": "0x164ce"
      },
      "additionalContracts": [],
      "isFixedGasLimit": false
    },
    {
      "hash": "0x820b67c1a06e9eedc6e925f540a4e635590833f75cfab6aa04f35f83c382c808",
      "transactionType": "CALL",
      "contractName": "GiwaFaucetV3",
      "contractAddress": "0x99586357d87b36351b52aefc1667e4199e39e24b",
      "function": "registerToken(address)",
      "arguments": [
        "0xEEd497B085113e8C3FC563935582a72F90BdE528"
      ],
      "transaction": {
        "from": "0x84c29fb8b41f229ad09f4d68f84d676a28dc4a3a",
        "to": "0x99586357d87b36351b52aefc1667e4199e39e24b",
        "gas": "0x1aa90",
        "value": "0x0",
        "input": "0x09824a80000000000000000000000000eed497b085113e8c3fc563935582a72f90bde528",
        "nonce": "0x9e",
        "chainId": "0x164ce"
      },
      "additionalContracts": [],
      "isFixedGasLimit": false
    },
    {
      "hash": "0x69dffd5f925efc6db24f574f692f353bce0cc8024f927a154fb5f35ea7588dfe",
      "transactionType": "CREATE",
      "contractName": "GVF",
      "contractAddress": "0x3b3780b42716b40150859bfaeaab103a8ed0ad76",
      "function": null,
      "arguments": null,
      "transaction": {
        "from": "0x84c29fb8b41f229ad09f4d68f84d676a28dc4a3a",
        "to": null,
        "gas": "0xcaa46",
        "value": "0x0",
        "input": "0x608060405234801561000f575f5ffd5b50336040518060400160405280601781526020017f47697761566572696669656420476f7665726e616e63650000000000000000008152506040518060400160405280600381526020016223ab2360e91b815250816003908161007291906101a7565b50600461007f82826101a7565b5050506001600160a01b0381166100af57604051631e4fbdf760e01b81525f600482015260240160405180910390fd5b6100b8816100be565b50610261565b600580546001600160a01b038381166001600160a01b0319831681179093556040519116919082907f8be0079c531659141344cd1fd0a4f28419497f9722a3daafe3b4186f6b6457e0905f90a35050565b634e487b7160e01b5f52604160045260245ffd5b600181811c9082168061013757607f821691505b60208210810361015557634e487b7160e01b5f52602260045260245ffd5b50919050565b601f8211156101a257805f5260205f20601f840160051c810160208510156101805750805b601f840160051c820191505b8181101561019f575f815560010161018c565b50505b505050565b81516001600160401b038111156101c0576101c061010f565b6101d4816101ce8454610123565b8461015b565b6020601f821160018114610206575f83156101ef5750848201515b5f19600385901b1c1916600184901b17845561019f565b5f84815260208120601f198516915b828110156102355787850151825560209485019460019092019101610215565b508482101561025257868401515f19600387901b60f8161c191681555b50505050600190811b01905550565b6109288061026e5f395ff3fe608060405234801561000f575f5ffd5b50600436106100f0575f3560e01c806370a0823111610093578063a9059cbb11610063578063a9059cbb146101f2578063dd62ed3e14610205578063f2fde38b1461023d578063fca3b5aa14610250575f5ffd5b806370a08231146101a9578063715018a6146101d15780638da5cb5b146101d957806395d89b41146101ea575f5ffd5b806318160ddd116100ce57806318160ddd1461016057806323b872dd14610172578063313ce5671461018557806340c10f1914610194575f5ffd5b806306fdde03146100f45780630754617214610112578063095ea7b31461013d575b5f5ffd5b6100fc610263565b6040516101099190610798565b60405180910390f35b600654610125906001600160a01b031681565b6040516001600160a01b039091168152602001610109565b61015061014b3660046107e8565b6102f3565b6040519015158152602001610109565b6002545b604051908152602001610109565b610150610180366004610810565b61030c565b60405160128152602001610109565b6101a76101a23660046107e8565b61032f565b005b6101646101b736600461084a565b6001600160a01b03165f9081526020819052604090205490565b6101a7610368565b6005546001600160a01b0316610125565b6100fc61037b565b6101506102003660046107e8565b61038a565b61016461021336600461086a565b6001600160a01b039182165f90815260016020908152604080832093909416825291909152205490565b6101a761024b36600461084a565b610397565b6101a761025e36600461084a565b6103d9565b6060600380546102729061089b565b80601f016020809104026020016040519081016040528092919081815260200182805461029e9061089b565b80156102e95780601f106102c0576101008083540402835291602001916102e9565b820191905f5260205f20905b8154815290600101906020018083116102cc57829003601f168201915b5050505050905090565b5f33610300818585610403565b60019150505b92915050565b5f33610319858285610415565b610324858585610491565b506001949350505050565b6006546001600160a01b0316331461035a57604051633e34a41b60e21b815260040160405180910390fd5b61036482826104ee565b5050565b610370610522565b6103795f61054f565b565b6060600480546102729061089b565b5f33610300818585610491565b61039f610522565b6001600160a01b0381166103cd57604051631e4fbdf760e01b81525f60048201526024015b60405180910390fd5b6103d68161054f565b50565b6103e1610522565b600680546001600160a01b0319166001600160a01b0392909216919091179055565b61041083838360016105a0565b505050565b6001600160a01b038381165f908152600160209081526040808320938616835292905220545f1981101561048b578181101561047d57604051637dc7a0d960e11b81526001600160a01b038416600482015260248101829052604481018390526064016103c4565b61048b84848484035f6105a0565b50505050565b6001600160a01b0383166104ba57604051634b637e8f60e11b81525f60048201526024016103c4565b6001600160a01b0382166104e35760405163ec442f0560e01b81525f60048201526024016103c4565b610410838383610672565b6001600160a01b0382166105175760405163ec442f0560e01b81525f60048201526024016103c4565b6103645f8383610672565b6005546001600160a01b031633146103795760405163118cdaa760e01b81523360048201526024016103c4565b600580546001600160a01b038381166001600160a01b0319831681179093556040519116919082907f8be0079c531659141344cd1fd0a4f28419497f9722a3daafe3b4186f6b6457e0905f90a35050565b6001600160a01b0384166105c95760405163e602df0560e01b81525f60048201526024016103c4565b6001600160a01b0383166105f257604051634a1406b160e11b81525f60048201526024016103c4565b6001600160a01b038085165f908152600160209081526040808320938716835292905220829055801561048b57826001600160a01b0316846001600160a01b03167f8c5be1e5ebec7d5bd14f71427d1e84f3dd0314c0f7b2291e5b200ac8c7c3b9258460405161066491815260200190565b60405180910390a350505050565b6001600160a01b03831661069c578060025f82825461069191906108d3565b9091555061070c9050565b6001600160a01b0383165f90815260208190526040902054818110156106ee5760405163391434e360e21b81526001600160a01b038516600482015260248101829052604481018390526064016103c4565b6001600160a01b0384165f9081526020819052604090209082900390555b6001600160a01b03821661072857600280548290039055610746565b6001600160a01b0382165f9081526020819052604090208054820190555b816001600160a01b0316836001600160a01b03167fddf252ad1be2c89b69c2b068fc378daa952ba7f163c4a11628f55a4df523b3ef8360405161078b91815260200190565b60405180910390a3505050565b602081525f82518060208401528060208501604085015e5f604082850101526040601f19601f83011684010191505092915050565b80356001600160a01b03811681146107e3575f5ffd5b919050565b5f5f604083850312156107f9575f5ffd5b610802836107cd565b946020939093013593505050565b5f5f5f60608486031215610822575f5ffd5b61082b846107cd565b9250610839602085016107cd565b929592945050506040919091013590565b5f6020828403121561085a575f5ffd5b610863826107cd565b9392505050565b5f5f6040838503121561087b575f5ffd5b610884836107cd565b9150610892602084016107cd565b90509250929050565b600181811c908216806108af57607f821691505b6020821081036108cd57634e487b7160e01b5f52602260045260245ffd5b50919050565b8082018082111561030657634e487b7160e01b5f52601160045260245ffdfea264697066735822122036cd957385e9a6f85739c4a247e36a1885bd45293834879d8935469ffa8006f764736f6c634300081c0033",
        "nonce": "0x9f",
        "chainId": "0x164ce"
      },
      "additionalContracts": [],
      "isFixedGasLimit": false
    },
    {
      "hash": "0xab543e006dbfd1eb16b39df410353b59695c9aa333c7e44c84b03eb64fd88ab9",
      "transactionType": "CREATE",
      "contractName": "GiwaGovernanceBadge",
      "contractAddress": "0xae6612cac8957fc069b24055ae9b288bb350105d",
      "function": null,
      "arguments": null,
      "transaction": {
        "from": "0x84c29fb8b41f229ad09f4d68f84d676a28dc4a3a",
        "to": null,
        "gas": "0x166089",
        "value": "0x0",
        "input": "0x608060405234801561000f575f5ffd5b503360405180606001604052806021815260200161137f6021913960408051808201909152600581526423ab23a7ab60d91b60208201525f6100518382610186565b50600161005e8282610186565b5050506001600160a01b03811661008e57604051631e4fbdf760e01b81525f600482015260240160405180910390fd5b6100978161009d565b50610240565b600680546001600160a01b038381166001600160a01b0319831681179093556040519116919082907f8be0079c531659141344cd1fd0a4f28419497f9722a3daafe3b4186f6b6457e0905f90a35050565b634e487b7160e01b5f52604160045260245ffd5b600181811c9082168061011657607f821691505b60208210810361013457634e487b7160e01b5f52602260045260245ffd5b50919050565b601f82111561018157805f5260205f20601f840160051c8101602085101561015f5750805b601f840160051c820191505b8181101561017e575f815560010161016b565b50505b505050565b81516001600160401b0381111561019f5761019f6100ee565b6101b3816101ad8454610102565b8461013a565b6020601f8211600181146101e5575f83156101ce5750848201515b5f19600385901b1c1916600184901b17845561017e565b5f84815260208120601f198516915b8281101561021457878501518255602094850194600190920191016101f4565b508482101561023157868401515f19600387901b60f8161c191681555b50505050600190811b01905550565b6111328061024d5f395ff3fe608060405234801561000f575f5ffd5b5060043610610127575f3560e01c806370a08231116100a9578063b88d4fde1161006e578063b88d4fde14610260578063c87b56dd14610273578063e985e9c514610286578063f2fde38b14610299578063fca3b5aa146102ac575f5ffd5b806370a0823114610219578063715018a61461022c5780638da5cb5b1461023457806395d89b4114610245578063a22cb4651461024d575f5ffd5b806318160ddd116100ef57806318160ddd146101bb57806321a1bf2c146101cd57806323b872dd146101e057806342842e0e146101f35780636352211e14610206575f5ffd5b806301ffc9a71461012b57806306fdde03146101535780630754617214610168578063081812fc14610193578063095ea7b3146101a6575b5f5ffd5b61013e610139366004610cb3565b6102bf565b60405190151581526020015b60405180910390f35b61015b610310565b60405161014a9190610d03565b60075461017b906001600160a01b031681565b6040516001600160a01b03909116815260200161014a565b61017b6101a1366004610d15565b61039f565b6101b96101b4366004610d42565b6103c6565b005b6008545b60405190815260200161014a565b6101bf6101db366004610d6a565b6103d5565b6101b96101ee366004610d83565b61044e565b6101b9610201366004610d83565b6104d7565b61017b610214366004610d15565b6104f6565b6101bf610227366004610d6a565b610500565b6101b9610545565b6006546001600160a01b031661017b565b61015b610558565b6101b961025b366004610dbd565b610567565b6101b961026e366004610e0a565b610572565b61015b610281366004610d15565b61058a565b61013e610294366004610ee7565b6105ae565b6101b96102a7366004610d6a565b6105db565b6101b96102ba366004610d6a565b610618565b5f6001600160e01b031982166380ac58cd60e01b14806102ef57506001600160e01b03198216635b5e139f60e01b145b8061030a57506301ffc9a760e01b6001600160e01b03198316145b92915050565b60605f805461031e90610f18565b80601f016020809104026020016040519081016040528092919081815260200182805461034a90610f18565b80156103955780601f1061036c57610100808354040283529160200191610395565b820191905f5260205f20905b81548152906001019060200180831161037857829003601f168201915b5050505050905090565b5f6103a982610642565b505f828152600460205260409020546001600160a01b031661030a565b6103d182823361067a565b5050565b6007545f906001600160a01b031633146104245760405162461bcd60e51b815260206004820152600b60248201526a27b7363c9036b4b73a32b960a91b60448201526064015b60405180910390fd5b60088054905f61043383610f50565b919050555061044482600854610687565b506008545b919050565b6001600160a01b03821661047757604051633250574960e11b81525f600482015260240161041b565b5f6104838383336106a0565b9050836001600160a01b0316816001600160a01b0316146104d1576040516364283d7b60e01b81526001600160a01b038086166004830152602482018490528216604482015260640161041b565b50505050565b6104f183838360405180602001604052805f815250610572565b505050565b5f61030a82610642565b5f6001600160a01b03821661052a576040516322718ad960e21b81525f600482015260240161041b565b506001600160a01b03165f9081526003602052604090205490565b61054d6106fe565b6105565f61072b565b565b60606001805461031e90610f18565b6103d133838361077c565b61057d84848461044e565b6104d13385858585610843565b60606040518061016001604052806101318152602001610fcc610131913992915050565b6001600160a01b039182165f90815260056020908152604080832093909416825291909152205460ff1690565b6105e36106fe565b6001600160a01b03811661060c57604051631e4fbdf760e01b81525f600482015260240161041b565b6106158161072b565b50565b6106206106fe565b600780546001600160a01b0319166001600160a01b0392909216919091179055565b5f818152600260205260408120546001600160a01b03168061030a57604051637e27328960e01b81526004810184905260240161041b565b6104f1838383600161096b565b6103d1828260405180602001604052805f815250610a6f565b5f828152600260205260408120546001600160a01b0316158015906106cd57506001600160a01b03841615155b156106eb5760405163a4420a9560e01b815260040160405180910390fd5b6106f6848484610a86565b949350505050565b6006546001600160a01b031633146105565760405163118cdaa760e01b815233600482015260240161041b565b600680546001600160a01b038381166001600160a01b0319831681179093556040519116919082907f8be0079c531659141344cd1fd0a4f28419497f9722a3daafe3b4186f6b6457e0905f90a35050565b6001600160a01b0383166107a55760405163a9fbf51f60e01b81525f600482015260240161041b565b6001600160a01b0382166107d757604051630b61174360e31b81526001600160a01b038316600482015260240161041b565b6001600160a01b038381165f81815260056020908152604080832094871680845294825291829020805460ff191686151590811790915591519182527f17307eab39ab6107e8899845ad3d59bd9653f200f220920489ca2b5937696c31910160405180910390a3505050565b6001600160a01b0383163b1561096457604051630a85bd0160e11b81526001600160a01b0384169063150b7a0290610885908890889087908790600401610f74565b6020604051808303815f875af19250505080156108bf575060408051601f3d908101601f191682019092526108bc91810190610fb0565b60015b610926573d8080156108ec576040519150601f19603f3d011682016040523d82523d5f602084013e6108f1565b606091505b5080515f0361091e57604051633250574960e11b81526001600160a01b038516600482015260240161041b565b805160208201fd5b6001600160e01b03198116630a85bd0160e11b1461096257604051633250574960e11b81526001600160a01b038516600482015260240161041b565b505b5050505050565b808061097f57506001600160a01b03821615155b15610a40575f61098e84610642565b90506001600160a01b038316158015906109ba5750826001600160a01b0316816001600160a01b031614155b80156109cd57506109cb81846105ae565b155b156109f65760405163a9fbf51f60e01b81526001600160a01b038416600482015260240161041b565b8115610a3e5783856001600160a01b0316826001600160a01b03167f8c5be1e5ebec7d5bd14f71427d1e84f3dd0314c0f7b2291e5b200ac8c7c3b92560405160405180910390a45b505b50505f90815260046020526040902080546001600160a01b0319166001600160a01b0392909216919091179055565b610a798383610b78565b6104f1335f858585610843565b5f828152600260205260408120546001600160a01b0390811690831615610ab257610ab2818486610bd9565b6001600160a01b03811615610aec57610acd5f855f5f61096b565b6001600160a01b0381165f90815260036020526040902080545f190190555b6001600160a01b03851615610b1a576001600160a01b0385165f908152600360205260409020805460010190555b5f8481526002602052604080822080546001600160a01b0319166001600160a01b0389811691821790925591518793918516917fddf252ad1be2c89b69c2b068fc378daa952ba7f163c4a11628f55a4df523b3ef91a4949350505050565b6001600160a01b038216610ba157604051633250574960e11b81525f600482015260240161041b565b5f610bad83835f6106a0565b90506001600160a01b038116156104f1576040516339e3563760e11b81525f600482015260240161041b565b610be4838383610c3d565b6104f1576001600160a01b038316610c1257604051637e27328960e01b81526004810182905260240161041b565b60405163177e802f60e01b81526001600160a01b03831660048201526024810182905260440161041b565b5f6001600160a01b038316158015906106f65750826001600160a01b0316846001600160a01b03161480610c765750610c7684846105ae565b806106f65750505f908152600460205260409020546001600160a01b03908116911614919050565b6001600160e01b031981168114610615575f5ffd5b5f60208284031215610cc3575f5ffd5b8135610cce81610c9e565b9392505050565b5f81518084528060208401602086015e5f602082860101526020601f19601f83011685010191505092915050565b602081525f610cce6020830184610cd5565b5f60208284031215610d25575f5ffd5b5035919050565b80356001600160a01b0381168114610449575f5ffd5b5f5f60408385031215610d53575f5ffd5b610d5c83610d2c565b946020939093013593505050565b5f60208284031215610d7a575f5ffd5b610cce82610d2c565b5f5f5f60608486031215610d95575f5ffd5b610d9e84610d2c565b9250610dac60208501610d2c565b929592945050506040919091013590565b5f5f60408385031215610dce575f5ffd5b610dd783610d2c565b915060208301358015158114610deb575f5ffd5b809150509250929050565b634e487b7160e01b5f52604160045260245ffd5b5f5f5f5f60808587031215610e1d575f5ffd5b610e2685610d2c565b9350610e3460208601610d2c565b925060408501359150606085013567ffffffffffffffff811115610e56575f5ffd5b8501601f81018713610e66575f5ffd5b803567ffffffffffffffff811115610e8057610e80610df6565b604051601f8201601f19908116603f0116810167ffffffffffffffff81118282101715610eaf57610eaf610df6565b604052818152828201602001891015610ec6575f5ffd5b816020840160208301375f6020838301015280935050505092959194509250565b5f5f60408385031215610ef8575f5ffd5b610f0183610d2c565b9150610f0f60208401610d2c565b90509250929050565b600181811c90821680610f2c57607f821691505b602082108103610f4a57634e487b7160e01b5f52602260045260245ffd5b50919050565b5f60018201610f6d57634e487b7160e01b5f52601160045260245ffd5b5060010190565b6001600160a01b03858116825284166020820152604081018390526080606082018190525f90610fa690830184610cd5565b9695505050505050565b5f60208284031215610fc0575f5ffd5b8151610cce81610c9e56fe646174613a6170706c69636174696f6e2f6a736f6e3b6261736536342c65794a755957316c496a6f6952326c3359565a6c636d6c6d6553424862335a6c636d3568626d4e6c49464268636e527059326c7759573530496977695a47567a59334a7063485270623234694f694a5561476c7a4947357662693130636d467563325a6c636d466962475567596d466b5a32556761584d6759586468636d526c5a43423062794233595778735a58527a4948526f595851676347467964476c6a6158426864475567615734675a3239325a584a755957356a5a534276626942306147556752326c3359565a6c636d6c6d6553426c5932397a65584e305a573075494539755a5342326233526c4c434276626d5567596d466b5a3255754969776959585230636d6c696458526c6379493657313139a2646970667358221220ad6407d931973511e1535378a3ac700f75d96a9e28021aee0b016221fe4bc9e764736f6c634300081c00334769776156657269667920476f7665726e616e6365205061727469636970616e74",
        "nonce": "0xa0",
        "chainId": "0x164ce"
      },
      "additionalContracts": [],
      "isFixedGasLimit": false
    },
    {
      "hash": "0x2739dc40af2ed2b063520adc27d33a2a1473f080419631b23621a6fbf4aedeeb",
      "transactionType": "CREATE",
      "contractName": "GiwaVote",
      "contractAddress": "0x9378d1c5f4cce1dd13a19187bfb5ff24acb84253",
      "function": null,
      "arguments": [
        "0x7893e1AcaeEDADFC4fa4a88e9E83a65e4C5BF19e",
        "0xd99b42e778498aa3c9c1f6a012359130252780511687a35982e8e52735453034"
      ],
      "transaction": {
        "from": "0x84c29fb8b41f229ad09f4d68f84d676a28dc4a3a",
        "to": null,
        "gas": "0x1d12e9",
        "value": "0x0",
        "input": "0x6080604052348015600e575f5ffd5b50604051611924380380611924833981016040819052602b9160a6565b6001600160a01b03821660775760405162461bcd60e51b815260206004820152601060248201526f24b73b30b634b2103b32b934b334b2b960811b604482015260640160405180910390fd5b5f80546001600160a01b039093166001600160a01b0319938416179055600155600480549091163317905560db565b5f5f6040838503121560b6575f5ffd5b82516001600160a01b038116811460cb575f5ffd5b6020939093015192949293505050565b61183c806100e85f395ff3fe608060405234801561000f575f5ffd5b5060043610610127575f3560e01c80637de418d5116100a9578063c7f758a81161006e578063c7f758a8146102e4578063c9d27afe14610304578063da35c66414610317578063fbccbdc814610320578063ff967e2e14610342575f5ffd5b80637de418d5146102995780638da5cb5b146102a257806391d768de146102b557806392389453146102c8578063b24aaebc146102d1575f5ffd5b806343859632116100ef57806343859632146101cc5780635c622a0e146102095780635e3b43651461022e578063600303d81461024e57806365e481e214610286575f5ffd5b8063013cf08b1461012b57806309be02821461015d57806327ab7ff4146101725780632b7ac3f31461018f5780633bf74da7146101b9575b5f5ffd5b61013e610139366004611273565b610355565b6040516101549a999897969594939291906112b8565b60405180910390f35b61017061016b366004611348565b6104bd565b005b610181678ac7230489e8000081565b604051908152602001610154565b5f546101a1906001600160a01b031681565b6040516001600160a01b039091168152602001610154565b6003546101a1906001600160a01b031681565b6101f96101da366004611368565b600860209081525f928352604080842090915290825290205460ff1681565b6040519015158152602001610154565b61021c610217366004611273565b610512565b60405160ff9091168152602001610154565b61024161023c366004611392565b6105a0565b604051610154919061145d565b6101f961025c366004611368565b5f9182526008602090815260408084206001600160a01b0393909316845291905290205460ff1690565b610170610294366004611505565b610851565b61018160065481565b6004546101a1906001600160a01b031681565b6002546101a1906001600160a01b031681565b61018160015481565b6101706102df366004611273565b610a9d565b6102f76102f2366004611273565b610bbb565b6040516101549190611571565b610170610312366004611593565b610daf565b61018160055481565b6101f961032e366004611348565b60096020525f908152604090205460ff1681565b610170610350366004611348565b6111d1565b60076020525f908152604090208054600182015460028301805492936001600160a01b0390921692610386906115c1565b80601f01602080910402602001604051908101604052809291908181526020018280546103b2906115c1565b80156103fd5780601f106103d4576101008083540402835291602001916103fd565b820191905f5260205f20905b8154815290600101906020018083116103e057829003601f168201915b505050505090806003018054610412906115c1565b80601f016020809104026020016040519081016040528092919081815260200182805461043e906115c1565b80156104895780601f1061046057610100808354040283529160200191610489565b820191905f5260205f20905b81548152906001019060200180831161046c57829003601f168201915b50505060048401546005850154600686015460078701546008880154600990980154969793969295509093509160ff16908a565b6004546001600160a01b031633146104f05760405162461bcd60e51b81526004016104e7906115f9565b60405180910390fd5b600380546001600160a01b0319166001600160a01b0392909216919091179055565b5f5f8211801561052457506005548211155b61055d5760405162461bcd60e51b815260206004820152600a602482015269125b9d985b1a59081a5960b21b60448201526064016104e7565b5f828152600760205260409020600581015442101561057e57505f92915050565b8060070154816006015411156105975750600192915050565b50600292915050565b606060055483106105e357604080515f80825260208201909252906105db565b6105c861121d565b8152602001906001900390816105c05790505b50905061084b565b5f6105ee8385611644565b90506005548111156105ff57506005545b5f61060a8583611657565b90505f8167ffffffffffffffff8111156106265761062661161c565b60405190808252806020026020018201604052801561065f57816020015b61064c61121d565b8152602001906001900390816106445790505b5090505f5b828110156108455760075f610679838a611644565b610684906001611644565b815260208082019290925260409081015f208151610140810183528154815260018201546001600160a01b03169381019390935260028101805491928401916106cc906115c1565b80601f01602080910402602001604051908101604052809291908181526020018280546106f8906115c1565b80156107435780601f1061071a57610100808354040283529160200191610743565b820191905f5260205f20905b81548152906001019060200180831161072657829003601f168201915b5050505050815260200160038201805461075c906115c1565b80601f0160208091040260200160405190810160405280929190818152602001828054610788906115c1565b80156107d35780601f106107aa576101008083540402835291602001916107d3565b820191905f5260205f20905b8154815290600101906020018083116107b657829003601f168201915b505050918352505060048201546020820152600582015460408201526006820154606082015260078201546080820152600882015460ff16151560a082015260099091015460c09091015282518390839081106108325761083261166a565b6020908102919091010152600101610664565b50925050505b92915050565b6004546001600160a01b0316331461087b5760405162461bcd60e51b81526004016104e7906115f9565b826108b65760405162461bcd60e51b815260206004820152600b60248201526a456d707479207469746c6560a81b60448201526064016104e7565b60058054905f6108c58361167e565b91905055506040518061014001604052806005548152602001336001600160a01b0316815260200185858080601f0160208091040260200160405190810160405280939291908181526020018383808284375f92019190915250505090825250604080516020601f8601819004810282018101909252848152918101919085908590819084018382808284375f92019190915250505090825250426020820181905260409091019061097a9062278d00611644565b81525f602080830182905260408084018390526060840183905260809093018290526005548252600781529082902083518155908301516001820180546001600160a01b0319166001600160a01b039092169190911790559082015160028201906109e590826116e2565b50606082015160038201906109fa90826116e2565b506080820151600482015560a082015160058083019190915560c0830151600683015560e0830151600783015561010083015160088301805460ff1916911515919091179055610120909201516009909101555433907f98120a6aaa04295520ab4e01c6c1235dd316e822cc9ff31db7b3f197366d18bd8686610a80426213c680611644565b604051610a8f9392919061179d565b60405180910390a350505050565b6004546001600160a01b03163314610ac75760405162461bcd60e51b81526004016104e7906115f9565b5f8181526007602052604081208054909103610b1a5760405162461bcd60e51b8152602060048201526012602482015271141c9bdc1bdcd85b081b9bdd08199bdd5b9960721b60448201526064016104e7565b600881015460ff1615610b655760405162461bcd60e51b8152602060048201526013602482015272105b1c9958591e481a5b5c1b195b595b9d1959606a1b60448201526064016104e7565b60088101805460ff19166001179055426009820181905560405183917f022c5894f70637e46c49debc0376ce8c5fa29222787feeaa2e9af248617325fe91610baf91815260200190565b60405180910390a25050565b610bc361121d565b5f82118015610bd457506005548211155b610c0d5760405162461bcd60e51b815260206004820152600a602482015269125b9d985b1a59081a5960b21b60448201526064016104e7565b5f828152600760209081526040918290208251610140810184528154815260018201546001600160a01b0316928101929092526002810180549293919291840191610c57906115c1565b80601f0160208091040260200160405190810160405280929190818152602001828054610c83906115c1565b8015610cce5780601f10610ca557610100808354040283529160200191610cce565b820191905f5260205f20905b815481529060010190602001808311610cb157829003601f168201915b50505050508152602001600382018054610ce7906115c1565b80601f0160208091040260200160405190810160405280929190818152602001828054610d13906115c1565b8015610d5e5780601f10610d3557610100808354040283529160200191610d5e565b820191905f5260205f20905b815481529060010190602001808311610d4157829003601f168201915b505050918352505060048201546020820152600582015460408201526006820154606082015260078201546080820152600882015460ff16151560a082015260099091015460c09091015292915050565b5f5460015460405163ba03e20560e01b815233600482015260248101919091526001600160a01b039091169063ba03e20590604401602060405180830381865afa158015610dff573d5f5f3e3d5ffd5b505050506040513d601f19601f82011682018060405250810190610e2391906117d4565b610e5e5760405162461bcd60e51b815260206004820152600c60248201526b139bdd081d995c9a599a595960a21b60448201526064016104e7565b5f82815260076020526040902060058101544210610ead5760405162461bcd60e51b815260206004820152600c60248201526b159bdd1a5b99c8195b99195960a21b60448201526064016104e7565b5f83815260086020908152604080832033845290915290205460ff1615610f065760405162461bcd60e51b815260206004820152600d60248201526c105b1c9958591e481d9bdd1959609a1b60448201526064016104e7565b80545f03610f4b5760405162461bcd60e51b8152602060048201526012602482015271141c9bdc1bdcd85b081b9bdd08199bdd5b9960721b60448201526064016104e7565b5f8381526008602090815260408083203384529091529020805460ff191660011790558115610f8f57600681018054905f610f858361167e565b9190505550610fa6565b600781018054905f610fa08361167e565b91905055505b60068054905f610fb58361167e565b9091555050335f9081526009602052604090205460ff16158015610fe357506002546001600160a01b031615155b156110ae57335f81815260096020526040808220805460ff1916600117905560025490516308686fcb60e21b8152600481019390935290916001600160a01b03909116906321a1bf2c906024016020604051808303815f875af115801561104c573d5f5f3e3d5ffd5b505050506040513d601f19601f8201168201806040525081019061107091906117ef565b60405181815290915033907fc5e5b314108c1f776c2302351b8278910ddb812b122b2717b1bc973146145e9a9060200160405180910390a2506110de565b335f9081526009602052604090205460ff166110de57335f908152600960205260409020805460ff191660011790555b6003546001600160a01b031615611193576003546040516340c10f1960e01b8152336004820152678ac7230489e8000060248201526001600160a01b03909116906340c10f19906044015f604051808303815f87803b15801561113f575f5ffd5b505af1158015611151573d5f5f3e3d5ffd5b5050604051678ac7230489e8000081523392507fed3ce637c8ccb5e2b22a02f352b00227ea301de0dcdd53461af277e5a93d2ea8915060200160405180910390a25b6040518215158152339084907ff2913dbe661ee2acc4a046d8fbcdc792373bda34c41c6086484b5345e5785e5f9060200160405180910390a3505050565b6004546001600160a01b031633146111fb5760405162461bcd60e51b81526004016104e7906115f9565b600280546001600160a01b0319166001600160a01b0392909216919091179055565b6040518061014001604052805f81526020015f6001600160a01b0316815260200160608152602001606081526020015f81526020015f81526020015f81526020015f81526020015f151581526020015f81525090565b5f60208284031215611283575f5ffd5b5035919050565b5f81518084528060208401602086015e5f602082860101526020601f19601f83011685010191505092915050565b8a81526001600160a01b038a166020820152610140604082018190525f906112e29083018b61128a565b82810360608401526112f4818b61128a565b6080840199909952505060a081019590955260c085019390935260e0840191909152151561010083015261012090910152949350505050565b80356001600160a01b0381168114611343575f5ffd5b919050565b5f60208284031215611358575f5ffd5b6113618261132d565b9392505050565b5f5f60408385031215611379575f5ffd5b823591506113896020840161132d565b90509250929050565b5f5f604083850312156113a3575f5ffd5b50508035926020909101359150565b805182525f60208201516113d160208501826001600160a01b03169052565b50604082015161014060408501526113ed61014085018261128a565b905060608301518482036060860152611406828261128a565b9150506080830151608085015260a083015160a085015260c083015160c085015260e083015160e085015261010083015161144661010086018215159052565b506101208301516101208501528091505092915050565b5f602082016020835280845180835260408501915060408160051b8601019250602086015f5b828110156114b457603f1987860301845261149f8583516113b2565b94506020938401939190910190600101611483565b50929695505050505050565b5f5f83601f8401126114d0575f5ffd5b50813567ffffffffffffffff8111156114e7575f5ffd5b6020830191508360208285010111156114fe575f5ffd5b9250929050565b5f5f5f5f60408587031215611518575f5ffd5b843567ffffffffffffffff81111561152e575f5ffd5b61153a878288016114c0565b909550935050602085013567ffffffffffffffff811115611559575f5ffd5b611565878288016114c0565b95989497509550505050565b602081525f61136160208301846113b2565b8015158114611590575f5ffd5b50565b5f5f604083850312156115a4575f5ffd5b8235915060208301356115b681611583565b809150509250929050565b600181811c908216806115d557607f821691505b6020821081036115f357634e487b7160e01b5f52602260045260245ffd5b50919050565b6020808252600990820152682737ba1037bbb732b960b91b604082015260600190565b634e487b7160e01b5f52604160045260245ffd5b634e487b7160e01b5f52601160045260245ffd5b8082018082111561084b5761084b611630565b8181038181111561084b5761084b611630565b634e487b7160e01b5f52603260045260245ffd5b5f6001820161168f5761168f611630565b5060010190565b601f8211156116dd57805f5260205f20601f840160051c810160208510156116bb5750805b601f840160051c820191505b818110156116da575f81556001016116c7565b50505b505050565b815167ffffffffffffffff8111156116fc576116fc61161c565b6117108161170a84546115c1565b84611696565b6020601f821160018114611742575f831561172b5750848201515b5f19600385901b1c1916600184901b1784556116da565b5f84815260208120601f198516915b828110156117715787850151825560209485019460019092019101611751565b508482101561178e57868401515f19600387901b60f8161c191681555b50505050600190811b01905550565b60408152826040820152828460608301375f606084830101525f6060601f19601f8601168301019050826020830152949350505050565b5f602082840312156117e4575f5ffd5b815161136181611583565b5f602082840312156117ff575f5ffd5b505191905056fea2646970667358221220426ee069a030110ad7fb144a15407496cf0bc1618f6b87e069a1a25b33b781b464736f6c634300081c00330000000000000000000000007893e1acaeedadfc4fa4a88e9e83a65e4c5bf19ed99b42e778498aa3c9c1f6a012359130252780511687a35982e8e52735453034",
        "nonce": "0xa1",
        "chainId": "0x164ce"
      },
      "additionalContracts": [],
      "isFixedGasLimit": false
    },
    {
      "hash": "0xb70ab438ceae584dbe454552f5d4a0585f3733239d98b2542e5ece35d52ab53c",
      "transactionType": "CALL",
      "contractName": "GiwaVote",
      "contractAddress": "0x9378d1c5f4cce1dd13a19187bfb5ff24acb84253",
      "function": "setBadge(address)",
      "arguments": [
        "0xAe6612cAc8957fc069B24055Ae9b288bB350105d"
      ],
      "transaction": {
        "from": "0x84c29fb8b41f229ad09f4d68f84d676a28dc4a3a",
        "to": "0x9378d1c5f4cce1dd13a19187bfb5ff24acb84253",
        "gas": "0xf901",
        "value": "0x0",
        "input": "0xff967e2e000000000000000000000000ae6612cac8957fc069b24055ae9b288bb350105d",
        "nonce": "0xa2",
        "chainId": "0x164ce"
      },
      "additionalContracts": [],
      "isFixedGasLimit": false
    },
    {
      "hash": "0x7081c099bd496e870f7518b9b4605b39323eac6e26a9ea9de3758b5c2dc97026",
      "transactionType": "CALL",
      "contractName": "GiwaGovernanceBadge",
      "contractAddress": "0xae6612cac8957fc069b24055ae9b288bb350105d",
      "function": "setMinter(address)",
      "arguments": [
        "0x9378D1c5F4cCe1DD13A19187BFb5ff24ACb84253"
      ],
      "transaction": {
        "from": "0x84c29fb8b41f229ad09f4d68f84d676a28dc4a3a",
        "to": "0xae6612cac8957fc069b24055ae9b288bb350105d",
        "gas": "0xf922",
        "value": "0x0",
        "input": "0xfca3b5aa0000000000000000000000009378d1c5f4cce1dd13a19187bfb5ff24acb84253",
        "nonce": "0xa3",
        "chainId": "0x164ce"
      },
      "additionalContracts": [],
      "isFixedGasLimit": false
    },
    {
      "hash": "0x2fcfa246f58ba3791f223fe1e8824e1a46033a9726635bd5fd23d281cb77ba4f",
      "transactionType": "CALL",
      "contractName": "GiwaVote",
      "contractAddress": "0x9378d1c5f4cce1dd13a19187bfb5ff24acb84253",
      "function": "setGVF(address)",
      "arguments": [
        "0x3b3780B42716B40150859bfAEAab103a8ED0Ad76"
      ],
      "transaction": {
        "from": "0x84c29fb8b41f229ad09f4d68f84d676a28dc4a3a",
        "to": "0x9378d1c5f4cce1dd13a19187bfb5ff24acb84253",
        "gas": "0xf8a9",
        "value": "0x0",
        "input": "0x09be02820000000000000000000000003b3780b42716b40150859bfaeaab103a8ed0ad76",
        "nonce": "0xa4",
        "chainId": "0x164ce"
      },
      "additionalContracts": [],
      "isFixedGasLimit": false
    },
    {
      "hash": "0x9cb3e32ab81af22b82b180eb50b654a783148dc1395f0b28c46da17eaea22dba",
      "transactionType": "CALL",
      "contractName": "GVF",
      "contractAddress": "0x3b3780b42716b40150859bfaeaab103a8ed0ad76",
      "function": "setMinter(address)",
      "arguments": [
        "0x9378D1c5F4cCe1DD13A19187BFb5ff24ACb84253"
      ],
      "transaction": {
        "from": "0x84c29fb8b41f229ad09f4d68f84d676a28dc4a3a",
        "to": "0x3b3780b42716b40150859bfaeaab103a8ed0ad76",
        "gas": "0x107aa",
        "value": "0x0",
        "input": "0xfca3b5aa0000000000000000000000009378d1c5f4cce1dd13a19187bfb5ff24acb84253",
        "nonce": "0xa5",
        "chainId": "0x164ce"
      },
      "additionalContracts": [],
      "isFixedGasLimit": false
    },
    {
      "hash": "0xec6b1c0eccc2e858898ad3a14c0e0bbabf2cc7fd959edb5044847f94402576ab",
      "transactionType": "CALL",
      "contractName": "GiwaVote",
      "contractAddress": "0x9378d1c5f4cce1dd13a19187bfb5ff24acb84253",
      "function": "createProposal(string,string)",
      "arguments": [
        "Add GVF Governance Participation Token",
        "GVF is a non-tradeable governance participation token, separate from the 5 faucet tokens (GVA-GVE). It is NOT claimable from the faucet and NOT listed in the Swap module. Each wallet receives 10 GVF automatically every time they cast a vote on any governance proposal. This is cumulative and distinct from the one-time Governance Participant soulbound NFT badge."
      ],
      "transaction": {
        "from": "0x84c29fb8b41f229ad09f4d68f84d676a28dc4a3a",
        "to": "0x9378d1c5f4cce1dd13a19187bfb5ff24acb84253",
        "gas": "0xac2ef",
        "value": "0x0",
        "input": "0x65e481e2000000000000000000000000000000000000000000000000000000000000004000000000000000000000000000000000000000000000000000000000000000a000000000000000000000000000000000000000000000000000000000000000264164642047564620476f7665726e616e63652050617274696369706174696f6e20546f6b656e0000000000000000000000000000000000000000000000000000000000000000000000000000000000000000000000000000000000000000016a4756462069732061206e6f6e2d747261646561626c6520676f7665726e616e63652070617274696369706174696f6e20746f6b656e2c2073657061726174652066726f6d2074686520352066617563657420746f6b656e7320284756412d475645292e204974206973204e4f5420636c61696d61626c652066726f6d207468652066617563657420616e64204e4f54206c697374656420696e207468652053776170206d6f64756c652e20456163682077616c6c657420726563656976657320313020475646206175746f6d61746963616c6c792065766572792074696d6520746865792063617374206120766f7465206f6e20616e7920676f7665726e616e63652070726f706f73616c2e20546869732069732063756d756c617469766520616e642064697374696e63742066726f6d20746865206f6e652d74696d6520476f7665726e616e6365205061727469636970616e7420736f756c626f756e64204e46542062616467652e00000000000000000000000000000000000000000000",
        "nonce": "0xa6",
        "chainId": "0x164ce"
      },
      "additionalContracts": [],
      "isFixedGasLimit": false
    },
    {
      "hash": "0x06ffca6260581c1e6fb143fd3fc563a34ea87b65dfcec7f05bc9aeafda36ee8a",
      "transactionType": "CALL",
      "contractName": "GiwaVote",
      "contractAddress": "0x9378d1c5f4cce1dd13a19187bfb5ff24acb84253",
      "function": "createProposal(string,string)",
      "arguments": [
        "Add a Claim All batch function to the faucet",
        "Currently claiming all 5 faucet tokens requires 5 separate transactions, each needing its own wallet confirmation and gas fee. This proposal adds a claimAll() function to the faucet contract that claims every token the caller is currently eligible for (not on cooldown, not maxed out, faucet has balance) in a single transaction, reducing friction and gas costs for active testers. The function skips any token still on cooldown without reverting the whole call. Deployed as GiwaFaucetV3 at the address shown in this log. A \\'Claim All\\' button has been added to the FaucetSection UI."
      ],
      "transaction": {
        "from": "0x84c29fb8b41f229ad09f4d68f84d676a28dc4a3a",
        "to": "0x9378d1c5f4cce1dd13a19187bfb5ff24acb84253",
        "gas": "0xdc043",
        "value": "0x0",
        "input": "0x65e481e2000000000000000000000000000000000000000000000000000000000000004000000000000000000000000000000000000000000000000000000000000000a0000000000000000000000000000000000000000000000000000000000000002c416464206120436c61696d20416c6c2062617463682066756e6374696f6e20746f20746865206661756365740000000000000000000000000000000000000000000000000000000000000000000000000000000000000000000000000000024643757272656e746c7920636c61696d696e6720616c6c20352066617563657420746f6b656e732072657175697265732035207365706172617465207472616e73616374696f6e732c2065616368206e656564696e6720697473206f776e2077616c6c657420636f6e6669726d6174696f6e20616e6420676173206665652e20546869732070726f706f73616c2061646473206120636c61696d416c6c28292066756e6374696f6e20746f207468652066617563657420636f6e7472616374207468617420636c61696d7320657665727920746f6b656e207468652063616c6c65722069732063757272656e746c7920656c696769626c6520666f7220286e6f74206f6e20636f6f6c646f776e2c206e6f74206d61786564206f75742c20666175636574206861732062616c616e63652920696e20612073696e676c65207472616e73616374696f6e2c207265647563696e67206672696374696f6e20616e642067617320636f73747320666f722061637469766520746573746572732e205468652066756e6374696f6e20736b69707320616e7920746f6b656e207374696c6c206f6e20636f6f6c646f776e20776974686f757420726576657274696e67207468652077686f6c652063616c6c2e204465706c6f796564206173204769776146617563657456332061742074686520616464726573732073686f776e20696e2074686973206c6f672e20412027436c61696d20416c6c2720627574746f6e20686173206265656e20616464656420746f207468652046617563657453656374696f6e2055492e0000000000000000000000000000000000000000000000000000",
        "nonce": "0xa7",
        "chainId": "0x164ce"
      },
      "additionalContracts": [],
      "isFixedGasLimit": false
    },
    {
      "hash": "0x1179233bb366d37167092f9031dcba895bec219bcc88a62d684bec59d6d63395",
      "transactionType": "CALL",
      "contractName": "GiwaVote",
      "contractAddress": "0x9378d1c5f4cce1dd13a19187bfb5ff24acb84253",
      "function": "vote(uint256,bool)",
      "arguments": [
        "1",
        "true"
      ],
      "transaction": {
        "from": "0x84c29fb8b41f229ad09f4d68f84d676a28dc4a3a",
        "to": "0x9378d1c5f4cce1dd13a19187bfb5ff24acb84253",
        "gas": "0x58274",
        "value": "0x0",
        "input": "0xc9d27afe00000000000000000000000000000000000000000000000000000000000000010000000000000000000000000000000000000000000000000000000000000001",
        "nonce": "0xa8",
        "chainId": "0x164ce"
      },
      "additionalContracts": [],
      "isFixedGasLimit": false
    },
    {
      "hash": "0xcfdaefb1142779847c1126d27d3bd28e52444dd7ce344eb3378495164afb2052",
      "transactionType": "CALL",
      "contractName": "GiwaVote",
      "contractAddress": "0x9378d1c5f4cce1dd13a19187bfb5ff24acb84253",
      "function": "markImplemented(uint256)",
      "arguments": [
        "1"
      ],
      "transaction": {
        "from": "0x84c29fb8b41f229ad09f4d68f84d676a28dc4a3a",
        "to": "0x9378d1c5f4cce1dd13a19187bfb5ff24acb84253",
        "gas": "0x182e0",
        "value": "0x0",
        "input": "0xb24aaebc0000000000000000000000000000000000000000000000000000000000000001",
        "nonce": "0xa9",
        "chainId": "0x164ce"
      },
      "additionalContracts": [],
      "isFixedGasLimit": false
    },
    {
      "hash": "0x141a824853a6cbc729b2293ecfbd92c2c53df38246f032e8ca165bc12716ab64",
      "transactionType": "CALL",
      "contractName": "GiwaVote",
      "contractAddress": "0x9378d1c5f4cce1dd13a19187bfb5ff24acb84253",
      "function": "vote(uint256,bool)",
      "arguments": [
        "2",
        "true"
      ],
      "transaction": {
        "from": "0x84c29fb8b41f229ad09f4d68f84d676a28dc4a3a",
        "to": "0x9378d1c5f4cce1dd13a19187bfb5ff24acb84253",
        "gas": "0x2582f",
        "value": "0x0",
        "input": "0xc9d27afe00000000000000000000000000000000000000000000000000000000000000020000000000000000000000000000000000000000000000000000000000000001",
        "nonce": "0xaa",
        "chainId": "0x164ce"
      },
      "additionalContracts": [],
      "isFixedGasLimit": false
    },
    {
      "hash": "0x92866df39924e3e7438e9c41693dbafea2990429675b34f7218d133d63bd07d0",
      "transactionType": "CALL",
      "contractName": "GiwaVote",
      "contractAddress": "0x9378d1c5f4cce1dd13a19187bfb5ff24acb84253",
      "function": "markImplemented(uint256)",
      "arguments": [
        "2"
      ],
      "transaction": {
        "from": "0x84c29fb8b41f229ad09f4d68f84d676a28dc4a3a",
        "to": "0x9378d1c5f4cce1dd13a19187bfb5ff24acb84253",
        "gas": "0x182e0",
        "value": "0x0",
        "input": "0xb24aaebc0000000000000000000000000000000000000000000000000000000000000002",
        "nonce": "0xab",
        "chainId": "0x164ce"
      },
      "additionalContracts": [],
      "isFixedGasLimit": false
    }
  ],
  "receipts": [
    {
      "type": "0x2",
      "status": "0x1",
      "cumulativeGasUsed": "0x1d64fb",
      "logs": [],
      "logsBloom": "0x00000000000000000000000000000000000000000000000000000000000000000000000000000000000000000000000000000000000000000000000000000000000000000000000000000000000000000000000000000000000000000000000000000000000000000000000000000000000000000000000000000000000000000000000000000000000000000000000000000000000000000000000000000000000000000000000000000000000000000000000000000000000000000000000000000000000000000000000000000000000000000000000000000000000000000000000000000000000000000000000000000000000000000000000000000000",
      "transactionHash": "0x58cf0403133b51fc9afb6b7dbb6b4c1ef5b3d95288f9c0e75d9ee5d57ce0c0e0",
      "transactionIndex": "0xb",
      "blockHash": "0xef932f50bb439fc5c638bac539e1e6fa0cb37305661f895f35ac637f07f0ee83",
      "blockNumber": "0x1decd6e",
      "gasUsed": "0xe3384",
      "effectiveGasPrice": "0xf433d",
      "blobGasUsed": "0xc6890",
      "from": "0x84c29fb8b41f229ad09f4d68f84d676a28dc4a3a",
      "to": null,
      "contractAddress": "0x99586357d87b36351b52aefc1667e4199e39e24b"
    },
    {
      "type": "0x2",
      "status": "0x1",
      "cumulativeGasUsed": "0x2a4eb",
      "logs": [
        {
          "address": "0x05e894ce2c176dbc30176626efa24850af2af0e2",
          "topics": [
            "0xddf252ad1be2c89b69c2b068fc378daa952ba7f163c4a11628f55a4df523b3ef",
            "0x00000000000000000000000084c29fb8b41f229ad09f4d68f84d676a28dc4a3a",
            "0x00000000000000000000000099586357d87b36351b52aefc1667e4199e39e24b"
          ],
          "data": "0x00000000000000000000000000000000000000000000544d099ffebe2c908b6c",
          "blockHash": "0x9d3bf09d84ee366192cc7d6eaaa9b66cc2e2033a5d73d3891e29fe942451af78",
          "blockNumber": "0x1decd72",
          "blockTimestamp": "0x6a60b9ce",
          "transactionHash": "0xed248f1260171b3aec4530b66e2bb5068b56e1dc23a46974a99eefb60ede7a04",
          "transactionIndex": "0x3",
          "logIndex": "0x1",
          "removed": false
        }
      ],
      "logsBloom": "0x00000000000000000000000000800000000000000000000000000000000040000000000000000000000000000000000000000000000000000000000000000000000010000000000000000008100000000000000000000000000000000000000000000004000000000000000000000000000000000000000000010010000000000000000000000000000000000000000000000002000000000000000000000000000000000000000000000000000000000000000000000000000000000000000000000002000000000000000000000000000000000000000000000000000000000000000000000000000000000000000000200000000000400000000000000000",
      "transactionHash": "0xed248f1260171b3aec4530b66e2bb5068b56e1dc23a46974a99eefb60ede7a04",
      "transactionIndex": "0x3",
      "blockHash": "0x9d3bf09d84ee366192cc7d6eaaa9b66cc2e2033a5d73d3891e29fe942451af78",
      "blockNumber": "0x1decd72",
      "gasUsed": "0xb70d",
      "effectiveGasPrice": "0xf433d",
      "blobGasUsed": "0x9c40",
      "from": "0x84c29fb8b41f229ad09f4d68f84d676a28dc4a3a",
      "to": "0x05e894ce2c176dbc30176626efa24850af2af0e2",
      "contractAddress": null
    },
    {
      "type": "0x2",
      "status": "0x1",
      "cumulativeGasUsed": "0x1f537d",
      "logs": [
        {
          "address": "0x99586357d87b36351b52aefc1667e4199e39e24b",
          "topics": [
            "0x158412daecdc1456d01568828bcdb18464cc7f1ce0215ddbc3f3cfede9d1e63d",
            "0x00000000000000000000000005e894ce2c176dbc30176626efa24850af2af0e2"
          ],
          "data": "0x",
          "blockHash": "0x140b4dd34a61bfd46c58022899b0528d6157fa60609d5f9f1f4940c76e9ed83f",
          "blockNumber": "0x1decd75",
          "blockTimestamp": "0x6a60b9d1",
          "transactionHash": "0xf9bb12bbd3a469cce07b6139eaa8ebc6f34f2573ff457a13dfde809baa6c27b9",
          "transactionIndex": "0xc",
          "logIndex": "0x5",
          "removed": false
        }
      ],
      "logsBloom": "0x00000000000000000000000004000000000000000000000000000000000000000000000000200400000000000000000000080000000000000000000000000080000000000000000000000000000000000000000000000000000000000000000000000000000000000000000000000000000000000000000000000000000000020000000000000000000000000000000000000000000000000000000000000000000000000000004000000000000000000000000000000000000000000000000000000000000000000000000400000000000000000080000000000000000000000000000000000000000000000000000000000000000000000000000000000000",
      "transactionHash": "0xf9bb12bbd3a469cce07b6139eaa8ebc6f34f2573ff457a13dfde809baa6c27b9",
      "transactionIndex": "0xc",
      "blockHash": "0x140b4dd34a61bfd46c58022899b0528d6157fa60609d5f9f1f4940c76e9ed83f",
      "blockNumber": "0x1decd75",
      "gasUsed": "0x16677",
      "effectiveGasPrice": "0xf433d",
      "blobGasUsed": "0x9c40",
      "from": "0x84c29fb8b41f229ad09f4d68f84d676a28dc4a3a",
      "to": "0x99586357d87b36351b52aefc1667e4199e39e24b",
      "contractAddress": null
    },
    {
      "type": "0x2",
      "status": "0x1",
      "cumulativeGasUsed": "0x231a9",
      "logs": [
        {
          "address": "0x00e8f81208a33bf516cd7dd46e7597dfb40f5a25",
          "topics": [
            "0xddf252ad1be2c89b69c2b068fc378daa952ba7f163c4a11628f55a4df523b3ef",
            "0x0000000000000000000000002ba3f6838c5d12af133341a527ddffbf618e3988",
            "0x00000000000000000000000084c29fb8b41f229ad09f4d68f84d676a28dc4a3a"
          ],
          "data": "0x0000000000000000000000000000000000000000000000056bc75e2d63100000",
          "blockHash": "0xa702c13c50b2dfdf7dd0e8ea44f643fb560fda0771e8361487347a774f956bab",
          "blockNumber": "0x1decd79",
          "blockTimestamp": "0x6a60b9d5",
          "transactionHash": "0xf385c82735b9c81cb1e1143ca3fe7a196c9200cd7bb0f2a71a0c2ad749c137b5",
          "transactionIndex": "0x1",
          "logIndex": "0x0",
          "removed": false
        },
        {
          "address": "0x2ba3f6838c5d12af133341a527ddffbf618e3988",
          "topics": [
            "0xf7a40077ff7a04c7e61f6f26fb13774259ddf1b6bce9ecf26a8276cdd3992683",
            "0x00000000000000000000000084c29fb8b41f229ad09f4d68f84d676a28dc4a3a",
            "0x00000000000000000000000000e8f81208a33bf516cd7dd46e7597dfb40f5a25"
          ],
          "data": "0x0000000000000000000000000000000000000000000000056bc75e2d63100000",
          "blockHash": "0xa702c13c50b2dfdf7dd0e8ea44f643fb560fda0771e8361487347a774f956bab",
          "blockNumber": "0x1decd79",
          "blockTimestamp": "0x6a60b9d5",
          "transactionHash": "0xf385c82735b9c81cb1e1143ca3fe7a196c9200cd7bb0f2a71a0c2ad749c137b5",
          "transactionIndex": "0x1",
          "logIndex": "0x1",
          "removed": false
        }
      ],
      "logsBloom": "0x00000000000000000000000000000000000000000000000000000000000000000000000000000000000000000000004000000000000000000000000000000000000001000000000000000048108000000000000000000010000000000000000000000000000000000000000000040000000000000000000000010010000000000000000020000001000000000000000000000000000000000000000000000000000000000000000000000000000000000000000000000000000000000000020000000002000000000000800000000000000000100000000000000000002000000000000000000000000000010000000000200000040000000000080000000000",
      "transactionHash": "0xf385c82735b9c81cb1e1143ca3fe7a196c9200cd7bb0f2a71a0c2ad749c137b5",
      "transactionIndex": "0x1",
      "blockHash": "0xa702c13c50b2dfdf7dd0e8ea44f643fb560fda0771e8361487347a774f956bab",
      "blockNumber": "0x1decd79",
      "gasUsed": "0x17d1f",
      "effectiveGasPrice": "0xf433d",
      "blobGasUsed": "0x9c40",
      "from": "0x84c29fb8b41f229ad09f4d68f84d676a28dc4a3a",
      "to": "0x2ba3f6838c5d12af133341a527ddffbf618e3988",
      "contractAddress": null
    },
    {
      "type": "0x2",
      "status": "0x1",
      "cumulativeGasUsed": "0x77424",
      "logs": [
        {
          "address": "0x00e8f81208a33bf516cd7dd46e7597dfb40f5a25",
          "topics": [
            "0xddf252ad1be2c89b69c2b068fc378daa952ba7f163c4a11628f55a4df523b3ef",
            "0x00000000000000000000000084c29fb8b41f229ad09f4d68f84d676a28dc4a3a",
            "0x00000000000000000000000099586357d87b36351b52aefc1667e4199e39e24b"
          ],
          "data": "0x000000000000000000000000000000000000000000005457d06a429486e6accc",
          "blockHash": "0xa8adc877f0c380e04581fcc6406c88a77c5296ed555d8bb550f03145ae87fa19",
          "blockNumber": "0x1decd7c",
          "blockTimestamp": "0x6a60b9d8",
          "transactionHash": "0x86e2621f35ca910032068a3c34f571deaf01be9cfdfb1930dfb9ac41bb8a6cb3",
          "transactionIndex": "0x5",
          "logIndex": "0x2",
          "removed": false
        }
      ],
      "logsBloom": "0x00000000000000000000000000000000000000000000000000000000000000000000000000000000000000000000000000000000000000000000000000000000000010000000000000000008108000000000000000000010000000000000000000000004000000000000000000000000000000000000000000010010000000000000000000000000000000000000000000000002000000000000000000000000000000000000000000000000000000000000000000000000000000000000000000000002000000000000000000000000000000000000000000000000002000000000000000000000000000000000000000200000000000000000000000000000",
      "transactionHash": "0x86e2621f35ca910032068a3c34f571deaf01be9cfdfb1930dfb9ac41bb8a6cb3",
      "transactionIndex": "0x5",
      "blockHash": "0xa8adc877f0c380e04581fcc6406c88a77c5296ed555d8bb550f03145ae87fa19",
      "blockNumber": "0x1decd7c",
      "gasUsed": "0xb70d",
      "effectiveGasPrice": "0xf433d",
      "blobGasUsed": "0x9c40",
      "from": "0x84c29fb8b41f229ad09f4d68f84d676a28dc4a3a",
      "to": "0x00e8f81208a33bf516cd7dd46e7597dfb40f5a25",
      "contractAddress": null
    },
    {
      "type": "0x2",
      "status": "0x1",
      "cumulativeGasUsed": "0x7461e",
      "logs": [
        {
          "address": "0x99586357d87b36351b52aefc1667e4199e39e24b",
          "topics": [
            "0x158412daecdc1456d01568828bcdb18464cc7f1ce0215ddbc3f3cfede9d1e63d",
            "0x00000000000000000000000000e8f81208a33bf516cd7dd46e7597dfb40f5a25"
          ],
          "data": "0x",
          "blockHash": "0xffb054131db15a6b7e6ab380b873d327a009604a67303dd2c90acae3836bcced",
          "blockNumber": "0x1decd80",
          "blockTimestamp": "0x6a60b9dc",
          "transactionHash": "0x14e7d1b119a9dbc54d7d0243a1ec291ffdcaa850935821ef5b28858c31f5a1b2",
          "transactionIndex": "0x5",
          "logIndex": "0x3",
          "removed": false
        }
      ],
      "logsBloom": "0x00000000000000000000000000000000000000000000000000000000000000000000000000000400000000000000000000080000000000000000000000000080000000000000000000000040000000000000000000000000000000000000000000000000000000000000000000040000000000000000000000000000000000020000000000000001000000000000000000000000000000000000000000000000000000000000004000000000000000000000000000000000000000000000000000000000000000000000000400000000000000000000000000000000000000000000000000000000000000000000000000000000000000000000000000000000",
      "transactionHash": "0x14e7d1b119a9dbc54d7d0243a1ec291ffdcaa850935821ef5b28858c31f5a1b2",
      "transactionIndex": "0x5",
      "blockHash": "0xffb054131db15a6b7e6ab380b873d327a009604a67303dd2c90acae3836bcced",
      "blockNumber": "0x1decd80",
      "gasUsed": "0x1239f",
      "effectiveGasPrice": "0xf433d",
      "blobGasUsed": "0x9c40",
      "from": "0x84c29fb8b41f229ad09f4d68f84d676a28dc4a3a",
      "to": "0x99586357d87b36351b52aefc1667e4199e39e24b",
      "contractAddress": null
    },
    {
      "type": "0x2",
      "status": "0x1",
      "cumulativeGasUsed": "0x231b5",
      "logs": [
        {
          "address": "0x263a171641882db6b48210e1ea477db3d1d34509",
          "topics": [
            "0xddf252ad1be2c89b69c2b068fc378daa952ba7f163c4a11628f55a4df523b3ef",
            "0x0000000000000000000000002ba3f6838c5d12af133341a527ddffbf618e3988",
            "0x00000000000000000000000084c29fb8b41f229ad09f4d68f84d676a28dc4a3a"
          ],
          "data": "0x0000000000000000000000000000000000000000000000056bc75e2d63100000",
          "blockHash": "0xe93fe29a26d52ca3c7e818ac6d5b0b528637fe7eaa69e4b763324bf54b375f1e",
          "blockNumber": "0x1decd84",
          "blockTimestamp": "0x6a60b9e0",
          "transactionHash": "0xe6e9ee5b6796c7d802833ec9fe98f8562fbfed7e1eddd010e244f7daa83befbf",
          "transactionIndex": "0x1",
          "logIndex": "0x0",
          "removed": false
        },
        {
          "address": "0x2ba3f6838c5d12af133341a527ddffbf618e3988",
          "topics": [
            "0xf7a40077ff7a04c7e61f6f26fb13774259ddf1b6bce9ecf26a8276cdd3992683",
            "0x00000000000000000000000084c29fb8b41f229ad09f4d68f84d676a28dc4a3a",
            "0x000000000000000000000000263a171641882db6b48210e1ea477db3d1d34509"
          ],
          "data": "0x0000000000000000000000000000000000000000000000056bc75e2d63100000",
          "blockHash": "0xe93fe29a26d52ca3c7e818ac6d5b0b528637fe7eaa69e4b763324bf54b375f1e",
          "blockNumber": "0x1decd84",
          "blockTimestamp": "0x6a60b9e0",
          "transactionHash": "0xe6e9ee5b6796c7d802833ec9fe98f8562fbfed7e1eddd010e244f7daa83befbf",
          "transactionIndex": "0x1",
          "logIndex": "0x1",
          "removed": false
        }
      ],
      "logsBloom": "0x00000000000000000008100000000000000000000008000000000000000000000000000000000000000000000000004000000000000000000000000000000000000001000000000000000008100000000000000000000000000000000000000000000000000000000000000000000000000002000000000000010010000000000000000020000000000000000000000000000000000000000000000000000000000000000000000000000000000000000000000000000000000000000000020000000002000000000000800000000000000000100000000000000000000000000200008000000000000000010000000000200000040000000000080000000000",
      "transactionHash": "0xe6e9ee5b6796c7d802833ec9fe98f8562fbfed7e1eddd010e244f7daa83befbf",
      "transactionIndex": "0x1",
      "blockHash": "0xe93fe29a26d52ca3c7e818ac6d5b0b528637fe7eaa69e4b763324bf54b375f1e",
      "blockNumber": "0x1decd84",
      "gasUsed": "0x17d2b",
      "effectiveGasPrice": "0xf433d",
      "blobGasUsed": "0x9c40",
      "from": "0x84c29fb8b41f229ad09f4d68f84d676a28dc4a3a",
      "to": "0x2ba3f6838c5d12af133341a527ddffbf618e3988",
      "contractAddress": null
    },
    {
      "type": "0x2",
      "status": "0x1",
      "cumulativeGasUsed": "0xa2682",
      "logs": [
        {
          "address": "0x263a171641882db6b48210e1ea477db3d1d34509",
          "topics": [
            "0xddf252ad1be2c89b69c2b068fc378daa952ba7f163c4a11628f55a4df523b3ef",
            "0x00000000000000000000000084c29fb8b41f229ad09f4d68f84d676a28dc4a3a",
            "0x00000000000000000000000099586357d87b36351b52aefc1667e4199e39e24b"
          ],
          "data": "0x000000000000000000000000000000000000000000005452771ae5fae2e00000",
          "blockHash": "0x043a9af95e66a59938974f8cb35c62cea307ed7ae4dc9093954dd3d2defc0d14",
          "blockNumber": "0x1decd87",
          "blockTimestamp": "0x6a60b9e3",
          "transactionHash": "0x4f17fc6bd471174f6fc7bec515bc11f30c5366d2022fd0fdf5b3bee57af15d20",
          "transactionIndex": "0x5",
          "logIndex": "0x3",
          "removed": false
        }
      ],
      "logsBloom": "0x00000000000000000008000000000000000000000008000000000000000000000000000000000000000000000000000000000000000000000000000000000000000010000000000000000008100000000000000000000000000000000000000000000004000000000000000000000000000000000000000000010010000000000000000000000000000000000000000000000002000000000000000000000000000000000000000000000000000000000000000000000000000000000000000000000002000000000000000000000000000000000000000000000000000000000200000000000000000000000000000000200000000000000000000000000000",
      "transactionHash": "0x4f17fc6bd471174f6fc7bec515bc11f30c5366d2022fd0fdf5b3bee57af15d20",
      "transactionIndex": "0x5",
      "blockHash": "0x043a9af95e66a59938974f8cb35c62cea307ed7ae4dc9093954dd3d2defc0d14",
      "blockNumber": "0x1decd87",
      "gasUsed": "0xb6f5",
      "effectiveGasPrice": "0xf433d",
      "blobGasUsed": "0x9c40",
      "from": "0x84c29fb8b41f229ad09f4d68f84d676a28dc4a3a",
      "to": "0x263a171641882db6b48210e1ea477db3d1d34509",
      "contractAddress": null
    },
    {
      "type": "0x2",
      "status": "0x1",
      "cumulativeGasUsed": "0x2c96f",
      "logs": [
        {
          "address": "0x99586357d87b36351b52aefc1667e4199e39e24b",
          "topics": [
            "0x158412daecdc1456d01568828bcdb18464cc7f1ce0215ddbc3f3cfede9d1e63d",
            "0x000000000000000000000000263a171641882db6b48210e1ea477db3d1d34509"
          ],
          "data": "0x",
          "blockHash": "0x638c40633784cf8953ef5bc6db3c60edf8949dc605b124fbfa9d6ddc8504893a",
          "blockNumber": "0x1decd8a",
          "blockTimestamp": "0x6a60b9e6",
          "transactionHash": "0x6882f5c97e6581693d179459811a833b407b192ef1f25c6c69308d3078e0c7f0",
          "transactionIndex": "0x2",
          "logIndex": "0x0",
          "removed": false
        }
      ],
      "logsBloom": "0x00000000000000000000100000000000000000000000000000000000000000000000000000000400000000000000000000080000000000000000000000000080000000000000000000000000000000000000000000000000000000000000000000000000000000000000000000000000000002000000000000000000000000020000000000000000000000000000000000000000000000000000000000000000000000000000004000000000000000000000000000000000000000000000000000000000000000000000000400000000000000000000000000000000000000000000008000000000000000000000000000000000000000000000000000000000",
      "transactionHash": "0x6882f5c97e6581693d179459811a833b407b192ef1f25c6c69308d3078e0c7f0",
      "transactionIndex": "0x2",
      "blockHash": "0x638c40633784cf8953ef5bc6db3c60edf8949dc605b124fbfa9d6ddc8504893a",
      "blockNumber": "0x1decd8a",
      "gasUsed": "0x123ab",
      "effectiveGasPrice": "0xf433d",
      "blobGasUsed": "0x9c40",
      "from": "0x84c29fb8b41f229ad09f4d68f84d676a28dc4a3a",
      "to": "0x99586357d87b36351b52aefc1667e4199e39e24b",
      "contractAddress": null
    },
    {
      "type": "0x2",
      "status": "0x1",
      "cumulativeGasUsed": "0x13ff3c",
      "logs": [
        {
          "address": "0x82868da66735fcd28185b9befa9ff2aee4ba3fb8",
          "topics": [
            "0xddf252ad1be2c89b69c2b068fc378daa952ba7f163c4a11628f55a4df523b3ef",
            "0x0000000000000000000000002ba3f6838c5d12af133341a527ddffbf618e3988",
            "0x00000000000000000000000084c29fb8b41f229ad09f4d68f84d676a28dc4a3a"
          ],
          "data": "0x0000000000000000000000000000000000000000000000056bc75e2d63100000",
          "blockHash": "0x08e2a5c97636f2d302cfad40d36ab9c70e082b214079cd731d7140f2175a9cae",
          "blockNumber": "0x1decd8d",
          "blockTimestamp": "0x6a60b9e9",
          "transactionHash": "0x9b068c8983e75784577ef676c80eecac68756d231c3a38268a0c7a822a328428",
          "transactionIndex": "0x7",
          "logIndex": "0x8",
          "removed": false
        },
        {
          "address": "0x2ba3f6838c5d12af133341a527ddffbf618e3988",
          "topics": [
            "0xf7a40077ff7a04c7e61f6f26fb13774259ddf1b6bce9ecf26a8276cdd3992683",
            "0x00000000000000000000000084c29fb8b41f229ad09f4d68f84d676a28dc4a3a",
            "0x00000000000000000000000082868da66735fcd28185b9befa9ff2aee4ba3fb8"
          ],
          "data": "0x0000000000000000000000000000000000000000000000056bc75e2d63100000",
          "blockHash": "0x08e2a5c97636f2d302cfad40d36ab9c70e082b214079cd731d7140f2175a9cae",
          "blockNumber": "0x1decd8d",
          "blockTimestamp": "0x6a60b9e9",
          "transactionHash": "0x9b068c8983e75784577ef676c80eecac68756d231c3a38268a0c7a822a328428",
          "transactionIndex": "0x7",
          "logIndex": "0x9",
          "removed": false
        }
      ],
      "logsBloom": "0x00000000000000000000000000000000000000000000000000000000000000000000000000000000000000000000004000000000000000002000000000000000000001000000000000000008100000000000000000000000000000000000000000000000000000000000000000000000000000000000000000010010000000000000000020000000040000000004000000000000000000000000000000000000001000000000000000000000000000000000000000000000000000000000020004000002000000000000800000000000100000100000000000000000000000000000000000000000000000010000000000200000040000000000080000000000",
      "transactionHash": "0x9b068c8983e75784577ef676c80eecac68756d231c3a38268a0c7a822a328428",
      "transactionIndex": "0x7",
      "blockHash": "0x08e2a5c97636f2d302cfad40d36ab9c70e082b214079cd731d7140f2175a9cae",
      "blockNumber": "0x1decd8d",
      "gasUsed": "0x17d2b",
      "effectiveGasPrice": "0xf433d",
      "blobGasUsed": "0x9c40",
      "from": "0x84c29fb8b41f229ad09f4d68f84d676a28dc4a3a",
      "to": "0x2ba3f6838c5d12af133341a527ddffbf618e3988",
      "contractAddress": null
    },
    {
      "type": "0x2",
      "status": "0x1",
      "cumulativeGasUsed": "0xa7cd8",
      "logs": [
        {
          "address": "0x82868da66735fcd28185b9befa9ff2aee4ba3fb8",
          "topics": [
            "0xddf252ad1be2c89b69c2b068fc378daa952ba7f163c4a11628f55a4df523b3ef",
            "0x00000000000000000000000084c29fb8b41f229ad09f4d68f84d676a28dc4a3a",
            "0x00000000000000000000000099586357d87b36351b52aefc1667e4199e39e24b"
          ],
          "data": "0x000000000000000000000000000000000000000000005452771ae5fae2e00000",
          "blockHash": "0x04f5749ba90eee2610f9b434056cc56b8a527e98e48e2bf6e0b7b33e697e8648",
          "blockNumber": "0x1decd90",
          "blockTimestamp": "0x6a60b9ec",
          "transactionHash": "0x2de008d8d5b8ec210bc9afc0fe1ce703f278e2cf951952f2dfc91462ea280407",
          "transactionIndex": "0x5",
          "logIndex": "0x3",
          "removed": false
        }
      ],
      "logsBloom": "0x00000000000000000000000000000000000000000000000000000000000000000000000000000000000000000000000000000000000000000000000000000000000010000000000000000008100000000000000000000000000000000000000000000004000000000000000000000000000000000000000000010010000000000000000000000000040000000000000000000002000000000000000000000000001000000000000000000000000000000000000000000000000000000000000004000002000000000000000000000000000000000000000000000000000000000000000000000000000000000000000000200000000000000000000000000000",
      "transactionHash": "0x2de008d8d5b8ec210bc9afc0fe1ce703f278e2cf951952f2dfc91462ea280407",
      "transactionIndex": "0x5",
      "blockHash": "0x04f5749ba90eee2610f9b434056cc56b8a527e98e48e2bf6e0b7b33e697e8648",
      "blockNumber": "0x1decd90",
      "gasUsed": "0xb6f5",
      "effectiveGasPrice": "0xf433d",
      "blobGasUsed": "0x9c40",
      "from": "0x84c29fb8b41f229ad09f4d68f84d676a28dc4a3a",
      "to": "0x82868da66735fcd28185b9befa9ff2aee4ba3fb8",
      "contractAddress": null
    },
    {
      "type": "0x2",
      "status": "0x1",
      "cumulativeGasUsed": "0x241f4",
      "logs": [
        {
          "address": "0x99586357d87b36351b52aefc1667e4199e39e24b",
          "topics": [
            "0x158412daecdc1456d01568828bcdb18464cc7f1ce0215ddbc3f3cfede9d1e63d",
            "0x00000000000000000000000082868da66735fcd28185b9befa9ff2aee4ba3fb8"
          ],
          "data": "0x",
          "blockHash": "0x4871fa275a387b36dbe86d6e075f5520e7084dbd587d3a406f994bb226db0909",
          "blockNumber": "0x1decd94",
          "blockTimestamp": "0x6a60b9f0",
          "transactionHash": "0xac2aa46f47c5d4af13b95cf04b7b21ce4830597de02adaa896f8f07e7ec96064",
          "transactionIndex": "0x2",
          "logIndex": "0x0",
          "removed": false
        }
      ],
      "logsBloom": "0x00000000000000000000000000000000000000000000000000000000000000000000000000000400000000000000000000080000000000002000000000000080000000000000000000000000000000000000000000000000000000000000000000000000000000000000000000000000000000000000000000000000000000020000000000000000000000000004000000000000000000000000000000000000000000000000004000000000000000000000000000000000000000000000000000000000000000000000000400000000100000000000000000000000000000000000000000000000000000000000000000000000000000000000000000000000",
      "transactionHash": "0xac2aa46f47c5d4af13b95cf04b7b21ce4830597de02adaa896f8f07e7ec96064",
      "transactionIndex": "0x2",
      "blockHash": "0x4871fa275a387b36dbe86d6e075f5520e7084dbd587d3a406f994bb226db0909",
      "blockNumber": "0x1decd94",
      "gasUsed": "0x123ab",
      "effectiveGasPrice": "0xf433d",
      "blobGasUsed": "0x9c40",
      "from": "0x84c29fb8b41f229ad09f4d68f84d676a28dc4a3a",
      "to": "0x99586357d87b36351b52aefc1667e4199e39e24b",
      "contractAddress": null
    },
    {
      "type": "0x2",
      "status": "0x1",
      "cumulativeGasUsed": "0xcd733",
      "logs": [
        {
          "address": "0xeed497b085113e8c3fc563935582a72f90bde528",
          "topics": [
            "0xddf252ad1be2c89b69c2b068fc378daa952ba7f163c4a11628f55a4df523b3ef",
            "0x0000000000000000000000002ba3f6838c5d12af133341a527ddffbf618e3988",
            "0x00000000000000000000000084c29fb8b41f229ad09f4d68f84d676a28dc4a3a"
          ],
          "data": "0x0000000000000000000000000000000000000000000000056bc75e2d63100000",
          "blockHash": "0xadb76534be86678d2f22439b3df943b07ac968aa92eb0a7152ab9997921aff3a",
          "blockNumber": "0x1decd97",
          "blockTimestamp": "0x6a60b9f3",
          "transactionHash": "0x6c5ab64feff247cda7aedec4175642b8e1d44aad16e152a44e0ef086bb1cc0d3",
          "transactionIndex": "0xa",
          "logIndex": "0x7",
          "removed": false
        },
        {
          "address": "0x2ba3f6838c5d12af133341a527ddffbf618e3988",
          "topics": [
            "0xf7a40077ff7a04c7e61f6f26fb13774259ddf1b6bce9ecf26a8276cdd3992683",
            "0x00000000000000000000000084c29fb8b41f229ad09f4d68f84d676a28dc4a3a",
            "0x000000000000000000000000eed497b085113e8c3fc563935582a72f90bde528"
          ],
          "data": "0x0000000000000000000000000000000000000000000000056bc75e2d63100000",
          "blockHash": "0xadb76534be86678d2f22439b3df943b07ac968aa92eb0a7152ab9997921aff3a",
          "blockNumber": "0x1decd97",
          "blockTimestamp": "0x6a60b9f3",
          "transactionHash": "0x6c5ab64feff247cda7aedec4175642b8e1d44aad16e152a44e0ef086bb1cc0d3",
          "transactionIndex": "0xa",
          "logIndex": "0x8",
          "removed": false
        }
      ],
      "logsBloom": "0x00000000000000000000000000000000000000000000000000000000000000000000000000000000000000000000004000000000080000080002000000000000000001000000000000000008100000000000000000000000000000000000000000000008000000000000000000000000000000000010000000010010000000000000000020000000000000000000000000000000000000000000000000000000000000000000000000000000000000000000000000040000000000000000020000000002000000000000800000000000000000100000000000000000000000000000000000000000000000010000000000200000040000000000080000000000",
      "transactionHash": "0x6c5ab64feff247cda7aedec4175642b8e1d44aad16e152a44e0ef086bb1cc0d3",
      "transactionIndex": "0xa",
      "blockHash": "0xadb76534be86678d2f22439b3df943b07ac968aa92eb0a7152ab9997921aff3a",
      "blockNumber": "0x1decd97",
      "gasUsed": "0x17d2b",
      "effectiveGasPrice": "0xf433d",
      "blobGasUsed": "0x9c40",
      "from": "0x84c29fb8b41f229ad09f4d68f84d676a28dc4a3a",
      "to": "0x2ba3f6838c5d12af133341a527ddffbf618e3988",
      "contractAddress": null
    },
    {
      "type": "0x2",
      "status": "0x1",
      "cumulativeGasUsed": "0x3cb30",
      "logs": [
        {
          "address": "0xeed497b085113e8c3fc563935582a72f90bde528",
          "topics": [
            "0xddf252ad1be2c89b69c2b068fc378daa952ba7f163c4a11628f55a4df523b3ef",
            "0x00000000000000000000000084c29fb8b41f229ad09f4d68f84d676a28dc4a3a",
            "0x00000000000000000000000099586357d87b36351b52aefc1667e4199e39e24b"
          ],
          "data": "0x000000000000000000000000000000000000000000005452771ae5fae2e00000",
          "blockHash": "0x3ad3e0fb8547695032f1ad6760e5bb5e4d120e79fba61f18cb7c3e887c4e943f",
          "blockNumber": "0x1decd9b",
          "blockTimestamp": "0x6a60b9f7",
          "transactionHash": "0xd22f25408a4ac31853e1e1761604875e9b28e898a849f46b1594f59cf9e0d11c",
          "transactionIndex": "0x4",
          "logIndex": "0x2",
          "removed": false
        }
      ],
      "logsBloom": "0x00000000000000000000000000000000000000000000000000000000000000000000000000000000000000000000000000000000080000000002000000000000000010000000000000000008100000000000000000000000000000000000000000000004000000000000000000000000000000000010000000010010000000000000000000000000000000000000000000000002000000000000000000000000000000000000000000000000000000000000000000000000000000000000000000000002000000000000000000000000000000000000000000000000000000000000000000000000000000000000000000200000000000000000000000000000",
      "transactionHash": "0xd22f25408a4ac31853e1e1761604875e9b28e898a849f46b1594f59cf9e0d11c",
      "transactionIndex": "0x4",
      "blockHash": "0x3ad3e0fb8547695032f1ad6760e5bb5e4d120e79fba61f18cb7c3e887c4e943f",
      "blockNumber": "0x1decd9b",
      "gasUsed": "0xb6f5",
      "effectiveGasPrice": "0xf433d",
      "blobGasUsed": "0x9c40",
      "from": "0x84c29fb8b41f229ad09f4d68f84d676a28dc4a3a",
      "to": "0xeed497b085113e8c3fc563935582a72f90bde528",
      "contractAddress": null
    },
    {
      "type": "0x2",
      "status": "0x1",
      "cumulativeGasUsed": "0x48d65",
      "logs": [
        {
          "address": "0x99586357d87b36351b52aefc1667e4199e39e24b",
          "topics": [
            "0x158412daecdc1456d01568828bcdb18464cc7f1ce0215ddbc3f3cfede9d1e63d",
            "0x000000000000000000000000eed497b085113e8c3fc563935582a72f90bde528"
          ],
          "data": "0x",
          "blockHash": "0x223f271c118f01a97c628c1746ea81b139db743f2dcb985019d4c0637fcf0b0b",
          "blockNumber": "0x1decd9f",
          "blockTimestamp": "0x6a60b9fb",
          "transactionHash": "0x820b67c1a06e9eedc6e925f540a4e635590833f75cfab6aa04f35f83c382c808",
          "transactionIndex": "0x4",
          "logIndex": "0x4",
          "removed": false
        }
      ],
      "logsBloom": "0x00000000000000000000000000000000000000000000000000000000000000000000000000000400000000000000000000080000000000080000000000000080000000000000000000000000000000000000000000000000000000000000000000000008000000000000000000000000000000000000000000000000000000020000000000000000000000000000000000000000000000000000000000000000000000000000004000000000000000000000000000040000000000000000000000000000000000000000000400000000000000000000000000000000000000000000000000000000000000000000000000000000000000000000000000000000",
      "transactionHash": "0x820b67c1a06e9eedc6e925f540a4e635590833f75cfab6aa04f35f83c382c808",
      "transactionIndex": "0x4",
      "blockHash": "0x223f271c118f01a97c628c1746ea81b139db743f2dcb985019d4c0637fcf0b0b",
      "blockNumber": "0x1decd9f",
      "gasUsed": "0x123ab",
      "effectiveGasPrice": "0xf433d",
      "blobGasUsed": "0x9c40",
      "from": "0x84c29fb8b41f229ad09f4d68f84d676a28dc4a3a",
      "to": "0x99586357d87b36351b52aefc1667e4199e39e24b",
      "contractAddress": null
    },
    {
      "type": "0x2",
      "status": "0x1",
      "cumulativeGasUsed": "0x165aba",
      "logs": [
        {
          "address": "0x3b3780b42716b40150859bfaeaab103a8ed0ad76",
          "topics": [
            "0x8be0079c531659141344cd1fd0a4f28419497f9722a3daafe3b4186f6b6457e0",
            "0x0000000000000000000000000000000000000000000000000000000000000000",
            "0x00000000000000000000000084c29fb8b41f229ad09f4d68f84d676a28dc4a3a"
          ],
          "data": "0x",
          "blockHash": "0x5687c9a403676b469b0cfc747c3c20b132f5d076250e38d5612ce51f3bf941aa",
          "blockNumber": "0x1decda2",
          "blockTimestamp": "0x6a60b9fe",
          "transactionHash": "0x69dffd5f925efc6db24f574f692f353bce0cc8024f927a154fb5f35ea7588dfe",
          "transactionIndex": "0x8",
          "logIndex": "0x8",
          "removed": false
        }
      ],
      "logsBloom": "0x00000000000000000000000000000000000000000000000000800000000000000000000000000000000000000000000000000000000000000000000000000000000000000000000000000000100040000001000000000000000000000000000000000000020000000000000000000800000000000000000000010000000001400000000000000000000000000000000000000000000000000000000000000000000000000000000000000000000001000000000000000000000000000000000000000000000000000000000000000000000000000000000000000000000020000000000000000000000000000000000000200000000000000000000000000000",
      "transactionHash": "0x69dffd5f925efc6db24f574f692f353bce0cc8024f927a154fb5f35ea7588dfe",
      "transactionIndex": "0x8",
      "blockHash": "0x5687c9a403676b469b0cfc747c3c20b132f5d076250e38d5612ce51f3bf941aa",
      "blockNumber": "0x1decda2",
      "gasUsed": "0x9be0f",
      "effectiveGasPrice": "0xf433d",
      "blobGasUsed": "0xb2e80",
      "from": "0x84c29fb8b41f229ad09f4d68f84d676a28dc4a3a",
      "to": null,
      "contractAddress": "0x3b3780b42716b40150859bfaeaab103a8ed0ad76"
    },
    {
      "type": "0x2",
      "status": "0x1",
      "cumulativeGasUsed": "0x13cd6b",
      "logs": [
        {
          "address": "0xae6612cac8957fc069b24055ae9b288bb350105d",
          "topics": [
            "0x8be0079c531659141344cd1fd0a4f28419497f9722a3daafe3b4186f6b6457e0",
            "0x0000000000000000000000000000000000000000000000000000000000000000",
            "0x00000000000000000000000084c29fb8b41f229ad09f4d68f84d676a28dc4a3a"
          ],
          "data": "0x",
          "blockHash": "0x47a32d17a83a9585ec1c2c087df7dbd7afb6326778369db7167491c92ef793e0",
          "blockNumber": "0x1decda5",
          "blockTimestamp": "0x6a60ba01",
          "transactionHash": "0xab543e006dbfd1eb16b39df410353b59695c9aa333c7e44c84b03eb64fd88ab9",
          "transactionIndex": "0x3",
          "logIndex": "0x0",
          "removed": false
        }
      ],
      "logsBloom": "0x00000000000000000000000000000000000000000000000000800000000000000000000000000000000000000000000000000000000000000000000000000000000000000000000000000000100000000001000000000002000000000000000000000000020000000000000000000800000000000000000000010000000000400000200000000000000000000200000000000000000000000000000000000000000000000000000000000000000000000000000000000000000000000000000000000000000000000000000000000000000000000000000000000000000020000000000000000000000000000000000000200000000000000000000000000000",
      "transactionHash": "0xab543e006dbfd1eb16b39df410353b59695c9aa333c7e44c84b03eb64fd88ab9",
      "transactionIndex": "0x3",
      "blockHash": "0x47a32d17a83a9585ec1c2c087df7dbd7afb6326778369db7167491c92ef793e0",
      "blockNumber": "0x1decda5",
      "gasUsed": "0x113691",
      "effectiveGasPrice": "0xf433d",
      "blobGasUsed": "0x131dc0",
      "from": "0x84c29fb8b41f229ad09f4d68f84d676a28dc4a3a",
      "to": null,
      "contractAddress": "0xae6612cac8957fc069b24055ae9b288bb350105d"
    },
    {
      "type": "0x2",
      "status": "0x1",
      "cumulativeGasUsed": "0x1911da",
      "logs": [],
      "logsBloom": "0x00000000000000000000000000000000000000000000000000000000000000000000000000000000000000000000000000000000000000000000000000000000000000000000000000000000000000000000000000000000000000000000000000000000000000000000000000000000000000000000000000000000000000000000000000000000000000000000000000000000000000000000000000000000000000000000000000000000000000000000000000000000000000000000000000000000000000000000000000000000000000000000000000000000000000000000000000000000000000000000000000000000000000000000000000000000",
      "transactionHash": "0x2739dc40af2ed2b063520adc27d33a2a1473f080419631b23621a6fbf4aedeeb",
      "transactionIndex": "0x2",
      "blockHash": "0xb2790b9a62b94e640b6199dad4364b793e8cf4eda3018ce49def993cb264c9fb",
      "blockNumber": "0x1decda9",
      "gasUsed": "0x165d51",
      "effectiveGasPrice": "0xf433d",
      "blobGasUsed": "0x165d00",
      "from": "0x84c29fb8b41f229ad09f4d68f84d676a28dc4a3a",
      "to": null,
      "contractAddress": "0x9378d1c5f4cce1dd13a19187bfb5ff24acb84253"
    },
    {
      "type": "0x2",
      "status": "0x1",
      "cumulativeGasUsed": "0xf0e08",
      "logs": [],
      "logsBloom": "0x00000000000000000000000000000000000000000000000000000000000000000000000000000000000000000000000000000000000000000000000000000000000000000000000000000000000000000000000000000000000000000000000000000000000000000000000000000000000000000000000000000000000000000000000000000000000000000000000000000000000000000000000000000000000000000000000000000000000000000000000000000000000000000000000000000000000000000000000000000000000000000000000000000000000000000000000000000000000000000000000000000000000000000000000000000000",
      "transactionHash": "0xb70ab438ceae584dbe454552f5d4a0585f3733239d98b2542e5ece35d52ab53c",
      "transactionIndex": "0x8",
      "blockHash": "0x1466c5a33a3b6bc9683b240da2bd62e7eb3a45a75e3c3e06a8726e80f1639d8b",
      "blockNumber": "0x1decdac",
      "gasUsed": "0xb447",
      "effectiveGasPrice": "0xf433d",
      "blobGasUsed": "0x9c40",
      "from": "0x84c29fb8b41f229ad09f4d68f84d676a28dc4a3a",
      "to": "0x9378d1c5f4cce1dd13a19187bfb5ff24acb84253",
      "contractAddress": null
    },
    {
      "type": "0x2",
      "status": "0x1",
      "cumulativeGasUsed": "0x1efb16",
      "logs": [],
      "logsBloom": "0x00000000000000000000000000000000000000000000000000000000000000000000000000000000000000000000000000000000000000000000000000000000000000000000000000000000000000000000000000000000000000000000000000000000000000000000000000000000000000000000000000000000000000000000000000000000000000000000000000000000000000000000000000000000000000000000000000000000000000000000000000000000000000000000000000000000000000000000000000000000000000000000000000000000000000000000000000000000000000000000000000000000000000000000000000000000",
      "transactionHash": "0x7081c099bd496e870f7518b9b4605b39323eac6e26a9ea9de3758b5c2dc97026",
      "transactionIndex": "0x3",
      "blockHash": "0x0ec961f96e72a5e9828f672107f7cf984bb8f1e302136ccbee7fda5bedb625d6",
      "blockNumber": "0x1decdb0",
      "gasUsed": "0xb45f",
      "effectiveGasPrice": "0xf433d",
      "blobGasUsed": "0x9c40",
      "from": "0x84c29fb8b41f229ad09f4d68f84d676a28dc4a3a",
      "to": "0xae6612cac8957fc069b24055ae9b288bb350105d",
      "contractAddress": null
    },
    {
      "type": "0x2",
      "status": "0x1",
      "cumulativeGasUsed": "0x36890",
      "logs": [],
      "logsBloom": "0x00000000000000000000000000000000000000000000000000000000000000000000000000000000000000000000000000000000000000000000000000000000000000000000000000000000000000000000000000000000000000000000000000000000000000000000000000000000000000000000000000000000000000000000000000000000000000000000000000000000000000000000000000000000000000000000000000000000000000000000000000000000000000000000000000000000000000000000000000000000000000000000000000000000000000000000000000000000000000000000000000000000000000000000000000000000",
      "transactionHash": "0x2fcfa246f58ba3791f223fe1e8824e1a46033a9726635bd5fd23d281cb77ba4f",
      "transactionIndex": "0x2",
      "blockHash": "0xeb8bc283e3e0f5688c744bf3bdcfae6c5187f3d296eda4439826f4a316914be9",
      "blockNumber": "0x1decdb4",
      "gasUsed": "0xb407",
      "effectiveGasPrice": "0xf433d",
      "blobGasUsed": "0x9c40",
      "from": "0x84c29fb8b41f229ad09f4d68f84d676a28dc4a3a",
      "to": "0x9378d1c5f4cce1dd13a19187bfb5ff24acb84253",
      "contractAddress": null
    },
    {
      "type": "0x2",
      "status": "0x1",
      "cumulativeGasUsed": "0x67493",
      "logs": [],
      "logsBloom": "0x00000000000000000000000000000000000000000000000000000000000000000000000000000000000000000000000000000000000000000000000000000000000000000000000000000000000000000000000000000000000000000000000000000000000000000000000000000000000000000000000000000000000000000000000000000000000000000000000000000000000000000000000000000000000000000000000000000000000000000000000000000000000000000000000000000000000000000000000000000000000000000000000000000000000000000000000000000000000000000000000000000000000000000000000000000000",
      "transactionHash": "0x9cb3e32ab81af22b82b180eb50b654a783148dc1395f0b28c46da17eaea22dba",
      "transactionIndex": "0x7",
      "blockHash": "0x20e5718a7ed554348230a82fa703a8ecf4952bdf2ce0484bf409f81b7ca8584f",
      "blockNumber": "0x1decdb7",
      "gasUsed": "0xb449",
      "effectiveGasPrice": "0xf433d",
      "blobGasUsed": "0x9c40",
      "from": "0x84c29fb8b41f229ad09f4d68f84d676a28dc4a3a",
      "to": "0x3b3780b42716b40150859bfaeaab103a8ed0ad76",
      "contractAddress": null
    },
    {
      "type": "0x2",
      "status": "0x1",
      "cumulativeGasUsed": "0x131355",
      "logs": [
        {
          "address": "0x9378d1c5f4cce1dd13a19187bfb5ff24acb84253",
          "topics": [
            "0x98120a6aaa04295520ab4e01c6c1235dd316e822cc9ff31db7b3f197366d18bd",
            "0x0000000000000000000000000000000000000000000000000000000000000001",
            "0x00000000000000000000000084c29fb8b41f229ad09f4d68f84d676a28dc4a3a"
          ],
          "data": "0x0000000000000000000000000000000000000000000000000000000000000040000000000000000000000000000000000000000000000000000000006a74809600000000000000000000000000000000000000000000000000000000000000264164642047564620476f7665726e616e63652050617274696369706174696f6e20546f6b656e0000000000000000000000000000000000000000000000000000",
          "blockHash": "0xe02cd5fe16840397167f89192cddc37eac93219e4390c81fb5fdf8c567882ebb",
          "blockNumber": "0x1decdba",
          "blockTimestamp": "0x6a60ba16",
          "transactionHash": "0xec6b1c0eccc2e858898ad3a14c0e0bbabf2cc7fd959edb5044847f94402576ab",
          "transactionIndex": "0x6",
          "logIndex": "0x3",
          "removed": false
        }
      ],
      "logsBloom": "0x00000000000000000000000000000000000000000000000000000000000000000000000000000000000000000000000000000000000000000000000000040000000000000000000000000000100000010000000000040000000000000000000000000000000000000000000000000000000000000000000000010000000000000000000000000000000000000000000000000000010000000000000000000000000000000000000000000000000000000000000000000000000000000000000000000010000000000000000000000002080000000000000000000000000040000000000000000000000000000000000000200000000000000100000000000000",
      "transactionHash": "0xec6b1c0eccc2e858898ad3a14c0e0bbabf2cc7fd959edb5044847f94402576ab",
      "transactionIndex": "0x6",
      "blockHash": "0xe02cd5fe16840397167f89192cddc37eac93219e4390c81fb5fdf8c567882ebb",
      "blockNumber": "0x1decdba",
      "gasUsed": "0x7ca86",
      "effectiveGasPrice": "0xf433d",
      "blobGasUsed": "0x22f60",
      "from": "0x84c29fb8b41f229ad09f4d68f84d676a28dc4a3a",
      "to": "0x9378d1c5f4cce1dd13a19187bfb5ff24acb84253",
      "contractAddress": null
    },
    {
      "type": "0x2",
      "status": "0x1",
      "cumulativeGasUsed": "0x2b0601",
      "logs": [
        {
          "address": "0x9378d1c5f4cce1dd13a19187bfb5ff24acb84253",
          "topics": [
            "0x98120a6aaa04295520ab4e01c6c1235dd316e822cc9ff31db7b3f197366d18bd",
            "0x0000000000000000000000000000000000000000000000000000000000000002",
            "0x00000000000000000000000084c29fb8b41f229ad09f4d68f84d676a28dc4a3a"
          ],
          "data": "0x0000000000000000000000000000000000000000000000000000000000000040000000000000000000000000000000000000000000000000000000006a748099000000000000000000000000000000000000000000000000000000000000002c416464206120436c61696d20416c6c2062617463682066756e6374696f6e20746f20746865206661756365740000000000000000000000000000000000000000",
          "blockHash": "0xb8ceee1e0d233fef85cef44809c92c1cf785c7be5e9d0d3cd9fb525bf4b8ec79",
          "blockNumber": "0x1decdbd",
          "blockTimestamp": "0x6a60ba19",
          "transactionHash": "0x06ffca6260581c1e6fb143fd3fc563a34ea87b65dfcec7f05bc9aeafda36ee8a",
          "transactionIndex": "0xb",
          "logIndex": "0xb",
          "removed": false
        }
      ],
      "logsBloom": "0x04000000000000000000000000000000000000000000000000000000000000000000000000000000000000000000000000000000000000000000000000000000000000000000000000000000100000010000000000000000000000000000000000000000000000000000000000000000000000000000000000010000000000000000000000000000000000000000000000000000010000000000000000000000000000000000000000000100000000000000000000000000000000000000000000000010000000000000000000000002080000000000000000000000000000000000000000000000000000000000000000200000008000000100000000000000",
      "transactionHash": "0x06ffca6260581c1e6fb143fd3fc563a34ea87b65dfcec7f05bc9aeafda36ee8a",
      "transactionIndex": "0xb",
      "blockHash": "0xb8ceee1e0d233fef85cef44809c92c1cf785c7be5e9d0d3cd9fb525bf4b8ec79",
      "blockNumber": "0x1decdbd",
      "gasUsed": "0x9f49c",
      "effectiveGasPrice": "0xf433d",
      "blobGasUsed": "0x31380",
      "from": "0x84c29fb8b41f229ad09f4d68f84d676a28dc4a3a",
      "to": "0x9378d1c5f4cce1dd13a19187bfb5ff24acb84253",
      "contractAddress": null
    },
    {
      "type": "0x2",
      "status": "0x1",
      "cumulativeGasUsed": "0x17729b",
      "logs": [
        {
          "address": "0xae6612cac8957fc069b24055ae9b288bb350105d",
          "topics": [
            "0xddf252ad1be2c89b69c2b068fc378daa952ba7f163c4a11628f55a4df523b3ef",
            "0x0000000000000000000000000000000000000000000000000000000000000000",
            "0x00000000000000000000000084c29fb8b41f229ad09f4d68f84d676a28dc4a3a",
            "0x0000000000000000000000000000000000000000000000000000000000000001"
          ],
          "data": "0x",
          "blockHash": "0xf61e82068711dc68715c92dd2f052ebfb980c2f193634dabe56f805447c95c3c",
          "blockNumber": "0x1decdc0",
          "blockTimestamp": "0x6a60ba1c",
          "transactionHash": "0x1179233bb366d37167092f9031dcba895bec219bcc88a62d684bec59d6d63395",
          "transactionIndex": "0xc",
          "logIndex": "0x8",
          "removed": false
        },
        {
          "address": "0x9378d1c5f4cce1dd13a19187bfb5ff24acb84253",
          "topics": [
            "0xc5e5b314108c1f776c2302351b8278910ddb812b122b2717b1bc973146145e9a",
            "0x00000000000000000000000084c29fb8b41f229ad09f4d68f84d676a28dc4a3a"
          ],
          "data": "0x0000000000000000000000000000000000000000000000000000000000000001",
          "blockHash": "0xf61e82068711dc68715c92dd2f052ebfb980c2f193634dabe56f805447c95c3c",
          "blockNumber": "0x1decdc0",
          "blockTimestamp": "0x6a60ba1c",
          "transactionHash": "0x1179233bb366d37167092f9031dcba895bec219bcc88a62d684bec59d6d63395",
          "transactionIndex": "0xc",
          "logIndex": "0x9",
          "removed": false
        },
        {
          "address": "0x3b3780b42716b40150859bfaeaab103a8ed0ad76",
          "topics": [
            "0xddf252ad1be2c89b69c2b068fc378daa952ba7f163c4a11628f55a4df523b3ef",
            "0x0000000000000000000000000000000000000000000000000000000000000000",
            "0x00000000000000000000000084c29fb8b41f229ad09f4d68f84d676a28dc4a3a"
          ],
          "data": "0x0000000000000000000000000000000000000000000000008ac7230489e80000",
          "blockHash": "0xf61e82068711dc68715c92dd2f052ebfb980c2f193634dabe56f805447c95c3c",
          "blockNumber": "0x1decdc0",
          "blockTimestamp": "0x6a60ba1c",
          "transactionHash": "0x1179233bb366d37167092f9031dcba895bec219bcc88a62d684bec59d6d63395",
          "transactionIndex": "0xc",
          "logIndex": "0xa",
          "removed": false
        },
        {
          "address": "0x9378d1c5f4cce1dd13a19187bfb5ff24acb84253",
          "topics": [
            "0xed3ce637c8ccb5e2b22a02f352b00227ea301de0dcdd53461af277e5a93d2ea8",
            "0x00000000000000000000000084c29fb8b41f229ad09f4d68f84d676a28dc4a3a"
          ],
          "data": "0x0000000000000000000000000000000000000000000000008ac7230489e80000",
          "blockHash": "0xf61e82068711dc68715c92dd2f052ebfb980c2f193634dabe56f805447c95c3c",
          "blockNumber": "0x1decdc0",
          "blockTimestamp": "0x6a60ba1c",
          "transactionHash": "0x1179233bb366d37167092f9031dcba895bec219bcc88a62d684bec59d6d63395",
          "transactionIndex": "0xc",
          "logIndex": "0xb",
          "removed": false
        },
        {
          "address": "0x9378d1c5f4cce1dd13a19187bfb5ff24acb84253",
          "topics": [
            "0xf2913dbe661ee2acc4a046d8fbcdc792373bda34c41c6086484b5345e5785e5f",
            "0x0000000000000000000000000000000000000000000000000000000000000001",
            "0x00000000000000000000000084c29fb8b41f229ad09f4d68f84d676a28dc4a3a"
          ],
          "data": "0x0000000000000000000000000000000000000000000000000000000000000001",
          "blockHash": "0xf61e82068711dc68715c92dd2f052ebfb980c2f193634dabe56f805447c95c3c",
          "blockNumber": "0x1decdc0",
          "blockTimestamp": "0x6a60ba1c",
          "transactionHash": "0x1179233bb366d37167092f9031dcba895bec219bcc88a62d684bec59d6d63395",
          "transactionIndex": "0xc",
          "logIndex": "0xc",
          "removed": false
        }
      ],
      "logsBloom": "0x00000000000000000000000000000000000000000000000000100000000000000000000000000000000000100000000000000000000000000000000000040000000000000000000000000008102040000010000000040002040000000000000000000000020000000000000000000800000000000400000000010010000001000000200000000000004000001200000000000000110000000000000000000000000000000000000000000000000001000000000000000000000000000000000000000002000000000000000000000000080000000000000000000000000060000000000000000000000000000000000000200000000000000100000000000000",
      "transactionHash": "0x1179233bb366d37167092f9031dcba895bec219bcc88a62d684bec59d6d63395",
      "transactionIndex": "0xc",
      "blockHash": "0xf61e82068711dc68715c92dd2f052ebfb980c2f193634dabe56f805447c95c3c",
      "blockNumber": "0x1decdc0",
      "gasUsed": "0x3fd25",
      "effectiveGasPrice": "0xf433d",
      "blobGasUsed": "0x9c40",
      "from": "0x84c29fb8b41f229ad09f4d68f84d676a28dc4a3a",
      "to": "0x9378d1c5f4cce1dd13a19187bfb5ff24acb84253",
      "contractAddress": null
    },
    {
      "type": "0x2",
      "status": "0x1",
      "cumulativeGasUsed": "0x1cca2",
      "logs": [
        {
          "address": "0x9378d1c5f4cce1dd13a19187bfb5ff24acb84253",
          "topics": [
            "0x022c5894f70637e46c49debc0376ce8c5fa29222787feeaa2e9af248617325fe",
            "0x0000000000000000000000000000000000000000000000000000000000000001"
          ],
          "data": "0x000000000000000000000000000000000000000000000000000000006a60ba20",
          "blockHash": "0xeb3b879d1eb8a80624562d7892718d60add4afd0943f24716f917e80adcf082e",
          "blockNumber": "0x1decdc4",
          "blockTimestamp": "0x6a60ba20",
          "transactionHash": "0xcfdaefb1142779847c1126d27d3bd28e52444dd7ce344eb3378495164afb2052",
          "transactionIndex": "0x1",
          "logIndex": "0x0",
          "removed": false
        }
      ],
      "logsBloom": "0x00000000000000000000000000000000000000000000000000000000000000000000000000000000000000000000000000000000000000000000000000040000000000000000000000000000000000000000000000040000000000000000000000000000000000000000000000000000000000000000000000000000008000000000000000000000000000000000000000000000010000000000000000000000000000000000000000000000000000000000000100000000000000000000000000000000000000000000000000000000080000000000000200000000000040000000000000000000000000000000000000000000000000000100000000000000",
      "transactionHash": "0xcfdaefb1142779847c1126d27d3bd28e52444dd7ce344eb3378495164afb2052",
      "transactionIndex": "0x1",
      "blockHash": "0xeb3b879d1eb8a80624562d7892718d60add4afd0943f24716f917e80adcf082e",
      "blockNumber": "0x1decdc4",
      "gasUsed": "0x11818",
      "effectiveGasPrice": "0xf433d",
      "blobGasUsed": "0x9c40",
      "from": "0x84c29fb8b41f229ad09f4d68f84d676a28dc4a3a",
      "to": "0x9378d1c5f4cce1dd13a19187bfb5ff24acb84253",
      "contractAddress": null
    },
    {
      "type": "0x2",
      "status": "0x1",
      "cumulativeGasUsed": "0xdff98",
      "logs": [
        {
          "address": "0x3b3780b42716b40150859bfaeaab103a8ed0ad76",
          "topics": [
            "0xddf252ad1be2c89b69c2b068fc378daa952ba7f163c4a11628f55a4df523b3ef",
            "0x0000000000000000000000000000000000000000000000000000000000000000",
            "0x00000000000000000000000084c29fb8b41f229ad09f4d68f84d676a28dc4a3a"
          ],
          "data": "0x0000000000000000000000000000000000000000000000008ac7230489e80000",
          "blockHash": "0x0fdbd1103da88f9aad785486447192475e326a5381c66d1a499426b127709c5c",
          "blockNumber": "0x1decdc7",
          "blockTimestamp": "0x6a60ba23",
          "transactionHash": "0x141a824853a6cbc729b2293ecfbd92c2c53df38246f032e8ca165bc12716ab64",
          "transactionIndex": "0x7",
          "logIndex": "0x9",
          "removed": false
        },
        {
          "address": "0x9378d1c5f4cce1dd13a19187bfb5ff24acb84253",
          "topics": [
            "0xed3ce637c8ccb5e2b22a02f352b00227ea301de0dcdd53461af277e5a93d2ea8",
            "0x00000000000000000000000084c29fb8b41f229ad09f4d68f84d676a28dc4a3a"
          ],
          "data": "0x0000000000000000000000000000000000000000000000008ac7230489e80000",
          "blockHash": "0x0fdbd1103da88f9aad785486447192475e326a5381c66d1a499426b127709c5c",
          "blockNumber": "0x1decdc7",
          "blockTimestamp": "0x6a60ba23",
          "transactionHash": "0x141a824853a6cbc729b2293ecfbd92c2c53df38246f032e8ca165bc12716ab64",
          "transactionIndex": "0x7",
          "logIndex": "0xa",
          "removed": false
        },
        {
          "address": "0x9378d1c5f4cce1dd13a19187bfb5ff24acb84253",
          "topics": [
            "0xf2913dbe661ee2acc4a046d8fbcdc792373bda34c41c6086484b5345e5785e5f",
            "0x0000000000000000000000000000000000000000000000000000000000000002",
            "0x00000000000000000000000084c29fb8b41f229ad09f4d68f84d676a28dc4a3a"
          ],
          "data": "0x0000000000000000000000000000000000000000000000000000000000000001",
          "blockHash": "0x0fdbd1103da88f9aad785486447192475e326a5381c66d1a499426b127709c5c",
          "blockNumber": "0x1decdc7",
          "blockTimestamp": "0x6a60ba23",
          "transactionHash": "0x141a824853a6cbc729b2293ecfbd92c2c53df38246f032e8ca165bc12716ab64",
          "transactionIndex": "0x7",
          "logIndex": "0xb",
          "removed": false
        }
      ],
      "logsBloom": "0x04000000000000000000000000000000000000000000000000100000000000000000000000000000000000000000000000000000000000000000000000000000000000000000000000000008102040000010000000000000040000000000000000000000020000000000000000000800000000000000000000010010000001000000000000000000004000000000000000000000110000000000000000000000000000000000000000000100000001000000000000000000000000000000000000000002000000000000000000000000080000000000000000000000000020000000000000000000000000000000000000200000008000000100000000000000",
      "transactionHash": "0x141a824853a6cbc729b2293ecfbd92c2c53df38246f032e8ca165bc12716ab64",
      "transactionIndex": "0x7",
      "blockHash": "0x0fdbd1103da88f9aad785486447192475e326a5381c66d1a499426b127709c5c",
      "blockNumber": "0x1decdc7",
      "gasUsed": "0x1b286",
      "effectiveGasPrice": "0xf433d",
      "blobGasUsed": "0x9c40",
      "from": "0x84c29fb8b41f229ad09f4d68f84d676a28dc4a3a",
      "to": "0x9378d1c5f4cce1dd13a19187bfb5ff24acb84253",
      "contractAddress": null
    },
    {
      "type": "0x2",
      "status": "0x1",
      "cumulativeGasUsed": "0xa5244",
      "logs": [
        {
          "address": "0x9378d1c5f4cce1dd13a19187bfb5ff24acb84253",
          "topics": [
            "0x022c5894f70637e46c49debc0376ce8c5fa29222787feeaa2e9af248617325fe",
            "0x0000000000000000000000000000000000000000000000000000000000000002"
          ],
          "data": "0x000000000000000000000000000000000000000000000000000000006a60ba27",
          "blockHash": "0xb44530437028026b6ee2f9a37800d38938774a71b8a3dd4f04a9ef8a23bfe947",
          "blockNumber": "0x1decdcb",
          "blockTimestamp": "0x6a60ba27",
          "transactionHash": "0x92866df39924e3e7438e9c41693dbafea2990429675b34f7218d133d63bd07d0",
          "transactionIndex": "0x4",
          "logIndex": "0x6",
          "removed": false
        }
      ],
      "logsBloom": "0x04000000000000000000000000000000000000000000000000000000000000000000000000000000000000000000000000000000000000000000000000000000000000000000000000000000000000000000000000000000000000000000000000000000000000000000000000000000000000000000000000000000008000000000000000000000000000000000000000000000010000000000000000000000000000000000000000000100000000000000000100000000000000000000000000000000000000000000000000000000080000000000000200000000000000000000000000000000000000000000000000000000008000000100000000000000",
      "transactionHash": "0x92866df39924e3e7438e9c41693dbafea2990429675b34f7218d133d63bd07d0",
      "transactionIndex": "0x4",
      "blockHash": "0xb44530437028026b6ee2f9a37800d38938774a71b8a3dd4f04a9ef8a23bfe947",
      "blockNumber": "0x1decdcb",
      "gasUsed": "0x11818",
      "effectiveGasPrice": "0xf433d",
      "blobGasUsed": "0x9c40",
      "from": "0x84c29fb8b41f229ad09f4d68f84d676a28dc4a3a",
      "to": "0x9378d1c5f4cce1dd13a19187bfb5ff24acb84253",
      "contractAddress": null
    }
  ],
  "libraries": [],
  "pending": [],
  "returns": {},
  "timestamp": 1784724008496,
  "chain": 91342,
  "commit": "91e586a"
}