{
  "transactions": [
    {
      "hash": "0x3a98634b6dc976a99dbb249fa5dadb85236a76db51b8c4ff65bd8a7a7f9bb015",
      "transactionType": "CREATE",
      "contractName": "GiwaFaucet",
      "contractAddress": "0xd478f71086146539aad272f74aa7e73ee1ba9a4b",
      "function": null,
      "arguments": [
        "0x7893e1AcaeEDADFC4fa4a88e9E83a65e4C5BF19e",
        "0xd99b42e778498aa3c9c1f6a012359130252780511687a35982e8e52735453034"
      ],
      "transaction": {
        "from": "0x84c29fb8b41f229ad09f4d68f84d676a28dc4a3a",
        "to": null,
        "gas": "0x17e1ad",
        "value": "0x0",
        "input": "0x608060405268056bc75e2d6310000060035568056bc75e2d6310000060045562015180600555348015610030575f5ffd5b5060405161135c38038061135c83398101604081905261004f916100cc565b6001600160a01b03821661009c5760405162461bcd60e51b815260206004820152601060248201526f24b73b30b634b2103b32b934b334b2b960811b604482015260640160405180910390fd5b5f80546001600160a01b039093166001600160a01b03199384161790556001556002805490911633179055610103565b5f5f604083850312156100dd575f5ffd5b82516001600160a01b03811681146100f3575f5ffd5b6020939093015192949293505050565b61124c806101105f395ff3fe608060405234801561000f575f5ffd5b506004361061016d575f3560e01c806392389453116100d9578063af99ccf011610093578063d1058e591161006e578063d1058e5914610348578063e268e4d314610350578063f2fde38b14610363578063fc9afd6714610376575f5ffd5b8063af99ccf01461030f578063b1c7ef0c14610322578063c1b628dc14610335575f5ffd5b8063923894531461028e57806394714d3d1461029757806397988dce146102aa5780639ead7222146102bd578063a219a018146102d0578063aa6ca808146102fa575f5ffd5b80634fc3f41a1161012a5780634fc3f41a146101fb57806378a895671461020e578063830953ab146102165780638c0bd9161461021f5780638da5cb5b1461025157806391920f3014610264575f5ffd5b806304646a491461017157806309824a801461018d5780631e83409a146101a25780632b7ac3f3146101b55780633528bee9146101df578063453c2310146101f2575b5f5ffd5b61017a60055481565b6040519081526020015b60405180910390f35b6101a061019b366004611094565b610389565b005b6101a06101b0366004611094565b6104ea565b5f546101c7906001600160a01b031681565b6040516001600160a01b039091168152602001610184565b61017a6101ed366004611094565b6108af565b61017a60045481565b6101a06102093660046110b4565b61091d565b60075461017a565b61017a60035481565b61024161022d366004611094565b60066020525f908152604090205460ff1681565b6040519015158152602001610184565b6002546101c7906001600160a01b031681565b61017a6102723660046110cb565b600860209081525f928352604080842090915290825290205481565b61017a60015481565b6101a06102a53660046110fc565b610988565b6101c76102b83660046110b4565b610a2b565b6101c76102cb3660046110b4565b610a59565b61017a6102de3660046110cb565b600960209081525f928352604080842090915290825290205481565b610302610a81565b6040516101849190611124565b6101a061031d3660046110cb565b610ae1565b6101a06103303660046110b4565b610b36565b6101a06103433660046110cb565b610ba1565b6101a0610bf6565b6101a061035e3660046110b4565b610ee7565b6101a0610371366004611094565b610f52565b61017a6103843660046110cb565b61101d565b6002546001600160a01b031633146103bc5760405162461bcd60e51b81526004016103b39061116f565b60405180910390fd5b6001600160a01b0381166104025760405162461bcd60e51b815260206004820152600d60248201526c24b73b30b634b2103a37b5b2b760991b60448201526064016103b3565b6001600160a01b0381165f9081526006602052604090205460ff161561045f5760405162461bcd60e51b8152602060048201526012602482015271105b1c9958591e481c9959da5cdd195c995960721b60448201526064016103b3565b6001600160a01b0381165f81815260066020526040808220805460ff1916600190811790915560078054918201815583527fa66cc928b5edb82af9bd49922954155ab7b0942694bea4ce44661d9a8736c6880180546001600160a01b03191684179055517f158412daecdc1456d01568828bcdb18464cc7f1ce0215ddbc3f3cfede9d1e63d9190a250565b6001600160a01b0381165f9081526006602052604090205460ff166105485760405162461bcd60e51b8152602060048201526014602482015273151bdad95b881b9bdd081c9959da5cdd195c995960621b60448201526064016103b3565b5f5460015460405163ba03e20560e01b815233600482015260248101919091526001600160a01b039091169063ba03e20590604401602060405180830381865afa158015610598573d5f5f3e3d5ffd5b505050506040513d601f19601f820116820180604052508101906105bc9190611192565b6105f75760405162461bcd60e51b815260206004820152600c60248201526b139bdd081d995c9a599a595960a21b60448201526064016103b3565b600554335f9081526008602090815260408083206001600160a01b038616845290915290205461062791906111c5565b4210156106685760405162461bcd60e51b815260206004820152600f60248201526e436f6f6c646f776e2061637469766560881b60448201526064016103b3565b6003546040516370a0823160e01b81523060048201526001600160a01b038316906370a0823190602401602060405180830381865afa1580156106ad573d5f5f3e3d5ffd5b505050506040513d601f19601f820116820180604052508101906106d191906111d8565b101561071f5760405162461bcd60e51b815260206004820152601b60248201527f496e73756666696369656e74206661756365742062616c616e6365000000000060448201526064016103b3565b600454600354335f9081526009602090815260408083206001600160a01b038716845290915290205461075291906111c5565b11156107995760405162461bcd60e51b815260206004820152601660248201527513585e081c195c881dd85b1b195d081c995858da195960521b60448201526064016103b3565b335f8181526008602090815260408083206001600160a01b03861680855290835281842042905560035494845260098352818420908452909152812080549091906107e59084906111c5565b909155505060035460405163a9059cbb60e01b815233600482015260248101919091526001600160a01b0382169063a9059cbb906044016020604051808303815f875af1158015610838573d5f5f3e3d5ffd5b505050506040513d601f19601f8201168201806040525081019061085c9190611192565b50806001600160a01b0316336001600160a01b03167ff7a40077ff7a04c7e61f6f26fb13774259ddf1b6bce9ecf26a8276cdd39926836003546040516108a491815260200190565b60405180910390a350565b6040516370a0823160e01b81523060048201525f906001600160a01b038316906370a0823190602401602060405180830381865afa1580156108f3573d5f5f3e3d5ffd5b505050506040513d601f19601f8201168201806040525081019061091791906111d8565b92915050565b6002546001600160a01b031633146109475760405162461bcd60e51b81526004016103b39061116f565b60055460408051918252602082018390527f5953b565c074c2cce1866b4e69c9efc4908556bb6fca70f735907c94d9405515910160405180910390a1600555565b6002546001600160a01b031633146109b25760405162461bcd60e51b81526004016103b39061116f565b6040516323b872dd60e01b8152336004820152306024820152604481018290526001600160a01b038316906323b872dd906064016020604051808303815f875af1158015610a02573d5f5f3e3d5ffd5b505050506040513d601f19601f82011682018060405250810190610a269190611192565b505050565b5f60078281548110610a3f57610a3f6111ef565b5f918252602090912001546001600160a01b031692915050565b60078181548110610a68575f80fd5b5f918252602090912001546001600160a01b0316905081565b60606007805480602002602001604051908101604052809291908181526020018280548015610ad757602002820191905f5260205f20905b81546001600160a01b03168152600190910190602001808311610ab9575b5050505050905090565b6002546001600160a01b03163314610b0b5760405162461bcd60e51b81526004016103b39061116f565b6001600160a01b039182165f9081526009602090815260408083209390941682529190915290812055565b6002546001600160a01b03163314610b605760405162461bcd60e51b81526004016103b39061116f565b60035460408051918252602082018390527fc22e16deec6f587d0a1aad7275c1621e6c24431fea14dd71e8f3243e9fbc5ca3910160405180910390a1600355565b6002546001600160a01b03163314610bcb5760405162461bcd60e51b81526004016103b39061116f565b6001600160a01b039182165f9081526008602090815260408083209390941682529190915290812055565b5f5460015460405163ba03e20560e01b815233600482015260248101919091526001600160a01b039091169063ba03e20590604401602060405180830381865afa158015610c46573d5f5f3e3d5ffd5b505050506040513d601f19601f82011682018060405250810190610c6a9190611192565b610ca55760405162461bcd60e51b815260206004820152600c60248201526b139bdd081d995c9a599a595960a21b60448201526064016103b3565b6007545f5b81811015610ee3575f60078281548110610cc657610cc66111ef565b5f9182526020808320909101546005543384526008835260408085206001600160a01b03909316808652929093529190922054919250610d05916111c5565b421015610d125750610edb565b6003546040516370a0823160e01b81523060048201526001600160a01b038316906370a0823190602401602060405180830381865afa158015610d57573d5f5f3e3d5ffd5b505050506040513d601f19601f82011682018060405250810190610d7b91906111d8565b1015610d875750610edb565b600454600354335f9081526009602090815260408083206001600160a01b0387168452909152902054610dba91906111c5565b1115610dc65750610edb565b335f8181526008602090815260408083206001600160a01b0386168085529083528184204290556003549484526009835281842090845290915281208054909190610e129084906111c5565b909155505060035460405163a9059cbb60e01b815233600482015260248101919091526001600160a01b0382169063a9059cbb906044016020604051808303815f875af1158015610e65573d5f5f3e3d5ffd5b505050506040513d601f19601f82011682018060405250810190610e899190611192565b50806001600160a01b0316336001600160a01b03167ff7a40077ff7a04c7e61f6f26fb13774259ddf1b6bce9ecf26a8276cdd3992683600354604051610ed191815260200190565b60405180910390a3505b600101610caa565b5050565b6002546001600160a01b03163314610f115760405162461bcd60e51b81526004016103b39061116f565b60045460408051918252602082018390527f3fca42c6c8b5fed56d74db2d1bdb8779af1f129431f3517018ca13f6904b0637910160405180910390a1600455565b6002546001600160a01b03163314610f7c5760405162461bcd60e51b81526004016103b39061116f565b6001600160a01b038116610fc25760405162461bcd60e51b815260206004820152600d60248201526c24b73b30b634b21037bbb732b960991b60448201526064016103b3565b6002546040516001600160a01b038084169216907f8292fce18fa69edf4db7b94ea2e58241df0ae57f97e0a6c9b29067028bf92d76905f90a3600280546001600160a01b0319166001600160a01b0392909216919091179055565b6005546001600160a01b038084165f9081526008602090815260408083209386168352929052908120549091829161105591906111c5565b9050804210611067575f915050610917565b6110714282611203565b949350505050565b80356001600160a01b038116811461108f575f5ffd5b919050565b5f602082840312156110a4575f5ffd5b6110ad82611079565b9392505050565b5f602082840312156110c4575f5ffd5b5035919050565b5f5f604083850312156110dc575f5ffd5b6110e583611079565b91506110f360208401611079565b90509250929050565b5f5f6040838503121561110d575f5ffd5b61111683611079565b946020939093013593505050565b602080825282518282018190525f918401906040840190835b818110156111645783516001600160a01b031683526020938401939092019160010161113d565b509095945050505050565b6020808252600990820152682737ba1037bbb732b960b91b604082015260600190565b5f602082840312156111a2575f5ffd5b815180151581146110ad575f5ffd5b634e487b7160e01b5f52601160045260245ffd5b80820180821115610917576109176111b1565b5f602082840312156111e8575f5ffd5b5051919050565b634e487b7160e01b5f52603260045260245ffd5b81810381811115610917576109176111b156fea2646970667358221220423f810175b0cf341b0fc0e37e433d849d654114d23a01a99e45bc8f02f7959764736f6c634300081c00330000000000000000000000007893e1acaeedadfc4fa4a88e9e83a65e4c5bf19ed99b42e778498aa3c9c1f6a012359130252780511687a35982e8e52735453034",
        "nonce": "0xd3",
        "chainId": "0x164ce"
      },
      "additionalContracts": [],
      "isFixedGasLimit": false
    },
    {
      "hash": "0xa0c14092a9beda2190c76c20598020c06631d0a23b451a73d740ec991f9bb715",
      "transactionType": "CALL",
      "contractName": "GiwaFaucet",
      "contractAddress": "0xd478f71086146539aad272f74aa7e73ee1ba9a4b",
      "function": "registerToken(address)",
      "arguments": [
        "0x05E894cE2C176Dbc30176626efa24850aF2af0e2"
      ],
      "transaction": {
        "from": "0x84c29fb8b41f229ad09f4d68f84d676a28dc4a3a",
        "to": "0xd478f71086146539aad272f74aa7e73ee1ba9a4b",
        "gas": "0x1ef3e",
        "value": "0x0",
        "input": "0x09824a8000000000000000000000000005e894ce2c176dbc30176626efa24850af2af0e2",
        "nonce": "0xd4",
        "chainId": "0x164ce"
      },
      "additionalContracts": [],
      "isFixedGasLimit": false
    },
    {
      "hash": "0x764b290b596e9abe04fee910d3dfc083176ce8645313eb6751b08cca05653d18",
      "transactionType": "CALL",
      "contractName": null,
      "contractAddress": "0x05e894ce2c176dbc30176626efa24850af2af0e2",
      "function": "transfer(address,uint256)",
      "arguments": [
        "0xD478F71086146539Aad272f74aa7E73ee1ba9A4B",
        "100000000000000000000"
      ],
      "transaction": {
        "from": "0x84c29fb8b41f229ad09f4d68f84d676a28dc4a3a",
        "to": "0x05e894ce2c176dbc30176626efa24850af2af0e2",
        "gas": "0x10b81",
        "value": "0x0",
        "input": "0xa9059cbb000000000000000000000000d478f71086146539aad272f74aa7e73ee1ba9a4b0000000000000000000000000000000000000000000000056bc75e2d63100000",
        "nonce": "0xd5",
        "chainId": "0x164ce"
      },
      "additionalContracts": [],
      "isFixedGasLimit": false
    },
    {
      "hash": "0xe3319eb5c0a5f3376b8f68bb02a69200c3a683f3498b1e113ceb029c05dc1f7b",
      "transactionType": "CALL",
      "contractName": "GiwaFaucet",
      "contractAddress": "0xd478f71086146539aad272f74aa7e73ee1ba9a4b",
      "function": "registerToken(address)",
      "arguments": [
        "0x00E8F81208A33BF516cD7Dd46e7597dFB40F5a25"
      ],
      "transaction": {
        "from": "0x84c29fb8b41f229ad09f4d68f84d676a28dc4a3a",
        "to": "0xd478f71086146539aad272f74aa7e73ee1ba9a4b",
        "gas": "0x192eb",
        "value": "0x0",
        "input": "0x09824a8000000000000000000000000000e8f81208a33bf516cd7dd46e7597dfb40f5a25",
        "nonce": "0xd6",
        "chainId": "0x164ce"
      },
      "additionalContracts": [],
      "isFixedGasLimit": false
    },
    {
      "hash": "0x7132a64eee87fbbe3c56c2605a48223ab49f450d3ce89ad54e4995d15854b23b",
      "transactionType": "CALL",
      "contractName": null,
      "contractAddress": "0x00e8f81208a33bf516cd7dd46e7597dfb40f5a25",
      "function": "transfer(address,uint256)",
      "arguments": [
        "0xD478F71086146539Aad272f74aa7E73ee1ba9A4B",
        "90000000000000000000"
      ],
      "transaction": {
        "from": "0x84c29fb8b41f229ad09f4d68f84d676a28dc4a3a",
        "to": "0x00e8f81208a33bf516cd7dd46e7597dfb40f5a25",
        "gas": "0xfc93",
        "value": "0x0",
        "input": "0xa9059cbb000000000000000000000000d478f71086146539aad272f74aa7e73ee1ba9a4b000000000000000000000000000000000000000000000004e1003b28d9280000",
        "nonce": "0xd7",
        "chainId": "0x164ce"
      },
      "additionalContracts": [],
      "isFixedGasLimit": false
    },
    {
      "hash": "0xb1c621cb139007bb6352bfa4f6baf2efc8c792e04680035707b71fd4f594d93d",
      "transactionType": "CALL",
      "contractName": "GiwaFaucet",
      "contractAddress": "0xd478f71086146539aad272f74aa7e73ee1ba9a4b",
      "function": "registerToken(address)",
      "arguments": [
        "0x263a171641882Db6b48210E1ea477DB3D1d34509"
      ],
      "transaction": {
        "from": "0x84c29fb8b41f229ad09f4d68f84d676a28dc4a3a",
        "to": "0xd478f71086146539aad272f74aa7e73ee1ba9a4b",
        "gas": "0x1aab0",
        "value": "0x0",
        "input": "0x09824a80000000000000000000000000263a171641882db6b48210e1ea477db3d1d34509",
        "nonce": "0xd8",
        "chainId": "0x164ce"
      },
      "additionalContracts": [],
      "isFixedGasLimit": false
    },
    {
      "hash": "0x69c197e5bda0d29b6cf8158ec59718cd1468592a49faff92c632e42827e79f1a",
      "transactionType": "CALL",
      "contractName": null,
      "contractAddress": "0x263a171641882db6b48210e1ea477db3d1d34509",
      "function": "transfer(address,uint256)",
      "arguments": [
        "0xD478F71086146539Aad272f74aa7E73ee1ba9A4B",
        "109969011034427728910"
      ],
      "transaction": {
        "from": "0x84c29fb8b41f229ad09f4d68f84d676a28dc4a3a",
        "to": "0x263a171641882db6b48210e1ea477db3d1d34509",
        "gas": "0x10ba4",
        "value": "0x0",
        "input": "0xa9059cbb000000000000000000000000d478f71086146539aad272f74aa7e73ee1ba9a4b000000000000000000000000000000000000000000000005f62068e52013a40e",
        "nonce": "0xd9",
        "chainId": "0x164ce"
      },
      "additionalContracts": [],
      "isFixedGasLimit": false
    },
    {
      "hash": "0x13a4d703648bac27f1864d1dd5a34473dee844657943497b37d2fdca9796e473",
      "transactionType": "CALL",
      "contractName": "GiwaFaucet",
      "contractAddress": "0xd478f71086146539aad272f74aa7e73ee1ba9a4b",
      "function": "registerToken(address)",
      "arguments": [
        "0x82868dA66735FCD28185b9BEFa9fF2AeE4BA3FB8"
      ],
      "transaction": {
        "from": "0x84c29fb8b41f229ad09f4d68f84d676a28dc4a3a",
        "to": "0xd478f71086146539aad272f74aa7e73ee1ba9a4b",
        "gas": "0x1aab0",
        "value": "0x0",
        "input": "0x09824a8000000000000000000000000082868da66735fcd28185b9befa9ff2aee4ba3fb8",
        "nonce": "0xda",
        "chainId": "0x164ce"
      },
      "additionalContracts": [],
      "isFixedGasLimit": false
    },
    {
      "hash": "0xd89b9b4df9d0cb73070efa4facc900394f95672bfb6dd578fb48538d7643a6d8",
      "transactionType": "CALL",
      "contractName": null,
      "contractAddress": "0x82868da66735fcd28185b9befa9ff2aee4ba3fb8",
      "function": "transfer(address,uint256)",
      "arguments": [
        "0xD478F71086146539Aad272f74aa7E73ee1ba9A4B",
        "100000000000000000000"
      ],
      "transaction": {
        "from": "0x84c29fb8b41f229ad09f4d68f84d676a28dc4a3a",
        "to": "0x82868da66735fcd28185b9befa9ff2aee4ba3fb8",
        "gas": "0x10b81",
        "value": "0x0",
        "input": "0xa9059cbb000000000000000000000000d478f71086146539aad272f74aa7e73ee1ba9a4b0000000000000000000000000000000000000000000000056bc75e2d63100000",
        "nonce": "0xdb",
        "chainId": "0x164ce"
      },
      "additionalContracts": [],
      "isFixedGasLimit": false
    },
    {
      "hash": "0x5ca90a77f8f1482d6b198421780d79ff695451c366118c505d4e0b0211f9e16a",
      "transactionType": "CALL",
      "contractName": "GiwaFaucet",
      "contractAddress": "0xd478f71086146539aad272f74aa7e73ee1ba9a4b",
      "function": "registerToken(address)",
      "arguments": [
        "0xEEd497B085113e8C3FC563935582a72F90BdE528"
      ],
      "transaction": {
        "from": "0x84c29fb8b41f229ad09f4d68f84d676a28dc4a3a",
        "to": "0xd478f71086146539aad272f74aa7e73ee1ba9a4b",
        "gas": "0x1aab0",
        "value": "0x0",
        "input": "0x09824a80000000000000000000000000eed497b085113e8c3fc563935582a72f90bde528",
        "nonce": "0xdc",
        "chainId": "0x164ce"
      },
      "additionalContracts": [],
      "isFixedGasLimit": false
    },
    {
      "hash": "0xc0caf72a916625287b9169d2008e25c4e4c4ce10e15f6f9ed0a770a6915aa38a",
      "transactionType": "CALL",
      "contractName": null,
      "contractAddress": "0xeed497b085113e8c3fc563935582a72f90bde528",
      "function": "transfer(address,uint256)",
      "arguments": [
        "0xD478F71086146539Aad272f74aa7E73ee1ba9A4B",
        "100000000000000000000"
      ],
      "transaction": {
        "from": "0x84c29fb8b41f229ad09f4d68f84d676a28dc4a3a",
        "to": "0xeed497b085113e8c3fc563935582a72f90bde528",
        "gas": "0x10b81",
        "value": "0x0",
        "input": "0xa9059cbb000000000000000000000000d478f71086146539aad272f74aa7e73ee1ba9a4b0000000000000000000000000000000000000000000000056bc75e2d63100000",
        "nonce": "0xdd",
        "chainId": "0x164ce"
      },
      "additionalContracts": [],
      "isFixedGasLimit": false
    }
  ],
  "receipts": [
    {
      "type": "0x2",
      "status": "0x1",
      "cumulativeGasUsed": "0x1f5fa0",
      "logs": [],
      "logsBloom": "0x00000000000000000000000000000000000000000000000000000000000000000000000000000000000000000000000000000000000000000000000000000000000000000000000000000000000000000000000000000000000000000000000000000000000000000000000000000000000000000000000000000000000000000000000000000000000000000000000000000000000000000000000000000000000000000000000000000000000000000000000000000000000000000000000000000000000000000000000000000000000000000000000000000000000000000000000000000000000000000000000000000000000000000000000000000000",
      "transactionHash": "0x3a98634b6dc976a99dbb249fa5dadb85236a76db51b8c4ff65bd8a7a7f9bb015",
      "transactionIndex": "0x7",
      "blockHash": "0x80d5808d25631221f9199e05f8081cface7098eb285814294d8b4ce728b3d6e1",
      "blockNumber": "0x1ded812",
      "gasUsed": "0x125ed4",
      "effectiveGasPrice": "0xf433f",
      "blobGasUsed": "0xf8700",
      "from": "0x84c29fb8b41f229ad09f4d68f84d676a28dc4a3a",
      "to": null,
      "contractAddress": "0xd478f71086146539aad272f74aa7e73ee1ba9a4b"
    },
    {
      "type": "0x2",
      "status": "0x1",
      "cumulativeGasUsed": "0x246cb",
      "logs": [
        {
          "address": "0xd478f71086146539aad272f74aa7e73ee1ba9a4b",
          "topics": [
            "0x158412daecdc1456d01568828bcdb18464cc7f1ce0215ddbc3f3cfede9d1e63d",
            "0x00000000000000000000000005e894ce2c176dbc30176626efa24850af2af0e2"
          ],
          "data": "0x",
          "blockHash": "0xecc3fa82b9653c5384ed7b5aa17fd41619bf6d4519f8fa455322cd8575f633b5",
          "blockNumber": "0x1ded813",
          "blockTimestamp": "0x6a60c46f",
          "transactionHash": "0x7132a64eee87fbbe3c56c2605a48223ab49f450d3ce89ad54e4995d15854b23b",
          "transactionIndex": "0x1",
          "logIndex": "0x0",
          "removed": false
        }
      ],
      "logsBloom": "0x00010000000000000000000004000000000000000000000000000000000000000000000000200400000000000000000000000000000000000000000000000000000000000000000000008000000000000000000000000000000000000000000000000000000000000000000000000000000000000000000000000000000000020000000000000000000000000400000000000000000000000000000000000000000000000000000000000000000000000000000000000000000000000000000000000000000000000000000400000000000000000080000000000000000000000000000000000000000000000000000000000000000000000000000000000000",
      "transactionHash": "0x7132a64eee87fbbe3c56c2605a48223ab49f450d3ce89ad54e4995d15854b23b",
      "transactionIndex": "0x1",
      "blockHash": "0xecc3fa82b9653c5384ed7b5aa17fd41619bf6d4519f8fa455322cd8575f633b5",
      "blockNumber": "0x1ded813",
      "gasUsed": "0x1668d",
      "effectiveGasPrice": "0xf433f",
      "blobGasUsed": "0x9c40",
      "from": "0x84c29fb8b41f229ad09f4d68f84d676a28dc4a3a",
      "to": "0xd478f71086146539aad272f74aa7e73ee1ba9a4b",
      "contractAddress": null
    },
    {
      "type": "0x2",
      "status": "0x1",
      "cumulativeGasUsed": "0x2fdb4",
      "logs": [
        {
          "address": "0x05e894ce2c176dbc30176626efa24850af2af0e2",
          "topics": [
            "0xddf252ad1be2c89b69c2b068fc378daa952ba7f163c4a11628f55a4df523b3ef",
            "0x00000000000000000000000084c29fb8b41f229ad09f4d68f84d676a28dc4a3a",
            "0x000000000000000000000000d478f71086146539aad272f74aa7e73ee1ba9a4b"
          ],
          "data": "0x0000000000000000000000000000000000000000000000056bc75e2d63100000",
          "blockHash": "0xecc3fa82b9653c5384ed7b5aa17fd41619bf6d4519f8fa455322cd8575f633b5",
          "blockNumber": "0x1ded813",
          "blockTimestamp": "0x6a60c46f",
          "transactionHash": "0xe3319eb5c0a5f3376b8f68bb02a69200c3a683f3498b1e113ceb029c05dc1f7b",
          "transactionIndex": "0x2",
          "logIndex": "0x1",
          "removed": false
        }
      ],
      "logsBloom": "0x00000000000000000000000000800000000000000000000000000000000040000000000000000000000800000000000000000000000000000000000000000000000000000000000000000008100000000000000000000000000000000000000000000000000000000000000000000000000000000000000000010010000000000000000000000000000000000000000000000000000000000000000000000000800000000000000000000000000000000000000000000000000000000000000000000002000000000000000000000000000000000000000000000000000400000000000000000000000000000000000000200000000000400000000000000000",
      "transactionHash": "0xe3319eb5c0a5f3376b8f68bb02a69200c3a683f3498b1e113ceb029c05dc1f7b",
      "transactionIndex": "0x2",
      "blockHash": "0xecc3fa82b9653c5384ed7b5aa17fd41619bf6d4519f8fa455322cd8575f633b5",
      "blockNumber": "0x1ded813",
      "gasUsed": "0xb6e9",
      "effectiveGasPrice": "0xf433f",
      "blobGasUsed": "0x9c40",
      "from": "0x84c29fb8b41f229ad09f4d68f84d676a28dc4a3a",
      "to": "0x05e894ce2c176dbc30176626efa24850af2af0e2",
      "contractAddress": null
    },
    {
      "type": "0x2",
      "status": "0x1",
      "cumulativeGasUsed": "0x42169",
      "logs": [
        {
          "address": "0xd478f71086146539aad272f74aa7e73ee1ba9a4b",
          "topics": [
            "0x158412daecdc1456d01568828bcdb18464cc7f1ce0215ddbc3f3cfede9d1e63d",
            "0x00000000000000000000000000e8f81208a33bf516cd7dd46e7597dfb40f5a25"
          ],
          "data": "0x",
          "blockHash": "0xecc3fa82b9653c5384ed7b5aa17fd41619bf6d4519f8fa455322cd8575f633b5",
          "blockNumber": "0x1ded813",
          "blockTimestamp": "0x6a60c46f",
          "transactionHash": "0xa0c14092a9beda2190c76c20598020c06631d0a23b451a73d740ec991f9bb715",
          "transactionIndex": "0x3",
          "logIndex": "0x2",
          "removed": false
        }
      ],
      "logsBloom": "0x00010000000000000000000000000000000000000000000000000000000000000000000000000400000000000000000000000000000000000000000000000000000000000000000000008040000000000000000000000000000000000000000000000000000000000000000000040000000000000000000000000000000000020000000000000001000000000400000000000000000000000000000000000000000000000000000000000000000000000000000000000000000000000000000000000000000000000000000400000000000000000000000000000000000000000000000000000000000000000000000000000000000000000000000000000000",
      "transactionHash": "0xa0c14092a9beda2190c76c20598020c06631d0a23b451a73d740ec991f9bb715",
      "transactionIndex": "0x3",
      "blockHash": "0xecc3fa82b9653c5384ed7b5aa17fd41619bf6d4519f8fa455322cd8575f633b5",
      "blockNumber": "0x1ded813",
      "gasUsed": "0x123b5",
      "effectiveGasPrice": "0xf433f",
      "blobGasUsed": "0x9c40",
      "from": "0x84c29fb8b41f229ad09f4d68f84d676a28dc4a3a",
      "to": "0xd478f71086146539aad272f74aa7e73ee1ba9a4b",
      "contractAddress": null
    },
    {
      "type": "0x2",
      "status": "0x1",
      "cumulativeGasUsed": "0x4d846",
      "logs": [
        {
          "address": "0x00e8f81208a33bf516cd7dd46e7597dfb40f5a25",
          "topics": [
            "0xddf252ad1be2c89b69c2b068fc378daa952ba7f163c4a11628f55a4df523b3ef",
            "0x00000000000000000000000084c29fb8b41f229ad09f4d68f84d676a28dc4a3a",
            "0x000000000000000000000000d478f71086146539aad272f74aa7e73ee1ba9a4b"
          ],
          "data": "0x000000000000000000000000000000000000000000000004e1003b28d9280000",
          "blockHash": "0xecc3fa82b9653c5384ed7b5aa17fd41619bf6d4519f8fa455322cd8575f633b5",
          "blockNumber": "0x1ded813",
          "blockTimestamp": "0x6a60c46f",
          "transactionHash": "0xb1c621cb139007bb6352bfa4f6baf2efc8c792e04680035707b71fd4f594d93d",
          "transactionIndex": "0x4",
          "logIndex": "0x3",
          "removed": false
        }
      ],
      "logsBloom": "0x00000000000000000000000000000000000000000000000000000000000000000000000000000000000800000000000000000000000000000000000000000000000000000000000000000008108000000000000000000010000000000000000000000000000000000000000000000000000000000000000000010010000000000000000000000000000000000000000000000000000000000000000000000000800000000000000000000000000000000000000000000000000000000000000000000002000000000000000000000000000000000000000000000000002400000000000000000000000000000000000000200000000000000000000000000000",
      "transactionHash": "0xb1c621cb139007bb6352bfa4f6baf2efc8c792e04680035707b71fd4f594d93d",
      "transactionIndex": "0x4",
      "blockHash": "0xecc3fa82b9653c5384ed7b5aa17fd41619bf6d4519f8fa455322cd8575f633b5",
      "blockNumber": "0x1ded813",
      "gasUsed": "0xb6dd",
      "effectiveGasPrice": "0xf433f",
      "blobGasUsed": "0x9c40",
      "from": "0x84c29fb8b41f229ad09f4d68f84d676a28dc4a3a",
      "to": "0x00e8f81208a33bf516cd7dd46e7597dfb40f5a25",
      "contractAddress": null
    },
    {
      "type": "0x2",
      "status": "0x1",
      "cumulativeGasUsed": "0x5fc07",
      "logs": [
        {
          "address": "0xd478f71086146539aad272f74aa7e73ee1ba9a4b",
          "topics": [
            "0x158412daecdc1456d01568828bcdb18464cc7f1ce0215ddbc3f3cfede9d1e63d",
            "0x000000000000000000000000263a171641882db6b48210e1ea477db3d1d34509"
          ],
          "data": "0x",
          "blockHash": "0xecc3fa82b9653c5384ed7b5aa17fd41619bf6d4519f8fa455322cd8575f633b5",
          "blockNumber": "0x1ded813",
          "blockTimestamp": "0x6a60c46f",
          "transactionHash": "0x764b290b596e9abe04fee910d3dfc083176ce8645313eb6751b08cca05653d18",
          "transactionIndex": "0x5",
          "logIndex": "0x4",
          "removed": false
        }
      ],
      "logsBloom": "0x00010000000000000000100000000000000000000000000000000000000000000000000000000400000000000000000000000000000000000000000000000000000000000000000000008000000000000000000000000000000000000000000000000000000000000000000000000000000002000000000000000000000000020000000000000000000000000400000000000000000000000000000000000000000000000000000000000000000000000000000000000000000000000000000000000000000000000000000400000000000000000000000000000000000000000000008000000000000000000000000000000000000000000000000000000000",
      "transactionHash": "0x764b290b596e9abe04fee910d3dfc083176ce8645313eb6751b08cca05653d18",
      "transactionIndex": "0x5",
      "blockHash": "0xecc3fa82b9653c5384ed7b5aa17fd41619bf6d4519f8fa455322cd8575f633b5",
      "blockNumber": "0x1ded813",
      "gasUsed": "0x123c1",
      "effectiveGasPrice": "0xf433f",
      "blobGasUsed": "0x9c40",
      "from": "0x84c29fb8b41f229ad09f4d68f84d676a28dc4a3a",
      "to": "0xd478f71086146539aad272f74aa7e73ee1ba9a4b",
      "contractAddress": null
    },
    {
      "type": "0x2",
      "status": "0x1",
      "cumulativeGasUsed": "0x6b308",
      "logs": [
        {
          "address": "0x263a171641882db6b48210e1ea477db3d1d34509",
          "topics": [
            "0xddf252ad1be2c89b69c2b068fc378daa952ba7f163c4a11628f55a4df523b3ef",
            "0x00000000000000000000000084c29fb8b41f229ad09f4d68f84d676a28dc4a3a",
            "0x000000000000000000000000d478f71086146539aad272f74aa7e73ee1ba9a4b"
          ],
          "data": "0x000000000000000000000000000000000000000000000005f62068e52013a40e",
          "blockHash": "0xecc3fa82b9653c5384ed7b5aa17fd41619bf6d4519f8fa455322cd8575f633b5",
          "blockNumber": "0x1ded813",
          "blockTimestamp": "0x6a60c46f",
          "transactionHash": "0x13a4d703648bac27f1864d1dd5a34473dee844657943497b37d2fdca9796e473",
          "transactionIndex": "0x6",
          "logIndex": "0x5",
          "removed": false
        }
      ],
      "logsBloom": "0x00000000000000000008000000000000000000000008000000000000000000000000000000000000000800000000000000000000000000000000000000000000000000000000000000000008100000000000000000000000000000000000000000000000000000000000000000000000000000000000000000010010000000000000000000000000000000000000000000000000000000000000000000000000800000000000000000000000000000000000000000000000000000000000000000000002000000000000000000000000000000000000000000000000000400000200000000000000000000000000000000200000000000000000000000000000",
      "transactionHash": "0x13a4d703648bac27f1864d1dd5a34473dee844657943497b37d2fdca9796e473",
      "transactionIndex": "0x6",
      "blockHash": "0xecc3fa82b9653c5384ed7b5aa17fd41619bf6d4519f8fa455322cd8575f633b5",
      "blockNumber": "0x1ded813",
      "gasUsed": "0xb701",
      "effectiveGasPrice": "0xf433f",
      "blobGasUsed": "0x9c40",
      "from": "0x84c29fb8b41f229ad09f4d68f84d676a28dc4a3a",
      "to": "0x263a171641882db6b48210e1ea477db3d1d34509",
      "contractAddress": null
    },
    {
      "type": "0x2",
      "status": "0x1",
      "cumulativeGasUsed": "0x7d6c9",
      "logs": [
        {
          "address": "0xd478f71086146539aad272f74aa7e73ee1ba9a4b",
          "topics": [
            "0x158412daecdc1456d01568828bcdb18464cc7f1ce0215ddbc3f3cfede9d1e63d",
            "0x00000000000000000000000082868da66735fcd28185b9befa9ff2aee4ba3fb8"
          ],
          "data": "0x",
          "blockHash": "0xecc3fa82b9653c5384ed7b5aa17fd41619bf6d4519f8fa455322cd8575f633b5",
          "blockNumber": "0x1ded813",
          "blockTimestamp": "0x6a60c46f",
          "transactionHash": "0x5ca90a77f8f1482d6b198421780d79ff695451c366118c505d4e0b0211f9e16a",
          "transactionIndex": "0x7",
          "logIndex": "0x6",
          "removed": false
        }
      ],
      "logsBloom": "0x00010000000000000000000000000000000000000000000000000000000000000000000000000400000000000000000000000000000000002000000000000000000000000000000000008000000000000000000000000000000000000000000000000000000000000000000000000000000000000000000000000000000000020000000000000000000000000404000000000000000000000000000000000000000000000000000000000000000000000000000000000000000000000000000000000000000000000000000400000000100000000000000000000000000000000000000000000000000000000000000000000000000000000000000000000000",
      "transactionHash": "0x5ca90a77f8f1482d6b198421780d79ff695451c366118c505d4e0b0211f9e16a",
      "transactionIndex": "0x7",
      "blockHash": "0xecc3fa82b9653c5384ed7b5aa17fd41619bf6d4519f8fa455322cd8575f633b5",
      "blockNumber": "0x1ded813",
      "gasUsed": "0x123c1",
      "effectiveGasPrice": "0xf433f",
      "blobGasUsed": "0x9c40",
      "from": "0x84c29fb8b41f229ad09f4d68f84d676a28dc4a3a",
      "to": "0xd478f71086146539aad272f74aa7e73ee1ba9a4b",
      "contractAddress": null
    },
    {
      "type": "0x2",
      "status": "0x1",
      "cumulativeGasUsed": "0x88db2",
      "logs": [
        {
          "address": "0x82868da66735fcd28185b9befa9ff2aee4ba3fb8",
          "topics": [
            "0xddf252ad1be2c89b69c2b068fc378daa952ba7f163c4a11628f55a4df523b3ef",
            "0x00000000000000000000000084c29fb8b41f229ad09f4d68f84d676a28dc4a3a",
            "0x000000000000000000000000d478f71086146539aad272f74aa7e73ee1ba9a4b"
          ],
          "data": "0x0000000000000000000000000000000000000000000000056bc75e2d63100000",
          "blockHash": "0xecc3fa82b9653c5384ed7b5aa17fd41619bf6d4519f8fa455322cd8575f633b5",
          "blockNumber": "0x1ded813",
          "blockTimestamp": "0x6a60c46f",
          "transactionHash": "0xd89b9b4df9d0cb73070efa4facc900394f95672bfb6dd578fb48538d7643a6d8",
          "transactionIndex": "0x8",
          "logIndex": "0x7",
          "removed": false
        }
      ],
      "logsBloom": "0x00000000000000000000000000000000000000000000000000000000000000000000000000000000000800000000000000000000000000000000000000000000000000000000000000000008100000000000000000000000000000000000000000000000000000000000000000000000000000000000000000010010000000000000000000000000040000000000000000000000000000000000000000000000801000000000000000000000000000000000000000000000000000000000000004000002000000000000000000000000000000000000000000000000000400000000000000000000000000000000000000200000000000000000000000000000",
      "transactionHash": "0xd89b9b4df9d0cb73070efa4facc900394f95672bfb6dd578fb48538d7643a6d8",
      "transactionIndex": "0x8",
      "blockHash": "0xecc3fa82b9653c5384ed7b5aa17fd41619bf6d4519f8fa455322cd8575f633b5",
      "blockNumber": "0x1ded813",
      "gasUsed": "0xb6e9",
      "effectiveGasPrice": "0xf433f",
      "blobGasUsed": "0x9c40",
      "from": "0x84c29fb8b41f229ad09f4d68f84d676a28dc4a3a",
      "to": "0x82868da66735fcd28185b9befa9ff2aee4ba3fb8",
      "contractAddress": null
    },
    {
      "type": "0x2",
      "status": "0x1",
      "cumulativeGasUsed": "0x9b173",
      "logs": [
        {
          "address": "0xd478f71086146539aad272f74aa7e73ee1ba9a4b",
          "topics": [
            "0x158412daecdc1456d01568828bcdb18464cc7f1ce0215ddbc3f3cfede9d1e63d",
            "0x000000000000000000000000eed497b085113e8c3fc563935582a72f90bde528"
          ],
          "data": "0x",
          "blockHash": "0xecc3fa82b9653c5384ed7b5aa17fd41619bf6d4519f8fa455322cd8575f633b5",
          "blockNumber": "0x1ded813",
          "blockTimestamp": "0x6a60c46f",
          "transactionHash": "0xc0caf72a916625287b9169d2008e25c4e4c4ce10e15f6f9ed0a770a6915aa38a",
          "transactionIndex": "0x9",
          "logIndex": "0x8",
          "removed": false
        }
      ],
      "logsBloom": "0x00010000000000000000000000000000000000000000000000000000000000000000000000000400000000000000000000000000000000080000000000000000000000000000000000008000000000000000000000000000000000000000000000000008000000000000000000000000000000000000000000000000000000020000000000000000000000000400000000000000000000000000000000000000000000000000000000000000000000000000000000040000000000000000000000000000000000000000000400000000000000000000000000000000000000000000000000000000000000000000000000000000000000000000000000000000",
      "transactionHash": "0xc0caf72a916625287b9169d2008e25c4e4c4ce10e15f6f9ed0a770a6915aa38a",
      "transactionIndex": "0x9",
      "blockHash": "0xecc3fa82b9653c5384ed7b5aa17fd41619bf6d4519f8fa455322cd8575f633b5",
      "blockNumber": "0x1ded813",
      "gasUsed": "0x123c1",
      "effectiveGasPrice": "0xf433f",
      "blobGasUsed": "0x9c40",
      "from": "0x84c29fb8b41f229ad09f4d68f84d676a28dc4a3a",
      "to": "0xd478f71086146539aad272f74aa7e73ee1ba9a4b",
      "contractAddress": null
    },
    {
      "type": "0x2",
      "status": "0x1",
      "cumulativeGasUsed": "0xa685c",
      "logs": [
        {
          "address": "0xeed497b085113e8c3fc563935582a72f90bde528",
          "topics": [
            "0xddf252ad1be2c89b69c2b068fc378daa952ba7f163c4a11628f55a4df523b3ef",
            "0x00000000000000000000000084c29fb8b41f229ad09f4d68f84d676a28dc4a3a",
            "0x000000000000000000000000d478f71086146539aad272f74aa7e73ee1ba9a4b"
          ],
          "data": "0x0000000000000000000000000000000000000000000000056bc75e2d63100000",
          "blockHash": "0xecc3fa82b9653c5384ed7b5aa17fd41619bf6d4519f8fa455322cd8575f633b5",
          "blockNumber": "0x1ded813",
          "blockTimestamp": "0x6a60c46f",
          "transactionHash": "0x69c197e5bda0d29b6cf8158ec59718cd1468592a49faff92c632e42827e79f1a",
          "transactionIndex": "0xa",
          "logIndex": "0x9",
          "removed": false
        }
      ],
      "logsBloom": "0x00000000000000000000000000000000000000000000000000000000000000000000000000000000000800000000000000000000080000000002000000000000000000000000000000000008100000000000000000000000000000000000000000000000000000000000000000000000000000000010000000010010000000000000000000000000000000000000000000000000000000000000000000000000800000000000000000000000000000000000000000000000000000000000000000000002000000000000000000000000000000000000000000000000000400000000000000000000000000000000000000200000000000000000000000000000",
      "transactionHash": "0x69c197e5bda0d29b6cf8158ec59718cd1468592a49faff92c632e42827e79f1a",
      "transactionIndex": "0xa",
      "blockHash": "0xecc3fa82b9653c5384ed7b5aa17fd41619bf6d4519f8fa455322cd8575f633b5",
      "blockNumber": "0x1ded813",
      "gasUsed": "0xb6e9",
      "effectiveGasPrice": "0xf433f",
      "blobGasUsed": "0x9c40",
      "from": "0x84c29fb8b41f229ad09f4d68f84d676a28dc4a3a",
      "to": "0xeed497b085113e8c3fc563935582a72f90bde528",
      "contractAddress": null
    }
  ],
  "libraries": [],
  "pending": [],
  "returns": {},
  "timestamp": 1784726640508,
  "chain": 91342,
  "commit": "2014252"
}