{
  "transactions": [
    {
      "hash": "0x5eb946d5ccce9162915b9461322ea20696285adb814d12b1b94f6192ceb7a30c",
      "transactionType": "CALL",
      "contractName": null,
      "contractAddress": "0x05e894ce2c176dbc30176626efa24850af2af0e2",
      "function": "approve(address,uint256)",
      "arguments": [
        "0x5095Bff088BcECf56476DcEAAE45c52351b6EF2B",
        "100000000000000000000000"
      ],
      "transaction": {
        "from": "0x84c29fb8b41f229ad09f4d68f84d676a28dc4a3a",
        "to": "0x05e894ce2c176dbc30176626efa24850af2af0e2",
        "gas": "0xa754",
        "value": "0x0",
        "input": "0x095ea7b30000000000000000000000005095bff088bcecf56476dceaae45c52351b6ef2b00000000000000000000000000000000000000000000152d02c7e14af6800000",
        "nonce": "0x42",
        "chainId": "0x164ce"
      },
      "additionalContracts": [],
      "isFixedGasLimit": false
    },
    {
      "hash": "0x2cde64b9b21823d5349f86028d3bd6137ed4db80e8f1e1490a38b5cc8a6e4233",
      "transactionType": "CALL",
      "contractName": null,
      "contractAddress": "0x00e8f81208a33bf516cd7dd46e7597dfb40f5a25",
      "function": "approve(address,uint256)",
      "arguments": [
        "0x5095Bff088BcECf56476DcEAAE45c52351b6EF2B",
        "100000000000000000000000"
      ],
      "transaction": {
        "from": "0x84c29fb8b41f229ad09f4d68f84d676a28dc4a3a",
        "to": "0x00e8f81208a33bf516cd7dd46e7597dfb40f5a25",
        "gas": "0xfa4b",
        "value": "0x0",
        "input": "0x095ea7b30000000000000000000000005095bff088bcecf56476dceaae45c52351b6ef2b00000000000000000000000000000000000000000000152d02c7e14af6800000",
        "nonce": "0x43",
        "chainId": "0x164ce"
      },
      "additionalContracts": [],
      "isFixedGasLimit": false
    },
    {
      "hash": "0xaba2524df7b63fe90a4f182fc9f35fe3cd591ed2d0bc185c217963423b880e61",
      "transactionType": "CALL",
      "contractName": null,
      "contractAddress": "0x5095bff088bcecf56476dceaae45c52351b6ef2b",
      "function": "addLiquidity(address,address,uint256,uint256)",
      "arguments": [
        "0x05E894cE2C176Dbc30176626efa24850aF2af0e2",
        "0x00E8F81208A33BF516cD7Dd46e7597dFB40F5a25",
        "100000000000000000000000",
        "100000000000000000000000"
      ],
      "transaction": {
        "from": "0x84c29fb8b41f229ad09f4d68f84d676a28dc4a3a",
        "to": "0x5095bff088bcecf56476dceaae45c52351b6ef2b",
        "gas": "0x169df",
        "value": "0x0",
        "input": "0xcf6c62ea00000000000000000000000005e894ce2c176dbc30176626efa24850af2af0e200000000000000000000000000e8f81208a33bf516cd7dd46e7597dfb40f5a2500000000000000000000000000000000000000000000152d02c7e14af680000000000000000000000000000000000000000000000000152d02c7e14af6800000",
        "nonce": "0x44",
        "chainId": "0x164ce"
      },
      "additionalContracts": [],
      "isFixedGasLimit": false
    },
    {
      "hash": "0x7c322e9a48959a1821184459df5142ed3d7698d429cdab6e79631bcc01bf0df0",
      "transactionType": "CALL",
      "contractName": null,
      "contractAddress": "0x05e894ce2c176dbc30176626efa24850af2af0e2",
      "function": "approve(address,uint256)",
      "arguments": [
        "0x5095Bff088BcECf56476DcEAAE45c52351b6EF2B",
        "100000000000000000000000"
      ],
      "transaction": {
        "from": "0x84c29fb8b41f229ad09f4d68f84d676a28dc4a3a",
        "to": "0x05e894ce2c176dbc30176626efa24850af2af0e2",
        "gas": "0xfa4b",
        "value": "0x0",
        "input": "0x095ea7b30000000000000000000000005095bff088bcecf56476dceaae45c52351b6ef2b00000000000000000000000000000000000000000000152d02c7e14af6800000",
        "nonce": "0x45",
        "chainId": "0x164ce"
      },
      "additionalContracts": [],
      "isFixedGasLimit": false
    },
    {
      "hash": "0x7d5e147f899217df5701a0632b0aa8273723e9655b3146a41cecfadfdfbf1048",
      "transactionType": "CALL",
      "contractName": null,
      "contractAddress": "0x263a171641882db6b48210e1ea477db3d1d34509",
      "function": "approve(address,uint256)",
      "arguments": [
        "0x5095Bff088BcECf56476DcEAAE45c52351b6EF2B",
        "100000000000000000000000"
      ],
      "transaction": {
        "from": "0x84c29fb8b41f229ad09f4d68f84d676a28dc4a3a",
        "to": "0x263a171641882db6b48210e1ea477db3d1d34509",
        "gas": "0xfa4b",
        "value": "0x0",
        "input": "0x095ea7b30000000000000000000000005095bff088bcecf56476dceaae45c52351b6ef2b00000000000000000000000000000000000000000000152d02c7e14af6800000",
        "nonce": "0x46",
        "chainId": "0x164ce"
      },
      "additionalContracts": [],
      "isFixedGasLimit": false
    },
    {
      "hash": "0xce3fa1a59d154bf70d97c5dd826cfd1c1d1d764b1dd860dc47de20aca5087b6a",
      "transactionType": "CALL",
      "contractName": null,
      "contractAddress": "0x5095bff088bcecf56476dceaae45c52351b6ef2b",
      "function": "addLiquidity(address,address,uint256,uint256)",
      "arguments": [
        "0x05E894cE2C176Dbc30176626efa24850aF2af0e2",
        "0x263a171641882Db6b48210E1ea477DB3D1d34509",
        "100000000000000000000000",
        "100000000000000000000000"
      ],
      "transaction": {
        "from": "0x84c29fb8b41f229ad09f4d68f84d676a28dc4a3a",
        "to": "0x5095bff088bcecf56476dceaae45c52351b6ef2b",
        "gas": "0x169f5",
        "value": "0x0",
        "input": "0xcf6c62ea00000000000000000000000005e894ce2c176dbc30176626efa24850af2af0e2000000000000000000000000263a171641882db6b48210e1ea477db3d1d3450900000000000000000000000000000000000000000000152d02c7e14af680000000000000000000000000000000000000000000000000152d02c7e14af6800000",
        "nonce": "0x47",
        "chainId": "0x164ce"
      },
      "additionalContracts": [],
      "isFixedGasLimit": false
    },
    {
      "hash": "0x6bf6ea95f94516191087c6108f23943a89412e3c86b91841f54c679f8d2b7c85",
      "transactionType": "CALL",
      "contractName": null,
      "contractAddress": "0x05e894ce2c176dbc30176626efa24850af2af0e2",
      "function": "approve(address,uint256)",
      "arguments": [
        "0x5095Bff088BcECf56476DcEAAE45c52351b6EF2B",
        "100000000000000000000000"
      ],
      "transaction": {
        "from": "0x84c29fb8b41f229ad09f4d68f84d676a28dc4a3a",
        "to": "0x05e894ce2c176dbc30176626efa24850af2af0e2",
        "gas": "0xfa4b",
        "value": "0x0",
        "input": "0x095ea7b30000000000000000000000005095bff088bcecf56476dceaae45c52351b6ef2b00000000000000000000000000000000000000000000152d02c7e14af6800000",
        "nonce": "0x48",
        "chainId": "0x164ce"
      },
      "additionalContracts": [],
      "isFixedGasLimit": false
    },
    {
      "hash": "0xee347f514abdf855116980b2bbe3809bfac2ce97a24fdfd25fe2ded89119a0d1",
      "transactionType": "CALL",
      "contractName": null,
      "contractAddress": "0x82868da66735fcd28185b9befa9ff2aee4ba3fb8",
      "function": "approve(address,uint256)",
      "arguments": [
        "0x5095Bff088BcECf56476DcEAAE45c52351b6EF2B",
        "100000000000000000000000"
      ],
      "transaction": {
        "from": "0x84c29fb8b41f229ad09f4d68f84d676a28dc4a3a",
        "to": "0x82868da66735fcd28185b9befa9ff2aee4ba3fb8",
        "gas": "0xfa4b",
        "value": "0x0",
        "input": "0x095ea7b30000000000000000000000005095bff088bcecf56476dceaae45c52351b6ef2b00000000000000000000000000000000000000000000152d02c7e14af6800000",
        "nonce": "0x49",
        "chainId": "0x164ce"
      },
      "additionalContracts": [],
      "isFixedGasLimit": false
    },
    {
      "hash": "0x36a0dcd00cbd03eb71e2288997701bd4f291941c2f995b4eee351c6b20713ee5",
      "transactionType": "CALL",
      "contractName": null,
      "contractAddress": "0x5095bff088bcecf56476dceaae45c52351b6ef2b",
      "function": "addLiquidity(address,address,uint256,uint256)",
      "arguments": [
        "0x05E894cE2C176Dbc30176626efa24850aF2af0e2",
        "0x82868dA66735FCD28185b9BEFa9fF2AeE4BA3FB8",
        "100000000000000000000000",
        "100000000000000000000000"
      ],
      "transaction": {
        "from": "0x84c29fb8b41f229ad09f4d68f84d676a28dc4a3a",
        "to": "0x5095bff088bcecf56476dceaae45c52351b6ef2b",
        "gas": "0x169f5",
        "value": "0x0",
        "input": "0xcf6c62ea00000000000000000000000005e894ce2c176dbc30176626efa24850af2af0e200000000000000000000000082868da66735fcd28185b9befa9ff2aee4ba3fb800000000000000000000000000000000000000000000152d02c7e14af680000000000000000000000000000000000000000000000000152d02c7e14af6800000",
        "nonce": "0x4a",
        "chainId": "0x164ce"
      },
      "additionalContracts": [],
      "isFixedGasLimit": false
    },
    {
      "hash": "0xd8374d4048b533936d887f07c7fabd0e345cef5327198baa0d48d2f675e0d247",
      "transactionType": "CALL",
      "contractName": null,
      "contractAddress": "0x05e894ce2c176dbc30176626efa24850af2af0e2",
      "function": "approve(address,uint256)",
      "arguments": [
        "0x5095Bff088BcECf56476DcEAAE45c52351b6EF2B",
        "100000000000000000000000"
      ],
      "transaction": {
        "from": "0x84c29fb8b41f229ad09f4d68f84d676a28dc4a3a",
        "to": "0x05e894ce2c176dbc30176626efa24850af2af0e2",
        "gas": "0xfa4b",
        "value": "0x0",
        "input": "0x095ea7b30000000000000000000000005095bff088bcecf56476dceaae45c52351b6ef2b00000000000000000000000000000000000000000000152d02c7e14af6800000",
        "nonce": "0x4b",
        "chainId": "0x164ce"
      },
      "additionalContracts": [],
      "isFixedGasLimit": false
    },
    {
      "hash": "0x6d0e04b8d90850c36ef442837d7137ffe420d51fb6dbacbcfa8cf012ab328d97",
      "transactionType": "CALL",
      "contractName": null,
      "contractAddress": "0xeed497b085113e8c3fc563935582a72f90bde528",
      "function": "approve(address,uint256)",
      "arguments": [
        "0x5095Bff088BcECf56476DcEAAE45c52351b6EF2B",
        "100000000000000000000000"
      ],
      "transaction": {
        "from": "0x84c29fb8b41f229ad09f4d68f84d676a28dc4a3a",
        "to": "0xeed497b085113e8c3fc563935582a72f90bde528",
        "gas": "0xfa4b",
        "value": "0x0",
        "input": "0x095ea7b30000000000000000000000005095bff088bcecf56476dceaae45c52351b6ef2b00000000000000000000000000000000000000000000152d02c7e14af6800000",
        "nonce": "0x4c",
        "chainId": "0x164ce"
      },
      "additionalContracts": [],
      "isFixedGasLimit": false
    },
    {
      "hash": "0x0eb9adc098fdf51e119ae42b9e43cc30b6f424e1f32aa524a8fde91313b0181f",
      "transactionType": "CALL",
      "contractName": null,
      "contractAddress": "0x5095bff088bcecf56476dceaae45c52351b6ef2b",
      "function": "addLiquidity(address,address,uint256,uint256)",
      "arguments": [
        "0x05E894cE2C176Dbc30176626efa24850aF2af0e2",
        "0xEEd497B085113e8C3FC563935582a72F90BdE528",
        "100000000000000000000000",
        "100000000000000000000000"
      ],
      "transaction": {
        "from": "0x84c29fb8b41f229ad09f4d68f84d676a28dc4a3a",
        "to": "0x5095bff088bcecf56476dceaae45c52351b6ef2b",
        "gas": "0x169f5",
        "value": "0x0",
        "input": "0xcf6c62ea00000000000000000000000005e894ce2c176dbc30176626efa24850af2af0e2000000000000000000000000eed497b085113e8c3fc563935582a72f90bde52800000000000000000000000000000000000000000000152d02c7e14af680000000000000000000000000000000000000000000000000152d02c7e14af6800000",
        "nonce": "0x4d",
        "chainId": "0x164ce"
      },
      "additionalContracts": [],
      "isFixedGasLimit": false
    },
    {
      "hash": "0xb85d85b09aec915a7a72edd438e9fb65d989788fe33b55ee947bfb2a1ce62c74",
      "transactionType": "CALL",
      "contractName": null,
      "contractAddress": "0x00e8f81208a33bf516cd7dd46e7597dfb40f5a25",
      "function": "approve(address,uint256)",
      "arguments": [
        "0x5095Bff088BcECf56476DcEAAE45c52351b6EF2B",
        "100000000000000000000000"
      ],
      "transaction": {
        "from": "0x84c29fb8b41f229ad09f4d68f84d676a28dc4a3a",
        "to": "0x00e8f81208a33bf516cd7dd46e7597dfb40f5a25",
        "gas": "0xfa4b",
        "value": "0x0",
        "input": "0x095ea7b30000000000000000000000005095bff088bcecf56476dceaae45c52351b6ef2b00000000000000000000000000000000000000000000152d02c7e14af6800000",
        "nonce": "0x4e",
        "chainId": "0x164ce"
      },
      "additionalContracts": [],
      "isFixedGasLimit": false
    },
    {
      "hash": "0x36ec214a0f08f603fb897f56bec42d216187dd453c2fff9b7ff207ae6264724c",
      "transactionType": "CALL",
      "contractName": null,
      "contractAddress": "0x263a171641882db6b48210e1ea477db3d1d34509",
      "function": "approve(address,uint256)",
      "arguments": [
        "0x5095Bff088BcECf56476DcEAAE45c52351b6EF2B",
        "100000000000000000000000"
      ],
      "transaction": {
        "from": "0x84c29fb8b41f229ad09f4d68f84d676a28dc4a3a",
        "to": "0x263a171641882db6b48210e1ea477db3d1d34509",
        "gas": "0xfa4b",
        "value": "0x0",
        "input": "0x095ea7b30000000000000000000000005095bff088bcecf56476dceaae45c52351b6ef2b00000000000000000000000000000000000000000000152d02c7e14af6800000",
        "nonce": "0x4f",
        "chainId": "0x164ce"
      },
      "additionalContracts": [],
      "isFixedGasLimit": false
    },
    {
      "hash": "0x4c402a16004e364db4861ecf07d208a935ee2355248c890bf5da43004919974f",
      "transactionType": "CALL",
      "contractName": null,
      "contractAddress": "0x5095bff088bcecf56476dceaae45c52351b6ef2b",
      "function": "addLiquidity(address,address,uint256,uint256)",
      "arguments": [
        "0x00E8F81208A33BF516cD7Dd46e7597dFB40F5a25",
        "0x263a171641882Db6b48210E1ea477DB3D1d34509",
        "100000000000000000000000",
        "100000000000000000000000"
      ],
      "transaction": {
        "from": "0x84c29fb8b41f229ad09f4d68f84d676a28dc4a3a",
        "to": "0x5095bff088bcecf56476dceaae45c52351b6ef2b",
        "gas": "0x17f2f",
        "value": "0x0",
        "input": "0xcf6c62ea00000000000000000000000000e8f81208a33bf516cd7dd46e7597dfb40f5a25000000000000000000000000263a171641882db6b48210e1ea477db3d1d3450900000000000000000000000000000000000000000000152d02c7e14af680000000000000000000000000000000000000000000000000152d02c7e14af6800000",
        "nonce": "0x50",
        "chainId": "0x164ce"
      },
      "additionalContracts": [],
      "isFixedGasLimit": false
    },
    {
      "hash": "0x34a61106b55d3a491eeaf08576f031da14d83e5650d255874fc247a33391ea90",
      "transactionType": "CALL",
      "contractName": null,
      "contractAddress": "0x00e8f81208a33bf516cd7dd46e7597dfb40f5a25",
      "function": "approve(address,uint256)",
      "arguments": [
        "0x5095Bff088BcECf56476DcEAAE45c52351b6EF2B",
        "100000000000000000000000"
      ],
      "transaction": {
        "from": "0x84c29fb8b41f229ad09f4d68f84d676a28dc4a3a",
        "to": "0x00e8f81208a33bf516cd7dd46e7597dfb40f5a25",
        "gas": "0xfa4b",
        "value": "0x0",
        "input": "0x095ea7b30000000000000000000000005095bff088bcecf56476dceaae45c52351b6ef2b00000000000000000000000000000000000000000000152d02c7e14af6800000",
        "nonce": "0x51",
        "chainId": "0x164ce"
      },
      "additionalContracts": [],
      "isFixedGasLimit": false
    },
    {
      "hash": "0xf68407b34ef2bc9c8bfb20d451bfabaf24450be7a7b9cda978dea05a36c5d87e",
      "transactionType": "CALL",
      "contractName": null,
      "contractAddress": "0x82868da66735fcd28185b9befa9ff2aee4ba3fb8",
      "function": "approve(address,uint256)",
      "arguments": [
        "0x5095Bff088BcECf56476DcEAAE45c52351b6EF2B",
        "100000000000000000000000"
      ],
      "transaction": {
        "from": "0x84c29fb8b41f229ad09f4d68f84d676a28dc4a3a",
        "to": "0x82868da66735fcd28185b9befa9ff2aee4ba3fb8",
        "gas": "0xfa4b",
        "value": "0x0",
        "input": "0x095ea7b30000000000000000000000005095bff088bcecf56476dceaae45c52351b6ef2b00000000000000000000000000000000000000000000152d02c7e14af6800000",
        "nonce": "0x52",
        "chainId": "0x164ce"
      },
      "additionalContracts": [],
      "isFixedGasLimit": false
    },
    {
      "hash": "0x6c1c4b5f476b6d97c8985dfa4ae75355252d8b188bf5053cbbdb4fca25b989f6",
      "transactionType": "CALL",
      "contractName": null,
      "contractAddress": "0x5095bff088bcecf56476dceaae45c52351b6ef2b",
      "function": "addLiquidity(address,address,uint256,uint256)",
      "arguments": [
        "0x00E8F81208A33BF516cD7Dd46e7597dFB40F5a25",
        "0x82868dA66735FCD28185b9BEFa9fF2AeE4BA3FB8",
        "100000000000000000000000",
        "100000000000000000000000"
      ],
      "transaction": {
        "from": "0x84c29fb8b41f229ad09f4d68f84d676a28dc4a3a",
        "to": "0x5095bff088bcecf56476dceaae45c52351b6ef2b",
        "gas": "0x17f2f",
        "value": "0x0",
        "input": "0xcf6c62ea00000000000000000000000000e8f81208a33bf516cd7dd46e7597dfb40f5a2500000000000000000000000082868da66735fcd28185b9befa9ff2aee4ba3fb800000000000000000000000000000000000000000000152d02c7e14af680000000000000000000000000000000000000000000000000152d02c7e14af6800000",
        "nonce": "0x53",
        "chainId": "0x164ce"
      },
      "additionalContracts": [],
      "isFixedGasLimit": false
    },
    {
      "hash": "0x44b5b216327d3e82e81d7769403c4bf638d634bd76e7f081515eeb52ee1ec22c",
      "transactionType": "CALL",
      "contractName": null,
      "contractAddress": "0x00e8f81208a33bf516cd7dd46e7597dfb40f5a25",
      "function": "approve(address,uint256)",
      "arguments": [
        "0x5095Bff088BcECf56476DcEAAE45c52351b6EF2B",
        "100000000000000000000000"
      ],
      "transaction": {
        "from": "0x84c29fb8b41f229ad09f4d68f84d676a28dc4a3a",
        "to": "0x00e8f81208a33bf516cd7dd46e7597dfb40f5a25",
        "gas": "0xfa4b",
        "value": "0x0",
        "input": "0x095ea7b30000000000000000000000005095bff088bcecf56476dceaae45c52351b6ef2b00000000000000000000000000000000000000000000152d02c7e14af6800000",
        "nonce": "0x54",
        "chainId": "0x164ce"
      },
      "additionalContracts": [],
      "isFixedGasLimit": false
    },
    {
      "hash": "0x6fdab071371c1a95cd48fe92b1ca33bf7a028b6caf241863000f51181cf314af",
      "transactionType": "CALL",
      "contractName": null,
      "contractAddress": "0xeed497b085113e8c3fc563935582a72f90bde528",
      "function": "approve(address,uint256)",
      "arguments": [
        "0x5095Bff088BcECf56476DcEAAE45c52351b6EF2B",
        "100000000000000000000000"
      ],
      "transaction": {
        "from": "0x84c29fb8b41f229ad09f4d68f84d676a28dc4a3a",
        "to": "0xeed497b085113e8c3fc563935582a72f90bde528",
        "gas": "0xfa4b",
        "value": "0x0",
        "input": "0x095ea7b30000000000000000000000005095bff088bcecf56476dceaae45c52351b6ef2b00000000000000000000000000000000000000000000152d02c7e14af6800000",
        "nonce": "0x55",
        "chainId": "0x164ce"
      },
      "additionalContracts": [],
      "isFixedGasLimit": false
    },
    {
      "hash": "0x62571f5a831551596adc5a035fdb3216fb5bfbf53573dc901908b1e1d3702d04",
      "transactionType": "CALL",
      "contractName": null,
      "contractAddress": "0x5095bff088bcecf56476dceaae45c52351b6ef2b",
      "function": "addLiquidity(address,address,uint256,uint256)",
      "arguments": [
        "0x00E8F81208A33BF516cD7Dd46e7597dFB40F5a25",
        "0xEEd497B085113e8C3FC563935582a72F90BdE528",
        "100000000000000000000000",
        "100000000000000000000000"
      ],
      "transaction": {
        "from": "0x84c29fb8b41f229ad09f4d68f84d676a28dc4a3a",
        "to": "0x5095bff088bcecf56476dceaae45c52351b6ef2b",
        "gas": "0x17f2f",
        "value": "0x0",
        "input": "0xcf6c62ea00000000000000000000000000e8f81208a33bf516cd7dd46e7597dfb40f5a25000000000000000000000000eed497b085113e8c3fc563935582a72f90bde52800000000000000000000000000000000000000000000152d02c7e14af680000000000000000000000000000000000000000000000000152d02c7e14af6800000",
        "nonce": "0x56",
        "chainId": "0x164ce"
      },
      "additionalContracts": [],
      "isFixedGasLimit": false
    },
    {
      "hash": "0x81a6f8249f4598df9344234d8e596804737d560449b41ca002b34d9479135d27",
      "transactionType": "CALL",
      "contractName": null,
      "contractAddress": "0x263a171641882db6b48210e1ea477db3d1d34509",
      "function": "approve(address,uint256)",
      "arguments": [
        "0x5095Bff088BcECf56476DcEAAE45c52351b6EF2B",
        "100000000000000000000000"
      ],
      "transaction": {
        "from": "0x84c29fb8b41f229ad09f4d68f84d676a28dc4a3a",
        "to": "0x263a171641882db6b48210e1ea477db3d1d34509",
        "gas": "0xfa4b",
        "value": "0x0",
        "input": "0x095ea7b30000000000000000000000005095bff088bcecf56476dceaae45c52351b6ef2b00000000000000000000000000000000000000000000152d02c7e14af6800000",
        "nonce": "0x57",
        "chainId": "0x164ce"
      },
      "additionalContracts": [],
      "isFixedGasLimit": false
    },
    {
      "hash": "0xc4b360210535d3cf3b42345112d2d3c3c2a2d933bc7e06c269309551dc694747",
      "transactionType": "CALL",
      "contractName": null,
      "contractAddress": "0x82868da66735fcd28185b9befa9ff2aee4ba3fb8",
      "function": "approve(address,uint256)",
      "arguments": [
        "0x5095Bff088BcECf56476DcEAAE45c52351b6EF2B",
        "100000000000000000000000"
      ],
      "transaction": {
        "from": "0x84c29fb8b41f229ad09f4d68f84d676a28dc4a3a",
        "to": "0x82868da66735fcd28185b9befa9ff2aee4ba3fb8",
        "gas": "0xfa4b",
        "value": "0x0",
        "input": "0x095ea7b30000000000000000000000005095bff088bcecf56476dceaae45c52351b6ef2b00000000000000000000000000000000000000000000152d02c7e14af6800000",
        "nonce": "0x58",
        "chainId": "0x164ce"
      },
      "additionalContracts": [],
      "isFixedGasLimit": false
    },
    {
      "hash": "0x56660e0f5e5f2b6d8e87d47c7cf36cd9107a5ec76127c95af6367593ca0f2f1c",
      "transactionType": "CALL",
      "contractName": null,
      "contractAddress": "0x5095bff088bcecf56476dceaae45c52351b6ef2b",
      "function": "addLiquidity(address,address,uint256,uint256)",
      "arguments": [
        "0x263a171641882Db6b48210E1ea477DB3D1d34509",
        "0x82868dA66735FCD28185b9BEFa9fF2AeE4BA3FB8",
        "100000000000000000000000",
        "100000000000000000000000"
      ],
      "transaction": {
        "from": "0x84c29fb8b41f229ad09f4d68f84d676a28dc4a3a",
        "to": "0x5095bff088bcecf56476dceaae45c52351b6ef2b",
        "gas": "0x169f5",
        "value": "0x0",
        "input": "0xcf6c62ea000000000000000000000000263a171641882db6b48210e1ea477db3d1d3450900000000000000000000000082868da66735fcd28185b9befa9ff2aee4ba3fb800000000000000000000000000000000000000000000152d02c7e14af680000000000000000000000000000000000000000000000000152d02c7e14af6800000",
        "nonce": "0x59",
        "chainId": "0x164ce"
      },
      "additionalContracts": [],
      "isFixedGasLimit": false
    },
    {
      "hash": "0xcccebd522e889829be3fc80fe49d21ae3d98a96ee7f3659ed083b7ccdacba457",
      "transactionType": "CALL",
      "contractName": null,
      "contractAddress": "0x263a171641882db6b48210e1ea477db3d1d34509",
      "function": "approve(address,uint256)",
      "arguments": [
        "0x5095Bff088BcECf56476DcEAAE45c52351b6EF2B",
        "100000000000000000000000"
      ],
      "transaction": {
        "from": "0x84c29fb8b41f229ad09f4d68f84d676a28dc4a3a",
        "to": "0x263a171641882db6b48210e1ea477db3d1d34509",
        "gas": "0xfa4b",
        "value": "0x0",
        "input": "0x095ea7b30000000000000000000000005095bff088bcecf56476dceaae45c52351b6ef2b00000000000000000000000000000000000000000000152d02c7e14af6800000",
        "nonce": "0x5a",
        "chainId": "0x164ce"
      },
      "additionalContracts": [],
      "isFixedGasLimit": false
    },
    {
      "hash": "0x8891486d5e4fd8122e91ea940367a7b5d44345b1dadf50c3dd71dbd9fea809eb",
      "transactionType": "CALL",
      "contractName": null,
      "contractAddress": "0xeed497b085113e8c3fc563935582a72f90bde528",
      "function": "approve(address,uint256)",
      "arguments": [
        "0x5095Bff088BcECf56476DcEAAE45c52351b6EF2B",
        "100000000000000000000000"
      ],
      "transaction": {
        "from": "0x84c29fb8b41f229ad09f4d68f84d676a28dc4a3a",
        "to": "0xeed497b085113e8c3fc563935582a72f90bde528",
        "gas": "0xfa4b",
        "value": "0x0",
        "input": "0x095ea7b30000000000000000000000005095bff088bcecf56476dceaae45c52351b6ef2b00000000000000000000000000000000000000000000152d02c7e14af6800000",
        "nonce": "0x5b",
        "chainId": "0x164ce"
      },
      "additionalContracts": [],
      "isFixedGasLimit": false
    },
    {
      "hash": "0xb3844c92ca14d9f5254652845637c8337827a2d95f424c083201903aea3eaa6c",
      "transactionType": "CALL",
      "contractName": null,
      "contractAddress": "0x5095bff088bcecf56476dceaae45c52351b6ef2b",
      "function": "addLiquidity(address,address,uint256,uint256)",
      "arguments": [
        "0x263a171641882Db6b48210E1ea477DB3D1d34509",
        "0xEEd497B085113e8C3FC563935582a72F90BdE528",
        "100000000000000000000000",
        "100000000000000000000000"
      ],
      "transaction": {
        "from": "0x84c29fb8b41f229ad09f4d68f84d676a28dc4a3a",
        "to": "0x5095bff088bcecf56476dceaae45c52351b6ef2b",
        "gas": "0x169f5",
        "value": "0x0",
        "input": "0xcf6c62ea000000000000000000000000263a171641882db6b48210e1ea477db3d1d34509000000000000000000000000eed497b085113e8c3fc563935582a72f90bde52800000000000000000000000000000000000000000000152d02c7e14af680000000000000000000000000000000000000000000000000152d02c7e14af6800000",
        "nonce": "0x5c",
        "chainId": "0x164ce"
      },
      "additionalContracts": [],
      "isFixedGasLimit": false
    },
    {
      "hash": "0xda9f65d34c4bf50036340cde4f55072e68c0788b24d354013de957aeaddcb801",
      "transactionType": "CALL",
      "contractName": null,
      "contractAddress": "0x82868da66735fcd28185b9befa9ff2aee4ba3fb8",
      "function": "approve(address,uint256)",
      "arguments": [
        "0x5095Bff088BcECf56476DcEAAE45c52351b6EF2B",
        "100000000000000000000000"
      ],
      "transaction": {
        "from": "0x84c29fb8b41f229ad09f4d68f84d676a28dc4a3a",
        "to": "0x82868da66735fcd28185b9befa9ff2aee4ba3fb8",
        "gas": "0xfa4b",
        "value": "0x0",
        "input": "0x095ea7b30000000000000000000000005095bff088bcecf56476dceaae45c52351b6ef2b00000000000000000000000000000000000000000000152d02c7e14af6800000",
        "nonce": "0x5d",
        "chainId": "0x164ce"
      },
      "additionalContracts": [],
      "isFixedGasLimit": false
    },
    {
      "hash": "0xa500a7ea0e2708a45c4b959da428e0bb3ced2d043c26171dccc4554a181eb3ac",
      "transactionType": "CALL",
      "contractName": null,
      "contractAddress": "0xeed497b085113e8c3fc563935582a72f90bde528",
      "function": "approve(address,uint256)",
      "arguments": [
        "0x5095Bff088BcECf56476DcEAAE45c52351b6EF2B",
        "100000000000000000000000"
      ],
      "transaction": {
        "from": "0x84c29fb8b41f229ad09f4d68f84d676a28dc4a3a",
        "to": "0xeed497b085113e8c3fc563935582a72f90bde528",
        "gas": "0xfa4b",
        "value": "0x0",
        "input": "0x095ea7b30000000000000000000000005095bff088bcecf56476dceaae45c52351b6ef2b00000000000000000000000000000000000000000000152d02c7e14af6800000",
        "nonce": "0x5e",
        "chainId": "0x164ce"
      },
      "additionalContracts": [],
      "isFixedGasLimit": false
    },
    {
      "hash": "0x1a03454c016aff0821f004a654c6dd4a4b77045db29fdc84df4e8723ecfba1d0",
      "transactionType": "CALL",
      "contractName": null,
      "contractAddress": "0x5095bff088bcecf56476dceaae45c52351b6ef2b",
      "function": "addLiquidity(address,address,uint256,uint256)",
      "arguments": [
        "0x82868dA66735FCD28185b9BEFa9fF2AeE4BA3FB8",
        "0xEEd497B085113e8C3FC563935582a72F90BdE528",
        "100000000000000000000000",
        "100000000000000000000000"
      ],
      "transaction": {
        "from": "0x84c29fb8b41f229ad09f4d68f84d676a28dc4a3a",
        "to": "0x5095bff088bcecf56476dceaae45c52351b6ef2b",
        "gas": "0x169f5",
        "value": "0x0",
        "input": "0xcf6c62ea00000000000000000000000082868da66735fcd28185b9befa9ff2aee4ba3fb8000000000000000000000000eed497b085113e8c3fc563935582a72f90bde52800000000000000000000000000000000000000000000152d02c7e14af680000000000000000000000000000000000000000000000000152d02c7e14af6800000",
        "nonce": "0x5f",
        "chainId": "0x164ce"
      },
      "additionalContracts": [],
      "isFixedGasLimit": false
    }
  ],
  "receipts": [
    {
      "type": "0x2",
      "status": "0x1",
      "cumulativeGasUsed": "0x450d1",
      "logs": [
        {
          "address": "0x05e894ce2c176dbc30176626efa24850af2af0e2",
          "topics": [
            "0x8c5be1e5ebec7d5bd14f71427d1e84f3dd0314c0f7b2291e5b200ac8c7c3b925",
            "0x00000000000000000000000084c29fb8b41f229ad09f4d68f84d676a28dc4a3a",
            "0x0000000000000000000000005095bff088bcecf56476dceaae45c52351b6ef2b"
          ],
          "data": "0x00000000000000000000000000000000000000000000152d02c7e14af6800000",
          "blockHash": "0x45531924a2f888629bddec50bdd13ba9a51423fbb1780ac8e213128454a44285",
          "blockNumber": "0x1dea707",
          "blockTimestamp": "0x6a609363",
          "transactionHash": "0x5eb946d5ccce9162915b9461322ea20696285adb814d12b1b94f6192ceb7a30c",
          "transactionIndex": "0x4",
          "logIndex": "0x1",
          "removed": false
        }
      ],
      "logsBloom": "0x00000000000000000000000000800000000000000000000000000000000040000000000000000000000000000000000000001000000000000010000000200000000000000000000000000000100000000000000000000000000000000000000000000000800000000000000000000000000000000000000000010000000000000000000000000000000000000000000000000000000000000000000000000000020000000000000000000000000000000000000000000000000000000000000000000000000000000000000000000000000000000000000000000000000000000010000000000000000000000000000000200000000000400000000000000000",
      "transactionHash": "0x5eb946d5ccce9162915b9461322ea20696285adb814d12b1b94f6192ceb7a30c",
      "transactionIndex": "0x4",
      "blockHash": "0x45531924a2f888629bddec50bdd13ba9a51423fbb1780ac8e213128454a44285",
      "blockNumber": "0x1dea707",
      "gasUsed": "0x726a",
      "effectiveGasPrice": "0xf433e",
      "blobGasUsed": "0x9c40",
      "from": "0x84c29fb8b41f229ad09f4d68f84d676a28dc4a3a",
      "to": "0x05e894ce2c176dbc30176626efa24850af2af0e2",
      "contractAddress": null
    },
    {
      "type": "0x2",
      "status": "0x1",
      "cumulativeGasUsed": "0x50607",
      "logs": [
        {
          "address": "0x00e8f81208a33bf516cd7dd46e7597dfb40f5a25",
          "topics": [
            "0x8c5be1e5ebec7d5bd14f71427d1e84f3dd0314c0f7b2291e5b200ac8c7c3b925",
            "0x00000000000000000000000084c29fb8b41f229ad09f4d68f84d676a28dc4a3a",
            "0x0000000000000000000000005095bff088bcecf56476dceaae45c52351b6ef2b"
          ],
          "data": "0x00000000000000000000000000000000000000000000152d02c7e14af6800000",
          "blockHash": "0x45531924a2f888629bddec50bdd13ba9a51423fbb1780ac8e213128454a44285",
          "blockNumber": "0x1dea707",
          "blockTimestamp": "0x6a609363",
          "transactionHash": "0xaba2524df7b63fe90a4f182fc9f35fe3cd591ed2d0bc185c217963423b880e61",
          "transactionIndex": "0x5",
          "logIndex": "0x2",
          "removed": false
        }
      ],
      "logsBloom": "0x00000000000000000000000000000000000000000000000000000000000000000000000000000000000000000000000000001000000000000010000000200000000000000000000000000000108000000000000000000010000000000000000000000000800000000000000000000000000000000000000000010000000000000000000000000000000000000000000000000000000000000000000000000000020000000000000000000000000000000000000000000000000000000000000000000000000000000000000000000000000000000000000000000000002000000010000000000000000000000000000000200000000000000000000000000000",
      "transactionHash": "0xaba2524df7b63fe90a4f182fc9f35fe3cd591ed2d0bc185c217963423b880e61",
      "transactionIndex": "0x5",
      "blockHash": "0x45531924a2f888629bddec50bdd13ba9a51423fbb1780ac8e213128454a44285",
      "blockNumber": "0x1dea707",
      "gasUsed": "0xb536",
      "effectiveGasPrice": "0xf433e",
      "blobGasUsed": "0x9c40",
      "from": "0x84c29fb8b41f229ad09f4d68f84d676a28dc4a3a",
      "to": "0x00e8f81208a33bf516cd7dd46e7597dfb40f5a25",
      "contractAddress": null
    },
    {
      "type": "0x2",
      "status": "0x1",
      "cumulativeGasUsed": "0x60c05",
      "logs": [
        {
          "address": "0x05e894ce2c176dbc30176626efa24850af2af0e2",
          "topics": [
            "0xddf252ad1be2c89b69c2b068fc378daa952ba7f163c4a11628f55a4df523b3ef",
            "0x00000000000000000000000084c29fb8b41f229ad09f4d68f84d676a28dc4a3a",
            "0x0000000000000000000000005095bff088bcecf56476dceaae45c52351b6ef2b"
          ],
          "data": "0x00000000000000000000000000000000000000000000152d02c7e14af6800000",
          "blockHash": "0x45531924a2f888629bddec50bdd13ba9a51423fbb1780ac8e213128454a44285",
          "blockNumber": "0x1dea707",
          "blockTimestamp": "0x6a609363",
          "transactionHash": "0x7c322e9a48959a1821184459df5142ed3d7698d429cdab6e79631bcc01bf0df0",
          "transactionIndex": "0x6",
          "logIndex": "0x3",
          "removed": false
        },
        {
          "address": "0x00e8f81208a33bf516cd7dd46e7597dfb40f5a25",
          "topics": [
            "0xddf252ad1be2c89b69c2b068fc378daa952ba7f163c4a11628f55a4df523b3ef",
            "0x00000000000000000000000084c29fb8b41f229ad09f4d68f84d676a28dc4a3a",
            "0x0000000000000000000000005095bff088bcecf56476dceaae45c52351b6ef2b"
          ],
          "data": "0x00000000000000000000000000000000000000000000152d02c7e14af6800000",
          "blockHash": "0x45531924a2f888629bddec50bdd13ba9a51423fbb1780ac8e213128454a44285",
          "blockNumber": "0x1dea707",
          "blockTimestamp": "0x6a609363",
          "transactionHash": "0x7c322e9a48959a1821184459df5142ed3d7698d429cdab6e79631bcc01bf0df0",
          "transactionIndex": "0x6",
          "logIndex": "0x4",
          "removed": false
        },
        {
          "address": "0x5095bff088bcecf56476dceaae45c52351b6ef2b",
          "topics": [
            "0x36f3b2e1a21c19137dd82ec243b0708a1d26b3d1fa1dc49c44c4c366a5878138",
            "0x00000000000000000000000005e894ce2c176dbc30176626efa24850af2af0e2",
            "0x00000000000000000000000000e8f81208a33bf516cd7dd46e7597dfb40f5a25"
          ],
          "data": "0x00000000000000000000000000000000000000000000152d02c7e14af680000000000000000000000000000000000000000000000000152d02c7e14af6800000",
          "blockHash": "0x45531924a2f888629bddec50bdd13ba9a51423fbb1780ac8e213128454a44285",
          "blockNumber": "0x1dea707",
          "blockTimestamp": "0x6a609363",
          "transactionHash": "0x7c322e9a48959a1821184459df5142ed3d7698d429cdab6e79631bcc01bf0df0",
          "transactionIndex": "0x6",
          "logIndex": "0x5",
          "removed": false
        }
      ],
      "logsBloom": "0x40000000000000000000000004800000000000000000000000000000000040000020000000200000000000000000000000001000000000000010000000000000000000000000000000000048108000000000000000000010000000000000000000000000800000000000000001040000080000000000000000010010000000000000000000000001000000000000000000000000000000000000000000000000000000000000000000000000000002000000000000000000000000000000000000000002000000000000000000000000000000000080000000000000002000000000000000000000000000000000000000200000000000400000000000200000",
      "transactionHash": "0x7c322e9a48959a1821184459df5142ed3d7698d429cdab6e79631bcc01bf0df0",
      "transactionIndex": "0x6",
      "blockHash": "0x45531924a2f888629bddec50bdd13ba9a51423fbb1780ac8e213128454a44285",
      "blockNumber": "0x1dea707",
      "gasUsed": "0x105fe",
      "effectiveGasPrice": "0xf433e",
      "blobGasUsed": "0xb860",
      "from": "0x84c29fb8b41f229ad09f4d68f84d676a28dc4a3a",
      "to": "0x5095bff088bcecf56476dceaae45c52351b6ef2b",
      "contractAddress": null
    },
    {
      "type": "0x2",
      "status": "0x1",
      "cumulativeGasUsed": "0x1372c7",
      "logs": [
        {
          "address": "0x05e894ce2c176dbc30176626efa24850af2af0e2",
          "topics": [
            "0x8c5be1e5ebec7d5bd14f71427d1e84f3dd0314c0f7b2291e5b200ac8c7c3b925",
            "0x00000000000000000000000084c29fb8b41f229ad09f4d68f84d676a28dc4a3a",
            "0x0000000000000000000000005095bff088bcecf56476dceaae45c52351b6ef2b"
          ],
          "data": "0x00000000000000000000000000000000000000000000152d02c7e14af6800000",
          "blockHash": "0x45531924a2f888629bddec50bdd13ba9a51423fbb1780ac8e213128454a44285",
          "blockNumber": "0x1dea707",
          "blockTimestamp": "0x6a609363",
          "transactionHash": "0xce3fa1a59d154bf70d97c5dd826cfd1c1d1d764b1dd860dc47de20aca5087b6a",
          "transactionIndex": "0xb",
          "logIndex": "0xd",
          "removed": false
        }
      ],
      "logsBloom": "0x00000000000000000000000000800000000000000000000000000000000040000000000000000000000000000000000000001000000000000010000000200000000000000000000000000000100000000000000000000000000000000000000000000000800000000000000000000000000000000000000000010000000000000000000000000000000000000000000000000000000000000000000000000000020000000000000000000000000000000000000000000000000000000000000000000000000000000000000000000000000000000000000000000000000000000010000000000000000000000000000000200000000000400000000000000000",
      "transactionHash": "0xce3fa1a59d154bf70d97c5dd826cfd1c1d1d764b1dd860dc47de20aca5087b6a",
      "transactionIndex": "0xb",
      "blockHash": "0x45531924a2f888629bddec50bdd13ba9a51423fbb1780ac8e213128454a44285",
      "blockNumber": "0x1dea707",
      "gasUsed": "0xb536",
      "effectiveGasPrice": "0xf433e",
      "blobGasUsed": "0x9c40",
      "from": "0x84c29fb8b41f229ad09f4d68f84d676a28dc4a3a",
      "to": "0x05e894ce2c176dbc30176626efa24850af2af0e2",
      "contractAddress": null
    },
    {
      "type": "0x2",
      "status": "0x1",
      "cumulativeGasUsed": "0x1427fd",
      "logs": [
        {
          "address": "0x263a171641882db6b48210e1ea477db3d1d34509",
          "topics": [
            "0x8c5be1e5ebec7d5bd14f71427d1e84f3dd0314c0f7b2291e5b200ac8c7c3b925",
            "0x00000000000000000000000084c29fb8b41f229ad09f4d68f84d676a28dc4a3a",
            "0x0000000000000000000000005095bff088bcecf56476dceaae45c52351b6ef2b"
          ],
          "data": "0x00000000000000000000000000000000000000000000152d02c7e14af6800000",
          "blockHash": "0x45531924a2f888629bddec50bdd13ba9a51423fbb1780ac8e213128454a44285",
          "blockNumber": "0x1dea707",
          "blockTimestamp": "0x6a609363",
          "transactionHash": "0x2cde64b9b21823d5349f86028d3bd6137ed4db80e8f1e1490a38b5cc8a6e4233",
          "transactionIndex": "0xc",
          "logIndex": "0xe",
          "removed": false
        }
      ],
      "logsBloom": "0x00000000000000000008000000000000000000000008000000000000000000000000000000000000000000000000000000001000000000000010000000200000000000000000000000000000100000000000000000000000000000000000000000000000800000000000000000000000000000000000000000010000000000000000000000000000000000000000000000000000000000000000000000000000020000000000000000000000000000000000000000000000000000000000000000000000000000000000000000000000000000000000000000000000000000000210000000000000000000000000000000200000000000000000000000000000",
      "transactionHash": "0x2cde64b9b21823d5349f86028d3bd6137ed4db80e8f1e1490a38b5cc8a6e4233",
      "transactionIndex": "0xc",
      "blockHash": "0x45531924a2f888629bddec50bdd13ba9a51423fbb1780ac8e213128454a44285",
      "blockNumber": "0x1dea707",
      "gasUsed": "0xb536",
      "effectiveGasPrice": "0xf433e",
      "blobGasUsed": "0x9c40",
      "from": "0x84c29fb8b41f229ad09f4d68f84d676a28dc4a3a",
      "to": "0x263a171641882db6b48210e1ea477db3d1d34509",
      "contractAddress": null
    },
    {
      "type": "0x2",
      "status": "0x1",
      "cumulativeGasUsed": "0x16bbdc",
      "logs": [
        {
          "address": "0x05e894ce2c176dbc30176626efa24850af2af0e2",
          "topics": [
            "0xddf252ad1be2c89b69c2b068fc378daa952ba7f163c4a11628f55a4df523b3ef",
            "0x00000000000000000000000084c29fb8b41f229ad09f4d68f84d676a28dc4a3a",
            "0x0000000000000000000000005095bff088bcecf56476dceaae45c52351b6ef2b"
          ],
          "data": "0x00000000000000000000000000000000000000000000152d02c7e14af6800000",
          "blockHash": "0x45531924a2f888629bddec50bdd13ba9a51423fbb1780ac8e213128454a44285",
          "blockNumber": "0x1dea707",
          "blockTimestamp": "0x6a609363",
          "transactionHash": "0xc4b360210535d3cf3b42345112d2d3c3c2a2d933bc7e06c269309551dc694747",
          "transactionIndex": "0xe",
          "logIndex": "0x10",
          "removed": false
        },
        {
          "address": "0x263a171641882db6b48210e1ea477db3d1d34509",
          "topics": [
            "0xddf252ad1be2c89b69c2b068fc378daa952ba7f163c4a11628f55a4df523b3ef",
            "0x00000000000000000000000084c29fb8b41f229ad09f4d68f84d676a28dc4a3a",
            "0x0000000000000000000000005095bff088bcecf56476dceaae45c52351b6ef2b"
          ],
          "data": "0x00000000000000000000000000000000000000000000152d02c7e14af6800000",
          "blockHash": "0x45531924a2f888629bddec50bdd13ba9a51423fbb1780ac8e213128454a44285",
          "blockNumber": "0x1dea707",
          "blockTimestamp": "0x6a609363",
          "transactionHash": "0xc4b360210535d3cf3b42345112d2d3c3c2a2d933bc7e06c269309551dc694747",
          "transactionIndex": "0xe",
          "logIndex": "0x11",
          "removed": false
        },
        {
          "address": "0x5095bff088bcecf56476dceaae45c52351b6ef2b",
          "topics": [
            "0x36f3b2e1a21c19137dd82ec243b0708a1d26b3d1fa1dc49c44c4c366a5878138",
            "0x00000000000000000000000005e894ce2c176dbc30176626efa24850af2af0e2",
            "0x000000000000000000000000263a171641882db6b48210e1ea477db3d1d34509"
          ],
          "data": "0x00000000000000000000000000000000000000000000152d02c7e14af680000000000000000000000000000000000000000000000000152d02c7e14af6800000",
          "blockHash": "0x45531924a2f888629bddec50bdd13ba9a51423fbb1780ac8e213128454a44285",
          "blockNumber": "0x1dea707",
          "blockTimestamp": "0x6a609363",
          "transactionHash": "0xc4b360210535d3cf3b42345112d2d3c3c2a2d933bc7e06c269309551dc694747",
          "transactionIndex": "0xe",
          "logIndex": "0x12",
          "removed": false
        }
      ],
      "logsBloom": "0x40000000000000000008100004800000000000000008000000000000000040000020000000200000000000000000000000001000000000000010000000000000000000000000000000000008100000000000000000000000000000000000000000000000800000000000000001000000080002000000000000010010000000000000000000000000000000000000000000000000000000000000000000000000000000000000000000000000000002000000000000000000000000000000000000000002000000000000000000000000000000000080000000000000000000000200008000000000000000000000000000200000000000400000000000200000",
      "transactionHash": "0xc4b360210535d3cf3b42345112d2d3c3c2a2d933bc7e06c269309551dc694747",
      "transactionIndex": "0xe",
      "blockHash": "0x45531924a2f888629bddec50bdd13ba9a51423fbb1780ac8e213128454a44285",
      "blockNumber": "0x1dea707",
      "gasUsed": "0x1060e",
      "effectiveGasPrice": "0xf433e",
      "blobGasUsed": "0xb860",
      "from": "0x84c29fb8b41f229ad09f4d68f84d676a28dc4a3a",
      "to": "0x5095bff088bcecf56476dceaae45c52351b6ef2b",
      "contractAddress": null
    },
    {
      "type": "0x2",
      "status": "0x1",
      "cumulativeGasUsed": "0x177112",
      "logs": [
        {
          "address": "0x05e894ce2c176dbc30176626efa24850af2af0e2",
          "topics": [
            "0x8c5be1e5ebec7d5bd14f71427d1e84f3dd0314c0f7b2291e5b200ac8c7c3b925",
            "0x00000000000000000000000084c29fb8b41f229ad09f4d68f84d676a28dc4a3a",
            "0x0000000000000000000000005095bff088bcecf56476dceaae45c52351b6ef2b"
          ],
          "data": "0x00000000000000000000000000000000000000000000152d02c7e14af6800000",
          "blockHash": "0x45531924a2f888629bddec50bdd13ba9a51423fbb1780ac8e213128454a44285",
          "blockNumber": "0x1dea707",
          "blockTimestamp": "0x6a609363",
          "transactionHash": "0x62571f5a831551596adc5a035fdb3216fb5bfbf53573dc901908b1e1d3702d04",
          "transactionIndex": "0xf",
          "logIndex": "0x13",
          "removed": false
        }
      ],
      "logsBloom": "0x00000000000000000000000000800000000000000000000000000000000040000000000000000000000000000000000000001000000000000010000000200000000000000000000000000000100000000000000000000000000000000000000000000000800000000000000000000000000000000000000000010000000000000000000000000000000000000000000000000000000000000000000000000000020000000000000000000000000000000000000000000000000000000000000000000000000000000000000000000000000000000000000000000000000000000010000000000000000000000000000000200000000000400000000000000000",
      "transactionHash": "0x62571f5a831551596adc5a035fdb3216fb5bfbf53573dc901908b1e1d3702d04",
      "transactionIndex": "0xf",
      "blockHash": "0x45531924a2f888629bddec50bdd13ba9a51423fbb1780ac8e213128454a44285",
      "blockNumber": "0x1dea707",
      "gasUsed": "0xb536",
      "effectiveGasPrice": "0xf433e",
      "blobGasUsed": "0x9c40",
      "from": "0x84c29fb8b41f229ad09f4d68f84d676a28dc4a3a",
      "to": "0x05e894ce2c176dbc30176626efa24850af2af0e2",
      "contractAddress": null
    },
    {
      "type": "0x2",
      "status": "0x1",
      "cumulativeGasUsed": "0x182648",
      "logs": [
        {
          "address": "0x82868da66735fcd28185b9befa9ff2aee4ba3fb8",
          "topics": [
            "0x8c5be1e5ebec7d5bd14f71427d1e84f3dd0314c0f7b2291e5b200ac8c7c3b925",
            "0x00000000000000000000000084c29fb8b41f229ad09f4d68f84d676a28dc4a3a",
            "0x0000000000000000000000005095bff088bcecf56476dceaae45c52351b6ef2b"
          ],
          "data": "0x00000000000000000000000000000000000000000000152d02c7e14af6800000",
          "blockHash": "0x45531924a2f888629bddec50bdd13ba9a51423fbb1780ac8e213128454a44285",
          "blockNumber": "0x1dea707",
          "blockTimestamp": "0x6a609363",
          "transactionHash": "0x44b5b216327d3e82e81d7769403c4bf638d634bd76e7f081515eeb52ee1ec22c",
          "transactionIndex": "0x10",
          "logIndex": "0x14",
          "removed": false
        }
      ],
      "logsBloom": "0x00000000000000000000000000000000000000000000000000000000000000000000000000000000000000000000000000001000000000000010000000200000000000000000000000000000100000000000000000000000000000000000000000000000800000000000000000000000000000000000000000010000000000000000000000000000040000000000000000000000000000000000000000000000021000000000000000000000000000000000000000000000000000000000000004000000000000000000000000000000000000000000000000000000000000000010000000000000000000000000000000200000000000000000000000000000",
      "transactionHash": "0x44b5b216327d3e82e81d7769403c4bf638d634bd76e7f081515eeb52ee1ec22c",
      "transactionIndex": "0x10",
      "blockHash": "0x45531924a2f888629bddec50bdd13ba9a51423fbb1780ac8e213128454a44285",
      "blockNumber": "0x1dea707",
      "gasUsed": "0xb536",
      "effectiveGasPrice": "0xf433e",
      "blobGasUsed": "0x9c40",
      "from": "0x84c29fb8b41f229ad09f4d68f84d676a28dc4a3a",
      "to": "0x82868da66735fcd28185b9befa9ff2aee4ba3fb8",
      "contractAddress": null
    },
    {
      "type": "0x2",
      "status": "0x1",
      "cumulativeGasUsed": "0x192c56",
      "logs": [
        {
          "address": "0x05e894ce2c176dbc30176626efa24850af2af0e2",
          "topics": [
            "0xddf252ad1be2c89b69c2b068fc378daa952ba7f163c4a11628f55a4df523b3ef",
            "0x00000000000000000000000084c29fb8b41f229ad09f4d68f84d676a28dc4a3a",
            "0x0000000000000000000000005095bff088bcecf56476dceaae45c52351b6ef2b"
          ],
          "data": "0x00000000000000000000000000000000000000000000152d02c7e14af6800000",
          "blockHash": "0x45531924a2f888629bddec50bdd13ba9a51423fbb1780ac8e213128454a44285",
          "blockNumber": "0x1dea707",
          "blockTimestamp": "0x6a609363",
          "transactionHash": "0x6fdab071371c1a95cd48fe92b1ca33bf7a028b6caf241863000f51181cf314af",
          "transactionIndex": "0x11",
          "logIndex": "0x15",
          "removed": false
        },
        {
          "address": "0x82868da66735fcd28185b9befa9ff2aee4ba3fb8",
          "topics": [
            "0xddf252ad1be2c89b69c2b068fc378daa952ba7f163c4a11628f55a4df523b3ef",
            "0x00000000000000000000000084c29fb8b41f229ad09f4d68f84d676a28dc4a3a",
            "0x0000000000000000000000005095bff088bcecf56476dceaae45c52351b6ef2b"
          ],
          "data": "0x00000000000000000000000000000000000000000000152d02c7e14af6800000",
          "blockHash": "0x45531924a2f888629bddec50bdd13ba9a51423fbb1780ac8e213128454a44285",
          "blockNumber": "0x1dea707",
          "blockTimestamp": "0x6a609363",
          "transactionHash": "0x6fdab071371c1a95cd48fe92b1ca33bf7a028b6caf241863000f51181cf314af",
          "transactionIndex": "0x11",
          "logIndex": "0x16",
          "removed": false
        },
        {
          "address": "0x5095bff088bcecf56476dceaae45c52351b6ef2b",
          "topics": [
            "0x36f3b2e1a21c19137dd82ec243b0708a1d26b3d1fa1dc49c44c4c366a5878138",
            "0x00000000000000000000000005e894ce2c176dbc30176626efa24850af2af0e2",
            "0x00000000000000000000000082868da66735fcd28185b9befa9ff2aee4ba3fb8"
          ],
          "data": "0x00000000000000000000000000000000000000000000152d02c7e14af680000000000000000000000000000000000000000000000000152d02c7e14af6800000",
          "blockHash": "0x45531924a2f888629bddec50bdd13ba9a51423fbb1780ac8e213128454a44285",
          "blockNumber": "0x1dea707",
          "blockTimestamp": "0x6a609363",
          "transactionHash": "0x6fdab071371c1a95cd48fe92b1ca33bf7a028b6caf241863000f51181cf314af",
          "transactionIndex": "0x11",
          "logIndex": "0x17",
          "removed": false
        }
      ],
      "logsBloom": "0x40000000000000000000000004800000000000000000000000000000000040000020000000200000000000000000000000001000000000002010000000000000000000000000000000000008100000000000000000000000000000000000000000000000800000000000000001000000080000000000000000010010000000000000000000000000040000000004000000000000000000000000000000000000001000000000000000000000000002000000000000000000000000000000000004000002000000000000000000000000100000000080000000000000000000000000000000000000000000000000000000200000000000400000000000200000",
      "transactionHash": "0x6fdab071371c1a95cd48fe92b1ca33bf7a028b6caf241863000f51181cf314af",
      "transactionIndex": "0x11",
      "blockHash": "0x45531924a2f888629bddec50bdd13ba9a51423fbb1780ac8e213128454a44285",
      "blockNumber": "0x1dea707",
      "gasUsed": "0x1060e",
      "effectiveGasPrice": "0xf433e",
      "blobGasUsed": "0xb860",
      "from": "0x84c29fb8b41f229ad09f4d68f84d676a28dc4a3a",
      "to": "0x5095bff088bcecf56476dceaae45c52351b6ef2b",
      "contractAddress": null
    },
    {
      "type": "0x2",
      "status": "0x1",
      "cumulativeGasUsed": "0x19e18c",
      "logs": [
        {
          "address": "0x05e894ce2c176dbc30176626efa24850af2af0e2",
          "topics": [
            "0x8c5be1e5ebec7d5bd14f71427d1e84f3dd0314c0f7b2291e5b200ac8c7c3b925",
            "0x00000000000000000000000084c29fb8b41f229ad09f4d68f84d676a28dc4a3a",
            "0x0000000000000000000000005095bff088bcecf56476dceaae45c52351b6ef2b"
          ],
          "data": "0x00000000000000000000000000000000000000000000152d02c7e14af6800000",
          "blockHash": "0x45531924a2f888629bddec50bdd13ba9a51423fbb1780ac8e213128454a44285",
          "blockNumber": "0x1dea707",
          "blockTimestamp": "0x6a609363",
          "transactionHash": "0xb85d85b09aec915a7a72edd438e9fb65d989788fe33b55ee947bfb2a1ce62c74",
          "transactionIndex": "0x12",
          "logIndex": "0x18",
          "removed": false
        }
      ],
      "logsBloom": "0x00000000000000000000000000800000000000000000000000000000000040000000000000000000000000000000000000001000000000000010000000200000000000000000000000000000100000000000000000000000000000000000000000000000800000000000000000000000000000000000000000010000000000000000000000000000000000000000000000000000000000000000000000000000020000000000000000000000000000000000000000000000000000000000000000000000000000000000000000000000000000000000000000000000000000000010000000000000000000000000000000200000000000400000000000000000",
      "transactionHash": "0xb85d85b09aec915a7a72edd438e9fb65d989788fe33b55ee947bfb2a1ce62c74",
      "transactionIndex": "0x12",
      "blockHash": "0x45531924a2f888629bddec50bdd13ba9a51423fbb1780ac8e213128454a44285",
      "blockNumber": "0x1dea707",
      "gasUsed": "0xb536",
      "effectiveGasPrice": "0xf433e",
      "blobGasUsed": "0x9c40",
      "from": "0x84c29fb8b41f229ad09f4d68f84d676a28dc4a3a",
      "to": "0x05e894ce2c176dbc30176626efa24850af2af0e2",
      "contractAddress": null
    },
    {
      "type": "0x2",
      "status": "0x1",
      "cumulativeGasUsed": "0x1a96c2",
      "logs": [
        {
          "address": "0xeed497b085113e8c3fc563935582a72f90bde528",
          "topics": [
            "0x8c5be1e5ebec7d5bd14f71427d1e84f3dd0314c0f7b2291e5b200ac8c7c3b925",
            "0x00000000000000000000000084c29fb8b41f229ad09f4d68f84d676a28dc4a3a",
            "0x0000000000000000000000005095bff088bcecf56476dceaae45c52351b6ef2b"
          ],
          "data": "0x00000000000000000000000000000000000000000000152d02c7e14af6800000",
          "blockHash": "0x45531924a2f888629bddec50bdd13ba9a51423fbb1780ac8e213128454a44285",
          "blockNumber": "0x1dea707",
          "blockTimestamp": "0x6a609363",
          "transactionHash": "0xb3844c92ca14d9f5254652845637c8337827a2d95f424c083201903aea3eaa6c",
          "transactionIndex": "0x13",
          "logIndex": "0x19",
          "removed": false
        }
      ],
      "logsBloom": "0x00000000000000000000000000000000000000000000000000000000000000000000000000000000000000000000000000001000080000000012000000200000000000000000000000000000100000000000000000000000000000000000000000000000800000000000000000000000000000000010000000010000000000000000000000000000000000000000000000000000000000000000000000000000020000000000000000000000000000000000000000000000000000000000000000000000000000000000000000000000000000000000000000000000000000000010000000000000000000000000000000200000000000000000000000000000",
      "transactionHash": "0xb3844c92ca14d9f5254652845637c8337827a2d95f424c083201903aea3eaa6c",
      "transactionIndex": "0x13",
      "blockHash": "0x45531924a2f888629bddec50bdd13ba9a51423fbb1780ac8e213128454a44285",
      "blockNumber": "0x1dea707",
      "gasUsed": "0xb536",
      "effectiveGasPrice": "0xf433e",
      "blobGasUsed": "0x9c40",
      "from": "0x84c29fb8b41f229ad09f4d68f84d676a28dc4a3a",
      "to": "0xeed497b085113e8c3fc563935582a72f90bde528",
      "contractAddress": null
    },
    {
      "type": "0x2",
      "status": "0x1",
      "cumulativeGasUsed": "0x1b9cd0",
      "logs": [
        {
          "address": "0x05e894ce2c176dbc30176626efa24850af2af0e2",
          "topics": [
            "0xddf252ad1be2c89b69c2b068fc378daa952ba7f163c4a11628f55a4df523b3ef",
            "0x00000000000000000000000084c29fb8b41f229ad09f4d68f84d676a28dc4a3a",
            "0x0000000000000000000000005095bff088bcecf56476dceaae45c52351b6ef2b"
          ],
          "data": "0x00000000000000000000000000000000000000000000152d02c7e14af6800000",
          "blockHash": "0x45531924a2f888629bddec50bdd13ba9a51423fbb1780ac8e213128454a44285",
          "blockNumber": "0x1dea707",
          "blockTimestamp": "0x6a609363",
          "transactionHash": "0x7d5e147f899217df5701a0632b0aa8273723e9655b3146a41cecfadfdfbf1048",
          "transactionIndex": "0x14",
          "logIndex": "0x1a",
          "removed": false
        },
        {
          "address": "0xeed497b085113e8c3fc563935582a72f90bde528",
          "topics": [
            "0xddf252ad1be2c89b69c2b068fc378daa952ba7f163c4a11628f55a4df523b3ef",
            "0x00000000000000000000000084c29fb8b41f229ad09f4d68f84d676a28dc4a3a",
            "0x0000000000000000000000005095bff088bcecf56476dceaae45c52351b6ef2b"
          ],
          "data": "0x00000000000000000000000000000000000000000000152d02c7e14af6800000",
          "blockHash": "0x45531924a2f888629bddec50bdd13ba9a51423fbb1780ac8e213128454a44285",
          "blockNumber": "0x1dea707",
          "blockTimestamp": "0x6a609363",
          "transactionHash": "0x7d5e147f899217df5701a0632b0aa8273723e9655b3146a41cecfadfdfbf1048",
          "transactionIndex": "0x14",
          "logIndex": "0x1b",
          "removed": false
        },
        {
          "address": "0x5095bff088bcecf56476dceaae45c52351b6ef2b",
          "topics": [
            "0x36f3b2e1a21c19137dd82ec243b0708a1d26b3d1fa1dc49c44c4c366a5878138",
            "0x00000000000000000000000005e894ce2c176dbc30176626efa24850af2af0e2",
            "0x000000000000000000000000eed497b085113e8c3fc563935582a72f90bde528"
          ],
          "data": "0x00000000000000000000000000000000000000000000152d02c7e14af680000000000000000000000000000000000000000000000000152d02c7e14af6800000",
          "blockHash": "0x45531924a2f888629bddec50bdd13ba9a51423fbb1780ac8e213128454a44285",
          "blockNumber": "0x1dea707",
          "blockTimestamp": "0x6a609363",
          "transactionHash": "0x7d5e147f899217df5701a0632b0aa8273723e9655b3146a41cecfadfdfbf1048",
          "transactionIndex": "0x14",
          "logIndex": "0x1c",
          "removed": false
        }
      ],
      "logsBloom": "0x40000000000000000000000004800000000000000000000000000000000040000020000000200000000000000000000000001000080000080012000000000000000000000000000000000008100000000000000000000000000000000000000000000008800000000000000001000000080000000010000000010010000000000000000000000000000000000000000000000000000000000000000000000000000000000000000000000000000002000000000000040000000000000000000000000002000000000000000000000000000000000080000000000000000000000000000000000000000000000000000000200000000000400000000000200000",
      "transactionHash": "0x7d5e147f899217df5701a0632b0aa8273723e9655b3146a41cecfadfdfbf1048",
      "transactionIndex": "0x14",
      "blockHash": "0x45531924a2f888629bddec50bdd13ba9a51423fbb1780ac8e213128454a44285",
      "blockNumber": "0x1dea707",
      "gasUsed": "0x1060e",
      "effectiveGasPrice": "0xf433e",
      "blobGasUsed": "0xb860",
      "from": "0x84c29fb8b41f229ad09f4d68f84d676a28dc4a3a",
      "to": "0x5095bff088bcecf56476dceaae45c52351b6ef2b",
      "contractAddress": null
    },
    {
      "type": "0x2",
      "status": "0x1",
      "cumulativeGasUsed": "0x1c5206",
      "logs": [
        {
          "address": "0x00e8f81208a33bf516cd7dd46e7597dfb40f5a25",
          "topics": [
            "0x8c5be1e5ebec7d5bd14f71427d1e84f3dd0314c0f7b2291e5b200ac8c7c3b925",
            "0x00000000000000000000000084c29fb8b41f229ad09f4d68f84d676a28dc4a3a",
            "0x0000000000000000000000005095bff088bcecf56476dceaae45c52351b6ef2b"
          ],
          "data": "0x00000000000000000000000000000000000000000000152d02c7e14af6800000",
          "blockHash": "0x45531924a2f888629bddec50bdd13ba9a51423fbb1780ac8e213128454a44285",
          "blockNumber": "0x1dea707",
          "blockTimestamp": "0x6a609363",
          "transactionHash": "0xee347f514abdf855116980b2bbe3809bfac2ce97a24fdfd25fe2ded89119a0d1",
          "transactionIndex": "0x15",
          "logIndex": "0x1d",
          "removed": false
        }
      ],
      "logsBloom": "0x00000000000000000000000000000000000000000000000000000000000000000000000000000000000000000000000000001000000000000010000000200000000000000000000000000000108000000000000000000010000000000000000000000000800000000000000000000000000000000000000000010000000000000000000000000000000000000000000000000000000000000000000000000000020000000000000000000000000000000000000000000000000000000000000000000000000000000000000000000000000000000000000000000000002000000010000000000000000000000000000000200000000000000000000000000000",
      "transactionHash": "0xee347f514abdf855116980b2bbe3809bfac2ce97a24fdfd25fe2ded89119a0d1",
      "transactionIndex": "0x15",
      "blockHash": "0x45531924a2f888629bddec50bdd13ba9a51423fbb1780ac8e213128454a44285",
      "blockNumber": "0x1dea707",
      "gasUsed": "0xb536",
      "effectiveGasPrice": "0xf433e",
      "blobGasUsed": "0x9c40",
      "from": "0x84c29fb8b41f229ad09f4d68f84d676a28dc4a3a",
      "to": "0x00e8f81208a33bf516cd7dd46e7597dfb40f5a25",
      "contractAddress": null
    },
    {
      "type": "0x2",
      "status": "0x1",
      "cumulativeGasUsed": "0x1d073c",
      "logs": [
        {
          "address": "0x263a171641882db6b48210e1ea477db3d1d34509",
          "topics": [
            "0x8c5be1e5ebec7d5bd14f71427d1e84f3dd0314c0f7b2291e5b200ac8c7c3b925",
            "0x00000000000000000000000084c29fb8b41f229ad09f4d68f84d676a28dc4a3a",
            "0x0000000000000000000000005095bff088bcecf56476dceaae45c52351b6ef2b"
          ],
          "data": "0x00000000000000000000000000000000000000000000152d02c7e14af6800000",
          "blockHash": "0x45531924a2f888629bddec50bdd13ba9a51423fbb1780ac8e213128454a44285",
          "blockNumber": "0x1dea707",
          "blockTimestamp": "0x6a609363",
          "transactionHash": "0xf68407b34ef2bc9c8bfb20d451bfabaf24450be7a7b9cda978dea05a36c5d87e",
          "transactionIndex": "0x16",
          "logIndex": "0x1e",
          "removed": false
        }
      ],
      "logsBloom": "0x00000000000000000008000000000000000000000008000000000000000000000000000000000000000000000000000000001000000000000010000000200000000000000000000000000000100000000000000000000000000000000000000000000000800000000000000000000000000000000000000000010000000000000000000000000000000000000000000000000000000000000000000000000000020000000000000000000000000000000000000000000000000000000000000000000000000000000000000000000000000000000000000000000000000000000210000000000000000000000000000000200000000000000000000000000000",
      "transactionHash": "0xf68407b34ef2bc9c8bfb20d451bfabaf24450be7a7b9cda978dea05a36c5d87e",
      "transactionIndex": "0x16",
      "blockHash": "0x45531924a2f888629bddec50bdd13ba9a51423fbb1780ac8e213128454a44285",
      "blockNumber": "0x1dea707",
      "gasUsed": "0xb536",
      "effectiveGasPrice": "0xf433e",
      "blobGasUsed": "0x9c40",
      "from": "0x84c29fb8b41f229ad09f4d68f84d676a28dc4a3a",
      "to": "0x263a171641882db6b48210e1ea477db3d1d34509",
      "contractAddress": null
    },
    {
      "type": "0x2",
      "status": "0x1",
      "cumulativeGasUsed": "0x1e0d3e",
      "logs": [
        {
          "address": "0x00e8f81208a33bf516cd7dd46e7597dfb40f5a25",
          "topics": [
            "0xddf252ad1be2c89b69c2b068fc378daa952ba7f163c4a11628f55a4df523b3ef",
            "0x00000000000000000000000084c29fb8b41f229ad09f4d68f84d676a28dc4a3a",
            "0x0000000000000000000000005095bff088bcecf56476dceaae45c52351b6ef2b"
          ],
          "data": "0x00000000000000000000000000000000000000000000152d02c7e14af6800000",
          "blockHash": "0x45531924a2f888629bddec50bdd13ba9a51423fbb1780ac8e213128454a44285",
          "blockNumber": "0x1dea707",
          "blockTimestamp": "0x6a609363",
          "transactionHash": "0x36ec214a0f08f603fb897f56bec42d216187dd453c2fff9b7ff207ae6264724c",
          "transactionIndex": "0x17",
          "logIndex": "0x1f",
          "removed": false
        },
        {
          "address": "0x263a171641882db6b48210e1ea477db3d1d34509",
          "topics": [
            "0xddf252ad1be2c89b69c2b068fc378daa952ba7f163c4a11628f55a4df523b3ef",
            "0x00000000000000000000000084c29fb8b41f229ad09f4d68f84d676a28dc4a3a",
            "0x0000000000000000000000005095bff088bcecf56476dceaae45c52351b6ef2b"
          ],
          "data": "0x00000000000000000000000000000000000000000000152d02c7e14af6800000",
          "blockHash": "0x45531924a2f888629bddec50bdd13ba9a51423fbb1780ac8e213128454a44285",
          "blockNumber": "0x1dea707",
          "blockTimestamp": "0x6a609363",
          "transactionHash": "0x36ec214a0f08f603fb897f56bec42d216187dd453c2fff9b7ff207ae6264724c",
          "transactionIndex": "0x17",
          "logIndex": "0x20",
          "removed": false
        },
        {
          "address": "0x5095bff088bcecf56476dceaae45c52351b6ef2b",
          "topics": [
            "0x36f3b2e1a21c19137dd82ec243b0708a1d26b3d1fa1dc49c44c4c366a5878138",
            "0x00000000000000000000000000e8f81208a33bf516cd7dd46e7597dfb40f5a25",
            "0x000000000000000000000000263a171641882db6b48210e1ea477db3d1d34509"
          ],
          "data": "0x00000000000000000000000000000000000000000000152d02c7e14af680000000000000000000000000000000000000000000000000152d02c7e14af6800000",
          "blockHash": "0x45531924a2f888629bddec50bdd13ba9a51423fbb1780ac8e213128454a44285",
          "blockNumber": "0x1dea707",
          "blockTimestamp": "0x6a609363",
          "transactionHash": "0x36ec214a0f08f603fb897f56bec42d216187dd453c2fff9b7ff207ae6264724c",
          "transactionIndex": "0x17",
          "logIndex": "0x21",
          "removed": false
        }
      ],
      "logsBloom": "0x40000000000000000008100000000000000000000008000000000000000000000020000000000000000000000000000000001000000000000010000000000000000000000000000000000048108000000000000000000010000000000000000000000000800000000000000001040000080002000000000000010010000000000000000000000001000000000000000000000000000000000000000000000000000000000000000000000000000002000000000000000000000000000000000000000002000000000000000000000000000000000000000000000000002000000200008000000000000000000000000000200000000000000000000000200000",
      "transactionHash": "0x36ec214a0f08f603fb897f56bec42d216187dd453c2fff9b7ff207ae6264724c",
      "transactionIndex": "0x17",
      "blockHash": "0x45531924a2f888629bddec50bdd13ba9a51423fbb1780ac8e213128454a44285",
      "blockNumber": "0x1dea707",
      "gasUsed": "0x10602",
      "effectiveGasPrice": "0xf433e",
      "blobGasUsed": "0xb860",
      "from": "0x84c29fb8b41f229ad09f4d68f84d676a28dc4a3a",
      "to": "0x5095bff088bcecf56476dceaae45c52351b6ef2b",
      "contractAddress": null
    },
    {
      "type": "0x2",
      "status": "0x1",
      "cumulativeGasUsed": "0x1ec274",
      "logs": [
        {
          "address": "0x00e8f81208a33bf516cd7dd46e7597dfb40f5a25",
          "topics": [
            "0x8c5be1e5ebec7d5bd14f71427d1e84f3dd0314c0f7b2291e5b200ac8c7c3b925",
            "0x00000000000000000000000084c29fb8b41f229ad09f4d68f84d676a28dc4a3a",
            "0x0000000000000000000000005095bff088bcecf56476dceaae45c52351b6ef2b"
          ],
          "data": "0x00000000000000000000000000000000000000000000152d02c7e14af6800000",
          "blockHash": "0x45531924a2f888629bddec50bdd13ba9a51423fbb1780ac8e213128454a44285",
          "blockNumber": "0x1dea707",
          "blockTimestamp": "0x6a609363",
          "transactionHash": "0xda9f65d34c4bf50036340cde4f55072e68c0788b24d354013de957aeaddcb801",
          "transactionIndex": "0x18",
          "logIndex": "0x22",
          "removed": false
        }
      ],
      "logsBloom": "0x00000000000000000000000000000000000000000000000000000000000000000000000000000000000000000000000000001000000000000010000000200000000000000000000000000000108000000000000000000010000000000000000000000000800000000000000000000000000000000000000000010000000000000000000000000000000000000000000000000000000000000000000000000000020000000000000000000000000000000000000000000000000000000000000000000000000000000000000000000000000000000000000000000000002000000010000000000000000000000000000000200000000000000000000000000000",
      "transactionHash": "0xda9f65d34c4bf50036340cde4f55072e68c0788b24d354013de957aeaddcb801",
      "transactionIndex": "0x18",
      "blockHash": "0x45531924a2f888629bddec50bdd13ba9a51423fbb1780ac8e213128454a44285",
      "blockNumber": "0x1dea707",
      "gasUsed": "0xb536",
      "effectiveGasPrice": "0xf433e",
      "blobGasUsed": "0x9c40",
      "from": "0x84c29fb8b41f229ad09f4d68f84d676a28dc4a3a",
      "to": "0x00e8f81208a33bf516cd7dd46e7597dfb40f5a25",
      "contractAddress": null
    },
    {
      "type": "0x2",
      "status": "0x1",
      "cumulativeGasUsed": "0x1f77aa",
      "logs": [
        {
          "address": "0x82868da66735fcd28185b9befa9ff2aee4ba3fb8",
          "topics": [
            "0x8c5be1e5ebec7d5bd14f71427d1e84f3dd0314c0f7b2291e5b200ac8c7c3b925",
            "0x00000000000000000000000084c29fb8b41f229ad09f4d68f84d676a28dc4a3a",
            "0x0000000000000000000000005095bff088bcecf56476dceaae45c52351b6ef2b"
          ],
          "data": "0x00000000000000000000000000000000000000000000152d02c7e14af6800000",
          "blockHash": "0x45531924a2f888629bddec50bdd13ba9a51423fbb1780ac8e213128454a44285",
          "blockNumber": "0x1dea707",
          "blockTimestamp": "0x6a609363",
          "transactionHash": "0x8891486d5e4fd8122e91ea940367a7b5d44345b1dadf50c3dd71dbd9fea809eb",
          "transactionIndex": "0x19",
          "logIndex": "0x23",
          "removed": false
        }
      ],
      "logsBloom": "0x00000000000000000000000000000000000000000000000000000000000000000000000000000000000000000000000000001000000000000010000000200000000000000000000000000000100000000000000000000000000000000000000000000000800000000000000000000000000000000000000000010000000000000000000000000000040000000000000000000000000000000000000000000000021000000000000000000000000000000000000000000000000000000000000004000000000000000000000000000000000000000000000000000000000000000010000000000000000000000000000000200000000000000000000000000000",
      "transactionHash": "0x8891486d5e4fd8122e91ea940367a7b5d44345b1dadf50c3dd71dbd9fea809eb",
      "transactionIndex": "0x19",
      "blockHash": "0x45531924a2f888629bddec50bdd13ba9a51423fbb1780ac8e213128454a44285",
      "blockNumber": "0x1dea707",
      "gasUsed": "0xb536",
      "effectiveGasPrice": "0xf433e",
      "blobGasUsed": "0x9c40",
      "from": "0x84c29fb8b41f229ad09f4d68f84d676a28dc4a3a",
      "to": "0x82868da66735fcd28185b9befa9ff2aee4ba3fb8",
      "contractAddress": null
    },
    {
      "type": "0x2",
      "status": "0x1",
      "cumulativeGasUsed": "0x207dac",
      "logs": [
        {
          "address": "0x00e8f81208a33bf516cd7dd46e7597dfb40f5a25",
          "topics": [
            "0xddf252ad1be2c89b69c2b068fc378daa952ba7f163c4a11628f55a4df523b3ef",
            "0x00000000000000000000000084c29fb8b41f229ad09f4d68f84d676a28dc4a3a",
            "0x0000000000000000000000005095bff088bcecf56476dceaae45c52351b6ef2b"
          ],
          "data": "0x00000000000000000000000000000000000000000000152d02c7e14af6800000",
          "blockHash": "0x45531924a2f888629bddec50bdd13ba9a51423fbb1780ac8e213128454a44285",
          "blockNumber": "0x1dea707",
          "blockTimestamp": "0x6a609363",
          "transactionHash": "0x6c1c4b5f476b6d97c8985dfa4ae75355252d8b188bf5053cbbdb4fca25b989f6",
          "transactionIndex": "0x1a",
          "logIndex": "0x24",
          "removed": false
        },
        {
          "address": "0x82868da66735fcd28185b9befa9ff2aee4ba3fb8",
          "topics": [
            "0xddf252ad1be2c89b69c2b068fc378daa952ba7f163c4a11628f55a4df523b3ef",
            "0x00000000000000000000000084c29fb8b41f229ad09f4d68f84d676a28dc4a3a",
            "0x0000000000000000000000005095bff088bcecf56476dceaae45c52351b6ef2b"
          ],
          "data": "0x00000000000000000000000000000000000000000000152d02c7e14af6800000",
          "blockHash": "0x45531924a2f888629bddec50bdd13ba9a51423fbb1780ac8e213128454a44285",
          "blockNumber": "0x1dea707",
          "blockTimestamp": "0x6a609363",
          "transactionHash": "0x6c1c4b5f476b6d97c8985dfa4ae75355252d8b188bf5053cbbdb4fca25b989f6",
          "transactionIndex": "0x1a",
          "logIndex": "0x25",
          "removed": false
        },
        {
          "address": "0x5095bff088bcecf56476dceaae45c52351b6ef2b",
          "topics": [
            "0x36f3b2e1a21c19137dd82ec243b0708a1d26b3d1fa1dc49c44c4c366a5878138",
            "0x00000000000000000000000000e8f81208a33bf516cd7dd46e7597dfb40f5a25",
            "0x00000000000000000000000082868da66735fcd28185b9befa9ff2aee4ba3fb8"
          ],
          "data": "0x00000000000000000000000000000000000000000000152d02c7e14af680000000000000000000000000000000000000000000000000152d02c7e14af6800000",
          "blockHash": "0x45531924a2f888629bddec50bdd13ba9a51423fbb1780ac8e213128454a44285",
          "blockNumber": "0x1dea707",
          "blockTimestamp": "0x6a609363",
          "transactionHash": "0x6c1c4b5f476b6d97c8985dfa4ae75355252d8b188bf5053cbbdb4fca25b989f6",
          "transactionIndex": "0x1a",
          "logIndex": "0x26",
          "removed": false
        }
      ],
      "logsBloom": "0x40000000000000000000000000000000000000000000000000000000000000000020000000000000000000000000000000001000000000002010000000000000000000000000000000000048108000000000000000000010000000000000000000000000800000000000000001040000080000000000000000010010000000000000000000000001040000000004000000000000000000000000000000000000001000000000000000000000000002000000000000000000000000000000000004000002000000000000000000000000100000000000000000000000002000000000000000000000000000000000000000200000000000000000000000200000",
      "transactionHash": "0x6c1c4b5f476b6d97c8985dfa4ae75355252d8b188bf5053cbbdb4fca25b989f6",
      "transactionIndex": "0x1a",
      "blockHash": "0x45531924a2f888629bddec50bdd13ba9a51423fbb1780ac8e213128454a44285",
      "blockNumber": "0x1dea707",
      "gasUsed": "0x10602",
      "effectiveGasPrice": "0xf433e",
      "blobGasUsed": "0xb860",
      "from": "0x84c29fb8b41f229ad09f4d68f84d676a28dc4a3a",
      "to": "0x5095bff088bcecf56476dceaae45c52351b6ef2b",
      "contractAddress": null
    },
    {
      "type": "0x2",
      "status": "0x1",
      "cumulativeGasUsed": "0x2132e2",
      "logs": [
        {
          "address": "0x00e8f81208a33bf516cd7dd46e7597dfb40f5a25",
          "topics": [
            "0x8c5be1e5ebec7d5bd14f71427d1e84f3dd0314c0f7b2291e5b200ac8c7c3b925",
            "0x00000000000000000000000084c29fb8b41f229ad09f4d68f84d676a28dc4a3a",
            "0x0000000000000000000000005095bff088bcecf56476dceaae45c52351b6ef2b"
          ],
          "data": "0x00000000000000000000000000000000000000000000152d02c7e14af6800000",
          "blockHash": "0x45531924a2f888629bddec50bdd13ba9a51423fbb1780ac8e213128454a44285",
          "blockNumber": "0x1dea707",
          "blockTimestamp": "0x6a609363",
          "transactionHash": "0xd8374d4048b533936d887f07c7fabd0e345cef5327198baa0d48d2f675e0d247",
          "transactionIndex": "0x1b",
          "logIndex": "0x27",
          "removed": false
        }
      ],
      "logsBloom": "0x00000000000000000000000000000000000000000000000000000000000000000000000000000000000000000000000000001000000000000010000000200000000000000000000000000000108000000000000000000010000000000000000000000000800000000000000000000000000000000000000000010000000000000000000000000000000000000000000000000000000000000000000000000000020000000000000000000000000000000000000000000000000000000000000000000000000000000000000000000000000000000000000000000000002000000010000000000000000000000000000000200000000000000000000000000000",
      "transactionHash": "0xd8374d4048b533936d887f07c7fabd0e345cef5327198baa0d48d2f675e0d247",
      "transactionIndex": "0x1b",
      "blockHash": "0x45531924a2f888629bddec50bdd13ba9a51423fbb1780ac8e213128454a44285",
      "blockNumber": "0x1dea707",
      "gasUsed": "0xb536",
      "effectiveGasPrice": "0xf433e",
      "blobGasUsed": "0x9c40",
      "from": "0x84c29fb8b41f229ad09f4d68f84d676a28dc4a3a",
      "to": "0x00e8f81208a33bf516cd7dd46e7597dfb40f5a25",
      "contractAddress": null
    },
    {
      "type": "0x2",
      "status": "0x1",
      "cumulativeGasUsed": "0x21e818",
      "logs": [
        {
          "address": "0xeed497b085113e8c3fc563935582a72f90bde528",
          "topics": [
            "0x8c5be1e5ebec7d5bd14f71427d1e84f3dd0314c0f7b2291e5b200ac8c7c3b925",
            "0x00000000000000000000000084c29fb8b41f229ad09f4d68f84d676a28dc4a3a",
            "0x0000000000000000000000005095bff088bcecf56476dceaae45c52351b6ef2b"
          ],
          "data": "0x00000000000000000000000000000000000000000000152d02c7e14af6800000",
          "blockHash": "0x45531924a2f888629bddec50bdd13ba9a51423fbb1780ac8e213128454a44285",
          "blockNumber": "0x1dea707",
          "blockTimestamp": "0x6a609363",
          "transactionHash": "0x0eb9adc098fdf51e119ae42b9e43cc30b6f424e1f32aa524a8fde91313b0181f",
          "transactionIndex": "0x1c",
          "logIndex": "0x28",
          "removed": false
        }
      ],
      "logsBloom": "0x00000000000000000000000000000000000000000000000000000000000000000000000000000000000000000000000000001000080000000012000000200000000000000000000000000000100000000000000000000000000000000000000000000000800000000000000000000000000000000010000000010000000000000000000000000000000000000000000000000000000000000000000000000000020000000000000000000000000000000000000000000000000000000000000000000000000000000000000000000000000000000000000000000000000000000010000000000000000000000000000000200000000000000000000000000000",
      "transactionHash": "0x0eb9adc098fdf51e119ae42b9e43cc30b6f424e1f32aa524a8fde91313b0181f",
      "transactionIndex": "0x1c",
      "blockHash": "0x45531924a2f888629bddec50bdd13ba9a51423fbb1780ac8e213128454a44285",
      "blockNumber": "0x1dea707",
      "gasUsed": "0xb536",
      "effectiveGasPrice": "0xf433e",
      "blobGasUsed": "0x9c40",
      "from": "0x84c29fb8b41f229ad09f4d68f84d676a28dc4a3a",
      "to": "0xeed497b085113e8c3fc563935582a72f90bde528",
      "contractAddress": null
    },
    {
      "type": "0x2",
      "status": "0x1",
      "cumulativeGasUsed": "0x22ee1a",
      "logs": [
        {
          "address": "0x00e8f81208a33bf516cd7dd46e7597dfb40f5a25",
          "topics": [
            "0xddf252ad1be2c89b69c2b068fc378daa952ba7f163c4a11628f55a4df523b3ef",
            "0x00000000000000000000000084c29fb8b41f229ad09f4d68f84d676a28dc4a3a",
            "0x0000000000000000000000005095bff088bcecf56476dceaae45c52351b6ef2b"
          ],
          "data": "0x00000000000000000000000000000000000000000000152d02c7e14af6800000",
          "blockHash": "0x45531924a2f888629bddec50bdd13ba9a51423fbb1780ac8e213128454a44285",
          "blockNumber": "0x1dea707",
          "blockTimestamp": "0x6a609363",
          "transactionHash": "0x56660e0f5e5f2b6d8e87d47c7cf36cd9107a5ec76127c95af6367593ca0f2f1c",
          "transactionIndex": "0x1d",
          "logIndex": "0x29",
          "removed": false
        },
        {
          "address": "0xeed497b085113e8c3fc563935582a72f90bde528",
          "topics": [
            "0xddf252ad1be2c89b69c2b068fc378daa952ba7f163c4a11628f55a4df523b3ef",
            "0x00000000000000000000000084c29fb8b41f229ad09f4d68f84d676a28dc4a3a",
            "0x0000000000000000000000005095bff088bcecf56476dceaae45c52351b6ef2b"
          ],
          "data": "0x00000000000000000000000000000000000000000000152d02c7e14af6800000",
          "blockHash": "0x45531924a2f888629bddec50bdd13ba9a51423fbb1780ac8e213128454a44285",
          "blockNumber": "0x1dea707",
          "blockTimestamp": "0x6a609363",
          "transactionHash": "0x56660e0f5e5f2b6d8e87d47c7cf36cd9107a5ec76127c95af6367593ca0f2f1c",
          "transactionIndex": "0x1d",
          "logIndex": "0x2a",
          "removed": false
        },
        {
          "address": "0x5095bff088bcecf56476dceaae45c52351b6ef2b",
          "topics": [
            "0x36f3b2e1a21c19137dd82ec243b0708a1d26b3d1fa1dc49c44c4c366a5878138",
            "0x00000000000000000000000000e8f81208a33bf516cd7dd46e7597dfb40f5a25",
            "0x000000000000000000000000eed497b085113e8c3fc563935582a72f90bde528"
          ],
          "data": "0x00000000000000000000000000000000000000000000152d02c7e14af680000000000000000000000000000000000000000000000000152d02c7e14af6800000",
          "blockHash": "0x45531924a2f888629bddec50bdd13ba9a51423fbb1780ac8e213128454a44285",
          "blockNumber": "0x1dea707",
          "blockTimestamp": "0x6a609363",
          "transactionHash": "0x56660e0f5e5f2b6d8e87d47c7cf36cd9107a5ec76127c95af6367593ca0f2f1c",
          "transactionIndex": "0x1d",
          "logIndex": "0x2b",
          "removed": false
        }
      ],
      "logsBloom": "0x40000000000000000000000000000000000000000000000000000000000000000020000000000000000000000000000000001000080000080012000000000000000000000000000000000048108000000000000000000010000000000000000000000008800000000000000001040000080000000010000000010010000000000000000000000001000000000000000000000000000000000000000000000000000000000000000000000000000002000000000000040000000000000000000000000002000000000000000000000000000000000000000000000000002000000000000000000000000000000000000000200000000000000000000000200000",
      "transactionHash": "0x56660e0f5e5f2b6d8e87d47c7cf36cd9107a5ec76127c95af6367593ca0f2f1c",
      "transactionIndex": "0x1d",
      "blockHash": "0x45531924a2f888629bddec50bdd13ba9a51423fbb1780ac8e213128454a44285",
      "blockNumber": "0x1dea707",
      "gasUsed": "0x10602",
      "effectiveGasPrice": "0xf433e",
      "blobGasUsed": "0xb860",
      "from": "0x84c29fb8b41f229ad09f4d68f84d676a28dc4a3a",
      "to": "0x5095bff088bcecf56476dceaae45c52351b6ef2b",
      "contractAddress": null
    },
    {
      "type": "0x2",
      "status": "0x1",
      "cumulativeGasUsed": "0x23a350",
      "logs": [
        {
          "address": "0x263a171641882db6b48210e1ea477db3d1d34509",
          "topics": [
            "0x8c5be1e5ebec7d5bd14f71427d1e84f3dd0314c0f7b2291e5b200ac8c7c3b925",
            "0x00000000000000000000000084c29fb8b41f229ad09f4d68f84d676a28dc4a3a",
            "0x0000000000000000000000005095bff088bcecf56476dceaae45c52351b6ef2b"
          ],
          "data": "0x00000000000000000000000000000000000000000000152d02c7e14af6800000",
          "blockHash": "0x45531924a2f888629bddec50bdd13ba9a51423fbb1780ac8e213128454a44285",
          "blockNumber": "0x1dea707",
          "blockTimestamp": "0x6a609363",
          "transactionHash": "0x4c402a16004e364db4861ecf07d208a935ee2355248c890bf5da43004919974f",
          "transactionIndex": "0x1e",
          "logIndex": "0x2c",
          "removed": false
        }
      ],
      "logsBloom": "0x00000000000000000008000000000000000000000008000000000000000000000000000000000000000000000000000000001000000000000010000000200000000000000000000000000000100000000000000000000000000000000000000000000000800000000000000000000000000000000000000000010000000000000000000000000000000000000000000000000000000000000000000000000000020000000000000000000000000000000000000000000000000000000000000000000000000000000000000000000000000000000000000000000000000000000210000000000000000000000000000000200000000000000000000000000000",
      "transactionHash": "0x4c402a16004e364db4861ecf07d208a935ee2355248c890bf5da43004919974f",
      "transactionIndex": "0x1e",
      "blockHash": "0x45531924a2f888629bddec50bdd13ba9a51423fbb1780ac8e213128454a44285",
      "blockNumber": "0x1dea707",
      "gasUsed": "0xb536",
      "effectiveGasPrice": "0xf433e",
      "blobGasUsed": "0x9c40",
      "from": "0x84c29fb8b41f229ad09f4d68f84d676a28dc4a3a",
      "to": "0x263a171641882db6b48210e1ea477db3d1d34509",
      "contractAddress": null
    },
    {
      "type": "0x2",
      "status": "0x1",
      "cumulativeGasUsed": "0x245886",
      "logs": [
        {
          "address": "0x82868da66735fcd28185b9befa9ff2aee4ba3fb8",
          "topics": [
            "0x8c5be1e5ebec7d5bd14f71427d1e84f3dd0314c0f7b2291e5b200ac8c7c3b925",
            "0x00000000000000000000000084c29fb8b41f229ad09f4d68f84d676a28dc4a3a",
            "0x0000000000000000000000005095bff088bcecf56476dceaae45c52351b6ef2b"
          ],
          "data": "0x00000000000000000000000000000000000000000000152d02c7e14af6800000",
          "blockHash": "0x45531924a2f888629bddec50bdd13ba9a51423fbb1780ac8e213128454a44285",
          "blockNumber": "0x1dea707",
          "blockTimestamp": "0x6a609363",
          "transactionHash": "0x81a6f8249f4598df9344234d8e596804737d560449b41ca002b34d9479135d27",
          "transactionIndex": "0x1f",
          "logIndex": "0x2d",
          "removed": false
        }
      ],
      "logsBloom": "0x00000000000000000000000000000000000000000000000000000000000000000000000000000000000000000000000000001000000000000010000000200000000000000000000000000000100000000000000000000000000000000000000000000000800000000000000000000000000000000000000000010000000000000000000000000000040000000000000000000000000000000000000000000000021000000000000000000000000000000000000000000000000000000000000004000000000000000000000000000000000000000000000000000000000000000010000000000000000000000000000000200000000000000000000000000000",
      "transactionHash": "0x81a6f8249f4598df9344234d8e596804737d560449b41ca002b34d9479135d27",
      "transactionIndex": "0x1f",
      "blockHash": "0x45531924a2f888629bddec50bdd13ba9a51423fbb1780ac8e213128454a44285",
      "blockNumber": "0x1dea707",
      "gasUsed": "0xb536",
      "effectiveGasPrice": "0xf433e",
      "blobGasUsed": "0x9c40",
      "from": "0x84c29fb8b41f229ad09f4d68f84d676a28dc4a3a",
      "to": "0x82868da66735fcd28185b9befa9ff2aee4ba3fb8",
      "contractAddress": null
    },
    {
      "type": "0x2",
      "status": "0x1",
      "cumulativeGasUsed": "0x2773e8",
      "logs": [
        {
          "address": "0x263a171641882db6b48210e1ea477db3d1d34509",
          "topics": [
            "0xddf252ad1be2c89b69c2b068fc378daa952ba7f163c4a11628f55a4df523b3ef",
            "0x00000000000000000000000084c29fb8b41f229ad09f4d68f84d676a28dc4a3a",
            "0x0000000000000000000000005095bff088bcecf56476dceaae45c52351b6ef2b"
          ],
          "data": "0x00000000000000000000000000000000000000000000152d02c7e14af6800000",
          "blockHash": "0x45531924a2f888629bddec50bdd13ba9a51423fbb1780ac8e213128454a44285",
          "blockNumber": "0x1dea707",
          "blockTimestamp": "0x6a609363",
          "transactionHash": "0x1a03454c016aff0821f004a654c6dd4a4b77045db29fdc84df4e8723ecfba1d0",
          "transactionIndex": "0x21",
          "logIndex": "0x2e",
          "removed": false
        },
        {
          "address": "0x82868da66735fcd28185b9befa9ff2aee4ba3fb8",
          "topics": [
            "0xddf252ad1be2c89b69c2b068fc378daa952ba7f163c4a11628f55a4df523b3ef",
            "0x00000000000000000000000084c29fb8b41f229ad09f4d68f84d676a28dc4a3a",
            "0x0000000000000000000000005095bff088bcecf56476dceaae45c52351b6ef2b"
          ],
          "data": "0x00000000000000000000000000000000000000000000152d02c7e14af6800000",
          "blockHash": "0x45531924a2f888629bddec50bdd13ba9a51423fbb1780ac8e213128454a44285",
          "blockNumber": "0x1dea707",
          "blockTimestamp": "0x6a609363",
          "transactionHash": "0x1a03454c016aff0821f004a654c6dd4a4b77045db29fdc84df4e8723ecfba1d0",
          "transactionIndex": "0x21",
          "logIndex": "0x2f",
          "removed": false
        },
        {
          "address": "0x5095bff088bcecf56476dceaae45c52351b6ef2b",
          "topics": [
            "0x36f3b2e1a21c19137dd82ec243b0708a1d26b3d1fa1dc49c44c4c366a5878138",
            "0x000000000000000000000000263a171641882db6b48210e1ea477db3d1d34509",
            "0x00000000000000000000000082868da66735fcd28185b9befa9ff2aee4ba3fb8"
          ],
          "data": "0x00000000000000000000000000000000000000000000152d02c7e14af680000000000000000000000000000000000000000000000000152d02c7e14af6800000",
          "blockHash": "0x45531924a2f888629bddec50bdd13ba9a51423fbb1780ac8e213128454a44285",
          "blockNumber": "0x1dea707",
          "blockTimestamp": "0x6a609363",
          "transactionHash": "0x1a03454c016aff0821f004a654c6dd4a4b77045db29fdc84df4e8723ecfba1d0",
          "transactionIndex": "0x21",
          "logIndex": "0x30",
          "removed": false
        }
      ],
      "logsBloom": "0x40000000000000000008100000000000000000000008000000000000000000000020000000000000000000000000000000001000000000002010000000000000000000000000000000000008100000000000000000000000000000000000000000000000800000000000000001000000080002000000000000010010000000000000000000000000040000000004000000000000000000000000000000000000001000000000000000000000000002000000000000000000000000000000000004000002000000000000000000000000100000000000000000000000000000000200008000000000000000000000000000200000000000000000000000200000",
      "transactionHash": "0x1a03454c016aff0821f004a654c6dd4a4b77045db29fdc84df4e8723ecfba1d0",
      "transactionIndex": "0x21",
      "blockHash": "0x45531924a2f888629bddec50bdd13ba9a51423fbb1780ac8e213128454a44285",
      "blockNumber": "0x1dea707",
      "gasUsed": "0x1060e",
      "effectiveGasPrice": "0xf433e",
      "blobGasUsed": "0xb860",
      "from": "0x84c29fb8b41f229ad09f4d68f84d676a28dc4a3a",
      "to": "0x5095bff088bcecf56476dceaae45c52351b6ef2b",
      "contractAddress": null
    },
    {
      "type": "0x2",
      "status": "0x1",
      "cumulativeGasUsed": "0x28291e",
      "logs": [
        {
          "address": "0x263a171641882db6b48210e1ea477db3d1d34509",
          "topics": [
            "0x8c5be1e5ebec7d5bd14f71427d1e84f3dd0314c0f7b2291e5b200ac8c7c3b925",
            "0x00000000000000000000000084c29fb8b41f229ad09f4d68f84d676a28dc4a3a",
            "0x0000000000000000000000005095bff088bcecf56476dceaae45c52351b6ef2b"
          ],
          "data": "0x00000000000000000000000000000000000000000000152d02c7e14af6800000",
          "blockHash": "0x45531924a2f888629bddec50bdd13ba9a51423fbb1780ac8e213128454a44285",
          "blockNumber": "0x1dea707",
          "blockTimestamp": "0x6a609363",
          "transactionHash": "0x6bf6ea95f94516191087c6108f23943a89412e3c86b91841f54c679f8d2b7c85",
          "transactionIndex": "0x22",
          "logIndex": "0x31",
          "removed": false
        }
      ],
      "logsBloom": "0x00000000000000000008000000000000000000000008000000000000000000000000000000000000000000000000000000001000000000000010000000200000000000000000000000000000100000000000000000000000000000000000000000000000800000000000000000000000000000000000000000010000000000000000000000000000000000000000000000000000000000000000000000000000020000000000000000000000000000000000000000000000000000000000000000000000000000000000000000000000000000000000000000000000000000000210000000000000000000000000000000200000000000000000000000000000",
      "transactionHash": "0x6bf6ea95f94516191087c6108f23943a89412e3c86b91841f54c679f8d2b7c85",
      "transactionIndex": "0x22",
      "blockHash": "0x45531924a2f888629bddec50bdd13ba9a51423fbb1780ac8e213128454a44285",
      "blockNumber": "0x1dea707",
      "gasUsed": "0xb536",
      "effectiveGasPrice": "0xf433e",
      "blobGasUsed": "0x9c40",
      "from": "0x84c29fb8b41f229ad09f4d68f84d676a28dc4a3a",
      "to": "0x263a171641882db6b48210e1ea477db3d1d34509",
      "contractAddress": null
    },
    {
      "type": "0x2",
      "status": "0x1",
      "cumulativeGasUsed": "0x28de54",
      "logs": [
        {
          "address": "0xeed497b085113e8c3fc563935582a72f90bde528",
          "topics": [
            "0x8c5be1e5ebec7d5bd14f71427d1e84f3dd0314c0f7b2291e5b200ac8c7c3b925",
            "0x00000000000000000000000084c29fb8b41f229ad09f4d68f84d676a28dc4a3a",
            "0x0000000000000000000000005095bff088bcecf56476dceaae45c52351b6ef2b"
          ],
          "data": "0x00000000000000000000000000000000000000000000152d02c7e14af6800000",
          "blockHash": "0x45531924a2f888629bddec50bdd13ba9a51423fbb1780ac8e213128454a44285",
          "blockNumber": "0x1dea707",
          "blockTimestamp": "0x6a609363",
          "transactionHash": "0xa500a7ea0e2708a45c4b959da428e0bb3ced2d043c26171dccc4554a181eb3ac",
          "transactionIndex": "0x23",
          "logIndex": "0x32",
          "removed": false
        }
      ],
      "logsBloom": "0x00000000000000000000000000000000000000000000000000000000000000000000000000000000000000000000000000001000080000000012000000200000000000000000000000000000100000000000000000000000000000000000000000000000800000000000000000000000000000000010000000010000000000000000000000000000000000000000000000000000000000000000000000000000020000000000000000000000000000000000000000000000000000000000000000000000000000000000000000000000000000000000000000000000000000000010000000000000000000000000000000200000000000000000000000000000",
      "transactionHash": "0xa500a7ea0e2708a45c4b959da428e0bb3ced2d043c26171dccc4554a181eb3ac",
      "transactionIndex": "0x23",
      "blockHash": "0x45531924a2f888629bddec50bdd13ba9a51423fbb1780ac8e213128454a44285",
      "blockNumber": "0x1dea707",
      "gasUsed": "0xb536",
      "effectiveGasPrice": "0xf433e",
      "blobGasUsed": "0x9c40",
      "from": "0x84c29fb8b41f229ad09f4d68f84d676a28dc4a3a",
      "to": "0xeed497b085113e8c3fc563935582a72f90bde528",
      "contractAddress": null
    },
    {
      "type": "0x2",
      "status": "0x1",
      "cumulativeGasUsed": "0x29e462",
      "logs": [
        {
          "address": "0x263a171641882db6b48210e1ea477db3d1d34509",
          "topics": [
            "0xddf252ad1be2c89b69c2b068fc378daa952ba7f163c4a11628f55a4df523b3ef",
            "0x00000000000000000000000084c29fb8b41f229ad09f4d68f84d676a28dc4a3a",
            "0x0000000000000000000000005095bff088bcecf56476dceaae45c52351b6ef2b"
          ],
          "data": "0x00000000000000000000000000000000000000000000152d02c7e14af6800000",
          "blockHash": "0x45531924a2f888629bddec50bdd13ba9a51423fbb1780ac8e213128454a44285",
          "blockNumber": "0x1dea707",
          "blockTimestamp": "0x6a609363",
          "transactionHash": "0x36a0dcd00cbd03eb71e2288997701bd4f291941c2f995b4eee351c6b20713ee5",
          "transactionIndex": "0x24",
          "logIndex": "0x33",
          "removed": false
        },
        {
          "address": "0xeed497b085113e8c3fc563935582a72f90bde528",
          "topics": [
            "0xddf252ad1be2c89b69c2b068fc378daa952ba7f163c4a11628f55a4df523b3ef",
            "0x00000000000000000000000084c29fb8b41f229ad09f4d68f84d676a28dc4a3a",
            "0x0000000000000000000000005095bff088bcecf56476dceaae45c52351b6ef2b"
          ],
          "data": "0x00000000000000000000000000000000000000000000152d02c7e14af6800000",
          "blockHash": "0x45531924a2f888629bddec50bdd13ba9a51423fbb1780ac8e213128454a44285",
          "blockNumber": "0x1dea707",
          "blockTimestamp": "0x6a609363",
          "transactionHash": "0x36a0dcd00cbd03eb71e2288997701bd4f291941c2f995b4eee351c6b20713ee5",
          "transactionIndex": "0x24",
          "logIndex": "0x34",
          "removed": false
        },
        {
          "address": "0x5095bff088bcecf56476dceaae45c52351b6ef2b",
          "topics": [
            "0x36f3b2e1a21c19137dd82ec243b0708a1d26b3d1fa1dc49c44c4c366a5878138",
            "0x000000000000000000000000263a171641882db6b48210e1ea477db3d1d34509",
            "0x000000000000000000000000eed497b085113e8c3fc563935582a72f90bde528"
          ],
          "data": "0x00000000000000000000000000000000000000000000152d02c7e14af680000000000000000000000000000000000000000000000000152d02c7e14af6800000",
          "blockHash": "0x45531924a2f888629bddec50bdd13ba9a51423fbb1780ac8e213128454a44285",
          "blockNumber": "0x1dea707",
          "blockTimestamp": "0x6a609363",
          "transactionHash": "0x36a0dcd00cbd03eb71e2288997701bd4f291941c2f995b4eee351c6b20713ee5",
          "transactionIndex": "0x24",
          "logIndex": "0x35",
          "removed": false
        }
      ],
      "logsBloom": "0x40000000000000000008100000000000000000000008000000000000000000000020000000000000000000000000000000001000080000080012000000000000000000000000000000000008100000000000000000000000000000000000000000000008800000000000000001000000080002000010000000010010000000000000000000000000000000000000000000000000000000000000000000000000000000000000000000000000000002000000000000040000000000000000000000000002000000000000000000000000000000000000000000000000000000000200008000000000000000000000000000200000000000000000000000200000",
      "transactionHash": "0x36a0dcd00cbd03eb71e2288997701bd4f291941c2f995b4eee351c6b20713ee5",
      "transactionIndex": "0x24",
      "blockHash": "0x45531924a2f888629bddec50bdd13ba9a51423fbb1780ac8e213128454a44285",
      "blockNumber": "0x1dea707",
      "gasUsed": "0x1060e",
      "effectiveGasPrice": "0xf433e",
      "blobGasUsed": "0xb860",
      "from": "0x84c29fb8b41f229ad09f4d68f84d676a28dc4a3a",
      "to": "0x5095bff088bcecf56476dceaae45c52351b6ef2b",
      "contractAddress": null
    },
    {
      "type": "0x2",
      "status": "0x1",
      "cumulativeGasUsed": "0x2a9998",
      "logs": [
        {
          "address": "0x82868da66735fcd28185b9befa9ff2aee4ba3fb8",
          "topics": [
            "0x8c5be1e5ebec7d5bd14f71427d1e84f3dd0314c0f7b2291e5b200ac8c7c3b925",
            "0x00000000000000000000000084c29fb8b41f229ad09f4d68f84d676a28dc4a3a",
            "0x0000000000000000000000005095bff088bcecf56476dceaae45c52351b6ef2b"
          ],
          "data": "0x00000000000000000000000000000000000000000000152d02c7e14af6800000",
          "blockHash": "0x45531924a2f888629bddec50bdd13ba9a51423fbb1780ac8e213128454a44285",
          "blockNumber": "0x1dea707",
          "blockTimestamp": "0x6a609363",
          "transactionHash": "0x34a61106b55d3a491eeaf08576f031da14d83e5650d255874fc247a33391ea90",
          "transactionIndex": "0x25",
          "logIndex": "0x36",
          "removed": false
        }
      ],
      "logsBloom": "0x00000000000000000000000000000000000000000000000000000000000000000000000000000000000000000000000000001000000000000010000000200000000000000000000000000000100000000000000000000000000000000000000000000000800000000000000000000000000000000000000000010000000000000000000000000000040000000000000000000000000000000000000000000000021000000000000000000000000000000000000000000000000000000000000004000000000000000000000000000000000000000000000000000000000000000010000000000000000000000000000000200000000000000000000000000000",
      "transactionHash": "0x34a61106b55d3a491eeaf08576f031da14d83e5650d255874fc247a33391ea90",
      "transactionIndex": "0x25",
      "blockHash": "0x45531924a2f888629bddec50bdd13ba9a51423fbb1780ac8e213128454a44285",
      "blockNumber": "0x1dea707",
      "gasUsed": "0xb536",
      "effectiveGasPrice": "0xf433e",
      "blobGasUsed": "0x9c40",
      "from": "0x84c29fb8b41f229ad09f4d68f84d676a28dc4a3a",
      "to": "0x82868da66735fcd28185b9befa9ff2aee4ba3fb8",
      "contractAddress": null
    },
    {
      "type": "0x2",
      "status": "0x1",
      "cumulativeGasUsed": "0x2b4ece",
      "logs": [
        {
          "address": "0xeed497b085113e8c3fc563935582a72f90bde528",
          "topics": [
            "0x8c5be1e5ebec7d5bd14f71427d1e84f3dd0314c0f7b2291e5b200ac8c7c3b925",
            "0x00000000000000000000000084c29fb8b41f229ad09f4d68f84d676a28dc4a3a",
            "0x0000000000000000000000005095bff088bcecf56476dceaae45c52351b6ef2b"
          ],
          "data": "0x00000000000000000000000000000000000000000000152d02c7e14af6800000",
          "blockHash": "0x45531924a2f888629bddec50bdd13ba9a51423fbb1780ac8e213128454a44285",
          "blockNumber": "0x1dea707",
          "blockTimestamp": "0x6a609363",
          "transactionHash": "0x6d0e04b8d90850c36ef442837d7137ffe420d51fb6dbacbcfa8cf012ab328d97",
          "transactionIndex": "0x26",
          "logIndex": "0x37",
          "removed": false
        }
      ],
      "logsBloom": "0x00000000000000000000000000000000000000000000000000000000000000000000000000000000000000000000000000001000080000000012000000200000000000000000000000000000100000000000000000000000000000000000000000000000800000000000000000000000000000000010000000010000000000000000000000000000000000000000000000000000000000000000000000000000020000000000000000000000000000000000000000000000000000000000000000000000000000000000000000000000000000000000000000000000000000000010000000000000000000000000000000200000000000000000000000000000",
      "transactionHash": "0x6d0e04b8d90850c36ef442837d7137ffe420d51fb6dbacbcfa8cf012ab328d97",
      "transactionIndex": "0x26",
      "blockHash": "0x45531924a2f888629bddec50bdd13ba9a51423fbb1780ac8e213128454a44285",
      "blockNumber": "0x1dea707",
      "gasUsed": "0xb536",
      "effectiveGasPrice": "0xf433e",
      "blobGasUsed": "0x9c40",
      "from": "0x84c29fb8b41f229ad09f4d68f84d676a28dc4a3a",
      "to": "0xeed497b085113e8c3fc563935582a72f90bde528",
      "contractAddress": null
    },
    {
      "type": "0x2",
      "status": "0x1",
      "cumulativeGasUsed": "0x2c54dc",
      "logs": [
        {
          "address": "0x82868da66735fcd28185b9befa9ff2aee4ba3fb8",
          "topics": [
            "0xddf252ad1be2c89b69c2b068fc378daa952ba7f163c4a11628f55a4df523b3ef",
            "0x00000000000000000000000084c29fb8b41f229ad09f4d68f84d676a28dc4a3a",
            "0x0000000000000000000000005095bff088bcecf56476dceaae45c52351b6ef2b"
          ],
          "data": "0x00000000000000000000000000000000000000000000152d02c7e14af6800000",
          "blockHash": "0x45531924a2f888629bddec50bdd13ba9a51423fbb1780ac8e213128454a44285",
          "blockNumber": "0x1dea707",
          "blockTimestamp": "0x6a609363",
          "transactionHash": "0xcccebd522e889829be3fc80fe49d21ae3d98a96ee7f3659ed083b7ccdacba457",
          "transactionIndex": "0x27",
          "logIndex": "0x38",
          "removed": false
        },
        {
          "address": "0xeed497b085113e8c3fc563935582a72f90bde528",
          "topics": [
            "0xddf252ad1be2c89b69c2b068fc378daa952ba7f163c4a11628f55a4df523b3ef",
            "0x00000000000000000000000084c29fb8b41f229ad09f4d68f84d676a28dc4a3a",
            "0x0000000000000000000000005095bff088bcecf56476dceaae45c52351b6ef2b"
          ],
          "data": "0x00000000000000000000000000000000000000000000152d02c7e14af6800000",
          "blockHash": "0x45531924a2f888629bddec50bdd13ba9a51423fbb1780ac8e213128454a44285",
          "blockNumber": "0x1dea707",
          "blockTimestamp": "0x6a609363",
          "transactionHash": "0xcccebd522e889829be3fc80fe49d21ae3d98a96ee7f3659ed083b7ccdacba457",
          "transactionIndex": "0x27",
          "logIndex": "0x39",
          "removed": false
        },
        {
          "address": "0x5095bff088bcecf56476dceaae45c52351b6ef2b",
          "topics": [
            "0x36f3b2e1a21c19137dd82ec243b0708a1d26b3d1fa1dc49c44c4c366a5878138",
            "0x00000000000000000000000082868da66735fcd28185b9befa9ff2aee4ba3fb8",
            "0x000000000000000000000000eed497b085113e8c3fc563935582a72f90bde528"
          ],
          "data": "0x00000000000000000000000000000000000000000000152d02c7e14af680000000000000000000000000000000000000000000000000152d02c7e14af6800000",
          "blockHash": "0x45531924a2f888629bddec50bdd13ba9a51423fbb1780ac8e213128454a44285",
          "blockNumber": "0x1dea707",
          "blockTimestamp": "0x6a609363",
          "transactionHash": "0xcccebd522e889829be3fc80fe49d21ae3d98a96ee7f3659ed083b7ccdacba457",
          "transactionIndex": "0x27",
          "logIndex": "0x3a",
          "removed": false
        }
      ],
      "logsBloom": "0x40000000000000000000000000000000000000000000000000000000000000000020000000000000000000000000000000001000080000082012000000000000000000000000000000000008100000000000000000000000000000000000000000000008800000000000000001000000080000000010000000010010000000000000000000000000040000000004000000000000000000000000000000000000001000000000000000000000000002000000000000040000000000000000000004000002000000000000000000000000100000000000000000000000000000000000000000000000000000000000000000200000000000000000000000200000",
      "transactionHash": "0xcccebd522e889829be3fc80fe49d21ae3d98a96ee7f3659ed083b7ccdacba457",
      "transactionIndex": "0x27",
      "blockHash": "0x45531924a2f888629bddec50bdd13ba9a51423fbb1780ac8e213128454a44285",
      "blockNumber": "0x1dea707",
      "gasUsed": "0x1060e",
      "effectiveGasPrice": "0xf433e",
      "blobGasUsed": "0xb860",
      "from": "0x84c29fb8b41f229ad09f4d68f84d676a28dc4a3a",
      "to": "0x5095bff088bcecf56476dceaae45c52351b6ef2b",
      "contractAddress": null
    }
  ],
  "libraries": [],
  "pending": [],
  "returns": {},
  "timestamp": 1784714090578,
  "chain": 91342,
  "commit": "49b19a6"
}