{
  "transactions": [
    {
      "hash": "0xed01ff6b14724afd1fdda02daf3d52a7c13d8ce95166033eb4233f6ef5bece15",
      "transactionType": "CREATE",
      "contractName": "GVF",
      "contractAddress": "0x26a16180414c553c3e8f8f7e2acbc3cd9bb03d9f",
      "function": null,
      "arguments": null,
      "transaction": {
        "from": "0x84c29fb8b41f229ad09f4d68f84d676a28dc4a3a",
        "to": null,
        "gas": "0xcaa46",
        "value": "0x0",
        "input": "0x608060405234801561000f575f5ffd5b50336040518060400160405280601781526020017f47697761566572696669656420476f7665726e616e63650000000000000000008152506040518060400160405280600381526020016223ab2360e91b815250816003908161007291906101a7565b50600461007f82826101a7565b5050506001600160a01b0381166100af57604051631e4fbdf760e01b81525f600482015260240160405180910390fd5b6100b8816100be565b50610261565b600580546001600160a01b038381166001600160a01b0319831681179093556040519116919082907f8be0079c531659141344cd1fd0a4f28419497f9722a3daafe3b4186f6b6457e0905f90a35050565b634e487b7160e01b5f52604160045260245ffd5b600181811c9082168061013757607f821691505b60208210810361015557634e487b7160e01b5f52602260045260245ffd5b50919050565b601f8211156101a257805f5260205f20601f840160051c810160208510156101805750805b601f840160051c820191505b8181101561019f575f815560010161018c565b50505b505050565b81516001600160401b038111156101c0576101c061010f565b6101d4816101ce8454610123565b8461015b565b6020601f821160018114610206575f83156101ef5750848201515b5f19600385901b1c1916600184901b17845561019f565b5f84815260208120601f198516915b828110156102355787850151825560209485019460019092019101610215565b508482101561025257868401515f19600387901b60f8161c191681555b50505050600190811b01905550565b6109288061026e5f395ff3fe608060405234801561000f575f5ffd5b50600436106100f0575f3560e01c806370a0823111610093578063a9059cbb11610063578063a9059cbb146101f2578063dd62ed3e14610205578063f2fde38b1461023d578063fca3b5aa14610250575f5ffd5b806370a08231146101a9578063715018a6146101d15780638da5cb5b146101d957806395d89b41146101ea575f5ffd5b806318160ddd116100ce57806318160ddd1461016057806323b872dd14610172578063313ce5671461018557806340c10f1914610194575f5ffd5b806306fdde03146100f45780630754617214610112578063095ea7b31461013d575b5f5ffd5b6100fc610263565b6040516101099190610798565b60405180910390f35b600654610125906001600160a01b031681565b6040516001600160a01b039091168152602001610109565b61015061014b3660046107e8565b6102f3565b6040519015158152602001610109565b6002545b604051908152602001610109565b610150610180366004610810565b61030c565b60405160128152602001610109565b6101a76101a23660046107e8565b61032f565b005b6101646101b736600461084a565b6001600160a01b03165f9081526020819052604090205490565b6101a7610368565b6005546001600160a01b0316610125565b6100fc61037b565b6101506102003660046107e8565b61038a565b61016461021336600461086a565b6001600160a01b039182165f90815260016020908152604080832093909416825291909152205490565b6101a761024b36600461084a565b610397565b6101a761025e36600461084a565b6103d9565b6060600380546102729061089b565b80601f016020809104026020016040519081016040528092919081815260200182805461029e9061089b565b80156102e95780601f106102c0576101008083540402835291602001916102e9565b820191905f5260205f20905b8154815290600101906020018083116102cc57829003601f168201915b5050505050905090565b5f33610300818585610403565b60019150505b92915050565b5f33610319858285610415565b610324858585610491565b506001949350505050565b6006546001600160a01b0316331461035a57604051633e34a41b60e21b815260040160405180910390fd5b61036482826104ee565b5050565b610370610522565b6103795f61054f565b565b6060600480546102729061089b565b5f33610300818585610491565b61039f610522565b6001600160a01b0381166103cd57604051631e4fbdf760e01b81525f60048201526024015b60405180910390fd5b6103d68161054f565b50565b6103e1610522565b600680546001600160a01b0319166001600160a01b0392909216919091179055565b61041083838360016105a0565b505050565b6001600160a01b038381165f908152600160209081526040808320938616835292905220545f1981101561048b578181101561047d57604051637dc7a0d960e11b81526001600160a01b038416600482015260248101829052604481018390526064016103c4565b61048b84848484035f6105a0565b50505050565b6001600160a01b0383166104ba57604051634b637e8f60e11b81525f60048201526024016103c4565b6001600160a01b0382166104e35760405163ec442f0560e01b81525f60048201526024016103c4565b610410838383610672565b6001600160a01b0382166105175760405163ec442f0560e01b81525f60048201526024016103c4565b6103645f8383610672565b6005546001600160a01b031633146103795760405163118cdaa760e01b81523360048201526024016103c4565b600580546001600160a01b038381166001600160a01b0319831681179093556040519116919082907f8be0079c531659141344cd1fd0a4f28419497f9722a3daafe3b4186f6b6457e0905f90a35050565b6001600160a01b0384166105c95760405163e602df0560e01b81525f60048201526024016103c4565b6001600160a01b0383166105f257604051634a1406b160e11b81525f60048201526024016103c4565b6001600160a01b038085165f908152600160209081526040808320938716835292905220829055801561048b57826001600160a01b0316846001600160a01b03167f8c5be1e5ebec7d5bd14f71427d1e84f3dd0314c0f7b2291e5b200ac8c7c3b9258460405161066491815260200190565b60405180910390a350505050565b6001600160a01b03831661069c578060025f82825461069191906108d3565b9091555061070c9050565b6001600160a01b0383165f90815260208190526040902054818110156106ee5760405163391434e360e21b81526001600160a01b038516600482015260248101829052604481018390526064016103c4565b6001600160a01b0384165f9081526020819052604090209082900390555b6001600160a01b03821661072857600280548290039055610746565b6001600160a01b0382165f9081526020819052604090208054820190555b816001600160a01b0316836001600160a01b03167fddf252ad1be2c89b69c2b068fc378daa952ba7f163c4a11628f55a4df523b3ef8360405161078b91815260200190565b60405180910390a3505050565b602081525f82518060208401528060208501604085015e5f604082850101526040601f19601f83011684010191505092915050565b80356001600160a01b03811681146107e3575f5ffd5b919050565b5f5f604083850312156107f9575f5ffd5b610802836107cd565b946020939093013593505050565b5f5f5f60608486031215610822575f5ffd5b61082b846107cd565b9250610839602085016107cd565b929592945050506040919091013590565b5f6020828403121561085a575f5ffd5b610863826107cd565b9392505050565b5f5f6040838503121561087b575f5ffd5b610884836107cd565b9150610892602084016107cd565b90509250929050565b600181811c908216806108af57607f821691505b6020821081036108cd57634e487b7160e01b5f52602260045260245ffd5b50919050565b8082018082111561030657634e487b7160e01b5f52601160045260245ffdfea264697066735822122036cd957385e9a6f85739c4a247e36a1885bd45293834879d8935469ffa8006f764736f6c634300081c0033",
        "nonce": "0x85",
        "chainId": "0x164ce"
      },
      "additionalContracts": [],
      "isFixedGasLimit": false
    },
    {
      "hash": "0x6b6aaa49318c06f1e9a7a3ac6057f0363f242d85194a8e9805ba5e9577b3d636",
      "transactionType": "CREATE",
      "contractName": "GiwaGovernanceBadge",
      "contractAddress": "0xfc4280f72da48570549d9cb3825d10e6ca2c131f",
      "function": null,
      "arguments": null,
      "transaction": {
        "from": "0x84c29fb8b41f229ad09f4d68f84d676a28dc4a3a",
        "to": null,
        "gas": "0x166089",
        "value": "0x0",
        "input": "0x608060405234801561000f575f5ffd5b503360405180606001604052806021815260200161137f6021913960408051808201909152600581526423ab23a7ab60d91b60208201525f6100518382610186565b50600161005e8282610186565b5050506001600160a01b03811661008e57604051631e4fbdf760e01b81525f600482015260240160405180910390fd5b6100978161009d565b50610240565b600680546001600160a01b038381166001600160a01b0319831681179093556040519116919082907f8be0079c531659141344cd1fd0a4f28419497f9722a3daafe3b4186f6b6457e0905f90a35050565b634e487b7160e01b5f52604160045260245ffd5b600181811c9082168061011657607f821691505b60208210810361013457634e487b7160e01b5f52602260045260245ffd5b50919050565b601f82111561018157805f5260205f20601f840160051c8101602085101561015f5750805b601f840160051c820191505b8181101561017e575f815560010161016b565b50505b505050565b81516001600160401b0381111561019f5761019f6100ee565b6101b3816101ad8454610102565b8461013a565b6020601f8211600181146101e5575f83156101ce5750848201515b5f19600385901b1c1916600184901b17845561017e565b5f84815260208120601f198516915b8281101561021457878501518255602094850194600190920191016101f4565b508482101561023157868401515f19600387901b60f8161c191681555b50505050600190811b01905550565b6111328061024d5f395ff3fe608060405234801561000f575f5ffd5b5060043610610127575f3560e01c806370a08231116100a9578063b88d4fde1161006e578063b88d4fde14610260578063c87b56dd14610273578063e985e9c514610286578063f2fde38b14610299578063fca3b5aa146102ac575f5ffd5b806370a0823114610219578063715018a61461022c5780638da5cb5b1461023457806395d89b4114610245578063a22cb4651461024d575f5ffd5b806318160ddd116100ef57806318160ddd146101bb57806321a1bf2c146101cd57806323b872dd146101e057806342842e0e146101f35780636352211e14610206575f5ffd5b806301ffc9a71461012b57806306fdde03146101535780630754617214610168578063081812fc14610193578063095ea7b3146101a6575b5f5ffd5b61013e610139366004610cb3565b6102bf565b60405190151581526020015b60405180910390f35b61015b610310565b60405161014a9190610d03565b60075461017b906001600160a01b031681565b6040516001600160a01b03909116815260200161014a565b61017b6101a1366004610d15565b61039f565b6101b96101b4366004610d42565b6103c6565b005b6008545b60405190815260200161014a565b6101bf6101db366004610d6a565b6103d5565b6101b96101ee366004610d83565b61044e565b6101b9610201366004610d83565b6104d7565b61017b610214366004610d15565b6104f6565b6101bf610227366004610d6a565b610500565b6101b9610545565b6006546001600160a01b031661017b565b61015b610558565b6101b961025b366004610dbd565b610567565b6101b961026e366004610e0a565b610572565b61015b610281366004610d15565b61058a565b61013e610294366004610ee7565b6105ae565b6101b96102a7366004610d6a565b6105db565b6101b96102ba366004610d6a565b610618565b5f6001600160e01b031982166380ac58cd60e01b14806102ef57506001600160e01b03198216635b5e139f60e01b145b8061030a57506301ffc9a760e01b6001600160e01b03198316145b92915050565b60605f805461031e90610f18565b80601f016020809104026020016040519081016040528092919081815260200182805461034a90610f18565b80156103955780601f1061036c57610100808354040283529160200191610395565b820191905f5260205f20905b81548152906001019060200180831161037857829003601f168201915b5050505050905090565b5f6103a982610642565b505f828152600460205260409020546001600160a01b031661030a565b6103d182823361067a565b5050565b6007545f906001600160a01b031633146104245760405162461bcd60e51b815260206004820152600b60248201526a27b7363c9036b4b73a32b960a91b60448201526064015b60405180910390fd5b60088054905f61043383610f50565b919050555061044482600854610687565b506008545b919050565b6001600160a01b03821661047757604051633250574960e11b81525f600482015260240161041b565b5f6104838383336106a0565b9050836001600160a01b0316816001600160a01b0316146104d1576040516364283d7b60e01b81526001600160a01b038086166004830152602482018490528216604482015260640161041b565b50505050565b6104f183838360405180602001604052805f815250610572565b505050565b5f61030a82610642565b5f6001600160a01b03821661052a576040516322718ad960e21b81525f600482015260240161041b565b506001600160a01b03165f9081526003602052604090205490565b61054d6106fe565b6105565f61072b565b565b60606001805461031e90610f18565b6103d133838361077c565b61057d84848461044e565b6104d13385858585610843565b60606040518061016001604052806101318152602001610fcc610131913992915050565b6001600160a01b039182165f90815260056020908152604080832093909416825291909152205460ff1690565b6105e36106fe565b6001600160a01b03811661060c57604051631e4fbdf760e01b81525f600482015260240161041b565b6106158161072b565b50565b6106206106fe565b600780546001600160a01b0319166001600160a01b0392909216919091179055565b5f818152600260205260408120546001600160a01b03168061030a57604051637e27328960e01b81526004810184905260240161041b565b6104f1838383600161096b565b6103d1828260405180602001604052805f815250610a6f565b5f828152600260205260408120546001600160a01b0316158015906106cd57506001600160a01b03841615155b156106eb5760405163a4420a9560e01b815260040160405180910390fd5b6106f6848484610a86565b949350505050565b6006546001600160a01b031633146105565760405163118cdaa760e01b815233600482015260240161041b565b600680546001600160a01b038381166001600160a01b0319831681179093556040519116919082907f8be0079c531659141344cd1fd0a4f28419497f9722a3daafe3b4186f6b6457e0905f90a35050565b6001600160a01b0383166107a55760405163a9fbf51f60e01b81525f600482015260240161041b565b6001600160a01b0382166107d757604051630b61174360e31b81526001600160a01b038316600482015260240161041b565b6001600160a01b038381165f81815260056020908152604080832094871680845294825291829020805460ff191686151590811790915591519182527f17307eab39ab6107e8899845ad3d59bd9653f200f220920489ca2b5937696c31910160405180910390a3505050565b6001600160a01b0383163b1561096457604051630a85bd0160e11b81526001600160a01b0384169063150b7a0290610885908890889087908790600401610f74565b6020604051808303815f875af19250505080156108bf575060408051601f3d908101601f191682019092526108bc91810190610fb0565b60015b610926573d8080156108ec576040519150601f19603f3d011682016040523d82523d5f602084013e6108f1565b606091505b5080515f0361091e57604051633250574960e11b81526001600160a01b038516600482015260240161041b565b805160208201fd5b6001600160e01b03198116630a85bd0160e11b1461096257604051633250574960e11b81526001600160a01b038516600482015260240161041b565b505b5050505050565b808061097f57506001600160a01b03821615155b15610a40575f61098e84610642565b90506001600160a01b038316158015906109ba5750826001600160a01b0316816001600160a01b031614155b80156109cd57506109cb81846105ae565b155b156109f65760405163a9fbf51f60e01b81526001600160a01b038416600482015260240161041b565b8115610a3e5783856001600160a01b0316826001600160a01b03167f8c5be1e5ebec7d5bd14f71427d1e84f3dd0314c0f7b2291e5b200ac8c7c3b92560405160405180910390a45b505b50505f90815260046020526040902080546001600160a01b0319166001600160a01b0392909216919091179055565b610a798383610b78565b6104f1335f858585610843565b5f828152600260205260408120546001600160a01b0390811690831615610ab257610ab2818486610bd9565b6001600160a01b03811615610aec57610acd5f855f5f61096b565b6001600160a01b0381165f90815260036020526040902080545f190190555b6001600160a01b03851615610b1a576001600160a01b0385165f908152600360205260409020805460010190555b5f8481526002602052604080822080546001600160a01b0319166001600160a01b0389811691821790925591518793918516917fddf252ad1be2c89b69c2b068fc378daa952ba7f163c4a11628f55a4df523b3ef91a4949350505050565b6001600160a01b038216610ba157604051633250574960e11b81525f600482015260240161041b565b5f610bad83835f6106a0565b90506001600160a01b038116156104f1576040516339e3563760e11b81525f600482015260240161041b565b610be4838383610c3d565b6104f1576001600160a01b038316610c1257604051637e27328960e01b81526004810182905260240161041b565b60405163177e802f60e01b81526001600160a01b03831660048201526024810182905260440161041b565b5f6001600160a01b038316158015906106f65750826001600160a01b0316846001600160a01b03161480610c765750610c7684846105ae565b806106f65750505f908152600460205260409020546001600160a01b03908116911614919050565b6001600160e01b031981168114610615575f5ffd5b5f60208284031215610cc3575f5ffd5b8135610cce81610c9e565b9392505050565b5f81518084528060208401602086015e5f602082860101526020601f19601f83011685010191505092915050565b602081525f610cce6020830184610cd5565b5f60208284031215610d25575f5ffd5b5035919050565b80356001600160a01b0381168114610449575f5ffd5b5f5f60408385031215610d53575f5ffd5b610d5c83610d2c565b946020939093013593505050565b5f60208284031215610d7a575f5ffd5b610cce82610d2c565b5f5f5f60608486031215610d95575f5ffd5b610d9e84610d2c565b9250610dac60208501610d2c565b929592945050506040919091013590565b5f5f60408385031215610dce575f5ffd5b610dd783610d2c565b915060208301358015158114610deb575f5ffd5b809150509250929050565b634e487b7160e01b5f52604160045260245ffd5b5f5f5f5f60808587031215610e1d575f5ffd5b610e2685610d2c565b9350610e3460208601610d2c565b925060408501359150606085013567ffffffffffffffff811115610e56575f5ffd5b8501601f81018713610e66575f5ffd5b803567ffffffffffffffff811115610e8057610e80610df6565b604051601f8201601f19908116603f0116810167ffffffffffffffff81118282101715610eaf57610eaf610df6565b604052818152828201602001891015610ec6575f5ffd5b816020840160208301375f6020838301015280935050505092959194509250565b5f5f60408385031215610ef8575f5ffd5b610f0183610d2c565b9150610f0f60208401610d2c565b90509250929050565b600181811c90821680610f2c57607f821691505b602082108103610f4a57634e487b7160e01b5f52602260045260245ffd5b50919050565b5f60018201610f6d57634e487b7160e01b5f52601160045260245ffd5b5060010190565b6001600160a01b03858116825284166020820152604081018390526080606082018190525f90610fa690830184610cd5565b9695505050505050565b5f60208284031215610fc0575f5ffd5b8151610cce81610c9e56fe646174613a6170706c69636174696f6e2f6a736f6e3b6261736536342c65794a755957316c496a6f6952326c3359565a6c636d6c6d6553424862335a6c636d3568626d4e6c49464268636e527059326c7759573530496977695a47567a59334a7063485270623234694f694a5561476c7a4947357662693130636d467563325a6c636d466962475567596d466b5a32556761584d6759586468636d526c5a43423062794233595778735a58527a4948526f595851676347467964476c6a6158426864475567615734675a3239325a584a755957356a5a534276626942306147556752326c3359565a6c636d6c6d6553426c5932397a65584e305a573075494539755a5342326233526c4c434276626d5567596d466b5a3255754969776959585230636d6c696458526c6379493657313139a2646970667358221220ad6407d931973511e1535378a3ac700f75d96a9e28021aee0b016221fe4bc9e764736f6c634300081c00334769776156657269667920476f7665726e616e6365205061727469636970616e74",
        "nonce": "0x86",
        "chainId": "0x164ce"
      },
      "additionalContracts": [],
      "isFixedGasLimit": false
    },
    {
      "hash": "0xc9cd8d8c5d8f25b309866e73be3a852222a8ef89f0fbc603ede48b8cda91488a",
      "transactionType": "CREATE",
      "contractName": "GiwaVote",
      "contractAddress": "0x6fadcf1665a2916fe2a291708280f8f7971a372f",
      "function": null,
      "arguments": [
        "0x7893e1AcaeEDADFC4fa4a88e9E83a65e4C5BF19e",
        "0xd99b42e778498aa3c9c1f6a012359130252780511687a35982e8e52735453034"
      ],
      "transaction": {
        "from": "0x84c29fb8b41f229ad09f4d68f84d676a28dc4a3a",
        "to": null,
        "gas": "0x1d12f8",
        "value": "0x0",
        "input": "0x6080604052348015600e575f5ffd5b50604051611924380380611924833981016040819052602b9160a6565b6001600160a01b03821660775760405162461bcd60e51b815260206004820152601060248201526f24b73b30b634b2103b32b934b334b2b960811b604482015260640160405180910390fd5b5f80546001600160a01b039093166001600160a01b0319938416179055600155600480549091163317905560db565b5f5f6040838503121560b6575f5ffd5b82516001600160a01b038116811460cb575f5ffd5b6020939093015192949293505050565b61183c806100e85f395ff3fe608060405234801561000f575f5ffd5b5060043610610127575f3560e01c80637de418d5116100a9578063c7f758a81161006e578063c7f758a8146102e4578063c9d27afe14610304578063da35c66414610317578063fbccbdc814610320578063ff967e2e14610342575f5ffd5b80637de418d5146102995780638da5cb5b146102a257806391d768de146102b557806392389453146102c8578063b24aaebc146102d1575f5ffd5b806343859632116100ef57806343859632146101cc5780635c622a0e146102095780635e3b43651461022e578063600303d81461024e57806365e481e214610286575f5ffd5b8063013cf08b1461012b57806309be02821461015d57806327ab7ff4146101725780632b7ac3f31461018f5780633bf74da7146101b9575b5f5ffd5b61013e610139366004611273565b610355565b6040516101549a999897969594939291906112b8565b60405180910390f35b61017061016b366004611348565b6104bd565b005b610181678ac7230489e8000081565b604051908152602001610154565b5f546101a1906001600160a01b031681565b6040516001600160a01b039091168152602001610154565b6003546101a1906001600160a01b031681565b6101f96101da366004611368565b600860209081525f928352604080842090915290825290205460ff1681565b6040519015158152602001610154565b61021c610217366004611273565b610512565b60405160ff9091168152602001610154565b61024161023c366004611392565b6105a0565b604051610154919061145d565b6101f961025c366004611368565b5f9182526008602090815260408084206001600160a01b0393909316845291905290205460ff1690565b610170610294366004611505565b610851565b61018160065481565b6004546101a1906001600160a01b031681565b6002546101a1906001600160a01b031681565b61018160015481565b6101706102df366004611273565b610a9d565b6102f76102f2366004611273565b610bbb565b6040516101549190611571565b610170610312366004611593565b610daf565b61018160055481565b6101f961032e366004611348565b60096020525f908152604090205460ff1681565b610170610350366004611348565b6111d1565b60076020525f908152604090208054600182015460028301805492936001600160a01b0390921692610386906115c1565b80601f01602080910402602001604051908101604052809291908181526020018280546103b2906115c1565b80156103fd5780601f106103d4576101008083540402835291602001916103fd565b820191905f5260205f20905b8154815290600101906020018083116103e057829003601f168201915b505050505090806003018054610412906115c1565b80601f016020809104026020016040519081016040528092919081815260200182805461043e906115c1565b80156104895780601f1061046057610100808354040283529160200191610489565b820191905f5260205f20905b81548152906001019060200180831161046c57829003601f168201915b50505060048401546005850154600686015460078701546008880154600990980154969793969295509093509160ff16908a565b6004546001600160a01b031633146104f05760405162461bcd60e51b81526004016104e7906115f9565b60405180910390fd5b600380546001600160a01b0319166001600160a01b0392909216919091179055565b5f5f8211801561052457506005548211155b61055d5760405162461bcd60e51b815260206004820152600a602482015269125b9d985b1a59081a5960b21b60448201526064016104e7565b5f828152600760205260409020600581015442101561057e57505f92915050565b8060070154816006015411156105975750600192915050565b50600292915050565b606060055483106105e357604080515f80825260208201909252906105db565b6105c861121d565b8152602001906001900390816105c05790505b50905061084b565b5f6105ee8385611644565b90506005548111156105ff57506005545b5f61060a8583611657565b90505f8167ffffffffffffffff8111156106265761062661161c565b60405190808252806020026020018201604052801561065f57816020015b61064c61121d565b8152602001906001900390816106445790505b5090505f5b828110156108455760075f610679838a611644565b610684906001611644565b815260208082019290925260409081015f208151610140810183528154815260018201546001600160a01b03169381019390935260028101805491928401916106cc906115c1565b80601f01602080910402602001604051908101604052809291908181526020018280546106f8906115c1565b80156107435780601f1061071a57610100808354040283529160200191610743565b820191905f5260205f20905b81548152906001019060200180831161072657829003601f168201915b5050505050815260200160038201805461075c906115c1565b80601f0160208091040260200160405190810160405280929190818152602001828054610788906115c1565b80156107d35780601f106107aa576101008083540402835291602001916107d3565b820191905f5260205f20905b8154815290600101906020018083116107b657829003601f168201915b505050918352505060048201546020820152600582015460408201526006820154606082015260078201546080820152600882015460ff16151560a082015260099091015460c09091015282518390839081106108325761083261166a565b6020908102919091010152600101610664565b50925050505b92915050565b6004546001600160a01b0316331461087b5760405162461bcd60e51b81526004016104e7906115f9565b826108b65760405162461bcd60e51b815260206004820152600b60248201526a456d707479207469746c6560a81b60448201526064016104e7565b60058054905f6108c58361167e565b91905055506040518061014001604052806005548152602001336001600160a01b0316815260200185858080601f0160208091040260200160405190810160405280939291908181526020018383808284375f92019190915250505090825250604080516020601f8601819004810282018101909252848152918101919085908590819084018382808284375f92019190915250505090825250426020820181905260409091019061097a906213c680611644565b81525f602080830182905260408084018390526060840183905260809093018290526005548252600781529082902083518155908301516001820180546001600160a01b0319166001600160a01b039092169190911790559082015160028201906109e590826116e2565b50606082015160038201906109fa90826116e2565b506080820151600482015560a082015160058083019190915560c0830151600683015560e0830151600783015561010083015160088301805460ff1916911515919091179055610120909201516009909101555433907f98120a6aaa04295520ab4e01c6c1235dd316e822cc9ff31db7b3f197366d18bd8686610a80426213c680611644565b604051610a8f9392919061179d565b60405180910390a350505050565b6004546001600160a01b03163314610ac75760405162461bcd60e51b81526004016104e7906115f9565b5f8181526007602052604081208054909103610b1a5760405162461bcd60e51b8152602060048201526012602482015271141c9bdc1bdcd85b081b9bdd08199bdd5b9960721b60448201526064016104e7565b600881015460ff1615610b655760405162461bcd60e51b8152602060048201526013602482015272105b1c9958591e481a5b5c1b195b595b9d1959606a1b60448201526064016104e7565b60088101805460ff19166001179055426009820181905560405183917f022c5894f70637e46c49debc0376ce8c5fa29222787feeaa2e9af248617325fe91610baf91815260200190565b60405180910390a25050565b610bc361121d565b5f82118015610bd457506005548211155b610c0d5760405162461bcd60e51b815260206004820152600a602482015269125b9d985b1a59081a5960b21b60448201526064016104e7565b5f828152600760209081526040918290208251610140810184528154815260018201546001600160a01b0316928101929092526002810180549293919291840191610c57906115c1565b80601f0160208091040260200160405190810160405280929190818152602001828054610c83906115c1565b8015610cce5780601f10610ca557610100808354040283529160200191610cce565b820191905f5260205f20905b815481529060010190602001808311610cb157829003601f168201915b50505050508152602001600382018054610ce7906115c1565b80601f0160208091040260200160405190810160405280929190818152602001828054610d13906115c1565b8015610d5e5780601f10610d3557610100808354040283529160200191610d5e565b820191905f5260205f20905b815481529060010190602001808311610d4157829003601f168201915b505050918352505060048201546020820152600582015460408201526006820154606082015260078201546080820152600882015460ff16151560a082015260099091015460c09091015292915050565b5f5460015460405163ba03e20560e01b815233600482015260248101919091526001600160a01b039091169063ba03e20590604401602060405180830381865afa158015610dff573d5f5f3e3d5ffd5b505050506040513d601f19601f82011682018060405250810190610e2391906117d4565b610e5e5760405162461bcd60e51b815260206004820152600c60248201526b139bdd081d995c9a599a595960a21b60448201526064016104e7565b5f82815260076020526040902060058101544210610ead5760405162461bcd60e51b815260206004820152600c60248201526b159bdd1a5b99c8195b99195960a21b60448201526064016104e7565b5f83815260086020908152604080832033845290915290205460ff1615610f065760405162461bcd60e51b815260206004820152600d60248201526c105b1c9958591e481d9bdd1959609a1b60448201526064016104e7565b80545f03610f4b5760405162461bcd60e51b8152602060048201526012602482015271141c9bdc1bdcd85b081b9bdd08199bdd5b9960721b60448201526064016104e7565b5f8381526008602090815260408083203384529091529020805460ff191660011790558115610f8f57600681018054905f610f858361167e565b9190505550610fa6565b600781018054905f610fa08361167e565b91905055505b60068054905f610fb58361167e565b9091555050335f9081526009602052604090205460ff16158015610fe357506002546001600160a01b031615155b156110ae57335f81815260096020526040808220805460ff1916600117905560025490516308686fcb60e21b8152600481019390935290916001600160a01b03909116906321a1bf2c906024016020604051808303815f875af115801561104c573d5f5f3e3d5ffd5b505050506040513d601f19601f8201168201806040525081019061107091906117ef565b60405181815290915033907fc5e5b314108c1f776c2302351b8278910ddb812b122b2717b1bc973146145e9a9060200160405180910390a2506110de565b335f9081526009602052604090205460ff166110de57335f908152600960205260409020805460ff191660011790555b6003546001600160a01b031615611193576003546040516340c10f1960e01b8152336004820152678ac7230489e8000060248201526001600160a01b03909116906340c10f19906044015f604051808303815f87803b15801561113f575f5ffd5b505af1158015611151573d5f5f3e3d5ffd5b5050604051678ac7230489e8000081523392507fed3ce637c8ccb5e2b22a02f352b00227ea301de0dcdd53461af277e5a93d2ea8915060200160405180910390a25b6040518215158152339084907ff2913dbe661ee2acc4a046d8fbcdc792373bda34c41c6086484b5345e5785e5f9060200160405180910390a3505050565b6004546001600160a01b031633146111fb5760405162461bcd60e51b81526004016104e7906115f9565b600280546001600160a01b0319166001600160a01b0392909216919091179055565b6040518061014001604052805f81526020015f6001600160a01b0316815260200160608152602001606081526020015f81526020015f81526020015f81526020015f81526020015f151581526020015f81525090565b5f60208284031215611283575f5ffd5b5035919050565b5f81518084528060208401602086015e5f602082860101526020601f19601f83011685010191505092915050565b8a81526001600160a01b038a166020820152610140604082018190525f906112e29083018b61128a565b82810360608401526112f4818b61128a565b6080840199909952505060a081019590955260c085019390935260e0840191909152151561010083015261012090910152949350505050565b80356001600160a01b0381168114611343575f5ffd5b919050565b5f60208284031215611358575f5ffd5b6113618261132d565b9392505050565b5f5f60408385031215611379575f5ffd5b823591506113896020840161132d565b90509250929050565b5f5f604083850312156113a3575f5ffd5b50508035926020909101359150565b805182525f60208201516113d160208501826001600160a01b03169052565b50604082015161014060408501526113ed61014085018261128a565b905060608301518482036060860152611406828261128a565b9150506080830151608085015260a083015160a085015260c083015160c085015260e083015160e085015261010083015161144661010086018215159052565b506101208301516101208501528091505092915050565b5f602082016020835280845180835260408501915060408160051b8601019250602086015f5b828110156114b457603f1987860301845261149f8583516113b2565b94506020938401939190910190600101611483565b50929695505050505050565b5f5f83601f8401126114d0575f5ffd5b50813567ffffffffffffffff8111156114e7575f5ffd5b6020830191508360208285010111156114fe575f5ffd5b9250929050565b5f5f5f5f60408587031215611518575f5ffd5b843567ffffffffffffffff81111561152e575f5ffd5b61153a878288016114c0565b909550935050602085013567ffffffffffffffff811115611559575f5ffd5b611565878288016114c0565b95989497509550505050565b602081525f61136160208301846113b2565b8015158114611590575f5ffd5b50565b5f5f604083850312156115a4575f5ffd5b8235915060208301356115b681611583565b809150509250929050565b600181811c908216806115d557607f821691505b6020821081036115f357634e487b7160e01b5f52602260045260245ffd5b50919050565b6020808252600990820152682737ba1037bbb732b960b91b604082015260600190565b634e487b7160e01b5f52604160045260245ffd5b634e487b7160e01b5f52601160045260245ffd5b8082018082111561084b5761084b611630565b8181038181111561084b5761084b611630565b634e487b7160e01b5f52603260045260245ffd5b5f6001820161168f5761168f611630565b5060010190565b601f8211156116dd57805f5260205f20601f840160051c810160208510156116bb5750805b601f840160051c820191505b818110156116da575f81556001016116c7565b50505b505050565b815167ffffffffffffffff8111156116fc576116fc61161c565b6117108161170a84546115c1565b84611696565b6020601f821160018114611742575f831561172b5750848201515b5f19600385901b1c1916600184901b1784556116da565b5f84815260208120601f198516915b828110156117715787850151825560209485019460019092019101611751565b508482101561178e57868401515f19600387901b60f8161c191681555b50505050600190811b01905550565b60408152826040820152828460608301375f606084830101525f6060601f19601f8601168301019050826020830152949350505050565b5f602082840312156117e4575f5ffd5b815161136181611583565b5f602082840312156117ff575f5ffd5b505191905056fea2646970667358221220f4375b3cbadaa703024784c5a630e5590ee1abffc6c5507b3736f102751bcaa664736f6c634300081c00330000000000000000000000007893e1acaeedadfc4fa4a88e9e83a65e4c5bf19ed99b42e778498aa3c9c1f6a012359130252780511687a35982e8e52735453034",
        "nonce": "0x87",
        "chainId": "0x164ce"
      },
      "additionalContracts": [],
      "isFixedGasLimit": false
    },
    {
      "hash": "0x754e34bc197d6742d9b3b5a3ea5dd162dce2ed893377484d72841777a25c147f",
      "transactionType": "CALL",
      "contractName": "GiwaVote",
      "contractAddress": "0x6fadcf1665a2916fe2a291708280f8f7971a372f",
      "function": "setBadge(address)",
      "arguments": [
        "0xfC4280F72Da48570549d9cB3825D10e6cA2C131f"
      ],
      "transaction": {
        "from": "0x84c29fb8b41f229ad09f4d68f84d676a28dc4a3a",
        "to": "0x6fadcf1665a2916fe2a291708280f8f7971a372f",
        "gas": "0xf901",
        "value": "0x0",
        "input": "0xff967e2e000000000000000000000000fc4280f72da48570549d9cb3825d10e6ca2c131f",
        "nonce": "0x88",
        "chainId": "0x164ce"
      },
      "additionalContracts": [],
      "isFixedGasLimit": false
    },
    {
      "hash": "0x23927abe9ed377f3d9b2ed623dd10b731ef0abc55f3297b5073e3f59b0253014",
      "transactionType": "CALL",
      "contractName": "GiwaGovernanceBadge",
      "contractAddress": "0xfc4280f72da48570549d9cb3825d10e6ca2c131f",
      "function": "setMinter(address)",
      "arguments": [
        "0x6FaDCf1665A2916fE2A291708280F8f7971a372f"
      ],
      "transaction": {
        "from": "0x84c29fb8b41f229ad09f4d68f84d676a28dc4a3a",
        "to": "0xfc4280f72da48570549d9cb3825d10e6ca2c131f",
        "gas": "0xf922",
        "value": "0x0",
        "input": "0xfca3b5aa0000000000000000000000006fadcf1665a2916fe2a291708280f8f7971a372f",
        "nonce": "0x89",
        "chainId": "0x164ce"
      },
      "additionalContracts": [],
      "isFixedGasLimit": false
    },
    {
      "hash": "0x39e65d9682091eb1e7836163db18d36f9cb083047fcd06e1c542a9233a0b0088",
      "transactionType": "CALL",
      "contractName": "GiwaVote",
      "contractAddress": "0x6fadcf1665a2916fe2a291708280f8f7971a372f",
      "function": "setGVF(address)",
      "arguments": [
        "0x26a16180414c553C3e8f8F7e2ACBc3cd9Bb03d9F"
      ],
      "transaction": {
        "from": "0x84c29fb8b41f229ad09f4d68f84d676a28dc4a3a",
        "to": "0x6fadcf1665a2916fe2a291708280f8f7971a372f",
        "gas": "0xf8a9",
        "value": "0x0",
        "input": "0x09be028200000000000000000000000026a16180414c553c3e8f8f7e2acbc3cd9bb03d9f",
        "nonce": "0x8a",
        "chainId": "0x164ce"
      },
      "additionalContracts": [],
      "isFixedGasLimit": false
    },
    {
      "hash": "0x255eb66f6dbad3389b2ff49c1ad082fc9d3188f03820de1433b5b42c9c2079b8",
      "transactionType": "CALL",
      "contractName": "GVF",
      "contractAddress": "0x26a16180414c553c3e8f8f7e2acbc3cd9bb03d9f",
      "function": "setMinter(address)",
      "arguments": [
        "0x6FaDCf1665A2916fE2A291708280F8f7971a372f"
      ],
      "transaction": {
        "from": "0x84c29fb8b41f229ad09f4d68f84d676a28dc4a3a",
        "to": "0x26a16180414c553c3e8f8f7e2acbc3cd9bb03d9f",
        "gas": "0x107aa",
        "value": "0x0",
        "input": "0xfca3b5aa0000000000000000000000006fadcf1665a2916fe2a291708280f8f7971a372f",
        "nonce": "0x8b",
        "chainId": "0x164ce"
      },
      "additionalContracts": [],
      "isFixedGasLimit": false
    },
    {
      "hash": "0xf40e5404fdba9d614a7fff8d4dc4b7e252701652d3874f009beef1fd02a414a7",
      "transactionType": "CALL",
      "contractName": "GiwaVote",
      "contractAddress": "0x6fadcf1665a2916fe2a291708280f8f7971a372f",
      "function": "createProposal(string,string)",
      "arguments": [
        "Add GVF Governance Participation Token",
        "GVF is a non-tradeable governance participation token, separate from the 5 faucet tokens (GVA-GVE). It is NOT claimable from the faucet and NOT listed in the Swap module. Each wallet receives 10 GVF automatically every time they cast a vote on any governance proposal. This is cumulative and distinct from the one-time Governance Participant soulbound NFT badge - the badge marks first-ever participation as a one-time achievement, while the GVF balance grows with every vote to show cumulative governance engagement. GVF has no price, is not swappable, and does not grant additional voting power (voting remains 1 wallet = 1 vote regardless of GVF balance). It exists purely as an on-chain visible indicator of \\'how much has this wallet participated.\\' Deployer wallet will vote Approve and call markImplemented() at the end of this script."
      ],
      "transaction": {
        "from": "0x84c29fb8b41f229ad09f4d68f84d676a28dc4a3a",
        "to": "0x6fadcf1665a2916fe2a291708280f8f7971a372f",
        "gas": "0x12fe5d",
        "value": "0x0",
        "input": "0x65e481e2000000000000000000000000000000000000000000000000000000000000004000000000000000000000000000000000000000000000000000000000000000a000000000000000000000000000000000000000000000000000000000000000264164642047564620476f7665726e616e63652050617274696369706174696f6e20546f6b656e000000000000000000000000000000000000000000000000000000000000000000000000000000000000000000000000000000000000000003484756462069732061206e6f6e2d747261646561626c6520676f7665726e616e63652070617274696369706174696f6e20746f6b656e2c2073657061726174652066726f6d2074686520352066617563657420746f6b656e7320284756412d475645292e204974206973204e4f5420636c61696d61626c652066726f6d207468652066617563657420616e64204e4f54206c697374656420696e207468652053776170206d6f64756c652e20456163682077616c6c657420726563656976657320313020475646206175746f6d61746963616c6c792065766572792074696d6520746865792063617374206120766f7465206f6e20616e7920676f7665726e616e63652070726f706f73616c2e20546869732069732063756d756c617469766520616e642064697374696e63742066726f6d20746865206f6e652d74696d6520476f7665726e616e6365205061727469636970616e7420736f756c626f756e64204e4654206261646765202d20746865206261646765206d61726b732066697273742d657665722070617274696369706174696f6e2061732061206f6e652d74696d6520616368696576656d656e742c207768696c6520746865204756462062616c616e63652067726f7773207769746820657665727920766f746520746f2073686f772063756d756c617469766520676f7665726e616e636520656e676167656d656e742e2047564620686173206e6f2070726963652c206973206e6f7420737761707061626c652c20616e6420646f6573206e6f74206772616e74206164646974696f6e616c20766f74696e6720706f7765722028766f74696e672072656d61696e7320312077616c6c6574203d203120766f7465207265676172646c657373206f66204756462062616c616e6365292e2049742065786973747320707572656c7920617320616e206f6e2d636861696e2076697369626c6520696e64696361746f72206f662027686f77206d7563682068617320746869732077616c6c6574207061727469636970617465642e27204465706c6f7965722077616c6c65742077696c6c20766f746520417070726f766520616e642063616c6c206d61726b496d706c656d656e74656428292061742074686520656e64206f662074686973207363726970742e000000000000000000000000000000000000000000000000",
        "nonce": "0x8c",
        "chainId": "0x164ce"
      },
      "additionalContracts": [],
      "isFixedGasLimit": false
    },
    {
      "hash": "0x086041d5cdc4887bed1df68ec1686f00172840df442ad380e98a709d89b363b6",
      "transactionType": "CALL",
      "contractName": "GiwaVote",
      "contractAddress": "0x6fadcf1665a2916fe2a291708280f8f7971a372f",
      "function": "createProposal(string,string)",
      "arguments": [
        "Establish Data-Driven Thresholds for Faucet Parameter Changes",
        "Current on-chain data from GiwaFaucetV2 (address 0x2BA3f6838C5D12AF133341a527DdffBF618e3988) as of proposal creation: total reserves across all 5 tokens are 499,900 out of 500,000 initial seed (99.98% intact). Only 1 unique wallet has ever claimed tokens (100 GVA, one claim). GVA reserve: 99,900 / 100,000. GVB-GVE reserves: 100,000 / 100,000 each (fully intact). Since no token shows meaningful depletion, no claim-amount or cooldown parameter changes are justified at this time. This proposal establishes that future proposals to reduce claim amounts or increase cooldowns should only be considered when at least one faucet token\\'s reserve falls below 50% of its initial seed (50,000 tokens). This prevents unnecessary parameter changes driven by hypothetical rather than observed usage patterns."
      ],
      "transaction": {
        "from": "0x84c29fb8b41f229ad09f4d68f84d676a28dc4a3a",
        "to": "0x6fadcf1665a2916fe2a291708280f8f7971a372f",
        "gas": "0x10a1f3",
        "value": "0x0",
        "input": "0x65e481e2000000000000000000000000000000000000000000000000000000000000004000000000000000000000000000000000000000000000000000000000000000a0000000000000000000000000000000000000000000000000000000000000003d45737461626c69736820446174612d44726976656e205468726573686f6c647320666f722046617563657420506172616d65746572204368616e676573000000000000000000000000000000000000000000000000000000000000000000031f43757272656e74206f6e2d636861696e20646174612066726f6d204769776146617563657456322028616464726573732030783242413366363833384335443132414631333333343161353237446466664246363138653339383829206173206f662070726f706f73616c206372656174696f6e3a20746f74616c207265736572766573206163726f737320616c6c203520746f6b656e7320617265203439392c393030206f7574206f66203530302c30303020696e697469616c2073656564202839392e39382520696e74616374292e204f6e6c79203120756e697175652077616c6c657420686173206576657220636c61696d656420746f6b656e732028313030204756412c206f6e6520636c61696d292e2047564120726573657276653a2039392c393030202f203130302c3030302e204756422d4756452072657365727665733a203130302c303030202f203130302c3030302065616368202866756c6c7920696e74616374292e2053696e6365206e6f20746f6b656e2073686f7773206d65616e696e6766756c206465706c6574696f6e2c206e6f20636c61696d2d616d6f756e74206f7220636f6f6c646f776e20706172616d65746572206368616e67657320617265206a757374696669656420617420746869732074696d652e20546869732070726f706f73616c2065737461626c69736865732074686174206675747572652070726f706f73616c7320746f2072656475636520636c61696d20616d6f756e7473206f7220696e63726561736520636f6f6c646f776e732073686f756c64206f6e6c7920626520636f6e73696465726564207768656e206174206c65617374206f6e652066617563657420746f6b656e277320726573657276652066616c6c732062656c6f7720353025206f662069747320696e697469616c2073656564202835302c30303020746f6b656e73292e20546869732070726576656e747320756e6e656365737361727920706172616d65746572206368616e6765732064726976656e206279206879706f746865746963616c20726174686572207468616e206f62736572766564207573616765207061747465726e732e00",
        "nonce": "0x8d",
        "chainId": "0x164ce"
      },
      "additionalContracts": [],
      "isFixedGasLimit": false
    },
    {
      "hash": "0xd935e92c24cad85d1ebfbea8b332967ac11b17918e6f85c887f7ba8737f1d06c",
      "transactionType": "CALL",
      "contractName": "GiwaVote",
      "contractAddress": "0x6fadcf1665a2916fe2a291708280f8f7971a372f",
      "function": "vote(uint256,bool)",
      "arguments": [
        "1",
        "true"
      ],
      "transaction": {
        "from": "0x84c29fb8b41f229ad09f4d68f84d676a28dc4a3a",
        "to": "0x6fadcf1665a2916fe2a291708280f8f7971a372f",
        "gas": "0x58274",
        "value": "0x0",
        "input": "0xc9d27afe00000000000000000000000000000000000000000000000000000000000000010000000000000000000000000000000000000000000000000000000000000001",
        "nonce": "0x8e",
        "chainId": "0x164ce"
      },
      "additionalContracts": [],
      "isFixedGasLimit": false
    },
    {
      "hash": "0x49c2ded6f430fc17cbf4a6c99c18a2c914748298b906b2dd8ce6072ef3c84344",
      "transactionType": "CALL",
      "contractName": "GiwaVote",
      "contractAddress": "0x6fadcf1665a2916fe2a291708280f8f7971a372f",
      "function": "markImplemented(uint256)",
      "arguments": [
        "1"
      ],
      "transaction": {
        "from": "0x84c29fb8b41f229ad09f4d68f84d676a28dc4a3a",
        "to": "0x6fadcf1665a2916fe2a291708280f8f7971a372f",
        "gas": "0x182e0",
        "value": "0x0",
        "input": "0xb24aaebc0000000000000000000000000000000000000000000000000000000000000001",
        "nonce": "0x8f",
        "chainId": "0x164ce"
      },
      "additionalContracts": [],
      "isFixedGasLimit": false
    }
  ],
  "receipts": [
    {
      "type": "0x2",
      "status": "0x1",
      "cumulativeGasUsed": "0xc4759",
      "logs": [
        {
          "address": "0x26a16180414c553c3e8f8f7e2acbc3cd9bb03d9f",
          "topics": [
            "0x8be0079c531659141344cd1fd0a4f28419497f9722a3daafe3b4186f6b6457e0",
            "0x0000000000000000000000000000000000000000000000000000000000000000",
            "0x00000000000000000000000084c29fb8b41f229ad09f4d68f84d676a28dc4a3a"
          ],
          "data": "0x",
          "blockHash": "0xef275770dfa6922937c3184bf52039dd2679e2ac83f67481883c0d98d84f4b4b",
          "blockNumber": "0x1dec5e5",
          "blockTimestamp": "0x6a60b241",
          "transactionHash": "0xed01ff6b14724afd1fdda02daf3d52a7c13d8ce95166033eb4233f6ef5bece15",
          "transactionIndex": "0x2",
          "logIndex": "0x0",
          "removed": false
        }
      ],
      "logsBloom": "0x00000000000000000000000000000000000000000000000000800000000000000000000000000000000000200000000000000000000010000000000000000000000000000000000000000000100000008001000000000000000000000000000000000000020000000000000000000800000000000000000000010000000000400000000000000000000000000000000000000000000000000000000000000000000000000000000000000000000000000000000000000000000000000000000000000000000000000000000000000000000000000000000000000000000020000000000000000000000000000000000000200000000000000000000000000000",
      "transactionHash": "0xed01ff6b14724afd1fdda02daf3d52a7c13d8ce95166033eb4233f6ef5bece15",
      "transactionIndex": "0x2",
      "blockHash": "0xef275770dfa6922937c3184bf52039dd2679e2ac83f67481883c0d98d84f4b4b",
      "blockNumber": "0x1dec5e5",
      "gasUsed": "0x9be0f",
      "effectiveGasPrice": "0xf4340",
      "blobGasUsed": "0xb2e80",
      "from": "0x84c29fb8b41f229ad09f4d68f84d676a28dc4a3a",
      "to": null,
      "contractAddress": "0x26a16180414c553c3e8f8f7e2acbc3cd9bb03d9f"
    },
    {
      "type": "0x2",
      "status": "0x1",
      "cumulativeGasUsed": "0x1ff5ec",
      "logs": [
        {
          "address": "0xfc4280f72da48570549d9cb3825d10e6ca2c131f",
          "topics": [
            "0x8be0079c531659141344cd1fd0a4f28419497f9722a3daafe3b4186f6b6457e0",
            "0x0000000000000000000000000000000000000000000000000000000000000000",
            "0x00000000000000000000000084c29fb8b41f229ad09f4d68f84d676a28dc4a3a"
          ],
          "data": "0x",
          "blockHash": "0xe8196d0953bc6b03f11b54706f5a0cb5e1b92698a7de3d6d3624b0c08964a1a6",
          "blockNumber": "0x1dec5e7",
          "blockTimestamp": "0x6a60b243",
          "transactionHash": "0x6b6aaa49318c06f1e9a7a3ac6057f0363f242d85194a8e9805ba5e9577b3d636",
          "transactionIndex": "0x9",
          "logIndex": "0x10",
          "removed": false
        }
      ],
      "logsBloom": "0x00000000000000000000000004000000000000000000000000800000000000000000000000000000000000000000000000000000000000000000000000000000000000000000000000000000100000000001000000000000000000001000000000000000020400000000000000000800000000000000000000010000000000400000000000000000000000000000000000000000000000000000000000000000000000000000000000000000000000000000000000000000000000000000000000000000000000000000000000000000000000000000000000000000000020000000000000000000000000000000000000200000000000000000000000000000",
      "transactionHash": "0x6b6aaa49318c06f1e9a7a3ac6057f0363f242d85194a8e9805ba5e9577b3d636",
      "transactionIndex": "0x9",
      "blockHash": "0xe8196d0953bc6b03f11b54706f5a0cb5e1b92698a7de3d6d3624b0c08964a1a6",
      "blockNumber": "0x1dec5e7",
      "gasUsed": "0x113691",
      "effectiveGasPrice": "0xf4340",
      "blobGasUsed": "0x131dc0",
      "from": "0x84c29fb8b41f229ad09f4d68f84d676a28dc4a3a",
      "to": null,
      "contractAddress": "0xfc4280f72da48570549d9cb3825d10e6ca2c131f"
    },
    {
      "type": "0x2",
      "status": "0x1",
      "cumulativeGasUsed": "0x177e35",
      "logs": [],
      "logsBloom": "0x00000000000000000000000000000000000000000000000000000000000000000000000000000000000000000000000000000000000000000000000000000000000000000000000000000000000000000000000000000000000000000000000000000000000000000000000000000000000000000000000000000000000000000000000000000000000000000000000000000000000000000000000000000000000000000000000000000000000000000000000000000000000000000000000000000000000000000000000000000000000000000000000000000000000000000000000000000000000000000000000000000000000000000000000000000000",
      "transactionHash": "0xc9cd8d8c5d8f25b309866e73be3a852222a8ef89f0fbc603ede48b8cda91488a",
      "transactionIndex": "0x2",
      "blockHash": "0xa206bf43432aa32b25a5b2ea16ec38c2580220816cc6b28071b994527ed1e390",
      "blockNumber": "0x1dec5ea",
      "gasUsed": "0x165d5d",
      "effectiveGasPrice": "0xf4340",
      "blobGasUsed": "0x1659e0",
      "from": "0x84c29fb8b41f229ad09f4d68f84d676a28dc4a3a",
      "to": null,
      "contractAddress": "0x6fadcf1665a2916fe2a291708280f8f7971a372f"
    },
    {
      "type": "0x2",
      "status": "0x1",
      "cumulativeGasUsed": "0x16df37",
      "logs": [],
      "logsBloom": "0x00000000000000000000000000000000000000000000000000000000000000000000000000000000000000000000000000000000000000000000000000000000000000000000000000000000000000000000000000000000000000000000000000000000000000000000000000000000000000000000000000000000000000000000000000000000000000000000000000000000000000000000000000000000000000000000000000000000000000000000000000000000000000000000000000000000000000000000000000000000000000000000000000000000000000000000000000000000000000000000000000000000000000000000000000000000",
      "transactionHash": "0x754e34bc197d6742d9b3b5a3ea5dd162dce2ed893377484d72841777a25c147f",
      "transactionIndex": "0x8",
      "blockHash": "0x48f24f3793e3ec8ecf6c789610485da97352cefd9eac95d8b6aa7e8176301b54",
      "blockNumber": "0x1dec5ec",
      "gasUsed": "0xb447",
      "effectiveGasPrice": "0xf4340",
      "blobGasUsed": "0x9c40",
      "from": "0x84c29fb8b41f229ad09f4d68f84d676a28dc4a3a",
      "to": "0x6fadcf1665a2916fe2a291708280f8f7971a372f",
      "contractAddress": null
    },
    {
      "type": "0x2",
      "status": "0x1",
      "cumulativeGasUsed": "0x368dc",
      "logs": [],
      "logsBloom": "0x00000000000000000000000000000000000000000000000000000000000000000000000000000000000000000000000000000000000000000000000000000000000000000000000000000000000000000000000000000000000000000000000000000000000000000000000000000000000000000000000000000000000000000000000000000000000000000000000000000000000000000000000000000000000000000000000000000000000000000000000000000000000000000000000000000000000000000000000000000000000000000000000000000000000000000000000000000000000000000000000000000000000000000000000000000000",
      "transactionHash": "0x23927abe9ed377f3d9b2ed623dd10b731ef0abc55f3297b5073e3f59b0253014",
      "transactionIndex": "0x2",
      "blockHash": "0x0bd3b1a810fb7de9d1af3443a7c488eb3071a72e09737609eef911d3200c26e1",
      "blockNumber": "0x1dec5ef",
      "gasUsed": "0xb45f",
      "effectiveGasPrice": "0xf4340",
      "blobGasUsed": "0x9c40",
      "from": "0x84c29fb8b41f229ad09f4d68f84d676a28dc4a3a",
      "to": "0xfc4280f72da48570549d9cb3825d10e6ca2c131f",
      "contractAddress": null
    },
    {
      "type": "0x2",
      "status": "0x1",
      "cumulativeGasUsed": "0x10b84e",
      "logs": [],
      "logsBloom": "0x00000000000000000000000000000000000000000000000000000000000000000000000000000000000000000000000000000000000000000000000000000000000000000000000000000000000000000000000000000000000000000000000000000000000000000000000000000000000000000000000000000000000000000000000000000000000000000000000000000000000000000000000000000000000000000000000000000000000000000000000000000000000000000000000000000000000000000000000000000000000000000000000000000000000000000000000000000000000000000000000000000000000000000000000000000000",
      "transactionHash": "0x39e65d9682091eb1e7836163db18d36f9cb083047fcd06e1c542a9233a0b0088",
      "transactionIndex": "0x8",
      "blockHash": "0xfc6abdb3de271b8891b606e5632f0f373f9bee2401269e959715f459443fbf5c",
      "blockNumber": "0x1dec5f1",
      "gasUsed": "0xb407",
      "effectiveGasPrice": "0xf4340",
      "blobGasUsed": "0x9c40",
      "from": "0x84c29fb8b41f229ad09f4d68f84d676a28dc4a3a",
      "to": "0x6fadcf1665a2916fe2a291708280f8f7971a372f",
      "contractAddress": null
    },
    {
      "type": "0x2",
      "status": "0x1",
      "cumulativeGasUsed": "0xed705",
      "logs": [],
      "logsBloom": "0x00000000000000000000000000000000000000000000000000000000000000000000000000000000000000000000000000000000000000000000000000000000000000000000000000000000000000000000000000000000000000000000000000000000000000000000000000000000000000000000000000000000000000000000000000000000000000000000000000000000000000000000000000000000000000000000000000000000000000000000000000000000000000000000000000000000000000000000000000000000000000000000000000000000000000000000000000000000000000000000000000000000000000000000000000000000",
      "transactionHash": "0x255eb66f6dbad3389b2ff49c1ad082fc9d3188f03820de1433b5b42c9c2079b8",
      "transactionIndex": "0x4",
      "blockHash": "0xe1287440dbc51913d144c62db1b8948ae4a6446965f0f9563e038608a0ddc2f0",
      "blockNumber": "0x1dec5f3",
      "gasUsed": "0xb449",
      "effectiveGasPrice": "0xf4340",
      "blobGasUsed": "0x9c40",
      "from": "0x84c29fb8b41f229ad09f4d68f84d676a28dc4a3a",
      "to": "0x26a16180414c553c3e8f8f7e2acbc3cd9bb03d9f",
      "contractAddress": null
    },
    {
      "type": "0x2",
      "status": "0x1",
      "cumulativeGasUsed": "0x32e37e",
      "logs": [
        {
          "address": "0x6fadcf1665a2916fe2a291708280f8f7971a372f",
          "topics": [
            "0x98120a6aaa04295520ab4e01c6c1235dd316e822cc9ff31db7b3f197366d18bd",
            "0x0000000000000000000000000000000000000000000000000000000000000001",
            "0x00000000000000000000000084c29fb8b41f229ad09f4d68f84d676a28dc4a3a"
          ],
          "data": "0x0000000000000000000000000000000000000000000000000000000000000040000000000000000000000000000000000000000000000000000000006a7478d200000000000000000000000000000000000000000000000000000000000000264164642047564620476f7665726e616e63652050617274696369706174696f6e20546f6b656e0000000000000000000000000000000000000000000000000000",
          "blockHash": "0xc24fb7dbb63035fa7a213f6d0a4a8c8b7a622ae67f842ab2ab43369ebce877af",
          "blockNumber": "0x1dec5f6",
          "blockTimestamp": "0x6a60b252",
          "transactionHash": "0xf40e5404fdba9d614a7fff8d4dc4b7e252701652d3874f009beef1fd02a414a7",
          "transactionIndex": "0x6",
          "logIndex": "0x7",
          "removed": false
        }
      ],
      "logsBloom": "0x00000000000000000000000000000000000000000000000000000000000000000000000000000000080000000000000000000000000000000000000000040000000000000000000000000000100000010000000000040000000000000000000000000000000000000000000000000000000000000000000000010000000000000100000000000000000000000000400000000000000000000000000000000000000000000000000000000000000000000000000000000000000000000000000000000010000000000000000000000002000000000000000000000000000040000000000000000000000000000000000000200000000000000000000000000000",
      "transactionHash": "0xf40e5404fdba9d614a7fff8d4dc4b7e252701652d3874f009beef1fd02a414a7",
      "transactionIndex": "0x6",
      "blockHash": "0xc24fb7dbb63035fa7a213f6d0a4a8c8b7a622ae67f842ab2ab43369ebce877af",
      "blockNumber": "0x1dec5f6",
      "gasUsed": "0xcfcb2",
      "effectiveGasPrice": "0xf4340",
      "blobGasUsed": "0x3f930",
      "from": "0x84c29fb8b41f229ad09f4d68f84d676a28dc4a3a",
      "to": "0x6fadcf1665a2916fe2a291708280f8f7971a372f",
      "contractAddress": null
    },
    {
      "type": "0x2",
      "status": "0x1",
      "cumulativeGasUsed": "0x2a50eb",
      "logs": [
        {
          "address": "0x6fadcf1665a2916fe2a291708280f8f7971a372f",
          "topics": [
            "0x98120a6aaa04295520ab4e01c6c1235dd316e822cc9ff31db7b3f197366d18bd",
            "0x0000000000000000000000000000000000000000000000000000000000000002",
            "0x00000000000000000000000084c29fb8b41f229ad09f4d68f84d676a28dc4a3a"
          ],
          "data": "0x0000000000000000000000000000000000000000000000000000000000000040000000000000000000000000000000000000000000000000000000006a7478d4000000000000000000000000000000000000000000000000000000000000003d45737461626c69736820446174612d44726976656e205468726573686f6c647320666f722046617563657420506172616d65746572204368616e676573000000",
          "blockHash": "0xcc5b6972cdf46186b6ef033c4e82d6b9e33f6df7febe66e0c2ce234f8d369f2f",
          "blockNumber": "0x1dec5f8",
          "blockTimestamp": "0x6a60b254",
          "transactionHash": "0x086041d5cdc4887bed1df68ec1686f00172840df442ad380e98a709d89b363b6",
          "transactionIndex": "0x1f",
          "logIndex": "0x1f",
          "removed": false
        }
      ],
      "logsBloom": "0x04000000000000000000000000000000000000000000000000000000000000000000000000000000080000000000000000000000000000000000000000000000000000000000000000000000100000010000000000000000000000000000000000000000000000000000000000000000000000000000000000010000000000000100000000000000000000000000400000000000000000000000000000000000000000000000000000000100000000000000000000000000000000000000000000000010000000000000000000000002000000000000000000000000000000000000000000000000000000000000000000200000008000000000000000000000",
      "transactionHash": "0x086041d5cdc4887bed1df68ec1686f00172840df442ad380e98a709d89b363b6",
      "transactionIndex": "0x1f",
      "blockHash": "0xcc5b6972cdf46186b6ef033c4e82d6b9e33f6df7febe66e0c2ce234f8d369f2f",
      "blockNumber": "0x1dec5f8",
      "gasUsed": "0xc0aaf",
      "effectiveGasPrice": "0xf4340",
      "blobGasUsed": "0x40a60",
      "from": "0x84c29fb8b41f229ad09f4d68f84d676a28dc4a3a",
      "to": "0x6fadcf1665a2916fe2a291708280f8f7971a372f",
      "contractAddress": null
    },
    {
      "type": "0x2",
      "status": "0x1",
      "cumulativeGasUsed": "0x218e73",
      "logs": [
        {
          "address": "0xfc4280f72da48570549d9cb3825d10e6ca2c131f",
          "topics": [
            "0xddf252ad1be2c89b69c2b068fc378daa952ba7f163c4a11628f55a4df523b3ef",
            "0x0000000000000000000000000000000000000000000000000000000000000000",
            "0x00000000000000000000000084c29fb8b41f229ad09f4d68f84d676a28dc4a3a",
            "0x0000000000000000000000000000000000000000000000000000000000000001"
          ],
          "data": "0x",
          "blockHash": "0xc36ec95988c6bd6b541c2aa9f1fe6d7e380f3a0420a0aea2d3c66e15d8aaf4c1",
          "blockNumber": "0x1dec5fa",
          "blockTimestamp": "0x6a60b256",
          "transactionHash": "0xd935e92c24cad85d1ebfbea8b332967ac11b17918e6f85c887f7ba8737f1d06c",
          "transactionIndex": "0xf",
          "logIndex": "0x7",
          "removed": false
        },
        {
          "address": "0x6fadcf1665a2916fe2a291708280f8f7971a372f",
          "topics": [
            "0xc5e5b314108c1f776c2302351b8278910ddb812b122b2717b1bc973146145e9a",
            "0x00000000000000000000000084c29fb8b41f229ad09f4d68f84d676a28dc4a3a"
          ],
          "data": "0x0000000000000000000000000000000000000000000000000000000000000001",
          "blockHash": "0xc36ec95988c6bd6b541c2aa9f1fe6d7e380f3a0420a0aea2d3c66e15d8aaf4c1",
          "blockNumber": "0x1dec5fa",
          "blockTimestamp": "0x6a60b256",
          "transactionHash": "0xd935e92c24cad85d1ebfbea8b332967ac11b17918e6f85c887f7ba8737f1d06c",
          "transactionIndex": "0xf",
          "logIndex": "0x8",
          "removed": false
        },
        {
          "address": "0x26a16180414c553c3e8f8f7e2acbc3cd9bb03d9f",
          "topics": [
            "0xddf252ad1be2c89b69c2b068fc378daa952ba7f163c4a11628f55a4df523b3ef",
            "0x0000000000000000000000000000000000000000000000000000000000000000",
            "0x00000000000000000000000084c29fb8b41f229ad09f4d68f84d676a28dc4a3a"
          ],
          "data": "0x0000000000000000000000000000000000000000000000008ac7230489e80000",
          "blockHash": "0xc36ec95988c6bd6b541c2aa9f1fe6d7e380f3a0420a0aea2d3c66e15d8aaf4c1",
          "blockNumber": "0x1dec5fa",
          "blockTimestamp": "0x6a60b256",
          "transactionHash": "0xd935e92c24cad85d1ebfbea8b332967ac11b17918e6f85c887f7ba8737f1d06c",
          "transactionIndex": "0xf",
          "logIndex": "0x9",
          "removed": false
        },
        {
          "address": "0x6fadcf1665a2916fe2a291708280f8f7971a372f",
          "topics": [
            "0xed3ce637c8ccb5e2b22a02f352b00227ea301de0dcdd53461af277e5a93d2ea8",
            "0x00000000000000000000000084c29fb8b41f229ad09f4d68f84d676a28dc4a3a"
          ],
          "data": "0x0000000000000000000000000000000000000000000000008ac7230489e80000",
          "blockHash": "0xc36ec95988c6bd6b541c2aa9f1fe6d7e380f3a0420a0aea2d3c66e15d8aaf4c1",
          "blockNumber": "0x1dec5fa",
          "blockTimestamp": "0x6a60b256",
          "transactionHash": "0xd935e92c24cad85d1ebfbea8b332967ac11b17918e6f85c887f7ba8737f1d06c",
          "transactionIndex": "0xf",
          "logIndex": "0xa",
          "removed": false
        },
        {
          "address": "0x6fadcf1665a2916fe2a291708280f8f7971a372f",
          "topics": [
            "0xf2913dbe661ee2acc4a046d8fbcdc792373bda34c41c6086484b5345e5785e5f",
            "0x0000000000000000000000000000000000000000000000000000000000000001",
            "0x00000000000000000000000084c29fb8b41f229ad09f4d68f84d676a28dc4a3a"
          ],
          "data": "0x0000000000000000000000000000000000000000000000000000000000000001",
          "blockHash": "0xc36ec95988c6bd6b541c2aa9f1fe6d7e380f3a0420a0aea2d3c66e15d8aaf4c1",
          "blockNumber": "0x1dec5fa",
          "blockTimestamp": "0x6a60b256",
          "transactionHash": "0xd935e92c24cad85d1ebfbea8b332967ac11b17918e6f85c887f7ba8737f1d06c",
          "transactionIndex": "0xf",
          "logIndex": "0xb",
          "removed": false
        }
      ],
      "logsBloom": "0x00000000000000000000000004000000000000000000000000100000000000000000000000000000080000300000000000000000000010000000000000040000000000000000000000000008102000008010000000040000040000001000000000000000020400000000000000000800000000000400000000010010000000000100000000000000004000001000400000000000100000000000000000000000000000000000000000000000000000000000000000000000000000000000000000000002000000000000000000000000000000000000000000000000000060000000000000000000000000000000000000200000000000000000000000000000",
      "transactionHash": "0xd935e92c24cad85d1ebfbea8b332967ac11b17918e6f85c887f7ba8737f1d06c",
      "transactionIndex": "0xf",
      "blockHash": "0xc36ec95988c6bd6b541c2aa9f1fe6d7e380f3a0420a0aea2d3c66e15d8aaf4c1",
      "blockNumber": "0x1dec5fa",
      "gasUsed": "0x3fd25",
      "effectiveGasPrice": "0xf4340",
      "blobGasUsed": "0x9c40",
      "from": "0x84c29fb8b41f229ad09f4d68f84d676a28dc4a3a",
      "to": "0x6fadcf1665a2916fe2a291708280f8f7971a372f",
      "contractAddress": null
    },
    {
      "type": "0x2",
      "status": "0x1",
      "cumulativeGasUsed": "0x1170da",
      "logs": [
        {
          "address": "0x6fadcf1665a2916fe2a291708280f8f7971a372f",
          "topics": [
            "0x022c5894f70637e46c49debc0376ce8c5fa29222787feeaa2e9af248617325fe",
            "0x0000000000000000000000000000000000000000000000000000000000000001"
          ],
          "data": "0x000000000000000000000000000000000000000000000000000000006a60b258",
          "blockHash": "0x80a00ffa859595a77562fed8a8caefce57d47aa2b1d0a6267fd2d6c5c56c741a",
          "blockNumber": "0x1dec5fc",
          "blockTimestamp": "0x6a60b258",
          "transactionHash": "0x49c2ded6f430fc17cbf4a6c99c18a2c914748298b906b2dd8ce6072ef3c84344",
          "transactionIndex": "0x8",
          "logIndex": "0x16",
          "removed": false
        }
      ],
      "logsBloom": "0x00000000000000000000000000000000000000000000000000000000000000000000000000000000080000000000000000000000000000000000000000040000000000000000000000000000000000000000000000040000000000000000000000000000000000000000000000000000000000000000000000000000008000000100000000000000000000000000400000000000000000000000000000000000000000000000000000000000000000000000000100000000000000000000000000000000000000000000000000000000000000000000000200000000000040000000000000000000000000000000000000000000000000000000000000000000",
      "transactionHash": "0x49c2ded6f430fc17cbf4a6c99c18a2c914748298b906b2dd8ce6072ef3c84344",
      "transactionIndex": "0x8",
      "blockHash": "0x80a00ffa859595a77562fed8a8caefce57d47aa2b1d0a6267fd2d6c5c56c741a",
      "blockNumber": "0x1dec5fc",
      "gasUsed": "0x11818",
      "effectiveGasPrice": "0xf4340",
      "blobGasUsed": "0x9c40",
      "from": "0x84c29fb8b41f229ad09f4d68f84d676a28dc4a3a",
      "to": "0x6fadcf1665a2916fe2a291708280f8f7971a372f",
      "contractAddress": null
    }
  ],
  "libraries": [],
  "pending": [],
  "returns": {},
  "timestamp": 1784722009903,
  "chain": 91342,
  "commit": "47f6c23"
}