{
  "transactions": [
    {
      "hash": "0x0fb8566a76c19e8d6e9735df21b219061403565f1aff626b003c0a3f5470506a",
      "transactionType": "CREATE",
      "contractName": "GiwaFaucetV2",
      "contractAddress": "0x2ba3f6838c5d12af133341a527ddffbf618e3988",
      "function": null,
      "arguments": [
        "0x7893e1AcaeEDADFC4fa4a88e9E83a65e4C5BF19e",
        "0xd99b42e778498aa3c9c1f6a012359130252780511687a35982e8e52735453034"
      ],
      "transaction": {
        "from": "0x84c29fb8b41f229ad09f4d68f84d676a28dc4a3a",
        "to": null,
        "gas": "0xf1218",
        "value": "0x0",
        "input": "0x6080604052348015600e575f5ffd5b50604051610c64380380610c64833981016040819052602b9160a6565b6001600160a01b03821660775760405162461bcd60e51b815260206004820152601060248201526f24b73b30b634b2103b32b934b334b2b960811b604482015260640160405180910390fd5b5f80546001600160a01b039093166001600160a01b0319938416179055600155600280549091163317905560db565b5f5f6040838503121560b6575f5ffd5b82516001600160a01b038116811460cb575f5ffd5b6020939093015192949293505050565b610b7c806100e85f395ff3fe608060405234801561000f575f5ffd5b5060043610610111575f3560e01c806391920f301161009e578063a219a0181161006e578063a219a01814610243578063a2724a4d1461026d578063aa6ca80814610277578063c1b628dc1461028c578063fc9afd671461029f575f5ffd5b806391920f30146101ea578063923894531461021457806397988dce1461021d5780639ead722214610230575f5ffd5b80632b7ac3f3116100e45780632b7ac3f3146101605780633528bee91461018a57806378a895671461019d5780638c0bd916146101a55780638da5cb5b146101d7575f5ffd5b806309824a80146101155780630f2cdd6c1461012a5780631e83409a1461014d578063270ef3851461012a575b5f5ffd5b610128610123366004610a0f565b6102b2565b005b61013a68056bc75e2d6310000081565b6040519081526020015b60405180910390f35b61012861015b366004610a0f565b61042b565b5f54610172906001600160a01b031681565b6040516001600160a01b039091168152602001610144565b61013a610198366004610a0f565b610804565b60045461013a565b6101c76101b3366004610a0f565b60036020525f908152604090205460ff1681565b6040519015158152602001610144565b600254610172906001600160a01b031681565b61013a6101f8366004610a2f565b600560209081525f928352604080842090915290825290205481565b61013a60015481565b61017261022b366004610a60565b610872565b61017261023e366004610a60565b6108a0565b61013a610251366004610a2f565b600660209081525f928352604080842090915290825290205481565b61013a6201518081565b61027f6108c8565b6040516101449190610a77565b61012861029a366004610a2f565b610928565b61013a6102ad366004610a2f565b610999565b6002546001600160a01b031633146102fd5760405162461bcd60e51b81526020600482015260096024820152682737ba1037bbb732b960b91b60448201526064015b60405180910390fd5b6001600160a01b0381166103435760405162461bcd60e51b815260206004820152600d60248201526c24b73b30b634b2103a37b5b2b760991b60448201526064016102f4565b6001600160a01b0381165f9081526003602052604090205460ff16156103a05760405162461bcd60e51b8152602060048201526012602482015271105b1c9958591e481c9959da5cdd195c995960721b60448201526064016102f4565b6001600160a01b0381165f81815260036020526040808220805460ff1916600190811790915560048054918201815583527f8a35acfbc15ff81a39ae7d344fd709f28e8600b4aa8c65c6b64bfe7fe36bd19b0180546001600160a01b03191684179055517f158412daecdc1456d01568828bcdb18464cc7f1ce0215ddbc3f3cfede9d1e63d9190a250565b6001600160a01b0381165f9081526003602052604090205460ff166104895760405162461bcd60e51b8152602060048201526014602482015273151bdad95b881b9bdd081c9959da5cdd195c995960621b60448201526064016102f4565b5f5460015460405163ba03e20560e01b815233600482015260248101919091526001600160a01b039091169063ba03e20590604401602060405180830381865afa1580156104d9573d5f5f3e3d5ffd5b505050506040513d601f19601f820116820180604052508101906104fd9190610ac2565b6105385760405162461bcd60e51b815260206004820152600c60248201526b139bdd081d995c9a599a595960a21b60448201526064016102f4565b335f9081526005602090815260408083206001600160a01b0385168452909152902054610569906201518090610af5565b4210156105aa5760405162461bcd60e51b815260206004820152600f60248201526e436f6f6c646f776e2061637469766560881b60448201526064016102f4565b6040516370a0823160e01b815230600482015268056bc75e2d63100000906001600160a01b038316906370a0823190602401602060405180830381865afa1580156105f7573d5f5f3e3d5ffd5b505050506040513d601f19601f8201168201806040525081019061061b9190610b08565b10156106695760405162461bcd60e51b815260206004820152601b60248201527f496e73756666696369656e74206661756365742062616c616e6365000000000060448201526064016102f4565b335f9081526006602090815260408083206001600160a01b038516845290915290205468056bc75e2d63100000906106a2908290610af5565b11156106e95760405162461bcd60e51b815260206004820152601660248201527513585e081c195c881dd85b1b195d081c995858da195960521b60448201526064016102f4565b335f8181526005602090815260408083206001600160a01b03861680855290835281842042905593835260068252808320938352929052908120805468056bc75e2d63100000929061073c908490610af5565b909155505060405163a9059cbb60e01b815233600482015268056bc75e2d6310000060248201526001600160a01b0382169063a9059cbb906044016020604051808303815f875af1158015610793573d5f5f3e3d5ffd5b505050506040513d601f19601f820116820180604052508101906107b79190610ac2565b5060405168056bc75e2d6310000081526001600160a01b0382169033907ff7a40077ff7a04c7e61f6f26fb13774259ddf1b6bce9ecf26a8276cdd39926839060200160405180910390a350565b6040516370a0823160e01b81523060048201525f906001600160a01b038316906370a0823190602401602060405180830381865afa158015610848573d5f5f3e3d5ffd5b505050506040513d601f19601f8201168201806040525081019061086c9190610b08565b92915050565b5f6004828154811061088657610886610b1f565b5f918252602090912001546001600160a01b031692915050565b600481815481106108af575f80fd5b5f918252602090912001546001600160a01b0316905081565b6060600480548060200260200160405190810160405280929190818152602001828054801561091e57602002820191905f5260205f20905b81546001600160a01b03168152600190910190602001808311610900575b5050505050905090565b6002546001600160a01b0316331461096e5760405162461bcd60e51b81526020600482015260096024820152682737ba1037bbb732b960b91b60448201526064016102f4565b6001600160a01b039182165f9081526005602090815260408083209390941682529190915290812055565b6001600160a01b038083165f90815260056020908152604080832093851683529290529081205481906109d0906201518090610af5565b90508042106109e2575f91505061086c565b6109ec4282610b33565b949350505050565b80356001600160a01b0381168114610a0a575f5ffd5b919050565b5f60208284031215610a1f575f5ffd5b610a28826109f4565b9392505050565b5f5f60408385031215610a40575f5ffd5b610a49836109f4565b9150610a57602084016109f4565b90509250929050565b5f60208284031215610a70575f5ffd5b5035919050565b602080825282518282018190525f918401906040840190835b81811015610ab75783516001600160a01b0316835260209384019390920191600101610a90565b509095945050505050565b5f60208284031215610ad2575f5ffd5b81518015158114610a28575f5ffd5b634e487b7160e01b5f52601160045260245ffd5b8082018082111561086c5761086c610ae1565b5f60208284031215610b18575f5ffd5b5051919050565b634e487b7160e01b5f52603260045260245ffd5b8181038181111561086c5761086c610ae156fea264697066735822122055e548304729b4c6e4814ca4aa56410cb421551b351f464f9a637790553db22164736f6c634300081c00330000000000000000000000007893e1acaeedadfc4fa4a88e9e83a65e4c5bf19ed99b42e778498aa3c9c1f6a012359130252780511687a35982e8e52735453034",
        "nonce": "0x6a",
        "chainId": "0x164ce"
      },
      "additionalContracts": [],
      "isFixedGasLimit": false
    },
    {
      "hash": "0x5065aec664f4640bfeba688380c6a990c5e9015cd30114510988168665266748",
      "transactionType": "CALL",
      "contractName": null,
      "contractAddress": "0x05e894ce2c176dbc30176626efa24850af2af0e2",
      "function": "transfer(address,uint256)",
      "arguments": [
        "0x2BA3f6838C5D12AF133341a527DdffBF618e3988",
        "100000000000000000000000"
      ],
      "transaction": {
        "from": "0x84c29fb8b41f229ad09f4d68f84d676a28dc4a3a",
        "to": "0x05e894ce2c176dbc30176626efa24850af2af0e2",
        "gas": "0x1169b",
        "value": "0x0",
        "input": "0xa9059cbb0000000000000000000000002ba3f6838c5d12af133341a527ddffbf618e398800000000000000000000000000000000000000000000152d02c7e14af6800000",
        "nonce": "0x6b",
        "chainId": "0x164ce"
      },
      "additionalContracts": [],
      "isFixedGasLimit": false
    },
    {
      "hash": "0x547c41f759af12d3f5d430e2bdb58df9bac28ded69153df5542bce508a99b5ed",
      "transactionType": "CALL",
      "contractName": "GiwaFaucetV2",
      "contractAddress": "0x2ba3f6838c5d12af133341a527ddffbf618e3988",
      "function": "registerToken(address)",
      "arguments": [
        "0x05E894cE2C176Dbc30176626efa24850aF2af0e2"
      ],
      "transaction": {
        "from": "0x84c29fb8b41f229ad09f4d68f84d676a28dc4a3a",
        "to": "0x2ba3f6838c5d12af133341a527ddffbf618e3988",
        "gas": "0x1ef20",
        "value": "0x0",
        "input": "0x09824a8000000000000000000000000005e894ce2c176dbc30176626efa24850af2af0e2",
        "nonce": "0x6c",
        "chainId": "0x164ce"
      },
      "additionalContracts": [],
      "isFixedGasLimit": false
    },
    {
      "hash": "0x53e366fbab5657f686679074b2dd5a5c91182c86a90fecfff3861e42f90caf77",
      "transactionType": "CALL",
      "contractName": null,
      "contractAddress": "0x00e8f81208a33bf516cd7dd46e7597dfb40f5a25",
      "function": "transfer(address,uint256)",
      "arguments": [
        "0x2BA3f6838C5D12AF133341a527DdffBF618e3988",
        "100000000000000000000000"
      ],
      "transaction": {
        "from": "0x84c29fb8b41f229ad09f4d68f84d676a28dc4a3a",
        "to": "0x00e8f81208a33bf516cd7dd46e7597dfb40f5a25",
        "gas": "0x1169b",
        "value": "0x0",
        "input": "0xa9059cbb0000000000000000000000002ba3f6838c5d12af133341a527ddffbf618e398800000000000000000000000000000000000000000000152d02c7e14af6800000",
        "nonce": "0x6d",
        "chainId": "0x164ce"
      },
      "additionalContracts": [],
      "isFixedGasLimit": false
    },
    {
      "hash": "0x9a7d6dcc90e1ae921557abb79cd26294fb39a480c906f6e9ff62043cad86b6f9",
      "transactionType": "CALL",
      "contractName": "GiwaFaucetV2",
      "contractAddress": "0x2ba3f6838c5d12af133341a527ddffbf618e3988",
      "function": "registerToken(address)",
      "arguments": [
        "0x00E8F81208A33BF516cD7Dd46e7597dFB40F5a25"
      ],
      "transaction": {
        "from": "0x84c29fb8b41f229ad09f4d68f84d676a28dc4a3a",
        "to": "0x2ba3f6838c5d12af133341a527ddffbf618e3988",
        "gas": "0x192cc",
        "value": "0x0",
        "input": "0x09824a8000000000000000000000000000e8f81208a33bf516cd7dd46e7597dfb40f5a25",
        "nonce": "0x6e",
        "chainId": "0x164ce"
      },
      "additionalContracts": [],
      "isFixedGasLimit": false
    },
    {
      "hash": "0x48cb3efd16e59ffed364c3bb42f1c40b0775d5ecc2abdb8c8c446d23aa16a73b",
      "transactionType": "CALL",
      "contractName": null,
      "contractAddress": "0x263a171641882db6b48210e1ea477db3d1d34509",
      "function": "transfer(address,uint256)",
      "arguments": [
        "0x2BA3f6838C5D12AF133341a527DdffBF618e3988",
        "100000000000000000000000"
      ],
      "transaction": {
        "from": "0x84c29fb8b41f229ad09f4d68f84d676a28dc4a3a",
        "to": "0x263a171641882db6b48210e1ea477db3d1d34509",
        "gas": "0x1169b",
        "value": "0x0",
        "input": "0xa9059cbb0000000000000000000000002ba3f6838c5d12af133341a527ddffbf618e398800000000000000000000000000000000000000000000152d02c7e14af6800000",
        "nonce": "0x6f",
        "chainId": "0x164ce"
      },
      "additionalContracts": [],
      "isFixedGasLimit": false
    },
    {
      "hash": "0x849cb01d6eb68edbbb89ef4bb8675f70e0e9cb46d7842d8846ff2f64cbde3c0a",
      "transactionType": "CALL",
      "contractName": "GiwaFaucetV2",
      "contractAddress": "0x2ba3f6838c5d12af133341a527ddffbf618e3988",
      "function": "registerToken(address)",
      "arguments": [
        "0x263a171641882Db6b48210E1ea477DB3D1d34509"
      ],
      "transaction": {
        "from": "0x84c29fb8b41f229ad09f4d68f84d676a28dc4a3a",
        "to": "0x2ba3f6838c5d12af133341a527ddffbf618e3988",
        "gas": "0x1aa90",
        "value": "0x0",
        "input": "0x09824a80000000000000000000000000263a171641882db6b48210e1ea477db3d1d34509",
        "nonce": "0x70",
        "chainId": "0x164ce"
      },
      "additionalContracts": [],
      "isFixedGasLimit": false
    },
    {
      "hash": "0x6a56684ef409c058e7eaea4b87c27413d41beeb576c1aad46b4d09dd1068b9b6",
      "transactionType": "CALL",
      "contractName": null,
      "contractAddress": "0x82868da66735fcd28185b9befa9ff2aee4ba3fb8",
      "function": "transfer(address,uint256)",
      "arguments": [
        "0x2BA3f6838C5D12AF133341a527DdffBF618e3988",
        "100000000000000000000000"
      ],
      "transaction": {
        "from": "0x84c29fb8b41f229ad09f4d68f84d676a28dc4a3a",
        "to": "0x82868da66735fcd28185b9befa9ff2aee4ba3fb8",
        "gas": "0x1169b",
        "value": "0x0",
        "input": "0xa9059cbb0000000000000000000000002ba3f6838c5d12af133341a527ddffbf618e398800000000000000000000000000000000000000000000152d02c7e14af6800000",
        "nonce": "0x71",
        "chainId": "0x164ce"
      },
      "additionalContracts": [],
      "isFixedGasLimit": false
    },
    {
      "hash": "0x8ebf37fc3ca98e151cc919d80e474d80f0064dee23de92f9e89ad34e4791ff64",
      "transactionType": "CALL",
      "contractName": "GiwaFaucetV2",
      "contractAddress": "0x2ba3f6838c5d12af133341a527ddffbf618e3988",
      "function": "registerToken(address)",
      "arguments": [
        "0x82868dA66735FCD28185b9BEFa9fF2AeE4BA3FB8"
      ],
      "transaction": {
        "from": "0x84c29fb8b41f229ad09f4d68f84d676a28dc4a3a",
        "to": "0x2ba3f6838c5d12af133341a527ddffbf618e3988",
        "gas": "0x1aa90",
        "value": "0x0",
        "input": "0x09824a8000000000000000000000000082868da66735fcd28185b9befa9ff2aee4ba3fb8",
        "nonce": "0x72",
        "chainId": "0x164ce"
      },
      "additionalContracts": [],
      "isFixedGasLimit": false
    },
    {
      "hash": "0xc373de91685d2151cbbf55fbfeaa1e2031dbba00c8704c3b22985e7f895c2f41",
      "transactionType": "CALL",
      "contractName": null,
      "contractAddress": "0xeed497b085113e8c3fc563935582a72f90bde528",
      "function": "transfer(address,uint256)",
      "arguments": [
        "0x2BA3f6838C5D12AF133341a527DdffBF618e3988",
        "100000000000000000000000"
      ],
      "transaction": {
        "from": "0x84c29fb8b41f229ad09f4d68f84d676a28dc4a3a",
        "to": "0xeed497b085113e8c3fc563935582a72f90bde528",
        "gas": "0x1169b",
        "value": "0x0",
        "input": "0xa9059cbb0000000000000000000000002ba3f6838c5d12af133341a527ddffbf618e398800000000000000000000000000000000000000000000152d02c7e14af6800000",
        "nonce": "0x73",
        "chainId": "0x164ce"
      },
      "additionalContracts": [],
      "isFixedGasLimit": false
    },
    {
      "hash": "0x7c4982c3d5219d1e69ccb9b1f6f760d3c4d28c29693a68f3536d549a52d06255",
      "transactionType": "CALL",
      "contractName": "GiwaFaucetV2",
      "contractAddress": "0x2ba3f6838c5d12af133341a527ddffbf618e3988",
      "function": "registerToken(address)",
      "arguments": [
        "0xEEd497B085113e8C3FC563935582a72F90BdE528"
      ],
      "transaction": {
        "from": "0x84c29fb8b41f229ad09f4d68f84d676a28dc4a3a",
        "to": "0x2ba3f6838c5d12af133341a527ddffbf618e3988",
        "gas": "0x1aa90",
        "value": "0x0",
        "input": "0x09824a80000000000000000000000000eed497b085113e8c3fc563935582a72f90bde528",
        "nonce": "0x74",
        "chainId": "0x164ce"
      },
      "additionalContracts": [],
      "isFixedGasLimit": false
    },
    {
      "hash": "0xc404dfe7ef88bde22869f8b5ffc490f9719f2bc7d8691ea553987fc19de61993",
      "transactionType": "CALL",
      "contractName": "GiwaFaucetV2",
      "contractAddress": "0x2ba3f6838c5d12af133341a527ddffbf618e3988",
      "function": "resetCooldown(address,address)",
      "arguments": [
        "0x84C29FB8b41F229aD09F4d68f84D676A28Dc4a3a",
        "0x05E894cE2C176Dbc30176626efa24850aF2af0e2"
      ],
      "transaction": {
        "from": "0x84c29fb8b41f229ad09f4d68f84d676a28dc4a3a",
        "to": "0x2ba3f6838c5d12af133341a527ddffbf618e3988",
        "gas": "0x90a3",
        "value": "0x0",
        "input": "0xc1b628dc00000000000000000000000084c29fb8b41f229ad09f4d68f84d676a28dc4a3a00000000000000000000000005e894ce2c176dbc30176626efa24850af2af0e2",
        "nonce": "0x75",
        "chainId": "0x164ce"
      },
      "additionalContracts": [],
      "isFixedGasLimit": false
    },
    {
      "hash": "0x6a3a8fe2d7ab3a39d0f26214ea2bd8a93f72a89e1d5629c9c5673b9130f8f23c",
      "transactionType": "CALL",
      "contractName": "GiwaFaucetV2",
      "contractAddress": "0x2ba3f6838c5d12af133341a527ddffbf618e3988",
      "function": "resetCooldown(address,address)",
      "arguments": [
        "0x84C29FB8b41F229aD09F4d68f84D676A28Dc4a3a",
        "0x00E8F81208A33BF516cD7Dd46e7597dFB40F5a25"
      ],
      "transaction": {
        "from": "0x84c29fb8b41f229ad09f4d68f84d676a28dc4a3a",
        "to": "0x2ba3f6838c5d12af133341a527ddffbf618e3988",
        "gas": "0x9093",
        "value": "0x0",
        "input": "0xc1b628dc00000000000000000000000084c29fb8b41f229ad09f4d68f84d676a28dc4a3a00000000000000000000000000e8f81208a33bf516cd7dd46e7597dfb40f5a25",
        "nonce": "0x76",
        "chainId": "0x164ce"
      },
      "additionalContracts": [],
      "isFixedGasLimit": false
    },
    {
      "hash": "0xc28067fee925ff84e5f7ddd4f2bdd8ef4684469f2591a1d9337b063236d1cedd",
      "transactionType": "CALL",
      "contractName": "GiwaFaucetV2",
      "contractAddress": "0x2ba3f6838c5d12af133341a527ddffbf618e3988",
      "function": "resetCooldown(address,address)",
      "arguments": [
        "0x84C29FB8b41F229aD09F4d68f84D676A28Dc4a3a",
        "0x263a171641882Db6b48210E1ea477DB3D1d34509"
      ],
      "transaction": {
        "from": "0x84c29fb8b41f229ad09f4d68f84d676a28dc4a3a",
        "to": "0x2ba3f6838c5d12af133341a527ddffbf618e3988",
        "gas": "0x90a3",
        "value": "0x0",
        "input": "0xc1b628dc00000000000000000000000084c29fb8b41f229ad09f4d68f84d676a28dc4a3a000000000000000000000000263a171641882db6b48210e1ea477db3d1d34509",
        "nonce": "0x77",
        "chainId": "0x164ce"
      },
      "additionalContracts": [],
      "isFixedGasLimit": false
    },
    {
      "hash": "0x569dc6b56e367097baa8600d59564131bbaf74dbd89be71bdb774fb69afb12c5",
      "transactionType": "CALL",
      "contractName": "GiwaFaucetV2",
      "contractAddress": "0x2ba3f6838c5d12af133341a527ddffbf618e3988",
      "function": "resetCooldown(address,address)",
      "arguments": [
        "0x84C29FB8b41F229aD09F4d68f84D676A28Dc4a3a",
        "0x82868dA66735FCD28185b9BEFa9fF2AeE4BA3FB8"
      ],
      "transaction": {
        "from": "0x84c29fb8b41f229ad09f4d68f84d676a28dc4a3a",
        "to": "0x2ba3f6838c5d12af133341a527ddffbf618e3988",
        "gas": "0x90a3",
        "value": "0x0",
        "input": "0xc1b628dc00000000000000000000000084c29fb8b41f229ad09f4d68f84d676a28dc4a3a00000000000000000000000082868da66735fcd28185b9befa9ff2aee4ba3fb8",
        "nonce": "0x78",
        "chainId": "0x164ce"
      },
      "additionalContracts": [],
      "isFixedGasLimit": false
    },
    {
      "hash": "0x146421e4808c043f2f9d01d4bb2dc2b5dd4c76c551e53e8b5bf4e9dd97d3de7b",
      "transactionType": "CALL",
      "contractName": "GiwaFaucetV2",
      "contractAddress": "0x2ba3f6838c5d12af133341a527ddffbf618e3988",
      "function": "resetCooldown(address,address)",
      "arguments": [
        "0x84C29FB8b41F229aD09F4d68f84D676A28Dc4a3a",
        "0xEEd497B085113e8C3FC563935582a72F90BdE528"
      ],
      "transaction": {
        "from": "0x84c29fb8b41f229ad09f4d68f84d676a28dc4a3a",
        "to": "0x2ba3f6838c5d12af133341a527ddffbf618e3988",
        "gas": "0x90a3",
        "value": "0x0",
        "input": "0xc1b628dc00000000000000000000000084c29fb8b41f229ad09f4d68f84d676a28dc4a3a000000000000000000000000eed497b085113e8c3fc563935582a72f90bde528",
        "nonce": "0x79",
        "chainId": "0x164ce"
      },
      "additionalContracts": [],
      "isFixedGasLimit": false
    }
  ],
  "receipts": [
    {
      "type": "0x2",
      "status": "0x1",
      "cumulativeGasUsed": "0x123ac1",
      "logs": [],
      "logsBloom": "0x00000000000000000000000000000000000000000000000000000000000000000000000000000000000000000000000000000000000000000000000000000000000000000000000000000000000000000000000000000000000000000000000000000000000000000000000000000000000000000000000000000000000000000000000000000000000000000000000000000000000000000000000000000000000000000000000000000000000000000000000000000000000000000000000000000000000000000000000000000000000000000000000000000000000000000000000000000000000000000000000000000000000000000000000000000000",
      "transactionHash": "0x0fb8566a76c19e8d6e9735df21b219061403565f1aff626b003c0a3f5470506a",
      "transactionIndex": "0x4",
      "blockHash": "0xbf285c4d7bfc28f6de25f85f3a6ffce0fc87bf2ef4cb52eb8c91d96a66b69cc5",
      "blockNumber": "0x1deab89",
      "gasUsed": "0xb97c4",
      "effectiveGasPrice": "0xf433d",
      "blobGasUsed": "0xb5a40",
      "from": "0x84c29fb8b41f229ad09f4d68f84d676a28dc4a3a",
      "to": null,
      "contractAddress": "0x2ba3f6838c5d12af133341a527ddffbf618e3988"
    },
    {
      "type": "0x2",
      "status": "0x1",
      "cumulativeGasUsed": "0x1d047",
      "logs": [
        {
          "address": "0x05e894ce2c176dbc30176626efa24850af2af0e2",
          "topics": [
            "0xddf252ad1be2c89b69c2b068fc378daa952ba7f163c4a11628f55a4df523b3ef",
            "0x00000000000000000000000084c29fb8b41f229ad09f4d68f84d676a28dc4a3a",
            "0x0000000000000000000000002ba3f6838c5d12af133341a527ddffbf618e3988"
          ],
          "data": "0x00000000000000000000000000000000000000000000152d02c7e14af6800000",
          "blockHash": "0x272cc243fd83e726045bd730b27e8fb41709969a7d41c1b7da4754b26e513469",
          "blockNumber": "0x1deab8d",
          "blockTimestamp": "0x6a6097e9",
          "transactionHash": "0x5065aec664f4640bfeba688380c6a990c5e9015cd30114510988168665266748",
          "transactionIndex": "0x2",
          "logIndex": "0x0",
          "removed": false
        }
      ],
      "logsBloom": "0x00000000000000000000000000800000000000000000000000000000000040000000000000000000000000000000000000000000000000000000000000000000000000000000000000000008100000000000000000000000000000000000000000000000000000000000000000000000000000000000000000010010000000000000000000000000000000000000000000000000000000000000000000000000000000000000000000000000000000000000000000000000000000000000020000000002000000000000000000000000000000000000000000000000000000000000000000000000000000000000000000200000040000400000080000000000",
      "transactionHash": "0x5065aec664f4640bfeba688380c6a990c5e9015cd30114510988168665266748",
      "transactionIndex": "0x2",
      "blockHash": "0x272cc243fd83e726045bd730b27e8fb41709969a7d41c1b7da4754b26e513469",
      "blockNumber": "0x1deab8d",
      "gasUsed": "0xc9b5",
      "effectiveGasPrice": "0xf433d",
      "blobGasUsed": "0x9c40",
      "from": "0x84c29fb8b41f229ad09f4d68f84d676a28dc4a3a",
      "to": "0x05e894ce2c176dbc30176626efa24850af2af0e2",
      "contractAddress": null
    },
    {
      "type": "0x2",
      "status": "0x1",
      "cumulativeGasUsed": "0xf9fca",
      "logs": [
        {
          "address": "0x2ba3f6838c5d12af133341a527ddffbf618e3988",
          "topics": [
            "0x158412daecdc1456d01568828bcdb18464cc7f1ce0215ddbc3f3cfede9d1e63d",
            "0x00000000000000000000000005e894ce2c176dbc30176626efa24850af2af0e2"
          ],
          "data": "0x",
          "blockHash": "0x182972d5d8ec8a034bc065ab62c6bd5413b1bb3a6a16795f28e0c76cb599136b",
          "blockNumber": "0x1deab90",
          "blockTimestamp": "0x6a6097ec",
          "transactionHash": "0x547c41f759af12d3f5d430e2bdb58df9bac28ded69153df5542bce508a99b5ed",
          "transactionIndex": "0xb",
          "logIndex": "0xb",
          "removed": false
        }
      ],
      "logsBloom": "0x00000000000000000000000004000000000000000000000000000000000000000000000000200400000000000000004000000000000000000000000000000000000001000000000000000000000000000000000000000000000000000000000000000000000000000000000000000000000000000000000000000000000000020000000000000000000000000000000000000000000000000000000000000000000000000000000000000000000000000000000000000000000000000000000000000000000000000000800400000000000000000080000000000000000000000000000000000000000000000000000000000000000000000000000000000000",
      "transactionHash": "0x547c41f759af12d3f5d430e2bdb58df9bac28ded69153df5542bce508a99b5ed",
      "transactionIndex": "0xb",
      "blockHash": "0x182972d5d8ec8a034bc065ab62c6bd5413b1bb3a6a16795f28e0c76cb599136b",
      "blockNumber": "0x1deab90",
      "gasUsed": "0x16677",
      "effectiveGasPrice": "0xf433d",
      "blobGasUsed": "0x9c40",
      "from": "0x84c29fb8b41f229ad09f4d68f84d676a28dc4a3a",
      "to": "0x2ba3f6838c5d12af133341a527ddffbf618e3988",
      "contractAddress": null
    },
    {
      "type": "0x2",
      "status": "0x1",
      "cumulativeGasUsed": "0x1d047",
      "logs": [
        {
          "address": "0x00e8f81208a33bf516cd7dd46e7597dfb40f5a25",
          "topics": [
            "0xddf252ad1be2c89b69c2b068fc378daa952ba7f163c4a11628f55a4df523b3ef",
            "0x00000000000000000000000084c29fb8b41f229ad09f4d68f84d676a28dc4a3a",
            "0x0000000000000000000000002ba3f6838c5d12af133341a527ddffbf618e3988"
          ],
          "data": "0x00000000000000000000000000000000000000000000152d02c7e14af6800000",
          "blockHash": "0xb1c18afbb51f000dfb3005eba0e11709abebae5cf07f6bb4f3235d88a21c0e26",
          "blockNumber": "0x1deab93",
          "blockTimestamp": "0x6a6097ef",
          "transactionHash": "0x53e366fbab5657f686679074b2dd5a5c91182c86a90fecfff3861e42f90caf77",
          "transactionIndex": "0x2",
          "logIndex": "0x0",
          "removed": false
        }
      ],
      "logsBloom": "0x00000000000000000000000000000000000000000000000000000000000000000000000000000000000000000000000000000000000000000000000000000000000000000000000000000008108000000000000000000010000000000000000000000000000000000000000000000000000000000000000000010010000000000000000000000000000000000000000000000000000000000000000000000000000000000000000000000000000000000000000000000000000000000000020000000002000000000000000000000000000000000000000000000000002000000000000000000000000000000000000000200000040000000000080000000000",
      "transactionHash": "0x53e366fbab5657f686679074b2dd5a5c91182c86a90fecfff3861e42f90caf77",
      "transactionIndex": "0x2",
      "blockHash": "0xb1c18afbb51f000dfb3005eba0e11709abebae5cf07f6bb4f3235d88a21c0e26",
      "blockNumber": "0x1deab93",
      "gasUsed": "0xc9b5",
      "effectiveGasPrice": "0xf433d",
      "blobGasUsed": "0x9c40",
      "from": "0x84c29fb8b41f229ad09f4d68f84d676a28dc4a3a",
      "to": "0x00e8f81208a33bf516cd7dd46e7597dfb40f5a25",
      "contractAddress": null
    },
    {
      "type": "0x2",
      "status": "0x1",
      "cumulativeGasUsed": "0x49bdd",
      "logs": [
        {
          "address": "0x2ba3f6838c5d12af133341a527ddffbf618e3988",
          "topics": [
            "0x158412daecdc1456d01568828bcdb18464cc7f1ce0215ddbc3f3cfede9d1e63d",
            "0x00000000000000000000000000e8f81208a33bf516cd7dd46e7597dfb40f5a25"
          ],
          "data": "0x",
          "blockHash": "0x8e5b61f20535c66d2c48b7c86f7039920560600450c4b825ff8f4898668a136d",
          "blockNumber": "0x1deab97",
          "blockTimestamp": "0x6a6097f3",
          "transactionHash": "0x9a7d6dcc90e1ae921557abb79cd26294fb39a480c906f6e9ff62043cad86b6f9",
          "transactionIndex": "0x3",
          "logIndex": "0x1",
          "removed": false
        }
      ],
      "logsBloom": "0x00000000000000000000000000000000000000000000000000000000000000000000000000000400000000000000004000000000000000000000000000000000000001000000000000000040000000000000000000000000000000000000000000000000000000000000000000040000000000000000000000000000000000020000000000000001000000000000000000000000000000000000000000000000000000000000000000000000000000000000000000000000000000000000000000000000000000000000800400000000000000000000000000000000000000000000000000000000000000000000000000000000000000000000000000000000",
      "transactionHash": "0x9a7d6dcc90e1ae921557abb79cd26294fb39a480c906f6e9ff62043cad86b6f9",
      "transactionIndex": "0x3",
      "blockHash": "0x8e5b61f20535c66d2c48b7c86f7039920560600450c4b825ff8f4898668a136d",
      "blockNumber": "0x1deab97",
      "gasUsed": "0x1239f",
      "effectiveGasPrice": "0xf433d",
      "blobGasUsed": "0x9c40",
      "from": "0x84c29fb8b41f229ad09f4d68f84d676a28dc4a3a",
      "to": "0x2ba3f6838c5d12af133341a527ddffbf618e3988",
      "contractAddress": null
    },
    {
      "type": "0x2",
      "status": "0x1",
      "cumulativeGasUsed": "0x1adaca",
      "logs": [
        {
          "address": "0x263a171641882db6b48210e1ea477db3d1d34509",
          "topics": [
            "0xddf252ad1be2c89b69c2b068fc378daa952ba7f163c4a11628f55a4df523b3ef",
            "0x00000000000000000000000084c29fb8b41f229ad09f4d68f84d676a28dc4a3a",
            "0x0000000000000000000000002ba3f6838c5d12af133341a527ddffbf618e3988"
          ],
          "data": "0x00000000000000000000000000000000000000000000152d02c7e14af6800000",
          "blockHash": "0x4cce34d98ac93bce7490d9d7d58101a517e65659eaefb69728d78949d0deec79",
          "blockNumber": "0x1deab9a",
          "blockTimestamp": "0x6a6097f6",
          "transactionHash": "0x48cb3efd16e59ffed364c3bb42f1c40b0775d5ecc2abdb8c8c446d23aa16a73b",
          "transactionIndex": "0xe",
          "logIndex": "0x14",
          "removed": false
        }
      ],
      "logsBloom": "0x00000000000000000008000000000000000000000008000000000000000000000000000000000000000000000000000000000000000000000000000000000000000000000000000000000008100000000000000000000000000000000000000000000000000000000000000000000000000000000000000000010010000000000000000000000000000000000000000000000000000000000000000000000000000000000000000000000000000000000000000000000000000000000000020000000002000000000000000000000000000000000000000000000000000000000200000000000000000000000000000000200000040000000000080000000000",
      "transactionHash": "0x48cb3efd16e59ffed364c3bb42f1c40b0775d5ecc2abdb8c8c446d23aa16a73b",
      "transactionIndex": "0xe",
      "blockHash": "0x4cce34d98ac93bce7490d9d7d58101a517e65659eaefb69728d78949d0deec79",
      "blockNumber": "0x1deab9a",
      "gasUsed": "0xc9b5",
      "effectiveGasPrice": "0xf433d",
      "blobGasUsed": "0x9c40",
      "from": "0x84c29fb8b41f229ad09f4d68f84d676a28dc4a3a",
      "to": "0x263a171641882db6b48210e1ea477db3d1d34509",
      "contractAddress": null
    },
    {
      "type": "0x2",
      "status": "0x1",
      "cumulativeGasUsed": "0xd075b",
      "logs": [
        {
          "address": "0x2ba3f6838c5d12af133341a527ddffbf618e3988",
          "topics": [
            "0x158412daecdc1456d01568828bcdb18464cc7f1ce0215ddbc3f3cfede9d1e63d",
            "0x000000000000000000000000263a171641882db6b48210e1ea477db3d1d34509"
          ],
          "data": "0x",
          "blockHash": "0x5423aa14a1e599738d3e6b7dfc42085dd5a085f7e63df4c4a98ae6db8078ab09",
          "blockNumber": "0x1deab9d",
          "blockTimestamp": "0x6a6097f9",
          "transactionHash": "0x849cb01d6eb68edbbb89ef4bb8675f70e0e9cb46d7842d8846ff2f64cbde3c0a",
          "transactionIndex": "0x5",
          "logIndex": "0x6",
          "removed": false
        }
      ],
      "logsBloom": "0x00000000000000000000100000000000000000000000000000000000000000000000000000000400000000000000004000000000000000000000000000000000000001000000000000000000000000000000000000000000000000000000000000000000000000000000000000000000000002000000000000000000000000020000000000000000000000000000000000000000000000000000000000000000000000000000000000000000000000000000000000000000000000000000000000000000000000000000800400000000000000000000000000000000000000000000008000000000000000000000000000000000000000000000000000000000",
      "transactionHash": "0x849cb01d6eb68edbbb89ef4bb8675f70e0e9cb46d7842d8846ff2f64cbde3c0a",
      "transactionIndex": "0x5",
      "blockHash": "0x5423aa14a1e599738d3e6b7dfc42085dd5a085f7e63df4c4a98ae6db8078ab09",
      "blockNumber": "0x1deab9d",
      "gasUsed": "0x123ab",
      "effectiveGasPrice": "0xf433d",
      "blobGasUsed": "0x9c40",
      "from": "0x84c29fb8b41f229ad09f4d68f84d676a28dc4a3a",
      "to": "0x2ba3f6838c5d12af133341a527ddffbf618e3988",
      "contractAddress": null
    },
    {
      "type": "0x2",
      "status": "0x1",
      "cumulativeGasUsed": "0x748de",
      "logs": [
        {
          "address": "0x82868da66735fcd28185b9befa9ff2aee4ba3fb8",
          "topics": [
            "0xddf252ad1be2c89b69c2b068fc378daa952ba7f163c4a11628f55a4df523b3ef",
            "0x00000000000000000000000084c29fb8b41f229ad09f4d68f84d676a28dc4a3a",
            "0x0000000000000000000000002ba3f6838c5d12af133341a527ddffbf618e3988"
          ],
          "data": "0x00000000000000000000000000000000000000000000152d02c7e14af6800000",
          "blockHash": "0xfad408b135a67f3cbc402e4fcc93d846a96a9d1d04cb6a4171737b991d67d3b9",
          "blockNumber": "0x1deaba1",
          "blockTimestamp": "0x6a6097fd",
          "transactionHash": "0x6a56684ef409c058e7eaea4b87c27413d41beeb576c1aad46b4d09dd1068b9b6",
          "transactionIndex": "0x3",
          "logIndex": "0x3",
          "removed": false
        }
      ],
      "logsBloom": "0x00000000000000000000000000000000000000000000000000000000000000000000000000000000000000000000000000000000000000000000000000000000000000000000000000000008100000000000000000000000000000000000000000000000000000000000000000000000000000000000000000010010000000000000000000000000040000000000000000000000000000000000000000000000001000000000000000000000000000000000000000000000000000000000020004000002000000000000000000000000000000000000000000000000000000000000000000000000000000000000000000200000040000000000080000000000",
      "transactionHash": "0x6a56684ef409c058e7eaea4b87c27413d41beeb576c1aad46b4d09dd1068b9b6",
      "transactionIndex": "0x3",
      "blockHash": "0xfad408b135a67f3cbc402e4fcc93d846a96a9d1d04cb6a4171737b991d67d3b9",
      "blockNumber": "0x1deaba1",
      "gasUsed": "0xc9b5",
      "effectiveGasPrice": "0xf433d",
      "blobGasUsed": "0x9c40",
      "from": "0x84c29fb8b41f229ad09f4d68f84d676a28dc4a3a",
      "to": "0x82868da66735fcd28185b9befa9ff2aee4ba3fb8",
      "contractAddress": null
    },
    {
      "type": "0x2",
      "status": "0x1",
      "cumulativeGasUsed": "0x11cb91",
      "logs": [
        {
          "address": "0x2ba3f6838c5d12af133341a527ddffbf618e3988",
          "topics": [
            "0x158412daecdc1456d01568828bcdb18464cc7f1ce0215ddbc3f3cfede9d1e63d",
            "0x00000000000000000000000082868da66735fcd28185b9befa9ff2aee4ba3fb8"
          ],
          "data": "0x",
          "blockHash": "0xdecadc2dab1883d561938ec438e14a90f7b8d945139529897458858ef0d9c61a",
          "blockNumber": "0x1deaba4",
          "blockTimestamp": "0x6a609800",
          "transactionHash": "0x8ebf37fc3ca98e151cc919d80e474d80f0064dee23de92f9e89ad34e4791ff64",
          "transactionIndex": "0x19",
          "logIndex": "0x15",
          "removed": false
        }
      ],
      "logsBloom": "0x00000000000000000000000000000000000000000000000000000000000000000000000000000400000000000000004000000000000000002000000000000000000001000000000000000000000000000000000000000000000000000000000000000000000000000000000000000000000000000000000000000000000000020000000000000000000000000004000000000000000000000000000000000000000000000000000000000000000000000000000000000000000000000000000000000000000000000000800400000000100000000000000000000000000000000000000000000000000000000000000000000000000000000000000000000000",
      "transactionHash": "0x8ebf37fc3ca98e151cc919d80e474d80f0064dee23de92f9e89ad34e4791ff64",
      "transactionIndex": "0x19",
      "blockHash": "0xdecadc2dab1883d561938ec438e14a90f7b8d945139529897458858ef0d9c61a",
      "blockNumber": "0x1deaba4",
      "gasUsed": "0x123ab",
      "effectiveGasPrice": "0xf433d",
      "blobGasUsed": "0x9c40",
      "from": "0x84c29fb8b41f229ad09f4d68f84d676a28dc4a3a",
      "to": "0x2ba3f6838c5d12af133341a527ddffbf618e3988",
      "contractAddress": null
    },
    {
      "type": "0x2",
      "status": "0x1",
      "cumulativeGasUsed": "0x6e826",
      "logs": [
        {
          "address": "0xeed497b085113e8c3fc563935582a72f90bde528",
          "topics": [
            "0xddf252ad1be2c89b69c2b068fc378daa952ba7f163c4a11628f55a4df523b3ef",
            "0x00000000000000000000000084c29fb8b41f229ad09f4d68f84d676a28dc4a3a",
            "0x0000000000000000000000002ba3f6838c5d12af133341a527ddffbf618e3988"
          ],
          "data": "0x00000000000000000000000000000000000000000000152d02c7e14af6800000",
          "blockHash": "0x7eccc9b0294f3162631ea5b4c3ffd738be87de85166bb6bf4aedf1737b68a4ba",
          "blockNumber": "0x1deaba7",
          "blockTimestamp": "0x6a609803",
          "transactionHash": "0xc373de91685d2151cbbf55fbfeaa1e2031dbba00c8704c3b22985e7f895c2f41",
          "transactionIndex": "0x5",
          "logIndex": "0x3",
          "removed": false
        }
      ],
      "logsBloom": "0x00000000000000000000000000000000000000000000000000000000000000000000000000000000000000000000000000000000080000000002000000000000000000000000000000000008100000000000000000000000000000000000000000000000000000000000000000000000000000000010000000010010000000000000000000000000000000000000000000000000000000000000000000000000000000000000000000000000000000000000000000000000000000000000020000000002000000000000000000000000000000000000000000000000000000000000000000000000000000000000000000200000040000000000080000000000",
      "transactionHash": "0xc373de91685d2151cbbf55fbfeaa1e2031dbba00c8704c3b22985e7f895c2f41",
      "transactionIndex": "0x5",
      "blockHash": "0x7eccc9b0294f3162631ea5b4c3ffd738be87de85166bb6bf4aedf1737b68a4ba",
      "blockNumber": "0x1deaba7",
      "gasUsed": "0xc9b5",
      "effectiveGasPrice": "0xf433d",
      "blobGasUsed": "0x9c40",
      "from": "0x84c29fb8b41f229ad09f4d68f84d676a28dc4a3a",
      "to": "0xeed497b085113e8c3fc563935582a72f90bde528",
      "contractAddress": null
    },
    {
      "type": "0x2",
      "status": "0x1",
      "cumulativeGasUsed": "0x31b83",
      "logs": [
        {
          "address": "0x2ba3f6838c5d12af133341a527ddffbf618e3988",
          "topics": [
            "0x158412daecdc1456d01568828bcdb18464cc7f1ce0215ddbc3f3cfede9d1e63d",
            "0x000000000000000000000000eed497b085113e8c3fc563935582a72f90bde528"
          ],
          "data": "0x",
          "blockHash": "0xf6f4aca10482f1c0552e7d2a1044fa675c9e0fa18b7bef903ba16f4154b96ee3",
          "blockNumber": "0x1deabab",
          "blockTimestamp": "0x6a609807",
          "transactionHash": "0x7c4982c3d5219d1e69ccb9b1f6f760d3c4d28c29693a68f3536d549a52d06255",
          "transactionIndex": "0x3",
          "logIndex": "0x0",
          "removed": false
        }
      ],
      "logsBloom": "0x00000000000000000000000000000000000000000000000000000000000000000000000000000400000000000000004000000000000000080000000000000000000001000000000000000000000000000000000000000000000000000000000000000008000000000000000000000000000000000000000000000000000000020000000000000000000000000000000000000000000000000000000000000000000000000000000000000000000000000000000000040000000000000000000000000000000000000000800400000000000000000000000000000000000000000000000000000000000000000000000000000000000000000000000000000000",
      "transactionHash": "0x7c4982c3d5219d1e69ccb9b1f6f760d3c4d28c29693a68f3536d549a52d06255",
      "transactionIndex": "0x3",
      "blockHash": "0xf6f4aca10482f1c0552e7d2a1044fa675c9e0fa18b7bef903ba16f4154b96ee3",
      "blockNumber": "0x1deabab",
      "gasUsed": "0x123ab",
      "effectiveGasPrice": "0xf433d",
      "blobGasUsed": "0x9c40",
      "from": "0x84c29fb8b41f229ad09f4d68f84d676a28dc4a3a",
      "to": "0x2ba3f6838c5d12af133341a527ddffbf618e3988",
      "contractAddress": null
    },
    {
      "type": "0x2",
      "status": "0x1",
      "cumulativeGasUsed": "0x160732",
      "logs": [],
      "logsBloom": "0x00000000000000000000000000000000000000000000000000000000000000000000000000000000000000000000000000000000000000000000000000000000000000000000000000000000000000000000000000000000000000000000000000000000000000000000000000000000000000000000000000000000000000000000000000000000000000000000000000000000000000000000000000000000000000000000000000000000000000000000000000000000000000000000000000000000000000000000000000000000000000000000000000000000000000000000000000000000000000000000000000000000000000000000000000000000",
      "transactionHash": "0xc404dfe7ef88bde22869f8b5ffc490f9719f2bc7d8691ea553987fc19de61993",
      "transactionIndex": "0x18",
      "blockHash": "0xccaeb2035e832d744fcaad4ff033657d089b81f944680116bab37c0575225c17",
      "blockNumber": "0x1deabae",
      "gasUsed": "0x68b8",
      "effectiveGasPrice": "0xf433d",
      "blobGasUsed": "0x9c40",
      "from": "0x84c29fb8b41f229ad09f4d68f84d676a28dc4a3a",
      "to": "0x2ba3f6838c5d12af133341a527ddffbf618e3988",
      "contractAddress": null
    },
    {
      "type": "0x2",
      "status": "0x1",
      "cumulativeGasUsed": "0x1cfc31",
      "logs": [],
      "logsBloom": "0x00000000000000000000000000000000000000000000000000000000000000000000000000000000000000000000000000000000000000000000000000000000000000000000000000000000000000000000000000000000000000000000000000000000000000000000000000000000000000000000000000000000000000000000000000000000000000000000000000000000000000000000000000000000000000000000000000000000000000000000000000000000000000000000000000000000000000000000000000000000000000000000000000000000000000000000000000000000000000000000000000000000000000000000000000000000",
      "transactionHash": "0x6a3a8fe2d7ab3a39d0f26214ea2bd8a93f72a89e1d5629c9c5673b9130f8f23c",
      "transactionIndex": "0x9",
      "blockHash": "0x72cb491003a560b74517001570de3c3e44bddb1477362c62ce6ac4c926b2ab2c",
      "blockNumber": "0x1deabb1",
      "gasUsed": "0x68ac",
      "effectiveGasPrice": "0xf433d",
      "blobGasUsed": "0x9c40",
      "from": "0x84c29fb8b41f229ad09f4d68f84d676a28dc4a3a",
      "to": "0x2ba3f6838c5d12af133341a527ddffbf618e3988",
      "contractAddress": null
    },
    {
      "type": "0x2",
      "status": "0x1",
      "cumulativeGasUsed": "0x16f4a",
      "logs": [],
      "logsBloom": "0x00000000000000000000000000000000000000000000000000000000000000000000000000000000000000000000000000000000000000000000000000000000000000000000000000000000000000000000000000000000000000000000000000000000000000000000000000000000000000000000000000000000000000000000000000000000000000000000000000000000000000000000000000000000000000000000000000000000000000000000000000000000000000000000000000000000000000000000000000000000000000000000000000000000000000000000000000000000000000000000000000000000000000000000000000000000",
      "transactionHash": "0xc28067fee925ff84e5f7ddd4f2bdd8ef4684469f2591a1d9337b063236d1cedd",
      "transactionIndex": "0x2",
      "blockHash": "0x83de9728c080a12c7daa61cec8e081a851c43d2b6ba0621027412da91d3e2231",
      "blockNumber": "0x1deabb5",
      "gasUsed": "0x68b8",
      "effectiveGasPrice": "0xf433d",
      "blobGasUsed": "0x9c40",
      "from": "0x84c29fb8b41f229ad09f4d68f84d676a28dc4a3a",
      "to": "0x2ba3f6838c5d12af133341a527ddffbf618e3988",
      "contractAddress": null
    },
    {
      "type": "0x2",
      "status": "0x1",
      "cumulativeGasUsed": "0x9b1f4",
      "logs": [],
      "logsBloom": "0x00000000000000000000000000000000000000000000000000000000000000000000000000000000000000000000000000000000000000000000000000000000000000000000000000000000000000000000000000000000000000000000000000000000000000000000000000000000000000000000000000000000000000000000000000000000000000000000000000000000000000000000000000000000000000000000000000000000000000000000000000000000000000000000000000000000000000000000000000000000000000000000000000000000000000000000000000000000000000000000000000000000000000000000000000000000",
      "transactionHash": "0x569dc6b56e367097baa8600d59564131bbaf74dbd89be71bdb774fb69afb12c5",
      "transactionIndex": "0xc",
      "blockHash": "0x309e721e037f478296d2845c4f30c879d1956d96fa7f851842be42185cad405b",
      "blockNumber": "0x1deabb8",
      "gasUsed": "0x68b8",
      "effectiveGasPrice": "0xf433d",
      "blobGasUsed": "0x9c40",
      "from": "0x84c29fb8b41f229ad09f4d68f84d676a28dc4a3a",
      "to": "0x2ba3f6838c5d12af133341a527ddffbf618e3988",
      "contractAddress": null
    },
    {
      "type": "0x2",
      "status": "0x1",
      "cumulativeGasUsed": "0xbe2b3",
      "logs": [],
      "logsBloom": "0x00000000000000000000000000000000000000000000000000000000000000000000000000000000000000000000000000000000000000000000000000000000000000000000000000000000000000000000000000000000000000000000000000000000000000000000000000000000000000000000000000000000000000000000000000000000000000000000000000000000000000000000000000000000000000000000000000000000000000000000000000000000000000000000000000000000000000000000000000000000000000000000000000000000000000000000000000000000000000000000000000000000000000000000000000000000",
      "transactionHash": "0x146421e4808c043f2f9d01d4bb2dc2b5dd4c76c551e53e8b5bf4e9dd97d3de7b",
      "transactionIndex": "0x4",
      "blockHash": "0x20025a54a3bd9f4cf2fe500e3b6b1d47b5ee8b4de7a80b460905ebbe183c1416",
      "blockNumber": "0x1deabbb",
      "gasUsed": "0x68b8",
      "effectiveGasPrice": "0xf433d",
      "blobGasUsed": "0x9c40",
      "from": "0x84c29fb8b41f229ad09f4d68f84d676a28dc4a3a",
      "to": "0x2ba3f6838c5d12af133341a527ddffbf618e3988",
      "contractAddress": null
    }
  ],
  "libraries": [],
  "pending": [],
  "returns": {},
  "timestamp": 1784715288453,
  "chain": 91342,
  "commit": "49b19a6"
}