{
  "transactions": [
    {
      "hash": "0xc2635f5d5f39043c446b7079a4989f71c6e35a22c205d4f46aac67fb43812dd4",
      "transactionType": "CREATE",
      "contractName": "GiwaVote",
      "contractAddress": "0xa53dd044ad378816ec4f3064183a4a34ac557d05",
      "function": null,
      "arguments": [
        "0x7893e1AcaeEDADFC4fa4a88e9E83a65e4C5BF19e",
        "0xd99b42e778498aa3c9c1f6a012359130252780511687a35982e8e52735453034"
      ],
      "transaction": {
        "from": "0x84c29fb8b41f229ad09f4d68f84d676a28dc4a3a",
        "to": null,
        "gas": "0x1d12e9",
        "value": "0x0",
        "input": "0x6080604052348015600e575f5ffd5b50604051611924380380611924833981016040819052602b9160a6565b6001600160a01b03821660775760405162461bcd60e51b815260206004820152601060248201526f24b73b30b634b2103b32b934b334b2b960811b604482015260640160405180910390fd5b5f80546001600160a01b039093166001600160a01b0319938416179055600155600480549091163317905560db565b5f5f6040838503121560b6575f5ffd5b82516001600160a01b038116811460cb575f5ffd5b6020939093015192949293505050565b61183c806100e85f395ff3fe608060405234801561000f575f5ffd5b5060043610610127575f3560e01c80637de418d5116100a9578063c7f758a81161006e578063c7f758a8146102e4578063c9d27afe14610304578063da35c66414610317578063fbccbdc814610320578063ff967e2e14610342575f5ffd5b80637de418d5146102995780638da5cb5b146102a257806391d768de146102b557806392389453146102c8578063b24aaebc146102d1575f5ffd5b806343859632116100ef57806343859632146101cc5780635c622a0e146102095780635e3b43651461022e578063600303d81461024e57806365e481e214610286575f5ffd5b8063013cf08b1461012b57806309be02821461015d57806327ab7ff4146101725780632b7ac3f31461018f5780633bf74da7146101b9575b5f5ffd5b61013e610139366004611273565b610355565b6040516101549a999897969594939291906112b8565b60405180910390f35b61017061016b366004611348565b6104bd565b005b610181678ac7230489e8000081565b604051908152602001610154565b5f546101a1906001600160a01b031681565b6040516001600160a01b039091168152602001610154565b6003546101a1906001600160a01b031681565b6101f96101da366004611368565b600860209081525f928352604080842090915290825290205460ff1681565b6040519015158152602001610154565b61021c610217366004611273565b610512565b60405160ff9091168152602001610154565b61024161023c366004611392565b6105a0565b604051610154919061145d565b6101f961025c366004611368565b5f9182526008602090815260408084206001600160a01b0393909316845291905290205460ff1690565b610170610294366004611505565b610851565b61018160065481565b6004546101a1906001600160a01b031681565b6002546101a1906001600160a01b031681565b61018160015481565b6101706102df366004611273565b610a9d565b6102f76102f2366004611273565b610bbb565b6040516101549190611571565b610170610312366004611593565b610daf565b61018160055481565b6101f961032e366004611348565b60096020525f908152604090205460ff1681565b610170610350366004611348565b6111d1565b60076020525f908152604090208054600182015460028301805492936001600160a01b0390921692610386906115c1565b80601f01602080910402602001604051908101604052809291908181526020018280546103b2906115c1565b80156103fd5780601f106103d4576101008083540402835291602001916103fd565b820191905f5260205f20905b8154815290600101906020018083116103e057829003601f168201915b505050505090806003018054610412906115c1565b80601f016020809104026020016040519081016040528092919081815260200182805461043e906115c1565b80156104895780601f1061046057610100808354040283529160200191610489565b820191905f5260205f20905b81548152906001019060200180831161046c57829003601f168201915b50505060048401546005850154600686015460078701546008880154600990980154969793969295509093509160ff16908a565b6004546001600160a01b031633146104f05760405162461bcd60e51b81526004016104e7906115f9565b60405180910390fd5b600380546001600160a01b0319166001600160a01b0392909216919091179055565b5f5f8211801561052457506005548211155b61055d5760405162461bcd60e51b815260206004820152600a602482015269125b9d985b1a59081a5960b21b60448201526064016104e7565b5f828152600760205260409020600581015442101561057e57505f92915050565b8060070154816006015411156105975750600192915050565b50600292915050565b606060055483106105e357604080515f80825260208201909252906105db565b6105c861121d565b8152602001906001900390816105c05790505b50905061084b565b5f6105ee8385611644565b90506005548111156105ff57506005545b5f61060a8583611657565b90505f8167ffffffffffffffff8111156106265761062661161c565b60405190808252806020026020018201604052801561065f57816020015b61064c61121d565b8152602001906001900390816106445790505b5090505f5b828110156108455760075f610679838a611644565b610684906001611644565b815260208082019290925260409081015f208151610140810183528154815260018201546001600160a01b03169381019390935260028101805491928401916106cc906115c1565b80601f01602080910402602001604051908101604052809291908181526020018280546106f8906115c1565b80156107435780601f1061071a57610100808354040283529160200191610743565b820191905f5260205f20905b81548152906001019060200180831161072657829003601f168201915b5050505050815260200160038201805461075c906115c1565b80601f0160208091040260200160405190810160405280929190818152602001828054610788906115c1565b80156107d35780601f106107aa576101008083540402835291602001916107d3565b820191905f5260205f20905b8154815290600101906020018083116107b657829003601f168201915b505050918352505060048201546020820152600582015460408201526006820154606082015260078201546080820152600882015460ff16151560a082015260099091015460c09091015282518390839081106108325761083261166a565b6020908102919091010152600101610664565b50925050505b92915050565b6004546001600160a01b0316331461087b5760405162461bcd60e51b81526004016104e7906115f9565b826108b65760405162461bcd60e51b815260206004820152600b60248201526a456d707479207469746c6560a81b60448201526064016104e7565b60058054905f6108c58361167e565b91905055506040518061014001604052806005548152602001336001600160a01b0316815260200185858080601f0160208091040260200160405190810160405280939291908181526020018383808284375f92019190915250505090825250604080516020601f8601819004810282018101909252848152918101919085908590819084018382808284375f92019190915250505090825250426020820181905260409091019061097a9062278d00611644565b81525f602080830182905260408084018390526060840183905260809093018290526005548252600781529082902083518155908301516001820180546001600160a01b0319166001600160a01b039092169190911790559082015160028201906109e590826116e2565b50606082015160038201906109fa90826116e2565b506080820151600482015560a082015160058083019190915560c0830151600683015560e0830151600783015561010083015160088301805460ff1916911515919091179055610120909201516009909101555433907f98120a6aaa04295520ab4e01c6c1235dd316e822cc9ff31db7b3f197366d18bd8686610a80426213c680611644565b604051610a8f9392919061179d565b60405180910390a350505050565b6004546001600160a01b03163314610ac75760405162461bcd60e51b81526004016104e7906115f9565b5f8181526007602052604081208054909103610b1a5760405162461bcd60e51b8152602060048201526012602482015271141c9bdc1bdcd85b081b9bdd08199bdd5b9960721b60448201526064016104e7565b600881015460ff1615610b655760405162461bcd60e51b8152602060048201526013602482015272105b1c9958591e481a5b5c1b195b595b9d1959606a1b60448201526064016104e7565b60088101805460ff19166001179055426009820181905560405183917f022c5894f70637e46c49debc0376ce8c5fa29222787feeaa2e9af248617325fe91610baf91815260200190565b60405180910390a25050565b610bc361121d565b5f82118015610bd457506005548211155b610c0d5760405162461bcd60e51b815260206004820152600a602482015269125b9d985b1a59081a5960b21b60448201526064016104e7565b5f828152600760209081526040918290208251610140810184528154815260018201546001600160a01b0316928101929092526002810180549293919291840191610c57906115c1565b80601f0160208091040260200160405190810160405280929190818152602001828054610c83906115c1565b8015610cce5780601f10610ca557610100808354040283529160200191610cce565b820191905f5260205f20905b815481529060010190602001808311610cb157829003601f168201915b50505050508152602001600382018054610ce7906115c1565b80601f0160208091040260200160405190810160405280929190818152602001828054610d13906115c1565b8015610d5e5780601f10610d3557610100808354040283529160200191610d5e565b820191905f5260205f20905b815481529060010190602001808311610d4157829003601f168201915b505050918352505060048201546020820152600582015460408201526006820154606082015260078201546080820152600882015460ff16151560a082015260099091015460c09091015292915050565b5f5460015460405163ba03e20560e01b815233600482015260248101919091526001600160a01b039091169063ba03e20590604401602060405180830381865afa158015610dff573d5f5f3e3d5ffd5b505050506040513d601f19601f82011682018060405250810190610e2391906117d4565b610e5e5760405162461bcd60e51b815260206004820152600c60248201526b139bdd081d995c9a599a595960a21b60448201526064016104e7565b5f82815260076020526040902060058101544210610ead5760405162461bcd60e51b815260206004820152600c60248201526b159bdd1a5b99c8195b99195960a21b60448201526064016104e7565b5f83815260086020908152604080832033845290915290205460ff1615610f065760405162461bcd60e51b815260206004820152600d60248201526c105b1c9958591e481d9bdd1959609a1b60448201526064016104e7565b80545f03610f4b5760405162461bcd60e51b8152602060048201526012602482015271141c9bdc1bdcd85b081b9bdd08199bdd5b9960721b60448201526064016104e7565b5f8381526008602090815260408083203384529091529020805460ff191660011790558115610f8f57600681018054905f610f858361167e565b9190505550610fa6565b600781018054905f610fa08361167e565b91905055505b60068054905f610fb58361167e565b9091555050335f9081526009602052604090205460ff16158015610fe357506002546001600160a01b031615155b156110ae57335f81815260096020526040808220805460ff1916600117905560025490516308686fcb60e21b8152600481019390935290916001600160a01b03909116906321a1bf2c906024016020604051808303815f875af115801561104c573d5f5f3e3d5ffd5b505050506040513d601f19601f8201168201806040525081019061107091906117ef565b60405181815290915033907fc5e5b314108c1f776c2302351b8278910ddb812b122b2717b1bc973146145e9a9060200160405180910390a2506110de565b335f9081526009602052604090205460ff166110de57335f908152600960205260409020805460ff191660011790555b6003546001600160a01b031615611193576003546040516340c10f1960e01b8152336004820152678ac7230489e8000060248201526001600160a01b03909116906340c10f19906044015f604051808303815f87803b15801561113f575f5ffd5b505af1158015611151573d5f5f3e3d5ffd5b5050604051678ac7230489e8000081523392507fed3ce637c8ccb5e2b22a02f352b00227ea301de0dcdd53461af277e5a93d2ea8915060200160405180910390a25b6040518215158152339084907ff2913dbe661ee2acc4a046d8fbcdc792373bda34c41c6086484b5345e5785e5f9060200160405180910390a3505050565b6004546001600160a01b031633146111fb5760405162461bcd60e51b81526004016104e7906115f9565b600280546001600160a01b0319166001600160a01b0392909216919091179055565b6040518061014001604052805f81526020015f6001600160a01b0316815260200160608152602001606081526020015f81526020015f81526020015f81526020015f81526020015f151581526020015f81525090565b5f60208284031215611283575f5ffd5b5035919050565b5f81518084528060208401602086015e5f602082860101526020601f19601f83011685010191505092915050565b8a81526001600160a01b038a166020820152610140604082018190525f906112e29083018b61128a565b82810360608401526112f4818b61128a565b6080840199909952505060a081019590955260c085019390935260e0840191909152151561010083015261012090910152949350505050565b80356001600160a01b0381168114611343575f5ffd5b919050565b5f60208284031215611358575f5ffd5b6113618261132d565b9392505050565b5f5f60408385031215611379575f5ffd5b823591506113896020840161132d565b90509250929050565b5f5f604083850312156113a3575f5ffd5b50508035926020909101359150565b805182525f60208201516113d160208501826001600160a01b03169052565b50604082015161014060408501526113ed61014085018261128a565b905060608301518482036060860152611406828261128a565b9150506080830151608085015260a083015160a085015260c083015160c085015260e083015160e085015261010083015161144661010086018215159052565b506101208301516101208501528091505092915050565b5f602082016020835280845180835260408501915060408160051b8601019250602086015f5b828110156114b457603f1987860301845261149f8583516113b2565b94506020938401939190910190600101611483565b50929695505050505050565b5f5f83601f8401126114d0575f5ffd5b50813567ffffffffffffffff8111156114e7575f5ffd5b6020830191508360208285010111156114fe575f5ffd5b9250929050565b5f5f5f5f60408587031215611518575f5ffd5b843567ffffffffffffffff81111561152e575f5ffd5b61153a878288016114c0565b909550935050602085013567ffffffffffffffff811115611559575f5ffd5b611565878288016114c0565b95989497509550505050565b602081525f61136160208301846113b2565b8015158114611590575f5ffd5b50565b5f5f604083850312156115a4575f5ffd5b8235915060208301356115b681611583565b809150509250929050565b600181811c908216806115d557607f821691505b6020821081036115f357634e487b7160e01b5f52602260045260245ffd5b50919050565b6020808252600990820152682737ba1037bbb732b960b91b604082015260600190565b634e487b7160e01b5f52604160045260245ffd5b634e487b7160e01b5f52601160045260245ffd5b8082018082111561084b5761084b611630565b8181038181111561084b5761084b611630565b634e487b7160e01b5f52603260045260245ffd5b5f6001820161168f5761168f611630565b5060010190565b601f8211156116dd57805f5260205f20601f840160051c810160208510156116bb5750805b601f840160051c820191505b818110156116da575f81556001016116c7565b50505b505050565b815167ffffffffffffffff8111156116fc576116fc61161c565b6117108161170a84546115c1565b84611696565b6020601f821160018114611742575f831561172b5750848201515b5f19600385901b1c1916600184901b1784556116da565b5f84815260208120601f198516915b828110156117715787850151825560209485019460019092019101611751565b508482101561178e57868401515f19600387901b60f8161c191681555b50505050600190811b01905550565b60408152826040820152828460608301375f606084830101525f6060601f19601f8601168301019050826020830152949350505050565b5f602082840312156117e4575f5ffd5b815161136181611583565b5f602082840312156117ff575f5ffd5b505191905056fea2646970667358221220426ee069a030110ad7fb144a15407496cf0bc1618f6b87e069a1a25b33b781b464736f6c634300081c00330000000000000000000000007893e1acaeedadfc4fa4a88e9e83a65e4c5bf19ed99b42e778498aa3c9c1f6a012359130252780511687a35982e8e52735453034",
        "nonce": "0xac",
        "chainId": "0x164ce"
      },
      "additionalContracts": [],
      "isFixedGasLimit": false
    },
    {
      "hash": "0xb6a6d47e65c73b8cdfbd7490f74dcd8e8e01f53c0498638babc3f7cd0606672b",
      "transactionType": "CALL",
      "contractName": "GiwaVote",
      "contractAddress": "0xa53dd044ad378816ec4f3064183a4a34ac557d05",
      "function": "setBadge(address)",
      "arguments": [
        "0xAe6612cAc8957fc069B24055Ae9b288bB350105d"
      ],
      "transaction": {
        "from": "0x84c29fb8b41f229ad09f4d68f84d676a28dc4a3a",
        "to": "0xa53dd044ad378816ec4f3064183a4a34ac557d05",
        "gas": "0xf901",
        "value": "0x0",
        "input": "0xff967e2e000000000000000000000000ae6612cac8957fc069b24055ae9b288bb350105d",
        "nonce": "0xad",
        "chainId": "0x164ce"
      },
      "additionalContracts": [],
      "isFixedGasLimit": false
    },
    {
      "hash": "0x0762f4f4a6a07e299eb47ad40f5a895213740144eeb2a5c828ae49de8af0a415",
      "transactionType": "CALL",
      "contractName": null,
      "contractAddress": "0xae6612cac8957fc069b24055ae9b288bb350105d",
      "function": "setMinter(address)",
      "arguments": [
        "0xa53Dd044AD378816EC4F3064183a4A34aC557d05"
      ],
      "transaction": {
        "from": "0x84c29fb8b41f229ad09f4d68f84d676a28dc4a3a",
        "to": "0xae6612cac8957fc069b24055ae9b288bb350105d",
        "gas": "0xa619",
        "value": "0x0",
        "input": "0xfca3b5aa000000000000000000000000a53dd044ad378816ec4f3064183a4a34ac557d05",
        "nonce": "0xae",
        "chainId": "0x164ce"
      },
      "additionalContracts": [],
      "isFixedGasLimit": false
    },
    {
      "hash": "0x2fd11504d1e582307bd889feabff0f5e9a7ac240782db33ed2a7923f973f4a75",
      "transactionType": "CALL",
      "contractName": "GiwaVote",
      "contractAddress": "0xa53dd044ad378816ec4f3064183a4a34ac557d05",
      "function": "setGVF(address)",
      "arguments": [
        "0x3b3780B42716B40150859bfAEAab103a8ED0Ad76"
      ],
      "transaction": {
        "from": "0x84c29fb8b41f229ad09f4d68f84d676a28dc4a3a",
        "to": "0xa53dd044ad378816ec4f3064183a4a34ac557d05",
        "gas": "0xf8a9",
        "value": "0x0",
        "input": "0x09be02820000000000000000000000003b3780b42716b40150859bfaeaab103a8ed0ad76",
        "nonce": "0xaf",
        "chainId": "0x164ce"
      },
      "additionalContracts": [],
      "isFixedGasLimit": false
    },
    {
      "hash": "0x0cfb6abc3f04a5b0f5478634f73e0a28dca9a5de2b2e890b9e961ee654d0020a",
      "transactionType": "CALL",
      "contractName": null,
      "contractAddress": "0x3b3780b42716b40150859bfaeaab103a8ed0ad76",
      "function": "setMinter(address)",
      "arguments": [
        "0xa53Dd044AD378816EC4F3064183a4A34aC557d05"
      ],
      "transaction": {
        "from": "0x84c29fb8b41f229ad09f4d68f84d676a28dc4a3a",
        "to": "0x3b3780b42716b40150859bfaeaab103a8ed0ad76",
        "gas": "0x9cc0",
        "value": "0x0",
        "input": "0xfca3b5aa000000000000000000000000a53dd044ad378816ec4f3064183a4a34ac557d05",
        "nonce": "0xb0",
        "chainId": "0x164ce"
      },
      "additionalContracts": [],
      "isFixedGasLimit": false
    },
    {
      "hash": "0x26e905c300a0159d718e292576f76ba1f4140f209bdc0b10c49ec8daec082a46",
      "transactionType": "CALL",
      "contractName": "GiwaVote",
      "contractAddress": "0xa53dd044ad378816ec4f3064183a4a34ac557d05",
      "function": "createProposal(string,string)",
      "arguments": [
        "GVF governance participation token added",
        "GVF (GiwaVerified Governance) is a non-tradeable governance participation token, separate from the 5 faucet tokens (GVA-GVE). It is NOT claimable from the faucet and NOT listed in the Swap module. Each wallet receives 10 GVF automatically every time they cast a vote on any governance proposal. This is cumulative - the GVF balance grows with every vote to show total governance engagement. GVF has no price, is not swappable, and does not grant additional voting power (voting remains 1 wallet = 1 vote regardless of GVF balance). It exists purely as an on-chain visible indicator of cumulative governance participation."
      ],
      "transaction": {
        "from": "0x84c29fb8b41f229ad09f4d68f84d676a28dc4a3a",
        "to": "0xa53dd044ad378816ec4f3064183a4a34ac557d05",
        "gas": "0xf72ef",
        "value": "0x0",
        "input": "0x65e481e2000000000000000000000000000000000000000000000000000000000000004000000000000000000000000000000000000000000000000000000000000000a0000000000000000000000000000000000000000000000000000000000000002847564620676f7665726e616e63652070617274696369706174696f6e20746f6b656e206164646564000000000000000000000000000000000000000000000000000000000000000000000000000000000000000000000000000000000000026d475646202847697761566572696669656420476f7665726e616e6365292069732061206e6f6e2d747261646561626c6520676f7665726e616e63652070617274696369706174696f6e20746f6b656e2c2073657061726174652066726f6d2074686520352066617563657420746f6b656e7320284756412d475645292e204974206973204e4f5420636c61696d61626c652066726f6d207468652066617563657420616e64204e4f54206c697374656420696e207468652053776170206d6f64756c652e20456163682077616c6c657420726563656976657320313020475646206175746f6d61746963616c6c792065766572792074696d6520746865792063617374206120766f7465206f6e20616e7920676f7665726e616e63652070726f706f73616c2e20546869732069732063756d756c6174697665202d20746865204756462062616c616e63652067726f7773207769746820657665727920766f746520746f2073686f7720746f74616c20676f7665726e616e636520656e676167656d656e742e2047564620686173206e6f2070726963652c206973206e6f7420737761707061626c652c20616e6420646f6573206e6f74206772616e74206164646974696f6e616c20766f74696e6720706f7765722028766f74696e672072656d61696e7320312077616c6c6574203d203120766f7465207265676172646c657373206f66204756462062616c616e6365292e2049742065786973747320707572656c7920617320616e206f6e2d636861696e2076697369626c6520696e64696361746f72206f662063756d756c617469766520676f7665726e616e63652070617274696369706174696f6e2e00000000000000000000000000000000000000",
        "nonce": "0xb1",
        "chainId": "0x164ce"
      },
      "additionalContracts": [],
      "isFixedGasLimit": false
    },
    {
      "hash": "0x49d2073a4eaee35f21352ebd91b5131751e564670e6e7ea73a6c264814be78ac",
      "transactionType": "CALL",
      "contractName": "GiwaVote",
      "contractAddress": "0xa53dd044ad378816ec4f3064183a4a34ac557d05",
      "function": "vote(uint256,bool)",
      "arguments": [
        "1",
        "true"
      ],
      "transaction": {
        "from": "0x84c29fb8b41f229ad09f4d68f84d676a28dc4a3a",
        "to": "0xa53dd044ad378816ec4f3064183a4a34ac557d05",
        "gas": "0x41166",
        "value": "0x0",
        "input": "0xc9d27afe00000000000000000000000000000000000000000000000000000000000000010000000000000000000000000000000000000000000000000000000000000001",
        "nonce": "0xb2",
        "chainId": "0x164ce"
      },
      "additionalContracts": [],
      "isFixedGasLimit": false
    },
    {
      "hash": "0xdd6d1154c82a60f242693b1ebde3e56bf2aec97739242b106e10c311855b97fe",
      "transactionType": "CALL",
      "contractName": "GiwaVote",
      "contractAddress": "0xa53dd044ad378816ec4f3064183a4a34ac557d05",
      "function": "markImplemented(uint256)",
      "arguments": [
        "1"
      ],
      "transaction": {
        "from": "0x84c29fb8b41f229ad09f4d68f84d676a28dc4a3a",
        "to": "0xa53dd044ad378816ec4f3064183a4a34ac557d05",
        "gas": "0x182e0",
        "value": "0x0",
        "input": "0xb24aaebc0000000000000000000000000000000000000000000000000000000000000001",
        "nonce": "0xb3",
        "chainId": "0x164ce"
      },
      "additionalContracts": [],
      "isFixedGasLimit": false
    },
    {
      "hash": "0xfdfd8322910cb0932b4df6cfe7f700902a7667532a8a9f8224bc8f4f9e7c1ff6",
      "transactionType": "CALL",
      "contractName": "GiwaVote",
      "contractAddress": "0xa53dd044ad378816ec4f3064183a4a34ac557d05",
      "function": "createProposal(string,string)",
      "arguments": [
        "Add a \\'Claim All\\' batch function to the faucet",
        "Currently claiming all 5 faucet tokens requires 5 separate transactions, each needing its own wallet confirmation and gas fee. This proposal adds a claimAll() function to the faucet contract that claims every token the caller is currently eligible for (not on cooldown) in a single transaction, reducing friction and gas costs for active testers. Real faucet data shows all reserves are still nearly full (GVA at 99.9%, others at 100%), so this proposal is purely a UX/gas-efficiency improvement, not a scarcity response."
      ],
      "transaction": {
        "from": "0x84c29fb8b41f229ad09f4d68f84d676a28dc4a3a",
        "to": "0xa53dd044ad378816ec4f3064183a4a34ac557d05",
        "gas": "0xd8c48",
        "value": "0x0",
        "input": "0x65e481e2000000000000000000000000000000000000000000000000000000000000004000000000000000000000000000000000000000000000000000000000000000a0000000000000000000000000000000000000000000000000000000000000002e41646420612027436c61696d20416c6c272062617463682066756e6374696f6e20746f2074686520666175636574000000000000000000000000000000000000000000000000000000000000000000000000000000000000000000000000020943757272656e746c7920636c61696d696e6720616c6c20352066617563657420746f6b656e732072657175697265732035207365706172617465207472616e73616374696f6e732c2065616368206e656564696e6720697473206f776e2077616c6c657420636f6e6669726d6174696f6e20616e6420676173206665652e20546869732070726f706f73616c2061646473206120636c61696d416c6c28292066756e6374696f6e20746f207468652066617563657420636f6e7472616374207468617420636c61696d7320657665727920746f6b656e207468652063616c6c65722069732063757272656e746c7920656c696769626c6520666f7220286e6f74206f6e20636f6f6c646f776e2920696e20612073696e676c65207472616e73616374696f6e2c207265647563696e67206672696374696f6e20616e642067617320636f73747320666f722061637469766520746573746572732e205265616c2066617563657420646174612073686f777320616c6c20726573657276657320617265207374696c6c206e6561726c792066756c6c20284756412061742039392e39252c206f74686572732061742031303025292c20736f20746869732070726f706f73616c20697320707572656c7920612055582f6761732d656666696369656e637920696d70726f76656d656e742c206e6f74206120736361726369747920726573706f6e73652e0000000000000000000000000000000000000000000000",
        "nonce": "0xb4",
        "chainId": "0x164ce"
      },
      "additionalContracts": [],
      "isFixedGasLimit": false
    }
  ],
  "receipts": [
    {
      "type": "0x2",
      "status": "0x1",
      "cumulativeGasUsed": "0x216a9e",
      "logs": [],
      "logsBloom": "0x00000000000000000000000000000000000000000000000000000000000000000000000000000000000000000000000000000000000000000000000000000000000000000000000000000000000000000000000000000000000000000000000000000000000000000000000000000000000000000000000000000000000000000000000000000000000000000000000000000000000000000000000000000000000000000000000000000000000000000000000000000000000000000000000000000000000000000000000000000000000000000000000000000000000000000000000000000000000000000000000000000000000000000000000000000000",
      "transactionHash": "0xc2635f5d5f39043c446b7079a4989f71c6e35a22c205d4f46aac67fb43812dd4",
      "transactionIndex": "0x5",
      "blockHash": "0xea21530b5f1d7ac515bcbe6b58cab5fb8c88c0f7ceab5994c78cb5870a93482d",
      "blockNumber": "0x1dece6e",
      "gasUsed": "0x165d51",
      "effectiveGasPrice": "0xf433d",
      "blobGasUsed": "0x165b70",
      "from": "0x84c29fb8b41f229ad09f4d68f84d676a28dc4a3a",
      "to": null,
      "contractAddress": "0xa53dd044ad378816ec4f3064183a4a34ac557d05"
    },
    {
      "type": "0x2",
      "status": "0x1",
      "cumulativeGasUsed": "0xbff02",
      "logs": [],
      "logsBloom": "0x00000000000000000000000000000000000000000000000000000000000000000000000000000000000000000000000000000000000000000000000000000000000000000000000000000000000000000000000000000000000000000000000000000000000000000000000000000000000000000000000000000000000000000000000000000000000000000000000000000000000000000000000000000000000000000000000000000000000000000000000000000000000000000000000000000000000000000000000000000000000000000000000000000000000000000000000000000000000000000000000000000000000000000000000000000000",
      "transactionHash": "0xb6a6d47e65c73b8cdfbd7490f74dcd8e8e01f53c0498638babc3f7cd0606672b",
      "transactionIndex": "0x8",
      "blockHash": "0x4a9ea012efcd645b8360e44233069d940c41963cac010c401610b7bc398858c5",
      "blockNumber": "0x1dece70",
      "gasUsed": "0xb447",
      "effectiveGasPrice": "0xf433d",
      "blobGasUsed": "0x9c40",
      "from": "0x84c29fb8b41f229ad09f4d68f84d676a28dc4a3a",
      "to": "0xa53dd044ad378816ec4f3064183a4a34ac557d05",
      "contractAddress": null
    },
    {
      "type": "0x2",
      "status": "0x1",
      "cumulativeGasUsed": "0x197cff",
      "logs": [],
      "logsBloom": "0x00000000000000000000000000000000000000000000000000000000000000000000000000000000000000000000000000000000000000000000000000000000000000000000000000000000000000000000000000000000000000000000000000000000000000000000000000000000000000000000000000000000000000000000000000000000000000000000000000000000000000000000000000000000000000000000000000000000000000000000000000000000000000000000000000000000000000000000000000000000000000000000000000000000000000000000000000000000000000000000000000000000000000000000000000000000",
      "transactionHash": "0x0762f4f4a6a07e299eb47ad40f5a895213740144eeb2a5c828ae49de8af0a415",
      "transactionIndex": "0xf",
      "blockHash": "0x1d0d3c5f8d4eb04269aa9b4fb64d617330cd3a14262b3bd045d19f3b1000bfe1",
      "blockNumber": "0x1dece73",
      "gasUsed": "0x7193",
      "effectiveGasPrice": "0xf433d",
      "blobGasUsed": "0x9c40",
      "from": "0x84c29fb8b41f229ad09f4d68f84d676a28dc4a3a",
      "to": "0xae6612cac8957fc069b24055ae9b288bb350105d",
      "contractAddress": null
    },
    {
      "type": "0x2",
      "status": "0x1",
      "cumulativeGasUsed": "0x1991f3",
      "logs": [],
      "logsBloom": "0x00000000000000000000000000000000000000000000000000000000000000000000000000000000000000000000000000000000000000000000000000000000000000000000000000000000000000000000000000000000000000000000000000000000000000000000000000000000000000000000000000000000000000000000000000000000000000000000000000000000000000000000000000000000000000000000000000000000000000000000000000000000000000000000000000000000000000000000000000000000000000000000000000000000000000000000000000000000000000000000000000000000000000000000000000000000",
      "transactionHash": "0x2fd11504d1e582307bd889feabff0f5e9a7ac240782db33ed2a7923f973f4a75",
      "transactionIndex": "0x18",
      "blockHash": "0xbb653c054bcda495b1efc0485a395e40f632ef72eaab377665b3548f7bf2c269",
      "blockNumber": "0x1dece75",
      "gasUsed": "0xb407",
      "effectiveGasPrice": "0xf433d",
      "blobGasUsed": "0x9c40",
      "from": "0x84c29fb8b41f229ad09f4d68f84d676a28dc4a3a",
      "to": "0xa53dd044ad378816ec4f3064183a4a34ac557d05",
      "contractAddress": null
    },
    {
      "type": "0x2",
      "status": "0x1",
      "cumulativeGasUsed": "0x552e5",
      "logs": [],
      "logsBloom": "0x00000000000000000000000000000000000000000000000000000000000000000000000000000000000000000000000000000000000000000000000000000000000000000000000000000000000000000000000000000000000000000000000000000000000000000000000000000000000000000000000000000000000000000000000000000000000000000000000000000000000000000000000000000000000000000000000000000000000000000000000000000000000000000000000000000000000000000000000000000000000000000000000000000000000000000000000000000000000000000000000000000000000000000000000000000000",
      "transactionHash": "0x0cfb6abc3f04a5b0f5478634f73e0a28dca9a5de2b2e890b9e961ee654d0020a",
      "transactionIndex": "0x4",
      "blockHash": "0x729cd5413e652a52c6f2d4025d9834b0d8100dcd4f34358fd8f1c5749e09f904",
      "blockNumber": "0x1dece78",
      "gasUsed": "0x717d",
      "effectiveGasPrice": "0xf433d",
      "blobGasUsed": "0x9c40",
      "from": "0x84c29fb8b41f229ad09f4d68f84d676a28dc4a3a",
      "to": "0x3b3780b42716b40150859bfaeaab103a8ed0ad76",
      "contractAddress": null
    },
    {
      "type": "0x2",
      "status": "0x1",
      "cumulativeGasUsed": "0x26c539",
      "logs": [
        {
          "address": "0xa53dd044ad378816ec4f3064183a4a34ac557d05",
          "topics": [
            "0x98120a6aaa04295520ab4e01c6c1235dd316e822cc9ff31db7b3f197366d18bd",
            "0x0000000000000000000000000000000000000000000000000000000000000001",
            "0x00000000000000000000000084c29fb8b41f229ad09f4d68f84d676a28dc4a3a"
          ],
          "data": "0x0000000000000000000000000000000000000000000000000000000000000040000000000000000000000000000000000000000000000000000000006a748156000000000000000000000000000000000000000000000000000000000000002847564620676f7665726e616e63652070617274696369706174696f6e20746f6b656e206164646564000000000000000000000000000000000000000000000000",
          "blockHash": "0x3dc9a194215e2c3ce65391d46367389050201391f907888eb9c7bfbbc223d2ae",
          "blockNumber": "0x1dece7a",
          "blockTimestamp": "0x6a60bad6",
          "transactionHash": "0x26e905c300a0159d718e292576f76ba1f4140f209bdc0b10c49ec8daec082a46",
          "transactionIndex": "0x16",
          "logIndex": "0x13",
          "removed": false
        }
      ],
      "logsBloom": "0x00000000000000000000000000000000000000000000000000000000000000000000000000000000000000000000000000000000000000000000000000040000000000000000000000000000100000010000000000040000000000000000000000000000000000000000000000000000000000000000000000010000000000000000000048000000000000000000000000000000000000000000000000000000000000000000000000000000000000000000000000000000000000001000000000000010000000000000000000000002000000000000000000000000000040000000000000000000000000000000000000200000000000000000000000000000",
      "transactionHash": "0x26e905c300a0159d718e292576f76ba1f4140f209bdc0b10c49ec8daec082a46",
      "transactionIndex": "0x16",
      "blockHash": "0x3dc9a194215e2c3ce65391d46367389050201391f907888eb9c7bfbbc223d2ae",
      "blockNumber": "0x1dece7a",
      "gasUsed": "0xa903b",
      "effectiveGasPrice": "0xf433d",
      "blobGasUsed": "0x324b0",
      "from": "0x84c29fb8b41f229ad09f4d68f84d676a28dc4a3a",
      "to": "0xa53dd044ad378816ec4f3064183a4a34ac557d05",
      "contractAddress": null
    },
    {
      "type": "0x2",
      "status": "0x1",
      "cumulativeGasUsed": "0x95c7e",
      "logs": [
        {
          "address": "0xae6612cac8957fc069b24055ae9b288bb350105d",
          "topics": [
            "0xddf252ad1be2c89b69c2b068fc378daa952ba7f163c4a11628f55a4df523b3ef",
            "0x0000000000000000000000000000000000000000000000000000000000000000",
            "0x00000000000000000000000084c29fb8b41f229ad09f4d68f84d676a28dc4a3a",
            "0x0000000000000000000000000000000000000000000000000000000000000002"
          ],
          "data": "0x",
          "blockHash": "0x84c9a00500f906883eb5066ddc7eac721aa8abd23e7f1d811b4467c319f3d703",
          "blockNumber": "0x1dece7d",
          "blockTimestamp": "0x6a60bad9",
          "transactionHash": "0x49d2073a4eaee35f21352ebd91b5131751e564670e6e7ea73a6c264814be78ac",
          "transactionIndex": "0x3",
          "logIndex": "0x4",
          "removed": false
        },
        {
          "address": "0xa53dd044ad378816ec4f3064183a4a34ac557d05",
          "topics": [
            "0xc5e5b314108c1f776c2302351b8278910ddb812b122b2717b1bc973146145e9a",
            "0x00000000000000000000000084c29fb8b41f229ad09f4d68f84d676a28dc4a3a"
          ],
          "data": "0x0000000000000000000000000000000000000000000000000000000000000002",
          "blockHash": "0x84c9a00500f906883eb5066ddc7eac721aa8abd23e7f1d811b4467c319f3d703",
          "blockNumber": "0x1dece7d",
          "blockTimestamp": "0x6a60bad9",
          "transactionHash": "0x49d2073a4eaee35f21352ebd91b5131751e564670e6e7ea73a6c264814be78ac",
          "transactionIndex": "0x3",
          "logIndex": "0x5",
          "removed": false
        },
        {
          "address": "0x3b3780b42716b40150859bfaeaab103a8ed0ad76",
          "topics": [
            "0xddf252ad1be2c89b69c2b068fc378daa952ba7f163c4a11628f55a4df523b3ef",
            "0x0000000000000000000000000000000000000000000000000000000000000000",
            "0x00000000000000000000000084c29fb8b41f229ad09f4d68f84d676a28dc4a3a"
          ],
          "data": "0x0000000000000000000000000000000000000000000000008ac7230489e80000",
          "blockHash": "0x84c9a00500f906883eb5066ddc7eac721aa8abd23e7f1d811b4467c319f3d703",
          "blockNumber": "0x1dece7d",
          "blockTimestamp": "0x6a60bad9",
          "transactionHash": "0x49d2073a4eaee35f21352ebd91b5131751e564670e6e7ea73a6c264814be78ac",
          "transactionIndex": "0x3",
          "logIndex": "0x6",
          "removed": false
        },
        {
          "address": "0xa53dd044ad378816ec4f3064183a4a34ac557d05",
          "topics": [
            "0xed3ce637c8ccb5e2b22a02f352b00227ea301de0dcdd53461af277e5a93d2ea8",
            "0x00000000000000000000000084c29fb8b41f229ad09f4d68f84d676a28dc4a3a"
          ],
          "data": "0x0000000000000000000000000000000000000000000000008ac7230489e80000",
          "blockHash": "0x84c9a00500f906883eb5066ddc7eac721aa8abd23e7f1d811b4467c319f3d703",
          "blockNumber": "0x1dece7d",
          "blockTimestamp": "0x6a60bad9",
          "transactionHash": "0x49d2073a4eaee35f21352ebd91b5131751e564670e6e7ea73a6c264814be78ac",
          "transactionIndex": "0x3",
          "logIndex": "0x7",
          "removed": false
        },
        {
          "address": "0xa53dd044ad378816ec4f3064183a4a34ac557d05",
          "topics": [
            "0xf2913dbe661ee2acc4a046d8fbcdc792373bda34c41c6086484b5345e5785e5f",
            "0x0000000000000000000000000000000000000000000000000000000000000001",
            "0x00000000000000000000000084c29fb8b41f229ad09f4d68f84d676a28dc4a3a"
          ],
          "data": "0x0000000000000000000000000000000000000000000000000000000000000001",
          "blockHash": "0x84c9a00500f906883eb5066ddc7eac721aa8abd23e7f1d811b4467c319f3d703",
          "blockNumber": "0x1dece7d",
          "blockTimestamp": "0x6a60bad9",
          "transactionHash": "0x49d2073a4eaee35f21352ebd91b5131751e564670e6e7ea73a6c264814be78ac",
          "transactionIndex": "0x3",
          "logIndex": "0x8",
          "removed": false
        }
      ],
      "logsBloom": "0x04000000000000000000000000000000000000000000000000100000000000000000000000000000000000100000000000000000000000000000000000040000000000000000000000000008102040000010000000040002040000000000000000000000020000000000000000000800000000000400000000010010000001000000200048000000004000001200000000000000100000000000000000000000000000000000000000000100000001000000000000000000000000001000000000000002000000000000000000000000000000000000000000000000000060000000000000000000000000000000000000200000008000000000000000000000",
      "transactionHash": "0x49d2073a4eaee35f21352ebd91b5131751e564670e6e7ea73a6c264814be78ac",
      "transactionIndex": "0x3",
      "blockHash": "0x84c9a00500f906883eb5066ddc7eac721aa8abd23e7f1d811b4467c319f3d703",
      "blockNumber": "0x1dece7d",
      "gasUsed": "0x2f1f5",
      "effectiveGasPrice": "0xf433d",
      "blobGasUsed": "0x9c40",
      "from": "0x84c29fb8b41f229ad09f4d68f84d676a28dc4a3a",
      "to": "0xa53dd044ad378816ec4f3064183a4a34ac557d05",
      "contractAddress": null
    },
    {
      "type": "0x2",
      "status": "0x1",
      "cumulativeGasUsed": "0x201bed",
      "logs": [
        {
          "address": "0xa53dd044ad378816ec4f3064183a4a34ac557d05",
          "topics": [
            "0x022c5894f70637e46c49debc0376ce8c5fa29222787feeaa2e9af248617325fe",
            "0x0000000000000000000000000000000000000000000000000000000000000001"
          ],
          "data": "0x000000000000000000000000000000000000000000000000000000006a60badb",
          "blockHash": "0xb52b1fb298a9f8b1f4685aa81d0666c82f81ef807116fdd94f15b4f6ea6ee28f",
          "blockNumber": "0x1dece7f",
          "blockTimestamp": "0x6a60badb",
          "transactionHash": "0xdd6d1154c82a60f242693b1ebde3e56bf2aec97739242b106e10c311855b97fe",
          "transactionIndex": "0x9",
          "logIndex": "0x11",
          "removed": false
        }
      ],
      "logsBloom": "0x00000000000000000000000000000000000000000000000000000000000000000000000000000000000000000000000000000000000000000000000000040000000000000000000000000000000000000000000000040000000000000000000000000000000000000000000000000000000000000000000000000000008000000000000048000000000000000000000000000000000000000000000000000000000000000000000000000000000000000000000100000000000000001000000000000000000000000000000000000000000000000000000200000000000040000000000000000000000000000000000000000000000000000000000000000000",
      "transactionHash": "0xdd6d1154c82a60f242693b1ebde3e56bf2aec97739242b106e10c311855b97fe",
      "transactionIndex": "0x9",
      "blockHash": "0xb52b1fb298a9f8b1f4685aa81d0666c82f81ef807116fdd94f15b4f6ea6ee28f",
      "blockNumber": "0x1dece7f",
      "gasUsed": "0x11818",
      "effectiveGasPrice": "0xf433d",
      "blobGasUsed": "0x9c40",
      "from": "0x84c29fb8b41f229ad09f4d68f84d676a28dc4a3a",
      "to": "0xa53dd044ad378816ec4f3064183a4a34ac557d05",
      "contractAddress": null
    },
    {
      "type": "0x2",
      "status": "0x1",
      "cumulativeGasUsed": "0xb19d0",
      "logs": [
        {
          "address": "0xa53dd044ad378816ec4f3064183a4a34ac557d05",
          "topics": [
            "0x98120a6aaa04295520ab4e01c6c1235dd316e822cc9ff31db7b3f197366d18bd",
            "0x0000000000000000000000000000000000000000000000000000000000000002",
            "0x00000000000000000000000084c29fb8b41f229ad09f4d68f84d676a28dc4a3a"
          ],
          "data": "0x0000000000000000000000000000000000000000000000000000000000000040000000000000000000000000000000000000000000000000000000006a74815e000000000000000000000000000000000000000000000000000000000000002e41646420612027436c61696d20416c6c272062617463682066756e6374696f6e20746f2074686520666175636574000000000000000000000000000000000000",
          "blockHash": "0x5889881c7ad7be62cd3f68394ca6060e6a1fecb250cbd6e52a543ba6a5edf735",
          "blockNumber": "0x1dece82",
          "blockTimestamp": "0x6a60bade",
          "transactionHash": "0xfdfd8322910cb0932b4df6cfe7f700902a7667532a8a9f8224bc8f4f9e7c1ff6",
          "transactionIndex": "0x4",
          "logIndex": "0x0",
          "removed": false
        }
      ],
      "logsBloom": "0x04000000000000000000000000000000000000000000000000000000000000000000000000000000000000000000000000000000000000000000000000000000000000000000000000000000100000010000000000000000000000000000000000000000000000000000000000000000000000000000000000010000000000000000000048000000000000000000000000000000000000000000000000000000000000000000000000000100000000000000000000000000000000001000000000000010000000000000000000000002000000000000000000000000000000000000000000000000000000000000000000200000008000000000000000000000",
      "transactionHash": "0xfdfd8322910cb0932b4df6cfe7f700902a7667532a8a9f8224bc8f4f9e7c1ff6",
      "transactionIndex": "0x4",
      "blockHash": "0x5889881c7ad7be62cd3f68394ca6060e6a1fecb250cbd6e52a543ba6a5edf735",
      "blockNumber": "0x1dece82",
      "gasUsed": "0x9437a",
      "effectiveGasPrice": "0xf433d",
      "blobGasUsed": "0x2fda0",
      "from": "0x84c29fb8b41f229ad09f4d68f84d676a28dc4a3a",
      "to": "0xa53dd044ad378816ec4f3064183a4a34ac557d05",
      "contractAddress": null
    }
  ],
  "libraries": [],
  "pending": [],
  "returns": {},
  "timestamp": 1784724191344,
  "chain": 91342,
  "commit": "d951f2b"
}