{
  "transactions": [
    {
      "hash": "0x133a273fb1461e2afdf2090bbfd3358ef35b7dd69911edeeb5626f8d081ba7d5",
      "transactionType": "CREATE",
      "contractName": "GiwaSwap",
      "contractAddress": "0x5095bff088bcecf56476dceaae45c52351b6ef2b",
      "function": null,
      "arguments": [
        "0x7893e1AcaeEDADFC4fa4a88e9E83a65e4C5BF19e",
        "0xd99b42e778498aa3c9c1f6a012359130252780511687a35982e8e52735453034"
      ],
      "transaction": {
        "from": "0x84c29fb8b41f229ad09f4d68f84d676a28dc4a3a",
        "to": null,
        "gas": "0x130e64",
        "value": "0x0",
        "input": "0x6080604052348015600e575f5ffd5b50604051611005380380611005833981016040819052602b9160a6565b6001600160a01b03821660775760405162461bcd60e51b815260206004820152601060248201526f24b73b30b634b2103b32b934b334b2b960811b604482015260640160405180910390fd5b5f80546001600160a01b039093166001600160a01b0319938416179055600155600280549091163317905560db565b5f5f6040838503121560b6575f5ffd5b82516001600160a01b038116811460cb575f5ffd5b6020939093015192949293505050565b610f1d806100e85f395ff3fe608060405234801561000f575f5ffd5b50600436106100a5575f3560e01c80638da5cb5b1161006e5780638da5cb5b146101855780639238945314610198578063cf6c62ea146101a1578063d52bb6f4146101b4578063d73792a9146101dc578063fe029156146101e5575f5ffd5b8062bbf1e4146100a95780632b7ac3f31461011d5780633ee7f9d31461014757806341cd47bf1461015c5780634aa0665214610172575b5f5ffd5b6100ec6100b7366004610cee565b60036020525f90815260409020546001600160701b0380821691600160701b810490911690600160e01b900463ffffffff1683565b604080516001600160701b03948516815293909216602084015263ffffffff16908201526060015b60405180910390f35b5f5461012f906001600160a01b031681565b6040516001600160a01b039091168152602001610114565b61015a610155366004610d20565b6101f8565b005b610164600381565b604051908152602001610114565b610164610180366004610d5f565b610418565b60025461012f906001600160a01b031681565b61016460015481565b61015a6101af366004610d20565b61057f565b6101c76101c2366004610d99565b610780565b60408051928352602083019190915201610114565b6101646103e881565b61015a6101f3366004610d20565b6107bc565b6002546001600160a01b031633146102435760405162461bcd60e51b81526020600482015260096024820152682737ba1037bbb732b960b91b60448201526064015b60405180910390fd5b826001600160a01b0316846001600160a01b0316036102745760405162461bcd60e51b815260040161023a90610dca565b5f8211801561028257505f81115b61029e5760405162461bcd60e51b815260040161023a90610dee565b5f6102a98585610b07565b5090505f6102b78686610b34565b90505f5f836001600160a01b0316886001600160a01b0316146102db5784866102de565b85855b5f858152600360205260408120805493955091935084926103099084906001600160701b0316610e27565b92506101000a8154816001600160701b0302191690836001600160701b031602179055508060035f8581526020019081526020015f205f01600e8282829054906101000a90046001600160701b03166103629190610e27565b92506101000a8154816001600160701b0302191690836001600160701b031602179055506103a433878a6001600160a01b0316610ba99092919063ffffffff16565b6103b86001600160a01b0388163387610ba9565b866001600160a01b0316886001600160a01b03167f3b5c196aff80bb96c03b41c96906b66827014de931d1b36e0ede6ee8caeb4bf98888604051610406929190918252602082015260400190565b60405180910390a35050505050505050565b5f826001600160a01b0316846001600160a01b03160361044a5760405162461bcd60e51b815260040161023a90610dca565b5f82116104695760405162461bcd60e51b815260040161023a90610dee565b5f6104748585610b07565b5090505f6104828686610b34565b5f818152600360205260408120919250806001600160a01b03898116908616146104c05782546001600160701b03600160701b8204811691166104d7565b82546001600160701b0380821691600160701b9004165b915091505f821180156104e957505f81115b6105245760405162461bcd60e51b815260206004820152600c60248201526b4e6f206c697175696469747960a01b604482015260640161023a565b5f61053260036103e8610e46565b61053c9089610e59565b90505f6105498383610e59565b90505f826105596103e887610e59565b6105639190610e70565b905061056f8183610e83565b9c9b505050505050505050505050565b6002546001600160a01b031633146105c55760405162461bcd60e51b81526020600482015260096024820152682737ba1037bbb732b960b91b604482015260640161023a565b826001600160a01b0316846001600160a01b0316036105f65760405162461bcd60e51b815260040161023a90610dca565b5f8211801561060457505f81115b6106205760405162461bcd60e51b815260040161023a90610dee565b5f61062b8585610b07565b5090505f6106398686610b34565b90506106506001600160a01b038716333087610be3565b6106656001600160a01b038616333086610be3565b5f5f836001600160a01b0316886001600160a01b03161461068757848661068a565b85855b5f858152600360205260408120805493955091935084926106b59084906001600160701b0316610ea2565b92506101000a8154816001600160701b0302191690836001600160701b031602179055508060035f8581526020019081526020015f205f01600e8282829054906101000a90046001600160701b031661070e9190610ea2565b92506101000a8154816001600160701b0302191690836001600160701b03160217905550866001600160a01b0316886001600160a01b03167f36f3b2e1a21c19137dd82ec243b0708a1d26b3d1fa1dc49c44c4c366a58781388888604051610406929190918252602082015260400190565b5f5f5f61078d8585610b34565b5f908152600360205260409020546001600160701b038082169450600160701b909104169150505b9250929050565b826001600160a01b0316846001600160a01b0316036107ed5760405162461bcd60e51b815260040161023a90610dca565b5f821161080c5760405162461bcd60e51b815260040161023a90610dee565b5f5460015460405163ba03e20560e01b815233600482015260248101919091526001600160a01b039091169063ba03e20590604401602060405180830381865afa15801561085c573d5f5f3e3d5ffd5b505050506040513d601f19601f820116820180604052508101906108809190610ec1565b6108bb5760405162461bcd60e51b815260206004820152600c60248201526b139bdd081d995c9a599a595960a21b604482015260640161023a565b5f6108c7858585610418565b9050818110156109195760405162461bcd60e51b815260206004820152601a60248201527f496e73756666696369656e74206f757470757420616d6f756e74000000000000604482015260640161023a565b5f6109248686610b07565b5090505f6109328787610b34565b90506109496001600160a01b038816333088610be3565b816001600160a01b0316876001600160a01b031603610a0a575f81815260036020526040812080548792906109889084906001600160701b0316610ea2565b92506101000a8154816001600160701b0302191690836001600160701b031602179055508260035f8381526020019081526020015f205f01600e8282829054906101000a90046001600160701b03166109e19190610e27565b92506101000a8154816001600160701b0302191690836001600160701b03160217905550610a9f565b5f8181526003602052604090208054869190600e90610a3a908490600160701b90046001600160701b0316610ea2565b82546101009290920a6001600160701b038181021990931691831602179091555f83815260036020526040812080548794509092610a7a91859116610e27565b92506101000a8154816001600160701b0302191690836001600160701b031602179055505b610ab36001600160a01b0387163385610ba9565b60408051868152602081018590526001600160a01b0380891692908a169133917fcd3829a3813dc3cdd188fd3d01dcf3268c16be2fdd2dd21d0665418816e46062910160405180910390a450505050505050565b5f5f826001600160a01b0316846001600160a01b03161015610b2d5750829050816107b5565b5090929050565b5f5f5f836001600160a01b0316856001600160a01b031610610b57578385610b5a565b84845b6040516bffffffffffffffffffffffff19606084811b8216602084015283901b166034820152919350915060480160405160208183030381529060405280519060200120925050505b92915050565b610bb68383836001610c1f565b610bde57604051635274afe760e01b81526001600160a01b038416600482015260240161023a565b505050565b610bf1848484846001610c81565b610c1957604051635274afe760e01b81526001600160a01b038516600482015260240161023a565b50505050565b60405163a9059cbb60e01b5f8181526001600160a01b038616600452602485905291602083604481808b5af1925060015f51148316610c75578383151615610c69573d5f823e3d81fd5b5f873b113d1516831692505b60405250949350505050565b6040516323b872dd60e01b5f8181526001600160a01b038781166004528616602452604485905291602083606481808c5af1925060015f51148316610cdd578383151615610cd1573d5f823e3d81fd5b5f883b113d1516831692505b604052505f60605295945050505050565b5f60208284031215610cfe575f5ffd5b5035919050565b80356001600160a01b0381168114610d1b575f5ffd5b919050565b5f5f5f5f60808587031215610d33575f5ffd5b610d3c85610d05565b9350610d4a60208601610d05565b93969395505050506040820135916060013590565b5f5f5f60608486031215610d71575f5ffd5b610d7a84610d05565b9250610d8860208501610d05565b929592945050506040919091013590565b5f5f60408385031215610daa575f5ffd5b610db383610d05565b9150610dc160208401610d05565b90509250929050565b6020808252600a908201526929b0b6b2903a37b5b2b760b11b604082015260600190565b6020808252600b908201526a16995c9bc8185b5bdd5b9d60aa1b604082015260600190565b634e487b7160e01b5f52601160045260245ffd5b6001600160701b038281168282160390811115610ba357610ba3610e13565b81810381811115610ba357610ba3610e13565b8082028115828204841417610ba357610ba3610e13565b80820180821115610ba357610ba3610e13565b5f82610e9d57634e487b7160e01b5f52601260045260245ffd5b500490565b6001600160701b038181168382160190811115610ba357610ba3610e13565b5f60208284031215610ed1575f5ffd5b81518015158114610ee0575f5ffd5b939250505056fea26469706673582212201d64b9fc4037da93c174d4491626d9d9b2e3e117c359402a07459b73b4ae65ce64736f6c634300081c00330000000000000000000000007893e1acaeedadfc4fa4a88e9e83a65e4c5bf19ed99b42e778498aa3c9c1f6a012359130252780511687a35982e8e52735453034",
        "nonce": "0x1b",
        "chainId": "0x164ce"
      },
      "additionalContracts": [],
      "isFixedGasLimit": false
    },
    {
      "hash": "0x347a686bd861392d7223a0e1125832b941d46f16b9ab8aeb8ba6c27e7e0a2247",
      "transactionType": "CALL",
      "contractName": null,
      "contractAddress": "0x05e894ce2c176dbc30176626efa24850af2af0e2",
      "function": "approve(address,uint256)",
      "arguments": [
        "0x5095Bff088BcECf56476DcEAAE45c52351b6EF2B",
        "500000000000000000000"
      ],
      "transaction": {
        "from": "0x84c29fb8b41f229ad09f4d68f84d676a28dc4a3a",
        "to": "0x05e894ce2c176dbc30176626efa24850af2af0e2",
        "gas": "0x108f3",
        "value": "0x0",
        "input": "0x095ea7b30000000000000000000000005095bff088bcecf56476dceaae45c52351b6ef2b00000000000000000000000000000000000000000000001b1ae4d6e2ef500000",
        "nonce": "0x1c",
        "chainId": "0x164ce"
      },
      "additionalContracts": [],
      "isFixedGasLimit": false
    },
    {
      "hash": "0xcfe227eba01fa14dab84e62d6b1789491ce5946b99c4375bfba22345944aa563",
      "transactionType": "CALL",
      "contractName": null,
      "contractAddress": "0x00e8f81208a33bf516cd7dd46e7597dfb40f5a25",
      "function": "approve(address,uint256)",
      "arguments": [
        "0x5095Bff088BcECf56476DcEAAE45c52351b6EF2B",
        "500000000000000000000"
      ],
      "transaction": {
        "from": "0x84c29fb8b41f229ad09f4d68f84d676a28dc4a3a",
        "to": "0x00e8f81208a33bf516cd7dd46e7597dfb40f5a25",
        "gas": "0x108f3",
        "value": "0x0",
        "input": "0x095ea7b30000000000000000000000005095bff088bcecf56476dceaae45c52351b6ef2b00000000000000000000000000000000000000000000001b1ae4d6e2ef500000",
        "nonce": "0x1d",
        "chainId": "0x164ce"
      },
      "additionalContracts": [],
      "isFixedGasLimit": false
    },
    {
      "hash": "0x2547354064e9bc5a6341bb2382ef821905f94e4e97d71fa9972749c35e0f359d",
      "transactionType": "CALL",
      "contractName": "GiwaSwap",
      "contractAddress": "0x5095bff088bcecf56476dceaae45c52351b6ef2b",
      "function": "addLiquidity(address,address,uint256,uint256)",
      "arguments": [
        "0x05E894cE2C176Dbc30176626efa24850aF2af0e2",
        "0x00E8F81208A33BF516cD7Dd46e7597dFB40F5a25",
        "500000000000000000000",
        "500000000000000000000"
      ],
      "transaction": {
        "from": "0x84c29fb8b41f229ad09f4d68f84d676a28dc4a3a",
        "to": "0x5095bff088bcecf56476dceaae45c52351b6ef2b",
        "gas": "0x2a418",
        "value": "0x0",
        "input": "0xcf6c62ea00000000000000000000000005e894ce2c176dbc30176626efa24850af2af0e200000000000000000000000000e8f81208a33bf516cd7dd46e7597dfb40f5a2500000000000000000000000000000000000000000000001b1ae4d6e2ef50000000000000000000000000000000000000000000000000001b1ae4d6e2ef500000",
        "nonce": "0x1e",
        "chainId": "0x164ce"
      },
      "additionalContracts": [],
      "isFixedGasLimit": false
    },
    {
      "hash": "0xf8b386b1a8fc7f3f8d6f0aea8033e4472c18d1d449b904b885fddc8085456b5c",
      "transactionType": "CALL",
      "contractName": null,
      "contractAddress": "0x05e894ce2c176dbc30176626efa24850af2af0e2",
      "function": "approve(address,uint256)",
      "arguments": [
        "0x5095Bff088BcECf56476DcEAAE45c52351b6EF2B",
        "500000000000000000000"
      ],
      "transaction": {
        "from": "0x84c29fb8b41f229ad09f4d68f84d676a28dc4a3a",
        "to": "0x05e894ce2c176dbc30176626efa24850af2af0e2",
        "gas": "0x108f3",
        "value": "0x0",
        "input": "0x095ea7b30000000000000000000000005095bff088bcecf56476dceaae45c52351b6ef2b00000000000000000000000000000000000000000000001b1ae4d6e2ef500000",
        "nonce": "0x1f",
        "chainId": "0x164ce"
      },
      "additionalContracts": [],
      "isFixedGasLimit": false
    },
    {
      "hash": "0x05f54502b169eb0a3b00684d511ad0fb7e7ba199dc6a52addb337a24f92b6270",
      "transactionType": "CALL",
      "contractName": null,
      "contractAddress": "0x263a171641882db6b48210e1ea477db3d1d34509",
      "function": "approve(address,uint256)",
      "arguments": [
        "0x5095Bff088BcECf56476DcEAAE45c52351b6EF2B",
        "500000000000000000000"
      ],
      "transaction": {
        "from": "0x84c29fb8b41f229ad09f4d68f84d676a28dc4a3a",
        "to": "0x263a171641882db6b48210e1ea477db3d1d34509",
        "gas": "0x108f3",
        "value": "0x0",
        "input": "0x095ea7b30000000000000000000000005095bff088bcecf56476dceaae45c52351b6ef2b00000000000000000000000000000000000000000000001b1ae4d6e2ef500000",
        "nonce": "0x20",
        "chainId": "0x164ce"
      },
      "additionalContracts": [],
      "isFixedGasLimit": false
    },
    {
      "hash": "0x04a48b6d0df668f27daea49f7be1fbf9286a9eb1bba3e0c191496d50b3fb12f2",
      "transactionType": "CALL",
      "contractName": "GiwaSwap",
      "contractAddress": "0x5095bff088bcecf56476dceaae45c52351b6ef2b",
      "function": "addLiquidity(address,address,uint256,uint256)",
      "arguments": [
        "0x05E894cE2C176Dbc30176626efa24850aF2af0e2",
        "0x263a171641882Db6b48210E1ea477DB3D1d34509",
        "500000000000000000000",
        "500000000000000000000"
      ],
      "transaction": {
        "from": "0x84c29fb8b41f229ad09f4d68f84d676a28dc4a3a",
        "to": "0x5095bff088bcecf56476dceaae45c52351b6ef2b",
        "gas": "0x2225b",
        "value": "0x0",
        "input": "0xcf6c62ea00000000000000000000000005e894ce2c176dbc30176626efa24850af2af0e2000000000000000000000000263a171641882db6b48210e1ea477db3d1d3450900000000000000000000000000000000000000000000001b1ae4d6e2ef50000000000000000000000000000000000000000000000000001b1ae4d6e2ef500000",
        "nonce": "0x21",
        "chainId": "0x164ce"
      },
      "additionalContracts": [],
      "isFixedGasLimit": false
    },
    {
      "hash": "0xf6a40e2bbf12a222618fb7acda8f7453a0cdce75bea0ef0a483e8ae0339894ce",
      "transactionType": "CALL",
      "contractName": null,
      "contractAddress": "0x05e894ce2c176dbc30176626efa24850af2af0e2",
      "function": "approve(address,uint256)",
      "arguments": [
        "0x5095Bff088BcECf56476DcEAAE45c52351b6EF2B",
        "500000000000000000000"
      ],
      "transaction": {
        "from": "0x84c29fb8b41f229ad09f4d68f84d676a28dc4a3a",
        "to": "0x05e894ce2c176dbc30176626efa24850af2af0e2",
        "gas": "0x108f3",
        "value": "0x0",
        "input": "0x095ea7b30000000000000000000000005095bff088bcecf56476dceaae45c52351b6ef2b00000000000000000000000000000000000000000000001b1ae4d6e2ef500000",
        "nonce": "0x22",
        "chainId": "0x164ce"
      },
      "additionalContracts": [],
      "isFixedGasLimit": false
    },
    {
      "hash": "0x3ef00dc5d8959151b6d3980bc403f52af8f34fc609aecf9cece26e5968c1385c",
      "transactionType": "CALL",
      "contractName": null,
      "contractAddress": "0x82868da66735fcd28185b9befa9ff2aee4ba3fb8",
      "function": "approve(address,uint256)",
      "arguments": [
        "0x5095Bff088BcECf56476DcEAAE45c52351b6EF2B",
        "500000000000000000000"
      ],
      "transaction": {
        "from": "0x84c29fb8b41f229ad09f4d68f84d676a28dc4a3a",
        "to": "0x82868da66735fcd28185b9befa9ff2aee4ba3fb8",
        "gas": "0x108f3",
        "value": "0x0",
        "input": "0x095ea7b30000000000000000000000005095bff088bcecf56476dceaae45c52351b6ef2b00000000000000000000000000000000000000000000001b1ae4d6e2ef500000",
        "nonce": "0x23",
        "chainId": "0x164ce"
      },
      "additionalContracts": [],
      "isFixedGasLimit": false
    },
    {
      "hash": "0x9a20ef9dbf31a4a5e030d55730509c725136981a6ec69d99a4184487ee235211",
      "transactionType": "CALL",
      "contractName": "GiwaSwap",
      "contractAddress": "0x5095bff088bcecf56476dceaae45c52351b6ef2b",
      "function": "addLiquidity(address,address,uint256,uint256)",
      "arguments": [
        "0x05E894cE2C176Dbc30176626efa24850aF2af0e2",
        "0x82868dA66735FCD28185b9BEFa9fF2AeE4BA3FB8",
        "500000000000000000000",
        "500000000000000000000"
      ],
      "transaction": {
        "from": "0x84c29fb8b41f229ad09f4d68f84d676a28dc4a3a",
        "to": "0x5095bff088bcecf56476dceaae45c52351b6ef2b",
        "gas": "0x2225b",
        "value": "0x0",
        "input": "0xcf6c62ea00000000000000000000000005e894ce2c176dbc30176626efa24850af2af0e200000000000000000000000082868da66735fcd28185b9befa9ff2aee4ba3fb800000000000000000000000000000000000000000000001b1ae4d6e2ef50000000000000000000000000000000000000000000000000001b1ae4d6e2ef500000",
        "nonce": "0x24",
        "chainId": "0x164ce"
      },
      "additionalContracts": [],
      "isFixedGasLimit": false
    },
    {
      "hash": "0x30cec7516a627a115b3b2fddf37aad1ebdebfdc6842f016c6b0f09fd18b2372a",
      "transactionType": "CALL",
      "contractName": null,
      "contractAddress": "0x05e894ce2c176dbc30176626efa24850af2af0e2",
      "function": "approve(address,uint256)",
      "arguments": [
        "0x5095Bff088BcECf56476DcEAAE45c52351b6EF2B",
        "500000000000000000000"
      ],
      "transaction": {
        "from": "0x84c29fb8b41f229ad09f4d68f84d676a28dc4a3a",
        "to": "0x05e894ce2c176dbc30176626efa24850af2af0e2",
        "gas": "0x108f3",
        "value": "0x0",
        "input": "0x095ea7b30000000000000000000000005095bff088bcecf56476dceaae45c52351b6ef2b00000000000000000000000000000000000000000000001b1ae4d6e2ef500000",
        "nonce": "0x25",
        "chainId": "0x164ce"
      },
      "additionalContracts": [],
      "isFixedGasLimit": false
    },
    {
      "hash": "0x63eff9bba83d7b08c11069c5eb45f3867f6236e0e9df62501818e6a308c66445",
      "transactionType": "CALL",
      "contractName": null,
      "contractAddress": "0xeed497b085113e8c3fc563935582a72f90bde528",
      "function": "approve(address,uint256)",
      "arguments": [
        "0x5095Bff088BcECf56476DcEAAE45c52351b6EF2B",
        "500000000000000000000"
      ],
      "transaction": {
        "from": "0x84c29fb8b41f229ad09f4d68f84d676a28dc4a3a",
        "to": "0xeed497b085113e8c3fc563935582a72f90bde528",
        "gas": "0x108f3",
        "value": "0x0",
        "input": "0x095ea7b30000000000000000000000005095bff088bcecf56476dceaae45c52351b6ef2b00000000000000000000000000000000000000000000001b1ae4d6e2ef500000",
        "nonce": "0x26",
        "chainId": "0x164ce"
      },
      "additionalContracts": [],
      "isFixedGasLimit": false
    },
    {
      "hash": "0xdb615a5f2a4c716811be12d3dfb29a4cd4d0f721e9c862f75cd0d539412b5b34",
      "transactionType": "CALL",
      "contractName": "GiwaSwap",
      "contractAddress": "0x5095bff088bcecf56476dceaae45c52351b6ef2b",
      "function": "addLiquidity(address,address,uint256,uint256)",
      "arguments": [
        "0x05E894cE2C176Dbc30176626efa24850aF2af0e2",
        "0xEEd497B085113e8C3FC563935582a72F90BdE528",
        "500000000000000000000",
        "500000000000000000000"
      ],
      "transaction": {
        "from": "0x84c29fb8b41f229ad09f4d68f84d676a28dc4a3a",
        "to": "0x5095bff088bcecf56476dceaae45c52351b6ef2b",
        "gas": "0x2225b",
        "value": "0x0",
        "input": "0xcf6c62ea00000000000000000000000005e894ce2c176dbc30176626efa24850af2af0e2000000000000000000000000eed497b085113e8c3fc563935582a72f90bde52800000000000000000000000000000000000000000000001b1ae4d6e2ef50000000000000000000000000000000000000000000000000001b1ae4d6e2ef500000",
        "nonce": "0x27",
        "chainId": "0x164ce"
      },
      "additionalContracts": [],
      "isFixedGasLimit": false
    },
    {
      "hash": "0x8faffc954f7d40ca928da83578cdef878de54af4f81c66f2b92c2ef18dcc2917",
      "transactionType": "CALL",
      "contractName": null,
      "contractAddress": "0x00e8f81208a33bf516cd7dd46e7597dfb40f5a25",
      "function": "approve(address,uint256)",
      "arguments": [
        "0x5095Bff088BcECf56476DcEAAE45c52351b6EF2B",
        "500000000000000000000"
      ],
      "transaction": {
        "from": "0x84c29fb8b41f229ad09f4d68f84d676a28dc4a3a",
        "to": "0x00e8f81208a33bf516cd7dd46e7597dfb40f5a25",
        "gas": "0x108f3",
        "value": "0x0",
        "input": "0x095ea7b30000000000000000000000005095bff088bcecf56476dceaae45c52351b6ef2b00000000000000000000000000000000000000000000001b1ae4d6e2ef500000",
        "nonce": "0x28",
        "chainId": "0x164ce"
      },
      "additionalContracts": [],
      "isFixedGasLimit": false
    },
    {
      "hash": "0xa88b306681302078377e5325eb5e7b7fbf8ca787721171fb067c698c226b995c",
      "transactionType": "CALL",
      "contractName": null,
      "contractAddress": "0x263a171641882db6b48210e1ea477db3d1d34509",
      "function": "approve(address,uint256)",
      "arguments": [
        "0x5095Bff088BcECf56476DcEAAE45c52351b6EF2B",
        "500000000000000000000"
      ],
      "transaction": {
        "from": "0x84c29fb8b41f229ad09f4d68f84d676a28dc4a3a",
        "to": "0x263a171641882db6b48210e1ea477db3d1d34509",
        "gas": "0x108f3",
        "value": "0x0",
        "input": "0x095ea7b30000000000000000000000005095bff088bcecf56476dceaae45c52351b6ef2b00000000000000000000000000000000000000000000001b1ae4d6e2ef500000",
        "nonce": "0x29",
        "chainId": "0x164ce"
      },
      "additionalContracts": [],
      "isFixedGasLimit": false
    },
    {
      "hash": "0x7e49a2ddf6af2caaebdbf1df7da1d38b6f1543519f62a806fd5726607d5f0a33",
      "transactionType": "CALL",
      "contractName": "GiwaSwap",
      "contractAddress": "0x5095bff088bcecf56476dceaae45c52351b6ef2b",
      "function": "addLiquidity(address,address,uint256,uint256)",
      "arguments": [
        "0x00E8F81208A33BF516cD7Dd46e7597dFB40F5a25",
        "0x263a171641882Db6b48210E1ea477DB3D1d34509",
        "500000000000000000000",
        "500000000000000000000"
      ],
      "transaction": {
        "from": "0x84c29fb8b41f229ad09f4d68f84d676a28dc4a3a",
        "to": "0x5095bff088bcecf56476dceaae45c52351b6ef2b",
        "gas": "0x1c607",
        "value": "0x0",
        "input": "0xcf6c62ea00000000000000000000000000e8f81208a33bf516cd7dd46e7597dfb40f5a25000000000000000000000000263a171641882db6b48210e1ea477db3d1d3450900000000000000000000000000000000000000000000001b1ae4d6e2ef50000000000000000000000000000000000000000000000000001b1ae4d6e2ef500000",
        "nonce": "0x2a",
        "chainId": "0x164ce"
      },
      "additionalContracts": [],
      "isFixedGasLimit": false
    },
    {
      "hash": "0x9d3ec12e9f686dea7dad7c34419ebc9d2ea038ff0574f9734953aee82da00a33",
      "transactionType": "CALL",
      "contractName": null,
      "contractAddress": "0x00e8f81208a33bf516cd7dd46e7597dfb40f5a25",
      "function": "approve(address,uint256)",
      "arguments": [
        "0x5095Bff088BcECf56476DcEAAE45c52351b6EF2B",
        "500000000000000000000"
      ],
      "transaction": {
        "from": "0x84c29fb8b41f229ad09f4d68f84d676a28dc4a3a",
        "to": "0x00e8f81208a33bf516cd7dd46e7597dfb40f5a25",
        "gas": "0x108f3",
        "value": "0x0",
        "input": "0x095ea7b30000000000000000000000005095bff088bcecf56476dceaae45c52351b6ef2b00000000000000000000000000000000000000000000001b1ae4d6e2ef500000",
        "nonce": "0x2b",
        "chainId": "0x164ce"
      },
      "additionalContracts": [],
      "isFixedGasLimit": false
    },
    {
      "hash": "0x12e52b756d7a1147afd47c47ce273aa90771afcb5c73635d2b68c21b3eb5efab",
      "transactionType": "CALL",
      "contractName": null,
      "contractAddress": "0x82868da66735fcd28185b9befa9ff2aee4ba3fb8",
      "function": "approve(address,uint256)",
      "arguments": [
        "0x5095Bff088BcECf56476DcEAAE45c52351b6EF2B",
        "500000000000000000000"
      ],
      "transaction": {
        "from": "0x84c29fb8b41f229ad09f4d68f84d676a28dc4a3a",
        "to": "0x82868da66735fcd28185b9befa9ff2aee4ba3fb8",
        "gas": "0x108f3",
        "value": "0x0",
        "input": "0x095ea7b30000000000000000000000005095bff088bcecf56476dceaae45c52351b6ef2b00000000000000000000000000000000000000000000001b1ae4d6e2ef500000",
        "nonce": "0x2c",
        "chainId": "0x164ce"
      },
      "additionalContracts": [],
      "isFixedGasLimit": false
    },
    {
      "hash": "0xb4a93abe170120bd68098213e807fd8ed50b8274d6a3e046d424ae4b09318657",
      "transactionType": "CALL",
      "contractName": "GiwaSwap",
      "contractAddress": "0x5095bff088bcecf56476dceaae45c52351b6ef2b",
      "function": "addLiquidity(address,address,uint256,uint256)",
      "arguments": [
        "0x00E8F81208A33BF516cD7Dd46e7597dFB40F5a25",
        "0x82868dA66735FCD28185b9BEFa9fF2AeE4BA3FB8",
        "500000000000000000000",
        "500000000000000000000"
      ],
      "transaction": {
        "from": "0x84c29fb8b41f229ad09f4d68f84d676a28dc4a3a",
        "to": "0x5095bff088bcecf56476dceaae45c52351b6ef2b",
        "gas": "0x1c607",
        "value": "0x0",
        "input": "0xcf6c62ea00000000000000000000000000e8f81208a33bf516cd7dd46e7597dfb40f5a2500000000000000000000000082868da66735fcd28185b9befa9ff2aee4ba3fb800000000000000000000000000000000000000000000001b1ae4d6e2ef50000000000000000000000000000000000000000000000000001b1ae4d6e2ef500000",
        "nonce": "0x2d",
        "chainId": "0x164ce"
      },
      "additionalContracts": [],
      "isFixedGasLimit": false
    },
    {
      "hash": "0xcab7d4250a03edd02362db03d138bf96db9244e6655858fc98135d13de5e40c1",
      "transactionType": "CALL",
      "contractName": null,
      "contractAddress": "0x00e8f81208a33bf516cd7dd46e7597dfb40f5a25",
      "function": "approve(address,uint256)",
      "arguments": [
        "0x5095Bff088BcECf56476DcEAAE45c52351b6EF2B",
        "500000000000000000000"
      ],
      "transaction": {
        "from": "0x84c29fb8b41f229ad09f4d68f84d676a28dc4a3a",
        "to": "0x00e8f81208a33bf516cd7dd46e7597dfb40f5a25",
        "gas": "0x108f3",
        "value": "0x0",
        "input": "0x095ea7b30000000000000000000000005095bff088bcecf56476dceaae45c52351b6ef2b00000000000000000000000000000000000000000000001b1ae4d6e2ef500000",
        "nonce": "0x2e",
        "chainId": "0x164ce"
      },
      "additionalContracts": [],
      "isFixedGasLimit": false
    },
    {
      "hash": "0x1c6c5a1c8580df8d483945711aaa89124e08f1faed78313d800a581c8c9a711c",
      "transactionType": "CALL",
      "contractName": null,
      "contractAddress": "0xeed497b085113e8c3fc563935582a72f90bde528",
      "function": "approve(address,uint256)",
      "arguments": [
        "0x5095Bff088BcECf56476DcEAAE45c52351b6EF2B",
        "500000000000000000000"
      ],
      "transaction": {
        "from": "0x84c29fb8b41f229ad09f4d68f84d676a28dc4a3a",
        "to": "0xeed497b085113e8c3fc563935582a72f90bde528",
        "gas": "0x108f3",
        "value": "0x0",
        "input": "0x095ea7b30000000000000000000000005095bff088bcecf56476dceaae45c52351b6ef2b00000000000000000000000000000000000000000000001b1ae4d6e2ef500000",
        "nonce": "0x2f",
        "chainId": "0x164ce"
      },
      "additionalContracts": [],
      "isFixedGasLimit": false
    },
    {
      "hash": "0xf7befbea8d9056684aed1b468db7086960677072db3a4907a3813ba347bfe236",
      "transactionType": "CALL",
      "contractName": "GiwaSwap",
      "contractAddress": "0x5095bff088bcecf56476dceaae45c52351b6ef2b",
      "function": "addLiquidity(address,address,uint256,uint256)",
      "arguments": [
        "0x00E8F81208A33BF516cD7Dd46e7597dFB40F5a25",
        "0xEEd497B085113e8C3FC563935582a72F90BdE528",
        "500000000000000000000",
        "500000000000000000000"
      ],
      "transaction": {
        "from": "0x84c29fb8b41f229ad09f4d68f84d676a28dc4a3a",
        "to": "0x5095bff088bcecf56476dceaae45c52351b6ef2b",
        "gas": "0x1c607",
        "value": "0x0",
        "input": "0xcf6c62ea00000000000000000000000000e8f81208a33bf516cd7dd46e7597dfb40f5a25000000000000000000000000eed497b085113e8c3fc563935582a72f90bde52800000000000000000000000000000000000000000000001b1ae4d6e2ef50000000000000000000000000000000000000000000000000001b1ae4d6e2ef500000",
        "nonce": "0x30",
        "chainId": "0x164ce"
      },
      "additionalContracts": [],
      "isFixedGasLimit": false
    },
    {
      "hash": "0x1ef53e4c03534cb6bba892dc9dc043afa32bd8ed1cb711580fd509b2cc227b4b",
      "transactionType": "CALL",
      "contractName": null,
      "contractAddress": "0x263a171641882db6b48210e1ea477db3d1d34509",
      "function": "approve(address,uint256)",
      "arguments": [
        "0x5095Bff088BcECf56476DcEAAE45c52351b6EF2B",
        "500000000000000000000"
      ],
      "transaction": {
        "from": "0x84c29fb8b41f229ad09f4d68f84d676a28dc4a3a",
        "to": "0x263a171641882db6b48210e1ea477db3d1d34509",
        "gas": "0x108f3",
        "value": "0x0",
        "input": "0x095ea7b30000000000000000000000005095bff088bcecf56476dceaae45c52351b6ef2b00000000000000000000000000000000000000000000001b1ae4d6e2ef500000",
        "nonce": "0x31",
        "chainId": "0x164ce"
      },
      "additionalContracts": [],
      "isFixedGasLimit": false
    },
    {
      "hash": "0x8f96b6c9479b1180ed366170b3a473fe076c2eeac1c10ae0aaf93036cf0d7079",
      "transactionType": "CALL",
      "contractName": null,
      "contractAddress": "0x82868da66735fcd28185b9befa9ff2aee4ba3fb8",
      "function": "approve(address,uint256)",
      "arguments": [
        "0x5095Bff088BcECf56476DcEAAE45c52351b6EF2B",
        "500000000000000000000"
      ],
      "transaction": {
        "from": "0x84c29fb8b41f229ad09f4d68f84d676a28dc4a3a",
        "to": "0x82868da66735fcd28185b9befa9ff2aee4ba3fb8",
        "gas": "0x108f3",
        "value": "0x0",
        "input": "0x095ea7b30000000000000000000000005095bff088bcecf56476dceaae45c52351b6ef2b00000000000000000000000000000000000000000000001b1ae4d6e2ef500000",
        "nonce": "0x32",
        "chainId": "0x164ce"
      },
      "additionalContracts": [],
      "isFixedGasLimit": false
    },
    {
      "hash": "0xff356829f5fc8885bba8ffdd3c259e2905717dbbb7debe24878e745ba78cdd92",
      "transactionType": "CALL",
      "contractName": "GiwaSwap",
      "contractAddress": "0x5095bff088bcecf56476dceaae45c52351b6ef2b",
      "function": "addLiquidity(address,address,uint256,uint256)",
      "arguments": [
        "0x263a171641882Db6b48210E1ea477DB3D1d34509",
        "0x82868dA66735FCD28185b9BEFa9fF2AeE4BA3FB8",
        "500000000000000000000",
        "500000000000000000000"
      ],
      "transaction": {
        "from": "0x84c29fb8b41f229ad09f4d68f84d676a28dc4a3a",
        "to": "0x5095bff088bcecf56476dceaae45c52351b6ef2b",
        "gas": "0x1e0ce",
        "value": "0x0",
        "input": "0xcf6c62ea000000000000000000000000263a171641882db6b48210e1ea477db3d1d3450900000000000000000000000082868da66735fcd28185b9befa9ff2aee4ba3fb800000000000000000000000000000000000000000000001b1ae4d6e2ef50000000000000000000000000000000000000000000000000001b1ae4d6e2ef500000",
        "nonce": "0x33",
        "chainId": "0x164ce"
      },
      "additionalContracts": [],
      "isFixedGasLimit": false
    },
    {
      "hash": "0xf05523b0aac8ec4a744984517f18f58491e6915b8289ec2b18534ad441c7bfa1",
      "transactionType": "CALL",
      "contractName": null,
      "contractAddress": "0x263a171641882db6b48210e1ea477db3d1d34509",
      "function": "approve(address,uint256)",
      "arguments": [
        "0x5095Bff088BcECf56476DcEAAE45c52351b6EF2B",
        "500000000000000000000"
      ],
      "transaction": {
        "from": "0x84c29fb8b41f229ad09f4d68f84d676a28dc4a3a",
        "to": "0x263a171641882db6b48210e1ea477db3d1d34509",
        "gas": "0x108f3",
        "value": "0x0",
        "input": "0x095ea7b30000000000000000000000005095bff088bcecf56476dceaae45c52351b6ef2b00000000000000000000000000000000000000000000001b1ae4d6e2ef500000",
        "nonce": "0x34",
        "chainId": "0x164ce"
      },
      "additionalContracts": [],
      "isFixedGasLimit": false
    },
    {
      "hash": "0xadaaeca75a83c2a8428701c28199e5ffca6f9cf97b318666ec2c046bbbcfc537",
      "transactionType": "CALL",
      "contractName": null,
      "contractAddress": "0xeed497b085113e8c3fc563935582a72f90bde528",
      "function": "approve(address,uint256)",
      "arguments": [
        "0x5095Bff088BcECf56476DcEAAE45c52351b6EF2B",
        "500000000000000000000"
      ],
      "transaction": {
        "from": "0x84c29fb8b41f229ad09f4d68f84d676a28dc4a3a",
        "to": "0xeed497b085113e8c3fc563935582a72f90bde528",
        "gas": "0x108f3",
        "value": "0x0",
        "input": "0x095ea7b30000000000000000000000005095bff088bcecf56476dceaae45c52351b6ef2b00000000000000000000000000000000000000000000001b1ae4d6e2ef500000",
        "nonce": "0x35",
        "chainId": "0x164ce"
      },
      "additionalContracts": [],
      "isFixedGasLimit": false
    },
    {
      "hash": "0x3473b25e94d96b86102ecc83b21a9bf83e85369735d34742fe9c22c564af40bb",
      "transactionType": "CALL",
      "contractName": "GiwaSwap",
      "contractAddress": "0x5095bff088bcecf56476dceaae45c52351b6ef2b",
      "function": "addLiquidity(address,address,uint256,uint256)",
      "arguments": [
        "0x263a171641882Db6b48210E1ea477DB3D1d34509",
        "0xEEd497B085113e8C3FC563935582a72F90BdE528",
        "500000000000000000000",
        "500000000000000000000"
      ],
      "transaction": {
        "from": "0x84c29fb8b41f229ad09f4d68f84d676a28dc4a3a",
        "to": "0x5095bff088bcecf56476dceaae45c52351b6ef2b",
        "gas": "0x1e0ce",
        "value": "0x0",
        "input": "0xcf6c62ea000000000000000000000000263a171641882db6b48210e1ea477db3d1d34509000000000000000000000000eed497b085113e8c3fc563935582a72f90bde52800000000000000000000000000000000000000000000001b1ae4d6e2ef50000000000000000000000000000000000000000000000000001b1ae4d6e2ef500000",
        "nonce": "0x36",
        "chainId": "0x164ce"
      },
      "additionalContracts": [],
      "isFixedGasLimit": false
    },
    {
      "hash": "0x7cd761eb1c8aaf98975bdf764ce944b25d066d602ee7847f6f49835c10e5f917",
      "transactionType": "CALL",
      "contractName": null,
      "contractAddress": "0x82868da66735fcd28185b9befa9ff2aee4ba3fb8",
      "function": "approve(address,uint256)",
      "arguments": [
        "0x5095Bff088BcECf56476DcEAAE45c52351b6EF2B",
        "500000000000000000000"
      ],
      "transaction": {
        "from": "0x84c29fb8b41f229ad09f4d68f84d676a28dc4a3a",
        "to": "0x82868da66735fcd28185b9befa9ff2aee4ba3fb8",
        "gas": "0x108f3",
        "value": "0x0",
        "input": "0x095ea7b30000000000000000000000005095bff088bcecf56476dceaae45c52351b6ef2b00000000000000000000000000000000000000000000001b1ae4d6e2ef500000",
        "nonce": "0x37",
        "chainId": "0x164ce"
      },
      "additionalContracts": [],
      "isFixedGasLimit": false
    },
    {
      "hash": "0x5e26254b1312cec23d4d867f418f74b191eb6f248715eef3fcce81d2cc5028da",
      "transactionType": "CALL",
      "contractName": null,
      "contractAddress": "0xeed497b085113e8c3fc563935582a72f90bde528",
      "function": "approve(address,uint256)",
      "arguments": [
        "0x5095Bff088BcECf56476DcEAAE45c52351b6EF2B",
        "500000000000000000000"
      ],
      "transaction": {
        "from": "0x84c29fb8b41f229ad09f4d68f84d676a28dc4a3a",
        "to": "0xeed497b085113e8c3fc563935582a72f90bde528",
        "gas": "0x108f3",
        "value": "0x0",
        "input": "0x095ea7b30000000000000000000000005095bff088bcecf56476dceaae45c52351b6ef2b00000000000000000000000000000000000000000000001b1ae4d6e2ef500000",
        "nonce": "0x38",
        "chainId": "0x164ce"
      },
      "additionalContracts": [],
      "isFixedGasLimit": false
    },
    {
      "hash": "0x973b4e7a1702d3fdd97a539ee7a65d71875e8300eae00f41a6ea52148c4dab0d",
      "transactionType": "CALL",
      "contractName": "GiwaSwap",
      "contractAddress": "0x5095bff088bcecf56476dceaae45c52351b6ef2b",
      "function": "addLiquidity(address,address,uint256,uint256)",
      "arguments": [
        "0x82868dA66735FCD28185b9BEFa9fF2AeE4BA3FB8",
        "0xEEd497B085113e8C3FC563935582a72F90BdE528",
        "500000000000000000000",
        "500000000000000000000"
      ],
      "transaction": {
        "from": "0x84c29fb8b41f229ad09f4d68f84d676a28dc4a3a",
        "to": "0x5095bff088bcecf56476dceaae45c52351b6ef2b",
        "gas": "0x1e0ce",
        "value": "0x0",
        "input": "0xcf6c62ea00000000000000000000000082868da66735fcd28185b9befa9ff2aee4ba3fb8000000000000000000000000eed497b085113e8c3fc563935582a72f90bde52800000000000000000000000000000000000000000000001b1ae4d6e2ef50000000000000000000000000000000000000000000000000001b1ae4d6e2ef500000",
        "nonce": "0x39",
        "chainId": "0x164ce"
      },
      "additionalContracts": [],
      "isFixedGasLimit": false
    }
  ],
  "receipts": [
    {
      "type": "0x2",
      "status": "0x1",
      "cumulativeGasUsed": "0x196980",
      "logs": [],
      "logsBloom": "0x00000000000000000000000000000000000000000000000000000000000000000000000000000000000000000000000000000000000000000000000000000000000000000000000000000000000000000000000000000000000000000000000000000000000000000000000000000000000000000000000000000000000000000000000000000000000000000000000000000000000000000000000000000000000000000000000000000000000000000000000000000000000000000000000000000000000000000000000000000000000000000000000000000000000000000000000000000000000000000000000000000000000000000000000000000000",
      "transactionHash": "0x5e26254b1312cec23d4d867f418f74b191eb6f248715eef3fcce81d2cc5028da",
      "transactionIndex": "0x7",
      "blockHash": "0xf3ba78a2d2f18dfb2d56d2a536efebbe4f311874b9843b6a056822a95783e2cc",
      "blockNumber": "0x1ddef5a",
      "gasUsed": "0xea89c",
      "effectiveGasPrice": "0xf433b",
      "blobGasUsed": "0xdc820",
      "from": "0x84c29fb8b41f229ad09f4d68f84d676a28dc4a3a",
      "to": null,
      "contractAddress": "0x5095bff088bcecf56476dceaae45c52351b6ef2b"
    },
    {
      "type": "0x2",
      "status": "0x1",
      "cumulativeGasUsed": "0x1a1eaa",
      "logs": [
        {
          "address": "0x05e894ce2c176dbc30176626efa24850af2af0e2",
          "topics": [
            "0x8c5be1e5ebec7d5bd14f71427d1e84f3dd0314c0f7b2291e5b200ac8c7c3b925",
            "0x00000000000000000000000084c29fb8b41f229ad09f4d68f84d676a28dc4a3a",
            "0x0000000000000000000000005095bff088bcecf56476dceaae45c52351b6ef2b"
          ],
          "data": "0x00000000000000000000000000000000000000000000001b1ae4d6e2ef500000",
          "blockHash": "0xf3ba78a2d2f18dfb2d56d2a536efebbe4f311874b9843b6a056822a95783e2cc",
          "blockNumber": "0x1ddef5a",
          "blockTimestamp": "0x6a5fdbb6",
          "transactionHash": "0x8f96b6c9479b1180ed366170b3a473fe076c2eeac1c10ae0aaf93036cf0d7079",
          "transactionIndex": "0x8",
          "logIndex": "0x2",
          "removed": false
        }
      ],
      "logsBloom": "0x00000000000000000000000000800000000000000000000000000000000040000000000000000000000000000000000000001000000000000010000000200000000000000000000000000000100000000000000000000000000000000000000000000000800000000000000000000000000000000000000000010000000000000000000000000000000000000000000000000000000000000000000000000000020000000000000000000000000000000000000000000000000000000000000000000000000000000000000000000000000000000000000000000000000000000010000000000000000000000000000000200000000000400000000000000000",
      "transactionHash": "0x8f96b6c9479b1180ed366170b3a473fe076c2eeac1c10ae0aaf93036cf0d7079",
      "transactionIndex": "0x8",
      "blockHash": "0xf3ba78a2d2f18dfb2d56d2a536efebbe4f311874b9843b6a056822a95783e2cc",
      "blockNumber": "0x1ddef5a",
      "gasUsed": "0xb52a",
      "effectiveGasPrice": "0xf433b",
      "blobGasUsed": "0x9c40",
      "from": "0x84c29fb8b41f229ad09f4d68f84d676a28dc4a3a",
      "to": "0x05e894ce2c176dbc30176626efa24850af2af0e2",
      "contractAddress": null
    },
    {
      "type": "0x2",
      "status": "0x1",
      "cumulativeGasUsed": "0x1ad3d4",
      "logs": [
        {
          "address": "0x00e8f81208a33bf516cd7dd46e7597dfb40f5a25",
          "topics": [
            "0x8c5be1e5ebec7d5bd14f71427d1e84f3dd0314c0f7b2291e5b200ac8c7c3b925",
            "0x00000000000000000000000084c29fb8b41f229ad09f4d68f84d676a28dc4a3a",
            "0x0000000000000000000000005095bff088bcecf56476dceaae45c52351b6ef2b"
          ],
          "data": "0x00000000000000000000000000000000000000000000001b1ae4d6e2ef500000",
          "blockHash": "0xf3ba78a2d2f18dfb2d56d2a536efebbe4f311874b9843b6a056822a95783e2cc",
          "blockNumber": "0x1ddef5a",
          "blockTimestamp": "0x6a5fdbb6",
          "transactionHash": "0xcfe227eba01fa14dab84e62d6b1789491ce5946b99c4375bfba22345944aa563",
          "transactionIndex": "0x9",
          "logIndex": "0x3",
          "removed": false
        }
      ],
      "logsBloom": "0x00000000000000000000000000000000000000000000000000000000000000000000000000000000000000000000000000001000000000000010000000200000000000000000000000000000108000000000000000000010000000000000000000000000800000000000000000000000000000000000000000010000000000000000000000000000000000000000000000000000000000000000000000000000020000000000000000000000000000000000000000000000000000000000000000000000000000000000000000000000000000000000000000000000002000000010000000000000000000000000000000200000000000000000000000000000",
      "transactionHash": "0xcfe227eba01fa14dab84e62d6b1789491ce5946b99c4375bfba22345944aa563",
      "transactionIndex": "0x9",
      "blockHash": "0xf3ba78a2d2f18dfb2d56d2a536efebbe4f311874b9843b6a056822a95783e2cc",
      "blockNumber": "0x1ddef5a",
      "gasUsed": "0xb52a",
      "effectiveGasPrice": "0xf433b",
      "blobGasUsed": "0x9c40",
      "from": "0x84c29fb8b41f229ad09f4d68f84d676a28dc4a3a",
      "to": "0x00e8f81208a33bf516cd7dd46e7597dfb40f5a25",
      "contractAddress": null
    },
    {
      "type": "0x2",
      "status": "0x1",
      "cumulativeGasUsed": "0x1ca21e",
      "logs": [
        {
          "address": "0x05e894ce2c176dbc30176626efa24850af2af0e2",
          "topics": [
            "0xddf252ad1be2c89b69c2b068fc378daa952ba7f163c4a11628f55a4df523b3ef",
            "0x00000000000000000000000084c29fb8b41f229ad09f4d68f84d676a28dc4a3a",
            "0x0000000000000000000000005095bff088bcecf56476dceaae45c52351b6ef2b"
          ],
          "data": "0x00000000000000000000000000000000000000000000001b1ae4d6e2ef500000",
          "blockHash": "0xf3ba78a2d2f18dfb2d56d2a536efebbe4f311874b9843b6a056822a95783e2cc",
          "blockNumber": "0x1ddef5a",
          "blockTimestamp": "0x6a5fdbb6",
          "transactionHash": "0x133a273fb1461e2afdf2090bbfd3358ef35b7dd69911edeeb5626f8d081ba7d5",
          "transactionIndex": "0xa",
          "logIndex": "0x4",
          "removed": false
        },
        {
          "address": "0x00e8f81208a33bf516cd7dd46e7597dfb40f5a25",
          "topics": [
            "0xddf252ad1be2c89b69c2b068fc378daa952ba7f163c4a11628f55a4df523b3ef",
            "0x00000000000000000000000084c29fb8b41f229ad09f4d68f84d676a28dc4a3a",
            "0x0000000000000000000000005095bff088bcecf56476dceaae45c52351b6ef2b"
          ],
          "data": "0x00000000000000000000000000000000000000000000001b1ae4d6e2ef500000",
          "blockHash": "0xf3ba78a2d2f18dfb2d56d2a536efebbe4f311874b9843b6a056822a95783e2cc",
          "blockNumber": "0x1ddef5a",
          "blockTimestamp": "0x6a5fdbb6",
          "transactionHash": "0x133a273fb1461e2afdf2090bbfd3358ef35b7dd69911edeeb5626f8d081ba7d5",
          "transactionIndex": "0xa",
          "logIndex": "0x5",
          "removed": false
        },
        {
          "address": "0x5095bff088bcecf56476dceaae45c52351b6ef2b",
          "topics": [
            "0x36f3b2e1a21c19137dd82ec243b0708a1d26b3d1fa1dc49c44c4c366a5878138",
            "0x00000000000000000000000005e894ce2c176dbc30176626efa24850af2af0e2",
            "0x00000000000000000000000000e8f81208a33bf516cd7dd46e7597dfb40f5a25"
          ],
          "data": "0x00000000000000000000000000000000000000000000001b1ae4d6e2ef50000000000000000000000000000000000000000000000000001b1ae4d6e2ef500000",
          "blockHash": "0xf3ba78a2d2f18dfb2d56d2a536efebbe4f311874b9843b6a056822a95783e2cc",
          "blockNumber": "0x1ddef5a",
          "blockTimestamp": "0x6a5fdbb6",
          "transactionHash": "0x133a273fb1461e2afdf2090bbfd3358ef35b7dd69911edeeb5626f8d081ba7d5",
          "transactionIndex": "0xa",
          "logIndex": "0x6",
          "removed": false
        }
      ],
      "logsBloom": "0x40000000000000000000000004800000000000000000000000000000000040000020000000200000000000000000000000001000000000000010000000000000000000000000000000000048108000000000000000000010000000000000000000000000800000000000000001040000080000000000000000010010000000000000000000000001000000000000000000000000000000000000000000000000000000000000000000000000000002000000000000000000000000000000000000000002000000000000000000000000000000000080000000000000002000000000000000000000000000000000000000200000000000400000000000200000",
      "transactionHash": "0x133a273fb1461e2afdf2090bbfd3358ef35b7dd69911edeeb5626f8d081ba7d5",
      "transactionIndex": "0xa",
      "blockHash": "0xf3ba78a2d2f18dfb2d56d2a536efebbe4f311874b9843b6a056822a95783e2cc",
      "blockNumber": "0x1ddef5a",
      "gasUsed": "0x1ce4a",
      "effectiveGasPrice": "0xf433b",
      "blobGasUsed": "0xb860",
      "from": "0x84c29fb8b41f229ad09f4d68f84d676a28dc4a3a",
      "to": "0x5095bff088bcecf56476dceaae45c52351b6ef2b",
      "contractAddress": null
    },
    {
      "type": "0x2",
      "status": "0x1",
      "cumulativeGasUsed": "0x1d5748",
      "logs": [
        {
          "address": "0x05e894ce2c176dbc30176626efa24850af2af0e2",
          "topics": [
            "0x8c5be1e5ebec7d5bd14f71427d1e84f3dd0314c0f7b2291e5b200ac8c7c3b925",
            "0x00000000000000000000000084c29fb8b41f229ad09f4d68f84d676a28dc4a3a",
            "0x0000000000000000000000005095bff088bcecf56476dceaae45c52351b6ef2b"
          ],
          "data": "0x00000000000000000000000000000000000000000000001b1ae4d6e2ef500000",
          "blockHash": "0xf3ba78a2d2f18dfb2d56d2a536efebbe4f311874b9843b6a056822a95783e2cc",
          "blockNumber": "0x1ddef5a",
          "blockTimestamp": "0x6a5fdbb6",
          "transactionHash": "0xf7befbea8d9056684aed1b468db7086960677072db3a4907a3813ba347bfe236",
          "transactionIndex": "0xb",
          "logIndex": "0x7",
          "removed": false
        }
      ],
      "logsBloom": "0x00000000000000000000000000800000000000000000000000000000000040000000000000000000000000000000000000001000000000000010000000200000000000000000000000000000100000000000000000000000000000000000000000000000800000000000000000000000000000000000000000010000000000000000000000000000000000000000000000000000000000000000000000000000020000000000000000000000000000000000000000000000000000000000000000000000000000000000000000000000000000000000000000000000000000000010000000000000000000000000000000200000000000400000000000000000",
      "transactionHash": "0xf7befbea8d9056684aed1b468db7086960677072db3a4907a3813ba347bfe236",
      "transactionIndex": "0xb",
      "blockHash": "0xf3ba78a2d2f18dfb2d56d2a536efebbe4f311874b9843b6a056822a95783e2cc",
      "blockNumber": "0x1ddef5a",
      "gasUsed": "0xb52a",
      "effectiveGasPrice": "0xf433b",
      "blobGasUsed": "0x9c40",
      "from": "0x84c29fb8b41f229ad09f4d68f84d676a28dc4a3a",
      "to": "0x05e894ce2c176dbc30176626efa24850af2af0e2",
      "contractAddress": null
    },
    {
      "type": "0x2",
      "status": "0x1",
      "cumulativeGasUsed": "0x1e0c72",
      "logs": [
        {
          "address": "0x263a171641882db6b48210e1ea477db3d1d34509",
          "topics": [
            "0x8c5be1e5ebec7d5bd14f71427d1e84f3dd0314c0f7b2291e5b200ac8c7c3b925",
            "0x00000000000000000000000084c29fb8b41f229ad09f4d68f84d676a28dc4a3a",
            "0x0000000000000000000000005095bff088bcecf56476dceaae45c52351b6ef2b"
          ],
          "data": "0x00000000000000000000000000000000000000000000001b1ae4d6e2ef500000",
          "blockHash": "0xf3ba78a2d2f18dfb2d56d2a536efebbe4f311874b9843b6a056822a95783e2cc",
          "blockNumber": "0x1ddef5a",
          "blockTimestamp": "0x6a5fdbb6",
          "transactionHash": "0x973b4e7a1702d3fdd97a539ee7a65d71875e8300eae00f41a6ea52148c4dab0d",
          "transactionIndex": "0xc",
          "logIndex": "0x8",
          "removed": false
        }
      ],
      "logsBloom": "0x00000000000000000008000000000000000000000008000000000000000000000000000000000000000000000000000000001000000000000010000000200000000000000000000000000000100000000000000000000000000000000000000000000000800000000000000000000000000000000000000000010000000000000000000000000000000000000000000000000000000000000000000000000000020000000000000000000000000000000000000000000000000000000000000000000000000000000000000000000000000000000000000000000000000000000210000000000000000000000000000000200000000000000000000000000000",
      "transactionHash": "0x973b4e7a1702d3fdd97a539ee7a65d71875e8300eae00f41a6ea52148c4dab0d",
      "transactionIndex": "0xc",
      "blockHash": "0xf3ba78a2d2f18dfb2d56d2a536efebbe4f311874b9843b6a056822a95783e2cc",
      "blockNumber": "0x1ddef5a",
      "gasUsed": "0xb52a",
      "effectiveGasPrice": "0xf433b",
      "blobGasUsed": "0x9c40",
      "from": "0x84c29fb8b41f229ad09f4d68f84d676a28dc4a3a",
      "to": "0x263a171641882db6b48210e1ea477db3d1d34509",
      "contractAddress": null
    },
    {
      "type": "0x2",
      "status": "0x1",
      "cumulativeGasUsed": "0x1f9800",
      "logs": [
        {
          "address": "0x05e894ce2c176dbc30176626efa24850af2af0e2",
          "topics": [
            "0xddf252ad1be2c89b69c2b068fc378daa952ba7f163c4a11628f55a4df523b3ef",
            "0x00000000000000000000000084c29fb8b41f229ad09f4d68f84d676a28dc4a3a",
            "0x0000000000000000000000005095bff088bcecf56476dceaae45c52351b6ef2b"
          ],
          "data": "0x00000000000000000000000000000000000000000000001b1ae4d6e2ef500000",
          "blockHash": "0xf3ba78a2d2f18dfb2d56d2a536efebbe4f311874b9843b6a056822a95783e2cc",
          "blockNumber": "0x1ddef5a",
          "blockTimestamp": "0x6a5fdbb6",
          "transactionHash": "0x9d3ec12e9f686dea7dad7c34419ebc9d2ea038ff0574f9734953aee82da00a33",
          "transactionIndex": "0xd",
          "logIndex": "0x9",
          "removed": false
        },
        {
          "address": "0x263a171641882db6b48210e1ea477db3d1d34509",
          "topics": [
            "0xddf252ad1be2c89b69c2b068fc378daa952ba7f163c4a11628f55a4df523b3ef",
            "0x00000000000000000000000084c29fb8b41f229ad09f4d68f84d676a28dc4a3a",
            "0x0000000000000000000000005095bff088bcecf56476dceaae45c52351b6ef2b"
          ],
          "data": "0x00000000000000000000000000000000000000000000001b1ae4d6e2ef500000",
          "blockHash": "0xf3ba78a2d2f18dfb2d56d2a536efebbe4f311874b9843b6a056822a95783e2cc",
          "blockNumber": "0x1ddef5a",
          "blockTimestamp": "0x6a5fdbb6",
          "transactionHash": "0x9d3ec12e9f686dea7dad7c34419ebc9d2ea038ff0574f9734953aee82da00a33",
          "transactionIndex": "0xd",
          "logIndex": "0xa",
          "removed": false
        },
        {
          "address": "0x5095bff088bcecf56476dceaae45c52351b6ef2b",
          "topics": [
            "0x36f3b2e1a21c19137dd82ec243b0708a1d26b3d1fa1dc49c44c4c366a5878138",
            "0x00000000000000000000000005e894ce2c176dbc30176626efa24850af2af0e2",
            "0x000000000000000000000000263a171641882db6b48210e1ea477db3d1d34509"
          ],
          "data": "0x00000000000000000000000000000000000000000000001b1ae4d6e2ef50000000000000000000000000000000000000000000000000001b1ae4d6e2ef500000",
          "blockHash": "0xf3ba78a2d2f18dfb2d56d2a536efebbe4f311874b9843b6a056822a95783e2cc",
          "blockNumber": "0x1ddef5a",
          "blockTimestamp": "0x6a5fdbb6",
          "transactionHash": "0x9d3ec12e9f686dea7dad7c34419ebc9d2ea038ff0574f9734953aee82da00a33",
          "transactionIndex": "0xd",
          "logIndex": "0xb",
          "removed": false
        }
      ],
      "logsBloom": "0x40000000000000000008100004800000000000000008000000000000000040000020000000200000000000000000000000001000000000000010000000000000000000000000000000000008100000000000000000000000000000000000000000000000800000000000000001000000080002000000000000010010000000000000000000000000000000000000000000000000000000000000000000000000000000000000000000000000000002000000000000000000000000000000000000000002000000000000000000000000000000000080000000000000000000000200008000000000000000000000000000200000000000400000000000200000",
      "transactionHash": "0x9d3ec12e9f686dea7dad7c34419ebc9d2ea038ff0574f9734953aee82da00a33",
      "transactionIndex": "0xd",
      "blockHash": "0xf3ba78a2d2f18dfb2d56d2a536efebbe4f311874b9843b6a056822a95783e2cc",
      "blockNumber": "0x1ddef5a",
      "gasUsed": "0x18b8e",
      "effectiveGasPrice": "0xf433b",
      "blobGasUsed": "0xb860",
      "from": "0x84c29fb8b41f229ad09f4d68f84d676a28dc4a3a",
      "to": "0x5095bff088bcecf56476dceaae45c52351b6ef2b",
      "contractAddress": null
    },
    {
      "type": "0x2",
      "status": "0x1",
      "cumulativeGasUsed": "0x204d2a",
      "logs": [
        {
          "address": "0x05e894ce2c176dbc30176626efa24850af2af0e2",
          "topics": [
            "0x8c5be1e5ebec7d5bd14f71427d1e84f3dd0314c0f7b2291e5b200ac8c7c3b925",
            "0x00000000000000000000000084c29fb8b41f229ad09f4d68f84d676a28dc4a3a",
            "0x0000000000000000000000005095bff088bcecf56476dceaae45c52351b6ef2b"
          ],
          "data": "0x00000000000000000000000000000000000000000000001b1ae4d6e2ef500000",
          "blockHash": "0xf3ba78a2d2f18dfb2d56d2a536efebbe4f311874b9843b6a056822a95783e2cc",
          "blockNumber": "0x1ddef5a",
          "blockTimestamp": "0x6a5fdbb6",
          "transactionHash": "0xb4a93abe170120bd68098213e807fd8ed50b8274d6a3e046d424ae4b09318657",
          "transactionIndex": "0xe",
          "logIndex": "0xc",
          "removed": false
        }
      ],
      "logsBloom": "0x00000000000000000000000000800000000000000000000000000000000040000000000000000000000000000000000000001000000000000010000000200000000000000000000000000000100000000000000000000000000000000000000000000000800000000000000000000000000000000000000000010000000000000000000000000000000000000000000000000000000000000000000000000000020000000000000000000000000000000000000000000000000000000000000000000000000000000000000000000000000000000000000000000000000000000010000000000000000000000000000000200000000000400000000000000000",
      "transactionHash": "0xb4a93abe170120bd68098213e807fd8ed50b8274d6a3e046d424ae4b09318657",
      "transactionIndex": "0xe",
      "blockHash": "0xf3ba78a2d2f18dfb2d56d2a536efebbe4f311874b9843b6a056822a95783e2cc",
      "blockNumber": "0x1ddef5a",
      "gasUsed": "0xb52a",
      "effectiveGasPrice": "0xf433b",
      "blobGasUsed": "0x9c40",
      "from": "0x84c29fb8b41f229ad09f4d68f84d676a28dc4a3a",
      "to": "0x05e894ce2c176dbc30176626efa24850af2af0e2",
      "contractAddress": null
    },
    {
      "type": "0x2",
      "status": "0x1",
      "cumulativeGasUsed": "0x210254",
      "logs": [
        {
          "address": "0x82868da66735fcd28185b9befa9ff2aee4ba3fb8",
          "topics": [
            "0x8c5be1e5ebec7d5bd14f71427d1e84f3dd0314c0f7b2291e5b200ac8c7c3b925",
            "0x00000000000000000000000084c29fb8b41f229ad09f4d68f84d676a28dc4a3a",
            "0x0000000000000000000000005095bff088bcecf56476dceaae45c52351b6ef2b"
          ],
          "data": "0x00000000000000000000000000000000000000000000001b1ae4d6e2ef500000",
          "blockHash": "0xf3ba78a2d2f18dfb2d56d2a536efebbe4f311874b9843b6a056822a95783e2cc",
          "blockNumber": "0x1ddef5a",
          "blockTimestamp": "0x6a5fdbb6",
          "transactionHash": "0xadaaeca75a83c2a8428701c28199e5ffca6f9cf97b318666ec2c046bbbcfc537",
          "transactionIndex": "0xf",
          "logIndex": "0xd",
          "removed": false
        }
      ],
      "logsBloom": "0x00000000000000000000000000000000000000000000000000000000000000000000000000000000000000000000000000001000000000000010000000200000000000000000000000000000100000000000000000000000000000000000000000000000800000000000000000000000000000000000000000010000000000000000000000000000040000000000000000000000000000000000000000000000021000000000000000000000000000000000000000000000000000000000000004000000000000000000000000000000000000000000000000000000000000000010000000000000000000000000000000200000000000000000000000000000",
      "transactionHash": "0xadaaeca75a83c2a8428701c28199e5ffca6f9cf97b318666ec2c046bbbcfc537",
      "transactionIndex": "0xf",
      "blockHash": "0xf3ba78a2d2f18dfb2d56d2a536efebbe4f311874b9843b6a056822a95783e2cc",
      "blockNumber": "0x1ddef5a",
      "gasUsed": "0xb52a",
      "effectiveGasPrice": "0xf433b",
      "blobGasUsed": "0x9c40",
      "from": "0x84c29fb8b41f229ad09f4d68f84d676a28dc4a3a",
      "to": "0x82868da66735fcd28185b9befa9ff2aee4ba3fb8",
      "contractAddress": null
    },
    {
      "type": "0x2",
      "status": "0x1",
      "cumulativeGasUsed": "0x228de2",
      "logs": [
        {
          "address": "0x05e894ce2c176dbc30176626efa24850af2af0e2",
          "topics": [
            "0xddf252ad1be2c89b69c2b068fc378daa952ba7f163c4a11628f55a4df523b3ef",
            "0x00000000000000000000000084c29fb8b41f229ad09f4d68f84d676a28dc4a3a",
            "0x0000000000000000000000005095bff088bcecf56476dceaae45c52351b6ef2b"
          ],
          "data": "0x00000000000000000000000000000000000000000000001b1ae4d6e2ef500000",
          "blockHash": "0xf3ba78a2d2f18dfb2d56d2a536efebbe4f311874b9843b6a056822a95783e2cc",
          "blockNumber": "0x1ddef5a",
          "blockTimestamp": "0x6a5fdbb6",
          "transactionHash": "0x30cec7516a627a115b3b2fddf37aad1ebdebfdc6842f016c6b0f09fd18b2372a",
          "transactionIndex": "0x10",
          "logIndex": "0xe",
          "removed": false
        },
        {
          "address": "0x82868da66735fcd28185b9befa9ff2aee4ba3fb8",
          "topics": [
            "0xddf252ad1be2c89b69c2b068fc378daa952ba7f163c4a11628f55a4df523b3ef",
            "0x00000000000000000000000084c29fb8b41f229ad09f4d68f84d676a28dc4a3a",
            "0x0000000000000000000000005095bff088bcecf56476dceaae45c52351b6ef2b"
          ],
          "data": "0x00000000000000000000000000000000000000000000001b1ae4d6e2ef500000",
          "blockHash": "0xf3ba78a2d2f18dfb2d56d2a536efebbe4f311874b9843b6a056822a95783e2cc",
          "blockNumber": "0x1ddef5a",
          "blockTimestamp": "0x6a5fdbb6",
          "transactionHash": "0x30cec7516a627a115b3b2fddf37aad1ebdebfdc6842f016c6b0f09fd18b2372a",
          "transactionIndex": "0x10",
          "logIndex": "0xf",
          "removed": false
        },
        {
          "address": "0x5095bff088bcecf56476dceaae45c52351b6ef2b",
          "topics": [
            "0x36f3b2e1a21c19137dd82ec243b0708a1d26b3d1fa1dc49c44c4c366a5878138",
            "0x00000000000000000000000005e894ce2c176dbc30176626efa24850af2af0e2",
            "0x00000000000000000000000082868da66735fcd28185b9befa9ff2aee4ba3fb8"
          ],
          "data": "0x00000000000000000000000000000000000000000000001b1ae4d6e2ef50000000000000000000000000000000000000000000000000001b1ae4d6e2ef500000",
          "blockHash": "0xf3ba78a2d2f18dfb2d56d2a536efebbe4f311874b9843b6a056822a95783e2cc",
          "blockNumber": "0x1ddef5a",
          "blockTimestamp": "0x6a5fdbb6",
          "transactionHash": "0x30cec7516a627a115b3b2fddf37aad1ebdebfdc6842f016c6b0f09fd18b2372a",
          "transactionIndex": "0x10",
          "logIndex": "0x10",
          "removed": false
        }
      ],
      "logsBloom": "0x40000000000000000000000004800000000000000000000000000000000040000020000000200000000000000000000000001000000000002010000000000000000000000000000000000008100000000000000000000000000000000000000000000000800000000000000001000000080000000000000000010010000000000000000000000000040000000004000000000000000000000000000000000000001000000000000000000000000002000000000000000000000000000000000004000002000000000000000000000000100000000080000000000000000000000000000000000000000000000000000000200000000000400000000000200000",
      "transactionHash": "0x30cec7516a627a115b3b2fddf37aad1ebdebfdc6842f016c6b0f09fd18b2372a",
      "transactionIndex": "0x10",
      "blockHash": "0xf3ba78a2d2f18dfb2d56d2a536efebbe4f311874b9843b6a056822a95783e2cc",
      "blockNumber": "0x1ddef5a",
      "gasUsed": "0x18b8e",
      "effectiveGasPrice": "0xf433b",
      "blobGasUsed": "0xb860",
      "from": "0x84c29fb8b41f229ad09f4d68f84d676a28dc4a3a",
      "to": "0x5095bff088bcecf56476dceaae45c52351b6ef2b",
      "contractAddress": null
    },
    {
      "type": "0x2",
      "status": "0x1",
      "cumulativeGasUsed": "0x23430c",
      "logs": [
        {
          "address": "0x05e894ce2c176dbc30176626efa24850af2af0e2",
          "topics": [
            "0x8c5be1e5ebec7d5bd14f71427d1e84f3dd0314c0f7b2291e5b200ac8c7c3b925",
            "0x00000000000000000000000084c29fb8b41f229ad09f4d68f84d676a28dc4a3a",
            "0x0000000000000000000000005095bff088bcecf56476dceaae45c52351b6ef2b"
          ],
          "data": "0x00000000000000000000000000000000000000000000001b1ae4d6e2ef500000",
          "blockHash": "0xf3ba78a2d2f18dfb2d56d2a536efebbe4f311874b9843b6a056822a95783e2cc",
          "blockNumber": "0x1ddef5a",
          "blockTimestamp": "0x6a5fdbb6",
          "transactionHash": "0x2547354064e9bc5a6341bb2382ef821905f94e4e97d71fa9972749c35e0f359d",
          "transactionIndex": "0x11",
          "logIndex": "0x11",
          "removed": false
        }
      ],
      "logsBloom": "0x00000000000000000000000000800000000000000000000000000000000040000000000000000000000000000000000000001000000000000010000000200000000000000000000000000000100000000000000000000000000000000000000000000000800000000000000000000000000000000000000000010000000000000000000000000000000000000000000000000000000000000000000000000000020000000000000000000000000000000000000000000000000000000000000000000000000000000000000000000000000000000000000000000000000000000010000000000000000000000000000000200000000000400000000000000000",
      "transactionHash": "0x2547354064e9bc5a6341bb2382ef821905f94e4e97d71fa9972749c35e0f359d",
      "transactionIndex": "0x11",
      "blockHash": "0xf3ba78a2d2f18dfb2d56d2a536efebbe4f311874b9843b6a056822a95783e2cc",
      "blockNumber": "0x1ddef5a",
      "gasUsed": "0xb52a",
      "effectiveGasPrice": "0xf433b",
      "blobGasUsed": "0x9c40",
      "from": "0x84c29fb8b41f229ad09f4d68f84d676a28dc4a3a",
      "to": "0x05e894ce2c176dbc30176626efa24850af2af0e2",
      "contractAddress": null
    },
    {
      "type": "0x2",
      "status": "0x1",
      "cumulativeGasUsed": "0x23f836",
      "logs": [
        {
          "address": "0xeed497b085113e8c3fc563935582a72f90bde528",
          "topics": [
            "0x8c5be1e5ebec7d5bd14f71427d1e84f3dd0314c0f7b2291e5b200ac8c7c3b925",
            "0x00000000000000000000000084c29fb8b41f229ad09f4d68f84d676a28dc4a3a",
            "0x0000000000000000000000005095bff088bcecf56476dceaae45c52351b6ef2b"
          ],
          "data": "0x00000000000000000000000000000000000000000000001b1ae4d6e2ef500000",
          "blockHash": "0xf3ba78a2d2f18dfb2d56d2a536efebbe4f311874b9843b6a056822a95783e2cc",
          "blockNumber": "0x1ddef5a",
          "blockTimestamp": "0x6a5fdbb6",
          "transactionHash": "0x3ef00dc5d8959151b6d3980bc403f52af8f34fc609aecf9cece26e5968c1385c",
          "transactionIndex": "0x12",
          "logIndex": "0x12",
          "removed": false
        }
      ],
      "logsBloom": "0x00000000000000000000000000000000000000000000000000000000000000000000000000000000000000000000000000001000080000000012000000200000000000000000000000000000100000000000000000000000000000000000000000000000800000000000000000000000000000000010000000010000000000000000000000000000000000000000000000000000000000000000000000000000020000000000000000000000000000000000000000000000000000000000000000000000000000000000000000000000000000000000000000000000000000000010000000000000000000000000000000200000000000000000000000000000",
      "transactionHash": "0x3ef00dc5d8959151b6d3980bc403f52af8f34fc609aecf9cece26e5968c1385c",
      "transactionIndex": "0x12",
      "blockHash": "0xf3ba78a2d2f18dfb2d56d2a536efebbe4f311874b9843b6a056822a95783e2cc",
      "blockNumber": "0x1ddef5a",
      "gasUsed": "0xb52a",
      "effectiveGasPrice": "0xf433b",
      "blobGasUsed": "0x9c40",
      "from": "0x84c29fb8b41f229ad09f4d68f84d676a28dc4a3a",
      "to": "0xeed497b085113e8c3fc563935582a72f90bde528",
      "contractAddress": null
    },
    {
      "type": "0x2",
      "status": "0x1",
      "cumulativeGasUsed": "0x2583c4",
      "logs": [
        {
          "address": "0x05e894ce2c176dbc30176626efa24850af2af0e2",
          "topics": [
            "0xddf252ad1be2c89b69c2b068fc378daa952ba7f163c4a11628f55a4df523b3ef",
            "0x00000000000000000000000084c29fb8b41f229ad09f4d68f84d676a28dc4a3a",
            "0x0000000000000000000000005095bff088bcecf56476dceaae45c52351b6ef2b"
          ],
          "data": "0x00000000000000000000000000000000000000000000001b1ae4d6e2ef500000",
          "blockHash": "0xf3ba78a2d2f18dfb2d56d2a536efebbe4f311874b9843b6a056822a95783e2cc",
          "blockNumber": "0x1ddef5a",
          "blockTimestamp": "0x6a5fdbb6",
          "transactionHash": "0x12e52b756d7a1147afd47c47ce273aa90771afcb5c73635d2b68c21b3eb5efab",
          "transactionIndex": "0x13",
          "logIndex": "0x13",
          "removed": false
        },
        {
          "address": "0xeed497b085113e8c3fc563935582a72f90bde528",
          "topics": [
            "0xddf252ad1be2c89b69c2b068fc378daa952ba7f163c4a11628f55a4df523b3ef",
            "0x00000000000000000000000084c29fb8b41f229ad09f4d68f84d676a28dc4a3a",
            "0x0000000000000000000000005095bff088bcecf56476dceaae45c52351b6ef2b"
          ],
          "data": "0x00000000000000000000000000000000000000000000001b1ae4d6e2ef500000",
          "blockHash": "0xf3ba78a2d2f18dfb2d56d2a536efebbe4f311874b9843b6a056822a95783e2cc",
          "blockNumber": "0x1ddef5a",
          "blockTimestamp": "0x6a5fdbb6",
          "transactionHash": "0x12e52b756d7a1147afd47c47ce273aa90771afcb5c73635d2b68c21b3eb5efab",
          "transactionIndex": "0x13",
          "logIndex": "0x14",
          "removed": false
        },
        {
          "address": "0x5095bff088bcecf56476dceaae45c52351b6ef2b",
          "topics": [
            "0x36f3b2e1a21c19137dd82ec243b0708a1d26b3d1fa1dc49c44c4c366a5878138",
            "0x00000000000000000000000005e894ce2c176dbc30176626efa24850af2af0e2",
            "0x000000000000000000000000eed497b085113e8c3fc563935582a72f90bde528"
          ],
          "data": "0x00000000000000000000000000000000000000000000001b1ae4d6e2ef50000000000000000000000000000000000000000000000000001b1ae4d6e2ef500000",
          "blockHash": "0xf3ba78a2d2f18dfb2d56d2a536efebbe4f311874b9843b6a056822a95783e2cc",
          "blockNumber": "0x1ddef5a",
          "blockTimestamp": "0x6a5fdbb6",
          "transactionHash": "0x12e52b756d7a1147afd47c47ce273aa90771afcb5c73635d2b68c21b3eb5efab",
          "transactionIndex": "0x13",
          "logIndex": "0x15",
          "removed": false
        }
      ],
      "logsBloom": "0x40000000000000000000000004800000000000000000000000000000000040000020000000200000000000000000000000001000080000080012000000000000000000000000000000000008100000000000000000000000000000000000000000000008800000000000000001000000080000000010000000010010000000000000000000000000000000000000000000000000000000000000000000000000000000000000000000000000000002000000000000040000000000000000000000000002000000000000000000000000000000000080000000000000000000000000000000000000000000000000000000200000000000400000000000200000",
      "transactionHash": "0x12e52b756d7a1147afd47c47ce273aa90771afcb5c73635d2b68c21b3eb5efab",
      "transactionIndex": "0x13",
      "blockHash": "0xf3ba78a2d2f18dfb2d56d2a536efebbe4f311874b9843b6a056822a95783e2cc",
      "blockNumber": "0x1ddef5a",
      "gasUsed": "0x18b8e",
      "effectiveGasPrice": "0xf433b",
      "blobGasUsed": "0xb860",
      "from": "0x84c29fb8b41f229ad09f4d68f84d676a28dc4a3a",
      "to": "0x5095bff088bcecf56476dceaae45c52351b6ef2b",
      "contractAddress": null
    },
    {
      "type": "0x2",
      "status": "0x1",
      "cumulativeGasUsed": "0x2638ee",
      "logs": [
        {
          "address": "0x00e8f81208a33bf516cd7dd46e7597dfb40f5a25",
          "topics": [
            "0x8c5be1e5ebec7d5bd14f71427d1e84f3dd0314c0f7b2291e5b200ac8c7c3b925",
            "0x00000000000000000000000084c29fb8b41f229ad09f4d68f84d676a28dc4a3a",
            "0x0000000000000000000000005095bff088bcecf56476dceaae45c52351b6ef2b"
          ],
          "data": "0x00000000000000000000000000000000000000000000001b1ae4d6e2ef500000",
          "blockHash": "0xf3ba78a2d2f18dfb2d56d2a536efebbe4f311874b9843b6a056822a95783e2cc",
          "blockNumber": "0x1ddef5a",
          "blockTimestamp": "0x6a5fdbb6",
          "transactionHash": "0x347a686bd861392d7223a0e1125832b941d46f16b9ab8aeb8ba6c27e7e0a2247",
          "transactionIndex": "0x14",
          "logIndex": "0x16",
          "removed": false
        }
      ],
      "logsBloom": "0x00000000000000000000000000000000000000000000000000000000000000000000000000000000000000000000000000001000000000000010000000200000000000000000000000000000108000000000000000000010000000000000000000000000800000000000000000000000000000000000000000010000000000000000000000000000000000000000000000000000000000000000000000000000020000000000000000000000000000000000000000000000000000000000000000000000000000000000000000000000000000000000000000000000002000000010000000000000000000000000000000200000000000000000000000000000",
      "transactionHash": "0x347a686bd861392d7223a0e1125832b941d46f16b9ab8aeb8ba6c27e7e0a2247",
      "transactionIndex": "0x14",
      "blockHash": "0xf3ba78a2d2f18dfb2d56d2a536efebbe4f311874b9843b6a056822a95783e2cc",
      "blockNumber": "0x1ddef5a",
      "gasUsed": "0xb52a",
      "effectiveGasPrice": "0xf433b",
      "blobGasUsed": "0x9c40",
      "from": "0x84c29fb8b41f229ad09f4d68f84d676a28dc4a3a",
      "to": "0x00e8f81208a33bf516cd7dd46e7597dfb40f5a25",
      "contractAddress": null
    },
    {
      "type": "0x2",
      "status": "0x1",
      "cumulativeGasUsed": "0x26ee18",
      "logs": [
        {
          "address": "0x263a171641882db6b48210e1ea477db3d1d34509",
          "topics": [
            "0x8c5be1e5ebec7d5bd14f71427d1e84f3dd0314c0f7b2291e5b200ac8c7c3b925",
            "0x00000000000000000000000084c29fb8b41f229ad09f4d68f84d676a28dc4a3a",
            "0x0000000000000000000000005095bff088bcecf56476dceaae45c52351b6ef2b"
          ],
          "data": "0x00000000000000000000000000000000000000000000001b1ae4d6e2ef500000",
          "blockHash": "0xf3ba78a2d2f18dfb2d56d2a536efebbe4f311874b9843b6a056822a95783e2cc",
          "blockNumber": "0x1ddef5a",
          "blockTimestamp": "0x6a5fdbb6",
          "transactionHash": "0x7cd761eb1c8aaf98975bdf764ce944b25d066d602ee7847f6f49835c10e5f917",
          "transactionIndex": "0x15",
          "logIndex": "0x17",
          "removed": false
        }
      ],
      "logsBloom": "0x00000000000000000008000000000000000000000008000000000000000000000000000000000000000000000000000000001000000000000010000000200000000000000000000000000000100000000000000000000000000000000000000000000000800000000000000000000000000000000000000000010000000000000000000000000000000000000000000000000000000000000000000000000000020000000000000000000000000000000000000000000000000000000000000000000000000000000000000000000000000000000000000000000000000000000210000000000000000000000000000000200000000000000000000000000000",
      "transactionHash": "0x7cd761eb1c8aaf98975bdf764ce944b25d066d602ee7847f6f49835c10e5f917",
      "transactionIndex": "0x15",
      "blockHash": "0xf3ba78a2d2f18dfb2d56d2a536efebbe4f311874b9843b6a056822a95783e2cc",
      "blockNumber": "0x1ddef5a",
      "gasUsed": "0xb52a",
      "effectiveGasPrice": "0xf433b",
      "blobGasUsed": "0x9c40",
      "from": "0x84c29fb8b41f229ad09f4d68f84d676a28dc4a3a",
      "to": "0x263a171641882db6b48210e1ea477db3d1d34509",
      "contractAddress": null
    },
    {
      "type": "0x2",
      "status": "0x1",
      "cumulativeGasUsed": "0x2836ce",
      "logs": [
        {
          "address": "0x00e8f81208a33bf516cd7dd46e7597dfb40f5a25",
          "topics": [
            "0xddf252ad1be2c89b69c2b068fc378daa952ba7f163c4a11628f55a4df523b3ef",
            "0x00000000000000000000000084c29fb8b41f229ad09f4d68f84d676a28dc4a3a",
            "0x0000000000000000000000005095bff088bcecf56476dceaae45c52351b6ef2b"
          ],
          "data": "0x00000000000000000000000000000000000000000000001b1ae4d6e2ef500000",
          "blockHash": "0xf3ba78a2d2f18dfb2d56d2a536efebbe4f311874b9843b6a056822a95783e2cc",
          "blockNumber": "0x1ddef5a",
          "blockTimestamp": "0x6a5fdbb6",
          "transactionHash": "0xdb615a5f2a4c716811be12d3dfb29a4cd4d0f721e9c862f75cd0d539412b5b34",
          "transactionIndex": "0x16",
          "logIndex": "0x18",
          "removed": false
        },
        {
          "address": "0x263a171641882db6b48210e1ea477db3d1d34509",
          "topics": [
            "0xddf252ad1be2c89b69c2b068fc378daa952ba7f163c4a11628f55a4df523b3ef",
            "0x00000000000000000000000084c29fb8b41f229ad09f4d68f84d676a28dc4a3a",
            "0x0000000000000000000000005095bff088bcecf56476dceaae45c52351b6ef2b"
          ],
          "data": "0x00000000000000000000000000000000000000000000001b1ae4d6e2ef500000",
          "blockHash": "0xf3ba78a2d2f18dfb2d56d2a536efebbe4f311874b9843b6a056822a95783e2cc",
          "blockNumber": "0x1ddef5a",
          "blockTimestamp": "0x6a5fdbb6",
          "transactionHash": "0xdb615a5f2a4c716811be12d3dfb29a4cd4d0f721e9c862f75cd0d539412b5b34",
          "transactionIndex": "0x16",
          "logIndex": "0x19",
          "removed": false
        },
        {
          "address": "0x5095bff088bcecf56476dceaae45c52351b6ef2b",
          "topics": [
            "0x36f3b2e1a21c19137dd82ec243b0708a1d26b3d1fa1dc49c44c4c366a5878138",
            "0x00000000000000000000000000e8f81208a33bf516cd7dd46e7597dfb40f5a25",
            "0x000000000000000000000000263a171641882db6b48210e1ea477db3d1d34509"
          ],
          "data": "0x00000000000000000000000000000000000000000000001b1ae4d6e2ef50000000000000000000000000000000000000000000000000001b1ae4d6e2ef500000",
          "blockHash": "0xf3ba78a2d2f18dfb2d56d2a536efebbe4f311874b9843b6a056822a95783e2cc",
          "blockNumber": "0x1ddef5a",
          "blockTimestamp": "0x6a5fdbb6",
          "transactionHash": "0xdb615a5f2a4c716811be12d3dfb29a4cd4d0f721e9c862f75cd0d539412b5b34",
          "transactionIndex": "0x16",
          "logIndex": "0x1a",
          "removed": false
        }
      ],
      "logsBloom": "0x40000000000000000008100000000000000000000008000000000000000000000020000000000000000000000000000000001000000000000010000000000000000000000000000000000048108000000000000000000010000000000000000000000000800000000000000001040000080002000000000000010010000000000000000000000001000000000000000000000000000000000000000000000000000000000000000000000000000002000000000000000000000000000000000000000002000000000000000000000000000000000000000000000000002000000200008000000000000000000000000000200000000000000000000000200000",
      "transactionHash": "0xdb615a5f2a4c716811be12d3dfb29a4cd4d0f721e9c862f75cd0d539412b5b34",
      "transactionIndex": "0x16",
      "blockHash": "0xf3ba78a2d2f18dfb2d56d2a536efebbe4f311874b9843b6a056822a95783e2cc",
      "blockNumber": "0x1ddef5a",
      "gasUsed": "0x148b6",
      "effectiveGasPrice": "0xf433b",
      "blobGasUsed": "0xb860",
      "from": "0x84c29fb8b41f229ad09f4d68f84d676a28dc4a3a",
      "to": "0x5095bff088bcecf56476dceaae45c52351b6ef2b",
      "contractAddress": null
    },
    {
      "type": "0x2",
      "status": "0x1",
      "cumulativeGasUsed": "0x28ebf8",
      "logs": [
        {
          "address": "0x00e8f81208a33bf516cd7dd46e7597dfb40f5a25",
          "topics": [
            "0x8c5be1e5ebec7d5bd14f71427d1e84f3dd0314c0f7b2291e5b200ac8c7c3b925",
            "0x00000000000000000000000084c29fb8b41f229ad09f4d68f84d676a28dc4a3a",
            "0x0000000000000000000000005095bff088bcecf56476dceaae45c52351b6ef2b"
          ],
          "data": "0x00000000000000000000000000000000000000000000001b1ae4d6e2ef500000",
          "blockHash": "0xf3ba78a2d2f18dfb2d56d2a536efebbe4f311874b9843b6a056822a95783e2cc",
          "blockNumber": "0x1ddef5a",
          "blockTimestamp": "0x6a5fdbb6",
          "transactionHash": "0x1c6c5a1c8580df8d483945711aaa89124e08f1faed78313d800a581c8c9a711c",
          "transactionIndex": "0x17",
          "logIndex": "0x1b",
          "removed": false
        }
      ],
      "logsBloom": "0x00000000000000000000000000000000000000000000000000000000000000000000000000000000000000000000000000001000000000000010000000200000000000000000000000000000108000000000000000000010000000000000000000000000800000000000000000000000000000000000000000010000000000000000000000000000000000000000000000000000000000000000000000000000020000000000000000000000000000000000000000000000000000000000000000000000000000000000000000000000000000000000000000000000002000000010000000000000000000000000000000200000000000000000000000000000",
      "transactionHash": "0x1c6c5a1c8580df8d483945711aaa89124e08f1faed78313d800a581c8c9a711c",
      "transactionIndex": "0x17",
      "blockHash": "0xf3ba78a2d2f18dfb2d56d2a536efebbe4f311874b9843b6a056822a95783e2cc",
      "blockNumber": "0x1ddef5a",
      "gasUsed": "0xb52a",
      "effectiveGasPrice": "0xf433b",
      "blobGasUsed": "0x9c40",
      "from": "0x84c29fb8b41f229ad09f4d68f84d676a28dc4a3a",
      "to": "0x00e8f81208a33bf516cd7dd46e7597dfb40f5a25",
      "contractAddress": null
    },
    {
      "type": "0x2",
      "status": "0x1",
      "cumulativeGasUsed": "0x29a122",
      "logs": [
        {
          "address": "0x82868da66735fcd28185b9befa9ff2aee4ba3fb8",
          "topics": [
            "0x8c5be1e5ebec7d5bd14f71427d1e84f3dd0314c0f7b2291e5b200ac8c7c3b925",
            "0x00000000000000000000000084c29fb8b41f229ad09f4d68f84d676a28dc4a3a",
            "0x0000000000000000000000005095bff088bcecf56476dceaae45c52351b6ef2b"
          ],
          "data": "0x00000000000000000000000000000000000000000000001b1ae4d6e2ef500000",
          "blockHash": "0xf3ba78a2d2f18dfb2d56d2a536efebbe4f311874b9843b6a056822a95783e2cc",
          "blockNumber": "0x1ddef5a",
          "blockTimestamp": "0x6a5fdbb6",
          "transactionHash": "0x3473b25e94d96b86102ecc83b21a9bf83e85369735d34742fe9c22c564af40bb",
          "transactionIndex": "0x18",
          "logIndex": "0x1c",
          "removed": false
        }
      ],
      "logsBloom": "0x00000000000000000000000000000000000000000000000000000000000000000000000000000000000000000000000000001000000000000010000000200000000000000000000000000000100000000000000000000000000000000000000000000000800000000000000000000000000000000000000000010000000000000000000000000000040000000000000000000000000000000000000000000000021000000000000000000000000000000000000000000000000000000000000004000000000000000000000000000000000000000000000000000000000000000010000000000000000000000000000000200000000000000000000000000000",
      "transactionHash": "0x3473b25e94d96b86102ecc83b21a9bf83e85369735d34742fe9c22c564af40bb",
      "transactionIndex": "0x18",
      "blockHash": "0xf3ba78a2d2f18dfb2d56d2a536efebbe4f311874b9843b6a056822a95783e2cc",
      "blockNumber": "0x1ddef5a",
      "gasUsed": "0xb52a",
      "effectiveGasPrice": "0xf433b",
      "blobGasUsed": "0x9c40",
      "from": "0x84c29fb8b41f229ad09f4d68f84d676a28dc4a3a",
      "to": "0x82868da66735fcd28185b9befa9ff2aee4ba3fb8",
      "contractAddress": null
    },
    {
      "type": "0x2",
      "status": "0x1",
      "cumulativeGasUsed": "0x2ae9d8",
      "logs": [
        {
          "address": "0x00e8f81208a33bf516cd7dd46e7597dfb40f5a25",
          "topics": [
            "0xddf252ad1be2c89b69c2b068fc378daa952ba7f163c4a11628f55a4df523b3ef",
            "0x00000000000000000000000084c29fb8b41f229ad09f4d68f84d676a28dc4a3a",
            "0x0000000000000000000000005095bff088bcecf56476dceaae45c52351b6ef2b"
          ],
          "data": "0x00000000000000000000000000000000000000000000001b1ae4d6e2ef500000",
          "blockHash": "0xf3ba78a2d2f18dfb2d56d2a536efebbe4f311874b9843b6a056822a95783e2cc",
          "blockNumber": "0x1ddef5a",
          "blockTimestamp": "0x6a5fdbb6",
          "transactionHash": "0xcab7d4250a03edd02362db03d138bf96db9244e6655858fc98135d13de5e40c1",
          "transactionIndex": "0x19",
          "logIndex": "0x1d",
          "removed": false
        },
        {
          "address": "0x82868da66735fcd28185b9befa9ff2aee4ba3fb8",
          "topics": [
            "0xddf252ad1be2c89b69c2b068fc378daa952ba7f163c4a11628f55a4df523b3ef",
            "0x00000000000000000000000084c29fb8b41f229ad09f4d68f84d676a28dc4a3a",
            "0x0000000000000000000000005095bff088bcecf56476dceaae45c52351b6ef2b"
          ],
          "data": "0x00000000000000000000000000000000000000000000001b1ae4d6e2ef500000",
          "blockHash": "0xf3ba78a2d2f18dfb2d56d2a536efebbe4f311874b9843b6a056822a95783e2cc",
          "blockNumber": "0x1ddef5a",
          "blockTimestamp": "0x6a5fdbb6",
          "transactionHash": "0xcab7d4250a03edd02362db03d138bf96db9244e6655858fc98135d13de5e40c1",
          "transactionIndex": "0x19",
          "logIndex": "0x1e",
          "removed": false
        },
        {
          "address": "0x5095bff088bcecf56476dceaae45c52351b6ef2b",
          "topics": [
            "0x36f3b2e1a21c19137dd82ec243b0708a1d26b3d1fa1dc49c44c4c366a5878138",
            "0x00000000000000000000000000e8f81208a33bf516cd7dd46e7597dfb40f5a25",
            "0x00000000000000000000000082868da66735fcd28185b9befa9ff2aee4ba3fb8"
          ],
          "data": "0x00000000000000000000000000000000000000000000001b1ae4d6e2ef50000000000000000000000000000000000000000000000000001b1ae4d6e2ef500000",
          "blockHash": "0xf3ba78a2d2f18dfb2d56d2a536efebbe4f311874b9843b6a056822a95783e2cc",
          "blockNumber": "0x1ddef5a",
          "blockTimestamp": "0x6a5fdbb6",
          "transactionHash": "0xcab7d4250a03edd02362db03d138bf96db9244e6655858fc98135d13de5e40c1",
          "transactionIndex": "0x19",
          "logIndex": "0x1f",
          "removed": false
        }
      ],
      "logsBloom": "0x40000000000000000000000000000000000000000000000000000000000000000020000000000000000000000000000000001000000000002010000000000000000000000000000000000048108000000000000000000010000000000000000000000000800000000000000001040000080000000000000000010010000000000000000000000001040000000004000000000000000000000000000000000000001000000000000000000000000002000000000000000000000000000000000004000002000000000000000000000000100000000000000000000000002000000000000000000000000000000000000000200000000000000000000000200000",
      "transactionHash": "0xcab7d4250a03edd02362db03d138bf96db9244e6655858fc98135d13de5e40c1",
      "transactionIndex": "0x19",
      "blockHash": "0xf3ba78a2d2f18dfb2d56d2a536efebbe4f311874b9843b6a056822a95783e2cc",
      "blockNumber": "0x1ddef5a",
      "gasUsed": "0x148b6",
      "effectiveGasPrice": "0xf433b",
      "blobGasUsed": "0xb860",
      "from": "0x84c29fb8b41f229ad09f4d68f84d676a28dc4a3a",
      "to": "0x5095bff088bcecf56476dceaae45c52351b6ef2b",
      "contractAddress": null
    },
    {
      "type": "0x2",
      "status": "0x1",
      "cumulativeGasUsed": "0x2b9f02",
      "logs": [
        {
          "address": "0x00e8f81208a33bf516cd7dd46e7597dfb40f5a25",
          "topics": [
            "0x8c5be1e5ebec7d5bd14f71427d1e84f3dd0314c0f7b2291e5b200ac8c7c3b925",
            "0x00000000000000000000000084c29fb8b41f229ad09f4d68f84d676a28dc4a3a",
            "0x0000000000000000000000005095bff088bcecf56476dceaae45c52351b6ef2b"
          ],
          "data": "0x00000000000000000000000000000000000000000000001b1ae4d6e2ef500000",
          "blockHash": "0xf3ba78a2d2f18dfb2d56d2a536efebbe4f311874b9843b6a056822a95783e2cc",
          "blockNumber": "0x1ddef5a",
          "blockTimestamp": "0x6a5fdbb6",
          "transactionHash": "0xf6a40e2bbf12a222618fb7acda8f7453a0cdce75bea0ef0a483e8ae0339894ce",
          "transactionIndex": "0x1a",
          "logIndex": "0x20",
          "removed": false
        }
      ],
      "logsBloom": "0x00000000000000000000000000000000000000000000000000000000000000000000000000000000000000000000000000001000000000000010000000200000000000000000000000000000108000000000000000000010000000000000000000000000800000000000000000000000000000000000000000010000000000000000000000000000000000000000000000000000000000000000000000000000020000000000000000000000000000000000000000000000000000000000000000000000000000000000000000000000000000000000000000000000002000000010000000000000000000000000000000200000000000000000000000000000",
      "transactionHash": "0xf6a40e2bbf12a222618fb7acda8f7453a0cdce75bea0ef0a483e8ae0339894ce",
      "transactionIndex": "0x1a",
      "blockHash": "0xf3ba78a2d2f18dfb2d56d2a536efebbe4f311874b9843b6a056822a95783e2cc",
      "blockNumber": "0x1ddef5a",
      "gasUsed": "0xb52a",
      "effectiveGasPrice": "0xf433b",
      "blobGasUsed": "0x9c40",
      "from": "0x84c29fb8b41f229ad09f4d68f84d676a28dc4a3a",
      "to": "0x00e8f81208a33bf516cd7dd46e7597dfb40f5a25",
      "contractAddress": null
    },
    {
      "type": "0x2",
      "status": "0x1",
      "cumulativeGasUsed": "0x2c542c",
      "logs": [
        {
          "address": "0xeed497b085113e8c3fc563935582a72f90bde528",
          "topics": [
            "0x8c5be1e5ebec7d5bd14f71427d1e84f3dd0314c0f7b2291e5b200ac8c7c3b925",
            "0x00000000000000000000000084c29fb8b41f229ad09f4d68f84d676a28dc4a3a",
            "0x0000000000000000000000005095bff088bcecf56476dceaae45c52351b6ef2b"
          ],
          "data": "0x00000000000000000000000000000000000000000000001b1ae4d6e2ef500000",
          "blockHash": "0xf3ba78a2d2f18dfb2d56d2a536efebbe4f311874b9843b6a056822a95783e2cc",
          "blockNumber": "0x1ddef5a",
          "blockTimestamp": "0x6a5fdbb6",
          "transactionHash": "0xf8b386b1a8fc7f3f8d6f0aea8033e4472c18d1d449b904b885fddc8085456b5c",
          "transactionIndex": "0x1b",
          "logIndex": "0x21",
          "removed": false
        }
      ],
      "logsBloom": "0x00000000000000000000000000000000000000000000000000000000000000000000000000000000000000000000000000001000080000000012000000200000000000000000000000000000100000000000000000000000000000000000000000000000800000000000000000000000000000000010000000010000000000000000000000000000000000000000000000000000000000000000000000000000020000000000000000000000000000000000000000000000000000000000000000000000000000000000000000000000000000000000000000000000000000000010000000000000000000000000000000200000000000000000000000000000",
      "transactionHash": "0xf8b386b1a8fc7f3f8d6f0aea8033e4472c18d1d449b904b885fddc8085456b5c",
      "transactionIndex": "0x1b",
      "blockHash": "0xf3ba78a2d2f18dfb2d56d2a536efebbe4f311874b9843b6a056822a95783e2cc",
      "blockNumber": "0x1ddef5a",
      "gasUsed": "0xb52a",
      "effectiveGasPrice": "0xf433b",
      "blobGasUsed": "0x9c40",
      "from": "0x84c29fb8b41f229ad09f4d68f84d676a28dc4a3a",
      "to": "0xeed497b085113e8c3fc563935582a72f90bde528",
      "contractAddress": null
    },
    {
      "type": "0x2",
      "status": "0x1",
      "cumulativeGasUsed": "0x2d9ce2",
      "logs": [
        {
          "address": "0x00e8f81208a33bf516cd7dd46e7597dfb40f5a25",
          "topics": [
            "0xddf252ad1be2c89b69c2b068fc378daa952ba7f163c4a11628f55a4df523b3ef",
            "0x00000000000000000000000084c29fb8b41f229ad09f4d68f84d676a28dc4a3a",
            "0x0000000000000000000000005095bff088bcecf56476dceaae45c52351b6ef2b"
          ],
          "data": "0x00000000000000000000000000000000000000000000001b1ae4d6e2ef500000",
          "blockHash": "0xf3ba78a2d2f18dfb2d56d2a536efebbe4f311874b9843b6a056822a95783e2cc",
          "blockNumber": "0x1ddef5a",
          "blockTimestamp": "0x6a5fdbb6",
          "transactionHash": "0xa88b306681302078377e5325eb5e7b7fbf8ca787721171fb067c698c226b995c",
          "transactionIndex": "0x1c",
          "logIndex": "0x22",
          "removed": false
        },
        {
          "address": "0xeed497b085113e8c3fc563935582a72f90bde528",
          "topics": [
            "0xddf252ad1be2c89b69c2b068fc378daa952ba7f163c4a11628f55a4df523b3ef",
            "0x00000000000000000000000084c29fb8b41f229ad09f4d68f84d676a28dc4a3a",
            "0x0000000000000000000000005095bff088bcecf56476dceaae45c52351b6ef2b"
          ],
          "data": "0x00000000000000000000000000000000000000000000001b1ae4d6e2ef500000",
          "blockHash": "0xf3ba78a2d2f18dfb2d56d2a536efebbe4f311874b9843b6a056822a95783e2cc",
          "blockNumber": "0x1ddef5a",
          "blockTimestamp": "0x6a5fdbb6",
          "transactionHash": "0xa88b306681302078377e5325eb5e7b7fbf8ca787721171fb067c698c226b995c",
          "transactionIndex": "0x1c",
          "logIndex": "0x23",
          "removed": false
        },
        {
          "address": "0x5095bff088bcecf56476dceaae45c52351b6ef2b",
          "topics": [
            "0x36f3b2e1a21c19137dd82ec243b0708a1d26b3d1fa1dc49c44c4c366a5878138",
            "0x00000000000000000000000000e8f81208a33bf516cd7dd46e7597dfb40f5a25",
            "0x000000000000000000000000eed497b085113e8c3fc563935582a72f90bde528"
          ],
          "data": "0x00000000000000000000000000000000000000000000001b1ae4d6e2ef50000000000000000000000000000000000000000000000000001b1ae4d6e2ef500000",
          "blockHash": "0xf3ba78a2d2f18dfb2d56d2a536efebbe4f311874b9843b6a056822a95783e2cc",
          "blockNumber": "0x1ddef5a",
          "blockTimestamp": "0x6a5fdbb6",
          "transactionHash": "0xa88b306681302078377e5325eb5e7b7fbf8ca787721171fb067c698c226b995c",
          "transactionIndex": "0x1c",
          "logIndex": "0x24",
          "removed": false
        }
      ],
      "logsBloom": "0x40000000000000000000000000000000000000000000000000000000000000000020000000000000000000000000000000001000080000080012000000000000000000000000000000000048108000000000000000000010000000000000000000000008800000000000000001040000080000000010000000010010000000000000000000000001000000000000000000000000000000000000000000000000000000000000000000000000000002000000000000040000000000000000000000000002000000000000000000000000000000000000000000000000002000000000000000000000000000000000000000200000000000000000000000200000",
      "transactionHash": "0xa88b306681302078377e5325eb5e7b7fbf8ca787721171fb067c698c226b995c",
      "transactionIndex": "0x1c",
      "blockHash": "0xf3ba78a2d2f18dfb2d56d2a536efebbe4f311874b9843b6a056822a95783e2cc",
      "blockNumber": "0x1ddef5a",
      "gasUsed": "0x148b6",
      "effectiveGasPrice": "0xf433b",
      "blobGasUsed": "0xb860",
      "from": "0x84c29fb8b41f229ad09f4d68f84d676a28dc4a3a",
      "to": "0x5095bff088bcecf56476dceaae45c52351b6ef2b",
      "contractAddress": null
    },
    {
      "type": "0x2",
      "status": "0x1",
      "cumulativeGasUsed": "0x2e520c",
      "logs": [
        {
          "address": "0x263a171641882db6b48210e1ea477db3d1d34509",
          "topics": [
            "0x8c5be1e5ebec7d5bd14f71427d1e84f3dd0314c0f7b2291e5b200ac8c7c3b925",
            "0x00000000000000000000000084c29fb8b41f229ad09f4d68f84d676a28dc4a3a",
            "0x0000000000000000000000005095bff088bcecf56476dceaae45c52351b6ef2b"
          ],
          "data": "0x00000000000000000000000000000000000000000000001b1ae4d6e2ef500000",
          "blockHash": "0xf3ba78a2d2f18dfb2d56d2a536efebbe4f311874b9843b6a056822a95783e2cc",
          "blockNumber": "0x1ddef5a",
          "blockTimestamp": "0x6a5fdbb6",
          "transactionHash": "0x8faffc954f7d40ca928da83578cdef878de54af4f81c66f2b92c2ef18dcc2917",
          "transactionIndex": "0x1d",
          "logIndex": "0x25",
          "removed": false
        }
      ],
      "logsBloom": "0x00000000000000000008000000000000000000000008000000000000000000000000000000000000000000000000000000001000000000000010000000200000000000000000000000000000100000000000000000000000000000000000000000000000800000000000000000000000000000000000000000010000000000000000000000000000000000000000000000000000000000000000000000000000020000000000000000000000000000000000000000000000000000000000000000000000000000000000000000000000000000000000000000000000000000000210000000000000000000000000000000200000000000000000000000000000",
      "transactionHash": "0x8faffc954f7d40ca928da83578cdef878de54af4f81c66f2b92c2ef18dcc2917",
      "transactionIndex": "0x1d",
      "blockHash": "0xf3ba78a2d2f18dfb2d56d2a536efebbe4f311874b9843b6a056822a95783e2cc",
      "blockNumber": "0x1ddef5a",
      "gasUsed": "0xb52a",
      "effectiveGasPrice": "0xf433b",
      "blobGasUsed": "0x9c40",
      "from": "0x84c29fb8b41f229ad09f4d68f84d676a28dc4a3a",
      "to": "0x263a171641882db6b48210e1ea477db3d1d34509",
      "contractAddress": null
    },
    {
      "type": "0x2",
      "status": "0x1",
      "cumulativeGasUsed": "0x2f0736",
      "logs": [
        {
          "address": "0x82868da66735fcd28185b9befa9ff2aee4ba3fb8",
          "topics": [
            "0x8c5be1e5ebec7d5bd14f71427d1e84f3dd0314c0f7b2291e5b200ac8c7c3b925",
            "0x00000000000000000000000084c29fb8b41f229ad09f4d68f84d676a28dc4a3a",
            "0x0000000000000000000000005095bff088bcecf56476dceaae45c52351b6ef2b"
          ],
          "data": "0x00000000000000000000000000000000000000000000001b1ae4d6e2ef500000",
          "blockHash": "0xf3ba78a2d2f18dfb2d56d2a536efebbe4f311874b9843b6a056822a95783e2cc",
          "blockNumber": "0x1ddef5a",
          "blockTimestamp": "0x6a5fdbb6",
          "transactionHash": "0x1ef53e4c03534cb6bba892dc9dc043afa32bd8ed1cb711580fd509b2cc227b4b",
          "transactionIndex": "0x1e",
          "logIndex": "0x26",
          "removed": false
        }
      ],
      "logsBloom": "0x00000000000000000000000000000000000000000000000000000000000000000000000000000000000000000000000000001000000000000010000000200000000000000000000000000000100000000000000000000000000000000000000000000000800000000000000000000000000000000000000000010000000000000000000000000000040000000000000000000000000000000000000000000000021000000000000000000000000000000000000000000000000000000000000004000000000000000000000000000000000000000000000000000000000000000010000000000000000000000000000000200000000000000000000000000000",
      "transactionHash": "0x1ef53e4c03534cb6bba892dc9dc043afa32bd8ed1cb711580fd509b2cc227b4b",
      "transactionIndex": "0x1e",
      "blockHash": "0xf3ba78a2d2f18dfb2d56d2a536efebbe4f311874b9843b6a056822a95783e2cc",
      "blockNumber": "0x1ddef5a",
      "gasUsed": "0xb52a",
      "effectiveGasPrice": "0xf433b",
      "blobGasUsed": "0x9c40",
      "from": "0x84c29fb8b41f229ad09f4d68f84d676a28dc4a3a",
      "to": "0x82868da66735fcd28185b9befa9ff2aee4ba3fb8",
      "contractAddress": null
    },
    {
      "type": "0x2",
      "status": "0x1",
      "cumulativeGasUsed": "0x304ff8",
      "logs": [
        {
          "address": "0x263a171641882db6b48210e1ea477db3d1d34509",
          "topics": [
            "0xddf252ad1be2c89b69c2b068fc378daa952ba7f163c4a11628f55a4df523b3ef",
            "0x00000000000000000000000084c29fb8b41f229ad09f4d68f84d676a28dc4a3a",
            "0x0000000000000000000000005095bff088bcecf56476dceaae45c52351b6ef2b"
          ],
          "data": "0x00000000000000000000000000000000000000000000001b1ae4d6e2ef500000",
          "blockHash": "0xf3ba78a2d2f18dfb2d56d2a536efebbe4f311874b9843b6a056822a95783e2cc",
          "blockNumber": "0x1ddef5a",
          "blockTimestamp": "0x6a5fdbb6",
          "transactionHash": "0x05f54502b169eb0a3b00684d511ad0fb7e7ba199dc6a52addb337a24f92b6270",
          "transactionIndex": "0x1f",
          "logIndex": "0x27",
          "removed": false
        },
        {
          "address": "0x82868da66735fcd28185b9befa9ff2aee4ba3fb8",
          "topics": [
            "0xddf252ad1be2c89b69c2b068fc378daa952ba7f163c4a11628f55a4df523b3ef",
            "0x00000000000000000000000084c29fb8b41f229ad09f4d68f84d676a28dc4a3a",
            "0x0000000000000000000000005095bff088bcecf56476dceaae45c52351b6ef2b"
          ],
          "data": "0x00000000000000000000000000000000000000000000001b1ae4d6e2ef500000",
          "blockHash": "0xf3ba78a2d2f18dfb2d56d2a536efebbe4f311874b9843b6a056822a95783e2cc",
          "blockNumber": "0x1ddef5a",
          "blockTimestamp": "0x6a5fdbb6",
          "transactionHash": "0x05f54502b169eb0a3b00684d511ad0fb7e7ba199dc6a52addb337a24f92b6270",
          "transactionIndex": "0x1f",
          "logIndex": "0x28",
          "removed": false
        },
        {
          "address": "0x5095bff088bcecf56476dceaae45c52351b6ef2b",
          "topics": [
            "0x36f3b2e1a21c19137dd82ec243b0708a1d26b3d1fa1dc49c44c4c366a5878138",
            "0x000000000000000000000000263a171641882db6b48210e1ea477db3d1d34509",
            "0x00000000000000000000000082868da66735fcd28185b9befa9ff2aee4ba3fb8"
          ],
          "data": "0x00000000000000000000000000000000000000000000001b1ae4d6e2ef50000000000000000000000000000000000000000000000000001b1ae4d6e2ef500000",
          "blockHash": "0xf3ba78a2d2f18dfb2d56d2a536efebbe4f311874b9843b6a056822a95783e2cc",
          "blockNumber": "0x1ddef5a",
          "blockTimestamp": "0x6a5fdbb6",
          "transactionHash": "0x05f54502b169eb0a3b00684d511ad0fb7e7ba199dc6a52addb337a24f92b6270",
          "transactionIndex": "0x1f",
          "logIndex": "0x29",
          "removed": false
        }
      ],
      "logsBloom": "0x40000000000000000008100000000000000000000008000000000000000000000020000000000000000000000000000000001000000000002010000000000000000000000000000000000008100000000000000000000000000000000000000000000000800000000000000001000000080002000000000000010010000000000000000000000000040000000004000000000000000000000000000000000000001000000000000000000000000002000000000000000000000000000000000004000002000000000000000000000000100000000000000000000000000000000200008000000000000000000000000000200000000000000000000000200000",
      "transactionHash": "0x05f54502b169eb0a3b00684d511ad0fb7e7ba199dc6a52addb337a24f92b6270",
      "transactionIndex": "0x1f",
      "blockHash": "0xf3ba78a2d2f18dfb2d56d2a536efebbe4f311874b9843b6a056822a95783e2cc",
      "blockNumber": "0x1ddef5a",
      "gasUsed": "0x148c2",
      "effectiveGasPrice": "0xf433b",
      "blobGasUsed": "0xb860",
      "from": "0x84c29fb8b41f229ad09f4d68f84d676a28dc4a3a",
      "to": "0x5095bff088bcecf56476dceaae45c52351b6ef2b",
      "contractAddress": null
    },
    {
      "type": "0x2",
      "status": "0x1",
      "cumulativeGasUsed": "0x310522",
      "logs": [
        {
          "address": "0x263a171641882db6b48210e1ea477db3d1d34509",
          "topics": [
            "0x8c5be1e5ebec7d5bd14f71427d1e84f3dd0314c0f7b2291e5b200ac8c7c3b925",
            "0x00000000000000000000000084c29fb8b41f229ad09f4d68f84d676a28dc4a3a",
            "0x0000000000000000000000005095bff088bcecf56476dceaae45c52351b6ef2b"
          ],
          "data": "0x00000000000000000000000000000000000000000000001b1ae4d6e2ef500000",
          "blockHash": "0xf3ba78a2d2f18dfb2d56d2a536efebbe4f311874b9843b6a056822a95783e2cc",
          "blockNumber": "0x1ddef5a",
          "blockTimestamp": "0x6a5fdbb6",
          "transactionHash": "0x9a20ef9dbf31a4a5e030d55730509c725136981a6ec69d99a4184487ee235211",
          "transactionIndex": "0x20",
          "logIndex": "0x2a",
          "removed": false
        }
      ],
      "logsBloom": "0x00000000000000000008000000000000000000000008000000000000000000000000000000000000000000000000000000001000000000000010000000200000000000000000000000000000100000000000000000000000000000000000000000000000800000000000000000000000000000000000000000010000000000000000000000000000000000000000000000000000000000000000000000000000020000000000000000000000000000000000000000000000000000000000000000000000000000000000000000000000000000000000000000000000000000000210000000000000000000000000000000200000000000000000000000000000",
      "transactionHash": "0x9a20ef9dbf31a4a5e030d55730509c725136981a6ec69d99a4184487ee235211",
      "transactionIndex": "0x20",
      "blockHash": "0xf3ba78a2d2f18dfb2d56d2a536efebbe4f311874b9843b6a056822a95783e2cc",
      "blockNumber": "0x1ddef5a",
      "gasUsed": "0xb52a",
      "effectiveGasPrice": "0xf433b",
      "blobGasUsed": "0x9c40",
      "from": "0x84c29fb8b41f229ad09f4d68f84d676a28dc4a3a",
      "to": "0x263a171641882db6b48210e1ea477db3d1d34509",
      "contractAddress": null
    },
    {
      "type": "0x2",
      "status": "0x1",
      "cumulativeGasUsed": "0x31ba4c",
      "logs": [
        {
          "address": "0xeed497b085113e8c3fc563935582a72f90bde528",
          "topics": [
            "0x8c5be1e5ebec7d5bd14f71427d1e84f3dd0314c0f7b2291e5b200ac8c7c3b925",
            "0x00000000000000000000000084c29fb8b41f229ad09f4d68f84d676a28dc4a3a",
            "0x0000000000000000000000005095bff088bcecf56476dceaae45c52351b6ef2b"
          ],
          "data": "0x00000000000000000000000000000000000000000000001b1ae4d6e2ef500000",
          "blockHash": "0xf3ba78a2d2f18dfb2d56d2a536efebbe4f311874b9843b6a056822a95783e2cc",
          "blockNumber": "0x1ddef5a",
          "blockTimestamp": "0x6a5fdbb6",
          "transactionHash": "0x04a48b6d0df668f27daea49f7be1fbf9286a9eb1bba3e0c191496d50b3fb12f2",
          "transactionIndex": "0x21",
          "logIndex": "0x2b",
          "removed": false
        }
      ],
      "logsBloom": "0x00000000000000000000000000000000000000000000000000000000000000000000000000000000000000000000000000001000080000000012000000200000000000000000000000000000100000000000000000000000000000000000000000000000800000000000000000000000000000000010000000010000000000000000000000000000000000000000000000000000000000000000000000000000020000000000000000000000000000000000000000000000000000000000000000000000000000000000000000000000000000000000000000000000000000000010000000000000000000000000000000200000000000000000000000000000",
      "transactionHash": "0x04a48b6d0df668f27daea49f7be1fbf9286a9eb1bba3e0c191496d50b3fb12f2",
      "transactionIndex": "0x21",
      "blockHash": "0xf3ba78a2d2f18dfb2d56d2a536efebbe4f311874b9843b6a056822a95783e2cc",
      "blockNumber": "0x1ddef5a",
      "gasUsed": "0xb52a",
      "effectiveGasPrice": "0xf433b",
      "blobGasUsed": "0x9c40",
      "from": "0x84c29fb8b41f229ad09f4d68f84d676a28dc4a3a",
      "to": "0xeed497b085113e8c3fc563935582a72f90bde528",
      "contractAddress": null
    },
    {
      "type": "0x2",
      "status": "0x1",
      "cumulativeGasUsed": "0x33030e",
      "logs": [
        {
          "address": "0x263a171641882db6b48210e1ea477db3d1d34509",
          "topics": [
            "0xddf252ad1be2c89b69c2b068fc378daa952ba7f163c4a11628f55a4df523b3ef",
            "0x00000000000000000000000084c29fb8b41f229ad09f4d68f84d676a28dc4a3a",
            "0x0000000000000000000000005095bff088bcecf56476dceaae45c52351b6ef2b"
          ],
          "data": "0x00000000000000000000000000000000000000000000001b1ae4d6e2ef500000",
          "blockHash": "0xf3ba78a2d2f18dfb2d56d2a536efebbe4f311874b9843b6a056822a95783e2cc",
          "blockNumber": "0x1ddef5a",
          "blockTimestamp": "0x6a5fdbb6",
          "transactionHash": "0x63eff9bba83d7b08c11069c5eb45f3867f6236e0e9df62501818e6a308c66445",
          "transactionIndex": "0x22",
          "logIndex": "0x2c",
          "removed": false
        },
        {
          "address": "0xeed497b085113e8c3fc563935582a72f90bde528",
          "topics": [
            "0xddf252ad1be2c89b69c2b068fc378daa952ba7f163c4a11628f55a4df523b3ef",
            "0x00000000000000000000000084c29fb8b41f229ad09f4d68f84d676a28dc4a3a",
            "0x0000000000000000000000005095bff088bcecf56476dceaae45c52351b6ef2b"
          ],
          "data": "0x00000000000000000000000000000000000000000000001b1ae4d6e2ef500000",
          "blockHash": "0xf3ba78a2d2f18dfb2d56d2a536efebbe4f311874b9843b6a056822a95783e2cc",
          "blockNumber": "0x1ddef5a",
          "blockTimestamp": "0x6a5fdbb6",
          "transactionHash": "0x63eff9bba83d7b08c11069c5eb45f3867f6236e0e9df62501818e6a308c66445",
          "transactionIndex": "0x22",
          "logIndex": "0x2d",
          "removed": false
        },
        {
          "address": "0x5095bff088bcecf56476dceaae45c52351b6ef2b",
          "topics": [
            "0x36f3b2e1a21c19137dd82ec243b0708a1d26b3d1fa1dc49c44c4c366a5878138",
            "0x000000000000000000000000263a171641882db6b48210e1ea477db3d1d34509",
            "0x000000000000000000000000eed497b085113e8c3fc563935582a72f90bde528"
          ],
          "data": "0x00000000000000000000000000000000000000000000001b1ae4d6e2ef50000000000000000000000000000000000000000000000000001b1ae4d6e2ef500000",
          "blockHash": "0xf3ba78a2d2f18dfb2d56d2a536efebbe4f311874b9843b6a056822a95783e2cc",
          "blockNumber": "0x1ddef5a",
          "blockTimestamp": "0x6a5fdbb6",
          "transactionHash": "0x63eff9bba83d7b08c11069c5eb45f3867f6236e0e9df62501818e6a308c66445",
          "transactionIndex": "0x22",
          "logIndex": "0x2e",
          "removed": false
        }
      ],
      "logsBloom": "0x40000000000000000008100000000000000000000008000000000000000000000020000000000000000000000000000000001000080000080012000000000000000000000000000000000008100000000000000000000000000000000000000000000008800000000000000001000000080002000010000000010010000000000000000000000000000000000000000000000000000000000000000000000000000000000000000000000000000002000000000000040000000000000000000000000002000000000000000000000000000000000000000000000000000000000200008000000000000000000000000000200000000000000000000000200000",
      "transactionHash": "0x63eff9bba83d7b08c11069c5eb45f3867f6236e0e9df62501818e6a308c66445",
      "transactionIndex": "0x22",
      "blockHash": "0xf3ba78a2d2f18dfb2d56d2a536efebbe4f311874b9843b6a056822a95783e2cc",
      "blockNumber": "0x1ddef5a",
      "gasUsed": "0x148c2",
      "effectiveGasPrice": "0xf433b",
      "blobGasUsed": "0xb860",
      "from": "0x84c29fb8b41f229ad09f4d68f84d676a28dc4a3a",
      "to": "0x5095bff088bcecf56476dceaae45c52351b6ef2b",
      "contractAddress": null
    },
    {
      "type": "0x2",
      "status": "0x1",
      "cumulativeGasUsed": "0x33b838",
      "logs": [
        {
          "address": "0x82868da66735fcd28185b9befa9ff2aee4ba3fb8",
          "topics": [
            "0x8c5be1e5ebec7d5bd14f71427d1e84f3dd0314c0f7b2291e5b200ac8c7c3b925",
            "0x00000000000000000000000084c29fb8b41f229ad09f4d68f84d676a28dc4a3a",
            "0x0000000000000000000000005095bff088bcecf56476dceaae45c52351b6ef2b"
          ],
          "data": "0x00000000000000000000000000000000000000000000001b1ae4d6e2ef500000",
          "blockHash": "0xf3ba78a2d2f18dfb2d56d2a536efebbe4f311874b9843b6a056822a95783e2cc",
          "blockNumber": "0x1ddef5a",
          "blockTimestamp": "0x6a5fdbb6",
          "transactionHash": "0x7e49a2ddf6af2caaebdbf1df7da1d38b6f1543519f62a806fd5726607d5f0a33",
          "transactionIndex": "0x23",
          "logIndex": "0x2f",
          "removed": false
        }
      ],
      "logsBloom": "0x00000000000000000000000000000000000000000000000000000000000000000000000000000000000000000000000000001000000000000010000000200000000000000000000000000000100000000000000000000000000000000000000000000000800000000000000000000000000000000000000000010000000000000000000000000000040000000000000000000000000000000000000000000000021000000000000000000000000000000000000000000000000000000000000004000000000000000000000000000000000000000000000000000000000000000010000000000000000000000000000000200000000000000000000000000000",
      "transactionHash": "0x7e49a2ddf6af2caaebdbf1df7da1d38b6f1543519f62a806fd5726607d5f0a33",
      "transactionIndex": "0x23",
      "blockHash": "0xf3ba78a2d2f18dfb2d56d2a536efebbe4f311874b9843b6a056822a95783e2cc",
      "blockNumber": "0x1ddef5a",
      "gasUsed": "0xb52a",
      "effectiveGasPrice": "0xf433b",
      "blobGasUsed": "0x9c40",
      "from": "0x84c29fb8b41f229ad09f4d68f84d676a28dc4a3a",
      "to": "0x82868da66735fcd28185b9befa9ff2aee4ba3fb8",
      "contractAddress": null
    },
    {
      "type": "0x2",
      "status": "0x1",
      "cumulativeGasUsed": "0x346d62",
      "logs": [
        {
          "address": "0xeed497b085113e8c3fc563935582a72f90bde528",
          "topics": [
            "0x8c5be1e5ebec7d5bd14f71427d1e84f3dd0314c0f7b2291e5b200ac8c7c3b925",
            "0x00000000000000000000000084c29fb8b41f229ad09f4d68f84d676a28dc4a3a",
            "0x0000000000000000000000005095bff088bcecf56476dceaae45c52351b6ef2b"
          ],
          "data": "0x00000000000000000000000000000000000000000000001b1ae4d6e2ef500000",
          "blockHash": "0xf3ba78a2d2f18dfb2d56d2a536efebbe4f311874b9843b6a056822a95783e2cc",
          "blockNumber": "0x1ddef5a",
          "blockTimestamp": "0x6a5fdbb6",
          "transactionHash": "0xf05523b0aac8ec4a744984517f18f58491e6915b8289ec2b18534ad441c7bfa1",
          "transactionIndex": "0x24",
          "logIndex": "0x30",
          "removed": false
        }
      ],
      "logsBloom": "0x00000000000000000000000000000000000000000000000000000000000000000000000000000000000000000000000000001000080000000012000000200000000000000000000000000000100000000000000000000000000000000000000000000000800000000000000000000000000000000010000000010000000000000000000000000000000000000000000000000000000000000000000000000000020000000000000000000000000000000000000000000000000000000000000000000000000000000000000000000000000000000000000000000000000000000010000000000000000000000000000000200000000000000000000000000000",
      "transactionHash": "0xf05523b0aac8ec4a744984517f18f58491e6915b8289ec2b18534ad441c7bfa1",
      "transactionIndex": "0x24",
      "blockHash": "0xf3ba78a2d2f18dfb2d56d2a536efebbe4f311874b9843b6a056822a95783e2cc",
      "blockNumber": "0x1ddef5a",
      "gasUsed": "0xb52a",
      "effectiveGasPrice": "0xf433b",
      "blobGasUsed": "0x9c40",
      "from": "0x84c29fb8b41f229ad09f4d68f84d676a28dc4a3a",
      "to": "0xeed497b085113e8c3fc563935582a72f90bde528",
      "contractAddress": null
    },
    {
      "type": "0x2",
      "status": "0x1",
      "cumulativeGasUsed": "0x35b624",
      "logs": [
        {
          "address": "0x82868da66735fcd28185b9befa9ff2aee4ba3fb8",
          "topics": [
            "0xddf252ad1be2c89b69c2b068fc378daa952ba7f163c4a11628f55a4df523b3ef",
            "0x00000000000000000000000084c29fb8b41f229ad09f4d68f84d676a28dc4a3a",
            "0x0000000000000000000000005095bff088bcecf56476dceaae45c52351b6ef2b"
          ],
          "data": "0x00000000000000000000000000000000000000000000001b1ae4d6e2ef500000",
          "blockHash": "0xf3ba78a2d2f18dfb2d56d2a536efebbe4f311874b9843b6a056822a95783e2cc",
          "blockNumber": "0x1ddef5a",
          "blockTimestamp": "0x6a5fdbb6",
          "transactionHash": "0xff356829f5fc8885bba8ffdd3c259e2905717dbbb7debe24878e745ba78cdd92",
          "transactionIndex": "0x25",
          "logIndex": "0x31",
          "removed": false
        },
        {
          "address": "0xeed497b085113e8c3fc563935582a72f90bde528",
          "topics": [
            "0xddf252ad1be2c89b69c2b068fc378daa952ba7f163c4a11628f55a4df523b3ef",
            "0x00000000000000000000000084c29fb8b41f229ad09f4d68f84d676a28dc4a3a",
            "0x0000000000000000000000005095bff088bcecf56476dceaae45c52351b6ef2b"
          ],
          "data": "0x00000000000000000000000000000000000000000000001b1ae4d6e2ef500000",
          "blockHash": "0xf3ba78a2d2f18dfb2d56d2a536efebbe4f311874b9843b6a056822a95783e2cc",
          "blockNumber": "0x1ddef5a",
          "blockTimestamp": "0x6a5fdbb6",
          "transactionHash": "0xff356829f5fc8885bba8ffdd3c259e2905717dbbb7debe24878e745ba78cdd92",
          "transactionIndex": "0x25",
          "logIndex": "0x32",
          "removed": false
        },
        {
          "address": "0x5095bff088bcecf56476dceaae45c52351b6ef2b",
          "topics": [
            "0x36f3b2e1a21c19137dd82ec243b0708a1d26b3d1fa1dc49c44c4c366a5878138",
            "0x00000000000000000000000082868da66735fcd28185b9befa9ff2aee4ba3fb8",
            "0x000000000000000000000000eed497b085113e8c3fc563935582a72f90bde528"
          ],
          "data": "0x00000000000000000000000000000000000000000000001b1ae4d6e2ef50000000000000000000000000000000000000000000000000001b1ae4d6e2ef500000",
          "blockHash": "0xf3ba78a2d2f18dfb2d56d2a536efebbe4f311874b9843b6a056822a95783e2cc",
          "blockNumber": "0x1ddef5a",
          "blockTimestamp": "0x6a5fdbb6",
          "transactionHash": "0xff356829f5fc8885bba8ffdd3c259e2905717dbbb7debe24878e745ba78cdd92",
          "transactionIndex": "0x25",
          "logIndex": "0x33",
          "removed": false
        }
      ],
      "logsBloom": "0x40000000000000000000000000000000000000000000000000000000000000000020000000000000000000000000000000001000080000082012000000000000000000000000000000000008100000000000000000000000000000000000000000000008800000000000000001000000080000000010000000010010000000000000000000000000040000000004000000000000000000000000000000000000001000000000000000000000000002000000000000040000000000000000000004000002000000000000000000000000100000000000000000000000000000000000000000000000000000000000000000200000000000000000000000200000",
      "transactionHash": "0xff356829f5fc8885bba8ffdd3c259e2905717dbbb7debe24878e745ba78cdd92",
      "transactionIndex": "0x25",
      "blockHash": "0xf3ba78a2d2f18dfb2d56d2a536efebbe4f311874b9843b6a056822a95783e2cc",
      "blockNumber": "0x1ddef5a",
      "gasUsed": "0x148c2",
      "effectiveGasPrice": "0xf433b",
      "blobGasUsed": "0xb860",
      "from": "0x84c29fb8b41f229ad09f4d68f84d676a28dc4a3a",
      "to": "0x5095bff088bcecf56476dceaae45c52351b6ef2b",
      "contractAddress": null
    }
  ],
  "libraries": [],
  "pending": [],
  "returns": {},
  "timestamp": 1784667071034,
  "chain": 91342,
  "commit": "49b19a6"
}