{
  "transactions": [
    {
      "hash": "0xda6450760ae8eec6cb9afa4f17a8bd61f87849dd14bcc41f0740f6083c629421",
      "transactionType": "CREATE",
      "contractName": "PublicVerifier",
      "contractAddress": "0xb2dec3394a51da95b0d78c7d081c41a4dcee10ee",
      "function": null,
      "arguments": null,
      "transaction": {
        "from": "0x84c29fb8b41f229ad09f4d68f84d676a28dc4a3a",
        "to": null,
        "gas": "0x1a271",
        "value": "0x0",
        "input": "0x608080604052346013576086908160188239f35b5f80fdfe60808060405260043610156011575f80fd5b5f3560e01c63ba03e205146023575f80fd5b34604c576040366003190112604c576004356001600160a01b03811603604c5780600160209252f35b5f80fdfea26469706673582212201b60d4802203492afda3bedbd1c284d32315631db555ade57a507d6c452d68d564736f6c634300081c0033",
        "nonce": "0x16a",
        "chainId": "0x164ce"
      },
      "additionalContracts": [],
      "isFixedGasLimit": false
    },
    {
      "hash": "0x1b2c07ca2473a74e43dac4065b96b3a016251fa8fef2d157ad6a43f6c8ded715",
      "transactionType": "CREATE",
      "contractName": "GiwaFaucet",
      "contractAddress": "0x4e33aecec539b6c412145a5178693b0c867caa19",
      "function": null,
      "arguments": [
        "0xB2dec3394a51DA95B0D78c7d081C41A4DCEE10Ee",
        "0xd99b42e778498aa3c9c1f6a012359130252780511687a35982e8e52735453034"
      ],
      "transaction": {
        "from": "0x84c29fb8b41f229ad09f4d68f84d676a28dc4a3a",
        "to": null,
        "gas": "0x18ab4b",
        "value": "0x0",
        "input": "0x60803461014657601f61144c38819003918201601f19168301916001600160401b0383118484101761014a5780849260409485528339810103126101465780516001600160a01b0381169190829003610146576020015190331561013357600180546001600160a01b03199081169091555f8054339281168317825560405192916001600160a01b03909116907f8be0079c531659141344cd1fd0a4f28419497f9722a3daafe3b4186f6b6457e09080a368056bc75e2d6310000060045568056bc75e2d631000006005556201518060065581156100fe5750600280546001600160a01b0319169190911790556003556040516112ed908161015f8239f35b62461bcd60e51b815260206004820152601060248201526f24b73b30b634b2103b32b934b334b2b960811b6044820152606490fd5b631e4fbdf760e01b5f525f60045260245ffd5b5f80fd5b634e487b7160e01b5f52604160045260245ffdfe6080806040526004361015610012575f80fd5b5f3560e01c90816304646a49146110e35750806309824a8014610f705780631e83409a14610ca25780632b7ac3f314610c7a5780633528bee914610bf0578063453c231014610bd35780634fc3f41a14610b805780636524232c14610b65578063715018a614610b0257806377860cdd1461096857806378a895671461094b57806379ba5097146108c6578063830953ab146108a95780638c0bd9161461086c5780638da5cb5b1461084557806391920f30146107f557806392389453146107d857806394714d3d1461074257806397988dce146107245780639ead7222146106e2578063a219a01814610692578063aa6ca808146105ca578063af99ccf014610576578063b1c7ef0c14610523578063c1b628dc146104cf578063d1058e591461028b578063e268e4d314610238578063e30c397814610210578063f2fde38b1461019e5763fc9afd6714610166575f80fd5b3461019a57604036600319011261019a5760206101926101846110fd565b61018c611113565b906111d7565b604051908152f35b5f80fd5b3461019a57602036600319011261019a576101b76110fd565b6101bf611223565b60018060a01b0316806bffffffffffffffffffffffff60a01b600154161760015560018060a01b035f54167f38d16b8cac22d99fc7c124b9cd0de2d3fa1faef420bfe791d8c362d765e227005f80a3005b3461019a575f36600319011261019a576001546040516001600160a01b039091168152602090f35b3461019a57602036600319011261019a57600435610254611223565b7f3fca42c6c8b5fed56d74db2d1bdb8779af1f129431f3517018ca13f6904b063760406005548151908152836020820152a1600555005b3461019a575f36600319011261019a5760025460035460405163ba03e20560e01b8152336004820152602481019190915290602090829060449082906001600160a01b03165afa801561048c576102e9915f916104a0575b5061118f565b6008545f5b8181106102f757005b61030081611129565b60018060a01b0391549060031b1c1690815f52600760205260ff60405f2054161561049757335f52600960205260405f2060018060a01b0383165f5260205261035060405f2054600654906111ca565b4210610497576040516370a0823160e01b815230600482015291602083602481845afa801561048c575f9061045a575b60019350600454809110610453576103b590335f52600a60205260405f20858060a01b0384165f5260205260405f20546111ca565b6005541061044d57335f52600960205260405f20838060a01b0382165f5260205260405f20429055600454335f52600a60205260405f20848060a01b0383165f5260205261040860405f209182546111ca565b90556104176004543383611236565b6004546040519081527ff7a40077ff7a04c7e61f6f26fb13774259ddf1b6bce9ecf26a8276cdd399268360203392a35b016102ee565b50610447565b5050610447565b506020833d8211610484575b8161047360209383611155565b8101031261019a5760019251610380565b3d9150610466565b6040513d5f823e3d90fd5b60019150610447565b6104c2915060203d6020116104c8575b6104ba8183611155565b810190611177565b826102e3565b503d6104b0565b3461019a57604036600319011261019a576104e86110fd565b6104f0611113565b906104f9611223565b6001600160a01b039081165f90815260096020908152604080832094909316825292909252812055005b3461019a57602036600319011261019a5760043561053f611223565b7fc22e16deec6f587d0a1aad7275c1621e6c24431fea14dd71e8f3243e9fbc5ca360406004548151908152836020820152a1600455005b3461019a57604036600319011261019a5761058f6110fd565b610597611113565b906105a0611223565b6001600160a01b039081165f908152600a6020908152604080832094909316825292909252812055005b3461019a575f36600319011261019a576040518060206008549283815201809260085f527ff3f7a9fe364faab93b216da50a3214154f22a0a2b415b23a84c8169e8b636ee3905f5b8181106106735750505081610628910382611155565b604051918291602083019060208452518091526040830191905f5b818110610651575050500390f35b82516001600160a01b0316845285945060209384019390920191600101610643565b82546001600160a01b0316845260209093019260019283019201610612565b3461019a57604036600319011261019a576106ab6110fd565b6106b3611113565b6001600160a01b039182165f908152600a60209081526040808320949093168252928352819020549051908152f35b3461019a57602036600319011261019a5760043560085481101561019a5761070b602091611129565b905460405160039290921b1c6001600160a01b03168152f35b3461019a57602036600319011261019a57602061070b600435611129565b3461019a57604036600319011261019a5761075b6110fd565b610763611223565b60018060a01b03166040516323b872dd60e01b5f52336004523060245260243560445260205f60648180865af19060015f51148216156107b8575b50156107a657005b635274afe760e01b5f5260045260245ffd5b60018215166107d05750813b15153d1516168261079e565b3d5f823e3d90fd5b3461019a575f36600319011261019a576020600354604051908152f35b3461019a57604036600319011261019a5761080e6110fd565b610816611113565b6001600160a01b039182165f908152600960209081526040808320949093168252928352819020549051908152f35b3461019a575f36600319011261019a575f546040516001600160a01b039091168152602090f35b3461019a57602036600319011261019a576001600160a01b0361088d6110fd565b165f526007602052602060ff60405f2054166040519015158152f35b3461019a575f36600319011261019a576020600454604051908152f35b3461019a575f36600319011261019a57600154336001600160a01b039091160361093857600180546001600160a01b03199081169091555f805433928116831782556001600160a01b0316907f8be0079c531659141344cd1fd0a4f28419497f9722a3daafe3b4186f6b6457e09080a3005b63118cdaa760e01b5f523360045260245ffd5b3461019a575f36600319011261019a576020600854604051908152f35b3461019a57602036600319011261019a576109816110fd565b610989611223565b6001600160a01b03165f8181526007602052604090205460ff1615610acc575f818152600760205260408120805460ff191690555b6008549081811015610ac557826109d482611129565b905460039190911b1c6001600160a01b0316146109f55760019150016109be565b5f198201918211610ab157610a27610a0f610a4b93611129565b905460039190911b1c6001600160a01b031691611129565b81546001600160a01b0393841660039290921b91821b9390911b1916919091179055565b6008548015610a9d575f1901610a6081611129565b81549060018060a01b039060031b1b191690556008555b7fb02d270f645215800cec778b856004c753ad0c8c6ca520a91a8399acf4c63d4b5f80a2005b634e487b7160e01b5f52603160045260245ffd5b634e487b7160e01b5f52601160045260245ffd5b5050610a77565b60405162461bcd60e51b815260206004820152600e60248201526d139bdd081c9959da5cdd195c995960921b6044820152606490fd5b3461019a575f36600319011261019a57610b1a611223565b600180546001600160a01b03199081169091555f80549182168155906001600160a01b03167f8be0079c531659141344cd1fd0a4f28419497f9722a3daafe3b4186f6b6457e08280a3005b3461019a575f36600319011261019a57602060405160148152f35b3461019a57602036600319011261019a57600435610b9c611223565b7f5953b565c074c2cce1866b4e69c9efc4908556bb6fca70f735907c94d940551560406006548151908152836020820152a1600655005b3461019a575f36600319011261019a576020600554604051908152f35b3461019a57602036600319011261019a57602460206001600160a01b03610c156110fd565b16604051928380926370a0823160e01b82523060048301525afa801561048c575f90610c47575b602090604051908152f35b506020813d602011610c72575b81610c6160209383611155565b8101031261019a5760209051610c3c565b3d9150610c54565b3461019a575f36600319011261019a576002546040516001600160a01b039091168152602090f35b3461019a57602036600319011261019a576001600160a01b03610cc36110fd565b16805f52600760205260ff60405f20541615610f345760025460035460405163ba03e20560e01b8152336004820152602481019190915290602090829060449082906001600160a01b03165afa801561048c57610d26915f91610f15575061118f565b335f52600960205260405f20815f52602052610d4960405f2054600654906111ca565b4210610ede576040516370a0823160e01b8152306004820152602081602481855afa90811561048c575f91610eac575b50600454809110610e6757610da490335f52600a60205260405f20835f5260205260405f20546111ca565b60055410610e2957335f52600960205260405f20815f5260205260405f20429055600454335f52600a60205260405f20825f52602052610de960405f209182546111ca565b9055610df86004543383611236565b6004546040519081527ff7a40077ff7a04c7e61f6f26fb13774259ddf1b6bce9ecf26a8276cdd399268360203392a3005b60405162461bcd60e51b815260206004820152601660248201527513585e081c195c881dd85b1b195d081c995858da195960521b6044820152606490fd5b60405162461bcd60e51b815260206004820152601b60248201527f496e73756666696369656e74206661756365742062616c616e636500000000006044820152606490fd5b90506020813d602011610ed6575b81610ec760209383611155565b8101031261019a575182610d79565b3d9150610eba565b60405162461bcd60e51b815260206004820152600f60248201526e436f6f6c646f776e2061637469766560881b6044820152606490fd5b610f2e915060203d6020116104c8576104ba8183611155565b836102e3565b60405162461bcd60e51b8152602060048201526014602482015273151bdad95b881b9bdd081c9959da5cdd195c995960621b6044820152606490fd5b3461019a57602036600319011261019a57610f896110fd565b610f91611223565b6001600160a01b0381169081156110ae57815f52600760205260ff60405f205416611074576014600854101561103a57815f52600760205260405f20600160ff19825416179055600854906801000000000000000082101561102657610a278260016110009401600855611129565b7f158412daecdc1456d01568828bcdb18464cc7f1ce0215ddbc3f3cfede9d1e63d5f80a2005b634e487b7160e01b5f52604160045260245ffd5b60405162461bcd60e51b815260206004820152601260248201527113585e081d1bdad95b9cc81c995858da195960721b6044820152606490fd5b60405162461bcd60e51b8152602060048201526012602482015271105b1c9958591e481c9959da5cdd195c995960721b6044820152606490fd5b60405162461bcd60e51b815260206004820152600d60248201526c24b73b30b634b2103a37b5b2b760991b6044820152606490fd5b3461019a575f36600319011261019a576020906006548152f35b600435906001600160a01b038216820361019a57565b602435906001600160a01b038216820361019a57565b6008548110156111415760085f5260205f2001905f90565b634e487b7160e01b5f52603260045260245ffd5b90601f8019910116810190811067ffffffffffffffff82111761102657604052565b9081602091031261019a5751801515810361019a5790565b1561119657565b60405162461bcd60e51b815260206004820152600c60248201526b139bdd081d995c9a599a595960a21b6044820152606490fd5b91908201809211610ab157565b60018060a01b03165f52600960205260405f209060018060a01b03165f5260205261120960405f2054600654906111ca565b8042101561121e57428103908111610ab15790565b505f90565b5f546001600160a01b0316330361093857565b916040519163a9059cbb60e01b5f5260018060a01b031660045260245260205f60448180865af19060015f5114821615611296575b604052156112765750565b635274afe760e01b5f9081526001600160a01b0391909116600452602490fd5b9060018115166112ae57823b15153d1516169061126b565b503d5f823e3d90fdfea26469706673582212205117cc77df74822da980353a6e4b0aea5808e3aa3e646807a2e7ce020f3de6a164736f6c634300081c0033000000000000000000000000b2dec3394a51da95b0d78c7d081c41a4dcee10eed99b42e778498aa3c9c1f6a012359130252780511687a35982e8e52735453034",
        "nonce": "0x16b",
        "chainId": "0x164ce"
      },
      "additionalContracts": [],
      "isFixedGasLimit": false
    },
    {
      "hash": "0xbc4857305c8ac5cb925110a6a9fa9d5ce78c76eaa33cdb0cb7db456127069420",
      "transactionType": "CREATE",
      "contractName": "GiwaSwap",
      "contractAddress": "0x176a8a769a7c03e2140b7fb47c6d664af977b64c",
      "function": null,
      "arguments": [
        "0xB2dec3394a51DA95B0D78c7d081C41A4DCEE10Ee",
        "0xd99b42e778498aa3c9c1f6a012359130252780511687a35982e8e52735453034"
      ],
      "transaction": {
        "from": "0x84c29fb8b41f229ad09f4d68f84d676a28dc4a3a",
        "to": null,
        "gas": "0x170ce9",
        "value": "0x0",
        "input": "0x60803461012557601f6113e638819003918201601f19168301916001600160401b038311848410176101295780849260409485528339810103126101255780516001600160a01b0381169190829003610125576020015190331561011257600180546001600160a01b03199081169091555f8054339281168317825560405192916001600160a01b03909116907f8be0079c531659141344cd1fd0a4f28419497f9722a3daafe3b4186f6b6457e09080a381156100dd5750600280546001600160a01b0319169190911790556003556040516112a8908161013e8239f35b62461bcd60e51b815260206004820152601060248201526f24b73b30b634b2103b32b934b334b2b960811b6044820152606490fd5b631e4fbdf760e01b5f525f60045260245ffd5b5f80fd5b634e487b7160e01b5f52604160045260245ffdfe6080806040526004361015610012575f80fd5b5f3560e01c908162bbf1e414610b2e575080632b7ac3f314610b065780633ee7f9d3146109a457806341cd47bf146109895780634aa06652146109685780635e07a09914610947578063715018a6146108e457806379ba50971461085f5780637a950f99146104495780638da5cb5b146104225780639238945314610405578063b6466384146103de578063cf6c62ea146101dd578063d52bb6f41461018b578063d73792a91461016f578063e30c3978146101475763f2fde38b146100d6575f80fd5b34610143576020366003190112610143576100ef610b79565b6100f7611100565b60018060a01b0316806001600160601b0360a01b600154161760015560018060a01b035f54167f38d16b8cac22d99fc7c124b9cd0de2d3fa1faef420bfe791d8c362d765e227005f80a3005b5f80fd5b34610143575f366003190112610143576001546040516001600160a01b039091168152602090f35b34610143575f3660031901126101435760206040516103e88152f35b34610143576040366003190112610143576101b56101a7610b79565b6101af610b8f565b9061112c565b5f5260046020526040805f20546001600160701b03825191818116835260701c166020820152f35b34610143577f36f3b2e1a21c19137dd82ec243b0708a1d26b3d1fa1dc49c44c4c366a5878138604061020e36610ba5565b61021c959395949294611100565b6001600160a01b0385811696908116956103ad919061028a90610241898b1415610c1d565b851515806103d5575b61025390610c56565b6102666001600160701b03871115610c90565b6102796001600160701b03861115610ccf565b6102838184611113565b509261112c565b906102978530338b611209565b6102a38430338c611209565b6001600160a01b031687036103ba576001600160701b038416906001600160701b038416915b815f5260046020526102f56001600160701b036102ee818a5f20541682851690610ddb565b1115610ff3565b815f5260046020526103246001600160701b0361031d818a5f205460701c1682871690610ddb565b1115610f93565b815f5260046020526001600160701b03610344885f209282845416610fd3565b166001600160701b03198254161790555f526004602052610375855f20916001600160701b03835460701c16610fd3565b9080546dffffffffffffffffffffffffffff60701b191660709290921b6dffffffffffffffffffffffffffff60701b16919091179055565b82519182526020820152a3005b6001600160701b038316906001600160701b038516916102c9565b5084151561024a565b346101435760406103f76103f136610be3565b91611033565b825191825215156020820152f35b34610143575f366003190112610143576020600354604051908152f35b34610143575f366003190112610143575f546040516001600160a01b039091168152602090f35b346101435760a036600319011261014357610462610b79565b61046a610b8f565b906044356064356084354211610830576001600160a01b03848116949084169361049685871415610c1d565b6104a1841515610c56565b60018060a01b0360025416602060035460446040518094819363ba03e20560e01b835233600484015260248301525afa908115610780575f916107f5575b50156107c1576104fb836104f4868585610e06565b1015610f47565b6105058282611113565b5090610511838261112c565b92604051956370a0823160e01b87523060048801526020876024818b5afa968715610780575f9761078b575b5061054a9030338a611209565b6040516370a0823160e01b8152306004820152956020876024818b5afa968715610780575f9761074c575b508603958611610738578561058d9161059693610e06565b93841015610f47565b6001600160a01b0316840361068b57805f5260046020526105c86001600160701b036102ee858260405f205416610ddb565b805f5260046020526105ec826001600160701b0360405f205460701c161015610d4f565b805f52600460205260405f206001600160701b0361060f81861682845416610fd3565b166001600160701b03198254161790555f52600460205261064d60405f206103756001600160701b0384166001600160701b03835460701c16610d90565b610658813386611188565b60405191825260208201527fcd3829a3813dc3cdd188fd3d01dcf3268c16be2fdd2dd21d0665418816e4606260403392a4005b805f5260046020526106b16001600160701b0361031d858260405f205460701c16610ddb565b805f5260046020526106d2826001600160701b0360405f2054161015610d0e565b805f52600460205261070160405f206103756001600160701b0386166001600160701b03835460701c16610fd3565b5f52600460205260405f206001600160701b0361072381841682845416610d90565b166001600160701b031982541617905561064d565b634e487b7160e01b5f52601160045260245ffd5b9096506020813d602011610778575b8161076860209383610f11565b8101031261014357519589610575565b3d915061075b565b6040513d5f823e3d90fd5b9096506020813d6020116107b9575b816107a760209383610f11565b8101031261014357519561054a61053d565b3d915061079a565b60405162461bcd60e51b815260206004820152600c60248201526b139bdd081d995c9a599a595960a21b6044820152606490fd5b90506020813d602011610828575b8161081060209383610f11565b810103126101435751801515810361014357876104df565b3d9150610803565b60405162461bcd60e51b8152602060048201526007602482015266115e1c1a5c995960ca1b6044820152606490fd5b34610143575f36600319011261014357600154336001600160a01b03909116036108d157600180546001600160a01b03199081169091555f805433928116831782556001600160a01b0316907f8be0079c531659141344cd1fd0a4f28419497f9722a3daafe3b4186f6b6457e09080a3005b63118cdaa760e01b5f523360045260245ffd5b34610143575f366003190112610143576108fc611100565b600180546001600160a01b03199081169091555f80549182168155906001600160a01b03167f8be0079c531659141344cd1fd0a4f28419497f9722a3daafe3b4186f6b6457e08280a3005b34610143575f3660031901126101435760206040516001600160701b038152f35b3461014357602061098161097b36610be3565b91610e06565b604051908152f35b34610143575f36600319011261014357602060405160038152f35b34610143577f3b5c196aff80bb96c03b41c96906b66827014de931d1b36e0ede6ee8caeb4bf960406109d536610ba5565b6109e3959395949294611100565b6001600160a01b038581169690811695610ad59190610a0890610241898b1415610c1d565b906001600160a01b03168703610aeb576001600160701b038416906001600160701b038416915b815f526004602052610a586001600160701b03885f2054166001600160701b0383161115610d0e565b815f526004602052610a846001600160701b03885f205460701c166001600160701b0385161115610d4f565b815f5260046020526001600160701b03610aa4885f209282845416610d90565b166001600160701b03198254161790555f526004602052610375855f20916001600160701b03835460701c16610d90565b610ae0823387611188565b6103ad813388611188565b6001600160701b038316906001600160701b03851691610a2f565b34610143575f366003190112610143576002546040516001600160a01b039091168152602090f35b34610143576020366003190112610143576060906004355f52600460205260405f20546001600160701b03811682526001600160701b038160701c16602083015260e01c6040820152f35b600435906001600160a01b038216820361014357565b602435906001600160a01b038216820361014357565b6080906003190112610143576004356001600160a01b038116810361014357906024356001600160a01b038116810361014357906044359060643590565b6060906003190112610143576004356001600160a01b038116810361014357906024356001600160a01b0381168103610143579060443590565b15610c2457565b60405162461bcd60e51b815260206004820152600a60248201526929b0b6b2903a37b5b2b760b11b6044820152606490fd5b15610c5d57565b60405162461bcd60e51b815260206004820152600b60248201526a16995c9bc8185b5bdd5b9d60aa1b6044820152606490fd5b15610c9757565b60405162461bcd60e51b815260206004820152601060248201526f616d6f756e7441206f766572666c6f7760801b6044820152606490fd5b15610cd657565b60405162461bcd60e51b815260206004820152601060248201526f616d6f756e7442206f766572666c6f7760801b6044820152606490fd5b15610d1557565b60405162461bcd60e51b8152602060048201526012602482015271726573657276653020756e646572666c6f7760701b6044820152606490fd5b15610d5657565b60405162461bcd60e51b8152602060048201526012602482015271726573657276653120756e646572666c6f7760701b6044820152606490fd5b906001600160701b03809116911603906001600160701b03821161073857565b906103e58202918083046103e5149015171561073857565b8181029291811591840414171561073857565b9190820180921161073857565b8115610df2570490565b634e487b7160e01b5f52601260045260245ffd5b906001600160a01b0380831691610e4191610e25908216841415610c1d565b610e30851515610c56565b610e3a8185611113565b509361112c565b5f908152600460205260409020916001600160a01b031603610efa5754906001600160701b038083169260701c16915b801591821580610ef1575b15610ebd57610e8d610e9491610db0565b9384610dc8565b916103e882029182046103e814171561073857610eba92610eb491610ddb565b90610de8565b90565b60405162461bcd60e51b815260206004820152600c60248201526b4e6f206c697175696469747960a01b6044820152606490fd5b50831515610e7c565b546001600160701b03808216929160701c16610e71565b90601f8019910116810190811067ffffffffffffffff821117610f3357604052565b634e487b7160e01b5f52604160045260245ffd5b15610f4e57565b60405162461bcd60e51b815260206004820152601a60248201527f496e73756666696369656e74206f757470757420616d6f756e740000000000006044820152606490fd5b15610f9a57565b60405162461bcd60e51b81526020600482015260116024820152707265736572766531206f766572666c6f7760781b6044820152606490fd5b906001600160701b03809116911601906001600160701b03821161073857565b15610ffa57565b60405162461bcd60e51b81526020600482015260116024820152707265736572766530206f766572666c6f7760781b6044820152606490fd5b906001600160a01b0380831691908116821480156110f8575b6110cf5780610e3a61105e9285611113565b5f908152600460205260409020916001600160a01b0316036110e15754906001600160701b038083169260701c16915b8015918280156110d9575b6110cf57610e8d6110a991610db0565b916103e882029182046103e8141715610738576110c992610eb491610ddb565b90600190565b505050505f905f90565b508315611099565b546001600160701b03808216929160701c1661108e565b50831561104c565b5f546001600160a01b031633036108d157565b91906001600160a01b0380821690841610610eba579190565b6001600160a01b03828116908216101561118357905b6040519060208201926001600160601b03199060601b1683526001600160601b03199060601b1660348201526028815261117d604882610f11565b51902090565b611142565b916040519163a9059cbb60e01b5f5260018060a01b031660045260245260205f60448180865af19060015f51148216156111e8575b604052156111c85750565b635274afe760e01b5f9081526001600160a01b0391909116600452602490fd5b90600181151661120057823b15153d151616906111bd565b503d5f823e3d90fd5b6040516323b872dd60e01b5f9081526001600160a01b039384166004529290931660245260449390935260209060648180865af19060015f511482161561125a575b6040525f606052156111c85750565b90600181151661120057823b15153d1516169061124b56fea2646970667358221220e4f4bd8f4cfcd3ad9c3ecba79712d0d4a6994183fc646ad7c31c71f9d52ec78064736f6c634300081c0033000000000000000000000000b2dec3394a51da95b0d78c7d081c41a4dcee10eed99b42e778498aa3c9c1f6a012359130252780511687a35982e8e52735453034",
        "nonce": "0x16c",
        "chainId": "0x164ce"
      },
      "additionalContracts": [],
      "isFixedGasLimit": false
    },
    {
      "hash": "0x96f79dd26ce46e5fb500c901ec95861538b9f7c7fb9f01ba4cd304410d9114e9",
      "transactionType": "CREATE",
      "contractName": "GiwaVote",
      "contractAddress": "0xb981d048db34dfdc3064377c9a95f5a3995f7616",
      "function": null,
      "arguments": [
        "0xB2dec3394a51DA95B0D78c7d081C41A4DCEE10Ee",
        "0xd99b42e778498aa3c9c1f6a012359130252780511687a35982e8e52735453034"
      ],
      "transaction": {
        "from": "0x84c29fb8b41f229ad09f4d68f84d676a28dc4a3a",
        "to": null,
        "gas": "0x1c6d08",
        "value": "0x0",
        "input": "0x60803461014e57601f61182538819003918201601f19168301916001600160401b0383118484101761015257808492604094855283398101031261014e5780516001600160a01b038116919082900361014e576020015190331561013b57600180546001600160a01b03199081169091555f8054339281168317825560405192916001600160a01b03909116907f8be0079c531659141344cd1fd0a4f28419497f9722a3daafe3b4186f6b6457e09080a360017f9b779b17422d0df92223018b32b4d1fa46e071723d6817e2486d003becc55f0055600360065581156101065750600280546001600160a01b0319169190911790556003556040516116be90816101678239f35b62461bcd60e51b815260206004820152601060248201526f24b73b30b634b2103b32b934b334b2b960811b6044820152606490fd5b631e4fbdf760e01b5f525f60045260245ffd5b5f80fd5b634e487b7160e01b5f52604160045260245ffdfe60806040526004361015610011575f80fd5b5f5f3560e01c8063013cf08b1461102f57806309be028214610fec57806327ab7ff414610fca5780632b7ac3f314610fa25780633bf74da714610f7a5780634385963214610e30578063563909de14610f275780635c622a0e14610efe5780635e3b436514610e79578063600303d814610e3057806365e481e2146109ee578063715018a61461098b57806379ba5097146109065780637de418d5146108e95780638da5cb5b146108c257806391d768de1461089a578063923894531461087d578063b24aaebc146107c4578063b5a127e5146107a7578063c7f758a8146106be578063c9d27afe14610272578063da35c66414610254578063e30c39781461022b578063f2fde38b146101be578063fbccbdc81461017f5763ff967e2e14610138575f80fd5b3461017c57602036600319011261017c57610151611235565b610159611675565b60018060a01b03166bffffffffffffffffffffffff60a01b600454161760045580f35b80fd5b503461017c57602036600319011261017c5760209060ff906040906001600160a01b036101aa611235565b168152600b84522054166040519015158152f35b503461017c57602036600319011261017c576101d8611235565b6101e0611675565b600180546001600160a01b0319166001600160a01b0392831690811790915582549091167f38d16b8cac22d99fc7c124b9cd0de2d3fa1faef420bfe791d8c362d765e227008380a380f35b503461017c578060031936011261017c576001546040516001600160a01b039091168152602090f35b503461017c578060031936011261017c576020600754604051908152f35b50346105495760403660031901126105495760043560243590811515918281036105495760018060a01b0360025416602060035460446040518094819363ba03e20560e01b835233600484015260248301525afa90811561053e575f91610683575b501561064f5760027f9b779b17422d0df92223018b32b4d1fa46e071723d6817e2486d003becc55f0054146106405760027f9b779b17422d0df92223018b32b4d1fa46e071723d6817e2486d003becc55f0055815f52600960205260405f2090600582015442101561060c575f838152600a6020908152604080832033845290915290205460ff166105d75761036c82541515611634565b5f838152600a602090815260408083203384529091529020805460ff19166001179055156105c3576006016103a181546115e0565b90555b6103af6008546115e0565b600855335f52600b60205260ff60405f20541615806105af575b1561057f57335f52600b60205260405f20600160ff198254161790555f602060018060a01b03600454166024604051809481936308686fcb60e21b83523360048401525af190811561053e575f9161054d575b506040519081527fc5e5b314108c1f776c2302351b8278910ddb812b122b2717b1bc973146145e9a60203392a25b6005546001600160a01b0316806104b0575b506040519182527ff2913dbe661ee2acc4a046d8fbcdc792373bda34c41c6086484b5345e5785e5f60203393a360017f9b779b17422d0df92223018b32b4d1fa46e071723d6817e2486d003becc55f005580f35b803b15610549575f80916044604051809481936340c10f1960e01b8352336004840152678ac7230489e8000060248401525af1801561053e57610529575b50604051678ac7230489e8000081527fed3ce637c8ccb5e2b22a02f352b00227ea301de0dcdd53461af277e5a93d2ea860203392a25f61045c565b6105369193505f9061114f565b5f915f6104ee565b6040513d5f823e3d90fd5b5f80fd5b90506020813d602011610577575b816105686020938361114f565b8101031261054957515f61041c565b3d915061055b565b335f52600b60205260ff60405f20541661044a57335f52600b60205260405f20600160ff1982541617905561044a565b506004546001600160a01b031615156103c9565b6007016105d081546115e0565b90556103a4565b60405162461bcd60e51b815260206004820152600d60248201526c105b1c9958591e481d9bdd1959609a1b6044820152606490fd5b60405162461bcd60e51b815260206004820152600c60248201526b159bdd1a5b99c8195b99195960a21b6044820152606490fd5b633ee5aeb560e01b5f5260045ffd5b60405162461bcd60e51b815260206004820152600c60248201526b139bdd081d995c9a599a595960a21b6044820152606490fd5b90506020813d6020116106b6575b8161069e6020938361114f565b8101031261054957518015158103610549575f6102d4565b3d9150610691565b34610549576020366003190112610549576004356106da6113e3565b508015158061079b575b6106ed90611319565b5f52600960205261079760405f2060096040519161070a83611132565b8054835260018101546001600160a01b0316602084015261072d60028201611171565b604084015261073e60038201611171565b606084015260048101546080840152600581015460a0840152600681015460c0840152600781015460e084015260ff60088201541615156101008401520154610120820152604051918291602083526020830190611261565b0390f35b506007548111156106e4565b34610549575f366003190112610549576020600654604051908152f35b34610549576020366003190112610549576004356107e0611675565b805f52600960205260405f206107f881541515611634565b60088101805460ff81166108425760019060ff19161790556009429101557f022c5894f70637e46c49debc0376ce8c5fa29222787feeaa2e9af248617325fe6020604051428152a2005b60405162461bcd60e51b8152602060048201526013602482015272105b1c9958591e481a5b5c1b195b595b9d1959606a1b6044820152606490fd5b34610549575f366003190112610549576020600354604051908152f35b34610549575f366003190112610549576004546040516001600160a01b039091168152602090f35b34610549575f366003190112610549575f546040516001600160a01b039091168152602090f35b34610549575f366003190112610549576020600854604051908152f35b34610549575f36600319011261054957600154336001600160a01b039091160361097857600180546001600160a01b03199081169091555f805433928116831782556001600160a01b0316907f8be0079c531659141344cd1fd0a4f28419497f9722a3daafe3b4186f6b6457e09080a3005b63118cdaa760e01b5f523360045260245ffd5b34610549575f366003190112610549576109a3611675565b600180546001600160a01b03199081169091555f80549182168155906001600160a01b03167f8be0079c531659141344cd1fd0a4f28419497f9722a3daafe3b4186f6b6457e08280a3005b346105495760403660031901126105495760043567ffffffffffffffff811161054957610a1f9036906004016112eb565b60243567ffffffffffffffff811161054957610a3f9036906004016112eb565b610a4a939193611675565b8215610dfd57610a5b6007546115e0565b8060075562278d00420194854211610c5b5760405192610a7a84611132565b828452610aa26020850192338452610a933689896115ee565b926040870193845236916115ee565b9660608501978852608085019042825260a0860190815260c08601915f835260e08701935f85526101008801955f87526101208901975f89525f52600960205260405f2098518955600189019060018060a01b039051166bffffffffffffffffffffffff60a01b82541617905560028801905180519067ffffffffffffffff8211610d2b578190610b3384546110fa565b601f8111610dad575b50602090601f8311600114610d4a575f92610d3f575b50508160011b915f199060031b1c19161790555b600387019951998a5167ffffffffffffffff8111610d2b57610b8882546110fa565b601f8111610ce6575b506020601f8211600114610c7a57819060099a9b9c9d5f92610c6f575b50508160011b915f199060031b1c19161790555b516004880155516005870155516006860155516007850155600884019051151560ff8019835416911617905551910155600754906213c680420190814211610c5b577f98120a6aaa04295520ab4e01c6c1235dd316e822cc9ff31db7b3f197366d18bd9184604051926040845281604085015260608401375f6060868401015260208201526060813395601f80199101168101030190a3005b634e487b7160e01b5f52601160045260245ffd5b015190508d80610bae565b601f1982169c835f52815f209d5f5b818110610cc957509160099b9c9d9e91846001959410610cb1575b505050811b019055610bc2565b01515f1960f88460031b161c191690558d8080610ca4565b919e8f60016020928684930151815501940192019e91929e610c89565b825f5260205f20601f830160051c81019160208410610d21575b601f0160051c01905b818110610d165750610b91565b5f8155600101610d09565b9091508190610d00565b634e487b7160e01b5f52604160045260245ffd5b015190508d80610b52565b5f8581528281209350601f198516905b818110610d955750908460019594939210610d7d575b505050811b019055610b66565b01515f1960f88460031b161c191690558d8080610d70565b92936020600181928786015181550195019301610d5a565b909150835f5260205f20601f840160051c81019160208510610df3575b90601f859493920160051c01905b818110610de55750610b3c565b5f8155849350600101610dd8565b9091508190610dca565b60405162461bcd60e51b815260206004820152600b60248201526a456d707479207469746c6560a81b6044820152606490fd5b3461054957604036600319011261054957610e4961124b565b6004355f52600a60205260405f209060018060a01b03165f52602052602060ff60405f2054166040519015158152f35b3461054957604036600319011261054957610e98602435600435611456565b6040518091602082016020835281518091526040830190602060408260051b8601019301915f905b828210610ecf57505050500390f35b91936001919395506020610eee8192603f198a82030186528851611261565b9601920192018594939192610ec0565b34610549576020366003190112610549576020610f1c60043561135f565b60ff60405191168152f35b3461054957602036600319011261054957600435610f43611675565b7f8b88443925117e84ad5b78abe71890798de37f3623a2d8ad97bfb59baf4242e060406006548151908152836020820152a1600655005b34610549575f366003190112610549576005546040516001600160a01b039091168152602090f35b34610549575f366003190112610549576002546040516001600160a01b039091168152602090f35b34610549575f366003190112610549576020604051678ac7230489e800008152f35b3461054957602036600319011261054957611005611235565b61100d611675565b600580546001600160a01b0319166001600160a01b0392909216919091179055005b34610549576020366003190112610549576004355f908152600960205260409020805460018201546001600160a01b03169161106d60028201611171565b61107960038301611171565b9160048101549260058201546006830154906110d36007850154936110c5600960ff600889015416970154976040519b8c9b8c5260208c015261014060408c01526101408b0190611211565b9089820360608b0152611211565b95608088015260a087015260c086015260e085015215156101008401526101208301520390f35b90600182811c92168015611128575b602083101461111457565b634e487b7160e01b5f52602260045260245ffd5b91607f1691611109565b610140810190811067ffffffffffffffff821117610d2b57604052565b90601f8019910116810190811067ffffffffffffffff821117610d2b57604052565b9060405191825f825492611184846110fa565b80845293600181169081156111ef57506001146111ab575b506111a99250038361114f565b565b90505f9291925260205f20905f915b8183106111d35750509060206111a9928201015f61119c565b60209193508060019154838589010152019101909184926111ba565b9050602092506111a994915060ff191682840152151560051b8201015f61119c565b805180835260209291819084018484015e5f828201840152601f01601f1916010190565b600435906001600160a01b038216820361054957565b602435906001600160a01b038216820361054957565b908151815260018060a01b036020830151166020820152610120806112ac61129a60408601516101406040870152610140860190611211565b60608601518582036060870152611211565b936080810151608085015260a081015160a085015260c081015160c085015260e081015160e08501526101008101511515610100850152015191015290565b9181601f840112156105495782359167ffffffffffffffff8311610549576020838186019501011161054957565b1561132057565b60405162461bcd60e51b815260206004820152600a602482015269125b9d985b1a59081a5960b21b6044820152606490fd5b91908201809211610c5b57565b801515806113bf575b61137190611319565b5f52600960205260405f20600581015442106113ba57600760068201549101549061139c8282611352565b600654116113b357116113ae57600290565b600190565b5050600390565b505f90565b50600754811115611368565b67ffffffffffffffff8111610d2b5760051b60200190565b604051906113f082611132565b5f61012083828152826020820152606060408201526060808201528260808201528260a08201528260c08201528260e0820152826101008201520152565b80518210156114425760209160051b010190565b634e487b7160e01b5f52603260045260245ffd5b9060075490818310156115a65761146d9083611352565b9080821161159e575b50818103908111610c5b5761148a816113cb565b91611498604051938461114f565b818352601f196114a7836113cb565b015f5b8181106115875750505f5b8281106114c25750505090565b6114cc8183611352565b9060018201809211610c5b576001915f52600960205260405f206009604051916114f583611132565b80548352848060a01b038582015416602084015261151560028201611171565b604084015261152660038201611171565b606084015260048101546080840152600581015460a0840152600681015460c0840152600781015460e084015260ff60088201541615156101008401520154610120820152611575828761142e565b52611580818661142e565b50016114b5565b6020906115926113e3565b828288010152016114aa565b90505f611476565b5050506040516115b760208261114f565b5f81525f805b8181106115c957505090565b6020906115d46113e3565b828286010152016115bd565b5f198114610c5b5760010190565b92919267ffffffffffffffff8211610d2b5760405191611618601f8201601f19166020018461114f565b829481845281830111610549578281602093845f960137010152565b1561163b57565b60405162461bcd60e51b8152602060048201526012602482015271141c9bdc1bdcd85b081b9bdd08199bdd5b9960721b6044820152606490fd5b5f546001600160a01b031633036109785756fea2646970667358221220aa4a7fc0f9f732bb8dbbbebba29d39db49a04ebe3f245968f3bb696abc636ce264736f6c634300081c0033000000000000000000000000b2dec3394a51da95b0d78c7d081c41a4dcee10eed99b42e778498aa3c9c1f6a012359130252780511687a35982e8e52735453034",
        "nonce": "0x16d",
        "chainId": "0x164ce"
      },
      "additionalContracts": [],
      "isFixedGasLimit": false
    },
    {
      "hash": "0xcda6e60f6e0d1a19a7ae6a5dc69fee8b992c82399308da867b19a503fe8519d4",
      "transactionType": "CALL",
      "contractName": "GiwaFaucet",
      "contractAddress": "0x4e33aecec539b6c412145a5178693b0c867caa19",
      "function": "registerToken(address)",
      "arguments": [
        "0x9F03e390725216E38dBcb9106B4A6ec2611da7b2"
      ],
      "transaction": {
        "from": "0x84c29fb8b41f229ad09f4d68f84d676a28dc4a3a",
        "to": "0x4e33aecec539b6c412145a5178693b0c867caa19",
        "gas": "0x1f098",
        "value": "0x0",
        "input": "0x09824a800000000000000000000000009f03e390725216e38dbcb9106b4a6ec2611da7b2",
        "nonce": "0x16e",
        "chainId": "0x164ce"
      },
      "additionalContracts": [],
      "isFixedGasLimit": false
    },
    {
      "hash": "0x5a1ced68cda360dcd9fd662b4aac79eca58e6b462ede01436d4abcdafac91f95",
      "transactionType": "CALL",
      "contractName": "GiwaFaucet",
      "contractAddress": "0x4e33aecec539b6c412145a5178693b0c867caa19",
      "function": "registerToken(address)",
      "arguments": [
        "0x1EE1c3516eB72B79f2d6BE419Bf4fFAd6088225e"
      ],
      "transaction": {
        "from": "0x84c29fb8b41f229ad09f4d68f84d676a28dc4a3a",
        "to": "0x4e33aecec539b6c412145a5178693b0c867caa19",
        "gas": "0x1ac1d",
        "value": "0x0",
        "input": "0x09824a800000000000000000000000001ee1c3516eb72b79f2d6be419bf4ffad6088225e",
        "nonce": "0x16f",
        "chainId": "0x164ce"
      },
      "additionalContracts": [],
      "isFixedGasLimit": false
    },
    {
      "hash": "0x5ce078c556638e2229a496ff3019f0f0c4535738904de07567ab91c99a7f3012",
      "transactionType": "CALL",
      "contractName": "GiwaFaucet",
      "contractAddress": "0x4e33aecec539b6c412145a5178693b0c867caa19",
      "function": "registerToken(address)",
      "arguments": [
        "0xdBFe78649585CF656D99f73A036093ca4DCF9ada"
      ],
      "transaction": {
        "from": "0x84c29fb8b41f229ad09f4d68f84d676a28dc4a3a",
        "to": "0x4e33aecec539b6c412145a5178693b0c867caa19",
        "gas": "0x1ac1d",
        "value": "0x0",
        "input": "0x09824a80000000000000000000000000dbfe78649585cf656d99f73a036093ca4dcf9ada",
        "nonce": "0x170",
        "chainId": "0x164ce"
      },
      "additionalContracts": [],
      "isFixedGasLimit": false
    },
    {
      "hash": "0x142e0e6c5503eb2ad1c8c062d46f6468322d22db90d914bbd7add504d557fb34",
      "transactionType": "CALL",
      "contractName": "GiwaFaucet",
      "contractAddress": "0x4e33aecec539b6c412145a5178693b0c867caa19",
      "function": "registerToken(address)",
      "arguments": [
        "0x40405F98E2a646ebBFb5ab55806a0a118E04a286"
      ],
      "transaction": {
        "from": "0x84c29fb8b41f229ad09f4d68f84d676a28dc4a3a",
        "to": "0x4e33aecec539b6c412145a5178693b0c867caa19",
        "gas": "0x1ac1d",
        "value": "0x0",
        "input": "0x09824a8000000000000000000000000040405f98e2a646ebbfb5ab55806a0a118e04a286",
        "nonce": "0x171",
        "chainId": "0x164ce"
      },
      "additionalContracts": [],
      "isFixedGasLimit": false
    },
    {
      "hash": "0xf1f67c1b6250f9b1e1aa8e8896c193745b0126382eea2a450568bdb7090a7136",
      "transactionType": "CALL",
      "contractName": "GiwaFaucet",
      "contractAddress": "0x4e33aecec539b6c412145a5178693b0c867caa19",
      "function": "registerToken(address)",
      "arguments": [
        "0x48CaFE7eB73330E07B9dF0C61D4012aD0aD2c813"
      ],
      "transaction": {
        "from": "0x84c29fb8b41f229ad09f4d68f84d676a28dc4a3a",
        "to": "0x4e33aecec539b6c412145a5178693b0c867caa19",
        "gas": "0x1ac1d",
        "value": "0x0",
        "input": "0x09824a8000000000000000000000000048cafe7eb73330e07b9df0c61d4012ad0ad2c813",
        "nonce": "0x172",
        "chainId": "0x164ce"
      },
      "additionalContracts": [],
      "isFixedGasLimit": false
    },
    {
      "hash": "0x46bd5e39e6fb6c52ad4e095647df6317c221aabdfd1b8a7e020b01dc2177fbd9",
      "transactionType": "CALL",
      "contractName": null,
      "contractAddress": "0x9f03e390725216e38dbcb9106b4a6ec2611da7b2",
      "function": "mint(address,uint256)",
      "arguments": [
        "0x84C29FB8b41F229aD09F4d68f84D676A28Dc4a3a",
        "900100000000000000000000"
      ],
      "transaction": {
        "from": "0x84c29fb8b41f229ad09f4d68f84d676a28dc4a3a",
        "to": "0x9f03e390725216e38dbcb9106b4a6ec2611da7b2",
        "gas": "0xce51",
        "value": "0x0",
        "input": "0x40c10f1900000000000000000000000084c29fb8b41f229ad09f4d68f84d676a28dc4a3a00000000000000000000000000000000000000000000be9a84ce49d00d900000",
        "nonce": "0x173",
        "chainId": "0x164ce"
      },
      "additionalContracts": [],
      "isFixedGasLimit": false
    },
    {
      "hash": "0x5242c94a86830ebcb61589de778f5286e963e6e6fc9a307c318befe791604638",
      "transactionType": "CALL",
      "contractName": null,
      "contractAddress": "0x1ee1c3516eb72b79f2d6be419bf4ffad6088225e",
      "function": "mint(address,uint256)",
      "arguments": [
        "0x84C29FB8b41F229aD09F4d68f84D676A28Dc4a3a",
        "900100000000000000000000"
      ],
      "transaction": {
        "from": "0x84c29fb8b41f229ad09f4d68f84d676a28dc4a3a",
        "to": "0x1ee1c3516eb72b79f2d6be419bf4ffad6088225e",
        "gas": "0xce51",
        "value": "0x0",
        "input": "0x40c10f1900000000000000000000000084c29fb8b41f229ad09f4d68f84d676a28dc4a3a00000000000000000000000000000000000000000000be9a84ce49d00d900000",
        "nonce": "0x174",
        "chainId": "0x164ce"
      },
      "additionalContracts": [],
      "isFixedGasLimit": false
    },
    {
      "hash": "0x7af5c62a13d78bb105a6df75bfcd3cae1d65b4f63c78862991df96ed2048cfc1",
      "transactionType": "CALL",
      "contractName": null,
      "contractAddress": "0xdbfe78649585cf656d99f73a036093ca4dcf9ada",
      "function": "mint(address,uint256)",
      "arguments": [
        "0x84C29FB8b41F229aD09F4d68f84D676A28Dc4a3a",
        "900100000000000000000000"
      ],
      "transaction": {
        "from": "0x84c29fb8b41f229ad09f4d68f84d676a28dc4a3a",
        "to": "0xdbfe78649585cf656d99f73a036093ca4dcf9ada",
        "gas": "0xce51",
        "value": "0x0",
        "input": "0x40c10f1900000000000000000000000084c29fb8b41f229ad09f4d68f84d676a28dc4a3a00000000000000000000000000000000000000000000be9a84ce49d00d900000",
        "nonce": "0x175",
        "chainId": "0x164ce"
      },
      "additionalContracts": [],
      "isFixedGasLimit": false
    },
    {
      "hash": "0x8aac528a2f8b48c2737c03afc903bb7076cb67285c6817a54142a8c1f2d6c33d",
      "transactionType": "CALL",
      "contractName": null,
      "contractAddress": "0x40405f98e2a646ebbfb5ab55806a0a118e04a286",
      "function": "mint(address,uint256)",
      "arguments": [
        "0x84C29FB8b41F229aD09F4d68f84D676A28Dc4a3a",
        "400100000000000000000000"
      ],
      "transaction": {
        "from": "0x84c29fb8b41f229ad09f4d68f84d676a28dc4a3a",
        "to": "0x40405f98e2a646ebbfb5ab55806a0a118e04a286",
        "gas": "0xce51",
        "value": "0x0",
        "input": "0x40c10f1900000000000000000000000084c29fb8b41f229ad09f4d68f84d676a28dc4a3a0000000000000000000000000000000000000000000054b976e6e3593d100000",
        "nonce": "0x176",
        "chainId": "0x164ce"
      },
      "additionalContracts": [],
      "isFixedGasLimit": false
    },
    {
      "hash": "0x4fd5e69df2be61a554371252c67685031f5ca2a242459e309f8c91068422c605",
      "transactionType": "CALL",
      "contractName": null,
      "contractAddress": "0x48cafe7eb73330e07b9df0c61d4012ad0ad2c813",
      "function": "mint(address,uint256)",
      "arguments": [
        "0x84C29FB8b41F229aD09F4d68f84D676A28Dc4a3a",
        "400100000000000000000000"
      ],
      "transaction": {
        "from": "0x84c29fb8b41f229ad09f4d68f84d676a28dc4a3a",
        "to": "0x48cafe7eb73330e07b9df0c61d4012ad0ad2c813",
        "gas": "0xce51",
        "value": "0x0",
        "input": "0x40c10f1900000000000000000000000084c29fb8b41f229ad09f4d68f84d676a28dc4a3a0000000000000000000000000000000000000000000054b976e6e3593d100000",
        "nonce": "0x177",
        "chainId": "0x164ce"
      },
      "additionalContracts": [],
      "isFixedGasLimit": false
    },
    {
      "hash": "0xd0d9a52713a6a6ac933011d0597d27415a6c4a4206796b9195c0835eeaf36aad",
      "transactionType": "CALL",
      "contractName": null,
      "contractAddress": "0x9f03e390725216e38dbcb9106b4a6ec2611da7b2",
      "function": "approve(address,uint256)",
      "arguments": [
        "0x4E33AEcEC539b6C412145a5178693B0c867caA19",
        "400000000000000000000000"
      ],
      "transaction": {
        "from": "0x84c29fb8b41f229ad09f4d68f84d676a28dc4a3a",
        "to": "0x9f03e390725216e38dbcb9106b4a6ec2611da7b2",
        "gas": "0xf824",
        "value": "0x0",
        "input": "0x095ea7b30000000000000000000000004e33aecec539b6c412145a5178693b0c867caa190000000000000000000000000000000000000000000054b40b1f852bda000000",
        "nonce": "0x178",
        "chainId": "0x164ce"
      },
      "additionalContracts": [],
      "isFixedGasLimit": false
    },
    {
      "hash": "0xd8535e9937631bf76972e32ec147dfbfe6952eb9a104a81b4ce035b1d45f6774",
      "transactionType": "CALL",
      "contractName": null,
      "contractAddress": "0x1ee1c3516eb72b79f2d6be419bf4ffad6088225e",
      "function": "approve(address,uint256)",
      "arguments": [
        "0x4E33AEcEC539b6C412145a5178693B0c867caA19",
        "400000000000000000000000"
      ],
      "transaction": {
        "from": "0x84c29fb8b41f229ad09f4d68f84d676a28dc4a3a",
        "to": "0x1ee1c3516eb72b79f2d6be419bf4ffad6088225e",
        "gas": "0xf824",
        "value": "0x0",
        "input": "0x095ea7b30000000000000000000000004e33aecec539b6c412145a5178693b0c867caa190000000000000000000000000000000000000000000054b40b1f852bda000000",
        "nonce": "0x179",
        "chainId": "0x164ce"
      },
      "additionalContracts": [],
      "isFixedGasLimit": false
    },
    {
      "hash": "0x35dd8265a7b9da8fccd47590a65731e42b04a3cc1e066cd61f9f8fda37720dda",
      "transactionType": "CALL",
      "contractName": null,
      "contractAddress": "0xdbfe78649585cf656d99f73a036093ca4dcf9ada",
      "function": "approve(address,uint256)",
      "arguments": [
        "0x4E33AEcEC539b6C412145a5178693B0c867caA19",
        "400000000000000000000000"
      ],
      "transaction": {
        "from": "0x84c29fb8b41f229ad09f4d68f84d676a28dc4a3a",
        "to": "0xdbfe78649585cf656d99f73a036093ca4dcf9ada",
        "gas": "0xf824",
        "value": "0x0",
        "input": "0x095ea7b30000000000000000000000004e33aecec539b6c412145a5178693b0c867caa190000000000000000000000000000000000000000000054b40b1f852bda000000",
        "nonce": "0x17a",
        "chainId": "0x164ce"
      },
      "additionalContracts": [],
      "isFixedGasLimit": false
    },
    {
      "hash": "0xd665f706e80469278d2fd5307215cf91ecfd83571da44fe0668de34e127988af",
      "transactionType": "CALL",
      "contractName": null,
      "contractAddress": "0x40405f98e2a646ebbfb5ab55806a0a118e04a286",
      "function": "approve(address,uint256)",
      "arguments": [
        "0x4E33AEcEC539b6C412145a5178693B0c867caA19",
        "400000000000000000000000"
      ],
      "transaction": {
        "from": "0x84c29fb8b41f229ad09f4d68f84d676a28dc4a3a",
        "to": "0x40405f98e2a646ebbfb5ab55806a0a118e04a286",
        "gas": "0xf824",
        "value": "0x0",
        "input": "0x095ea7b30000000000000000000000004e33aecec539b6c412145a5178693b0c867caa190000000000000000000000000000000000000000000054b40b1f852bda000000",
        "nonce": "0x17b",
        "chainId": "0x164ce"
      },
      "additionalContracts": [],
      "isFixedGasLimit": false
    },
    {
      "hash": "0x1f613aec512f9774580fb63be0cc1e6cadd72564641a27b8f70cc0b20ff951b3",
      "transactionType": "CALL",
      "contractName": null,
      "contractAddress": "0x48cafe7eb73330e07b9df0c61d4012ad0ad2c813",
      "function": "approve(address,uint256)",
      "arguments": [
        "0x4E33AEcEC539b6C412145a5178693B0c867caA19",
        "400000000000000000000000"
      ],
      "transaction": {
        "from": "0x84c29fb8b41f229ad09f4d68f84d676a28dc4a3a",
        "to": "0x48cafe7eb73330e07b9df0c61d4012ad0ad2c813",
        "gas": "0xf824",
        "value": "0x0",
        "input": "0x095ea7b30000000000000000000000004e33aecec539b6c412145a5178693b0c867caa190000000000000000000000000000000000000000000054b40b1f852bda000000",
        "nonce": "0x17c",
        "chainId": "0x164ce"
      },
      "additionalContracts": [],
      "isFixedGasLimit": false
    },
    {
      "hash": "0x42ef6beb7f0d5839b327a7ca008783fa1ffe614972ae208ba96c98d4ed21e555",
      "transactionType": "CALL",
      "contractName": "GiwaFaucet",
      "contractAddress": "0x4e33aecec539b6c412145a5178693b0c867caa19",
      "function": "reseedToken(address,uint256)",
      "arguments": [
        "0x9F03e390725216E38dBcb9106B4A6ec2611da7b2",
        "400000000000000000000000"
      ],
      "transaction": {
        "from": "0x84c29fb8b41f229ad09f4d68f84d676a28dc4a3a",
        "to": "0x4e33aecec539b6c412145a5178693b0c867caa19",
        "gas": "0x147c0",
        "value": "0x0",
        "input": "0x94714d3d0000000000000000000000009f03e390725216e38dbcb9106b4a6ec2611da7b20000000000000000000000000000000000000000000054b40b1f852bda000000",
        "nonce": "0x17d",
        "chainId": "0x164ce"
      },
      "additionalContracts": [],
      "isFixedGasLimit": false
    },
    {
      "hash": "0xf72ca61f70b3cfe457bc6ffaf082eaab7abc87e44f081c2a177f99a615ff13d0",
      "transactionType": "CALL",
      "contractName": "GiwaFaucet",
      "contractAddress": "0x4e33aecec539b6c412145a5178693b0c867caa19",
      "function": "reseedToken(address,uint256)",
      "arguments": [
        "0x1EE1c3516eB72B79f2d6BE419Bf4fFAd6088225e",
        "400000000000000000000000"
      ],
      "transaction": {
        "from": "0x84c29fb8b41f229ad09f4d68f84d676a28dc4a3a",
        "to": "0x4e33aecec539b6c412145a5178693b0c867caa19",
        "gas": "0x147c0",
        "value": "0x0",
        "input": "0x94714d3d0000000000000000000000001ee1c3516eb72b79f2d6be419bf4ffad6088225e0000000000000000000000000000000000000000000054b40b1f852bda000000",
        "nonce": "0x17e",
        "chainId": "0x164ce"
      },
      "additionalContracts": [],
      "isFixedGasLimit": false
    },
    {
      "hash": "0x438f59a76172325f37878fb35ebd8a7f8f4dfe84be4b993affb30cb1f1b97e04",
      "transactionType": "CALL",
      "contractName": "GiwaFaucet",
      "contractAddress": "0x4e33aecec539b6c412145a5178693b0c867caa19",
      "function": "reseedToken(address,uint256)",
      "arguments": [
        "0xdBFe78649585CF656D99f73A036093ca4DCF9ada",
        "400000000000000000000000"
      ],
      "transaction": {
        "from": "0x84c29fb8b41f229ad09f4d68f84d676a28dc4a3a",
        "to": "0x4e33aecec539b6c412145a5178693b0c867caa19",
        "gas": "0x147c0",
        "value": "0x0",
        "input": "0x94714d3d000000000000000000000000dbfe78649585cf656d99f73a036093ca4dcf9ada0000000000000000000000000000000000000000000054b40b1f852bda000000",
        "nonce": "0x17f",
        "chainId": "0x164ce"
      },
      "additionalContracts": [],
      "isFixedGasLimit": false
    },
    {
      "hash": "0xd3a2f4ebf403e7c3023ee5f5149671f95f90e8227616d15372408ad379d3d458",
      "transactionType": "CALL",
      "contractName": "GiwaFaucet",
      "contractAddress": "0x4e33aecec539b6c412145a5178693b0c867caa19",
      "function": "reseedToken(address,uint256)",
      "arguments": [
        "0x40405F98E2a646ebBFb5ab55806a0a118E04a286",
        "400000000000000000000000"
      ],
      "transaction": {
        "from": "0x84c29fb8b41f229ad09f4d68f84d676a28dc4a3a",
        "to": "0x4e33aecec539b6c412145a5178693b0c867caa19",
        "gas": "0x147c0",
        "value": "0x0",
        "input": "0x94714d3d00000000000000000000000040405f98e2a646ebbfb5ab55806a0a118e04a2860000000000000000000000000000000000000000000054b40b1f852bda000000",
        "nonce": "0x180",
        "chainId": "0x164ce"
      },
      "additionalContracts": [],
      "isFixedGasLimit": false
    },
    {
      "hash": "0xeb6a7d4456a9abb9d8a3cc26ce576062560efa29620fae6a1ec6892cfbd167d2",
      "transactionType": "CALL",
      "contractName": "GiwaFaucet",
      "contractAddress": "0x4e33aecec539b6c412145a5178693b0c867caa19",
      "function": "reseedToken(address,uint256)",
      "arguments": [
        "0x48CaFE7eB73330E07B9dF0C61D4012aD0aD2c813",
        "400000000000000000000000"
      ],
      "transaction": {
        "from": "0x84c29fb8b41f229ad09f4d68f84d676a28dc4a3a",
        "to": "0x4e33aecec539b6c412145a5178693b0c867caa19",
        "gas": "0x147c0",
        "value": "0x0",
        "input": "0x94714d3d00000000000000000000000048cafe7eb73330e07b9df0c61d4012ad0ad2c8130000000000000000000000000000000000000000000054b40b1f852bda000000",
        "nonce": "0x181",
        "chainId": "0x164ce"
      },
      "additionalContracts": [],
      "isFixedGasLimit": false
    },
    {
      "hash": "0x2b7f9e6a38a06888bbdda097e8c1eac92be1780a14fefc20491e77879b6b1c0f",
      "transactionType": "CALL",
      "contractName": "GiwaFaucet",
      "contractAddress": "0x4e33aecec539b6c412145a5178693b0c867caa19",
      "function": "setClaimAmount(uint256)",
      "arguments": [
        "100000000000000000000"
      ],
      "transaction": {
        "from": "0x84c29fb8b41f229ad09f4d68f84d676a28dc4a3a",
        "to": "0x4e33aecec539b6c412145a5178693b0c867caa19",
        "gas": "0x9da2",
        "value": "0x0",
        "input": "0xb1c7ef0c0000000000000000000000000000000000000000000000056bc75e2d63100000",
        "nonce": "0x182",
        "chainId": "0x164ce"
      },
      "additionalContracts": [],
      "isFixedGasLimit": false
    },
    {
      "hash": "0x476a3df5a8c75c08299e04463879177edcc6c2f934bcdaa540de74582b81ba85",
      "transactionType": "CALL",
      "contractName": "GiwaFaucet",
      "contractAddress": "0x4e33aecec539b6c412145a5178693b0c867caa19",
      "function": "setMaxPerWallet(uint256)",
      "arguments": [
        "500000000000000000000"
      ],
      "transaction": {
        "from": "0x84c29fb8b41f229ad09f4d68f84d676a28dc4a3a",
        "to": "0x4e33aecec539b6c412145a5178693b0c867caa19",
        "gas": "0xae01",
        "value": "0x0",
        "input": "0xe268e4d300000000000000000000000000000000000000000000001b1ae4d6e2ef500000",
        "nonce": "0x183",
        "chainId": "0x164ce"
      },
      "additionalContracts": [],
      "isFixedGasLimit": false
    },
    {
      "hash": "0xc089edde1646e03e8d836929b38301bda373ff5408e16d645c826cc52d4c9e80",
      "transactionType": "CALL",
      "contractName": "GiwaFaucet",
      "contractAddress": "0x4e33aecec539b6c412145a5178693b0c867caa19",
      "function": "setCooldown(uint256)",
      "arguments": [
        "86400"
      ],
      "transaction": {
        "from": "0x84c29fb8b41f229ad09f4d68f84d676a28dc4a3a",
        "to": "0x4e33aecec539b6c412145a5178693b0c867caa19",
        "gas": "0x9b39",
        "value": "0x0",
        "input": "0x4fc3f41a0000000000000000000000000000000000000000000000000000000000015180",
        "nonce": "0x184",
        "chainId": "0x164ce"
      },
      "additionalContracts": [],
      "isFixedGasLimit": false
    },
    {
      "hash": "0xd87a67e2f1aecf333ed94c8d48be00373d8b4e41375e4832cbb10f59ddb513fb",
      "transactionType": "CALL",
      "contractName": null,
      "contractAddress": "0x9f03e390725216e38dbcb9106b4a6ec2611da7b2",
      "function": "approve(address,uint256)",
      "arguments": [
        "0x176a8A769A7c03e2140B7Fb47C6d664Af977B64C",
        "500000000000000000000000"
      ],
      "transaction": {
        "from": "0x84c29fb8b41f229ad09f4d68f84d676a28dc4a3a",
        "to": "0x9f03e390725216e38dbcb9106b4a6ec2611da7b2",
        "gas": "0x106ce",
        "value": "0x0",
        "input": "0x095ea7b3000000000000000000000000176a8a769a7c03e2140b7fb47c6d664af977b64c0000000000000000000000000000000000000000000069e10de76676d0800000",
        "nonce": "0x185",
        "chainId": "0x164ce"
      },
      "additionalContracts": [],
      "isFixedGasLimit": false
    },
    {
      "hash": "0x4f0e1aa5e5aeec1f471bfbd25ec3e89e65e6f5287ed2b3fadb7008dbd61e7028",
      "transactionType": "CALL",
      "contractName": null,
      "contractAddress": "0x1ee1c3516eb72b79f2d6be419bf4ffad6088225e",
      "function": "approve(address,uint256)",
      "arguments": [
        "0x176a8A769A7c03e2140B7Fb47C6d664Af977B64C",
        "500000000000000000000000"
      ],
      "transaction": {
        "from": "0x84c29fb8b41f229ad09f4d68f84d676a28dc4a3a",
        "to": "0x1ee1c3516eb72b79f2d6be419bf4ffad6088225e",
        "gas": "0x106ce",
        "value": "0x0",
        "input": "0x095ea7b3000000000000000000000000176a8a769a7c03e2140b7fb47c6d664af977b64c0000000000000000000000000000000000000000000069e10de76676d0800000",
        "nonce": "0x186",
        "chainId": "0x164ce"
      },
      "additionalContracts": [],
      "isFixedGasLimit": false
    },
    {
      "hash": "0x942edccf732f207719adcccc82faa79ec684291e5346e06dc737d083249af557",
      "transactionType": "CALL",
      "contractName": null,
      "contractAddress": "0xdbfe78649585cf656d99f73a036093ca4dcf9ada",
      "function": "approve(address,uint256)",
      "arguments": [
        "0x176a8A769A7c03e2140B7Fb47C6d664Af977B64C",
        "500000000000000000000000"
      ],
      "transaction": {
        "from": "0x84c29fb8b41f229ad09f4d68f84d676a28dc4a3a",
        "to": "0xdbfe78649585cf656d99f73a036093ca4dcf9ada",
        "gas": "0x106ce",
        "value": "0x0",
        "input": "0x095ea7b3000000000000000000000000176a8a769a7c03e2140b7fb47c6d664af977b64c0000000000000000000000000000000000000000000069e10de76676d0800000",
        "nonce": "0x187",
        "chainId": "0x164ce"
      },
      "additionalContracts": [],
      "isFixedGasLimit": false
    },
    {
      "hash": "0x8b64cdfb4a1d99f6e2dbc8cb937b114c222d033a21a0e4750b6257f7e830a7a7",
      "transactionType": "CALL",
      "contractName": "GiwaSwap",
      "contractAddress": "0x176a8a769a7c03e2140b7fb47c6d664af977b64c",
      "function": "addLiquidity(address,address,uint256,uint256)",
      "arguments": [
        "0x9F03e390725216E38dBcb9106B4A6ec2611da7b2",
        "0x1EE1c3516eB72B79f2d6BE419Bf4fFAd6088225e",
        "200000000000000000000000",
        "200000000000000000000000"
      ],
      "transaction": {
        "from": "0x84c29fb8b41f229ad09f4d68f84d676a28dc4a3a",
        "to": "0x176a8a769a7c03e2140b7fb47c6d664af977b64c",
        "gas": "0x2ae28",
        "value": "0x0",
        "input": "0xcf6c62ea0000000000000000000000009f03e390725216e38dbcb9106b4a6ec2611da7b20000000000000000000000001ee1c3516eb72b79f2d6be419bf4ffad6088225e000000000000000000000000000000000000000000002a5a058fc295ed000000000000000000000000000000000000000000000000002a5a058fc295ed000000",
        "nonce": "0x188",
        "chainId": "0x164ce"
      },
      "additionalContracts": [],
      "isFixedGasLimit": false
    },
    {
      "hash": "0xf7921433cabe37c8ed57fa7219482ff16c04041907e5bd6855e65be55a71781d",
      "transactionType": "CALL",
      "contractName": "GiwaSwap",
      "contractAddress": "0x176a8a769a7c03e2140b7fb47c6d664af977b64c",
      "function": "addLiquidity(address,address,uint256,uint256)",
      "arguments": [
        "0x9F03e390725216E38dBcb9106B4A6ec2611da7b2",
        "0xdBFe78649585CF656D99f73A036093ca4DCF9ada",
        "100000000000000000000000",
        "100000000000000000000000"
      ],
      "transaction": {
        "from": "0x84c29fb8b41f229ad09f4d68f84d676a28dc4a3a",
        "to": "0x176a8a769a7c03e2140b7fb47c6d664af977b64c",
        "gas": "0x274d5",
        "value": "0x0",
        "input": "0xcf6c62ea0000000000000000000000009f03e390725216e38dbcb9106b4a6ec2611da7b2000000000000000000000000dbfe78649585cf656d99f73a036093ca4dcf9ada00000000000000000000000000000000000000000000152d02c7e14af680000000000000000000000000000000000000000000000000152d02c7e14af6800000",
        "nonce": "0x189",
        "chainId": "0x164ce"
      },
      "additionalContracts": [],
      "isFixedGasLimit": false
    },
    {
      "hash": "0x7d9eb9cbb0dc8e3feafffaccf5595d297540d766dd3c5cecf9f8573c818532c8",
      "transactionType": "CALL",
      "contractName": "GiwaSwap",
      "contractAddress": "0x176a8a769a7c03e2140b7fb47c6d664af977b64c",
      "function": "addLiquidity(address,address,uint256,uint256)",
      "arguments": [
        "0x1EE1c3516eB72B79f2d6BE419Bf4fFAd6088225e",
        "0xdBFe78649585CF656D99f73A036093ca4DCF9ada",
        "100000000000000000000000",
        "100000000000000000000000"
      ],
      "transaction": {
        "from": "0x84c29fb8b41f229ad09f4d68f84d676a28dc4a3a",
        "to": "0x176a8a769a7c03e2140b7fb47c6d664af977b64c",
        "gas": "0x1f5a1",
        "value": "0x0",
        "input": "0xcf6c62ea0000000000000000000000001ee1c3516eb72b79f2d6be419bf4ffad6088225e000000000000000000000000dbfe78649585cf656d99f73a036093ca4dcf9ada00000000000000000000000000000000000000000000152d02c7e14af680000000000000000000000000000000000000000000000000152d02c7e14af6800000",
        "nonce": "0x18a",
        "chainId": "0x164ce"
      },
      "additionalContracts": [],
      "isFixedGasLimit": false
    },
    {
      "hash": "0x9638807e6279ad8e51a9dbfd60561edf40c4ce0248a4313a9b5ca9ffeec6bc88",
      "transactionType": "CALL",
      "contractName": null,
      "contractAddress": "0xa070ef81af0ea0b595e112ade9bd3afb92204674",
      "function": "setMinter(address)",
      "arguments": [
        "0xb981D048Db34dFDC3064377C9a95F5a3995f7616"
      ],
      "transaction": {
        "from": "0x84c29fb8b41f229ad09f4d68f84d676a28dc4a3a",
        "to": "0xa070ef81af0ea0b595e112ade9bd3afb92204674",
        "gas": "0x9e39",
        "value": "0x0",
        "input": "0xfca3b5aa000000000000000000000000b981d048db34dfdc3064377c9a95f5a3995f7616",
        "nonce": "0x18b",
        "chainId": "0x164ce"
      },
      "additionalContracts": [],
      "isFixedGasLimit": false
    },
    {
      "hash": "0x05d78722d17d56dc268aa837fdd4da2ea34b66962cd0609cc52c365e2dbe51c8",
      "transactionType": "CALL",
      "contractName": null,
      "contractAddress": "0x48a227d0fcc84602c2af7a55918fe473b51ab1fb",
      "function": "setMinter(address)",
      "arguments": [
        "0xb981D048Db34dFDC3064377C9a95F5a3995f7616"
      ],
      "transaction": {
        "from": "0x84c29fb8b41f229ad09f4d68f84d676a28dc4a3a",
        "to": "0x48a227d0fcc84602c2af7a55918fe473b51ab1fb",
        "gas": "0x9da2",
        "value": "0x0",
        "input": "0xfca3b5aa000000000000000000000000b981d048db34dfdc3064377c9a95f5a3995f7616",
        "nonce": "0x18c",
        "chainId": "0x164ce"
      },
      "additionalContracts": [],
      "isFixedGasLimit": false
    },
    {
      "hash": "0x33e97940ed8ead6279eec8f1a56d0befe934c5ebfe2f26186effef0b5d21ddbe",
      "transactionType": "CALL",
      "contractName": "GiwaVote",
      "contractAddress": "0xb981d048db34dfdc3064377c9a95f5a3995f7616",
      "function": "setBadge(address)",
      "arguments": [
        "0xa070EF81Af0EA0B595E112aDe9bD3aFb92204674"
      ],
      "transaction": {
        "from": "0x84c29fb8b41f229ad09f4d68f84d676a28dc4a3a",
        "to": "0xb981d048db34dfdc3064377c9a95f5a3995f7616",
        "gas": "0xfac8",
        "value": "0x0",
        "input": "0xff967e2e000000000000000000000000a070ef81af0ea0b595e112ade9bd3afb92204674",
        "nonce": "0x18d",
        "chainId": "0x164ce"
      },
      "additionalContracts": [],
      "isFixedGasLimit": false
    },
    {
      "hash": "0xa0b5377974f71a98cd03bf5447b0dce9b5f065c05ac5d8a8bc219782c91e6894",
      "transactionType": "CALL",
      "contractName": "GiwaVote",
      "contractAddress": "0xb981d048db34dfdc3064377c9a95f5a3995f7616",
      "function": "setGVF(address)",
      "arguments": [
        "0x48A227d0fcc84602c2af7a55918Fe473b51ab1FB"
      ],
      "transaction": {
        "from": "0x84c29fb8b41f229ad09f4d68f84d676a28dc4a3a",
        "to": "0xb981d048db34dfdc3064377c9a95f5a3995f7616",
        "gas": "0xf817",
        "value": "0x0",
        "input": "0x09be028200000000000000000000000048a227d0fcc84602c2af7a55918fe473b51ab1fb",
        "nonce": "0x18e",
        "chainId": "0x164ce"
      },
      "additionalContracts": [],
      "isFixedGasLimit": false
    },
    {
      "hash": "0x50691be07190c32c1cd80a43e9c3f64a419c5b0d89848e9d4fc04e285cb86a3f",
      "transactionType": "CALL",
      "contractName": "GiwaVote",
      "contractAddress": "0xb981d048db34dfdc3064377c9a95f5a3995f7616",
      "function": "createProposal(string,string)",
      "arguments": [
        "GVF governance participation token added",
        "Integrate the GVF ERC20 token into the governance system so verified users earn GVF with each vote."
      ],
      "transaction": {
        "from": "0x84c29fb8b41f229ad09f4d68f84d676a28dc4a3a",
        "to": "0xb981d048db34dfdc3064377c9a95f5a3995f7616",
        "gas": "0x6ecf4",
        "value": "0x0",
        "input": "0x65e481e2000000000000000000000000000000000000000000000000000000000000004000000000000000000000000000000000000000000000000000000000000000a0000000000000000000000000000000000000000000000000000000000000002847564620676f7665726e616e63652070617274696369706174696f6e20746f6b656e2061646465640000000000000000000000000000000000000000000000000000000000000000000000000000000000000000000000000000000000000063496e74656772617465207468652047564620455243323020746f6b656e20696e746f2074686520676f7665726e616e63652073797374656d20736f207665726966696564207573657273206561726e204756462077697468206561636820766f74652e0000000000000000000000000000000000000000000000000000000000",
        "nonce": "0x18f",
        "chainId": "0x164ce"
      },
      "additionalContracts": [],
      "isFixedGasLimit": false
    },
    {
      "hash": "0xd07a99e30bb252d7583a06161b7407f32a9ded2b22696d009b9925f4efc9d479",
      "transactionType": "CALL",
      "contractName": "GiwaVote",
      "contractAddress": "0xb981d048db34dfdc3064377c9a95f5a3995f7616",
      "function": "createProposal(string,string)",
      "arguments": [
        "Add a \\'Claim All\\' batch function to the faucet",
        "Implement a batch claim function that lets verified users claim all eligible tokens in one transaction."
      ],
      "transaction": {
        "from": "0x84c29fb8b41f229ad09f4d68f84d676a28dc4a3a",
        "to": "0xb981d048db34dfdc3064377c9a95f5a3995f7616",
        "gas": "0x6f43e",
        "value": "0x0",
        "input": "0x65e481e2000000000000000000000000000000000000000000000000000000000000004000000000000000000000000000000000000000000000000000000000000000a0000000000000000000000000000000000000000000000000000000000000002e41646420612027436c61696d20416c6c272062617463682066756e6374696f6e20746f20746865206661756365740000000000000000000000000000000000000000000000000000000000000000000000000000000000000000000000000067496d706c656d656e74206120626174636820636c61696d2066756e6374696f6e2074686174206c65747320766572696669656420757365727320636c61696d20616c6c20656c696769626c6520746f6b656e7320696e206f6e65207472616e73616374696f6e2e00000000000000000000000000000000000000000000000000",
        "nonce": "0x190",
        "chainId": "0x164ce"
      },
      "additionalContracts": [],
      "isFixedGasLimit": false
    },
    {
      "hash": "0xd12c7241de355eb919baa08b3d8f91e2abece5d6b6ba6084e3c8180e7523bc69",
      "transactionType": "CALL",
      "contractName": "GiwaVote",
      "contractAddress": "0xb981d048db34dfdc3064377c9a95f5a3995f7616",
      "function": "createProposal(string,string)",
      "arguments": [
        "Increase faucet claim amount to 200 GVA",
        "Raise the per-transaction claim amount on the faucet from 100 GVA to 200 GVA."
      ],
      "transaction": {
        "from": "0x84c29fb8b41f229ad09f4d68f84d676a28dc4a3a",
        "to": "0xb981d048db34dfdc3064377c9a95f5a3995f7616",
        "gas": "0x67266",
        "value": "0x0",
        "input": "0x65e481e2000000000000000000000000000000000000000000000000000000000000004000000000000000000000000000000000000000000000000000000000000000a00000000000000000000000000000000000000000000000000000000000000027496e6372656173652066617563657420636c61696d20616d6f756e7420746f203230302047564100000000000000000000000000000000000000000000000000000000000000000000000000000000000000000000000000000000000000004d526169736520746865207065722d7472616e73616374696f6e20636c61696d20616d6f756e74206f6e20746865206661756365742066726f6d203130302047564120746f20323030204756412e00000000000000000000000000000000000000",
        "nonce": "0x191",
        "chainId": "0x164ce"
      },
      "additionalContracts": [],
      "isFixedGasLimit": false
    },
    {
      "hash": "0x842a912d40109f511a107a6407690b05986e34cf82163bab692943b5b83d2333",
      "transactionType": "CALL",
      "contractName": "GiwaVote",
      "contractAddress": "0xb981d048db34dfdc3064377c9a95f5a3995f7616",
      "function": "createProposal(string,string)",
      "arguments": [
        "Reduce faucet cooldown from 24h to 12h",
        "Shorten the claim cooldown period from 24 hours to 12 hours for faster testing."
      ],
      "transaction": {
        "from": "0x84c29fb8b41f229ad09f4d68f84d676a28dc4a3a",
        "to": "0xb981d048db34dfdc3064377c9a95f5a3995f7616",
        "gas": "0x616c6",
        "value": "0x0",
        "input": "0x65e481e2000000000000000000000000000000000000000000000000000000000000004000000000000000000000000000000000000000000000000000000000000000a000000000000000000000000000000000000000000000000000000000000000265265647563652066617563657420636f6f6c646f776e2066726f6d2032346820746f203132680000000000000000000000000000000000000000000000000000000000000000000000000000000000000000000000000000000000000000004f53686f7274656e2074686520636c61696d20636f6f6c646f776e20706572696f642066726f6d20323420686f75727320746f20313220686f75727320666f72206661737465722074657374696e672e0000000000000000000000000000000000",
        "nonce": "0x192",
        "chainId": "0x164ce"
      },
      "additionalContracts": [],
      "isFixedGasLimit": false
    },
    {
      "hash": "0x6460e8cd493373881b6f1efaf29f5a0582b3060655df02b05bd8d292ff72df0c",
      "transactionType": "CALL",
      "contractName": "GiwaVote",
      "contractAddress": "0xb981d048db34dfdc3064377c9a95f5a3995f7616",
      "function": "createProposal(string,string)",
      "arguments": [
        "Create Developer Grant Fund (100K GVA)",
        "Allocate 100,000 GVA tokens from the faucet reserve to fund community developer grants."
      ],
      "transaction": {
        "from": "0x84c29fb8b41f229ad09f4d68f84d676a28dc4a3a",
        "to": "0xb981d048db34dfdc3064377c9a95f5a3995f7616",
        "gas": "0x6174b",
        "value": "0x0",
        "input": "0x65e481e2000000000000000000000000000000000000000000000000000000000000004000000000000000000000000000000000000000000000000000000000000000a0000000000000000000000000000000000000000000000000000000000000002643726561746520446576656c6f706572204772616e742046756e6420283130304b204756412900000000000000000000000000000000000000000000000000000000000000000000000000000000000000000000000000000000000000000057416c6c6f63617465203130302c3030302047564120746f6b656e732066726f6d2074686520666175636574207265736572766520746f2066756e6420636f6d6d756e69747920646576656c6f706572206772616e74732e000000000000000000",
        "nonce": "0x193",
        "chainId": "0x164ce"
      },
      "additionalContracts": [],
      "isFixedGasLimit": false
    },
    {
      "hash": "0x0547d095168e55d37e7d9e7e0225016950a0b6f274beba388984e25ea0aebaae",
      "transactionType": "CALL",
      "contractName": "GiwaVote",
      "contractAddress": "0xb981d048db34dfdc3064377c9a95f5a3995f7616",
      "function": "markImplemented(uint256)",
      "arguments": [
        "1"
      ],
      "transaction": {
        "from": "0x84c29fb8b41f229ad09f4d68f84d676a28dc4a3a",
        "to": "0xb981d048db34dfdc3064377c9a95f5a3995f7616",
        "gas": "0x18328",
        "value": "0x0",
        "input": "0xb24aaebc0000000000000000000000000000000000000000000000000000000000000001",
        "nonce": "0x194",
        "chainId": "0x164ce"
      },
      "additionalContracts": [],
      "isFixedGasLimit": false
    }
  ],
  "receipts": [
    {
      "type": "0x2",
      "status": "0x1",
      "cumulativeGasUsed": "0x144bf4",
      "logs": [],
      "logsBloom": "0x00000000000000000000000000000000000000000000000000000000000000000000000000000000000000000000000000000000000000000000000000000000000000000000000000000000000000000000000000000000000000000000000000000000000000000000000000000000000000000000000000000000000000000000000000000000000000000000000000000000000000000000000000000000000000000000000000000000000000000000000000000000000000000000000000000000000000000000000000000000000000000000000000000000000000000000000000000000000000000000000000000000000000000000000000000000",
      "transactionHash": "0xda6450760ae8eec6cb9afa4f17a8bd61f87849dd14bcc41f0740f6083c629421",
      "transactionIndex": "0x12",
      "blockHash": "0x69efe249bc29ec5bc518f1185f1e2271eb02d7bbdfcbcf1ce78302b4c19474f9",
      "blockNumber": "0x1df22bd",
      "gasUsed": "0x141e1",
      "effectiveGasPrice": "0xf433b",
      "blobGasUsed": "0x10040",
      "from": "0x84c29fb8b41f229ad09f4d68f84d676a28dc4a3a",
      "to": null,
      "contractAddress": "0xb2dec3394a51da95b0d78c7d081c41a4dcee10ee"
    },
    {
      "type": "0x2",
      "status": "0x1",
      "cumulativeGasUsed": "0x1be8a5",
      "logs": [
        {
          "address": "0x4e33aecec539b6c412145a5178693b0c867caa19",
          "topics": [
            "0x8be0079c531659141344cd1fd0a4f28419497f9722a3daafe3b4186f6b6457e0",
            "0x0000000000000000000000000000000000000000000000000000000000000000",
            "0x00000000000000000000000084c29fb8b41f229ad09f4d68f84d676a28dc4a3a"
          ],
          "data": "0x",
          "blockHash": "0x8e566bf86d4f204578a4d662c3fc61e491635ee0915b52bd781c3ca763170c17",
          "blockNumber": "0x1df22c1",
          "blockTimestamp": "0x6a610f1d",
          "transactionHash": "0x1b2c07ca2473a74e43dac4065b96b3a016251fa8fef2d157ad6a43f6c8ded715",
          "transactionIndex": "0x3",
          "logIndex": "0x5",
          "removed": false
        }
      ],
      "logsBloom": "0x00000000000000000000000000000000000000000000000000800000000000200000000000000000000000000000000000000000000000000000000000000000000000000000000000000000100000000001000000000000000000000000000000000000020000000000000000000800000000000000000000010000000000400000000000000000000000000000000000000000000000000000000000000000000000000000000000000000000000000000000000000000000000000000000001000000000004000000000000000000000000000000000000000000000020000000000000000000000000000000000000200000000000000000000000000000",
      "transactionHash": "0x1b2c07ca2473a74e43dac4065b96b3a016251fa8fef2d157ad6a43f6c8ded715",
      "transactionIndex": "0x3",
      "blockHash": "0x8e566bf86d4f204578a4d662c3fc61e491635ee0915b52bd781c3ca763170c17",
      "blockNumber": "0x1df22c1",
      "gasUsed": "0x12f9eb",
      "effectiveGasPrice": "0xf433b",
      "blobGasUsed": "0x117e20",
      "from": "0x84c29fb8b41f229ad09f4d68f84d676a28dc4a3a",
      "to": null,
      "contractAddress": "0x4e33aecec539b6c412145a5178693b0c867caa19"
    },
    {
      "type": "0x2",
      "status": "0x1",
      "cumulativeGasUsed": "0x20b78c",
      "logs": [
        {
          "address": "0x176a8a769a7c03e2140b7fb47c6d664af977b64c",
          "topics": [
            "0x8be0079c531659141344cd1fd0a4f28419497f9722a3daafe3b4186f6b6457e0",
            "0x0000000000000000000000000000000000000000000000000000000000000000",
            "0x00000000000000000000000084c29fb8b41f229ad09f4d68f84d676a28dc4a3a"
          ],
          "data": "0x",
          "blockHash": "0xcc8c22c28788a86b6d41e430025a160fbe0c8c45b8b31635d9ef2e2789d70c81",
          "blockNumber": "0x1df22c4",
          "blockTimestamp": "0x6a610f20",
          "transactionHash": "0xbc4857305c8ac5cb925110a6a9fa9d5ce78c76eaa33cdb0cb7db456127069420",
          "transactionIndex": "0x6",
          "logIndex": "0xa",
          "removed": false
        }
      ],
      "logsBloom": "0x00000000000000000000000000000000000000000000000000800000000000000000000000000000000000000000000000000000000000000000000000004000000000000000000000000000100000000001000000000000000000000000000000000000020000000000000000000800000000000000000000010000000000400000000000000000000000000000000000000000000000000000000000000000000000000000000000000000000000000000000000000010000000000000000000000000000000000000004000000000000000000000000000000000000020000000000000000000000000000000000000200000000000000000000000000000",
      "transactionHash": "0xbc4857305c8ac5cb925110a6a9fa9d5ce78c76eaa33cdb0cb7db456127069420",
      "transactionIndex": "0x6",
      "blockHash": "0xcc8c22c28788a86b6d41e430025a160fbe0c8c45b8b31635d9ef2e2789d70c81",
      "blockNumber": "0x1df22c4",
      "gasUsed": "0x11bb2a",
      "effectiveGasPrice": "0xf433b",
      "blobGasUsed": "0x10acc0",
      "from": "0x84c29fb8b41f229ad09f4d68f84d676a28dc4a3a",
      "to": null,
      "contractAddress": "0x176a8a769a7c03e2140b7fb47c6d664af977b64c"
    },
    {
      "type": "0x2",
      "status": "0x1",
      "cumulativeGasUsed": "0x1fdf89",
      "logs": [
        {
          "address": "0xb981d048db34dfdc3064377c9a95f5a3995f7616",
          "topics": [
            "0x8be0079c531659141344cd1fd0a4f28419497f9722a3daafe3b4186f6b6457e0",
            "0x0000000000000000000000000000000000000000000000000000000000000000",
            "0x00000000000000000000000084c29fb8b41f229ad09f4d68f84d676a28dc4a3a"
          ],
          "data": "0x",
          "blockHash": "0xaa8d010ec221927779884ec6560312ff3403f8cc9f8c12cc2d998bd23c967f6b",
          "blockNumber": "0x1df22c7",
          "blockTimestamp": "0x6a610f23",
          "transactionHash": "0x96f79dd26ce46e5fb500c901ec95861538b9f7c7fb9f01ba4cd304410d9114e9",
          "transactionIndex": "0x8",
          "logIndex": "0x7",
          "removed": false
        }
      ],
      "logsBloom": "0x00000000000000000000000000000000000000000000000000800000000000000000000000000000000000000000000000000000000000010000000000000000000000000000000000000000100000000001000000000000000000000000000000000000020800000000000000000800000000000000000000010000000008400000000000000000000000000000000000000000000000000000000000000000000000000000000000000000000000000000000000000000000000000000000000000000000000000000000000000000000000000000000000000000000020000000000000000000000000000000000000200000000000000000000000000000",
      "transactionHash": "0x96f79dd26ce46e5fb500c901ec95861538b9f7c7fb9f01ba4cd304410d9114e9",
      "transactionIndex": "0x8",
      "blockHash": "0xaa8d010ec221927779884ec6560312ff3403f8cc9f8c12cc2d998bd23c967f6b",
      "blockNumber": "0x1df22c7",
      "gasUsed": "0x15ddb8",
      "effectiveGasPrice": "0xf433b",
      "blobGasUsed": "0x16da00",
      "from": "0x84c29fb8b41f229ad09f4d68f84d676a28dc4a3a",
      "to": null,
      "contractAddress": "0xb981d048db34dfdc3064377c9a95f5a3995f7616"
    },
    {
      "type": "0x2",
      "status": "0x1",
      "cumulativeGasUsed": "0x10a6cb",
      "logs": [
        {
          "address": "0x4e33aecec539b6c412145a5178693b0c867caa19",
          "topics": [
            "0x158412daecdc1456d01568828bcdb18464cc7f1ce0215ddbc3f3cfede9d1e63d",
            "0x0000000000000000000000009f03e390725216e38dbcb9106b4a6ec2611da7b2"
          ],
          "data": "0x",
          "blockHash": "0xff3a54379740cb36f429d840e7a2bae9d40335cadfde557cc85a326aa9596dd2",
          "blockNumber": "0x1df22ca",
          "blockTimestamp": "0x6a610f26",
          "transactionHash": "0xcda6e60f6e0d1a19a7ae6a5dc69fee8b992c82399308da867b19a503fe8519d4",
          "transactionIndex": "0x7",
          "logIndex": "0x8",
          "removed": false
        }
      ],
      "logsBloom": "0x00000000000000000000000000000000000000000000000000000000000000200000000000000400000000000000000000000000000000000000000000000000000000000000000000000000000000000000000080000000000000000000000000000000000000000000000000001000000000000000000000000000000000020000000000000000000000000000000000000000000000000000000000000000000080000000000000000000000000000000000000000000000000000000000001000000000004000000000400000000000000000000000000000000000000000000000000000000000000000000000000000000000000000000000000000000",
      "transactionHash": "0xcda6e60f6e0d1a19a7ae6a5dc69fee8b992c82399308da867b19a503fe8519d4",
      "transactionIndex": "0x7",
      "blockHash": "0xff3a54379740cb36f429d840e7a2bae9d40335cadfde557cc85a326aa9596dd2",
      "blockNumber": "0x1df22ca",
      "gasUsed": "0x16787",
      "effectiveGasPrice": "0xf433b",
      "blobGasUsed": "0x9c40",
      "from": "0x84c29fb8b41f229ad09f4d68f84d676a28dc4a3a",
      "to": "0x4e33aecec539b6c412145a5178693b0c867caa19",
      "contractAddress": null
    },
    {
      "type": "0x2",
      "status": "0x1",
      "cumulativeGasUsed": "0x73b15",
      "logs": [
        {
          "address": "0x4e33aecec539b6c412145a5178693b0c867caa19",
          "topics": [
            "0x158412daecdc1456d01568828bcdb18464cc7f1ce0215ddbc3f3cfede9d1e63d",
            "0x0000000000000000000000001ee1c3516eb72b79f2d6be419bf4ffad6088225e"
          ],
          "data": "0x",
          "blockHash": "0x444146587ce457435760e97c52f1a46d0da7dd9700741c504052b2658985a52f",
          "blockNumber": "0x1df22cd",
          "blockTimestamp": "0x6a610f29",
          "transactionHash": "0x5a1ced68cda360dcd9fd662b4aac79eca58e6b462ede01436d4abcdafac91f95",
          "transactionIndex": "0x3",
          "logIndex": "0x1",
          "removed": false
        }
      ],
      "logsBloom": "0x00000000000000000000000000000000000000000000000000000000000000200000000000000400000000000000000000000000000000000000000000000000000000000000000000000000000000000000000000000000000000000000000000000000000000000000000000000000000000000000000000000000000000020000000000000000000000000000000004000000000000000000000000000000000000000000000000000000000000000000000400000000000000000040000001000000000004000000000400000000000000000000000000000000000000000000000000000000000000000000000000000000000000000000000000000000",
      "transactionHash": "0x5a1ced68cda360dcd9fd662b4aac79eca58e6b462ede01436d4abcdafac91f95",
      "transactionIndex": "0x3",
      "blockHash": "0x444146587ce457435760e97c52f1a46d0da7dd9700741c504052b2658985a52f",
      "blockNumber": "0x1df22cd",
      "gasUsed": "0x124bb",
      "effectiveGasPrice": "0xf433b",
      "blobGasUsed": "0x9c40",
      "from": "0x84c29fb8b41f229ad09f4d68f84d676a28dc4a3a",
      "to": "0x4e33aecec539b6c412145a5178693b0c867caa19",
      "contractAddress": null
    },
    {
      "type": "0x2",
      "status": "0x1",
      "cumulativeGasUsed": "0x1247ea",
      "logs": [
        {
          "address": "0x4e33aecec539b6c412145a5178693b0c867caa19",
          "topics": [
            "0x158412daecdc1456d01568828bcdb18464cc7f1ce0215ddbc3f3cfede9d1e63d",
            "0x000000000000000000000000dbfe78649585cf656d99f73a036093ca4dcf9ada"
          ],
          "data": "0x",
          "blockHash": "0x0a4f8e3a2394f291e11b423c42f48dc95d057cfb68a0aee67acd2559c5c73c3d",
          "blockNumber": "0x1df22d0",
          "blockTimestamp": "0x6a610f2c",
          "transactionHash": "0x5ce078c556638e2229a496ff3019f0f0c4535738904de07567ab91c99a7f3012",
          "transactionIndex": "0x8",
          "logIndex": "0xa",
          "removed": false
        }
      ],
      "logsBloom": "0x00000000000000000000000000000000000000000000000000000000000000200000000000000400000000000000000000000000000000000000000000000000000000000000000000000000000000000000000000000000000000000000000000000000000000000000000000010000000000000000000000000000000000020000000000000000000000000000000000000000000000000000000000000000000000000000000000000000000000000000000000000000000000000000000001000000000004000000000400000000000000000000000000000000000000000000000000200000000000000000000000000000000000001000000000000000",
      "transactionHash": "0x5ce078c556638e2229a496ff3019f0f0c4535738904de07567ab91c99a7f3012",
      "transactionIndex": "0x8",
      "blockHash": "0x0a4f8e3a2394f291e11b423c42f48dc95d057cfb68a0aee67acd2559c5c73c3d",
      "blockNumber": "0x1df22d0",
      "gasUsed": "0x124bb",
      "effectiveGasPrice": "0xf433b",
      "blobGasUsed": "0x9c40",
      "from": "0x84c29fb8b41f229ad09f4d68f84d676a28dc4a3a",
      "to": "0x4e33aecec539b6c412145a5178693b0c867caa19",
      "contractAddress": null
    },
    {
      "type": "0x2",
      "status": "0x1",
      "cumulativeGasUsed": "0x1cae56",
      "logs": [
        {
          "address": "0x4e33aecec539b6c412145a5178693b0c867caa19",
          "topics": [
            "0x158412daecdc1456d01568828bcdb18464cc7f1ce0215ddbc3f3cfede9d1e63d",
            "0x00000000000000000000000040405f98e2a646ebbfb5ab55806a0a118e04a286"
          ],
          "data": "0x",
          "blockHash": "0x80591c0e4aedd7b9026d55cb92352a78e23546e759b4bc12f887c0446380dab7",
          "blockNumber": "0x1df22d3",
          "blockTimestamp": "0x6a610f2f",
          "transactionHash": "0x142e0e6c5503eb2ad1c8c062d46f6468322d22db90d914bbd7add504d557fb34",
          "transactionIndex": "0xa",
          "logIndex": "0xd",
          "removed": false
        }
      ],
      "logsBloom": "0x00000000000000000000000000000000000000000000000000000000000000200000000000000400000000000000000000000000000000000000000000000000000000000000000000000000000000000000000000000000000000000000000000000000000000000000000000000000000000000000000000000000000000020000000000000000000000000000000000000000000000000000000000000000000000000000000000000000000000000000200000000000000000000000000001000000000004000000000c00000000000000000000020000000000000000000000000000000000000000000000000000000000000000000000000000000000",
      "transactionHash": "0x142e0e6c5503eb2ad1c8c062d46f6468322d22db90d914bbd7add504d557fb34",
      "transactionIndex": "0xa",
      "blockHash": "0x80591c0e4aedd7b9026d55cb92352a78e23546e759b4bc12f887c0446380dab7",
      "blockNumber": "0x1df22d3",
      "gasUsed": "0x124bb",
      "effectiveGasPrice": "0xf433b",
      "blobGasUsed": "0x9c40",
      "from": "0x84c29fb8b41f229ad09f4d68f84d676a28dc4a3a",
      "to": "0x4e33aecec539b6c412145a5178693b0c867caa19",
      "contractAddress": null
    },
    {
      "type": "0x2",
      "status": "0x1",
      "cumulativeGasUsed": "0x10f307",
      "logs": [
        {
          "address": "0x4e33aecec539b6c412145a5178693b0c867caa19",
          "topics": [
            "0x158412daecdc1456d01568828bcdb18464cc7f1ce0215ddbc3f3cfede9d1e63d",
            "0x00000000000000000000000048cafe7eb73330e07b9df0c61d4012ad0ad2c813"
          ],
          "data": "0x",
          "blockHash": "0x83c49942e5973a0b2833f0cad9b7b59a6dd5e929997d2f7f6fe2ca653dbdce58",
          "blockNumber": "0x1df22d6",
          "blockTimestamp": "0x6a610f32",
          "transactionHash": "0xf1f67c1b6250f9b1e1aa8e8896c193745b0126382eea2a450568bdb7090a7136",
          "transactionIndex": "0x8",
          "logIndex": "0x8",
          "removed": false
        }
      ],
      "logsBloom": "0x00000000000000000080000000000000000000000000000000000000000000200000000000000400000000000000000000000000000000000000000000000000000000000000000000000000000000000000000000000000000000000000000000000000000000000000000000000000000000000000000000000000000000020000000000000000000000000000000000000000000000000000000000000400000000000000000000000000000000000000000000000000000000000000000001000000000004000000000400000000000000000000000000000000000000000000000000000000000000020000000000000000000000000000000000000000",
      "transactionHash": "0xf1f67c1b6250f9b1e1aa8e8896c193745b0126382eea2a450568bdb7090a7136",
      "transactionIndex": "0x8",
      "blockHash": "0x83c49942e5973a0b2833f0cad9b7b59a6dd5e929997d2f7f6fe2ca653dbdce58",
      "blockNumber": "0x1df22d6",
      "gasUsed": "0x124bb",
      "effectiveGasPrice": "0xf433b",
      "blobGasUsed": "0x9c40",
      "from": "0x84c29fb8b41f229ad09f4d68f84d676a28dc4a3a",
      "to": "0x4e33aecec539b6c412145a5178693b0c867caa19",
      "contractAddress": null
    },
    {
      "type": "0x2",
      "status": "0x1",
      "cumulativeGasUsed": "0x228e9",
      "logs": [
        {
          "address": "0x9f03e390725216e38dbcb9106b4a6ec2611da7b2",
          "topics": [
            "0xddf252ad1be2c89b69c2b068fc378daa952ba7f163c4a11628f55a4df523b3ef",
            "0x0000000000000000000000000000000000000000000000000000000000000000",
            "0x00000000000000000000000084c29fb8b41f229ad09f4d68f84d676a28dc4a3a"
          ],
          "data": "0x00000000000000000000000000000000000000000000be9a84ce49d00d900000",
          "blockHash": "0x0ee0be583a4155ce77d149bccbe2c0c9a5172b78b6e6aa2cb21d944c6a07e221",
          "blockNumber": "0x1df22d9",
          "blockTimestamp": "0x6a610f35",
          "transactionHash": "0x46bd5e39e6fb6c52ad4e095647df6317c221aabdfd1b8a7e020b01dc2177fbd9",
          "transactionIndex": "0x2",
          "logIndex": "0x1",
          "removed": false
        }
      ],
      "logsBloom": "0x00000000000000000000000000000000000000000000000000000000000000000000000000000000000000000000000000000000001000000000000000000000000000000000000000000008100000000000000000000000000000000004000000000000020000000000000000000800000000000000000000010010000000001000000000000000000000000000000000000000000000000000000000000000000000000000000000000000000000000000000000000000000000000000000000000002000000000000000000000000000000000000000000000000000020000000000000000000000000000000000000200000000000000000000000000000",
      "transactionHash": "0x46bd5e39e6fb6c52ad4e095647df6317c221aabdfd1b8a7e020b01dc2177fbd9",
      "transactionIndex": "0x2",
      "blockHash": "0x0ee0be583a4155ce77d149bccbe2c0c9a5172b78b6e6aa2cb21d944c6a07e221",
      "blockNumber": "0x1df22d9",
      "gasUsed": "0x8d13",
      "effectiveGasPrice": "0xf433b",
      "blobGasUsed": "0x9c40",
      "from": "0x84c29fb8b41f229ad09f4d68f84d676a28dc4a3a",
      "to": "0x9f03e390725216e38dbcb9106b4a6ec2611da7b2",
      "contractAddress": null
    },
    {
      "type": "0x2",
      "status": "0x1",
      "cumulativeGasUsed": "0x143436",
      "logs": [
        {
          "address": "0x1ee1c3516eb72b79f2d6be419bf4ffad6088225e",
          "topics": [
            "0xddf252ad1be2c89b69c2b068fc378daa952ba7f163c4a11628f55a4df523b3ef",
            "0x0000000000000000000000000000000000000000000000000000000000000000",
            "0x00000000000000000000000084c29fb8b41f229ad09f4d68f84d676a28dc4a3a"
          ],
          "data": "0x00000000000000000000000000000000000000000000be9a84ce49d00d900000",
          "blockHash": "0x076d636437ecda883da91e4138c468315dd219ad2cb3f8b67d1179031fbb4601",
          "blockNumber": "0x1df22dc",
          "blockTimestamp": "0x6a610f38",
          "transactionHash": "0x5242c94a86830ebcb61589de778f5286e963e6e6fc9a307c318befe791604638",
          "transactionIndex": "0x13",
          "logIndex": "0x14",
          "removed": false
        }
      ],
      "logsBloom": "0x00000000000000000000000000000000000800000000000000000000000000000000000000000000000000000000000000000000000000000000000000000000000000000000000000000008100000000000000000000000000000000000000000000000020000000000000000000800000000000000000000010010000000000000000000000000000000000000000000000000000000000000000000000000000000000000000000000000000000000000040000000000000000000000000000000002000000000000000000400000000000000000000000000000000020000000000000000000000000000000000000200000000000000000000000000000",
      "transactionHash": "0x5242c94a86830ebcb61589de778f5286e963e6e6fc9a307c318befe791604638",
      "transactionIndex": "0x13",
      "blockHash": "0x076d636437ecda883da91e4138c468315dd219ad2cb3f8b67d1179031fbb4601",
      "blockNumber": "0x1df22dc",
      "gasUsed": "0x8d13",
      "effectiveGasPrice": "0xf433b",
      "blobGasUsed": "0x9c40",
      "from": "0x84c29fb8b41f229ad09f4d68f84d676a28dc4a3a",
      "to": "0x1ee1c3516eb72b79f2d6be419bf4ffad6088225e",
      "contractAddress": null
    },
    {
      "type": "0x2",
      "status": "0x1",
      "cumulativeGasUsed": "0x9d03f",
      "logs": [
        {
          "address": "0xdbfe78649585cf656d99f73a036093ca4dcf9ada",
          "topics": [
            "0xddf252ad1be2c89b69c2b068fc378daa952ba7f163c4a11628f55a4df523b3ef",
            "0x0000000000000000000000000000000000000000000000000000000000000000",
            "0x00000000000000000000000084c29fb8b41f229ad09f4d68f84d676a28dc4a3a"
          ],
          "data": "0x00000000000000000000000000000000000000000000be9a84ce49d00d900000",
          "blockHash": "0x92df3b93a01a8bc6757b8620cc0fbdc1dbf9d32731fc8665f9272efdc972b770",
          "blockNumber": "0x1df22df",
          "blockTimestamp": "0x6a610f3b",
          "transactionHash": "0x7af5c62a13d78bb105a6df75bfcd3cae1d65b4f63c78862991df96ed2048cfc1",
          "transactionIndex": "0x6",
          "logIndex": "0x5",
          "removed": false
        }
      ],
      "logsBloom": "0x00000000000000000000000000000000000000000000000000000000000000000000000000000000000000000000000000000000000000000000000000000000000000000000000000000008100000000000000000000000000000000000000000000000020000000000000000000800000000000000000000010010000000000000000000000000000000000000000000000000000000000000000000000000000000000000000000000000000000000000000000000000000000000000000000000002400000000000000000000000000000000000000000000000000020000000000000000000000000100000000000200000000800000000000000000000",
      "transactionHash": "0x7af5c62a13d78bb105a6df75bfcd3cae1d65b4f63c78862991df96ed2048cfc1",
      "transactionIndex": "0x6",
      "blockHash": "0x92df3b93a01a8bc6757b8620cc0fbdc1dbf9d32731fc8665f9272efdc972b770",
      "blockNumber": "0x1df22df",
      "gasUsed": "0x8d13",
      "effectiveGasPrice": "0xf433b",
      "blobGasUsed": "0x9c40",
      "from": "0x84c29fb8b41f229ad09f4d68f84d676a28dc4a3a",
      "to": "0xdbfe78649585cf656d99f73a036093ca4dcf9ada",
      "contractAddress": null
    },
    {
      "type": "0x2",
      "status": "0x1",
      "cumulativeGasUsed": "0x1419d",
      "logs": [
        {
          "address": "0x40405f98e2a646ebbfb5ab55806a0a118e04a286",
          "topics": [
            "0xddf252ad1be2c89b69c2b068fc378daa952ba7f163c4a11628f55a4df523b3ef",
            "0x0000000000000000000000000000000000000000000000000000000000000000",
            "0x00000000000000000000000084c29fb8b41f229ad09f4d68f84d676a28dc4a3a"
          ],
          "data": "0x0000000000000000000000000000000000000000000054b976e6e3593d100000",
          "blockHash": "0x9cf5cd6d15cb21498fd1e9919873160eb970fbab9c54c20645c57e8eef3f26b6",
          "blockNumber": "0x1df22e2",
          "blockTimestamp": "0x6a610f3e",
          "transactionHash": "0x8aac528a2f8b48c2737c03afc903bb7076cb67285c6817a54142a8c1f2d6c33d",
          "transactionIndex": "0x1",
          "logIndex": "0x0",
          "removed": false
        }
      ],
      "logsBloom": "0x00000000000000000000000000000000000000000000000000000000000000000000000000000000000000000000000000000000000000000000000000000000000000000000000000000008100000000000000000000000000000000000000000000000020000000000000000000800000000000000000000010010000000000000000000000000000000000000000000000000000000000000000000000000000000000000000000000001000000000000000000000000000000000000000000000002000000000000000000000000000000000000000020000000000020000000000000000000000000000040000000200000000000000000000000000000",
      "transactionHash": "0x8aac528a2f8b48c2737c03afc903bb7076cb67285c6817a54142a8c1f2d6c33d",
      "transactionIndex": "0x1",
      "blockHash": "0x9cf5cd6d15cb21498fd1e9919873160eb970fbab9c54c20645c57e8eef3f26b6",
      "blockNumber": "0x1df22e2",
      "gasUsed": "0x8d13",
      "effectiveGasPrice": "0xf433b",
      "blobGasUsed": "0x9c40",
      "from": "0x84c29fb8b41f229ad09f4d68f84d676a28dc4a3a",
      "to": "0x40405f98e2a646ebbfb5ab55806a0a118e04a286",
      "contractAddress": null
    },
    {
      "type": "0x2",
      "status": "0x1",
      "cumulativeGasUsed": "0x145e9c",
      "logs": [
        {
          "address": "0x48cafe7eb73330e07b9df0c61d4012ad0ad2c813",
          "topics": [
            "0xddf252ad1be2c89b69c2b068fc378daa952ba7f163c4a11628f55a4df523b3ef",
            "0x0000000000000000000000000000000000000000000000000000000000000000",
            "0x00000000000000000000000084c29fb8b41f229ad09f4d68f84d676a28dc4a3a"
          ],
          "data": "0x0000000000000000000000000000000000000000000054b976e6e3593d100000",
          "blockHash": "0xf22504a44016c577762cb38dc969936d1191fb907e449e283aa14ec9b428b57a",
          "blockNumber": "0x1df22e5",
          "blockTimestamp": "0x6a610f41",
          "transactionHash": "0x4fd5e69df2be61a554371252c67685031f5ca2a242459e309f8c91068422c605",
          "transactionIndex": "0x8",
          "logIndex": "0x9",
          "removed": false
        }
      ],
      "logsBloom": "0x00000000000000000000000000000000000000000000000000000000000000000000008000000000000000000000000000000000000000000000000000000000000000000000000000000008100000000000000000000000000000000000000000000000020000000000000000000800000000000000000000010010000000000000000000008000000000000000000000000000000000000000000000000000000000000000000000000010000000000000000000000000000000000000000000000002000000000000000000000000000000000000000000000000000020000000000000000000000000000000000000200000000000000000000000000000",
      "transactionHash": "0x4fd5e69df2be61a554371252c67685031f5ca2a242459e309f8c91068422c605",
      "transactionIndex": "0x8",
      "blockHash": "0xf22504a44016c577762cb38dc969936d1191fb907e449e283aa14ec9b428b57a",
      "blockNumber": "0x1df22e5",
      "gasUsed": "0x8d13",
      "effectiveGasPrice": "0xf433b",
      "blobGasUsed": "0x9c40",
      "from": "0x84c29fb8b41f229ad09f4d68f84d676a28dc4a3a",
      "to": "0x48cafe7eb73330e07b9df0c61d4012ad0ad2c813",
      "contractAddress": null
    },
    {
      "type": "0x2",
      "status": "0x1",
      "cumulativeGasUsed": "0x63f79",
      "logs": [
        {
          "address": "0x9f03e390725216e38dbcb9106b4a6ec2611da7b2",
          "topics": [
            "0x8c5be1e5ebec7d5bd14f71427d1e84f3dd0314c0f7b2291e5b200ac8c7c3b925",
            "0x00000000000000000000000084c29fb8b41f229ad09f4d68f84d676a28dc4a3a",
            "0x0000000000000000000000004e33aecec539b6c412145a5178693b0c867caa19"
          ],
          "data": "0x0000000000000000000000000000000000000000000054b40b1f852bda000000",
          "blockHash": "0x67f5174006264abdd27cad98dddf1c98e2e04e4d4de659a150777a979b0dd95e",
          "blockNumber": "0x1df22e8",
          "blockTimestamp": "0x6a610f44",
          "transactionHash": "0xd0d9a52713a6a6ac933011d0597d27415a6c4a4206796b9195c0835eeaf36aad",
          "transactionIndex": "0x5",
          "logIndex": "0xf",
          "removed": false
        }
      ],
      "logsBloom": "0x00000000000000000000200000000000000000000000000000000000000000000000000000000000000000000000000000000000001000000000000000200000000000000000000000008000100000000000000000000000000000000004000000000000000000000000000000000000000000000000000000010000000000001000000000000000000000000000000000000000000000000000000000000000020000000000000000000000000000000000000000000010000000000000000000000000000000000000000000000000000000000000000000000000000000000010000000000000000000000000000000200000000000000000000000000000",
      "transactionHash": "0xd0d9a52713a6a6ac933011d0597d27415a6c4a4206796b9195c0835eeaf36aad",
      "transactionIndex": "0x5",
      "blockHash": "0x67f5174006264abdd27cad98dddf1c98e2e04e4d4de659a150777a979b0dd95e",
      "blockNumber": "0x1df22e8",
      "gasUsed": "0xb3a7",
      "effectiveGasPrice": "0xf433b",
      "blobGasUsed": "0x9c40",
      "from": "0x84c29fb8b41f229ad09f4d68f84d676a28dc4a3a",
      "to": "0x9f03e390725216e38dbcb9106b4a6ec2611da7b2",
      "contractAddress": null
    },
    {
      "type": "0x2",
      "status": "0x1",
      "cumulativeGasUsed": "0x10d204",
      "logs": [
        {
          "address": "0x1ee1c3516eb72b79f2d6be419bf4ffad6088225e",
          "topics": [
            "0x8c5be1e5ebec7d5bd14f71427d1e84f3dd0314c0f7b2291e5b200ac8c7c3b925",
            "0x00000000000000000000000084c29fb8b41f229ad09f4d68f84d676a28dc4a3a",
            "0x0000000000000000000000004e33aecec539b6c412145a5178693b0c867caa19"
          ],
          "data": "0x0000000000000000000000000000000000000000000054b40b1f852bda000000",
          "blockHash": "0x7a985e4470fc081128eddc91cff5e86f7ae33e82ecd82a9ca45f24d06c949dff",
          "blockNumber": "0x1df22eb",
          "blockTimestamp": "0x6a610f47",
          "transactionHash": "0xd8535e9937631bf76972e32ec147dfbfe6952eb9a104a81b4ce035b1d45f6774",
          "transactionIndex": "0x7",
          "logIndex": "0x2",
          "removed": false
        }
      ],
      "logsBloom": "0x00000000000000000000200000000000000800000000000000000000000000000000000000000000000000000000000000000000000000000000000000200000000000000000000000008000100000000000000000000000000000000000000000000000000000000000000000000000000000000000000000010000000000000000000000000000000000000000000000000000000000000000000000000000020000000000000000000000000000000000040000000010000000000000000000000000000000000000000000400000000000000000000000000000000000000010000000000000000000000000000000200000000000000000000000000000",
      "transactionHash": "0xd8535e9937631bf76972e32ec147dfbfe6952eb9a104a81b4ce035b1d45f6774",
      "transactionIndex": "0x7",
      "blockHash": "0x7a985e4470fc081128eddc91cff5e86f7ae33e82ecd82a9ca45f24d06c949dff",
      "blockNumber": "0x1df22eb",
      "gasUsed": "0xb3a7",
      "effectiveGasPrice": "0xf433b",
      "blobGasUsed": "0x9c40",
      "from": "0x84c29fb8b41f229ad09f4d68f84d676a28dc4a3a",
      "to": "0x1ee1c3516eb72b79f2d6be419bf4ffad6088225e",
      "contractAddress": null
    },
    {
      "type": "0x2",
      "status": "0x1",
      "cumulativeGasUsed": "0x300946",
      "logs": [
        {
          "address": "0xdbfe78649585cf656d99f73a036093ca4dcf9ada",
          "topics": [
            "0x8c5be1e5ebec7d5bd14f71427d1e84f3dd0314c0f7b2291e5b200ac8c7c3b925",
            "0x00000000000000000000000084c29fb8b41f229ad09f4d68f84d676a28dc4a3a",
            "0x0000000000000000000000004e33aecec539b6c412145a5178693b0c867caa19"
          ],
          "data": "0x0000000000000000000000000000000000000000000054b40b1f852bda000000",
          "blockHash": "0x74b8b0c836a20b08ff10725376f42e33ef8b25e3ac7d27783ffe0e4d33f290ad",
          "blockNumber": "0x1df22ee",
          "blockTimestamp": "0x6a610f4a",
          "transactionHash": "0x35dd8265a7b9da8fccd47590a65731e42b04a3cc1e066cd61f9f8fda37720dda",
          "transactionIndex": "0xe",
          "logIndex": "0xa",
          "removed": false
        }
      ],
      "logsBloom": "0x00000000000000000000200000000000000000000000000000000000000000000000000000000000000000000000000000000000000000000000000000200000000000000000000000008000100000000000000000000000000000000000000000000000000000000000000000000000000000000000000000010000000000000000000000000000000000000000000000000000000000000000000000000000020000000000000000000000000000000000000000000010000000000000000000000000400000000000000000000000000000000000000000000000000000000010000000000000000000100000000000200000000800000000000000000000",
      "transactionHash": "0x35dd8265a7b9da8fccd47590a65731e42b04a3cc1e066cd61f9f8fda37720dda",
      "transactionIndex": "0xe",
      "blockHash": "0x74b8b0c836a20b08ff10725376f42e33ef8b25e3ac7d27783ffe0e4d33f290ad",
      "blockNumber": "0x1df22ee",
      "gasUsed": "0xb3a7",
      "effectiveGasPrice": "0xf433b",
      "blobGasUsed": "0x9c40",
      "from": "0x84c29fb8b41f229ad09f4d68f84d676a28dc4a3a",
      "to": "0xdbfe78649585cf656d99f73a036093ca4dcf9ada",
      "contractAddress": null
    },
    {
      "type": "0x2",
      "status": "0x1",
      "cumulativeGasUsed": "0xb7725",
      "logs": [
        {
          "address": "0x40405f98e2a646ebbfb5ab55806a0a118e04a286",
          "topics": [
            "0x8c5be1e5ebec7d5bd14f71427d1e84f3dd0314c0f7b2291e5b200ac8c7c3b925",
            "0x00000000000000000000000084c29fb8b41f229ad09f4d68f84d676a28dc4a3a",
            "0x0000000000000000000000004e33aecec539b6c412145a5178693b0c867caa19"
          ],
          "data": "0x0000000000000000000000000000000000000000000054b40b1f852bda000000",
          "blockHash": "0x16681e92df3664c9fb4971838eb5b5d2cde48080704c19c5d791051e6285f1dc",
          "blockNumber": "0x1df22f1",
          "blockTimestamp": "0x6a610f4d",
          "transactionHash": "0xd665f706e80469278d2fd5307215cf91ecfd83571da44fe0668de34e127988af",
          "transactionIndex": "0x7",
          "logIndex": "0x4",
          "removed": false
        }
      ],
      "logsBloom": "0x00000000000000000000200000000000000000000000000000000000000000000000000000000000000000000000000000000000000000000000000000200000000000000000000000008000100000000000000000000000000000000000000000000000000000000000000000000000000000000000000000010000000000000000000000000000000000000000000000000000000000000000000000000000020000000000000000000001000000000000000000000010000000000000000000000000000000000000000000000000000000000000000020000000000000000010000000000000000000000040000000200000000000000000000000000000",
      "transactionHash": "0xd665f706e80469278d2fd5307215cf91ecfd83571da44fe0668de34e127988af",
      "transactionIndex": "0x7",
      "blockHash": "0x16681e92df3664c9fb4971838eb5b5d2cde48080704c19c5d791051e6285f1dc",
      "blockNumber": "0x1df22f1",
      "gasUsed": "0xb3a7",
      "effectiveGasPrice": "0xf433b",
      "blobGasUsed": "0x9c40",
      "from": "0x84c29fb8b41f229ad09f4d68f84d676a28dc4a3a",
      "to": "0x40405f98e2a646ebbfb5ab55806a0a118e04a286",
      "contractAddress": null
    },
    {
      "type": "0x2",
      "status": "0x1",
      "cumulativeGasUsed": "0x856fa",
      "logs": [
        {
          "address": "0x48cafe7eb73330e07b9df0c61d4012ad0ad2c813",
          "topics": [
            "0x8c5be1e5ebec7d5bd14f71427d1e84f3dd0314c0f7b2291e5b200ac8c7c3b925",
            "0x00000000000000000000000084c29fb8b41f229ad09f4d68f84d676a28dc4a3a",
            "0x0000000000000000000000004e33aecec539b6c412145a5178693b0c867caa19"
          ],
          "data": "0x0000000000000000000000000000000000000000000054b40b1f852bda000000",
          "blockHash": "0xcd565a9a7b47ed93f2f50b84c8a23ba4bdffa84f4e7ff3e3618be4db04196e83",
          "blockNumber": "0x1df22f4",
          "blockTimestamp": "0x6a610f50",
          "transactionHash": "0x1f613aec512f9774580fb63be0cc1e6cadd72564641a27b8f70cc0b20ff951b3",
          "transactionIndex": "0x5",
          "logIndex": "0xf",
          "removed": false
        }
      ],
      "logsBloom": "0x00000000000000000000200000000000000000000000000000000000000000000000008000000000000000000000000000000000000000000000000000200000000000000000000000008000100000000000000000000000000000000000000000000000000000000000000000000000000000000000000000010000000000000000000000008000000000000000000000000000000000000000000000000000020000000000000000000010000000000000000000000010000000000000000000000000000000000000000000000000000000000000000000000000000000000010000000000000000000000000000000200000000000000000000000000000",
      "transactionHash": "0x1f613aec512f9774580fb63be0cc1e6cadd72564641a27b8f70cc0b20ff951b3",
      "transactionIndex": "0x5",
      "blockHash": "0xcd565a9a7b47ed93f2f50b84c8a23ba4bdffa84f4e7ff3e3618be4db04196e83",
      "blockNumber": "0x1df22f4",
      "gasUsed": "0xb3a7",
      "effectiveGasPrice": "0xf433b",
      "blobGasUsed": "0x9c40",
      "from": "0x84c29fb8b41f229ad09f4d68f84d676a28dc4a3a",
      "to": "0x48cafe7eb73330e07b9df0c61d4012ad0ad2c813",
      "contractAddress": null
    },
    {
      "type": "0x2",
      "status": "0x1",
      "cumulativeGasUsed": "0xf0ccc",
      "logs": [
        {
          "address": "0x9f03e390725216e38dbcb9106b4a6ec2611da7b2",
          "topics": [
            "0xddf252ad1be2c89b69c2b068fc378daa952ba7f163c4a11628f55a4df523b3ef",
            "0x00000000000000000000000084c29fb8b41f229ad09f4d68f84d676a28dc4a3a",
            "0x0000000000000000000000004e33aecec539b6c412145a5178693b0c867caa19"
          ],
          "data": "0x0000000000000000000000000000000000000000000054b40b1f852bda000000",
          "blockHash": "0xad5a1d7ced15eb95adfe1d1536cee53ab3798e0df0a2c5c76685e1018297b14a",
          "blockNumber": "0x1df22f7",
          "blockTimestamp": "0x6a610f53",
          "transactionHash": "0x42ef6beb7f0d5839b327a7ca008783fa1ffe614972ae208ba96c98d4ed21e555",
          "transactionIndex": "0xa",
          "logIndex": "0x7",
          "removed": false
        }
      ],
      "logsBloom": "0x00000000000000000000200000000000000000000000000000000000000000000000000000000000000000000000000000000000001000000000000000000000000000000000000000008008100000000000000000000000000000000004000000000000000000000000000000000000000000000000000000010010000000001000000000000000000000000000000000000000000000000000000000000000000000000000000000000000000000000000000000000010000000000000000000000002000000000000000000000000000000000000000000000000000000000000000000000000000000000000000000200000000000000000000000000000",
      "transactionHash": "0x42ef6beb7f0d5839b327a7ca008783fa1ffe614972ae208ba96c98d4ed21e555",
      "transactionIndex": "0xa",
      "blockHash": "0xad5a1d7ced15eb95adfe1d1536cee53ab3798e0df0a2c5c76685e1018297b14a",
      "blockNumber": "0x1df22f7",
      "gasUsed": "0xe01b",
      "effectiveGasPrice": "0xf433b",
      "blobGasUsed": "0x9c40",
      "from": "0x84c29fb8b41f229ad09f4d68f84d676a28dc4a3a",
      "to": "0x4e33aecec539b6c412145a5178693b0c867caa19",
      "contractAddress": null
    },
    {
      "type": "0x2",
      "status": "0x1",
      "cumulativeGasUsed": "0x15b99c",
      "logs": [
        {
          "address": "0x1ee1c3516eb72b79f2d6be419bf4ffad6088225e",
          "topics": [
            "0xddf252ad1be2c89b69c2b068fc378daa952ba7f163c4a11628f55a4df523b3ef",
            "0x00000000000000000000000084c29fb8b41f229ad09f4d68f84d676a28dc4a3a",
            "0x0000000000000000000000004e33aecec539b6c412145a5178693b0c867caa19"
          ],
          "data": "0x0000000000000000000000000000000000000000000054b40b1f852bda000000",
          "blockHash": "0x06ecbfb2b4ebbecdf8b088c376082c775ea2bfec106cc8ddaba186bd84708dc2",
          "blockNumber": "0x1df22fa",
          "blockTimestamp": "0x6a610f56",
          "transactionHash": "0xf72ca61f70b3cfe457bc6ffaf082eaab7abc87e44f081c2a177f99a615ff13d0",
          "transactionIndex": "0xb",
          "logIndex": "0x9",
          "removed": false
        }
      ],
      "logsBloom": "0x00000000000000000000200000000000000800000000000000000000000000000000000000000000000000000000000000000000000000000000000000000000000000000000000000008008100000000000000000000000000000000000000000000000000000000000000000000000000000000000000000010010000000000000000000000000000000000000000000000000000000000000000000000000000000000000000000000000000000000000040000000010000000000000000000000002000000000000000000400000000000000000000000000000000000000000000000000000000000000000000000200000000000000000000000000000",
      "transactionHash": "0xf72ca61f70b3cfe457bc6ffaf082eaab7abc87e44f081c2a177f99a615ff13d0",
      "transactionIndex": "0xb",
      "blockHash": "0x06ecbfb2b4ebbecdf8b088c376082c775ea2bfec106cc8ddaba186bd84708dc2",
      "blockNumber": "0x1df22fa",
      "gasUsed": "0xe01b",
      "effectiveGasPrice": "0xf433b",
      "blobGasUsed": "0x9c40",
      "from": "0x84c29fb8b41f229ad09f4d68f84d676a28dc4a3a",
      "to": "0x4e33aecec539b6c412145a5178693b0c867caa19",
      "contractAddress": null
    },
    {
      "type": "0x2",
      "status": "0x1",
      "cumulativeGasUsed": "0x4749b",
      "logs": [
        {
          "address": "0xdbfe78649585cf656d99f73a036093ca4dcf9ada",
          "topics": [
            "0xddf252ad1be2c89b69c2b068fc378daa952ba7f163c4a11628f55a4df523b3ef",
            "0x00000000000000000000000084c29fb8b41f229ad09f4d68f84d676a28dc4a3a",
            "0x0000000000000000000000004e33aecec539b6c412145a5178693b0c867caa19"
          ],
          "data": "0x0000000000000000000000000000000000000000000054b40b1f852bda000000",
          "blockHash": "0x848578f9cb6738f620fb9c2ed2d0c221b9c303c83181dc103e1aa0b9db906636",
          "blockNumber": "0x1df22fd",
          "blockTimestamp": "0x6a610f59",
          "transactionHash": "0x438f59a76172325f37878fb35ebd8a7f8f4dfe84be4b993affb30cb1f1b97e04",
          "transactionIndex": "0x3",
          "logIndex": "0x4",
          "removed": false
        }
      ],
      "logsBloom": "0x00000000000000000000200000000000000000000000000000000000000000000000000000000000000000000000000000000000000000000000000000000000000000000000000000008008100000000000000000000000000000000000000000000000000000000000000000000000000000000000000000010010000000000000000000000000000000000000000000000000000000000000000000000000000000000000000000000000000000000000000000000010000000000000000000000002400000000000000000000000000000000000000000000000000000000000000000000000000000100000000000200000000800000000000000000000",
      "transactionHash": "0x438f59a76172325f37878fb35ebd8a7f8f4dfe84be4b993affb30cb1f1b97e04",
      "transactionIndex": "0x3",
      "blockHash": "0x848578f9cb6738f620fb9c2ed2d0c221b9c303c83181dc103e1aa0b9db906636",
      "blockNumber": "0x1df22fd",
      "gasUsed": "0xe01b",
      "effectiveGasPrice": "0xf433b",
      "blobGasUsed": "0x9c40",
      "from": "0x84c29fb8b41f229ad09f4d68f84d676a28dc4a3a",
      "to": "0x4e33aecec539b6c412145a5178693b0c867caa19",
      "contractAddress": null
    },
    {
      "type": "0x2",
      "status": "0x1",
      "cumulativeGasUsed": "0x6455e",
      "logs": [
        {
          "address": "0x40405f98e2a646ebbfb5ab55806a0a118e04a286",
          "topics": [
            "0xddf252ad1be2c89b69c2b068fc378daa952ba7f163c4a11628f55a4df523b3ef",
            "0x00000000000000000000000084c29fb8b41f229ad09f4d68f84d676a28dc4a3a",
            "0x0000000000000000000000004e33aecec539b6c412145a5178693b0c867caa19"
          ],
          "data": "0x0000000000000000000000000000000000000000000054b40b1f852bda000000",
          "blockHash": "0xf28d1939dbd3c5227b4cb5869047653b33d7c0ed7f505ce670093ae4733b3bb4",
          "blockNumber": "0x1df2300",
          "blockTimestamp": "0x6a610f5c",
          "transactionHash": "0xd3a2f4ebf403e7c3023ee5f5149671f95f90e8227616d15372408ad379d3d458",
          "transactionIndex": "0x5",
          "logIndex": "0x3",
          "removed": false
        }
      ],
      "logsBloom": "0x00000000000000000000200000000000000000000000000000000000000000000000000000000000000000000000000000000000000000000000000000000000000000000000000000008008100000000000000000000000000000000000000000000000000000000000000000000000000000000000000000010010000000000000000000000000000000000000000000000000000000000000000000000000000000000000000000000001000000000000000000000010000000000000000000000002000000000000000000000000000000000000000020000000000000000000000000000000000000000040000000200000000000000000000000000000",
      "transactionHash": "0xd3a2f4ebf403e7c3023ee5f5149671f95f90e8227616d15372408ad379d3d458",
      "transactionIndex": "0x5",
      "blockHash": "0xf28d1939dbd3c5227b4cb5869047653b33d7c0ed7f505ce670093ae4733b3bb4",
      "blockNumber": "0x1df2300",
      "gasUsed": "0xe01b",
      "effectiveGasPrice": "0xf433b",
      "blobGasUsed": "0x9c40",
      "from": "0x84c29fb8b41f229ad09f4d68f84d676a28dc4a3a",
      "to": "0x4e33aecec539b6c412145a5178693b0c867caa19",
      "contractAddress": null
    },
    {
      "type": "0x2",
      "status": "0x1",
      "cumulativeGasUsed": "0x57c6b",
      "logs": [
        {
          "address": "0x48cafe7eb73330e07b9df0c61d4012ad0ad2c813",
          "topics": [
            "0xddf252ad1be2c89b69c2b068fc378daa952ba7f163c4a11628f55a4df523b3ef",
            "0x00000000000000000000000084c29fb8b41f229ad09f4d68f84d676a28dc4a3a",
            "0x0000000000000000000000004e33aecec539b6c412145a5178693b0c867caa19"
          ],
          "data": "0x0000000000000000000000000000000000000000000054b40b1f852bda000000",
          "blockHash": "0xf448c7a1a6728c77e45883645e45279e7479c20fa9f3029d098afa1f8c448de3",
          "blockNumber": "0x1df2303",
          "blockTimestamp": "0x6a610f5f",
          "transactionHash": "0xeb6a7d4456a9abb9d8a3cc26ce576062560efa29620fae6a1ec6892cfbd167d2",
          "transactionIndex": "0x3",
          "logIndex": "0x2",
          "removed": false
        }
      ],
      "logsBloom": "0x00000000000000000000200000000000000000000000000000000000000000000000008000000000000000000000000000000000000000000000000000000000000000000000000000008008100000000000000000000000000000000000000000000000000000000000000000000000000000000000000000010010000000000000000000008000000000000000000000000000000000000000000000000000000000000000000000000010000000000000000000000010000000000000000000000002000000000000000000000000000000000000000000000000000000000000000000000000000000000000000000200000000000000000000000000000",
      "transactionHash": "0xeb6a7d4456a9abb9d8a3cc26ce576062560efa29620fae6a1ec6892cfbd167d2",
      "transactionIndex": "0x3",
      "blockHash": "0xf448c7a1a6728c77e45883645e45279e7479c20fa9f3029d098afa1f8c448de3",
      "blockNumber": "0x1df2303",
      "gasUsed": "0xe01b",
      "effectiveGasPrice": "0xf433b",
      "blobGasUsed": "0x9c40",
      "from": "0x84c29fb8b41f229ad09f4d68f84d676a28dc4a3a",
      "to": "0x4e33aecec539b6c412145a5178693b0c867caa19",
      "contractAddress": null
    },
    {
      "type": "0x2",
      "status": "0x1",
      "cumulativeGasUsed": "0x40eee",
      "logs": [
        {
          "address": "0x4e33aecec539b6c412145a5178693b0c867caa19",
          "topics": [
            "0xc22e16deec6f587d0a1aad7275c1621e6c24431fea14dd71e8f3243e9fbc5ca3"
          ],
          "data": "0x0000000000000000000000000000000000000000000000056bc75e2d631000000000000000000000000000000000000000000000000000056bc75e2d63100000",
          "blockHash": "0xc3d421729a8c1f2f61d0274e9996b484bdec0861634bffeb518bdd06b257732b",
          "blockNumber": "0x1df2306",
          "blockTimestamp": "0x6a610f62",
          "transactionHash": "0x2b7f9e6a38a06888bbdda097e8c1eac92be1780a14fefc20491e77879b6b1c0f",
          "transactionIndex": "0x3",
          "logIndex": "0x1",
          "removed": false
        }
      ],
      "logsBloom": "0x00000000000000000000000000000000000000000000000000000000000000200000000000000000000000000000000000000000000000000000000800000000000000000000000000000000000000000000000000000000000000000000000000000000000000000000000000000000000000000000000000000000000000000000000000000001000000000000000000000000000000000000000000000000000000000000000000000000000000000000000000000000000000000000100001000000000004000000000000000000000000000000000000000000000000000000000000000000000000000000000000000000000000000000000000000000",
      "transactionHash": "0x2b7f9e6a38a06888bbdda097e8c1eac92be1780a14fefc20491e77879b6b1c0f",
      "transactionIndex": "0x3",
      "blockHash": "0xc3d421729a8c1f2f61d0274e9996b484bdec0861634bffeb518bdd06b257732b",
      "blockNumber": "0x1df2306",
      "gasUsed": "0x6bc9",
      "effectiveGasPrice": "0xf433b",
      "blobGasUsed": "0x9c40",
      "from": "0x84c29fb8b41f229ad09f4d68f84d676a28dc4a3a",
      "to": "0x4e33aecec539b6c412145a5178693b0c867caa19",
      "contractAddress": null
    },
    {
      "type": "0x2",
      "status": "0x1",
      "cumulativeGasUsed": "0x80629",
      "logs": [
        {
          "address": "0x4e33aecec539b6c412145a5178693b0c867caa19",
          "topics": [
            "0x3fca42c6c8b5fed56d74db2d1bdb8779af1f129431f3517018ca13f6904b0637"
          ],
          "data": "0x0000000000000000000000000000000000000000000000056bc75e2d6310000000000000000000000000000000000000000000000000001b1ae4d6e2ef500000",
          "blockHash": "0x2c1e6b827c658f92d6eb687e0e73bb062843e594df256ab9259d83ec21dcbf03",
          "blockNumber": "0x1df2309",
          "blockTimestamp": "0x6a610f65",
          "transactionHash": "0x476a3df5a8c75c08299e04463879177edcc6c2f934bcdaa540de74582b81ba85",
          "transactionIndex": "0x5",
          "logIndex": "0x3",
          "removed": false
        }
      ],
      "logsBloom": "0x00000000000000000000000000000000000000000000000000000000000000200000000000000000000000000000000000000000000000000000000000000000000000000000000000000000000000000000000000000000000000000000200000000000000000000000000000000000000000000000000000000000000000000000000000000000000000000000000000000000000000000000000000000000000000000000000000000000000000000000000000000000000000000000000001000000000004000000000000000000000000000000000000000000000000008000000000000000000000000000000200000000000000000000000000000000",
      "transactionHash": "0x476a3df5a8c75c08299e04463879177edcc6c2f934bcdaa540de74582b81ba85",
      "transactionIndex": "0x5",
      "blockHash": "0x2c1e6b827c658f92d6eb687e0e73bb062843e594df256ab9259d83ec21dcbf03",
      "blockNumber": "0x1df2309",
      "gasUsed": "0x76fb",
      "effectiveGasPrice": "0xf433b",
      "blobGasUsed": "0x9c40",
      "from": "0x84c29fb8b41f229ad09f4d68f84d676a28dc4a3a",
      "to": "0x4e33aecec539b6c412145a5178693b0c867caa19",
      "contractAddress": null
    },
    {
      "type": "0x2",
      "status": "0x1",
      "cumulativeGasUsed": "0x1cecfa",
      "logs": [
        {
          "address": "0x4e33aecec539b6c412145a5178693b0c867caa19",
          "topics": [
            "0x5953b565c074c2cce1866b4e69c9efc4908556bb6fca70f735907c94d9405515"
          ],
          "data": "0x00000000000000000000000000000000000000000000000000000000000151800000000000000000000000000000000000000000000000000000000000015180",
          "blockHash": "0x960fa82a40d7ac671372d3da1349a76a67197c6399beb18c1c3ce7f251bcce18",
          "blockNumber": "0x1df230c",
          "blockTimestamp": "0x6a610f68",
          "transactionHash": "0xc089edde1646e03e8d836929b38301bda373ff5408e16d645c826cc52d4c9e80",
          "transactionIndex": "0xd",
          "logIndex": "0xa",
          "removed": false
        }
      ],
      "logsBloom": "0x00000000000000000000000000000000000000000000000000000000000000200000002000000000000000000000000000000000000000000000000000000000000000000000000000000000000000000000000000000000000000000000000000000000000000000000000000000000000000000000000000000000000000000000000000000000000000000000000000000000000000000000000000000000000000000000000000000000000000000000000000000040000000000000000001000000000004000000000000000000000000000000000000000000000000000000000000000000040000000000000000000000000000000000000000000000",
      "transactionHash": "0xc089edde1646e03e8d836929b38301bda373ff5408e16d645c826cc52d4c9e80",
      "transactionIndex": "0xd",
      "blockHash": "0x960fa82a40d7ac671372d3da1349a76a67197c6399beb18c1c3ce7f251bcce18",
      "blockNumber": "0x1df230c",
      "gasUsed": "0x6a23",
      "effectiveGasPrice": "0xf433b",
      "blobGasUsed": "0x9c40",
      "from": "0x84c29fb8b41f229ad09f4d68f84d676a28dc4a3a",
      "to": "0x4e33aecec539b6c412145a5178693b0c867caa19",
      "contractAddress": null
    },
    {
      "type": "0x2",
      "status": "0x1",
      "cumulativeGasUsed": "0xab55d",
      "logs": [
        {
          "address": "0x9f03e390725216e38dbcb9106b4a6ec2611da7b2",
          "topics": [
            "0x8c5be1e5ebec7d5bd14f71427d1e84f3dd0314c0f7b2291e5b200ac8c7c3b925",
            "0x00000000000000000000000084c29fb8b41f229ad09f4d68f84d676a28dc4a3a",
            "0x000000000000000000000000176a8a769a7c03e2140b7fb47c6d664af977b64c"
          ],
          "data": "0x0000000000000000000000000000000000000000000069e10de76676d0800000",
          "blockHash": "0x19cc73c62593b5d104a645b3fca6331a7154fb1352c90b2e5b19571dedd8318a",
          "blockNumber": "0x1df230f",
          "blockTimestamp": "0x6a610f6b",
          "transactionHash": "0xd87a67e2f1aecf333ed94c8d48be00373d8b4e41375e4832cbb10f59ddb513fb",
          "transactionIndex": "0x7",
          "logIndex": "0x4",
          "removed": false
        }
      ],
      "logsBloom": "0x00000000000000000000000000000000000000000000000000000000000000000000000000000000000000000000000000000000001000000000000000200000000000000000000000000000100000000000000000000000000000000004000000000000000000000000000000000000002000000000000004010000000000001000000000000000000000000000000000000000000000000000000000000000020000000000000000000000000000000000000000000000000000000000000000000000100000000000000000000000000000000000000000000000000000000010000000000000000000000000000000200000000000000000000000000000",
      "transactionHash": "0xd87a67e2f1aecf333ed94c8d48be00373d8b4e41375e4832cbb10f59ddb513fb",
      "transactionIndex": "0x7",
      "blockHash": "0x19cc73c62593b5d104a645b3fca6331a7154fb1352c90b2e5b19571dedd8318a",
      "blockNumber": "0x1df230f",
      "gasUsed": "0xb3b3",
      "effectiveGasPrice": "0xf433b",
      "blobGasUsed": "0x9c40",
      "from": "0x84c29fb8b41f229ad09f4d68f84d676a28dc4a3a",
      "to": "0x9f03e390725216e38dbcb9106b4a6ec2611da7b2",
      "contractAddress": null
    },
    {
      "type": "0x2",
      "status": "0x1",
      "cumulativeGasUsed": "0x161bb5",
      "logs": [
        {
          "address": "0x1ee1c3516eb72b79f2d6be419bf4ffad6088225e",
          "topics": [
            "0x8c5be1e5ebec7d5bd14f71427d1e84f3dd0314c0f7b2291e5b200ac8c7c3b925",
            "0x00000000000000000000000084c29fb8b41f229ad09f4d68f84d676a28dc4a3a",
            "0x000000000000000000000000176a8a769a7c03e2140b7fb47c6d664af977b64c"
          ],
          "data": "0x0000000000000000000000000000000000000000000069e10de76676d0800000",
          "blockHash": "0x51ad417defdfc8d1f456771770120a03d821cf8f06a1fc05bc2862205c9bbe17",
          "blockNumber": "0x1df2312",
          "blockTimestamp": "0x6a610f6e",
          "transactionHash": "0x4f0e1aa5e5aeec1f471bfbd25ec3e89e65e6f5287ed2b3fadb7008dbd61e7028",
          "transactionIndex": "0x7",
          "logIndex": "0x5",
          "removed": false
        }
      ],
      "logsBloom": "0x00000000000000000000000000000000000800000000000000000000000000000000000000000000000000000000000000000000000000000000000000200000000000000000000000000000100000000000000000000000000000000000000000000000000000000000000000000000002000000000000004010000000000000000000000000000000000000000000000000000000000000000000000000000020000000000000000000000000000000000040000000000000000000000000000000000100000000000000000400000000000000000000000000000000000000010000000000000000000000000000000200000000000000000000000000000",
      "transactionHash": "0x4f0e1aa5e5aeec1f471bfbd25ec3e89e65e6f5287ed2b3fadb7008dbd61e7028",
      "transactionIndex": "0x7",
      "blockHash": "0x51ad417defdfc8d1f456771770120a03d821cf8f06a1fc05bc2862205c9bbe17",
      "blockNumber": "0x1df2312",
      "gasUsed": "0xb3b3",
      "effectiveGasPrice": "0xf433b",
      "blobGasUsed": "0x9c40",
      "from": "0x84c29fb8b41f229ad09f4d68f84d676a28dc4a3a",
      "to": "0x1ee1c3516eb72b79f2d6be419bf4ffad6088225e",
      "contractAddress": null
    },
    {
      "type": "0x2",
      "status": "0x1",
      "cumulativeGasUsed": "0x6a3f0",
      "logs": [
        {
          "address": "0xdbfe78649585cf656d99f73a036093ca4dcf9ada",
          "topics": [
            "0x8c5be1e5ebec7d5bd14f71427d1e84f3dd0314c0f7b2291e5b200ac8c7c3b925",
            "0x00000000000000000000000084c29fb8b41f229ad09f4d68f84d676a28dc4a3a",
            "0x000000000000000000000000176a8a769a7c03e2140b7fb47c6d664af977b64c"
          ],
          "data": "0x0000000000000000000000000000000000000000000069e10de76676d0800000",
          "blockHash": "0x1a8b2c268d2a9779ac3731a659642b83e25285f7457d677846c087041e9372a7",
          "blockNumber": "0x1df2315",
          "blockTimestamp": "0x6a610f71",
          "transactionHash": "0x942edccf732f207719adcccc82faa79ec684291e5346e06dc737d083249af557",
          "transactionIndex": "0x4",
          "logIndex": "0x2",
          "removed": false
        }
      ],
      "logsBloom": "0x00000000000000000000000000000000000000000000000000000000000000000000000000000000000000000000000000000000000000000000000000200000000000000000000000000000100000000000000000000000000000000000000000000000000000000000000000000000002000000000000004010000000000000000000000000000000000000000000000000000000000000000000000000000020000000000000000000000000000000000000000000000000000000000000000000000500000000000000000000000000000000000000000000000000000000010000000000000000000100000000000200000000800000000000000000000",
      "transactionHash": "0x942edccf732f207719adcccc82faa79ec684291e5346e06dc737d083249af557",
      "transactionIndex": "0x4",
      "blockHash": "0x1a8b2c268d2a9779ac3731a659642b83e25285f7457d677846c087041e9372a7",
      "blockNumber": "0x1df2315",
      "gasUsed": "0xb3b3",
      "effectiveGasPrice": "0xf433b",
      "blobGasUsed": "0x9c40",
      "from": "0x84c29fb8b41f229ad09f4d68f84d676a28dc4a3a",
      "to": "0xdbfe78649585cf656d99f73a036093ca4dcf9ada",
      "contractAddress": null
    },
    {
      "type": "0x2",
      "status": "0x1",
      "cumulativeGasUsed": "0x16d7ea",
      "logs": [
        {
          "address": "0x9f03e390725216e38dbcb9106b4a6ec2611da7b2",
          "topics": [
            "0xddf252ad1be2c89b69c2b068fc378daa952ba7f163c4a11628f55a4df523b3ef",
            "0x00000000000000000000000084c29fb8b41f229ad09f4d68f84d676a28dc4a3a",
            "0x000000000000000000000000176a8a769a7c03e2140b7fb47c6d664af977b64c"
          ],
          "data": "0x000000000000000000000000000000000000000000002a5a058fc295ed000000",
          "blockHash": "0x4e717d70a609b3e5e2ac47762f1b2f0ee4d9088f3ca49873ecb1c240c88d43d0",
          "blockNumber": "0x1df2318",
          "blockTimestamp": "0x6a610f74",
          "transactionHash": "0x8b64cdfb4a1d99f6e2dbc8cb937b114c222d033a21a0e4750b6257f7e830a7a7",
          "transactionIndex": "0xb",
          "logIndex": "0xf",
          "removed": false
        },
        {
          "address": "0x1ee1c3516eb72b79f2d6be419bf4ffad6088225e",
          "topics": [
            "0xddf252ad1be2c89b69c2b068fc378daa952ba7f163c4a11628f55a4df523b3ef",
            "0x00000000000000000000000084c29fb8b41f229ad09f4d68f84d676a28dc4a3a",
            "0x000000000000000000000000176a8a769a7c03e2140b7fb47c6d664af977b64c"
          ],
          "data": "0x000000000000000000000000000000000000000000002a5a058fc295ed000000",
          "blockHash": "0x4e717d70a609b3e5e2ac47762f1b2f0ee4d9088f3ca49873ecb1c240c88d43d0",
          "blockNumber": "0x1df2318",
          "blockTimestamp": "0x6a610f74",
          "transactionHash": "0x8b64cdfb4a1d99f6e2dbc8cb937b114c222d033a21a0e4750b6257f7e830a7a7",
          "transactionIndex": "0xb",
          "logIndex": "0x10",
          "removed": false
        },
        {
          "address": "0x176a8a769a7c03e2140b7fb47c6d664af977b64c",
          "topics": [
            "0x36f3b2e1a21c19137dd82ec243b0708a1d26b3d1fa1dc49c44c4c366a5878138",
            "0x0000000000000000000000009f03e390725216e38dbcb9106b4a6ec2611da7b2",
            "0x0000000000000000000000001ee1c3516eb72b79f2d6be419bf4ffad6088225e"
          ],
          "data": "0x000000000000000000000000000000000000000000002a5a058fc295ed000000000000000000000000000000000000000000000000002a5a058fc295ed000000",
          "blockHash": "0x4e717d70a609b3e5e2ac47762f1b2f0ee4d9088f3ca49873ecb1c240c88d43d0",
          "blockNumber": "0x1df2318",
          "blockTimestamp": "0x6a610f74",
          "transactionHash": "0x8b64cdfb4a1d99f6e2dbc8cb937b114c222d033a21a0e4750b6257f7e830a7a7",
          "transactionIndex": "0xb",
          "logIndex": "0x11",
          "removed": false
        }
      ],
      "logsBloom": "0x00000000000000000000000000000000000800000000000000000000000000000020000000000000000000000000000000000000001000000000000000004000000000000000000000000008100000000000000080000000000000000004000000000000000000000000000000001000002000000000000004010010000000001000000000000000000000000000000004000000000000000000000000000000000080000000000000000000000002000000040400000010000000000040000000000002100000000000004000400000000000000000000000000000000000000000000000000000000000000000000000200000000000000000000000200000",
      "transactionHash": "0x8b64cdfb4a1d99f6e2dbc8cb937b114c222d033a21a0e4750b6257f7e830a7a7",
      "transactionIndex": "0xb",
      "blockHash": "0x4e717d70a609b3e5e2ac47762f1b2f0ee4d9088f3ca49873ecb1c240c88d43d0",
      "blockNumber": "0x1df2318",
      "gasUsed": "0x1f0c4",
      "effectiveGasPrice": "0xf433b",
      "blobGasUsed": "0xb9f0",
      "from": "0x84c29fb8b41f229ad09f4d68f84d676a28dc4a3a",
      "to": "0x176a8a769a7c03e2140b7fb47c6d664af977b64c",
      "contractAddress": null
    },
    {
      "type": "0x2",
      "status": "0x1",
      "cumulativeGasUsed": "0x110d9c",
      "logs": [
        {
          "address": "0x9f03e390725216e38dbcb9106b4a6ec2611da7b2",
          "topics": [
            "0xddf252ad1be2c89b69c2b068fc378daa952ba7f163c4a11628f55a4df523b3ef",
            "0x00000000000000000000000084c29fb8b41f229ad09f4d68f84d676a28dc4a3a",
            "0x000000000000000000000000176a8a769a7c03e2140b7fb47c6d664af977b64c"
          ],
          "data": "0x00000000000000000000000000000000000000000000152d02c7e14af6800000",
          "blockHash": "0x9c9b337df871f7ab6ed3eed19f9470ccd99ae8d1616dc9461dbd0771c6fd097b",
          "blockNumber": "0x1df231b",
          "blockTimestamp": "0x6a610f77",
          "transactionHash": "0xf7921433cabe37c8ed57fa7219482ff16c04041907e5bd6855e65be55a71781d",
          "transactionIndex": "0x4",
          "logIndex": "0x2",
          "removed": false
        },
        {
          "address": "0xdbfe78649585cf656d99f73a036093ca4dcf9ada",
          "topics": [
            "0xddf252ad1be2c89b69c2b068fc378daa952ba7f163c4a11628f55a4df523b3ef",
            "0x00000000000000000000000084c29fb8b41f229ad09f4d68f84d676a28dc4a3a",
            "0x000000000000000000000000176a8a769a7c03e2140b7fb47c6d664af977b64c"
          ],
          "data": "0x00000000000000000000000000000000000000000000152d02c7e14af6800000",
          "blockHash": "0x9c9b337df871f7ab6ed3eed19f9470ccd99ae8d1616dc9461dbd0771c6fd097b",
          "blockNumber": "0x1df231b",
          "blockTimestamp": "0x6a610f77",
          "transactionHash": "0xf7921433cabe37c8ed57fa7219482ff16c04041907e5bd6855e65be55a71781d",
          "transactionIndex": "0x4",
          "logIndex": "0x3",
          "removed": false
        },
        {
          "address": "0x176a8a769a7c03e2140b7fb47c6d664af977b64c",
          "topics": [
            "0x36f3b2e1a21c19137dd82ec243b0708a1d26b3d1fa1dc49c44c4c366a5878138",
            "0x0000000000000000000000009f03e390725216e38dbcb9106b4a6ec2611da7b2",
            "0x000000000000000000000000dbfe78649585cf656d99f73a036093ca4dcf9ada"
          ],
          "data": "0x00000000000000000000000000000000000000000000152d02c7e14af680000000000000000000000000000000000000000000000000152d02c7e14af6800000",
          "blockHash": "0x9c9b337df871f7ab6ed3eed19f9470ccd99ae8d1616dc9461dbd0771c6fd097b",
          "blockNumber": "0x1df231b",
          "blockTimestamp": "0x6a610f77",
          "transactionHash": "0xf7921433cabe37c8ed57fa7219482ff16c04041907e5bd6855e65be55a71781d",
          "transactionIndex": "0x4",
          "logIndex": "0x4",
          "removed": false
        }
      ],
      "logsBloom": "0x00000000000000000000000000000000000000000000000000000000000000000020000000000000000000000000000000000000001000000000000000004000000000000000000000000008100000000000000080000000000000000004000000000000000000000000000000011000002000000000000004010010000000001000000000000000000000000000000000000000000000000000000000000000000080000000000000000000000002000000000000000010000000000000000000000002500000000000004000000000000000000000000000000000000000000000000000200000000000100000000000200000000800001000000000200000",
      "transactionHash": "0xf7921433cabe37c8ed57fa7219482ff16c04041907e5bd6855e65be55a71781d",
      "transactionIndex": "0x4",
      "blockHash": "0x9c9b337df871f7ab6ed3eed19f9470ccd99ae8d1616dc9461dbd0771c6fd097b",
      "blockNumber": "0x1df231b",
      "gasUsed": "0x1adf9",
      "effectiveGasPrice": "0xf433b",
      "blobGasUsed": "0xbb80",
      "from": "0x84c29fb8b41f229ad09f4d68f84d676a28dc4a3a",
      "to": "0x176a8a769a7c03e2140b7fb47c6d664af977b64c",
      "contractAddress": null
    },
    {
      "type": "0x2",
      "status": "0x1",
      "cumulativeGasUsed": "0x306f7",
      "logs": [
        {
          "address": "0x1ee1c3516eb72b79f2d6be419bf4ffad6088225e",
          "topics": [
            "0xddf252ad1be2c89b69c2b068fc378daa952ba7f163c4a11628f55a4df523b3ef",
            "0x00000000000000000000000084c29fb8b41f229ad09f4d68f84d676a28dc4a3a",
            "0x000000000000000000000000176a8a769a7c03e2140b7fb47c6d664af977b64c"
          ],
          "data": "0x00000000000000000000000000000000000000000000152d02c7e14af6800000",
          "blockHash": "0x2c16c0c4035412148bb67dd472dfa99455952637136c0a1333adaeacb7d793cc",
          "blockNumber": "0x1df231e",
          "blockTimestamp": "0x6a610f7a",
          "transactionHash": "0x7d9eb9cbb0dc8e3feafffaccf5595d297540d766dd3c5cecf9f8573c818532c8",
          "transactionIndex": "0x2",
          "logIndex": "0x1",
          "removed": false
        },
        {
          "address": "0xdbfe78649585cf656d99f73a036093ca4dcf9ada",
          "topics": [
            "0xddf252ad1be2c89b69c2b068fc378daa952ba7f163c4a11628f55a4df523b3ef",
            "0x00000000000000000000000084c29fb8b41f229ad09f4d68f84d676a28dc4a3a",
            "0x000000000000000000000000176a8a769a7c03e2140b7fb47c6d664af977b64c"
          ],
          "data": "0x00000000000000000000000000000000000000000000152d02c7e14af6800000",
          "blockHash": "0x2c16c0c4035412148bb67dd472dfa99455952637136c0a1333adaeacb7d793cc",
          "blockNumber": "0x1df231e",
          "blockTimestamp": "0x6a610f7a",
          "transactionHash": "0x7d9eb9cbb0dc8e3feafffaccf5595d297540d766dd3c5cecf9f8573c818532c8",
          "transactionIndex": "0x2",
          "logIndex": "0x2",
          "removed": false
        },
        {
          "address": "0x176a8a769a7c03e2140b7fb47c6d664af977b64c",
          "topics": [
            "0x36f3b2e1a21c19137dd82ec243b0708a1d26b3d1fa1dc49c44c4c366a5878138",
            "0x0000000000000000000000001ee1c3516eb72b79f2d6be419bf4ffad6088225e",
            "0x000000000000000000000000dbfe78649585cf656d99f73a036093ca4dcf9ada"
          ],
          "data": "0x00000000000000000000000000000000000000000000152d02c7e14af680000000000000000000000000000000000000000000000000152d02c7e14af6800000",
          "blockHash": "0x2c16c0c4035412148bb67dd472dfa99455952637136c0a1333adaeacb7d793cc",
          "blockNumber": "0x1df231e",
          "blockTimestamp": "0x6a610f7a",
          "transactionHash": "0x7d9eb9cbb0dc8e3feafffaccf5595d297540d766dd3c5cecf9f8573c818532c8",
          "transactionIndex": "0x2",
          "logIndex": "0x3",
          "removed": false
        }
      ],
      "logsBloom": "0x00000000000000000000000000000000000800000000000000000000000000000020000000000000000000000000000000000000000000000000000000004000000000000000000000000008100000000000000000000000000000000000000000000000000000000000000000010000002000000000000004010010000000000000000000000000000000000000000004000000000000000000000000000000000000000000000000000000000002000000040400000010000000000040000000000002500000000000004000400000000000000000000000000000000000000000000000200000000000100000000000200000000800001000000000200000",
      "transactionHash": "0x7d9eb9cbb0dc8e3feafffaccf5595d297540d766dd3c5cecf9f8573c818532c8",
      "transactionIndex": "0x2",
      "blockHash": "0x2c16c0c4035412148bb67dd472dfa99455952637136c0a1333adaeacb7d793cc",
      "blockNumber": "0x1df231e",
      "gasUsed": "0x16b2d",
      "effectiveGasPrice": "0xf433b",
      "blobGasUsed": "0xbb80",
      "from": "0x84c29fb8b41f229ad09f4d68f84d676a28dc4a3a",
      "to": "0x176a8a769a7c03e2140b7fb47c6d664af977b64c",
      "contractAddress": null
    },
    {
      "type": "0x2",
      "status": "0x1",
      "cumulativeGasUsed": "0x3810d",
      "logs": [],
      "logsBloom": "0x00000000000000000000000000000000000000000000000000000000000000000000000000000000000000000000000000000000000000000000000000000000000000000000000000000000000000000000000000000000000000000000000000000000000000000000000000000000000000000000000000000000000000000000000000000000000000000000000000000000000000000000000000000000000000000000000000000000000000000000000000000000000000000000000000000000000000000000000000000000000000000000000000000000000000000000000000000000000000000000000000000000000000000000000000000000",
      "transactionHash": "0x9638807e6279ad8e51a9dbfd60561edf40c4ce0248a4313a9b5ca9ffeec6bc88",
      "transactionIndex": "0x2",
      "blockHash": "0xe6f6ea8157972eb57720cffd3d3bc1c09986bd4f63043c295d0f0a1bc69bdb0e",
      "blockNumber": "0x1df2322",
      "gasUsed": "0x728e",
      "effectiveGasPrice": "0xf433b",
      "blobGasUsed": "0x9c40",
      "from": "0x84c29fb8b41f229ad09f4d68f84d676a28dc4a3a",
      "to": "0xa070ef81af0ea0b595e112ade9bd3afb92204674",
      "contractAddress": null
    },
    {
      "type": "0x2",
      "status": "0x1",
      "cumulativeGasUsed": "0x6d79b",
      "logs": [],
      "logsBloom": "0x00000000000000000000000000000000000000000000000000000000000000000000000000000000000000000000000000000000000000000000000000000000000000000000000000000000000000000000000000000000000000000000000000000000000000000000000000000000000000000000000000000000000000000000000000000000000000000000000000000000000000000000000000000000000000000000000000000000000000000000000000000000000000000000000000000000000000000000000000000000000000000000000000000000000000000000000000000000000000000000000000000000000000000000000000000000",
      "transactionHash": "0x05d78722d17d56dc268aa837fdd4da2ea34b66962cd0609cc52c365e2dbe51c8",
      "transactionIndex": "0x3",
      "blockHash": "0x1db29f79011e283249a424ad2188c6bba448489f50f7a13f71fd4e05c149856c",
      "blockNumber": "0x1df2325",
      "gasUsed": "0x7220",
      "effectiveGasPrice": "0xf433b",
      "blobGasUsed": "0x9c40",
      "from": "0x84c29fb8b41f229ad09f4d68f84d676a28dc4a3a",
      "to": "0x48a227d0fcc84602c2af7a55918fe473b51ab1fb",
      "contractAddress": null
    },
    {
      "type": "0x2",
      "status": "0x1",
      "cumulativeGasUsed": "0x33eda",
      "logs": [],
      "logsBloom": "0x00000000000000000000000000000000000000000000000000000000000000000000000000000000000000000000000000000000000000000000000000000000000000000000000000000000000000000000000000000000000000000000000000000000000000000000000000000000000000000000000000000000000000000000000000000000000000000000000000000000000000000000000000000000000000000000000000000000000000000000000000000000000000000000000000000000000000000000000000000000000000000000000000000000000000000000000000000000000000000000000000000000000000000000000000000000",
      "transactionHash": "0x33e97940ed8ead6279eec8f1a56d0befe934c5ebfe2f26186effef0b5d21ddbe",
      "transactionIndex": "0x2",
      "blockHash": "0xfc28a7749c39a6bcd1dc9367e09654d997f419dbba65eed24939ec9ed71fc426",
      "blockNumber": "0x1df2329",
      "gasUsed": "0xb590",
      "effectiveGasPrice": "0xf433b",
      "blobGasUsed": "0x9c40",
      "from": "0x84c29fb8b41f229ad09f4d68f84d676a28dc4a3a",
      "to": "0xb981d048db34dfdc3064377c9a95f5a3995f7616",
      "contractAddress": null
    },
    {
      "type": "0x2",
      "status": "0x1",
      "cumulativeGasUsed": "0xc8447",
      "logs": [],
      "logsBloom": "0x00000000000000000000000000000000000000000000000000000000000000000000000000000000000000000000000000000000000000000000000000000000000000000000000000000000000000000000000000000000000000000000000000000000000000000000000000000000000000000000000000000000000000000000000000000000000000000000000000000000000000000000000000000000000000000000000000000000000000000000000000000000000000000000000000000000000000000000000000000000000000000000000000000000000000000000000000000000000000000000000000000000000000000000000000000000",
      "transactionHash": "0xa0b5377974f71a98cd03bf5447b0dce9b5f065c05ac5d8a8bc219782c91e6894",
      "transactionIndex": "0x9",
      "blockHash": "0x412fc67043efc0a9b87df0d9fb38b9ce7545f493a31505451edd3dfb8cfa01fd",
      "blockNumber": "0x1df232c",
      "gasUsed": "0xb39e",
      "effectiveGasPrice": "0xf433b",
      "blobGasUsed": "0x9c40",
      "from": "0x84c29fb8b41f229ad09f4d68f84d676a28dc4a3a",
      "to": "0xb981d048db34dfdc3064377c9a95f5a3995f7616",
      "contractAddress": null
    },
    {
      "type": "0x2",
      "status": "0x1",
      "cumulativeGasUsed": "0x13f2b3",
      "logs": [
        {
          "address": "0xb981d048db34dfdc3064377c9a95f5a3995f7616",
          "topics": [
            "0x98120a6aaa04295520ab4e01c6c1235dd316e822cc9ff31db7b3f197366d18bd",
            "0x0000000000000000000000000000000000000000000000000000000000000001",
            "0x00000000000000000000000084c29fb8b41f229ad09f4d68f84d676a28dc4a3a"
          ],
          "data": "0x0000000000000000000000000000000000000000000000000000000000000040000000000000000000000000000000000000000000000000000000006a74d60b000000000000000000000000000000000000000000000000000000000000002847564620676f7665726e616e63652070617274696369706174696f6e20746f6b656e206164646564000000000000000000000000000000000000000000000000",
          "blockHash": "0x3eb7aed0bab9b6eef91d45e519ca310442dccc020cf70dd2fbd3b14fdc7889fc",
          "blockNumber": "0x1df232f",
          "blockTimestamp": "0x6a610f8b",
          "transactionHash": "0x50691be07190c32c1cd80a43e9c3f64a419c5b0d89848e9d4fc04e285cb86a3f",
          "transactionIndex": "0xf",
          "logIndex": "0xa",
          "removed": false
        }
      ],
      "logsBloom": "0x00000000000000000000000000000000000000000000000000000000000000000000000000000000000000000000000000000000000000010000000000040000000000000000000000000000100000010000000000040000000000000000000000000000000800000000000000000000000000000000000000010000000008000000000000000000000000000000000000000000000000000000000000000000000000000000000000000000000000000000000000000000000000000000000000000010000000000000000000000002000000000000000000000000000040000000000000000000000000000000000000200000000000000000000000000000",
      "transactionHash": "0x50691be07190c32c1cd80a43e9c3f64a419c5b0d89848e9d4fc04e285cb86a3f",
      "transactionIndex": "0xf",
      "blockHash": "0x3eb7aed0bab9b6eef91d45e519ca310442dccc020cf70dd2fbd3b14fdc7889fc",
      "blockNumber": "0x1df232f",
      "gasUsed": "0x50397",
      "effectiveGasPrice": "0xf433b",
      "blobGasUsed": "0x12a70",
      "from": "0x84c29fb8b41f229ad09f4d68f84d676a28dc4a3a",
      "to": "0xb981d048db34dfdc3064377c9a95f5a3995f7616",
      "contractAddress": null
    },
    {
      "type": "0x2",
      "status": "0x1",
      "cumulativeGasUsed": "0x81035",
      "logs": [
        {
          "address": "0xb981d048db34dfdc3064377c9a95f5a3995f7616",
          "topics": [
            "0x98120a6aaa04295520ab4e01c6c1235dd316e822cc9ff31db7b3f197366d18bd",
            "0x0000000000000000000000000000000000000000000000000000000000000002",
            "0x00000000000000000000000084c29fb8b41f229ad09f4d68f84d676a28dc4a3a"
          ],
          "data": "0x0000000000000000000000000000000000000000000000000000000000000040000000000000000000000000000000000000000000000000000000006a74d60e000000000000000000000000000000000000000000000000000000000000002e41646420612027436c61696d20416c6c272062617463682066756e6374696f6e20746f2074686520666175636574000000000000000000000000000000000000",
          "blockHash": "0xcd82d59560ca97ea3199d7f243b1b65fe1722262e23628ad2213f453d9cf992f",
          "blockNumber": "0x1df2332",
          "blockTimestamp": "0x6a610f8e",
          "transactionHash": "0xd07a99e30bb252d7583a06161b7407f32a9ded2b22696d009b9925f4efc9d479",
          "transactionIndex": "0x2",
          "logIndex": "0x0",
          "removed": false
        }
      ],
      "logsBloom": "0x04000000000000000000000000000000000000000000000000000000000000000000000000000000000000000000000000000000000000010000000000000000000000000000000000000000100000010000000000000000000000000000000000000000000800000000000000000000000000000000000000010000000008000000000000000000000000000000000000000000000000000000000000000000000000000000000000000100000000000000000000000000000000000000000000000010000000000000000000000002000000000000000000000000000000000000000000000000000000000000000000200000008000000000000000000000",
      "transactionHash": "0xd07a99e30bb252d7583a06161b7407f32a9ded2b22696d009b9925f4efc9d479",
      "transactionIndex": "0x2",
      "blockHash": "0xcd82d59560ca97ea3199d7f243b1b65fe1722262e23628ad2213f453d9cf992f",
      "blockNumber": "0x1df2332",
      "gasUsed": "0x4c143",
      "effectiveGasPrice": "0xf433b",
      "blobGasUsed": "0x13560",
      "from": "0x84c29fb8b41f229ad09f4d68f84d676a28dc4a3a",
      "to": "0xb981d048db34dfdc3064377c9a95f5a3995f7616",
      "contractAddress": null
    },
    {
      "type": "0x2",
      "status": "0x1",
      "cumulativeGasUsed": "0x51d05",
      "logs": [
        {
          "address": "0xb981d048db34dfdc3064377c9a95f5a3995f7616",
          "topics": [
            "0x98120a6aaa04295520ab4e01c6c1235dd316e822cc9ff31db7b3f197366d18bd",
            "0x0000000000000000000000000000000000000000000000000000000000000003",
            "0x00000000000000000000000084c29fb8b41f229ad09f4d68f84d676a28dc4a3a"
          ],
          "data": "0x0000000000000000000000000000000000000000000000000000000000000040000000000000000000000000000000000000000000000000000000006a74d6120000000000000000000000000000000000000000000000000000000000000027496e6372656173652066617563657420636c61696d20616d6f756e7420746f203230302047564100000000000000000000000000000000000000000000000000",
          "blockHash": "0xc1f04ca5845b235aebdba16700a4be6ad5e7b690c48deda35a68629bb0434d13",
          "blockNumber": "0x1df2336",
          "blockTimestamp": "0x6a610f92",
          "transactionHash": "0xd12c7241de355eb919baa08b3d8f91e2abece5d6b6ba6084e3c8180e7523bc69",
          "transactionIndex": "0x1",
          "logIndex": "0x0",
          "removed": false
        }
      ],
      "logsBloom": "0x00000000000000000000000000000000000000000000000000000000000000000000000000000000000000000000000000000000020000010000000000000000000000000000000000000000100000010000000000000000000000000000000000000000000800000000000000000000000000000000000000010000000008000000000000000000000000000000000000000000000000000000000000000000000000000000000000000000000000000000000000800000000000000000400000000010000000000000000000000002000000000000000000000000000000000000000000000000000000000000000000200000000000000000000000000000",
      "transactionHash": "0xd12c7241de355eb919baa08b3d8f91e2abece5d6b6ba6084e3c8180e7523bc69",
      "transactionIndex": "0x1",
      "blockHash": "0xc1f04ca5845b235aebdba16700a4be6ad5e7b690c48deda35a68629bb0434d13",
      "blockNumber": "0x1df2336",
      "gasUsed": "0x4687b",
      "effectiveGasPrice": "0xf433b",
      "blobGasUsed": "0xfa00",
      "from": "0x84c29fb8b41f229ad09f4d68f84d676a28dc4a3a",
      "to": "0xb981d048db34dfdc3064377c9a95f5a3995f7616",
      "contractAddress": null
    },
    {
      "type": "0x2",
      "status": "0x1",
      "cumulativeGasUsed": "0xb188c",
      "logs": [
        {
          "address": "0xb981d048db34dfdc3064377c9a95f5a3995f7616",
          "topics": [
            "0x98120a6aaa04295520ab4e01c6c1235dd316e822cc9ff31db7b3f197366d18bd",
            "0x0000000000000000000000000000000000000000000000000000000000000004",
            "0x00000000000000000000000084c29fb8b41f229ad09f4d68f84d676a28dc4a3a"
          ],
          "data": "0x0000000000000000000000000000000000000000000000000000000000000040000000000000000000000000000000000000000000000000000000006a74d61500000000000000000000000000000000000000000000000000000000000000265265647563652066617563657420636f6f6c646f776e2066726f6d2032346820746f203132680000000000000000000000000000000000000000000000000000",
          "blockHash": "0xca45cb7290b85b3430a3584b13cee353c4575cc40961f71de4fe6c61255a20b2",
          "blockNumber": "0x1df2339",
          "blockTimestamp": "0x6a610f95",
          "transactionHash": "0x842a912d40109f511a107a6407690b05986e34cf82163bab692943b5b83d2333",
          "transactionIndex": "0x4",
          "logIndex": "0x4",
          "removed": false
        }
      ],
      "logsBloom": "0x00000000000000000000000000000000000000000000000000000000000000000000000000000000000000000000000000000000000000010000000000000000000000000000000000000000100000010000000000000000000000000000000008000000000800000000000000000000000000000000000000010000000008000000000000000000000000000000000000000000000000000000000000000000000000000000000000000000000000000000000000000000002000000000000000000010000000000000000000000002000000008000000000000000000000000000000000000000000000000000000000200000000000000000000000000000",
      "transactionHash": "0x842a912d40109f511a107a6407690b05986e34cf82163bab692943b5b83d2333",
      "transactionIndex": "0x4",
      "blockHash": "0xca45cb7290b85b3430a3584b13cee353c4575cc40961f71de4fe6c61255a20b2",
      "blockNumber": "0x1df2339",
      "gasUsed": "0x46887",
      "effectiveGasPrice": "0xf433b",
      "blobGasUsed": "0x10810",
      "from": "0x84c29fb8b41f229ad09f4d68f84d676a28dc4a3a",
      "to": "0xb981d048db34dfdc3064377c9a95f5a3995f7616",
      "contractAddress": null
    },
    {
      "type": "0x2",
      "status": "0x1",
      "cumulativeGasUsed": "0xc938b",
      "logs": [
        {
          "address": "0xb981d048db34dfdc3064377c9a95f5a3995f7616",
          "topics": [
            "0x98120a6aaa04295520ab4e01c6c1235dd316e822cc9ff31db7b3f197366d18bd",
            "0x0000000000000000000000000000000000000000000000000000000000000005",
            "0x00000000000000000000000084c29fb8b41f229ad09f4d68f84d676a28dc4a3a"
          ],
          "data": "0x0000000000000000000000000000000000000000000000000000000000000040000000000000000000000000000000000000000000000000000000006a74d619000000000000000000000000000000000000000000000000000000000000002643726561746520446576656c6f706572204772616e742046756e6420283130304b20475641290000000000000000000000000000000000000000000000000000",
          "blockHash": "0x52ef43627643740adb428931fe85329c4fa504275300c028979c67ae48b2bdbe",
          "blockNumber": "0x1df233d",
          "blockTimestamp": "0x6a610f99",
          "transactionHash": "0x6460e8cd493373881b6f1efaf29f5a0582b3060655df02b05bd8d292ff72df0c",
          "transactionIndex": "0x4",
          "logIndex": "0x4",
          "removed": false
        }
      ],
      "logsBloom": "0x00000000000000000000000000000000000000000000000000000000000000000000000000000000000000000000000000000000000000010000000000000000000010000000000000000000100000010000000000000000000000000000000000000000000800000000000000000000000000000000000000010000000008000000000000000000000000000000001000000800000000000000000000000000000000000000000000000000000000000000000000000000000000000000000000000010000000000000000000000002000000000000000000000000000000000000000000000000000000000000000000200000000000000000000000000000",
      "transactionHash": "0x6460e8cd493373881b6f1efaf29f5a0582b3060655df02b05bd8d292ff72df0c",
      "transactionIndex": "0x4",
      "blockHash": "0x52ef43627643740adb428931fe85329c4fa504275300c028979c67ae48b2bdbe",
      "blockNumber": "0x1df233d",
      "gasUsed": "0x468e7",
      "effectiveGasPrice": "0xf433b",
      "blobGasUsed": "0x11f80",
      "from": "0x84c29fb8b41f229ad09f4d68f84d676a28dc4a3a",
      "to": "0xb981d048db34dfdc3064377c9a95f5a3995f7616",
      "contractAddress": null
    },
    {
      "type": "0x2",
      "status": "0x1",
      "cumulativeGasUsed": "0x1e4eb7",
      "logs": [
        {
          "address": "0xb981d048db34dfdc3064377c9a95f5a3995f7616",
          "topics": [
            "0x022c5894f70637e46c49debc0376ce8c5fa29222787feeaa2e9af248617325fe",
            "0x0000000000000000000000000000000000000000000000000000000000000001"
          ],
          "data": "0x000000000000000000000000000000000000000000000000000000006a610f9c",
          "blockHash": "0x1dd4547892c83ba9a44ac1341382cb177d8cdeec89dffaffddfc693ed6094b67",
          "blockNumber": "0x1df2340",
          "blockTimestamp": "0x6a610f9c",
          "transactionHash": "0x0547d095168e55d37e7d9e7e0225016950a0b6f274beba388984e25ea0aebaae",
          "transactionIndex": "0x9",
          "logIndex": "0xd",
          "removed": false
        }
      ],
      "logsBloom": "0x00000000000000000000000000000000000000000000000000000000000000000000000000000000000000000000000000000000000000010000000000040000000000000000000000000000000000000000000000040000000000000000000000000000000800000000000000000000000000000000000000000000008008000000000000000000000000000000000000000000000000000000000000000000000000000000000000000000000000000000000100000000000000000000000000000000000000000000000000000000000000000000000200000000000040000000000000000000000000000000000000000000000000000000000000000000",
      "transactionHash": "0x0547d095168e55d37e7d9e7e0225016950a0b6f274beba388984e25ea0aebaae",
      "transactionIndex": "0x9",
      "blockHash": "0x1dd4547892c83ba9a44ac1341382cb177d8cdeec89dffaffddfc693ed6094b67",
      "blockNumber": "0x1df2340",
      "gasUsed": "0x1184c",
      "effectiveGasPrice": "0xf433b",
      "blobGasUsed": "0x9c40",
      "from": "0x84c29fb8b41f229ad09f4d68f84d676a28dc4a3a",
      "to": "0xb981d048db34dfdc3064377c9a95f5a3995f7616",
      "contractAddress": null
    }
  ],
  "libraries": [],
  "pending": [],
  "returns": {},
  "timestamp": 1784745884133,
  "chain": 91342,
  "commit": "3e76679"
}