{
  "transactions": [
    {
      "hash": "0xeeb989af4f1aac3b59e7ddc10398c9afcd4fc8b75f917d448e4a4323a5fadcfa",
      "transactionType": "CREATE",
      "contractName": "GiwaToken",
      "contractAddress": "0xaeb7b16e9fd7dbb7c815f102e3ec9d44d4358887",
      "function": null,
      "arguments": [
        "GiwaVerified Alpha",
        "GVA"
      ],
      "transaction": {
        "from": "0x84c29fb8b41f229ad09f4d68f84d676a28dc4a3a",
        "to": null,
        "gas": "0xc0b27",
        "value": "0x0",
        "input": "0x608060405234801561000f575f5ffd5b50604051610b44380380610b4483398101604081905261002e91610103565b8181600361003c83826101ec565b50600461004982826101ec565b5050600580546001600160a01b03191633179055506102a6915050565b634e487b7160e01b5f52604160045260245ffd5b5f82601f830112610089575f5ffd5b81516001600160401b038111156100a2576100a2610066565b604051601f8201601f19908116603f011681016001600160401b03811182821017156100d0576100d0610066565b6040528181528382016020018510156100e7575f5ffd5b8160208501602083015e5f918101602001919091529392505050565b5f5f60408385031215610114575f5ffd5b82516001600160401b03811115610129575f5ffd5b6101358582860161007a565b602085015190935090506001600160401b03811115610152575f5ffd5b61015e8582860161007a565b9150509250929050565b600181811c9082168061017c57607f821691505b60208210810361019a57634e487b7160e01b5f52602260045260245ffd5b50919050565b601f8211156101e757805f5260205f20601f840160051c810160208510156101c55750805b601f840160051c820191505b818110156101e4575f81556001016101d1565b50505b505050565b81516001600160401b0381111561020557610205610066565b610219816102138454610168565b846101a0565b6020601f82116001811461024b575f83156102345750848201515b5f19600385901b1c1916600184901b1784556101e4565b5f84815260208120601f198516915b8281101561027a578785015182556020948501946001909201910161025a565b508482101561029757868401515f19600387901b60f8161c191681555b50505050600190811b01905550565b610891806102b35f395ff3fe608060405234801561000f575f5ffd5b50600436106100b1575f3560e01c806340c10f191161006e57806340c10f191461015557806370a082311461016a57806395d89b4114610192578063a9059cbb1461019a578063dd62ed3e146101ad578063fca3b5aa146101e5575f5ffd5b806306fdde03146100b557806307546172146100d3578063095ea7b3146100fe57806318160ddd1461012157806323b872dd14610133578063313ce56714610146575b5f5ffd5b6100bd6101f8565b6040516100ca9190610701565b60405180910390f35b6005546100e6906001600160a01b031681565b6040516001600160a01b0390911681526020016100ca565b61011161010c366004610751565b610288565b60405190151581526020016100ca565b6002545b6040519081526020016100ca565b610111610141366004610779565b6102a1565b604051601281526020016100ca565b610168610163366004610751565b6102c4565b005b6101256101783660046107b3565b6001600160a01b03165f9081526020819052604090205490565b6100bd61031e565b6101116101a8366004610751565b61032d565b6101256101bb3660046107d3565b6001600160a01b039182165f90815260016020908152604080832093909416825291909152205490565b6101686101f33660046107b3565b61033a565b60606003805461020790610804565b80601f016020809104026020016040519081016040528092919081815260200182805461023390610804565b801561027e5780601f106102555761010080835404028352916020019161027e565b820191905f5260205f20905b81548152906001019060200180831161026157829003601f168201915b5050505050905090565b5f336102958185856103ea565b60019150505b92915050565b5f336102ae8582856103fc565b6102b9858585610478565b506001949350505050565b6005546001600160a01b031633146103105760405162461bcd60e51b815260206004820152600a6024820152692737ba1036b4b73a32b960b11b60448201526064015b60405180910390fd5b61031a82826104d5565b5050565b60606004805461020790610804565b5f33610295818585610478565b6005546001600160a01b031633146103815760405162461bcd60e51b815260206004820152600a6024820152692737ba1036b4b73a32b960b11b6044820152606401610307565b6001600160a01b0381166103c85760405162461bcd60e51b815260206004820152600e60248201526d24b73b30b634b21036b4b73a32b960911b6044820152606401610307565b600580546001600160a01b0319166001600160a01b0392909216919091179055565b6103f78383836001610509565b505050565b6001600160a01b038381165f908152600160209081526040808320938616835292905220545f19811015610472578181101561046457604051637dc7a0d960e11b81526001600160a01b03841660048201526024810182905260448101839052606401610307565b61047284848484035f610509565b50505050565b6001600160a01b0383166104a157604051634b637e8f60e11b81525f6004820152602401610307565b6001600160a01b0382166104ca5760405163ec442f0560e01b81525f6004820152602401610307565b6103f78383836105db565b6001600160a01b0382166104fe5760405163ec442f0560e01b81525f6004820152602401610307565b61031a5f83836105db565b6001600160a01b0384166105325760405163e602df0560e01b81525f6004820152602401610307565b6001600160a01b03831661055b57604051634a1406b160e11b81525f6004820152602401610307565b6001600160a01b038085165f908152600160209081526040808320938716835292905220829055801561047257826001600160a01b0316846001600160a01b03167f8c5be1e5ebec7d5bd14f71427d1e84f3dd0314c0f7b2291e5b200ac8c7c3b925846040516105cd91815260200190565b60405180910390a350505050565b6001600160a01b038316610605578060025f8282546105fa919061083c565b909155506106759050565b6001600160a01b0383165f90815260208190526040902054818110156106575760405163391434e360e21b81526001600160a01b03851660048201526024810182905260448101839052606401610307565b6001600160a01b0384165f9081526020819052604090209082900390555b6001600160a01b038216610691576002805482900390556106af565b6001600160a01b0382165f9081526020819052604090208054820190555b816001600160a01b0316836001600160a01b03167fddf252ad1be2c89b69c2b068fc378daa952ba7f163c4a11628f55a4df523b3ef836040516106f491815260200190565b60405180910390a3505050565b602081525f82518060208401528060208501604085015e5f604082850101526040601f19601f83011684010191505092915050565b80356001600160a01b038116811461074c575f5ffd5b919050565b5f5f60408385031215610762575f5ffd5b61076b83610736565b946020939093013593505050565b5f5f5f6060848603121561078b575f5ffd5b61079484610736565b92506107a260208501610736565b929592945050506040919091013590565b5f602082840312156107c3575f5ffd5b6107cc82610736565b9392505050565b5f5f604083850312156107e4575f5ffd5b6107ed83610736565b91506107fb60208401610736565b90509250929050565b600181811c9082168061081857607f821691505b60208210810361083657634e487b7160e01b5f52602260045260245ffd5b50919050565b8082018082111561029b57634e487b7160e01b5f52601160045260245ffdfea26469706673582212208ddaa47ea678122a85dfbce03a51a025183e40228af7b907a2650c85f1ec7a8964736f6c634300081c003300000000000000000000000000000000000000000000000000000000000000400000000000000000000000000000000000000000000000000000000000000080000000000000000000000000000000000000000000000000000000000000001247697761566572696669656420416c706861000000000000000000000000000000000000000000000000000000000000000000000000000000000000000000034756410000000000000000000000000000000000000000000000000000000000",
        "nonce": "0xe5",
        "chainId": "0x164ce"
      },
      "additionalContracts": [],
      "isFixedGasLimit": false
    },
    {
      "hash": "0x0de120b5842768f4f097be9a6dee5ef9f63db5a91d0994571d3374b3d53f1afa",
      "transactionType": "CREATE",
      "contractName": "GiwaToken",
      "contractAddress": "0x7c9d5163eabb67417107a0a0e3df0397a1ad3d03",
      "function": null,
      "arguments": [
        "GiwaVerified Beta",
        "GVB"
      ],
      "transaction": {
        "from": "0x84c29fb8b41f229ad09f4d68f84d676a28dc4a3a",
        "to": null,
        "gas": "0xc0b17",
        "value": "0x0",
        "input": "0x608060405234801561000f575f5ffd5b50604051610b44380380610b4483398101604081905261002e91610103565b8181600361003c83826101ec565b50600461004982826101ec565b5050600580546001600160a01b03191633179055506102a6915050565b634e487b7160e01b5f52604160045260245ffd5b5f82601f830112610089575f5ffd5b81516001600160401b038111156100a2576100a2610066565b604051601f8201601f19908116603f011681016001600160401b03811182821017156100d0576100d0610066565b6040528181528382016020018510156100e7575f5ffd5b8160208501602083015e5f918101602001919091529392505050565b5f5f60408385031215610114575f5ffd5b82516001600160401b03811115610129575f5ffd5b6101358582860161007a565b602085015190935090506001600160401b03811115610152575f5ffd5b61015e8582860161007a565b9150509250929050565b600181811c9082168061017c57607f821691505b60208210810361019a57634e487b7160e01b5f52602260045260245ffd5b50919050565b601f8211156101e757805f5260205f20601f840160051c810160208510156101c55750805b601f840160051c820191505b818110156101e4575f81556001016101d1565b50505b505050565b81516001600160401b0381111561020557610205610066565b610219816102138454610168565b846101a0565b6020601f82116001811461024b575f83156102345750848201515b5f19600385901b1c1916600184901b1784556101e4565b5f84815260208120601f198516915b8281101561027a578785015182556020948501946001909201910161025a565b508482101561029757868401515f19600387901b60f8161c191681555b50505050600190811b01905550565b610891806102b35f395ff3fe608060405234801561000f575f5ffd5b50600436106100b1575f3560e01c806340c10f191161006e57806340c10f191461015557806370a082311461016a57806395d89b4114610192578063a9059cbb1461019a578063dd62ed3e146101ad578063fca3b5aa146101e5575f5ffd5b806306fdde03146100b557806307546172146100d3578063095ea7b3146100fe57806318160ddd1461012157806323b872dd14610133578063313ce56714610146575b5f5ffd5b6100bd6101f8565b6040516100ca9190610701565b60405180910390f35b6005546100e6906001600160a01b031681565b6040516001600160a01b0390911681526020016100ca565b61011161010c366004610751565b610288565b60405190151581526020016100ca565b6002545b6040519081526020016100ca565b610111610141366004610779565b6102a1565b604051601281526020016100ca565b610168610163366004610751565b6102c4565b005b6101256101783660046107b3565b6001600160a01b03165f9081526020819052604090205490565b6100bd61031e565b6101116101a8366004610751565b61032d565b6101256101bb3660046107d3565b6001600160a01b039182165f90815260016020908152604080832093909416825291909152205490565b6101686101f33660046107b3565b61033a565b60606003805461020790610804565b80601f016020809104026020016040519081016040528092919081815260200182805461023390610804565b801561027e5780601f106102555761010080835404028352916020019161027e565b820191905f5260205f20905b81548152906001019060200180831161026157829003601f168201915b5050505050905090565b5f336102958185856103ea565b60019150505b92915050565b5f336102ae8582856103fc565b6102b9858585610478565b506001949350505050565b6005546001600160a01b031633146103105760405162461bcd60e51b815260206004820152600a6024820152692737ba1036b4b73a32b960b11b60448201526064015b60405180910390fd5b61031a82826104d5565b5050565b60606004805461020790610804565b5f33610295818585610478565b6005546001600160a01b031633146103815760405162461bcd60e51b815260206004820152600a6024820152692737ba1036b4b73a32b960b11b6044820152606401610307565b6001600160a01b0381166103c85760405162461bcd60e51b815260206004820152600e60248201526d24b73b30b634b21036b4b73a32b960911b6044820152606401610307565b600580546001600160a01b0319166001600160a01b0392909216919091179055565b6103f78383836001610509565b505050565b6001600160a01b038381165f908152600160209081526040808320938616835292905220545f19811015610472578181101561046457604051637dc7a0d960e11b81526001600160a01b03841660048201526024810182905260448101839052606401610307565b61047284848484035f610509565b50505050565b6001600160a01b0383166104a157604051634b637e8f60e11b81525f6004820152602401610307565b6001600160a01b0382166104ca5760405163ec442f0560e01b81525f6004820152602401610307565b6103f78383836105db565b6001600160a01b0382166104fe5760405163ec442f0560e01b81525f6004820152602401610307565b61031a5f83836105db565b6001600160a01b0384166105325760405163e602df0560e01b81525f6004820152602401610307565b6001600160a01b03831661055b57604051634a1406b160e11b81525f6004820152602401610307565b6001600160a01b038085165f908152600160209081526040808320938716835292905220829055801561047257826001600160a01b0316846001600160a01b03167f8c5be1e5ebec7d5bd14f71427d1e84f3dd0314c0f7b2291e5b200ac8c7c3b925846040516105cd91815260200190565b60405180910390a350505050565b6001600160a01b038316610605578060025f8282546105fa919061083c565b909155506106759050565b6001600160a01b0383165f90815260208190526040902054818110156106575760405163391434e360e21b81526001600160a01b03851660048201526024810182905260448101839052606401610307565b6001600160a01b0384165f9081526020819052604090209082900390555b6001600160a01b038216610691576002805482900390556106af565b6001600160a01b0382165f9081526020819052604090208054820190555b816001600160a01b0316836001600160a01b03167fddf252ad1be2c89b69c2b068fc378daa952ba7f163c4a11628f55a4df523b3ef836040516106f491815260200190565b60405180910390a3505050565b602081525f82518060208401528060208501604085015e5f604082850101526040601f19601f83011684010191505092915050565b80356001600160a01b038116811461074c575f5ffd5b919050565b5f5f60408385031215610762575f5ffd5b61076b83610736565b946020939093013593505050565b5f5f5f6060848603121561078b575f5ffd5b61079484610736565b92506107a260208501610736565b929592945050506040919091013590565b5f602082840312156107c3575f5ffd5b6107cc82610736565b9392505050565b5f5f604083850312156107e4575f5ffd5b6107ed83610736565b91506107fb60208401610736565b90509250929050565b600181811c9082168061081857607f821691505b60208210810361083657634e487b7160e01b5f52602260045260245ffd5b50919050565b8082018082111561029b57634e487b7160e01b5f52601160045260245ffdfea26469706673582212208ddaa47ea678122a85dfbce03a51a025183e40228af7b907a2650c85f1ec7a8964736f6c634300081c0033000000000000000000000000000000000000000000000000000000000000004000000000000000000000000000000000000000000000000000000000000000800000000000000000000000000000000000000000000000000000000000000011476977615665726966696564204265746100000000000000000000000000000000000000000000000000000000000000000000000000000000000000000000034756420000000000000000000000000000000000000000000000000000000000",
        "nonce": "0xe6",
        "chainId": "0x164ce"
      },
      "additionalContracts": [],
      "isFixedGasLimit": false
    },
    {
      "hash": "0xfe2673d79943a926eea611c2cd5a6539b53ac68c0df39cfe6755474a9c9a3be9",
      "transactionType": "CREATE",
      "contractName": "GiwaToken",
      "contractAddress": "0xe9d91031b2c330faf5d6f1cd11981b06dc208a6e",
      "function": null,
      "arguments": [
        "GiwaVerified Gamma",
        "GVC"
      ],
      "transaction": {
        "from": "0x84c29fb8b41f229ad09f4d68f84d676a28dc4a3a",
        "to": null,
        "gas": "0xc0b27",
        "value": "0x0",
        "input": "0x608060405234801561000f575f5ffd5b50604051610b44380380610b4483398101604081905261002e91610103565b8181600361003c83826101ec565b50600461004982826101ec565b5050600580546001600160a01b03191633179055506102a6915050565b634e487b7160e01b5f52604160045260245ffd5b5f82601f830112610089575f5ffd5b81516001600160401b038111156100a2576100a2610066565b604051601f8201601f19908116603f011681016001600160401b03811182821017156100d0576100d0610066565b6040528181528382016020018510156100e7575f5ffd5b8160208501602083015e5f918101602001919091529392505050565b5f5f60408385031215610114575f5ffd5b82516001600160401b03811115610129575f5ffd5b6101358582860161007a565b602085015190935090506001600160401b03811115610152575f5ffd5b61015e8582860161007a565b9150509250929050565b600181811c9082168061017c57607f821691505b60208210810361019a57634e487b7160e01b5f52602260045260245ffd5b50919050565b601f8211156101e757805f5260205f20601f840160051c810160208510156101c55750805b601f840160051c820191505b818110156101e4575f81556001016101d1565b50505b505050565b81516001600160401b0381111561020557610205610066565b610219816102138454610168565b846101a0565b6020601f82116001811461024b575f83156102345750848201515b5f19600385901b1c1916600184901b1784556101e4565b5f84815260208120601f198516915b8281101561027a578785015182556020948501946001909201910161025a565b508482101561029757868401515f19600387901b60f8161c191681555b50505050600190811b01905550565b610891806102b35f395ff3fe608060405234801561000f575f5ffd5b50600436106100b1575f3560e01c806340c10f191161006e57806340c10f191461015557806370a082311461016a57806395d89b4114610192578063a9059cbb1461019a578063dd62ed3e146101ad578063fca3b5aa146101e5575f5ffd5b806306fdde03146100b557806307546172146100d3578063095ea7b3146100fe57806318160ddd1461012157806323b872dd14610133578063313ce56714610146575b5f5ffd5b6100bd6101f8565b6040516100ca9190610701565b60405180910390f35b6005546100e6906001600160a01b031681565b6040516001600160a01b0390911681526020016100ca565b61011161010c366004610751565b610288565b60405190151581526020016100ca565b6002545b6040519081526020016100ca565b610111610141366004610779565b6102a1565b604051601281526020016100ca565b610168610163366004610751565b6102c4565b005b6101256101783660046107b3565b6001600160a01b03165f9081526020819052604090205490565b6100bd61031e565b6101116101a8366004610751565b61032d565b6101256101bb3660046107d3565b6001600160a01b039182165f90815260016020908152604080832093909416825291909152205490565b6101686101f33660046107b3565b61033a565b60606003805461020790610804565b80601f016020809104026020016040519081016040528092919081815260200182805461023390610804565b801561027e5780601f106102555761010080835404028352916020019161027e565b820191905f5260205f20905b81548152906001019060200180831161026157829003601f168201915b5050505050905090565b5f336102958185856103ea565b60019150505b92915050565b5f336102ae8582856103fc565b6102b9858585610478565b506001949350505050565b6005546001600160a01b031633146103105760405162461bcd60e51b815260206004820152600a6024820152692737ba1036b4b73a32b960b11b60448201526064015b60405180910390fd5b61031a82826104d5565b5050565b60606004805461020790610804565b5f33610295818585610478565b6005546001600160a01b031633146103815760405162461bcd60e51b815260206004820152600a6024820152692737ba1036b4b73a32b960b11b6044820152606401610307565b6001600160a01b0381166103c85760405162461bcd60e51b815260206004820152600e60248201526d24b73b30b634b21036b4b73a32b960911b6044820152606401610307565b600580546001600160a01b0319166001600160a01b0392909216919091179055565b6103f78383836001610509565b505050565b6001600160a01b038381165f908152600160209081526040808320938616835292905220545f19811015610472578181101561046457604051637dc7a0d960e11b81526001600160a01b03841660048201526024810182905260448101839052606401610307565b61047284848484035f610509565b50505050565b6001600160a01b0383166104a157604051634b637e8f60e11b81525f6004820152602401610307565b6001600160a01b0382166104ca5760405163ec442f0560e01b81525f6004820152602401610307565b6103f78383836105db565b6001600160a01b0382166104fe5760405163ec442f0560e01b81525f6004820152602401610307565b61031a5f83836105db565b6001600160a01b0384166105325760405163e602df0560e01b81525f6004820152602401610307565b6001600160a01b03831661055b57604051634a1406b160e11b81525f6004820152602401610307565b6001600160a01b038085165f908152600160209081526040808320938716835292905220829055801561047257826001600160a01b0316846001600160a01b03167f8c5be1e5ebec7d5bd14f71427d1e84f3dd0314c0f7b2291e5b200ac8c7c3b925846040516105cd91815260200190565b60405180910390a350505050565b6001600160a01b038316610605578060025f8282546105fa919061083c565b909155506106759050565b6001600160a01b0383165f90815260208190526040902054818110156106575760405163391434e360e21b81526001600160a01b03851660048201526024810182905260448101839052606401610307565b6001600160a01b0384165f9081526020819052604090209082900390555b6001600160a01b038216610691576002805482900390556106af565b6001600160a01b0382165f9081526020819052604090208054820190555b816001600160a01b0316836001600160a01b03167fddf252ad1be2c89b69c2b068fc378daa952ba7f163c4a11628f55a4df523b3ef836040516106f491815260200190565b60405180910390a3505050565b602081525f82518060208401528060208501604085015e5f604082850101526040601f19601f83011684010191505092915050565b80356001600160a01b038116811461074c575f5ffd5b919050565b5f5f60408385031215610762575f5ffd5b61076b83610736565b946020939093013593505050565b5f5f5f6060848603121561078b575f5ffd5b61079484610736565b92506107a260208501610736565b929592945050506040919091013590565b5f602082840312156107c3575f5ffd5b6107cc82610736565b9392505050565b5f5f604083850312156107e4575f5ffd5b6107ed83610736565b91506107fb60208401610736565b90509250929050565b600181811c9082168061081857607f821691505b60208210810361083657634e487b7160e01b5f52602260045260245ffd5b50919050565b8082018082111561029b57634e487b7160e01b5f52601160045260245ffdfea26469706673582212208ddaa47ea678122a85dfbce03a51a025183e40228af7b907a2650c85f1ec7a8964736f6c634300081c00330000000000000000000000000000000000000000000000000000000000000040000000000000000000000000000000000000000000000000000000000000008000000000000000000000000000000000000000000000000000000000000000124769776156657269666965642047616d6d61000000000000000000000000000000000000000000000000000000000000000000000000000000000000000000034756430000000000000000000000000000000000000000000000000000000000",
        "nonce": "0xe7",
        "chainId": "0x164ce"
      },
      "additionalContracts": [],
      "isFixedGasLimit": false
    },
    {
      "hash": "0x7755652bf9ebb3b06b1c500ee7c5aefcd07ed129b7010c5f1ab78cf5b40acb75",
      "transactionType": "CREATE",
      "contractName": "GiwaToken",
      "contractAddress": "0x52d57b37f0e5c9fece966bc47ed0ca2e7cf78673",
      "function": null,
      "arguments": [
        "GiwaVerified Delta",
        "GVD"
      ],
      "transaction": {
        "from": "0x84c29fb8b41f229ad09f4d68f84d676a28dc4a3a",
        "to": null,
        "gas": "0xc0b27",
        "value": "0x0",
        "input": "0x608060405234801561000f575f5ffd5b50604051610b44380380610b4483398101604081905261002e91610103565b8181600361003c83826101ec565b50600461004982826101ec565b5050600580546001600160a01b03191633179055506102a6915050565b634e487b7160e01b5f52604160045260245ffd5b5f82601f830112610089575f5ffd5b81516001600160401b038111156100a2576100a2610066565b604051601f8201601f19908116603f011681016001600160401b03811182821017156100d0576100d0610066565b6040528181528382016020018510156100e7575f5ffd5b8160208501602083015e5f918101602001919091529392505050565b5f5f60408385031215610114575f5ffd5b82516001600160401b03811115610129575f5ffd5b6101358582860161007a565b602085015190935090506001600160401b03811115610152575f5ffd5b61015e8582860161007a565b9150509250929050565b600181811c9082168061017c57607f821691505b60208210810361019a57634e487b7160e01b5f52602260045260245ffd5b50919050565b601f8211156101e757805f5260205f20601f840160051c810160208510156101c55750805b601f840160051c820191505b818110156101e4575f81556001016101d1565b50505b505050565b81516001600160401b0381111561020557610205610066565b610219816102138454610168565b846101a0565b6020601f82116001811461024b575f83156102345750848201515b5f19600385901b1c1916600184901b1784556101e4565b5f84815260208120601f198516915b8281101561027a578785015182556020948501946001909201910161025a565b508482101561029757868401515f19600387901b60f8161c191681555b50505050600190811b01905550565b610891806102b35f395ff3fe608060405234801561000f575f5ffd5b50600436106100b1575f3560e01c806340c10f191161006e57806340c10f191461015557806370a082311461016a57806395d89b4114610192578063a9059cbb1461019a578063dd62ed3e146101ad578063fca3b5aa146101e5575f5ffd5b806306fdde03146100b557806307546172146100d3578063095ea7b3146100fe57806318160ddd1461012157806323b872dd14610133578063313ce56714610146575b5f5ffd5b6100bd6101f8565b6040516100ca9190610701565b60405180910390f35b6005546100e6906001600160a01b031681565b6040516001600160a01b0390911681526020016100ca565b61011161010c366004610751565b610288565b60405190151581526020016100ca565b6002545b6040519081526020016100ca565b610111610141366004610779565b6102a1565b604051601281526020016100ca565b610168610163366004610751565b6102c4565b005b6101256101783660046107b3565b6001600160a01b03165f9081526020819052604090205490565b6100bd61031e565b6101116101a8366004610751565b61032d565b6101256101bb3660046107d3565b6001600160a01b039182165f90815260016020908152604080832093909416825291909152205490565b6101686101f33660046107b3565b61033a565b60606003805461020790610804565b80601f016020809104026020016040519081016040528092919081815260200182805461023390610804565b801561027e5780601f106102555761010080835404028352916020019161027e565b820191905f5260205f20905b81548152906001019060200180831161026157829003601f168201915b5050505050905090565b5f336102958185856103ea565b60019150505b92915050565b5f336102ae8582856103fc565b6102b9858585610478565b506001949350505050565b6005546001600160a01b031633146103105760405162461bcd60e51b815260206004820152600a6024820152692737ba1036b4b73a32b960b11b60448201526064015b60405180910390fd5b61031a82826104d5565b5050565b60606004805461020790610804565b5f33610295818585610478565b6005546001600160a01b031633146103815760405162461bcd60e51b815260206004820152600a6024820152692737ba1036b4b73a32b960b11b6044820152606401610307565b6001600160a01b0381166103c85760405162461bcd60e51b815260206004820152600e60248201526d24b73b30b634b21036b4b73a32b960911b6044820152606401610307565b600580546001600160a01b0319166001600160a01b0392909216919091179055565b6103f78383836001610509565b505050565b6001600160a01b038381165f908152600160209081526040808320938616835292905220545f19811015610472578181101561046457604051637dc7a0d960e11b81526001600160a01b03841660048201526024810182905260448101839052606401610307565b61047284848484035f610509565b50505050565b6001600160a01b0383166104a157604051634b637e8f60e11b81525f6004820152602401610307565b6001600160a01b0382166104ca5760405163ec442f0560e01b81525f6004820152602401610307565b6103f78383836105db565b6001600160a01b0382166104fe5760405163ec442f0560e01b81525f6004820152602401610307565b61031a5f83836105db565b6001600160a01b0384166105325760405163e602df0560e01b81525f6004820152602401610307565b6001600160a01b03831661055b57604051634a1406b160e11b81525f6004820152602401610307565b6001600160a01b038085165f908152600160209081526040808320938716835292905220829055801561047257826001600160a01b0316846001600160a01b03167f8c5be1e5ebec7d5bd14f71427d1e84f3dd0314c0f7b2291e5b200ac8c7c3b925846040516105cd91815260200190565b60405180910390a350505050565b6001600160a01b038316610605578060025f8282546105fa919061083c565b909155506106759050565b6001600160a01b0383165f90815260208190526040902054818110156106575760405163391434e360e21b81526001600160a01b03851660048201526024810182905260448101839052606401610307565b6001600160a01b0384165f9081526020819052604090209082900390555b6001600160a01b038216610691576002805482900390556106af565b6001600160a01b0382165f9081526020819052604090208054820190555b816001600160a01b0316836001600160a01b03167fddf252ad1be2c89b69c2b068fc378daa952ba7f163c4a11628f55a4df523b3ef836040516106f491815260200190565b60405180910390a3505050565b602081525f82518060208401528060208501604085015e5f604082850101526040601f19601f83011684010191505092915050565b80356001600160a01b038116811461074c575f5ffd5b919050565b5f5f60408385031215610762575f5ffd5b61076b83610736565b946020939093013593505050565b5f5f5f6060848603121561078b575f5ffd5b61079484610736565b92506107a260208501610736565b929592945050506040919091013590565b5f602082840312156107c3575f5ffd5b6107cc82610736565b9392505050565b5f5f604083850312156107e4575f5ffd5b6107ed83610736565b91506107fb60208401610736565b90509250929050565b600181811c9082168061081857607f821691505b60208210810361083657634e487b7160e01b5f52602260045260245ffd5b50919050565b8082018082111561029b57634e487b7160e01b5f52601160045260245ffdfea26469706673582212208ddaa47ea678122a85dfbce03a51a025183e40228af7b907a2650c85f1ec7a8964736f6c634300081c00330000000000000000000000000000000000000000000000000000000000000040000000000000000000000000000000000000000000000000000000000000008000000000000000000000000000000000000000000000000000000000000000124769776156657269666965642044656c7461000000000000000000000000000000000000000000000000000000000000000000000000000000000000000000034756440000000000000000000000000000000000000000000000000000000000",
        "nonce": "0xe8",
        "chainId": "0x164ce"
      },
      "additionalContracts": [],
      "isFixedGasLimit": false
    },
    {
      "hash": "0x218244f7a7e4eb9056f279bf18ff651b7902f2b3c3ca16c6ce35e373a0b7fc19",
      "transactionType": "CREATE",
      "contractName": "GiwaToken",
      "contractAddress": "0x58c5c8641450609275f38376f614cf328db49df0",
      "function": null,
      "arguments": [
        "GiwaVerified Epsilon",
        "GVE"
      ],
      "transaction": {
        "from": "0x84c29fb8b41f229ad09f4d68f84d676a28dc4a3a",
        "to": null,
        "gas": "0xc0b46",
        "value": "0x0",
        "input": "0x608060405234801561000f575f5ffd5b50604051610b44380380610b4483398101604081905261002e91610103565b8181600361003c83826101ec565b50600461004982826101ec565b5050600580546001600160a01b03191633179055506102a6915050565b634e487b7160e01b5f52604160045260245ffd5b5f82601f830112610089575f5ffd5b81516001600160401b038111156100a2576100a2610066565b604051601f8201601f19908116603f011681016001600160401b03811182821017156100d0576100d0610066565b6040528181528382016020018510156100e7575f5ffd5b8160208501602083015e5f918101602001919091529392505050565b5f5f60408385031215610114575f5ffd5b82516001600160401b03811115610129575f5ffd5b6101358582860161007a565b602085015190935090506001600160401b03811115610152575f5ffd5b61015e8582860161007a565b9150509250929050565b600181811c9082168061017c57607f821691505b60208210810361019a57634e487b7160e01b5f52602260045260245ffd5b50919050565b601f8211156101e757805f5260205f20601f840160051c810160208510156101c55750805b601f840160051c820191505b818110156101e4575f81556001016101d1565b50505b505050565b81516001600160401b0381111561020557610205610066565b610219816102138454610168565b846101a0565b6020601f82116001811461024b575f83156102345750848201515b5f19600385901b1c1916600184901b1784556101e4565b5f84815260208120601f198516915b8281101561027a578785015182556020948501946001909201910161025a565b508482101561029757868401515f19600387901b60f8161c191681555b50505050600190811b01905550565b610891806102b35f395ff3fe608060405234801561000f575f5ffd5b50600436106100b1575f3560e01c806340c10f191161006e57806340c10f191461015557806370a082311461016a57806395d89b4114610192578063a9059cbb1461019a578063dd62ed3e146101ad578063fca3b5aa146101e5575f5ffd5b806306fdde03146100b557806307546172146100d3578063095ea7b3146100fe57806318160ddd1461012157806323b872dd14610133578063313ce56714610146575b5f5ffd5b6100bd6101f8565b6040516100ca9190610701565b60405180910390f35b6005546100e6906001600160a01b031681565b6040516001600160a01b0390911681526020016100ca565b61011161010c366004610751565b610288565b60405190151581526020016100ca565b6002545b6040519081526020016100ca565b610111610141366004610779565b6102a1565b604051601281526020016100ca565b610168610163366004610751565b6102c4565b005b6101256101783660046107b3565b6001600160a01b03165f9081526020819052604090205490565b6100bd61031e565b6101116101a8366004610751565b61032d565b6101256101bb3660046107d3565b6001600160a01b039182165f90815260016020908152604080832093909416825291909152205490565b6101686101f33660046107b3565b61033a565b60606003805461020790610804565b80601f016020809104026020016040519081016040528092919081815260200182805461023390610804565b801561027e5780601f106102555761010080835404028352916020019161027e565b820191905f5260205f20905b81548152906001019060200180831161026157829003601f168201915b5050505050905090565b5f336102958185856103ea565b60019150505b92915050565b5f336102ae8582856103fc565b6102b9858585610478565b506001949350505050565b6005546001600160a01b031633146103105760405162461bcd60e51b815260206004820152600a6024820152692737ba1036b4b73a32b960b11b60448201526064015b60405180910390fd5b61031a82826104d5565b5050565b60606004805461020790610804565b5f33610295818585610478565b6005546001600160a01b031633146103815760405162461bcd60e51b815260206004820152600a6024820152692737ba1036b4b73a32b960b11b6044820152606401610307565b6001600160a01b0381166103c85760405162461bcd60e51b815260206004820152600e60248201526d24b73b30b634b21036b4b73a32b960911b6044820152606401610307565b600580546001600160a01b0319166001600160a01b0392909216919091179055565b6103f78383836001610509565b505050565b6001600160a01b038381165f908152600160209081526040808320938616835292905220545f19811015610472578181101561046457604051637dc7a0d960e11b81526001600160a01b03841660048201526024810182905260448101839052606401610307565b61047284848484035f610509565b50505050565b6001600160a01b0383166104a157604051634b637e8f60e11b81525f6004820152602401610307565b6001600160a01b0382166104ca5760405163ec442f0560e01b81525f6004820152602401610307565b6103f78383836105db565b6001600160a01b0382166104fe5760405163ec442f0560e01b81525f6004820152602401610307565b61031a5f83836105db565b6001600160a01b0384166105325760405163e602df0560e01b81525f6004820152602401610307565b6001600160a01b03831661055b57604051634a1406b160e11b81525f6004820152602401610307565b6001600160a01b038085165f908152600160209081526040808320938716835292905220829055801561047257826001600160a01b0316846001600160a01b03167f8c5be1e5ebec7d5bd14f71427d1e84f3dd0314c0f7b2291e5b200ac8c7c3b925846040516105cd91815260200190565b60405180910390a350505050565b6001600160a01b038316610605578060025f8282546105fa919061083c565b909155506106759050565b6001600160a01b0383165f90815260208190526040902054818110156106575760405163391434e360e21b81526001600160a01b03851660048201526024810182905260448101839052606401610307565b6001600160a01b0384165f9081526020819052604090209082900390555b6001600160a01b038216610691576002805482900390556106af565b6001600160a01b0382165f9081526020819052604090208054820190555b816001600160a01b0316836001600160a01b03167fddf252ad1be2c89b69c2b068fc378daa952ba7f163c4a11628f55a4df523b3ef836040516106f491815260200190565b60405180910390a3505050565b602081525f82518060208401528060208501604085015e5f604082850101526040601f19601f83011684010191505092915050565b80356001600160a01b038116811461074c575f5ffd5b919050565b5f5f60408385031215610762575f5ffd5b61076b83610736565b946020939093013593505050565b5f5f5f6060848603121561078b575f5ffd5b61079484610736565b92506107a260208501610736565b929592945050506040919091013590565b5f602082840312156107c3575f5ffd5b6107cc82610736565b9392505050565b5f5f604083850312156107e4575f5ffd5b6107ed83610736565b91506107fb60208401610736565b90509250929050565b600181811c9082168061081857607f821691505b60208210810361083657634e487b7160e01b5f52602260045260245ffd5b50919050565b8082018082111561029b57634e487b7160e01b5f52601160045260245ffdfea26469706673582212208ddaa47ea678122a85dfbce03a51a025183e40228af7b907a2650c85f1ec7a8964736f6c634300081c003300000000000000000000000000000000000000000000000000000000000000400000000000000000000000000000000000000000000000000000000000000080000000000000000000000000000000000000000000000000000000000000001447697761566572696669656420457073696c6f6e00000000000000000000000000000000000000000000000000000000000000000000000000000000000000034756450000000000000000000000000000000000000000000000000000000000",
        "nonce": "0xe9",
        "chainId": "0x164ce"
      },
      "additionalContracts": [],
      "isFixedGasLimit": false
    },
    {
      "hash": "0x7c5f3a73df6c6e174e6771430773fb6d768dabbc16db6ffaea66a569866c1de5",
      "transactionType": "CALL",
      "contractName": "GiwaToken",
      "contractAddress": "0xaeb7b16e9fd7dbb7c815f102e3ec9d44d4358887",
      "function": "mint(address,uint256)",
      "arguments": [
        "0xD478F71086146539Aad272f74aa7E73ee1ba9A4B",
        "400000000000000000000000"
      ],
      "transaction": {
        "from": "0x84c29fb8b41f229ad09f4d68f84d676a28dc4a3a",
        "to": "0xaeb7b16e9fd7dbb7c815f102e3ec9d44d4358887",
        "gas": "0x17cbe",
        "value": "0x0",
        "input": "0x40c10f19000000000000000000000000d478f71086146539aad272f74aa7e73ee1ba9a4b0000000000000000000000000000000000000000000054b40b1f852bda000000",
        "nonce": "0xea",
        "chainId": "0x164ce"
      },
      "additionalContracts": [],
      "isFixedGasLimit": false
    },
    {
      "hash": "0x5c5a07d64a11eecc91881c543607aa8b4999b7287bcb42d52cc8648aa84356f7",
      "transactionType": "CALL",
      "contractName": "GiwaToken",
      "contractAddress": "0x7c9d5163eabb67417107a0a0e3df0397a1ad3d03",
      "function": "mint(address,uint256)",
      "arguments": [
        "0xD478F71086146539Aad272f74aa7E73ee1ba9A4B",
        "400000000000000000000000"
      ],
      "transaction": {
        "from": "0x84c29fb8b41f229ad09f4d68f84d676a28dc4a3a",
        "to": "0x7c9d5163eabb67417107a0a0e3df0397a1ad3d03",
        "gas": "0x17cbe",
        "value": "0x0",
        "input": "0x40c10f19000000000000000000000000d478f71086146539aad272f74aa7e73ee1ba9a4b0000000000000000000000000000000000000000000054b40b1f852bda000000",
        "nonce": "0xeb",
        "chainId": "0x164ce"
      },
      "additionalContracts": [],
      "isFixedGasLimit": false
    },
    {
      "hash": "0x6ad59669a3be5485354a36cad607c5a7f268fb31fb5806796536420b2f3620a2",
      "transactionType": "CALL",
      "contractName": "GiwaToken",
      "contractAddress": "0xe9d91031b2c330faf5d6f1cd11981b06dc208a6e",
      "function": "mint(address,uint256)",
      "arguments": [
        "0xD478F71086146539Aad272f74aa7E73ee1ba9A4B",
        "400000000000000000000000"
      ],
      "transaction": {
        "from": "0x84c29fb8b41f229ad09f4d68f84d676a28dc4a3a",
        "to": "0xe9d91031b2c330faf5d6f1cd11981b06dc208a6e",
        "gas": "0x17cbe",
        "value": "0x0",
        "input": "0x40c10f19000000000000000000000000d478f71086146539aad272f74aa7e73ee1ba9a4b0000000000000000000000000000000000000000000054b40b1f852bda000000",
        "nonce": "0xec",
        "chainId": "0x164ce"
      },
      "additionalContracts": [],
      "isFixedGasLimit": false
    },
    {
      "hash": "0x80a7f38e72e8c1aa35e00e31e087c0f093f8c1299e7f128e46de05666209b505",
      "transactionType": "CALL",
      "contractName": "GiwaToken",
      "contractAddress": "0x52d57b37f0e5c9fece966bc47ed0ca2e7cf78673",
      "function": "mint(address,uint256)",
      "arguments": [
        "0xD478F71086146539Aad272f74aa7E73ee1ba9A4B",
        "400000000000000000000000"
      ],
      "transaction": {
        "from": "0x84c29fb8b41f229ad09f4d68f84d676a28dc4a3a",
        "to": "0x52d57b37f0e5c9fece966bc47ed0ca2e7cf78673",
        "gas": "0x17cbe",
        "value": "0x0",
        "input": "0x40c10f19000000000000000000000000d478f71086146539aad272f74aa7e73ee1ba9a4b0000000000000000000000000000000000000000000054b40b1f852bda000000",
        "nonce": "0xed",
        "chainId": "0x164ce"
      },
      "additionalContracts": [],
      "isFixedGasLimit": false
    },
    {
      "hash": "0x867e79647655cd348204514c439d7119724c7a1bc4204168721ba3ee6b3ae778",
      "transactionType": "CALL",
      "contractName": "GiwaToken",
      "contractAddress": "0x58c5c8641450609275f38376f614cf328db49df0",
      "function": "mint(address,uint256)",
      "arguments": [
        "0xD478F71086146539Aad272f74aa7E73ee1ba9A4B",
        "400000000000000000000000"
      ],
      "transaction": {
        "from": "0x84c29fb8b41f229ad09f4d68f84d676a28dc4a3a",
        "to": "0x58c5c8641450609275f38376f614cf328db49df0",
        "gas": "0x17cbe",
        "value": "0x0",
        "input": "0x40c10f19000000000000000000000000d478f71086146539aad272f74aa7e73ee1ba9a4b0000000000000000000000000000000000000000000054b40b1f852bda000000",
        "nonce": "0xee",
        "chainId": "0x164ce"
      },
      "additionalContracts": [],
      "isFixedGasLimit": false
    },
    {
      "hash": "0x0e177cdb4e460f3c02df17613c309c6fc310c73212e261f338fe67c1a10de664",
      "transactionType": "CALL",
      "contractName": null,
      "contractAddress": "0xd478f71086146539aad272f74aa7e73ee1ba9a4b",
      "function": "registerToken(address)",
      "arguments": [
        "0xaEb7b16e9FD7Dbb7c815F102E3EC9d44d4358887"
      ],
      "transaction": {
        "from": "0x84c29fb8b41f229ad09f4d68f84d676a28dc4a3a",
        "to": "0xd478f71086146539aad272f74aa7e73ee1ba9a4b",
        "gas": "0x1aab0",
        "value": "0x0",
        "input": "0x09824a80000000000000000000000000aeb7b16e9fd7dbb7c815f102e3ec9d44d4358887",
        "nonce": "0xef",
        "chainId": "0x164ce"
      },
      "additionalContracts": [],
      "isFixedGasLimit": false
    },
    {
      "hash": "0xa4e0aaf9f09e063c045c199cd30c5e61afe613e4643287c80414a3dfc4305b3d",
      "transactionType": "CALL",
      "contractName": null,
      "contractAddress": "0xd478f71086146539aad272f74aa7e73ee1ba9a4b",
      "function": "registerToken(address)",
      "arguments": [
        "0x7c9D5163EABb67417107A0a0e3DF0397A1ad3D03"
      ],
      "transaction": {
        "from": "0x84c29fb8b41f229ad09f4d68f84d676a28dc4a3a",
        "to": "0xd478f71086146539aad272f74aa7e73ee1ba9a4b",
        "gas": "0x1aab0",
        "value": "0x0",
        "input": "0x09824a800000000000000000000000007c9d5163eabb67417107a0a0e3df0397a1ad3d03",
        "nonce": "0xf0",
        "chainId": "0x164ce"
      },
      "additionalContracts": [],
      "isFixedGasLimit": false
    },
    {
      "hash": "0x0307163bccb3cad64e9eba816f3ac6474ad38963245e2b752ce5505c841df0e8",
      "transactionType": "CALL",
      "contractName": null,
      "contractAddress": "0xd478f71086146539aad272f74aa7e73ee1ba9a4b",
      "function": "registerToken(address)",
      "arguments": [
        "0xE9D91031B2c330fAF5D6f1cd11981B06DC208A6e"
      ],
      "transaction": {
        "from": "0x84c29fb8b41f229ad09f4d68f84d676a28dc4a3a",
        "to": "0xd478f71086146539aad272f74aa7e73ee1ba9a4b",
        "gas": "0x1aab0",
        "value": "0x0",
        "input": "0x09824a80000000000000000000000000e9d91031b2c330faf5d6f1cd11981b06dc208a6e",
        "nonce": "0xf1",
        "chainId": "0x164ce"
      },
      "additionalContracts": [],
      "isFixedGasLimit": false
    },
    {
      "hash": "0x9354fd293084c1a9a07d7c8927905643a21bd87dd8d2d78fb86cefad71f08d31",
      "transactionType": "CALL",
      "contractName": null,
      "contractAddress": "0xd478f71086146539aad272f74aa7e73ee1ba9a4b",
      "function": "registerToken(address)",
      "arguments": [
        "0x52d57B37F0E5C9fEce966BC47ed0Ca2E7Cf78673"
      ],
      "transaction": {
        "from": "0x84c29fb8b41f229ad09f4d68f84d676a28dc4a3a",
        "to": "0xd478f71086146539aad272f74aa7e73ee1ba9a4b",
        "gas": "0x1aab0",
        "value": "0x0",
        "input": "0x09824a8000000000000000000000000052d57b37f0e5c9fece966bc47ed0ca2e7cf78673",
        "nonce": "0xf2",
        "chainId": "0x164ce"
      },
      "additionalContracts": [],
      "isFixedGasLimit": false
    },
    {
      "hash": "0x3868d931042cd95e4781fddd5eabd29a883449171c99d4c363062eaa8ec561ab",
      "transactionType": "CALL",
      "contractName": null,
      "contractAddress": "0xd478f71086146539aad272f74aa7e73ee1ba9a4b",
      "function": "registerToken(address)",
      "arguments": [
        "0x58C5c8641450609275F38376F614cf328dB49df0"
      ],
      "transaction": {
        "from": "0x84c29fb8b41f229ad09f4d68f84d676a28dc4a3a",
        "to": "0xd478f71086146539aad272f74aa7e73ee1ba9a4b",
        "gas": "0x1aab0",
        "value": "0x0",
        "input": "0x09824a8000000000000000000000000058c5c8641450609275f38376f614cf328db49df0",
        "nonce": "0xf3",
        "chainId": "0x164ce"
      },
      "additionalContracts": [],
      "isFixedGasLimit": false
    }
  ],
  "receipts": [
    {
      "type": "0x2",
      "status": "0x1",
      "cumulativeGasUsed": "0xdd948",
      "logs": [],
      "logsBloom": "0x00000000000000000000000000000000000000000000000000000000000000000000000000000000000000000000000000000000000000000000000000000000000000000000000000000000000000000000000000000000000000000000000000000000000000000000000000000000000000000000000000000000000000000000000000000000000000000000000000000000000000000000000000000000000000000000000000000000000000000000000000000000000000000000000000000000000000000000000000000000000000000000000000000000000000000000000000000000000000000000000000000000000000000000000000000000",
      "transactionHash": "0xeeb989af4f1aac3b59e7ddc10398c9afcd4fc8b75f917d448e4a4323a5fadcfa",
      "transactionIndex": "0x3",
      "blockHash": "0x12de67d53c7ca48fd812dcf3e29263e7807146e750e9ca761512d91a0d8b05ad",
      "blockNumber": "0x1ded983",
      "gasUsed": "0x943a8",
      "effectiveGasPrice": "0xf433f",
      "blobGasUsed": "0xaf320",
      "from": "0x84c29fb8b41f229ad09f4d68f84d676a28dc4a3a",
      "to": null,
      "contractAddress": "0xaeb7b16e9fd7dbb7c815f102e3ec9d44d4358887"
    },
    {
      "type": "0x2",
      "status": "0x1",
      "cumulativeGasUsed": "0x1bd1ea",
      "logs": [],
      "logsBloom": "0x00000000000000000000000000000000000000000000000000000000000000000000000000000000000000000000000000000000000000000000000000000000000000000000000000000000000000000000000000000000000000000000000000000000000000000000000000000000000000000000000000000000000000000000000000000000000000000000000000000000000000000000000000000000000000000000000000000000000000000000000000000000000000000000000000000000000000000000000000000000000000000000000000000000000000000000000000000000000000000000000000000000000000000000000000000000",
      "transactionHash": "0x7755652bf9ebb3b06b1c500ee7c5aefcd07ed129b7010c5f1ab78cf5b40acb75",
      "transactionIndex": "0x5",
      "blockHash": "0x12de67d53c7ca48fd812dcf3e29263e7807146e750e9ca761512d91a0d8b05ad",
      "blockNumber": "0x1ded983",
      "gasUsed": "0x9439c",
      "effectiveGasPrice": "0xf433f",
      "blobGasUsed": "0xaf190",
      "from": "0x84c29fb8b41f229ad09f4d68f84d676a28dc4a3a",
      "to": null,
      "contractAddress": "0x7c9d5163eabb67417107a0a0e3df0397a1ad3d03"
    },
    {
      "type": "0x2",
      "status": "0x1",
      "cumulativeGasUsed": "0x251592",
      "logs": [],
      "logsBloom": "0x00000000000000000000000000000000000000000000000000000000000000000000000000000000000000000000000000000000000000000000000000000000000000000000000000000000000000000000000000000000000000000000000000000000000000000000000000000000000000000000000000000000000000000000000000000000000000000000000000000000000000000000000000000000000000000000000000000000000000000000000000000000000000000000000000000000000000000000000000000000000000000000000000000000000000000000000000000000000000000000000000000000000000000000000000000000",
      "transactionHash": "0xfe2673d79943a926eea611c2cd5a6539b53ac68c0df39cfe6755474a9c9a3be9",
      "transactionIndex": "0x6",
      "blockHash": "0x12de67d53c7ca48fd812dcf3e29263e7807146e750e9ca761512d91a0d8b05ad",
      "blockNumber": "0x1ded983",
      "gasUsed": "0x943a8",
      "effectiveGasPrice": "0xf433f",
      "blobGasUsed": "0xaf320",
      "from": "0x84c29fb8b41f229ad09f4d68f84d676a28dc4a3a",
      "to": null,
      "contractAddress": "0xe9d91031b2c330faf5d6f1cd11981b06dc208a6e"
    },
    {
      "type": "0x2",
      "status": "0x1",
      "cumulativeGasUsed": "0x2e593a",
      "logs": [],
      "logsBloom": "0x00000000000000000000000000000000000000000000000000000000000000000000000000000000000000000000000000000000000000000000000000000000000000000000000000000000000000000000000000000000000000000000000000000000000000000000000000000000000000000000000000000000000000000000000000000000000000000000000000000000000000000000000000000000000000000000000000000000000000000000000000000000000000000000000000000000000000000000000000000000000000000000000000000000000000000000000000000000000000000000000000000000000000000000000000000000",
      "transactionHash": "0x0de120b5842768f4f097be9a6dee5ef9f63db5a91d0994571d3374b3d53f1afa",
      "transactionIndex": "0x7",
      "blockHash": "0x12de67d53c7ca48fd812dcf3e29263e7807146e750e9ca761512d91a0d8b05ad",
      "blockNumber": "0x1ded983",
      "gasUsed": "0x943a8",
      "effectiveGasPrice": "0xf433f",
      "blobGasUsed": "0xaf320",
      "from": "0x84c29fb8b41f229ad09f4d68f84d676a28dc4a3a",
      "to": null,
      "contractAddress": "0x52d57b37f0e5c9fece966bc47ed0ca2e7cf78673"
    },
    {
      "type": "0x2",
      "status": "0x1",
      "cumulativeGasUsed": "0x400c3a",
      "logs": [],
      "logsBloom": "0x00000000000000000000000000000000000000000000000000000000000000000000000000000000000000000000000000000000000000000000000000000000000000000000000000000000000000000000000000000000000000000000000000000000000000000000000000000000000000000000000000000000000000000000000000000000000000000000000000000000000000000000000000000000000000000000000000000000000000000000000000000000000000000000000000000000000000000000000000000000000000000000000000000000000000000000000000000000000000000000000000000000000000000000000000000000",
      "transactionHash": "0xa4e0aaf9f09e063c045c199cd30c5e61afe613e4643287c80414a3dfc4305b3d",
      "transactionIndex": "0xd",
      "blockHash": "0x12de67d53c7ca48fd812dcf3e29263e7807146e750e9ca761512d91a0d8b05ad",
      "blockNumber": "0x1ded983",
      "gasUsed": "0x943c0",
      "effectiveGasPrice": "0xf433f",
      "blobGasUsed": "0xaf640",
      "from": "0x84c29fb8b41f229ad09f4d68f84d676a28dc4a3a",
      "to": null,
      "contractAddress": "0x58c5c8641450609275f38376f614cf328db49df0"
    },
    {
      "type": "0x2",
      "status": "0x1",
      "cumulativeGasUsed": "0x411fe1",
      "logs": [
        {
          "address": "0xaeb7b16e9fd7dbb7c815f102e3ec9d44d4358887",
          "topics": [
            "0xddf252ad1be2c89b69c2b068fc378daa952ba7f163c4a11628f55a4df523b3ef",
            "0x0000000000000000000000000000000000000000000000000000000000000000",
            "0x000000000000000000000000d478f71086146539aad272f74aa7e73ee1ba9a4b"
          ],
          "data": "0x0000000000000000000000000000000000000000000054b40b1f852bda000000",
          "blockHash": "0x12de67d53c7ca48fd812dcf3e29263e7807146e750e9ca761512d91a0d8b05ad",
          "blockNumber": "0x1ded983",
          "blockTimestamp": "0x6a60c5df",
          "transactionHash": "0x9354fd293084c1a9a07d7c8927905643a21bd87dd8d2d78fb86cefad71f08d31",
          "transactionIndex": "0xe",
          "logIndex": "0x7",
          "removed": false
        }
      ],
      "logsBloom": "0x00000000000000000000000000000000000000008000000000000000000000000000001000000000000800000000000000000000000000000000000000000000000000000000000000000008000000000000000000000000000000000000000000000000020000000000000000000800000000000000000000000010000000000000000000000000000000000000000000000000000000000000000000000000800000000000000000000000000000000000000000000000000000000000000000000002000000000000000000000000000000000800000000000000000420000000000000000000000000000000000000000000000000000000000000000000",
      "transactionHash": "0x9354fd293084c1a9a07d7c8927905643a21bd87dd8d2d78fb86cefad71f08d31",
      "transactionIndex": "0xe",
      "blockHash": "0x12de67d53c7ca48fd812dcf3e29263e7807146e750e9ca761512d91a0d8b05ad",
      "blockNumber": "0x1ded983",
      "gasUsed": "0x113a7",
      "effectiveGasPrice": "0xf433f",
      "blobGasUsed": "0x9c40",
      "from": "0x84c29fb8b41f229ad09f4d68f84d676a28dc4a3a",
      "to": "0xaeb7b16e9fd7dbb7c815f102e3ec9d44d4358887",
      "contractAddress": null
    },
    {
      "type": "0x2",
      "status": "0x1",
      "cumulativeGasUsed": "0x423388",
      "logs": [
        {
          "address": "0x7c9d5163eabb67417107a0a0e3df0397a1ad3d03",
          "topics": [
            "0xddf252ad1be2c89b69c2b068fc378daa952ba7f163c4a11628f55a4df523b3ef",
            "0x0000000000000000000000000000000000000000000000000000000000000000",
            "0x000000000000000000000000d478f71086146539aad272f74aa7e73ee1ba9a4b"
          ],
          "data": "0x0000000000000000000000000000000000000000000054b40b1f852bda000000",
          "blockHash": "0x12de67d53c7ca48fd812dcf3e29263e7807146e750e9ca761512d91a0d8b05ad",
          "blockNumber": "0x1ded983",
          "blockTimestamp": "0x6a60c5df",
          "transactionHash": "0x6ad59669a3be5485354a36cad607c5a7f268fb31fb5806796536420b2f3620a2",
          "transactionIndex": "0xf",
          "logIndex": "0x8",
          "removed": false
        }
      ],
      "logsBloom": "0x00000000000000000000000000000000000000000000000000000000000000000000000000000000800800000000000000000000000000000000000000000000000000000000000000000008000000000000000000000000000000000000000000000000020000000000000000000800000000000000000000000010000000000000000000000000000000000000000000000000000000000000000000000800800800000000000000000000000000000000000000000000000000000000000000000002000000000000000000000000000000000000000000000000000420000000000000000000000000000000000000000000000000000000000000000000",
      "transactionHash": "0x6ad59669a3be5485354a36cad607c5a7f268fb31fb5806796536420b2f3620a2",
      "transactionIndex": "0xf",
      "blockHash": "0x12de67d53c7ca48fd812dcf3e29263e7807146e750e9ca761512d91a0d8b05ad",
      "blockNumber": "0x1ded983",
      "gasUsed": "0x113a7",
      "effectiveGasPrice": "0xf433f",
      "blobGasUsed": "0x9c40",
      "from": "0x84c29fb8b41f229ad09f4d68f84d676a28dc4a3a",
      "to": "0x7c9d5163eabb67417107a0a0e3df0397a1ad3d03",
      "contractAddress": null
    },
    {
      "type": "0x2",
      "status": "0x1",
      "cumulativeGasUsed": "0x43472f",
      "logs": [
        {
          "address": "0xe9d91031b2c330faf5d6f1cd11981b06dc208a6e",
          "topics": [
            "0xddf252ad1be2c89b69c2b068fc378daa952ba7f163c4a11628f55a4df523b3ef",
            "0x0000000000000000000000000000000000000000000000000000000000000000",
            "0x000000000000000000000000d478f71086146539aad272f74aa7e73ee1ba9a4b"
          ],
          "data": "0x0000000000000000000000000000000000000000000054b40b1f852bda000000",
          "blockHash": "0x12de67d53c7ca48fd812dcf3e29263e7807146e750e9ca761512d91a0d8b05ad",
          "blockNumber": "0x1ded983",
          "blockTimestamp": "0x6a60c5df",
          "transactionHash": "0x0e177cdb4e460f3c02df17613c309c6fc310c73212e261f338fe67c1a10de664",
          "transactionIndex": "0x10",
          "logIndex": "0x9",
          "removed": false
        }
      ],
      "logsBloom": "0x00000000000000000000000000000000000000000000000000000000000000000000000000000000000800000000000000000000000000000000000000000000000000000000000000000008000000000000400000000000000000000000000000000000020000000000000000000800000000000000000000000010000000000000000000100000000000000000000000000000000000000000000000000000800000000000000000000000000000000000000000000000000000000000000000000002000000000000000000000000000000000000000000004000000420000000000000000000000000000000000000000000000000000000000000000000",
      "transactionHash": "0x0e177cdb4e460f3c02df17613c309c6fc310c73212e261f338fe67c1a10de664",
      "transactionIndex": "0x10",
      "blockHash": "0x12de67d53c7ca48fd812dcf3e29263e7807146e750e9ca761512d91a0d8b05ad",
      "blockNumber": "0x1ded983",
      "gasUsed": "0x113a7",
      "effectiveGasPrice": "0xf433f",
      "blobGasUsed": "0x9c40",
      "from": "0x84c29fb8b41f229ad09f4d68f84d676a28dc4a3a",
      "to": "0xe9d91031b2c330faf5d6f1cd11981b06dc208a6e",
      "contractAddress": null
    },
    {
      "type": "0x2",
      "status": "0x1",
      "cumulativeGasUsed": "0x445ad6",
      "logs": [
        {
          "address": "0x52d57b37f0e5c9fece966bc47ed0ca2e7cf78673",
          "topics": [
            "0xddf252ad1be2c89b69c2b068fc378daa952ba7f163c4a11628f55a4df523b3ef",
            "0x0000000000000000000000000000000000000000000000000000000000000000",
            "0x000000000000000000000000d478f71086146539aad272f74aa7e73ee1ba9a4b"
          ],
          "data": "0x0000000000000000000000000000000000000000000054b40b1f852bda000000",
          "blockHash": "0x12de67d53c7ca48fd812dcf3e29263e7807146e750e9ca761512d91a0d8b05ad",
          "blockNumber": "0x1ded983",
          "blockTimestamp": "0x6a60c5df",
          "transactionHash": "0x7c5f3a73df6c6e174e6771430773fb6d768dabbc16db6ffaea66a569866c1de5",
          "transactionIndex": "0x11",
          "logIndex": "0xa",
          "removed": false
        }
      ],
      "logsBloom": "0x00000000000000000000000000000000000000000000000000000000000000000000000000000000000800000000000000000000000000000000000000000000000000000000000000000008000000000000000000000004000000000000000000000000020000000000000000000800000000000000000000000010000000000000000000000040000000000000000000000000000000000000000000000000800000000000000000000000000000000000000000000000000000000000000000000002000000000400000000000000000000000000000000000000000420000000000000000000000000000000000000000000000000000000000000000000",
      "transactionHash": "0x7c5f3a73df6c6e174e6771430773fb6d768dabbc16db6ffaea66a569866c1de5",
      "transactionIndex": "0x11",
      "blockHash": "0x12de67d53c7ca48fd812dcf3e29263e7807146e750e9ca761512d91a0d8b05ad",
      "blockNumber": "0x1ded983",
      "gasUsed": "0x113a7",
      "effectiveGasPrice": "0xf433f",
      "blobGasUsed": "0x9c40",
      "from": "0x84c29fb8b41f229ad09f4d68f84d676a28dc4a3a",
      "to": "0x52d57b37f0e5c9fece966bc47ed0ca2e7cf78673",
      "contractAddress": null
    },
    {
      "type": "0x2",
      "status": "0x1",
      "cumulativeGasUsed": "0x456e7d",
      "logs": [
        {
          "address": "0x58c5c8641450609275f38376f614cf328db49df0",
          "topics": [
            "0xddf252ad1be2c89b69c2b068fc378daa952ba7f163c4a11628f55a4df523b3ef",
            "0x0000000000000000000000000000000000000000000000000000000000000000",
            "0x000000000000000000000000d478f71086146539aad272f74aa7e73ee1ba9a4b"
          ],
          "data": "0x0000000000000000000000000000000000000000000054b40b1f852bda000000",
          "blockHash": "0x12de67d53c7ca48fd812dcf3e29263e7807146e750e9ca761512d91a0d8b05ad",
          "blockNumber": "0x1ded983",
          "blockTimestamp": "0x6a60c5df",
          "transactionHash": "0x218244f7a7e4eb9056f279bf18ff651b7902f2b3c3ca16c6ce35e373a0b7fc19",
          "transactionIndex": "0x12",
          "logIndex": "0xb",
          "removed": false
        }
      ],
      "logsBloom": "0x00000000000000000000000000000000000000000000000000000000000000000000000000000000000800000000000000000000000000000000000000000000000000000000000000000008000000000000000000000000000000000000000000000000020000000000000000000800000000000000000000000012000000000000000000000000000000000000000000000000000000000000000000000000800000000000000000000000000000000000000000000000000000000000000000080002000000000000000000000000000000000000000000000000000420000000000000001000000000000000000000000000000000000000000000000000",
      "transactionHash": "0x218244f7a7e4eb9056f279bf18ff651b7902f2b3c3ca16c6ce35e373a0b7fc19",
      "transactionIndex": "0x12",
      "blockHash": "0x12de67d53c7ca48fd812dcf3e29263e7807146e750e9ca761512d91a0d8b05ad",
      "blockNumber": "0x1ded983",
      "gasUsed": "0x113a7",
      "effectiveGasPrice": "0xf433f",
      "blobGasUsed": "0x9c40",
      "from": "0x84c29fb8b41f229ad09f4d68f84d676a28dc4a3a",
      "to": "0x58c5c8641450609275f38376f614cf328db49df0",
      "contractAddress": null
    },
    {
      "type": "0x2",
      "status": "0x1",
      "cumulativeGasUsed": "0x46923e",
      "logs": [
        {
          "address": "0xd478f71086146539aad272f74aa7e73ee1ba9a4b",
          "topics": [
            "0x158412daecdc1456d01568828bcdb18464cc7f1ce0215ddbc3f3cfede9d1e63d",
            "0x000000000000000000000000aeb7b16e9fd7dbb7c815f102e3ec9d44d4358887"
          ],
          "data": "0x",
          "blockHash": "0x12de67d53c7ca48fd812dcf3e29263e7807146e750e9ca761512d91a0d8b05ad",
          "blockNumber": "0x1ded983",
          "blockTimestamp": "0x6a60c5df",
          "transactionHash": "0x0307163bccb3cad64e9eba816f3ac6474ad38963245e2b752ce5505c841df0e8",
          "transactionIndex": "0x13",
          "logIndex": "0xc",
          "removed": false
        }
      ],
      "logsBloom": "0x00010000000000000000000020000000000000000000000000000000000000000000000000000400000000000000000000000000000000000000000000000000000000000000000000008000000000000000000000000000000000000000000010000000000000000000000000000000000000000000000000000000000000020000000008000000000000000400000000000000000000000000000000000000000000000000000000000000000000000000000000000000000000000000000000000000000000000000000400000000000000000000000000000000000000000000000000000000000000000000000000000000000000000000000000000000",
      "transactionHash": "0x0307163bccb3cad64e9eba816f3ac6474ad38963245e2b752ce5505c841df0e8",
      "transactionIndex": "0x13",
      "blockHash": "0x12de67d53c7ca48fd812dcf3e29263e7807146e750e9ca761512d91a0d8b05ad",
      "blockNumber": "0x1ded983",
      "gasUsed": "0x123c1",
      "effectiveGasPrice": "0xf433f",
      "blobGasUsed": "0x9c40",
      "from": "0x84c29fb8b41f229ad09f4d68f84d676a28dc4a3a",
      "to": "0xd478f71086146539aad272f74aa7e73ee1ba9a4b",
      "contractAddress": null
    },
    {
      "type": "0x2",
      "status": "0x1",
      "cumulativeGasUsed": "0x47b5ff",
      "logs": [
        {
          "address": "0xd478f71086146539aad272f74aa7e73ee1ba9a4b",
          "topics": [
            "0x158412daecdc1456d01568828bcdb18464cc7f1ce0215ddbc3f3cfede9d1e63d",
            "0x0000000000000000000000007c9d5163eabb67417107a0a0e3df0397a1ad3d03"
          ],
          "data": "0x",
          "blockHash": "0x12de67d53c7ca48fd812dcf3e29263e7807146e750e9ca761512d91a0d8b05ad",
          "blockNumber": "0x1ded983",
          "blockTimestamp": "0x6a60c5df",
          "transactionHash": "0x5c5a07d64a11eecc91881c543607aa8b4999b7287bcb42d52cc8648aa84356f7",
          "transactionIndex": "0x14",
          "logIndex": "0xd",
          "removed": false
        }
      ],
      "logsBloom": "0x00010000000000000000000000000000000004000000000000000000000000000000000000000400000000000000000000000000000000000000000000000000000000000000000000008000000000000000000000000000000000000000000000000000000000000000000000000000000000000000000000000000000000020000000000000000000000000400000000000000000000000000000000000000000000000000000000000000000000200000000000000000000000000000000000000000000000000000000400000000000000000000000000400000000000000000000000000000000000000000000000000000000000000000000000000000",
      "transactionHash": "0x5c5a07d64a11eecc91881c543607aa8b4999b7287bcb42d52cc8648aa84356f7",
      "transactionIndex": "0x14",
      "blockHash": "0x12de67d53c7ca48fd812dcf3e29263e7807146e750e9ca761512d91a0d8b05ad",
      "blockNumber": "0x1ded983",
      "gasUsed": "0x123c1",
      "effectiveGasPrice": "0xf433f",
      "blobGasUsed": "0x9c40",
      "from": "0x84c29fb8b41f229ad09f4d68f84d676a28dc4a3a",
      "to": "0xd478f71086146539aad272f74aa7e73ee1ba9a4b",
      "contractAddress": null
    },
    {
      "type": "0x2",
      "status": "0x1",
      "cumulativeGasUsed": "0x48d9c0",
      "logs": [
        {
          "address": "0xd478f71086146539aad272f74aa7e73ee1ba9a4b",
          "topics": [
            "0x158412daecdc1456d01568828bcdb18464cc7f1ce0215ddbc3f3cfede9d1e63d",
            "0x000000000000000000000000e9d91031b2c330faf5d6f1cd11981b06dc208a6e"
          ],
          "data": "0x",
          "blockHash": "0x12de67d53c7ca48fd812dcf3e29263e7807146e750e9ca761512d91a0d8b05ad",
          "blockNumber": "0x1ded983",
          "blockTimestamp": "0x6a60c5df",
          "transactionHash": "0x80a7f38e72e8c1aa35e00e31e087c0f093f8c1299e7f128e46de05666209b505",
          "transactionIndex": "0x15",
          "logIndex": "0xe",
          "removed": false
        }
      ],
      "logsBloom": "0x00010000000000000000000000000000000000000000000000000000000000000000000000000400000000000000000000000000000000000000000000000000000000008000000000008000000000000000000000000000000000000000000000000000000000000000000000000000000000000000000000000000000000020000000100000000000000000400000000000000000000000000000000000000000000000000000000000000000000000000000000000000000000000000000000000000000000000000000400000000000010000000000000000000000000000000000000000000000000000000000000000000000000000000000000000000",
      "transactionHash": "0x80a7f38e72e8c1aa35e00e31e087c0f093f8c1299e7f128e46de05666209b505",
      "transactionIndex": "0x15",
      "blockHash": "0x12de67d53c7ca48fd812dcf3e29263e7807146e750e9ca761512d91a0d8b05ad",
      "blockNumber": "0x1ded983",
      "gasUsed": "0x123c1",
      "effectiveGasPrice": "0xf433f",
      "blobGasUsed": "0x9c40",
      "from": "0x84c29fb8b41f229ad09f4d68f84d676a28dc4a3a",
      "to": "0xd478f71086146539aad272f74aa7e73ee1ba9a4b",
      "contractAddress": null
    },
    {
      "type": "0x2",
      "status": "0x1",
      "cumulativeGasUsed": "0x49fd81",
      "logs": [
        {
          "address": "0xd478f71086146539aad272f74aa7e73ee1ba9a4b",
          "topics": [
            "0x158412daecdc1456d01568828bcdb18464cc7f1ce0215ddbc3f3cfede9d1e63d",
            "0x00000000000000000000000052d57b37f0e5c9fece966bc47ed0ca2e7cf78673"
          ],
          "data": "0x",
          "blockHash": "0x12de67d53c7ca48fd812dcf3e29263e7807146e750e9ca761512d91a0d8b05ad",
          "blockNumber": "0x1ded983",
          "blockTimestamp": "0x6a60c5df",
          "transactionHash": "0x867e79647655cd348204514c439d7119724c7a1bc4204168721ba3ee6b3ae778",
          "transactionIndex": "0x16",
          "logIndex": "0xf",
          "removed": false
        }
      ],
      "logsBloom": "0x00010000000000000000000000080000000000000000000000000000000000000000000000000400000000000000000000000000000000000000000000000000000000000000000001008000000000000000000000000000000000000000000000000000000000000000000000000000000000000000000000000000000000020000000000000000000000000400000000000000000000000000000000000000000000000000000000000000000000000002000000000000000000000000000000000000000000000000000400000000000000000000000000000000000000000000000000000000000000000000000000000000000000000000000000000000",
      "transactionHash": "0x867e79647655cd348204514c439d7119724c7a1bc4204168721ba3ee6b3ae778",
      "transactionIndex": "0x16",
      "blockHash": "0x12de67d53c7ca48fd812dcf3e29263e7807146e750e9ca761512d91a0d8b05ad",
      "blockNumber": "0x1ded983",
      "gasUsed": "0x123c1",
      "effectiveGasPrice": "0xf433f",
      "blobGasUsed": "0x9c40",
      "from": "0x84c29fb8b41f229ad09f4d68f84d676a28dc4a3a",
      "to": "0xd478f71086146539aad272f74aa7e73ee1ba9a4b",
      "contractAddress": null
    },
    {
      "type": "0x2",
      "status": "0x1",
      "cumulativeGasUsed": "0x4b2142",
      "logs": [
        {
          "address": "0xd478f71086146539aad272f74aa7e73ee1ba9a4b",
          "topics": [
            "0x158412daecdc1456d01568828bcdb18464cc7f1ce0215ddbc3f3cfede9d1e63d",
            "0x00000000000000000000000058c5c8641450609275f38376f614cf328db49df0"
          ],
          "data": "0x",
          "blockHash": "0x12de67d53c7ca48fd812dcf3e29263e7807146e750e9ca761512d91a0d8b05ad",
          "blockNumber": "0x1ded983",
          "blockTimestamp": "0x6a60c5df",
          "transactionHash": "0x3868d931042cd95e4781fddd5eabd29a883449171c99d4c363062eaa8ec561ab",
          "transactionIndex": "0x17",
          "logIndex": "0x10",
          "removed": false
        }
      ],
      "logsBloom": "0x00010000000000000000000000000000000000000000000000000000000000000000000000000400000000000000000000000040000000000000000000000000000000000000000000008000000000000000000000000000000000000001000000000000000000000000000000000000000000000000000000000000000000020000000000000000000000000400000000000000000000000000000000000000000000000000000000000004000000000000000000000000000000000000000000000000000000000000000400000000000000000000000000000000000000000000000000000000000000000000000000000000000000000000000000000000",
      "transactionHash": "0x3868d931042cd95e4781fddd5eabd29a883449171c99d4c363062eaa8ec561ab",
      "transactionIndex": "0x17",
      "blockHash": "0x12de67d53c7ca48fd812dcf3e29263e7807146e750e9ca761512d91a0d8b05ad",
      "blockNumber": "0x1ded983",
      "gasUsed": "0x123c1",
      "effectiveGasPrice": "0xf433f",
      "blobGasUsed": "0x9c40",
      "from": "0x84c29fb8b41f229ad09f4d68f84d676a28dc4a3a",
      "to": "0xd478f71086146539aad272f74aa7e73ee1ba9a4b",
      "contractAddress": null
    }
  ],
  "libraries": [],
  "pending": [],
  "returns": {},
  "timestamp": 1784727009160,
  "chain": 91342,
  "commit": "2014252"
}