{
  "transactions": [
    {
      "hash": "0x28093510825ee83d08b5f01bffb9039349cab20209cd99171e8b10b8db904ec0",
      "transactionType": "CREATE",
      "contractName": "TestToken",
      "contractAddress": "0x05e894ce2c176dbc30176626efa24850af2af0e2",
      "function": null,
      "arguments": [
        "GiwaVerified Alpha",
        "GVA",
        "1000000000000000000000000"
      ],
      "transaction": {
        "from": "0x84c29fb8b41f229ad09f4d68f84d676a28dc4a3a",
        "to": null,
        "gas": "0xad101",
        "value": "0x0",
        "input": "0x608060405234801561000f575f5ffd5b50604051610b25380380610b2583398101604081905261002e91610264565b8282600361003c8382610355565b5060046100498282610355565b50505061005c338261006460201b60201c565b505050610434565b6001600160a01b0382166100925760405163ec442f0560e01b81525f60048201526024015b60405180910390fd5b61009d5f83836100a1565b5050565b6001600160a01b0383166100cb578060025f8282546100c0919061040f565b9091555061013b9050565b6001600160a01b0383165f908152602081905260409020548181101561011d5760405163391434e360e21b81526001600160a01b03851660048201526024810182905260448101839052606401610089565b6001600160a01b0384165f9081526020819052604090209082900390555b6001600160a01b03821661015757600280548290039055610175565b6001600160a01b0382165f9081526020819052604090208054820190555b816001600160a01b0316836001600160a01b03167fddf252ad1be2c89b69c2b068fc378daa952ba7f163c4a11628f55a4df523b3ef836040516101ba91815260200190565b60405180910390a3505050565b634e487b7160e01b5f52604160045260245ffd5b5f82601f8301126101ea575f5ffd5b81516001600160401b03811115610203576102036101c7565b604051601f8201601f19908116603f011681016001600160401b0381118282101715610231576102316101c7565b604052818152838201602001851015610248575f5ffd5b8160208501602083015e5f918101602001919091529392505050565b5f5f5f60608486031215610276575f5ffd5b83516001600160401b0381111561028b575f5ffd5b610297868287016101db565b602086015190945090506001600160401b038111156102b4575f5ffd5b6102c0868287016101db565b925050604084015190509250925092565b600181811c908216806102e557607f821691505b60208210810361030357634e487b7160e01b5f52602260045260245ffd5b50919050565b601f82111561035057805f5260205f20601f840160051c8101602085101561032e5750805b601f840160051c820191505b8181101561034d575f815560010161033a565b50505b505050565b81516001600160401b0381111561036e5761036e6101c7565b6103828161037c84546102d1565b84610309565b6020601f8211600181146103b4575f831561039d5750848201515b5f19600385901b1c1916600184901b17845561034d565b5f84815260208120601f198516915b828110156103e357878501518255602094850194600190920191016103c3565b508482101561040057868401515f19600387901b60f8161c191681555b50505050600190811b01905550565b8082018082111561042e57634e487b7160e01b5f52601160045260245ffd5b92915050565b6106e4806104415f395ff3fe608060405234801561000f575f5ffd5b5060043610610090575f3560e01c8063313ce56711610063578063313ce567146100fa57806370a082311461010957806395d89b4114610131578063a9059cbb14610139578063dd62ed3e1461014c575f5ffd5b806306fdde0314610094578063095ea7b3146100b257806318160ddd146100d557806323b872dd146100e7575b5f5ffd5b61009c610184565b6040516100a99190610554565b60405180910390f35b6100c56100c03660046105a4565b610214565b60405190151581526020016100a9565b6002545b6040519081526020016100a9565b6100c56100f53660046105cc565b61022d565b604051601281526020016100a9565b6100d9610117366004610606565b6001600160a01b03165f9081526020819052604090205490565b61009c610250565b6100c56101473660046105a4565b61025f565b6100d961015a366004610626565b6001600160a01b039182165f90815260016020908152604080832093909416825291909152205490565b60606003805461019390610657565b80601f01602080910402602001604051908101604052809291908181526020018280546101bf90610657565b801561020a5780601f106101e15761010080835404028352916020019161020a565b820191905f5260205f20905b8154815290600101906020018083116101ed57829003601f168201915b5050505050905090565b5f3361022181858561026c565b60019150505b92915050565b5f3361023a85828561027e565b6102458585856102ff565b506001949350505050565b60606004805461019390610657565b5f336102218185856102ff565b610279838383600161035c565b505050565b6001600160a01b038381165f908152600160209081526040808320938616835292905220545f198110156102f957818110156102eb57604051637dc7a0d960e11b81526001600160a01b038416600482015260248101829052604481018390526064015b60405180910390fd5b6102f984848484035f61035c565b50505050565b6001600160a01b03831661032857604051634b637e8f60e11b81525f60048201526024016102e2565b6001600160a01b0382166103515760405163ec442f0560e01b81525f60048201526024016102e2565b61027983838361042e565b6001600160a01b0384166103855760405163e602df0560e01b81525f60048201526024016102e2565b6001600160a01b0383166103ae57604051634a1406b160e11b81525f60048201526024016102e2565b6001600160a01b038085165f90815260016020908152604080832093871683529290522082905580156102f957826001600160a01b0316846001600160a01b03167f8c5be1e5ebec7d5bd14f71427d1e84f3dd0314c0f7b2291e5b200ac8c7c3b9258460405161042091815260200190565b60405180910390a350505050565b6001600160a01b038316610458578060025f82825461044d919061068f565b909155506104c89050565b6001600160a01b0383165f90815260208190526040902054818110156104aa5760405163391434e360e21b81526001600160a01b038516600482015260248101829052604481018390526064016102e2565b6001600160a01b0384165f9081526020819052604090209082900390555b6001600160a01b0382166104e457600280548290039055610502565b6001600160a01b0382165f9081526020819052604090208054820190555b816001600160a01b0316836001600160a01b03167fddf252ad1be2c89b69c2b068fc378daa952ba7f163c4a11628f55a4df523b3ef8360405161054791815260200190565b60405180910390a3505050565b602081525f82518060208401528060208501604085015e5f604082850101526040601f19601f83011684010191505092915050565b80356001600160a01b038116811461059f575f5ffd5b919050565b5f5f604083850312156105b5575f5ffd5b6105be83610589565b946020939093013593505050565b5f5f5f606084860312156105de575f5ffd5b6105e784610589565b92506105f560208501610589565b929592945050506040919091013590565b5f60208284031215610616575f5ffd5b61061f82610589565b9392505050565b5f5f60408385031215610637575f5ffd5b61064083610589565b915061064e60208401610589565b90509250929050565b600181811c9082168061066b57607f821691505b60208210810361068957634e487b7160e01b5f52602260045260245ffd5b50919050565b8082018082111561022757634e487b7160e01b5f52601160045260245ffdfea2646970667358221220806feef18c270cc1ea06bdc5e17588079a76bdf0a92d1257fe80227e3310e83f64736f6c634300081c0033000000000000000000000000000000000000000000000000000000000000006000000000000000000000000000000000000000000000000000000000000000a000000000000000000000000000000000000000000000d3c21bcecceda1000000000000000000000000000000000000000000000000000000000000000000001247697761566572696669656420416c706861000000000000000000000000000000000000000000000000000000000000000000000000000000000000000000034756410000000000000000000000000000000000000000000000000000000000",
        "nonce": "0x6",
        "chainId": "0x164ce"
      },
      "additionalContracts": [],
      "isFixedGasLimit": false
    },
    {
      "hash": "0x7fd723b5663dc20f787ce073539c1dfe921a09646a95f8dba6006706b1124536",
      "transactionType": "CREATE",
      "contractName": "TestToken",
      "contractAddress": "0x00e8f81208a33bf516cd7dd46e7597dfb40f5a25",
      "function": null,
      "arguments": [
        "GiwaVerified Beta",
        "GVB",
        "1000000000000000000000000"
      ],
      "transaction": {
        "from": "0x84c29fb8b41f229ad09f4d68f84d676a28dc4a3a",
        "to": null,
        "gas": "0xad0f1",
        "value": "0x0",
        "input": "0x608060405234801561000f575f5ffd5b50604051610b25380380610b2583398101604081905261002e91610264565b8282600361003c8382610355565b5060046100498282610355565b50505061005c338261006460201b60201c565b505050610434565b6001600160a01b0382166100925760405163ec442f0560e01b81525f60048201526024015b60405180910390fd5b61009d5f83836100a1565b5050565b6001600160a01b0383166100cb578060025f8282546100c0919061040f565b9091555061013b9050565b6001600160a01b0383165f908152602081905260409020548181101561011d5760405163391434e360e21b81526001600160a01b03851660048201526024810182905260448101839052606401610089565b6001600160a01b0384165f9081526020819052604090209082900390555b6001600160a01b03821661015757600280548290039055610175565b6001600160a01b0382165f9081526020819052604090208054820190555b816001600160a01b0316836001600160a01b03167fddf252ad1be2c89b69c2b068fc378daa952ba7f163c4a11628f55a4df523b3ef836040516101ba91815260200190565b60405180910390a3505050565b634e487b7160e01b5f52604160045260245ffd5b5f82601f8301126101ea575f5ffd5b81516001600160401b03811115610203576102036101c7565b604051601f8201601f19908116603f011681016001600160401b0381118282101715610231576102316101c7565b604052818152838201602001851015610248575f5ffd5b8160208501602083015e5f918101602001919091529392505050565b5f5f5f60608486031215610276575f5ffd5b83516001600160401b0381111561028b575f5ffd5b610297868287016101db565b602086015190945090506001600160401b038111156102b4575f5ffd5b6102c0868287016101db565b925050604084015190509250925092565b600181811c908216806102e557607f821691505b60208210810361030357634e487b7160e01b5f52602260045260245ffd5b50919050565b601f82111561035057805f5260205f20601f840160051c8101602085101561032e5750805b601f840160051c820191505b8181101561034d575f815560010161033a565b50505b505050565b81516001600160401b0381111561036e5761036e6101c7565b6103828161037c84546102d1565b84610309565b6020601f8211600181146103b4575f831561039d5750848201515b5f19600385901b1c1916600184901b17845561034d565b5f84815260208120601f198516915b828110156103e357878501518255602094850194600190920191016103c3565b508482101561040057868401515f19600387901b60f8161c191681555b50505050600190811b01905550565b8082018082111561042e57634e487b7160e01b5f52601160045260245ffd5b92915050565b6106e4806104415f395ff3fe608060405234801561000f575f5ffd5b5060043610610090575f3560e01c8063313ce56711610063578063313ce567146100fa57806370a082311461010957806395d89b4114610131578063a9059cbb14610139578063dd62ed3e1461014c575f5ffd5b806306fdde0314610094578063095ea7b3146100b257806318160ddd146100d557806323b872dd146100e7575b5f5ffd5b61009c610184565b6040516100a99190610554565b60405180910390f35b6100c56100c03660046105a4565b610214565b60405190151581526020016100a9565b6002545b6040519081526020016100a9565b6100c56100f53660046105cc565b61022d565b604051601281526020016100a9565b6100d9610117366004610606565b6001600160a01b03165f9081526020819052604090205490565b61009c610250565b6100c56101473660046105a4565b61025f565b6100d961015a366004610626565b6001600160a01b039182165f90815260016020908152604080832093909416825291909152205490565b60606003805461019390610657565b80601f01602080910402602001604051908101604052809291908181526020018280546101bf90610657565b801561020a5780601f106101e15761010080835404028352916020019161020a565b820191905f5260205f20905b8154815290600101906020018083116101ed57829003601f168201915b5050505050905090565b5f3361022181858561026c565b60019150505b92915050565b5f3361023a85828561027e565b6102458585856102ff565b506001949350505050565b60606004805461019390610657565b5f336102218185856102ff565b610279838383600161035c565b505050565b6001600160a01b038381165f908152600160209081526040808320938616835292905220545f198110156102f957818110156102eb57604051637dc7a0d960e11b81526001600160a01b038416600482015260248101829052604481018390526064015b60405180910390fd5b6102f984848484035f61035c565b50505050565b6001600160a01b03831661032857604051634b637e8f60e11b81525f60048201526024016102e2565b6001600160a01b0382166103515760405163ec442f0560e01b81525f60048201526024016102e2565b61027983838361042e565b6001600160a01b0384166103855760405163e602df0560e01b81525f60048201526024016102e2565b6001600160a01b0383166103ae57604051634a1406b160e11b81525f60048201526024016102e2565b6001600160a01b038085165f90815260016020908152604080832093871683529290522082905580156102f957826001600160a01b0316846001600160a01b03167f8c5be1e5ebec7d5bd14f71427d1e84f3dd0314c0f7b2291e5b200ac8c7c3b9258460405161042091815260200190565b60405180910390a350505050565b6001600160a01b038316610458578060025f82825461044d919061068f565b909155506104c89050565b6001600160a01b0383165f90815260208190526040902054818110156104aa5760405163391434e360e21b81526001600160a01b038516600482015260248101829052604481018390526064016102e2565b6001600160a01b0384165f9081526020819052604090209082900390555b6001600160a01b0382166104e457600280548290039055610502565b6001600160a01b0382165f9081526020819052604090208054820190555b816001600160a01b0316836001600160a01b03167fddf252ad1be2c89b69c2b068fc378daa952ba7f163c4a11628f55a4df523b3ef8360405161054791815260200190565b60405180910390a3505050565b602081525f82518060208401528060208501604085015e5f604082850101526040601f19601f83011684010191505092915050565b80356001600160a01b038116811461059f575f5ffd5b919050565b5f5f604083850312156105b5575f5ffd5b6105be83610589565b946020939093013593505050565b5f5f5f606084860312156105de575f5ffd5b6105e784610589565b92506105f560208501610589565b929592945050506040919091013590565b5f60208284031215610616575f5ffd5b61061f82610589565b9392505050565b5f5f60408385031215610637575f5ffd5b61064083610589565b915061064e60208401610589565b90509250929050565b600181811c9082168061066b57607f821691505b60208210810361068957634e487b7160e01b5f52602260045260245ffd5b50919050565b8082018082111561022757634e487b7160e01b5f52601160045260245ffdfea2646970667358221220806feef18c270cc1ea06bdc5e17588079a76bdf0a92d1257fe80227e3310e83f64736f6c634300081c0033000000000000000000000000000000000000000000000000000000000000006000000000000000000000000000000000000000000000000000000000000000a000000000000000000000000000000000000000000000d3c21bcecceda10000000000000000000000000000000000000000000000000000000000000000000011476977615665726966696564204265746100000000000000000000000000000000000000000000000000000000000000000000000000000000000000000000034756420000000000000000000000000000000000000000000000000000000000",
        "nonce": "0x7",
        "chainId": "0x164ce"
      },
      "additionalContracts": [],
      "isFixedGasLimit": false
    },
    {
      "hash": "0xa3129db7bfe95e7fe72df9a861845af9c92feb0124a36869a6a4ff5914ac3d33",
      "transactionType": "CREATE",
      "contractName": "TestToken",
      "contractAddress": "0x263a171641882db6b48210e1ea477db3d1d34509",
      "function": null,
      "arguments": [
        "GiwaVerified Gamma",
        "GVC",
        "1000000000000000000000000"
      ],
      "transaction": {
        "from": "0x84c29fb8b41f229ad09f4d68f84d676a28dc4a3a",
        "to": null,
        "gas": "0xad101",
        "value": "0x0",
        "input": "0x608060405234801561000f575f5ffd5b50604051610b25380380610b2583398101604081905261002e91610264565b8282600361003c8382610355565b5060046100498282610355565b50505061005c338261006460201b60201c565b505050610434565b6001600160a01b0382166100925760405163ec442f0560e01b81525f60048201526024015b60405180910390fd5b61009d5f83836100a1565b5050565b6001600160a01b0383166100cb578060025f8282546100c0919061040f565b9091555061013b9050565b6001600160a01b0383165f908152602081905260409020548181101561011d5760405163391434e360e21b81526001600160a01b03851660048201526024810182905260448101839052606401610089565b6001600160a01b0384165f9081526020819052604090209082900390555b6001600160a01b03821661015757600280548290039055610175565b6001600160a01b0382165f9081526020819052604090208054820190555b816001600160a01b0316836001600160a01b03167fddf252ad1be2c89b69c2b068fc378daa952ba7f163c4a11628f55a4df523b3ef836040516101ba91815260200190565b60405180910390a3505050565b634e487b7160e01b5f52604160045260245ffd5b5f82601f8301126101ea575f5ffd5b81516001600160401b03811115610203576102036101c7565b604051601f8201601f19908116603f011681016001600160401b0381118282101715610231576102316101c7565b604052818152838201602001851015610248575f5ffd5b8160208501602083015e5f918101602001919091529392505050565b5f5f5f60608486031215610276575f5ffd5b83516001600160401b0381111561028b575f5ffd5b610297868287016101db565b602086015190945090506001600160401b038111156102b4575f5ffd5b6102c0868287016101db565b925050604084015190509250925092565b600181811c908216806102e557607f821691505b60208210810361030357634e487b7160e01b5f52602260045260245ffd5b50919050565b601f82111561035057805f5260205f20601f840160051c8101602085101561032e5750805b601f840160051c820191505b8181101561034d575f815560010161033a565b50505b505050565b81516001600160401b0381111561036e5761036e6101c7565b6103828161037c84546102d1565b84610309565b6020601f8211600181146103b4575f831561039d5750848201515b5f19600385901b1c1916600184901b17845561034d565b5f84815260208120601f198516915b828110156103e357878501518255602094850194600190920191016103c3565b508482101561040057868401515f19600387901b60f8161c191681555b50505050600190811b01905550565b8082018082111561042e57634e487b7160e01b5f52601160045260245ffd5b92915050565b6106e4806104415f395ff3fe608060405234801561000f575f5ffd5b5060043610610090575f3560e01c8063313ce56711610063578063313ce567146100fa57806370a082311461010957806395d89b4114610131578063a9059cbb14610139578063dd62ed3e1461014c575f5ffd5b806306fdde0314610094578063095ea7b3146100b257806318160ddd146100d557806323b872dd146100e7575b5f5ffd5b61009c610184565b6040516100a99190610554565b60405180910390f35b6100c56100c03660046105a4565b610214565b60405190151581526020016100a9565b6002545b6040519081526020016100a9565b6100c56100f53660046105cc565b61022d565b604051601281526020016100a9565b6100d9610117366004610606565b6001600160a01b03165f9081526020819052604090205490565b61009c610250565b6100c56101473660046105a4565b61025f565b6100d961015a366004610626565b6001600160a01b039182165f90815260016020908152604080832093909416825291909152205490565b60606003805461019390610657565b80601f01602080910402602001604051908101604052809291908181526020018280546101bf90610657565b801561020a5780601f106101e15761010080835404028352916020019161020a565b820191905f5260205f20905b8154815290600101906020018083116101ed57829003601f168201915b5050505050905090565b5f3361022181858561026c565b60019150505b92915050565b5f3361023a85828561027e565b6102458585856102ff565b506001949350505050565b60606004805461019390610657565b5f336102218185856102ff565b610279838383600161035c565b505050565b6001600160a01b038381165f908152600160209081526040808320938616835292905220545f198110156102f957818110156102eb57604051637dc7a0d960e11b81526001600160a01b038416600482015260248101829052604481018390526064015b60405180910390fd5b6102f984848484035f61035c565b50505050565b6001600160a01b03831661032857604051634b637e8f60e11b81525f60048201526024016102e2565b6001600160a01b0382166103515760405163ec442f0560e01b81525f60048201526024016102e2565b61027983838361042e565b6001600160a01b0384166103855760405163e602df0560e01b81525f60048201526024016102e2565b6001600160a01b0383166103ae57604051634a1406b160e11b81525f60048201526024016102e2565b6001600160a01b038085165f90815260016020908152604080832093871683529290522082905580156102f957826001600160a01b0316846001600160a01b03167f8c5be1e5ebec7d5bd14f71427d1e84f3dd0314c0f7b2291e5b200ac8c7c3b9258460405161042091815260200190565b60405180910390a350505050565b6001600160a01b038316610458578060025f82825461044d919061068f565b909155506104c89050565b6001600160a01b0383165f90815260208190526040902054818110156104aa5760405163391434e360e21b81526001600160a01b038516600482015260248101829052604481018390526064016102e2565b6001600160a01b0384165f9081526020819052604090209082900390555b6001600160a01b0382166104e457600280548290039055610502565b6001600160a01b0382165f9081526020819052604090208054820190555b816001600160a01b0316836001600160a01b03167fddf252ad1be2c89b69c2b068fc378daa952ba7f163c4a11628f55a4df523b3ef8360405161054791815260200190565b60405180910390a3505050565b602081525f82518060208401528060208501604085015e5f604082850101526040601f19601f83011684010191505092915050565b80356001600160a01b038116811461059f575f5ffd5b919050565b5f5f604083850312156105b5575f5ffd5b6105be83610589565b946020939093013593505050565b5f5f5f606084860312156105de575f5ffd5b6105e784610589565b92506105f560208501610589565b929592945050506040919091013590565b5f60208284031215610616575f5ffd5b61061f82610589565b9392505050565b5f5f60408385031215610637575f5ffd5b61064083610589565b915061064e60208401610589565b90509250929050565b600181811c9082168061066b57607f821691505b60208210810361068957634e487b7160e01b5f52602260045260245ffd5b50919050565b8082018082111561022757634e487b7160e01b5f52601160045260245ffdfea2646970667358221220806feef18c270cc1ea06bdc5e17588079a76bdf0a92d1257fe80227e3310e83f64736f6c634300081c0033000000000000000000000000000000000000000000000000000000000000006000000000000000000000000000000000000000000000000000000000000000a000000000000000000000000000000000000000000000d3c21bcecceda100000000000000000000000000000000000000000000000000000000000000000000124769776156657269666965642047616d6d61000000000000000000000000000000000000000000000000000000000000000000000000000000000000000000034756430000000000000000000000000000000000000000000000000000000000",
        "nonce": "0x8",
        "chainId": "0x164ce"
      },
      "additionalContracts": [],
      "isFixedGasLimit": false
    },
    {
      "hash": "0xeaa97e366e999b62685a4f4b71e85fd8bfb3bd58e5beefb81edbe608d2d70966",
      "transactionType": "CREATE",
      "contractName": "TestToken",
      "contractAddress": "0x82868da66735fcd28185b9befa9ff2aee4ba3fb8",
      "function": null,
      "arguments": [
        "GiwaVerified Delta",
        "GVD",
        "1000000000000000000000000"
      ],
      "transaction": {
        "from": "0x84c29fb8b41f229ad09f4d68f84d676a28dc4a3a",
        "to": null,
        "gas": "0xad101",
        "value": "0x0",
        "input": "0x608060405234801561000f575f5ffd5b50604051610b25380380610b2583398101604081905261002e91610264565b8282600361003c8382610355565b5060046100498282610355565b50505061005c338261006460201b60201c565b505050610434565b6001600160a01b0382166100925760405163ec442f0560e01b81525f60048201526024015b60405180910390fd5b61009d5f83836100a1565b5050565b6001600160a01b0383166100cb578060025f8282546100c0919061040f565b9091555061013b9050565b6001600160a01b0383165f908152602081905260409020548181101561011d5760405163391434e360e21b81526001600160a01b03851660048201526024810182905260448101839052606401610089565b6001600160a01b0384165f9081526020819052604090209082900390555b6001600160a01b03821661015757600280548290039055610175565b6001600160a01b0382165f9081526020819052604090208054820190555b816001600160a01b0316836001600160a01b03167fddf252ad1be2c89b69c2b068fc378daa952ba7f163c4a11628f55a4df523b3ef836040516101ba91815260200190565b60405180910390a3505050565b634e487b7160e01b5f52604160045260245ffd5b5f82601f8301126101ea575f5ffd5b81516001600160401b03811115610203576102036101c7565b604051601f8201601f19908116603f011681016001600160401b0381118282101715610231576102316101c7565b604052818152838201602001851015610248575f5ffd5b8160208501602083015e5f918101602001919091529392505050565b5f5f5f60608486031215610276575f5ffd5b83516001600160401b0381111561028b575f5ffd5b610297868287016101db565b602086015190945090506001600160401b038111156102b4575f5ffd5b6102c0868287016101db565b925050604084015190509250925092565b600181811c908216806102e557607f821691505b60208210810361030357634e487b7160e01b5f52602260045260245ffd5b50919050565b601f82111561035057805f5260205f20601f840160051c8101602085101561032e5750805b601f840160051c820191505b8181101561034d575f815560010161033a565b50505b505050565b81516001600160401b0381111561036e5761036e6101c7565b6103828161037c84546102d1565b84610309565b6020601f8211600181146103b4575f831561039d5750848201515b5f19600385901b1c1916600184901b17845561034d565b5f84815260208120601f198516915b828110156103e357878501518255602094850194600190920191016103c3565b508482101561040057868401515f19600387901b60f8161c191681555b50505050600190811b01905550565b8082018082111561042e57634e487b7160e01b5f52601160045260245ffd5b92915050565b6106e4806104415f395ff3fe608060405234801561000f575f5ffd5b5060043610610090575f3560e01c8063313ce56711610063578063313ce567146100fa57806370a082311461010957806395d89b4114610131578063a9059cbb14610139578063dd62ed3e1461014c575f5ffd5b806306fdde0314610094578063095ea7b3146100b257806318160ddd146100d557806323b872dd146100e7575b5f5ffd5b61009c610184565b6040516100a99190610554565b60405180910390f35b6100c56100c03660046105a4565b610214565b60405190151581526020016100a9565b6002545b6040519081526020016100a9565b6100c56100f53660046105cc565b61022d565b604051601281526020016100a9565b6100d9610117366004610606565b6001600160a01b03165f9081526020819052604090205490565b61009c610250565b6100c56101473660046105a4565b61025f565b6100d961015a366004610626565b6001600160a01b039182165f90815260016020908152604080832093909416825291909152205490565b60606003805461019390610657565b80601f01602080910402602001604051908101604052809291908181526020018280546101bf90610657565b801561020a5780601f106101e15761010080835404028352916020019161020a565b820191905f5260205f20905b8154815290600101906020018083116101ed57829003601f168201915b5050505050905090565b5f3361022181858561026c565b60019150505b92915050565b5f3361023a85828561027e565b6102458585856102ff565b506001949350505050565b60606004805461019390610657565b5f336102218185856102ff565b610279838383600161035c565b505050565b6001600160a01b038381165f908152600160209081526040808320938616835292905220545f198110156102f957818110156102eb57604051637dc7a0d960e11b81526001600160a01b038416600482015260248101829052604481018390526064015b60405180910390fd5b6102f984848484035f61035c565b50505050565b6001600160a01b03831661032857604051634b637e8f60e11b81525f60048201526024016102e2565b6001600160a01b0382166103515760405163ec442f0560e01b81525f60048201526024016102e2565b61027983838361042e565b6001600160a01b0384166103855760405163e602df0560e01b81525f60048201526024016102e2565b6001600160a01b0383166103ae57604051634a1406b160e11b81525f60048201526024016102e2565b6001600160a01b038085165f90815260016020908152604080832093871683529290522082905580156102f957826001600160a01b0316846001600160a01b03167f8c5be1e5ebec7d5bd14f71427d1e84f3dd0314c0f7b2291e5b200ac8c7c3b9258460405161042091815260200190565b60405180910390a350505050565b6001600160a01b038316610458578060025f82825461044d919061068f565b909155506104c89050565b6001600160a01b0383165f90815260208190526040902054818110156104aa5760405163391434e360e21b81526001600160a01b038516600482015260248101829052604481018390526064016102e2565b6001600160a01b0384165f9081526020819052604090209082900390555b6001600160a01b0382166104e457600280548290039055610502565b6001600160a01b0382165f9081526020819052604090208054820190555b816001600160a01b0316836001600160a01b03167fddf252ad1be2c89b69c2b068fc378daa952ba7f163c4a11628f55a4df523b3ef8360405161054791815260200190565b60405180910390a3505050565b602081525f82518060208401528060208501604085015e5f604082850101526040601f19601f83011684010191505092915050565b80356001600160a01b038116811461059f575f5ffd5b919050565b5f5f604083850312156105b5575f5ffd5b6105be83610589565b946020939093013593505050565b5f5f5f606084860312156105de575f5ffd5b6105e784610589565b92506105f560208501610589565b929592945050506040919091013590565b5f60208284031215610616575f5ffd5b61061f82610589565b9392505050565b5f5f60408385031215610637575f5ffd5b61064083610589565b915061064e60208401610589565b90509250929050565b600181811c9082168061066b57607f821691505b60208210810361068957634e487b7160e01b5f52602260045260245ffd5b50919050565b8082018082111561022757634e487b7160e01b5f52601160045260245ffdfea2646970667358221220806feef18c270cc1ea06bdc5e17588079a76bdf0a92d1257fe80227e3310e83f64736f6c634300081c0033000000000000000000000000000000000000000000000000000000000000006000000000000000000000000000000000000000000000000000000000000000a000000000000000000000000000000000000000000000d3c21bcecceda100000000000000000000000000000000000000000000000000000000000000000000124769776156657269666965642044656c7461000000000000000000000000000000000000000000000000000000000000000000000000000000000000000000034756440000000000000000000000000000000000000000000000000000000000",
        "nonce": "0x9",
        "chainId": "0x164ce"
      },
      "additionalContracts": [],
      "isFixedGasLimit": false
    },
    {
      "hash": "0xd44dbd293613f611fce46977605ce85ed0675884204bd7eb4da3244f311fdaba",
      "transactionType": "CREATE",
      "contractName": "TestToken",
      "contractAddress": "0xeed497b085113e8c3fc563935582a72f90bde528",
      "function": null,
      "arguments": [
        "GiwaVerified Epsilon",
        "GVE",
        "1000000000000000000000000"
      ],
      "transaction": {
        "from": "0x84c29fb8b41f229ad09f4d68f84d676a28dc4a3a",
        "to": null,
        "gas": "0xad120",
        "value": "0x0",
        "input": "0x608060405234801561000f575f5ffd5b50604051610b25380380610b2583398101604081905261002e91610264565b8282600361003c8382610355565b5060046100498282610355565b50505061005c338261006460201b60201c565b505050610434565b6001600160a01b0382166100925760405163ec442f0560e01b81525f60048201526024015b60405180910390fd5b61009d5f83836100a1565b5050565b6001600160a01b0383166100cb578060025f8282546100c0919061040f565b9091555061013b9050565b6001600160a01b0383165f908152602081905260409020548181101561011d5760405163391434e360e21b81526001600160a01b03851660048201526024810182905260448101839052606401610089565b6001600160a01b0384165f9081526020819052604090209082900390555b6001600160a01b03821661015757600280548290039055610175565b6001600160a01b0382165f9081526020819052604090208054820190555b816001600160a01b0316836001600160a01b03167fddf252ad1be2c89b69c2b068fc378daa952ba7f163c4a11628f55a4df523b3ef836040516101ba91815260200190565b60405180910390a3505050565b634e487b7160e01b5f52604160045260245ffd5b5f82601f8301126101ea575f5ffd5b81516001600160401b03811115610203576102036101c7565b604051601f8201601f19908116603f011681016001600160401b0381118282101715610231576102316101c7565b604052818152838201602001851015610248575f5ffd5b8160208501602083015e5f918101602001919091529392505050565b5f5f5f60608486031215610276575f5ffd5b83516001600160401b0381111561028b575f5ffd5b610297868287016101db565b602086015190945090506001600160401b038111156102b4575f5ffd5b6102c0868287016101db565b925050604084015190509250925092565b600181811c908216806102e557607f821691505b60208210810361030357634e487b7160e01b5f52602260045260245ffd5b50919050565b601f82111561035057805f5260205f20601f840160051c8101602085101561032e5750805b601f840160051c820191505b8181101561034d575f815560010161033a565b50505b505050565b81516001600160401b0381111561036e5761036e6101c7565b6103828161037c84546102d1565b84610309565b6020601f8211600181146103b4575f831561039d5750848201515b5f19600385901b1c1916600184901b17845561034d565b5f84815260208120601f198516915b828110156103e357878501518255602094850194600190920191016103c3565b508482101561040057868401515f19600387901b60f8161c191681555b50505050600190811b01905550565b8082018082111561042e57634e487b7160e01b5f52601160045260245ffd5b92915050565b6106e4806104415f395ff3fe608060405234801561000f575f5ffd5b5060043610610090575f3560e01c8063313ce56711610063578063313ce567146100fa57806370a082311461010957806395d89b4114610131578063a9059cbb14610139578063dd62ed3e1461014c575f5ffd5b806306fdde0314610094578063095ea7b3146100b257806318160ddd146100d557806323b872dd146100e7575b5f5ffd5b61009c610184565b6040516100a99190610554565b60405180910390f35b6100c56100c03660046105a4565b610214565b60405190151581526020016100a9565b6002545b6040519081526020016100a9565b6100c56100f53660046105cc565b61022d565b604051601281526020016100a9565b6100d9610117366004610606565b6001600160a01b03165f9081526020819052604090205490565b61009c610250565b6100c56101473660046105a4565b61025f565b6100d961015a366004610626565b6001600160a01b039182165f90815260016020908152604080832093909416825291909152205490565b60606003805461019390610657565b80601f01602080910402602001604051908101604052809291908181526020018280546101bf90610657565b801561020a5780601f106101e15761010080835404028352916020019161020a565b820191905f5260205f20905b8154815290600101906020018083116101ed57829003601f168201915b5050505050905090565b5f3361022181858561026c565b60019150505b92915050565b5f3361023a85828561027e565b6102458585856102ff565b506001949350505050565b60606004805461019390610657565b5f336102218185856102ff565b610279838383600161035c565b505050565b6001600160a01b038381165f908152600160209081526040808320938616835292905220545f198110156102f957818110156102eb57604051637dc7a0d960e11b81526001600160a01b038416600482015260248101829052604481018390526064015b60405180910390fd5b6102f984848484035f61035c565b50505050565b6001600160a01b03831661032857604051634b637e8f60e11b81525f60048201526024016102e2565b6001600160a01b0382166103515760405163ec442f0560e01b81525f60048201526024016102e2565b61027983838361042e565b6001600160a01b0384166103855760405163e602df0560e01b81525f60048201526024016102e2565b6001600160a01b0383166103ae57604051634a1406b160e11b81525f60048201526024016102e2565b6001600160a01b038085165f90815260016020908152604080832093871683529290522082905580156102f957826001600160a01b0316846001600160a01b03167f8c5be1e5ebec7d5bd14f71427d1e84f3dd0314c0f7b2291e5b200ac8c7c3b9258460405161042091815260200190565b60405180910390a350505050565b6001600160a01b038316610458578060025f82825461044d919061068f565b909155506104c89050565b6001600160a01b0383165f90815260208190526040902054818110156104aa5760405163391434e360e21b81526001600160a01b038516600482015260248101829052604481018390526064016102e2565b6001600160a01b0384165f9081526020819052604090209082900390555b6001600160a01b0382166104e457600280548290039055610502565b6001600160a01b0382165f9081526020819052604090208054820190555b816001600160a01b0316836001600160a01b03167fddf252ad1be2c89b69c2b068fc378daa952ba7f163c4a11628f55a4df523b3ef8360405161054791815260200190565b60405180910390a3505050565b602081525f82518060208401528060208501604085015e5f604082850101526040601f19601f83011684010191505092915050565b80356001600160a01b038116811461059f575f5ffd5b919050565b5f5f604083850312156105b5575f5ffd5b6105be83610589565b946020939093013593505050565b5f5f5f606084860312156105de575f5ffd5b6105e784610589565b92506105f560208501610589565b929592945050506040919091013590565b5f60208284031215610616575f5ffd5b61061f82610589565b9392505050565b5f5f60408385031215610637575f5ffd5b61064083610589565b915061064e60208401610589565b90509250929050565b600181811c9082168061066b57607f821691505b60208210810361068957634e487b7160e01b5f52602260045260245ffd5b50919050565b8082018082111561022757634e487b7160e01b5f52601160045260245ffdfea2646970667358221220806feef18c270cc1ea06bdc5e17588079a76bdf0a92d1257fe80227e3310e83f64736f6c634300081c0033000000000000000000000000000000000000000000000000000000000000006000000000000000000000000000000000000000000000000000000000000000a000000000000000000000000000000000000000000000d3c21bcecceda1000000000000000000000000000000000000000000000000000000000000000000001447697761566572696669656420457073696c6f6e00000000000000000000000000000000000000000000000000000000000000000000000000000000000000034756450000000000000000000000000000000000000000000000000000000000",
        "nonce": "0xa",
        "chainId": "0x164ce"
      },
      "additionalContracts": [],
      "isFixedGasLimit": false
    },
    {
      "hash": "0x4e357782c9831dfc36948326c7c423ebed91ab997ad383400d3c027b302f403f",
      "transactionType": "CREATE",
      "contractName": "GiwaFaucet",
      "contractAddress": "0xe7cc5f382b78f2b70f924c10a4bd2ada6c45dbef",
      "function": null,
      "arguments": [
        "0x7893e1AcaeEDADFC4fa4a88e9E83a65e4C5BF19e",
        "0xd99b42e778498aa3c9c1f6a012359130252780511687a35982e8e52735453034"
      ],
      "transaction": {
        "from": "0x84c29fb8b41f229ad09f4d68f84d676a28dc4a3a",
        "to": null,
        "gas": "0xe7510",
        "value": "0x0",
        "input": "0x6080604052348015600e575f5ffd5b50604051610bd5380380610bd5833981016040819052602b9160a6565b6001600160a01b03821660775760405162461bcd60e51b815260206004820152601060248201526f24b73b30b634b2103b32b934b334b2b960811b604482015260640160405180910390fd5b5f80546001600160a01b039093166001600160a01b0319938416179055600155600280549091163317905560db565b5f5f6040838503121560b6575f5ffd5b82516001600160a01b038116811460cb575f5ffd5b6020939093015192949293505050565b610aed806100e85f395ff3fe608060405234801561000f575f5ffd5b5060043610610106575f3560e01c80638da5cb5b1161009e5780639ead72221161006e5780639ead722214610225578063a219a01814610238578063a2724a4d14610262578063aa6ca8081461026c578063fc9afd6714610281575f5ffd5b80638da5cb5b146101cc57806391920f30146101df578063923894531461020957806397988dce14610212575f5ffd5b80632b7ac3f3116100d95780632b7ac3f3146101555780633528bee91461017f57806378a89567146101925780638c0bd9161461019a575f5ffd5b806309824a801461010a5780630f2cdd6c1461011f5780631e83409a14610142578063270ef3851461011f575b5f5ffd5b61011d610118366004610980565b610294565b005b61012f68056bc75e2d6310000081565b6040519081526020015b60405180910390f35b61011d610150366004610980565b61040d565b5f54610167906001600160a01b031681565b6040516001600160a01b039091168152602001610139565b61012f61018d366004610980565b6107e6565b60045461012f565b6101bc6101a8366004610980565b60036020525f908152604090205460ff1681565b6040519015158152602001610139565b600254610167906001600160a01b031681565b61012f6101ed3660046109a0565b600560209081525f928352604080842090915290825290205481565b61012f60015481565b6101676102203660046109d1565b610854565b6101676102333660046109d1565b610882565b61012f6102463660046109a0565b600660209081525f928352604080842090915290825290205481565b61012f6201518081565b6102746108aa565b60405161013991906109e8565b61012f61028f3660046109a0565b61090a565b6002546001600160a01b031633146102df5760405162461bcd60e51b81526020600482015260096024820152682737ba1037bbb732b960b91b60448201526064015b60405180910390fd5b6001600160a01b0381166103255760405162461bcd60e51b815260206004820152600d60248201526c24b73b30b634b2103a37b5b2b760991b60448201526064016102d6565b6001600160a01b0381165f9081526003602052604090205460ff16156103825760405162461bcd60e51b8152602060048201526012602482015271105b1c9958591e481c9959da5cdd195c995960721b60448201526064016102d6565b6001600160a01b0381165f81815260036020526040808220805460ff1916600190811790915560048054918201815583527f8a35acfbc15ff81a39ae7d344fd709f28e8600b4aa8c65c6b64bfe7fe36bd19b0180546001600160a01b03191684179055517f158412daecdc1456d01568828bcdb18464cc7f1ce0215ddbc3f3cfede9d1e63d9190a250565b6001600160a01b0381165f9081526003602052604090205460ff1661046b5760405162461bcd60e51b8152602060048201526014602482015273151bdad95b881b9bdd081c9959da5cdd195c995960621b60448201526064016102d6565b5f5460015460405163ba03e20560e01b815233600482015260248101919091526001600160a01b039091169063ba03e20590604401602060405180830381865afa1580156104bb573d5f5f3e3d5ffd5b505050506040513d601f19601f820116820180604052508101906104df9190610a33565b61051a5760405162461bcd60e51b815260206004820152600c60248201526b139bdd081d995c9a599a595960a21b60448201526064016102d6565b335f9081526005602090815260408083206001600160a01b038516845290915290205461054b906201518090610a66565b42101561058c5760405162461bcd60e51b815260206004820152600f60248201526e436f6f6c646f776e2061637469766560881b60448201526064016102d6565b6040516370a0823160e01b815230600482015268056bc75e2d63100000906001600160a01b038316906370a0823190602401602060405180830381865afa1580156105d9573d5f5f3e3d5ffd5b505050506040513d601f19601f820116820180604052508101906105fd9190610a79565b101561064b5760405162461bcd60e51b815260206004820152601b60248201527f496e73756666696369656e74206661756365742062616c616e6365000000000060448201526064016102d6565b335f9081526006602090815260408083206001600160a01b038516845290915290205468056bc75e2d6310000090610684908290610a66565b11156106cb5760405162461bcd60e51b815260206004820152601660248201527513585e081c195c881dd85b1b195d081c995858da195960521b60448201526064016102d6565b335f8181526005602090815260408083206001600160a01b03861680855290835281842042905593835260068252808320938352929052908120805468056bc75e2d63100000929061071e908490610a66565b909155505060405163a9059cbb60e01b815233600482015268056bc75e2d6310000060248201526001600160a01b0382169063a9059cbb906044016020604051808303815f875af1158015610775573d5f5f3e3d5ffd5b505050506040513d601f19601f820116820180604052508101906107999190610a33565b5060405168056bc75e2d6310000081526001600160a01b0382169033907ff7a40077ff7a04c7e61f6f26fb13774259ddf1b6bce9ecf26a8276cdd39926839060200160405180910390a350565b6040516370a0823160e01b81523060048201525f906001600160a01b038316906370a0823190602401602060405180830381865afa15801561082a573d5f5f3e3d5ffd5b505050506040513d601f19601f8201168201806040525081019061084e9190610a79565b92915050565b5f6004828154811061086857610868610a90565b5f918252602090912001546001600160a01b031692915050565b60048181548110610891575f80fd5b5f918252602090912001546001600160a01b0316905081565b6060600480548060200260200160405190810160405280929190818152602001828054801561090057602002820191905f5260205f20905b81546001600160a01b031681526001909101906020018083116108e2575b5050505050905090565b6001600160a01b038083165f9081526005602090815260408083209385168352929052908120548190610941906201518090610a66565b9050804210610953575f91505061084e565b61095d4282610aa4565b949350505050565b80356001600160a01b038116811461097b575f5ffd5b919050565b5f60208284031215610990575f5ffd5b61099982610965565b9392505050565b5f5f604083850312156109b1575f5ffd5b6109ba83610965565b91506109c860208401610965565b90509250929050565b5f602082840312156109e1575f5ffd5b5035919050565b602080825282518282018190525f918401906040840190835b81811015610a285783516001600160a01b0316835260209384019390920191600101610a01565b509095945050505050565b5f60208284031215610a43575f5ffd5b81518015158114610999575f5ffd5b634e487b7160e01b5f52601160045260245ffd5b8082018082111561084e5761084e610a52565b5f60208284031215610a89575f5ffd5b5051919050565b634e487b7160e01b5f52603260045260245ffd5b8181038181111561084e5761084e610a5256fea264697066735822122049045c022bbab29e0bb2234e2b589ae81dec6358a622c41d86a27d8198a3203864736f6c634300081c00330000000000000000000000007893e1acaeedadfc4fa4a88e9e83a65e4c5bf19ed99b42e778498aa3c9c1f6a012359130252780511687a35982e8e52735453034",
        "nonce": "0xb",
        "chainId": "0x164ce"
      },
      "additionalContracts": [],
      "isFixedGasLimit": false
    },
    {
      "hash": "0xcc2b659f37d518dbecd6f03f7b2dd1ca7081d63c21ab5d2d789e53edefa4b708",
      "transactionType": "CALL",
      "contractName": "GiwaFaucet",
      "contractAddress": "0xe7cc5f382b78f2b70f924c10a4bd2ada6c45dbef",
      "function": "registerToken(address)",
      "arguments": [
        "0x05E894cE2C176Dbc30176626efa24850aF2af0e2"
      ],
      "transaction": {
        "from": "0x84c29fb8b41f229ad09f4d68f84d676a28dc4a3a",
        "to": "0xe7cc5f382b78f2b70f924c10a4bd2ada6c45dbef",
        "gas": "0x1ef20",
        "value": "0x0",
        "input": "0x09824a8000000000000000000000000005e894ce2c176dbc30176626efa24850af2af0e2",
        "nonce": "0xc",
        "chainId": "0x164ce"
      },
      "additionalContracts": [],
      "isFixedGasLimit": false
    },
    {
      "hash": "0x1ea43c427db8a7d295046ee1639ac42387da89fed3b7cfc703aa8ae0ee6a8562",
      "transactionType": "CALL",
      "contractName": "GiwaFaucet",
      "contractAddress": "0xe7cc5f382b78f2b70f924c10a4bd2ada6c45dbef",
      "function": "registerToken(address)",
      "arguments": [
        "0x00E8F81208A33BF516cD7Dd46e7597dFB40F5a25"
      ],
      "transaction": {
        "from": "0x84c29fb8b41f229ad09f4d68f84d676a28dc4a3a",
        "to": "0xe7cc5f382b78f2b70f924c10a4bd2ada6c45dbef",
        "gas": "0x192cc",
        "value": "0x0",
        "input": "0x09824a8000000000000000000000000000e8f81208a33bf516cd7dd46e7597dfb40f5a25",
        "nonce": "0xd",
        "chainId": "0x164ce"
      },
      "additionalContracts": [],
      "isFixedGasLimit": false
    },
    {
      "hash": "0x864ed53218274db66898f27dd2eca3f8798c428162bdb2cbd42f3ecbe607d6ae",
      "transactionType": "CALL",
      "contractName": "GiwaFaucet",
      "contractAddress": "0xe7cc5f382b78f2b70f924c10a4bd2ada6c45dbef",
      "function": "registerToken(address)",
      "arguments": [
        "0x263a171641882Db6b48210E1ea477DB3D1d34509"
      ],
      "transaction": {
        "from": "0x84c29fb8b41f229ad09f4d68f84d676a28dc4a3a",
        "to": "0xe7cc5f382b78f2b70f924c10a4bd2ada6c45dbef",
        "gas": "0x1aa90",
        "value": "0x0",
        "input": "0x09824a80000000000000000000000000263a171641882db6b48210e1ea477db3d1d34509",
        "nonce": "0xe",
        "chainId": "0x164ce"
      },
      "additionalContracts": [],
      "isFixedGasLimit": false
    },
    {
      "hash": "0xa14f59612b68ec423e54cedcbf86f77ada6779f7c843e100775ebad29fe08d0a",
      "transactionType": "CALL",
      "contractName": "GiwaFaucet",
      "contractAddress": "0xe7cc5f382b78f2b70f924c10a4bd2ada6c45dbef",
      "function": "registerToken(address)",
      "arguments": [
        "0x82868dA66735FCD28185b9BEFa9fF2AeE4BA3FB8"
      ],
      "transaction": {
        "from": "0x84c29fb8b41f229ad09f4d68f84d676a28dc4a3a",
        "to": "0xe7cc5f382b78f2b70f924c10a4bd2ada6c45dbef",
        "gas": "0x1aa90",
        "value": "0x0",
        "input": "0x09824a8000000000000000000000000082868da66735fcd28185b9befa9ff2aee4ba3fb8",
        "nonce": "0xf",
        "chainId": "0x164ce"
      },
      "additionalContracts": [],
      "isFixedGasLimit": false
    },
    {
      "hash": "0x976f69abd37157e7a96e2d2587da6782ca1f0dccec0d37a9c444c14cca7a949b",
      "transactionType": "CALL",
      "contractName": "GiwaFaucet",
      "contractAddress": "0xe7cc5f382b78f2b70f924c10a4bd2ada6c45dbef",
      "function": "registerToken(address)",
      "arguments": [
        "0xEEd497B085113e8C3FC563935582a72F90BdE528"
      ],
      "transaction": {
        "from": "0x84c29fb8b41f229ad09f4d68f84d676a28dc4a3a",
        "to": "0xe7cc5f382b78f2b70f924c10a4bd2ada6c45dbef",
        "gas": "0x1aa90",
        "value": "0x0",
        "input": "0x09824a80000000000000000000000000eed497b085113e8c3fc563935582a72f90bde528",
        "nonce": "0x10",
        "chainId": "0x164ce"
      },
      "additionalContracts": [],
      "isFixedGasLimit": false
    },
    {
      "hash": "0x88a1960bb073722799864b99f56c68cbe72b0c99350edcea8292beaecb4f0679",
      "transactionType": "CALL",
      "contractName": "TestToken",
      "contractAddress": "0x05e894ce2c176dbc30176626efa24850af2af0e2",
      "function": "transfer(address,uint256)",
      "arguments": [
        "0xE7CC5F382B78F2b70f924C10a4bd2aDA6C45dBEf",
        "100000000000000000000000"
      ],
      "transaction": {
        "from": "0x84c29fb8b41f229ad09f4d68f84d676a28dc4a3a",
        "to": "0x05e894ce2c176dbc30176626efa24850af2af0e2",
        "gas": "0x1169b",
        "value": "0x0",
        "input": "0xa9059cbb000000000000000000000000e7cc5f382b78f2b70f924c10a4bd2ada6c45dbef00000000000000000000000000000000000000000000152d02c7e14af6800000",
        "nonce": "0x11",
        "chainId": "0x164ce"
      },
      "additionalContracts": [],
      "isFixedGasLimit": false
    },
    {
      "hash": "0xddcd59593e46c8574caf52a2a19a046cf08c6831777efaccff9af379664bc0a2",
      "transactionType": "CALL",
      "contractName": "TestToken",
      "contractAddress": "0x00e8f81208a33bf516cd7dd46e7597dfb40f5a25",
      "function": "transfer(address,uint256)",
      "arguments": [
        "0xE7CC5F382B78F2b70f924C10a4bd2aDA6C45dBEf",
        "100000000000000000000000"
      ],
      "transaction": {
        "from": "0x84c29fb8b41f229ad09f4d68f84d676a28dc4a3a",
        "to": "0x00e8f81208a33bf516cd7dd46e7597dfb40f5a25",
        "gas": "0x1169b",
        "value": "0x0",
        "input": "0xa9059cbb000000000000000000000000e7cc5f382b78f2b70f924c10a4bd2ada6c45dbef00000000000000000000000000000000000000000000152d02c7e14af6800000",
        "nonce": "0x12",
        "chainId": "0x164ce"
      },
      "additionalContracts": [],
      "isFixedGasLimit": false
    },
    {
      "hash": "0x12f8016716f0250e2316993e387d3ceba6edfcfd9c9b5462370e0797ab669bcb",
      "transactionType": "CALL",
      "contractName": "TestToken",
      "contractAddress": "0x263a171641882db6b48210e1ea477db3d1d34509",
      "function": "transfer(address,uint256)",
      "arguments": [
        "0xE7CC5F382B78F2b70f924C10a4bd2aDA6C45dBEf",
        "100000000000000000000000"
      ],
      "transaction": {
        "from": "0x84c29fb8b41f229ad09f4d68f84d676a28dc4a3a",
        "to": "0x263a171641882db6b48210e1ea477db3d1d34509",
        "gas": "0x1169b",
        "value": "0x0",
        "input": "0xa9059cbb000000000000000000000000e7cc5f382b78f2b70f924c10a4bd2ada6c45dbef00000000000000000000000000000000000000000000152d02c7e14af6800000",
        "nonce": "0x13",
        "chainId": "0x164ce"
      },
      "additionalContracts": [],
      "isFixedGasLimit": false
    },
    {
      "hash": "0x528f5e8d6822054919578f58dfdd132d36270e916d8c85009a03c08866b721c9",
      "transactionType": "CALL",
      "contractName": "TestToken",
      "contractAddress": "0x82868da66735fcd28185b9befa9ff2aee4ba3fb8",
      "function": "transfer(address,uint256)",
      "arguments": [
        "0xE7CC5F382B78F2b70f924C10a4bd2aDA6C45dBEf",
        "100000000000000000000000"
      ],
      "transaction": {
        "from": "0x84c29fb8b41f229ad09f4d68f84d676a28dc4a3a",
        "to": "0x82868da66735fcd28185b9befa9ff2aee4ba3fb8",
        "gas": "0x1169b",
        "value": "0x0",
        "input": "0xa9059cbb000000000000000000000000e7cc5f382b78f2b70f924c10a4bd2ada6c45dbef00000000000000000000000000000000000000000000152d02c7e14af6800000",
        "nonce": "0x14",
        "chainId": "0x164ce"
      },
      "additionalContracts": [],
      "isFixedGasLimit": false
    },
    {
      "hash": "0x8ec7f5e69cfe07e76cdba1701601fd0468fe2d03c6bc956aa01ba92b8f275f30",
      "transactionType": "CALL",
      "contractName": "TestToken",
      "contractAddress": "0xeed497b085113e8c3fc563935582a72f90bde528",
      "function": "transfer(address,uint256)",
      "arguments": [
        "0xE7CC5F382B78F2b70f924C10a4bd2aDA6C45dBEf",
        "100000000000000000000000"
      ],
      "transaction": {
        "from": "0x84c29fb8b41f229ad09f4d68f84d676a28dc4a3a",
        "to": "0xeed497b085113e8c3fc563935582a72f90bde528",
        "gas": "0x1169b",
        "value": "0x0",
        "input": "0xa9059cbb000000000000000000000000e7cc5f382b78f2b70f924c10a4bd2ada6c45dbef00000000000000000000000000000000000000000000152d02c7e14af6800000",
        "nonce": "0x15",
        "chainId": "0x164ce"
      },
      "additionalContracts": [],
      "isFixedGasLimit": false
    }
  ],
  "receipts": [
    {
      "type": "0x2",
      "status": "0x1",
      "cumulativeGasUsed": "0x104d5a",
      "logs": [
        {
          "address": "0x05e894ce2c176dbc30176626efa24850af2af0e2",
          "topics": [
            "0xddf252ad1be2c89b69c2b068fc378daa952ba7f163c4a11628f55a4df523b3ef",
            "0x0000000000000000000000000000000000000000000000000000000000000000",
            "0x00000000000000000000000084c29fb8b41f229ad09f4d68f84d676a28dc4a3a"
          ],
          "data": "0x00000000000000000000000000000000000000000000d3c21bcecceda1000000",
          "blockHash": "0x8bdebf989581b99bbb614bb8cf1abd2e003fb868063b803523757592be381a7c",
          "blockNumber": "0x1ddd817",
          "blockTimestamp": "0x6a5fc473",
          "transactionHash": "0xa3129db7bfe95e7fe72df9a861845af9c92feb0124a36869a6a4ff5914ac3d33",
          "transactionIndex": "0x6",
          "logIndex": "0x1",
          "removed": false
        }
      ],
      "logsBloom": "0x00000000000000000000000000800000000000000000000000000000000040000000000000000000000000000000000000000000000000000000000000000000000000000000000000000008100000000000000000000000000000000000000000000000020000000000000000000800000000000000000000010010000000000000000000000000000000000000000000000000000000000000000000000000000000000000000000000000000000000000000000000000000000000000000000000002000000000000000000000000000000000000000000000000000020000000000000000000000000000000000000200000000000400000000000000000",
      "transactionHash": "0xa3129db7bfe95e7fe72df9a861845af9c92feb0124a36869a6a4ff5914ac3d33",
      "transactionIndex": "0x6",
      "blockHash": "0x8bdebf989581b99bbb614bb8cf1abd2e003fb868063b803523757592be381a7c",
      "blockNumber": "0x1ddd817",
      "gasUsed": "0x85201",
      "effectiveGasPrice": "0xf433b",
      "blobGasUsed": "0xa8a70",
      "from": "0x84c29fb8b41f229ad09f4d68f84d676a28dc4a3a",
      "to": null,
      "contractAddress": "0x05e894ce2c176dbc30176626efa24850af2af0e2"
    },
    {
      "type": "0x2",
      "status": "0x1",
      "cumulativeGasUsed": "0x189f4f",
      "logs": [
        {
          "address": "0x00e8f81208a33bf516cd7dd46e7597dfb40f5a25",
          "topics": [
            "0xddf252ad1be2c89b69c2b068fc378daa952ba7f163c4a11628f55a4df523b3ef",
            "0x0000000000000000000000000000000000000000000000000000000000000000",
            "0x00000000000000000000000084c29fb8b41f229ad09f4d68f84d676a28dc4a3a"
          ],
          "data": "0x00000000000000000000000000000000000000000000d3c21bcecceda1000000",
          "blockHash": "0x8bdebf989581b99bbb614bb8cf1abd2e003fb868063b803523757592be381a7c",
          "blockNumber": "0x1ddd817",
          "blockTimestamp": "0x6a5fc473",
          "transactionHash": "0xddcd59593e46c8574caf52a2a19a046cf08c6831777efaccff9af379664bc0a2",
          "transactionIndex": "0x7",
          "logIndex": "0x2",
          "removed": false
        }
      ],
      "logsBloom": "0x00000000000000000000000000000000000000000000000000000000000000000000000000000000000000000000000000000000000000000000000000000000000000000000000000000008108000000000000000000010000000000000000000000000020000000000000000000800000000000000000000010010000000000000000000000000000000000000000000000000000000000000000000000000000000000000000000000000000000000000000000000000000000000000000000000002000000000000000000000000000000000000000000000000002020000000000000000000000000000000000000200000000000000000000000000000",
      "transactionHash": "0xddcd59593e46c8574caf52a2a19a046cf08c6831777efaccff9af379664bc0a2",
      "transactionIndex": "0x7",
      "blockHash": "0x8bdebf989581b99bbb614bb8cf1abd2e003fb868063b803523757592be381a7c",
      "blockNumber": "0x1ddd817",
      "gasUsed": "0x851f5",
      "effectiveGasPrice": "0xf433b",
      "blobGasUsed": "0xa88e0",
      "from": "0x84c29fb8b41f229ad09f4d68f84d676a28dc4a3a",
      "to": null,
      "contractAddress": "0x00e8f81208a33bf516cd7dd46e7597dfb40f5a25"
    },
    {
      "type": "0x2",
      "status": "0x1",
      "cumulativeGasUsed": "0x20f150",
      "logs": [
        {
          "address": "0x263a171641882db6b48210e1ea477db3d1d34509",
          "topics": [
            "0xddf252ad1be2c89b69c2b068fc378daa952ba7f163c4a11628f55a4df523b3ef",
            "0x0000000000000000000000000000000000000000000000000000000000000000",
            "0x00000000000000000000000084c29fb8b41f229ad09f4d68f84d676a28dc4a3a"
          ],
          "data": "0x00000000000000000000000000000000000000000000d3c21bcecceda1000000",
          "blockHash": "0x8bdebf989581b99bbb614bb8cf1abd2e003fb868063b803523757592be381a7c",
          "blockNumber": "0x1ddd817",
          "blockTimestamp": "0x6a5fc473",
          "transactionHash": "0x864ed53218274db66898f27dd2eca3f8798c428162bdb2cbd42f3ecbe607d6ae",
          "transactionIndex": "0x8",
          "logIndex": "0x3",
          "removed": false
        }
      ],
      "logsBloom": "0x00000000000000000008000000000000000000000008000000000000000000000000000000000000000000000000000000000000000000000000000000000000000000000000000000000008100000000000000000000000000000000000000000000000020000000000000000000800000000000000000000010010000000000000000000000000000000000000000000000000000000000000000000000000000000000000000000000000000000000000000000000000000000000000000000000002000000000000000000000000000000000000000000000000000020000200000000000000000000000000000000200000000000000000000000000000",
      "transactionHash": "0x864ed53218274db66898f27dd2eca3f8798c428162bdb2cbd42f3ecbe607d6ae",
      "transactionIndex": "0x8",
      "blockHash": "0x8bdebf989581b99bbb614bb8cf1abd2e003fb868063b803523757592be381a7c",
      "blockNumber": "0x1ddd817",
      "gasUsed": "0x85201",
      "effectiveGasPrice": "0xf433b",
      "blobGasUsed": "0xa88e0",
      "from": "0x84c29fb8b41f229ad09f4d68f84d676a28dc4a3a",
      "to": null,
      "contractAddress": "0x263a171641882db6b48210e1ea477db3d1d34509"
    },
    {
      "type": "0x2",
      "status": "0x1",
      "cumulativeGasUsed": "0x294351",
      "logs": [
        {
          "address": "0x82868da66735fcd28185b9befa9ff2aee4ba3fb8",
          "topics": [
            "0xddf252ad1be2c89b69c2b068fc378daa952ba7f163c4a11628f55a4df523b3ef",
            "0x0000000000000000000000000000000000000000000000000000000000000000",
            "0x00000000000000000000000084c29fb8b41f229ad09f4d68f84d676a28dc4a3a"
          ],
          "data": "0x00000000000000000000000000000000000000000000d3c21bcecceda1000000",
          "blockHash": "0x8bdebf989581b99bbb614bb8cf1abd2e003fb868063b803523757592be381a7c",
          "blockNumber": "0x1ddd817",
          "blockTimestamp": "0x6a5fc473",
          "transactionHash": "0xeaa97e366e999b62685a4f4b71e85fd8bfb3bd58e5beefb81edbe608d2d70966",
          "transactionIndex": "0x9",
          "logIndex": "0x4",
          "removed": false
        }
      ],
      "logsBloom": "0x00000000000000000000000000000000000000000000000000000000000000000000000000000000000000000000000000000000000000000000000000000000000000000000000000000008100000000000000000000000000000000000000000000000020000000000000000000800000000000000000000010010000000000000000000000000040000000000000000000000000000000000000000000000001000000000000000000000000000000000000000000000000000000000000004000002000000000000000000000000000000000000000000000000000020000000000000000000000000000000000000200000000000000000000000000000",
      "transactionHash": "0xeaa97e366e999b62685a4f4b71e85fd8bfb3bd58e5beefb81edbe608d2d70966",
      "transactionIndex": "0x9",
      "blockHash": "0x8bdebf989581b99bbb614bb8cf1abd2e003fb868063b803523757592be381a7c",
      "blockNumber": "0x1ddd817",
      "gasUsed": "0x85201",
      "effectiveGasPrice": "0xf433b",
      "blobGasUsed": "0xa8a70",
      "from": "0x84c29fb8b41f229ad09f4d68f84d676a28dc4a3a",
      "to": null,
      "contractAddress": "0x82868da66735fcd28185b9befa9ff2aee4ba3fb8"
    },
    {
      "type": "0x2",
      "status": "0x1",
      "cumulativeGasUsed": "0x31956a",
      "logs": [
        {
          "address": "0xeed497b085113e8c3fc563935582a72f90bde528",
          "topics": [
            "0xddf252ad1be2c89b69c2b068fc378daa952ba7f163c4a11628f55a4df523b3ef",
            "0x0000000000000000000000000000000000000000000000000000000000000000",
            "0x00000000000000000000000084c29fb8b41f229ad09f4d68f84d676a28dc4a3a"
          ],
          "data": "0x00000000000000000000000000000000000000000000d3c21bcecceda1000000",
          "blockHash": "0x8bdebf989581b99bbb614bb8cf1abd2e003fb868063b803523757592be381a7c",
          "blockNumber": "0x1ddd817",
          "blockTimestamp": "0x6a5fc473",
          "transactionHash": "0x28093510825ee83d08b5f01bffb9039349cab20209cd99171e8b10b8db904ec0",
          "transactionIndex": "0xa",
          "logIndex": "0x5",
          "removed": false
        }
      ],
      "logsBloom": "0x00000000000000000000000000000000000000000000000000000000000000000000000000000000000000000000000000000000080000000002000000000000000000000000000000000008100000000000000000000000000000000000000000000000020000000000000000000800000000000010000000010010000000000000000000000000000000000000000000000000000000000000000000000000000000000000000000000000000000000000000000000000000000000000000000000002000000000000000000000000000000000000000000000000000020000000000000000000000000000000000000200000000000000000000000000000",
      "transactionHash": "0x28093510825ee83d08b5f01bffb9039349cab20209cd99171e8b10b8db904ec0",
      "transactionIndex": "0xa",
      "blockHash": "0x8bdebf989581b99bbb614bb8cf1abd2e003fb868063b803523757592be381a7c",
      "blockNumber": "0x1ddd817",
      "gasUsed": "0x85219",
      "effectiveGasPrice": "0xf433b",
      "blobGasUsed": "0xa8d90",
      "from": "0x84c29fb8b41f229ad09f4d68f84d676a28dc4a3a",
      "to": null,
      "contractAddress": "0xeed497b085113e8c3fc563935582a72f90bde528"
    },
    {
      "type": "0x2",
      "status": "0x1",
      "cumulativeGasUsed": "0x3cb463",
      "logs": [],
      "logsBloom": "0x00000000000000000000000000000000000000000000000000000000000000000000000000000000000000000000000000000000000000000000000000000000000000000000000000000000000000000000000000000000000000000000000000000000000000000000000000000000000000000000000000000000000000000000000000000000000000000000000000000000000000000000000000000000000000000000000000000000000000000000000000000000000000000000000000000000000000000000000000000000000000000000000000000000000000000000000000000000000000000000000000000000000000000000000000000000",
      "transactionHash": "0x7fd723b5663dc20f787ce073539c1dfe921a09646a95f8dba6006706b1124536",
      "transactionIndex": "0xb",
      "blockHash": "0x8bdebf989581b99bbb614bb8cf1abd2e003fb868063b803523757592be381a7c",
      "blockNumber": "0x1ddd817",
      "gasUsed": "0xb1ef9",
      "effectiveGasPrice": "0xf433b",
      "blobGasUsed": "0xb0770",
      "from": "0x84c29fb8b41f229ad09f4d68f84d676a28dc4a3a",
      "to": null,
      "contractAddress": "0xe7cc5f382b78f2b70f924c10a4bd2ada6c45dbef"
    },
    {
      "type": "0x2",
      "status": "0x1",
      "cumulativeGasUsed": "0x3e1ada",
      "logs": [
        {
          "address": "0xe7cc5f382b78f2b70f924c10a4bd2ada6c45dbef",
          "topics": [
            "0x158412daecdc1456d01568828bcdb18464cc7f1ce0215ddbc3f3cfede9d1e63d",
            "0x00000000000000000000000005e894ce2c176dbc30176626efa24850af2af0e2"
          ],
          "data": "0x",
          "blockHash": "0x8bdebf989581b99bbb614bb8cf1abd2e003fb868063b803523757592be381a7c",
          "blockNumber": "0x1ddd817",
          "blockTimestamp": "0x6a5fc473",
          "transactionHash": "0x8ec7f5e69cfe07e76cdba1701601fd0468fe2d03c6bc956aa01ba92b8f275f30",
          "transactionIndex": "0xc",
          "logIndex": "0x6",
          "removed": false
        }
      ],
      "logsBloom": "0x00000000000000010000000004000000000000000000000000000000000000000000000000200400000000000000000000000000000000000000000000000000000000000000000000000000000000000000000000000000000000000000000000000000000000000000000000000000000000000000000000000000000000020000000000000000000000000000000000000000000080000000000000000000000000000000001000000000000000000000000000000000000000000000000000000000000000000000000400000000000000000080000000000000000000000000000000000000000000000000000000000000000000000000000000000000",
      "transactionHash": "0x8ec7f5e69cfe07e76cdba1701601fd0468fe2d03c6bc956aa01ba92b8f275f30",
      "transactionIndex": "0xc",
      "blockHash": "0x8bdebf989581b99bbb614bb8cf1abd2e003fb868063b803523757592be381a7c",
      "blockNumber": "0x1ddd817",
      "gasUsed": "0x16677",
      "effectiveGasPrice": "0xf433b",
      "blobGasUsed": "0x9c40",
      "from": "0x84c29fb8b41f229ad09f4d68f84d676a28dc4a3a",
      "to": "0xe7cc5f382b78f2b70f924c10a4bd2ada6c45dbef",
      "contractAddress": null
    },
    {
      "type": "0x2",
      "status": "0x1",
      "cumulativeGasUsed": "0x3f3e79",
      "logs": [
        {
          "address": "0xe7cc5f382b78f2b70f924c10a4bd2ada6c45dbef",
          "topics": [
            "0x158412daecdc1456d01568828bcdb18464cc7f1ce0215ddbc3f3cfede9d1e63d",
            "0x00000000000000000000000000e8f81208a33bf516cd7dd46e7597dfb40f5a25"
          ],
          "data": "0x",
          "blockHash": "0x8bdebf989581b99bbb614bb8cf1abd2e003fb868063b803523757592be381a7c",
          "blockNumber": "0x1ddd817",
          "blockTimestamp": "0x6a5fc473",
          "transactionHash": "0x976f69abd37157e7a96e2d2587da6782ca1f0dccec0d37a9c444c14cca7a949b",
          "transactionIndex": "0xd",
          "logIndex": "0x7",
          "removed": false
        }
      ],
      "logsBloom": "0x00000000000000010000000000000000000000000000000000000000000000000000000000000400000000000000000000000000000000000000000000000000000000000000000000000040000000000000000000000000000000000000000000000000000000000000000000040000000000000000000000000000000000020000000000000001000000000000000000000000000080000000000000000000000000000000001000000000000000000000000000000000000000000000000000000000000000000000000400000000000000000000000000000000000000000000000000000000000000000000000000000000000000000000000000000000",
      "transactionHash": "0x976f69abd37157e7a96e2d2587da6782ca1f0dccec0d37a9c444c14cca7a949b",
      "transactionIndex": "0xd",
      "blockHash": "0x8bdebf989581b99bbb614bb8cf1abd2e003fb868063b803523757592be381a7c",
      "blockNumber": "0x1ddd817",
      "gasUsed": "0x1239f",
      "effectiveGasPrice": "0xf433b",
      "blobGasUsed": "0x9c40",
      "from": "0x84c29fb8b41f229ad09f4d68f84d676a28dc4a3a",
      "to": "0xe7cc5f382b78f2b70f924c10a4bd2ada6c45dbef",
      "contractAddress": null
    },
    {
      "type": "0x2",
      "status": "0x1",
      "cumulativeGasUsed": "0x406224",
      "logs": [
        {
          "address": "0xe7cc5f382b78f2b70f924c10a4bd2ada6c45dbef",
          "topics": [
            "0x158412daecdc1456d01568828bcdb18464cc7f1ce0215ddbc3f3cfede9d1e63d",
            "0x000000000000000000000000263a171641882db6b48210e1ea477db3d1d34509"
          ],
          "data": "0x",
          "blockHash": "0x8bdebf989581b99bbb614bb8cf1abd2e003fb868063b803523757592be381a7c",
          "blockNumber": "0x1ddd817",
          "blockTimestamp": "0x6a5fc473",
          "transactionHash": "0x88a1960bb073722799864b99f56c68cbe72b0c99350edcea8292beaecb4f0679",
          "transactionIndex": "0xe",
          "logIndex": "0x8",
          "removed": false
        }
      ],
      "logsBloom": "0x00000000000000010000100000000000000000000000000000000000000000000000000000000400000000000000000000000000000000000000000000000000000000000000000000000000000000000000000000000000000000000000000000000000000000000000000000000000000002000000000000000000000000020000000000000000000000000000000000000000000080000000000000000000000000000000001000000000000000000000000000000000000000000000000000000000000000000000000400000000000000000000000000000000000000000000008000000000000000000000000000000000000000000000000000000000",
      "transactionHash": "0x88a1960bb073722799864b99f56c68cbe72b0c99350edcea8292beaecb4f0679",
      "transactionIndex": "0xe",
      "blockHash": "0x8bdebf989581b99bbb614bb8cf1abd2e003fb868063b803523757592be381a7c",
      "blockNumber": "0x1ddd817",
      "gasUsed": "0x123ab",
      "effectiveGasPrice": "0xf433b",
      "blobGasUsed": "0x9c40",
      "from": "0x84c29fb8b41f229ad09f4d68f84d676a28dc4a3a",
      "to": "0xe7cc5f382b78f2b70f924c10a4bd2ada6c45dbef",
      "contractAddress": null
    },
    {
      "type": "0x2",
      "status": "0x1",
      "cumulativeGasUsed": "0x4185cf",
      "logs": [
        {
          "address": "0xe7cc5f382b78f2b70f924c10a4bd2ada6c45dbef",
          "topics": [
            "0x158412daecdc1456d01568828bcdb18464cc7f1ce0215ddbc3f3cfede9d1e63d",
            "0x00000000000000000000000082868da66735fcd28185b9befa9ff2aee4ba3fb8"
          ],
          "data": "0x",
          "blockHash": "0x8bdebf989581b99bbb614bb8cf1abd2e003fb868063b803523757592be381a7c",
          "blockNumber": "0x1ddd817",
          "blockTimestamp": "0x6a5fc473",
          "transactionHash": "0xcc2b659f37d518dbecd6f03f7b2dd1ca7081d63c21ab5d2d789e53edefa4b708",
          "transactionIndex": "0xf",
          "logIndex": "0x9",
          "removed": false
        }
      ],
      "logsBloom": "0x00000000000000010000000000000000000000000000000000000000000000000000000000000400000000000000000000000000000000002000000000000000000000000000000000000000000000000000000000000000000000000000000000000000000000000000000000000000000000000000000000000000000000020000000000000000000000000004000000000000000080000000000000000000000000000000001000000000000000000000000000000000000000000000000000000000000000000000000400000000100000000000000000000000000000000000000000000000000000000000000000000000000000000000000000000000",
      "transactionHash": "0xcc2b659f37d518dbecd6f03f7b2dd1ca7081d63c21ab5d2d789e53edefa4b708",
      "transactionIndex": "0xf",
      "blockHash": "0x8bdebf989581b99bbb614bb8cf1abd2e003fb868063b803523757592be381a7c",
      "blockNumber": "0x1ddd817",
      "gasUsed": "0x123ab",
      "effectiveGasPrice": "0xf433b",
      "blobGasUsed": "0x9c40",
      "from": "0x84c29fb8b41f229ad09f4d68f84d676a28dc4a3a",
      "to": "0xe7cc5f382b78f2b70f924c10a4bd2ada6c45dbef",
      "contractAddress": null
    },
    {
      "type": "0x2",
      "status": "0x1",
      "cumulativeGasUsed": "0x42a97a",
      "logs": [
        {
          "address": "0xe7cc5f382b78f2b70f924c10a4bd2ada6c45dbef",
          "topics": [
            "0x158412daecdc1456d01568828bcdb18464cc7f1ce0215ddbc3f3cfede9d1e63d",
            "0x000000000000000000000000eed497b085113e8c3fc563935582a72f90bde528"
          ],
          "data": "0x",
          "blockHash": "0x8bdebf989581b99bbb614bb8cf1abd2e003fb868063b803523757592be381a7c",
          "blockNumber": "0x1ddd817",
          "blockTimestamp": "0x6a5fc473",
          "transactionHash": "0xd44dbd293613f611fce46977605ce85ed0675884204bd7eb4da3244f311fdaba",
          "transactionIndex": "0x10",
          "logIndex": "0xa",
          "removed": false
        }
      ],
      "logsBloom": "0x00000000000000010000000000000000000000000000000000000000000000000000000000000400000000000000000000000000000000080000000000000000000000000000000000000000000000000000000000000000000000000000000000000008000000000000000000000000000000000000000000000000000000020000000000000000000000000000000000000000000080000000000000000000000000000000001000000000000000000000000000040000000000000000000000000000000000000000000400000000000000000000000000000000000000000000000000000000000000000000000000000000000000000000000000000000",
      "transactionHash": "0xd44dbd293613f611fce46977605ce85ed0675884204bd7eb4da3244f311fdaba",
      "transactionIndex": "0x10",
      "blockHash": "0x8bdebf989581b99bbb614bb8cf1abd2e003fb868063b803523757592be381a7c",
      "blockNumber": "0x1ddd817",
      "gasUsed": "0x123ab",
      "effectiveGasPrice": "0xf433b",
      "blobGasUsed": "0x9c40",
      "from": "0x84c29fb8b41f229ad09f4d68f84d676a28dc4a3a",
      "to": "0xe7cc5f382b78f2b70f924c10a4bd2ada6c45dbef",
      "contractAddress": null
    },
    {
      "type": "0x2",
      "status": "0x1",
      "cumulativeGasUsed": "0x43732f",
      "logs": [
        {
          "address": "0x05e894ce2c176dbc30176626efa24850af2af0e2",
          "topics": [
            "0xddf252ad1be2c89b69c2b068fc378daa952ba7f163c4a11628f55a4df523b3ef",
            "0x00000000000000000000000084c29fb8b41f229ad09f4d68f84d676a28dc4a3a",
            "0x000000000000000000000000e7cc5f382b78f2b70f924c10a4bd2ada6c45dbef"
          ],
          "data": "0x00000000000000000000000000000000000000000000152d02c7e14af6800000",
          "blockHash": "0x8bdebf989581b99bbb614bb8cf1abd2e003fb868063b803523757592be381a7c",
          "blockNumber": "0x1ddd817",
          "blockTimestamp": "0x6a5fc473",
          "transactionHash": "0xa14f59612b68ec423e54cedcbf86f77ada6779f7c843e100775ebad29fe08d0a",
          "transactionIndex": "0x11",
          "logIndex": "0xb",
          "removed": false
        }
      ],
      "logsBloom": "0x00000000000000000000000000800000000000000000000000000000000040000000000000000000000000000000000000000000000000000000000000000000000000000000000000000008100000000000000000000000000000000000000000000000000000000000000000000000000000000000000000010010008000000000000000000000000000000000000000000000000000000000000000010000000000000000000000000000000000000000000000000000000000000000000000000002000000004000000000000000000000000000000000000000000000000000000000000000000000000000000000200000000000400000000000000000",
      "transactionHash": "0xa14f59612b68ec423e54cedcbf86f77ada6779f7c843e100775ebad29fe08d0a",
      "transactionIndex": "0x11",
      "blockHash": "0x8bdebf989581b99bbb614bb8cf1abd2e003fb868063b803523757592be381a7c",
      "blockNumber": "0x1ddd817",
      "gasUsed": "0xc9b5",
      "effectiveGasPrice": "0xf433b",
      "blobGasUsed": "0x9c40",
      "from": "0x84c29fb8b41f229ad09f4d68f84d676a28dc4a3a",
      "to": "0x05e894ce2c176dbc30176626efa24850af2af0e2",
      "contractAddress": null
    },
    {
      "type": "0x2",
      "status": "0x1",
      "cumulativeGasUsed": "0x443ce4",
      "logs": [
        {
          "address": "0x00e8f81208a33bf516cd7dd46e7597dfb40f5a25",
          "topics": [
            "0xddf252ad1be2c89b69c2b068fc378daa952ba7f163c4a11628f55a4df523b3ef",
            "0x00000000000000000000000084c29fb8b41f229ad09f4d68f84d676a28dc4a3a",
            "0x000000000000000000000000e7cc5f382b78f2b70f924c10a4bd2ada6c45dbef"
          ],
          "data": "0x00000000000000000000000000000000000000000000152d02c7e14af6800000",
          "blockHash": "0x8bdebf989581b99bbb614bb8cf1abd2e003fb868063b803523757592be381a7c",
          "blockNumber": "0x1ddd817",
          "blockTimestamp": "0x6a5fc473",
          "transactionHash": "0x528f5e8d6822054919578f58dfdd132d36270e916d8c85009a03c08866b721c9",
          "transactionIndex": "0x12",
          "logIndex": "0xc",
          "removed": false
        }
      ],
      "logsBloom": "0x00000000000000000000000000000000000000000000000000000000000000000000000000000000000000000000000000000000000000000000000000000000000000000000000000000008108000000000000000000010000000000000000000000000000000000000000000000000000000000000000000010010008000000000000000000000000000000000000000000000000000000000000000010000000000000000000000000000000000000000000000000000000000000000000000000002000000004000000000000000000000000000000000000000002000000000000000000000000000000000000000200000000000000000000000000000",
      "transactionHash": "0x528f5e8d6822054919578f58dfdd132d36270e916d8c85009a03c08866b721c9",
      "transactionIndex": "0x12",
      "blockHash": "0x8bdebf989581b99bbb614bb8cf1abd2e003fb868063b803523757592be381a7c",
      "blockNumber": "0x1ddd817",
      "gasUsed": "0xc9b5",
      "effectiveGasPrice": "0xf433b",
      "blobGasUsed": "0x9c40",
      "from": "0x84c29fb8b41f229ad09f4d68f84d676a28dc4a3a",
      "to": "0x00e8f81208a33bf516cd7dd46e7597dfb40f5a25",
      "contractAddress": null
    },
    {
      "type": "0x2",
      "status": "0x1",
      "cumulativeGasUsed": "0x450699",
      "logs": [
        {
          "address": "0x263a171641882db6b48210e1ea477db3d1d34509",
          "topics": [
            "0xddf252ad1be2c89b69c2b068fc378daa952ba7f163c4a11628f55a4df523b3ef",
            "0x00000000000000000000000084c29fb8b41f229ad09f4d68f84d676a28dc4a3a",
            "0x000000000000000000000000e7cc5f382b78f2b70f924c10a4bd2ada6c45dbef"
          ],
          "data": "0x00000000000000000000000000000000000000000000152d02c7e14af6800000",
          "blockHash": "0x8bdebf989581b99bbb614bb8cf1abd2e003fb868063b803523757592be381a7c",
          "blockNumber": "0x1ddd817",
          "blockTimestamp": "0x6a5fc473",
          "transactionHash": "0x4e357782c9831dfc36948326c7c423ebed91ab997ad383400d3c027b302f403f",
          "transactionIndex": "0x13",
          "logIndex": "0xd",
          "removed": false
        }
      ],
      "logsBloom": "0x00000000000000000008000000000000000000000008000000000000000000000000000000000000000000000000000000000000000000000000000000000000000000000000000000000008100000000000000000000000000000000000000000000000000000000000000000000000000000000000000000010010008000000000000000000000000000000000000000000000000000000000000000010000000000000000000000000000000000000000000000000000000000000000000000000002000000004000000000000000000000000000000000000000000000000200000000000000000000000000000000200000000000000000000000000000",
      "transactionHash": "0x4e357782c9831dfc36948326c7c423ebed91ab997ad383400d3c027b302f403f",
      "transactionIndex": "0x13",
      "blockHash": "0x8bdebf989581b99bbb614bb8cf1abd2e003fb868063b803523757592be381a7c",
      "blockNumber": "0x1ddd817",
      "gasUsed": "0xc9b5",
      "effectiveGasPrice": "0xf433b",
      "blobGasUsed": "0x9c40",
      "from": "0x84c29fb8b41f229ad09f4d68f84d676a28dc4a3a",
      "to": "0x263a171641882db6b48210e1ea477db3d1d34509",
      "contractAddress": null
    },
    {
      "type": "0x2",
      "status": "0x1",
      "cumulativeGasUsed": "0x45d04e",
      "logs": [
        {
          "address": "0x82868da66735fcd28185b9befa9ff2aee4ba3fb8",
          "topics": [
            "0xddf252ad1be2c89b69c2b068fc378daa952ba7f163c4a11628f55a4df523b3ef",
            "0x00000000000000000000000084c29fb8b41f229ad09f4d68f84d676a28dc4a3a",
            "0x000000000000000000000000e7cc5f382b78f2b70f924c10a4bd2ada6c45dbef"
          ],
          "data": "0x00000000000000000000000000000000000000000000152d02c7e14af6800000",
          "blockHash": "0x8bdebf989581b99bbb614bb8cf1abd2e003fb868063b803523757592be381a7c",
          "blockNumber": "0x1ddd817",
          "blockTimestamp": "0x6a5fc473",
          "transactionHash": "0x12f8016716f0250e2316993e387d3ceba6edfcfd9c9b5462370e0797ab669bcb",
          "transactionIndex": "0x14",
          "logIndex": "0xe",
          "removed": false
        }
      ],
      "logsBloom": "0x00000000000000000000000000000000000000000000000000000000000000000000000000000000000000000000000000000000000000000000000000000000000000000000000000000008100000000000000000000000000000000000000000000000000000000000000000000000000000000000000000010010008000000000000000000000040000000000000000000000000000000000000000010000001000000000000000000000000000000000000000000000000000000000000004000002000000004000000000000000000000000000000000000000000000000000000000000000000000000000000000200000000000000000000000000000",
      "transactionHash": "0x12f8016716f0250e2316993e387d3ceba6edfcfd9c9b5462370e0797ab669bcb",
      "transactionIndex": "0x14",
      "blockHash": "0x8bdebf989581b99bbb614bb8cf1abd2e003fb868063b803523757592be381a7c",
      "blockNumber": "0x1ddd817",
      "gasUsed": "0xc9b5",
      "effectiveGasPrice": "0xf433b",
      "blobGasUsed": "0x9c40",
      "from": "0x84c29fb8b41f229ad09f4d68f84d676a28dc4a3a",
      "to": "0x82868da66735fcd28185b9befa9ff2aee4ba3fb8",
      "contractAddress": null
    },
    {
      "type": "0x2",
      "status": "0x1",
      "cumulativeGasUsed": "0x469a03",
      "logs": [
        {
          "address": "0xeed497b085113e8c3fc563935582a72f90bde528",
          "topics": [
            "0xddf252ad1be2c89b69c2b068fc378daa952ba7f163c4a11628f55a4df523b3ef",
            "0x00000000000000000000000084c29fb8b41f229ad09f4d68f84d676a28dc4a3a",
            "0x000000000000000000000000e7cc5f382b78f2b70f924c10a4bd2ada6c45dbef"
          ],
          "data": "0x00000000000000000000000000000000000000000000152d02c7e14af6800000",
          "blockHash": "0x8bdebf989581b99bbb614bb8cf1abd2e003fb868063b803523757592be381a7c",
          "blockNumber": "0x1ddd817",
          "blockTimestamp": "0x6a5fc473",
          "transactionHash": "0x1ea43c427db8a7d295046ee1639ac42387da89fed3b7cfc703aa8ae0ee6a8562",
          "transactionIndex": "0x15",
          "logIndex": "0xf",
          "removed": false
        }
      ],
      "logsBloom": "0x00000000000000000000000000000000000000000000000000000000000000000000000000000000000000000000000000000000080000000002000000000000000000000000000000000008100000000000000000000000000000000000000000000000000000000000000000000000000000000010000000010010008000000000000000000000000000000000000000000000000000000000000000010000000000000000000000000000000000000000000000000000000000000000000000000002000000004000000000000000000000000000000000000000000000000000000000000000000000000000000000200000000000000000000000000000",
      "transactionHash": "0x1ea43c427db8a7d295046ee1639ac42387da89fed3b7cfc703aa8ae0ee6a8562",
      "transactionIndex": "0x15",
      "blockHash": "0x8bdebf989581b99bbb614bb8cf1abd2e003fb868063b803523757592be381a7c",
      "blockNumber": "0x1ddd817",
      "gasUsed": "0xc9b5",
      "effectiveGasPrice": "0xf433b",
      "blobGasUsed": "0x9c40",
      "from": "0x84c29fb8b41f229ad09f4d68f84d676a28dc4a3a",
      "to": "0xeed497b085113e8c3fc563935582a72f90bde528",
      "contractAddress": null
    }
  ],
  "libraries": [],
  "pending": [],
  "returns": {},
  "timestamp": 1784661111040,
  "chain": 91342,
  "commit": "b232032"
}